{
  "contractName": "BancorNetworkPathFinder",
  "abi": [
    {
      "constant": false,
      "inputs": [
        {
          "name": "_onlyOwnerCanUpdateRegistry",
          "type": "bool"
        }
      ],
      "name": "restrictRegistryUpdate",
      "outputs": [],
      "payable": false,
      "stateMutability": "nonpayable",
      "type": "function"
    },
    {
      "constant": true,
      "inputs": [],
      "name": "onlyOwnerCanUpdateRegistry",
      "outputs": [
        {
          "name": "",
          "type": "bool"
        }
      ],
      "payable": false,
      "stateMutability": "view",
      "type": "function"
    },
    {
      "constant": false,
      "inputs": [],
      "name": "updateRegistry",
      "outputs": [],
      "payable": false,
      "stateMutability": "nonpayable",
      "type": "function"
    },
    {
      "constant": true,
      "inputs": [],
      "name": "prevRegistry",
      "outputs": [
        {
          "name": "",
          "type": "address"
        }
      ],
      "payable": false,
      "stateMutability": "view",
      "type": "function"
    },
    {
      "constant": false,
      "inputs": [],
      "name": "acceptOwnership",
      "outputs": [],
      "payable": false,
      "stateMutability": "nonpayable",
      "type": "function"
    },
    {
      "constant": true,
      "inputs": [],
      "name": "registry",
      "outputs": [
        {
          "name": "",
          "type": "address"
        }
      ],
      "payable": false,
      "stateMutability": "view",
      "type": "function"
    },
    {
      "constant": true,
      "inputs": [],
      "name": "owner",
      "outputs": [
        {
          "name": "",
          "type": "address"
        }
      ],
      "payable": false,
      "stateMutability": "view",
      "type": "function"
    },
    {
      "constant": false,
      "inputs": [],
      "name": "restoreRegistry",
      "outputs": [],
      "payable": false,
      "stateMutability": "nonpayable",
      "type": "function"
    },
    {
      "constant": true,
      "inputs": [],
      "name": "newOwner",
      "outputs": [
        {
          "name": "",
          "type": "address"
        }
      ],
      "payable": false,
      "stateMutability": "view",
      "type": "function"
    },
    {
      "constant": true,
      "inputs": [],
      "name": "anchorToken",
      "outputs": [
        {
          "name": "",
          "type": "address"
        }
      ],
      "payable": false,
      "stateMutability": "view",
      "type": "function"
    },
    {
      "constant": false,
      "inputs": [
        {
          "name": "_newOwner",
          "type": "address"
        }
      ],
      "name": "transferOwnership",
      "outputs": [],
      "payable": false,
      "stateMutability": "nonpayable",
      "type": "function"
    },
    {
      "inputs": [
        {
          "name": "_registry",
          "type": "address"
        }
      ],
      "payable": false,
      "stateMutability": "nonpayable",
      "type": "constructor"
    },
    {
      "anonymous": false,
      "inputs": [
        {
          "indexed": true,
          "name": "_prevOwner",
          "type": "address"
        },
        {
          "indexed": true,
          "name": "_newOwner",
          "type": "address"
        }
      ],
      "name": "OwnerUpdate",
      "type": "event"
    },
    {
      "constant": false,
      "inputs": [
        {
          "name": "_anchorToken",
          "type": "address"
        }
      ],
      "name": "setAnchorToken",
      "outputs": [],
      "payable": false,
      "stateMutability": "nonpayable",
      "type": "function"
    },
    {
      "constant": true,
      "inputs": [
        {
          "name": "_sourceToken",
          "type": "address"
        },
        {
          "name": "_targetToken",
          "type": "address"
        }
      ],
      "name": "generatePath",
      "outputs": [
        {
          "name": "",
          "type": "address[]"
        }
      ],
      "payable": false,
      "stateMutability": "view",
      "type": "function"
    }
  ],
  "bytecode": "0x608060405234801561001057600080fd5b50604051602080611027833981016040525160008054600160a060020a031916331790558080600160a060020a038116151561004b57600080fd5b5060028054600160a060020a03909216600160a060020a031992831681179091556003805490921617905550610fa1806100866000396000f3006080604052600436106100ab5763ffffffff60e060020a600035041663024c7ec781146100b05780632f167f05146100cc5780632fe8a6ad146100ed57806349d10b641461011657806361cd756e1461012b57806375e1cc821461015c57806379ba5097146101d35780637b103999146101e85780638da5cb5b146101fd578063b4a176d314610212578063d4ee1d9014610227578063e1c4c9661461023c578063f2fde38b14610251575b600080fd5b3480156100bc57600080fd5b506100ca6004351515610272565b005b3480156100d857600080fd5b506100ca600160a060020a03600435166102c9565b3480156100f957600080fd5b5061010261030f565b604080519115158252519081900360200190f35b34801561012257600080fd5b506100ca610330565b34801561013757600080fd5b506101406104ce565b60408051600160a060020a039092168252519081900360200190f35b34801561016857600080fd5b50610183600160a060020a03600435811690602435166104dd565b60408051602080825283518183015283519192839290830191858101910280838360005b838110156101bf5781810151838201526020016101a7565b505050509050019250505060405180910390f35b3480156101df57600080fd5b506100ca61053b565b3480156101f457600080fd5b506101406105c3565b34801561020957600080fd5b506101406105d2565b34801561021e57600080fd5b506100ca6105e1565b34801561023357600080fd5b50610140610629565b34801561024857600080fd5b50610140610638565b34801561025d57600080fd5b506100ca600160a060020a0360043516610647565b600054600160a060020a0316331461028957600080fd5b60038054911515740100000000000000000000000000000000000000000274ff000000000000000000000000000000000000000019909216919091179055565b600054600160a060020a031633146102e057600080fd5b6004805473ffffffffffffffffffffffffffffffffffffffff1916600160a060020a0392909216919091179055565b60035474010000000000000000000000000000000000000000900460ff1681565b60008054600160a060020a0316331480610365575060035474010000000000000000000000000000000000000000900460ff16155b151561037057600080fd5b6103997f436f6e74726163745265676973747279000000000000000000000000000000006106a8565b600254909150600160a060020a038083169116148015906103c25750600160a060020a03811615155b15156103cd57600080fd5b604080517fbb34534c0000000000000000000000000000000000000000000000000000000081527f436f6e747261637452656769737472790000000000000000000000000000000060048201529051600091600160a060020a0384169163bb34534c9160248082019260209290919082900301818787803b15801561045157600080fd5b505af1158015610465573d6000803e3d6000fd5b505050506040513d602081101561047b57600080fd5b5051600160a060020a0316141561049157600080fd5b6002805460038054600160a060020a0380841673ffffffffffffffffffffffffffffffffffffffff19928316179092559091169216919091179055565b600354600160a060020a031681565b6060600060608061050d7f42616e636f72436f6e76657274657252656769737472790000000000000000006106a8565b92506105198684610740565b91506105258584610740565b90506105318282610b35565b9695505050505050565b600154600160a060020a0316331461055257600080fd5b60015460008054604051600160a060020a0393841693909116917f343765429aea5a34b3ff6a3785a98a5abb2597aca87bfbb58632c173d585373a91a3600180546000805473ffffffffffffffffffffffffffffffffffffffff19908116600160a060020a03841617909155169055565b600254600160a060020a031681565b600054600160a060020a031681565b600054600160a060020a031633146105f857600080fd5b6003546002805473ffffffffffffffffffffffffffffffffffffffff1916600160a060020a03909216919091179055565b600154600160a060020a031681565b600454600160a060020a031681565b600054600160a060020a0316331461065e57600080fd5b600054600160a060020a038281169116141561067957600080fd5b6001805473ffffffffffffffffffffffffffffffffffffffff1916600160a060020a0392909216919091179055565b600254604080517fbb34534c000000000000000000000000000000000000000000000000000000008152600481018490529051600092600160a060020a03169163bb34534c91602480830192602092919082900301818787803b15801561070e57600080fd5b505af1158015610722573d6000803e3d6000fd5b505050506040513d602081101561073857600080fd5b505192915050565b60608060008060008060006060600460009054906101000a9004600160a060020a0316600160a060020a03168a600160a060020a0316141561078c576107858a610db3565b9750610b28565b88600160a060020a0316634123ef608b6040518263ffffffff1660e060020a0281526004018082600160a060020a0316600160a060020a03168152602001915050602060405180830381600087803b1580156107e757600080fd5b505af11580156107fb573d6000803e3d6000fd5b505050506040513d602081101561081157600080fd5b505115610828576108218a610db3565b9650610911565b88600160a060020a031663f4fb86c08b6040518263ffffffff1660e060020a0281526004018082600160a060020a0316600160a060020a03168152602001915050600060405180830381600087803b15801561088357600080fd5b505af1158015610897573d6000803e3d6000fd5b505050506040513d6000823e601f3d908101601f1916820160405260208110156108c057600080fd5b8101908080516401000000008111156108d857600080fd5b820160208101848111156108eb57600080fd5b815185602082028301116401000000008211171561090857600080fd5b50909a50505050505b600095505b8651861015610b1657868681518110151561092d57fe5b90602001906020020151600160a060020a0316638da5cb5b6040518163ffffffff1660e060020a028152600401602060405180830381600087803b15801561097457600080fd5b505af1158015610988573d6000803e3d6000fd5b505050506040513d602081101561099e57600080fd5b5051604080517f71f52bf30000000000000000000000000000000000000000000000000000000081529051919650600160a060020a038716916371f52bf3916004808201926020929091908290030181600087803b1580156109ff57600080fd5b505af1158015610a13573d6000803e3d6000fd5b505050506040513d6020811015610a2957600080fd5b505161ffff169350600092505b83831015610b0b5784600160a060020a03166319b64015846040518263ffffffff1660e060020a02815260040180828152602001915050602060405180830381600087803b158015610a8757600080fd5b505af1158015610a9b573d6000803e3d6000fd5b505050506040513d6020811015610ab157600080fd5b50519150600160a060020a03808316908b1614610b0057610ad2828a610740565b9050600081511115610b00576107858a8888815181101515610af057fe5b9060200190602002015183610e06565b600190920191610a36565b600190950194610916565b60408051600081526020810190915297505b5050505050505092915050565b606060008060606000806000806000808b51118015610b55575060008a51115b15610d93578a519750895196505b600088118015610b735750600087115b8015610bc457508960018803815181101515610b8b57fe5b90602001906020020151600160a060020a03168b60018a03815181101515610baf57fe5b90602001906020020151600160a060020a0316145b15610bda57600019978801979690960195610b63565b868801600101604051908082528060200260200182016040528015610c09578160200160208202803883390190505b509550600094505b878511610c60578a85815181101515610c2657fe5b906020019060200201518686815181101515610c3e57fe5b600160a060020a03909216602092830290910190910152600190940193610c11565b8693505b6000841115610cbc578960018503815181101515610c7e57fe5b906020019060200201518685885103815181101515610c9957fe5b600160a060020a0390921660209283029091019091015260001990930192610c64565b60009250600091505b8551821015610d825750600281015b60028206865103811015610d36578581815181101515610cf057fe5b90602001906020020151600160a060020a03168683815181101515610d1157fe5b90602001906020020151600160a060020a03161415610d2e578091505b600201610cd4565b8582815181101515610d4457fe5b602090810290910101518651600185019488918110610d5f57fe5b600160a060020a0390921660209283029091019091015260019190910190610cc5565b610d8c8684610ee9565b9850610da5565b60408051600081526020810190915298505b505050505050505092915050565b6040805160018082528183019092526060918291906020808301908038833901905050905082816000815181101515610de857fe5b600160a060020a039092166020928302909101909101529050919050565b60608060008351600201604051908082528060200260200182016040528015610e39578160200160208202803883390190505b50915085826000815181101515610e4c57fe5b600160a060020a039092166020928302909101909101528151859083906001908110610e7457fe5b600160a060020a039092166020928302909101909101525060005b8351811015610ee0578381815181101515610ea657fe5b906020019060200201518282600201815181101515610ec157fe5b600160a060020a03909216602092830290910190910152600101610e8f565b50949350505050565b606080600083604051908082528060200260200182016040528015610f18578160200160208202803883390190505b509150600090505b83811015610f6d578481815181101515610f3657fe5b906020019060200201518282815181101515610f4e57fe5b600160a060020a03909216602092830290910190910152600101610f20565b5093925050505600a165627a7a7230582092141441b585ee4139bb872b87a7ed18cf35000d06ff1f23d840c1986dcf83bb0029",
  "source": "pragma solidity 0.4.26;\r\nimport './utility/ContractRegistryClient.sol';\r\nimport './converter/interfaces/IBancorConverterRegistry.sol';\r\nimport './converter/interfaces/IBancorConverter.sol';\r\nimport './token/interfaces/ISmartToken.sol';\r\n\r\n/**\r\n  * @dev The BancorNetworkPathFinder contract allows generating a conversion path between any token pair in the Bancor Network.\r\n  * The path can then be used in various functions in the BancorNetwork contract.\r\n  *\r\n  * See the BancorNetwork contract for conversion path format.\r\n*/\r\ncontract BancorNetworkPathFinder is ContractRegistryClient {\r\n    address public anchorToken;\r\n\r\n    /**\r\n      * @dev initializes a new BancorNetworkPathFinder instance\r\n      * \r\n      * @param _registry address of a contract registry contract\r\n    */\r\n    constructor(IContractRegistry _registry) ContractRegistryClient(_registry) public {\r\n    }\r\n\r\n    /**\r\n      * @dev updates the anchor token\r\n      * \r\n      * @param _anchorToken address of the anchor token\r\n    */\r\n    function setAnchorToken(address _anchorToken) public ownerOnly {\r\n        anchorToken = _anchorToken;\r\n    }\r\n\r\n    /**\r\n      * @dev generates and returns the conversion path between a given token pair in the Bancor Network\r\n      * \r\n      * @param _sourceToken address of the source token\r\n      * @param _targetToken address of the target token\r\n      * \r\n      * @return path from the source token to the target token\r\n    */\r\n    function generatePath(address _sourceToken, address _targetToken) public view returns (address[] memory) {\r\n        IBancorConverterRegistry converterRegistry = IBancorConverterRegistry(addressOf(BANCOR_CONVERTER_REGISTRY));\r\n        address[] memory sourcePath = getPath(_sourceToken, converterRegistry);\r\n        address[] memory targetPath = getPath(_targetToken, converterRegistry);\r\n        return getShortestPath(sourcePath, targetPath);\r\n    }\r\n\r\n    /**\r\n      * @dev generates and returns the conversion path between a given token and the anchor token\r\n      * \r\n      * @param _token               address of the token\r\n      * @param _converterRegistry   address of the converter registry\r\n      * \r\n      * @return path from the input token to the anchor token\r\n    */\r\n    function getPath(address _token, IBancorConverterRegistry _converterRegistry) private view returns (address[] memory) {\r\n        if (_token == anchorToken)\r\n            return getInitialArray(_token);\r\n\r\n        address[] memory smartTokens;\r\n        if (_converterRegistry.isSmartToken(_token))\r\n            smartTokens = getInitialArray(_token);\r\n        else\r\n            smartTokens = _converterRegistry.getConvertibleTokenSmartTokens(_token);\r\n\r\n        for (uint256 n = 0; n < smartTokens.length; n++) {\r\n            IBancorConverter converter = IBancorConverter(ISmartToken(smartTokens[n]).owner());\r\n            uint256 connectorTokenCount = converter.connectorTokenCount();\r\n            for (uint256 i = 0; i < connectorTokenCount; i++) {\r\n                address connectorToken = converter.connectorTokens(i);\r\n                if (connectorToken != _token) {\r\n                    address[] memory path = getPath(connectorToken, _converterRegistry);\r\n                    if (path.length > 0)\r\n                        return getExtendedArray(_token, smartTokens[n], path);\r\n                }\r\n            }\r\n        }\r\n\r\n        return new address[](0);\r\n    }\r\n\r\n    /**\r\n      * @dev merges two paths with a common suffix into one\r\n      * \r\n      * @param _sourcePath address of the source path\r\n      * @param _targetPath address of the target path\r\n      * \r\n      * @return merged path\r\n    */\r\n    function getShortestPath(address[] memory _sourcePath, address[] memory _targetPath) private pure returns (address[] memory) {\r\n        if (_sourcePath.length > 0 && _targetPath.length > 0) {\r\n            uint256 i = _sourcePath.length;\r\n            uint256 j = _targetPath.length;\r\n            while (i > 0 && j > 0 && _sourcePath[i - 1] == _targetPath[j - 1]) {\r\n                i--;\r\n                j--;\r\n            }\r\n\r\n            address[] memory path = new address[](i + j + 1);\r\n            for (uint256 m = 0; m <= i; m++)\r\n                path[m] = _sourcePath[m];\r\n            for (uint256 n = j; n > 0; n--)\r\n                path[path.length - n] = _targetPath[n - 1];\r\n\r\n            uint256 length = 0;\r\n            for (uint256 p = 0; p < path.length; p += 1) {\r\n                for (uint256 q = p + 2; q < path.length - p % 2; q += 2) {\r\n                    if (path[p] == path[q])\r\n                        p = q;\r\n                }\r\n                path[length++] = path[p];\r\n            }\r\n\r\n            return getPartialArray(path, length);\r\n        }\r\n\r\n        return new address[](0);\r\n    }\r\n\r\n    /**\r\n      * @dev creates a new array containing a single item\r\n      * \r\n      * @param _item item\r\n      * \r\n      * @return initial array\r\n    */\r\n    function getInitialArray(address _item) private pure returns (address[] memory) {\r\n        address[] memory array = new address[](1);\r\n        array[0] = _item;\r\n        return array;\r\n    }\r\n\r\n    /**\r\n      * @dev prepends two items to the beginning of an array\r\n      * \r\n      * @param _item0 first item\r\n      * @param _item1 second item\r\n      * @param _array initial array\r\n      * \r\n      * @return extended array\r\n    */\r\n    function getExtendedArray(address _item0, address _item1, address[] memory _array) private pure returns (address[] memory) {\r\n        address[] memory array = new address[](2 + _array.length);\r\n        array[0] = _item0;\r\n        array[1] = _item1;\r\n        for (uint256 i = 0; i < _array.length; i++)\r\n            array[2 + i] = _array[i];\r\n        return array;\r\n    }\r\n\r\n    /**\r\n      * @dev extracts the prefix of a given array\r\n      * \r\n      * @param _array given array\r\n      * @param _length prefix length\r\n      * \r\n      * @return partial array\r\n    */\r\n    function getPartialArray(address[] memory _array, uint256 _length) private pure returns (address[] memory) {\r\n        address[] memory array = new address[](_length);\r\n        for (uint256 i = 0; i < _length; i++)\r\n            array[i] = _array[i];\r\n        return array;\r\n    }\r\n}\r\n",
  "sourcePath": "/home/safu/minddeft/jointerInc/bancorTry/temp/contracts/solidity/contracts/BancorNetworkPathFinder.sol",
  "compiler": {
    "name": "solc",
    "version": "0.4.26+commit.4563c3fc.Emscripten.clang"
  },
  "schemaVersion": "3.1.0",
  "updatedAt": "2020-06-10T14:32:18.563Z",
  "devdoc": {
    "methods": {
      "acceptOwnership()": {
        "details": "used by a new owner to accept an ownership transfer\r"
      },
      "generatePath(address,address)": {
        "details": "generates and returns the conversion path between a given token pair in the Bancor Network\r \r",
        "params": {
          "_sourceToken": "address of the source token\r",
          "_targetToken": "address of the target token\r \r"
        },
        "return": "path from the source token to the target token\r"
      },
      "restoreRegistry()": {
        "details": "restores the previous contract-registry\r"
      },
      "restrictRegistryUpdate(bool)": {
        "details": "restricts the permission to update the contract-registry\r \r",
        "params": {
          "_onlyOwnerCanUpdateRegistry": "indicates whether or not permission is restricted to owner only\r"
        }
      },
      "setAnchorToken(address)": {
        "details": "updates the anchor token\r \r",
        "params": {
          "_anchorToken": "address of the anchor token\r"
        }
      },
      "transferOwnership(address)": {
        "details": "allows transferring the contract ownership\r the new owner still needs to accept the transfer\r can only be called by the contract owner\r \r",
        "params": {
          "_newOwner": "new contract owner\r"
        }
      },
      "updateRegistry()": {
        "details": "updates to the new contract-registry\r"
      }
    }
  },
  "userdoc": {
    "methods": {}
  }
}