{
  "contractName": "BancorConverter",
  "abi": [
    {
      "constant": false,
      "inputs": [
        {
          "name": "_onlyOwnerCanUpdateRegistry",
          "type": "bool"
        }
      ],
      "name": "restrictRegistryUpdate",
      "outputs": [],
      "payable": false,
      "stateMutability": "nonpayable",
      "type": "function"
    },
    {
      "constant": true,
      "inputs": [],
      "name": "bancorX",
      "outputs": [
        {
          "name": "",
          "type": "address"
        }
      ],
      "payable": false,
      "stateMutability": "view",
      "type": "function"
    },
    {
      "constant": true,
      "inputs": [],
      "name": "onlyOwnerCanUpdateRegistry",
      "outputs": [
        {
          "name": "",
          "type": "bool"
        }
      ],
      "payable": false,
      "stateMutability": "view",
      "type": "function"
    },
    {
      "constant": false,
      "inputs": [
        {
          "name": "_token",
          "type": "address"
        },
        {
          "name": "_to",
          "type": "address"
        },
        {
          "name": "_amount",
          "type": "uint256"
        }
      ],
      "name": "withdrawFromToken",
      "outputs": [],
      "payable": false,
      "stateMutability": "nonpayable",
      "type": "function"
    },
    {
      "constant": false,
      "inputs": [],
      "name": "updateRegistry",
      "outputs": [],
      "payable": false,
      "stateMutability": "nonpayable",
      "type": "function"
    },
    {
      "constant": true,
      "inputs": [],
      "name": "version",
      "outputs": [
        {
          "name": "",
          "type": "uint16"
        }
      ],
      "payable": false,
      "stateMutability": "view",
      "type": "function"
    },
    {
      "constant": true,
      "inputs": [],
      "name": "conversionFee",
      "outputs": [
        {
          "name": "",
          "type": "uint32"
        }
      ],
      "payable": false,
      "stateMutability": "view",
      "type": "function"
    },
    {
      "constant": true,
      "inputs": [],
      "name": "prevRegistry",
      "outputs": [
        {
          "name": "",
          "type": "address"
        }
      ],
      "payable": false,
      "stateMutability": "view",
      "type": "function"
    },
    {
      "constant": true,
      "inputs": [],
      "name": "totalReserveRatio",
      "outputs": [
        {
          "name": "",
          "type": "uint32"
        }
      ],
      "payable": false,
      "stateMutability": "view",
      "type": "function"
    },
    {
      "constant": false,
      "inputs": [],
      "name": "acceptOwnership",
      "outputs": [],
      "payable": false,
      "stateMutability": "nonpayable",
      "type": "function"
    },
    {
      "constant": true,
      "inputs": [],
      "name": "registry",
      "outputs": [
        {
          "name": "",
          "type": "address"
        }
      ],
      "payable": false,
      "stateMutability": "view",
      "type": "function"
    },
    {
      "constant": true,
      "inputs": [],
      "name": "owner",
      "outputs": [
        {
          "name": "",
          "type": "address"
        }
      ],
      "payable": false,
      "stateMutability": "view",
      "type": "function"
    },
    {
      "constant": true,
      "inputs": [],
      "name": "CONVERTER_CONVERSION_WHITELIST",
      "outputs": [
        {
          "name": "",
          "type": "uint256"
        }
      ],
      "payable": false,
      "stateMutability": "view",
      "type": "function"
    },
    {
      "constant": true,
      "inputs": [],
      "name": "maxConversionFee",
      "outputs": [
        {
          "name": "",
          "type": "uint32"
        }
      ],
      "payable": false,
      "stateMutability": "view",
      "type": "function"
    },
    {
      "constant": false,
      "inputs": [],
      "name": "restoreRegistry",
      "outputs": [],
      "payable": false,
      "stateMutability": "nonpayable",
      "type": "function"
    },
    {
      "constant": true,
      "inputs": [],
      "name": "conversionsEnabled",
      "outputs": [
        {
          "name": "",
          "type": "bool"
        }
      ],
      "payable": false,
      "stateMutability": "view",
      "type": "function"
    },
    {
      "constant": true,
      "inputs": [],
      "name": "conversionWhitelist",
      "outputs": [
        {
          "name": "",
          "type": "address"
        }
      ],
      "payable": false,
      "stateMutability": "view",
      "type": "function"
    },
    {
      "constant": true,
      "inputs": [
        {
          "name": "",
          "type": "uint256"
        }
      ],
      "name": "reserveTokens",
      "outputs": [
        {
          "name": "",
          "type": "address"
        }
      ],
      "payable": false,
      "stateMutability": "view",
      "type": "function"
    },
    {
      "constant": true,
      "inputs": [],
      "name": "newOwner",
      "outputs": [
        {
          "name": "",
          "type": "address"
        }
      ],
      "payable": false,
      "stateMutability": "view",
      "type": "function"
    },
    {
      "constant": true,
      "inputs": [
        {
          "name": "",
          "type": "address"
        }
      ],
      "name": "reserves",
      "outputs": [
        {
          "name": "virtualBalance",
          "type": "uint256"
        },
        {
          "name": "ratio",
          "type": "uint32"
        },
        {
          "name": "isVirtualBalanceEnabled",
          "type": "bool"
        },
        {
          "name": "isSaleEnabled",
          "type": "bool"
        },
        {
          "name": "isSet",
          "type": "bool"
        }
      ],
      "payable": false,
      "stateMutability": "view",
      "type": "function"
    },
    {
      "constant": false,
      "inputs": [
        {
          "name": "_bancorX",
          "type": "address"
        }
      ],
      "name": "setBancorX",
      "outputs": [],
      "payable": false,
      "stateMutability": "nonpayable",
      "type": "function"
    },
    {
      "constant": false,
      "inputs": [
        {
          "name": "_newOwner",
          "type": "address"
        }
      ],
      "name": "transferOwnership",
      "outputs": [],
      "payable": false,
      "stateMutability": "nonpayable",
      "type": "function"
    },
    {
      "constant": true,
      "inputs": [],
      "name": "token",
      "outputs": [
        {
          "name": "",
          "type": "address"
        }
      ],
      "payable": false,
      "stateMutability": "view",
      "type": "function"
    },
    {
      "constant": false,
      "inputs": [
        {
          "name": "_from",
          "type": "address"
        },
        {
          "name": "_amount",
          "type": "uint256"
        }
      ],
      "name": "claimTokens",
      "outputs": [],
      "payable": false,
      "stateMutability": "nonpayable",
      "type": "function"
    },
    {
      "inputs": [
        {
          "name": "_token",
          "type": "address"
        },
        {
          "name": "_registry",
          "type": "address"
        },
        {
          "name": "_maxConversionFee",
          "type": "uint32"
        },
        {
          "name": "_reserveToken",
          "type": "address"
        },
        {
          "name": "_reserveRatio",
          "type": "uint32"
        }
      ],
      "payable": false,
      "stateMutability": "nonpayable",
      "type": "constructor"
    },
    {
      "anonymous": false,
      "inputs": [
        {
          "indexed": true,
          "name": "_fromToken",
          "type": "address"
        },
        {
          "indexed": true,
          "name": "_toToken",
          "type": "address"
        },
        {
          "indexed": true,
          "name": "_trader",
          "type": "address"
        },
        {
          "indexed": false,
          "name": "_amount",
          "type": "uint256"
        },
        {
          "indexed": false,
          "name": "_return",
          "type": "uint256"
        },
        {
          "indexed": false,
          "name": "_conversionFee",
          "type": "int256"
        }
      ],
      "name": "Conversion",
      "type": "event"
    },
    {
      "anonymous": false,
      "inputs": [
        {
          "indexed": true,
          "name": "_connectorToken",
          "type": "address"
        },
        {
          "indexed": false,
          "name": "_tokenSupply",
          "type": "uint256"
        },
        {
          "indexed": false,
          "name": "_connectorBalance",
          "type": "uint256"
        },
        {
          "indexed": false,
          "name": "_connectorWeight",
          "type": "uint32"
        }
      ],
      "name": "PriceDataUpdate",
      "type": "event"
    },
    {
      "anonymous": false,
      "inputs": [
        {
          "indexed": false,
          "name": "_prevFee",
          "type": "uint32"
        },
        {
          "indexed": false,
          "name": "_newFee",
          "type": "uint32"
        }
      ],
      "name": "ConversionFeeUpdate",
      "type": "event"
    },
    {
      "anonymous": false,
      "inputs": [
        {
          "indexed": true,
          "name": "_prevOwner",
          "type": "address"
        },
        {
          "indexed": true,
          "name": "_newOwner",
          "type": "address"
        }
      ],
      "name": "OwnerUpdate",
      "type": "event"
    },
    {
      "constant": true,
      "inputs": [],
      "name": "reserveTokenCount",
      "outputs": [
        {
          "name": "",
          "type": "uint16"
        }
      ],
      "payable": false,
      "stateMutability": "view",
      "type": "function"
    },
    {
      "constant": false,
      "inputs": [
        {
          "name": "_whitelist",
          "type": "address"
        }
      ],
      "name": "setConversionWhitelist",
      "outputs": [],
      "payable": false,
      "stateMutability": "nonpayable",
      "type": "function"
    },
    {
      "constant": false,
      "inputs": [
        {
          "name": "_newOwner",
          "type": "address"
        }
      ],
      "name": "transferTokenOwnership",
      "outputs": [],
      "payable": false,
      "stateMutability": "nonpayable",
      "type": "function"
    },
    {
      "constant": false,
      "inputs": [],
      "name": "acceptTokenOwnership",
      "outputs": [],
      "payable": false,
      "stateMutability": "nonpayable",
      "type": "function"
    },
    {
      "constant": false,
      "inputs": [
        {
          "name": "_conversionFee",
          "type": "uint32"
        }
      ],
      "name": "setConversionFee",
      "outputs": [],
      "payable": false,
      "stateMutability": "nonpayable",
      "type": "function"
    },
    {
      "constant": true,
      "inputs": [
        {
          "name": "_amount",
          "type": "uint256"
        },
        {
          "name": "_magnitude",
          "type": "uint8"
        }
      ],
      "name": "getFinalAmount",
      "outputs": [
        {
          "name": "",
          "type": "uint256"
        }
      ],
      "payable": false,
      "stateMutability": "view",
      "type": "function"
    },
    {
      "constant": false,
      "inputs": [
        {
          "name": "_token",
          "type": "address"
        },
        {
          "name": "_to",
          "type": "address"
        },
        {
          "name": "_amount",
          "type": "uint256"
        }
      ],
      "name": "withdrawTokens",
      "outputs": [],
      "payable": false,
      "stateMutability": "nonpayable",
      "type": "function"
    },
    {
      "constant": false,
      "inputs": [],
      "name": "upgrade",
      "outputs": [],
      "payable": false,
      "stateMutability": "nonpayable",
      "type": "function"
    },
    {
      "constant": false,
      "inputs": [
        {
          "name": "_token",
          "type": "address"
        },
        {
          "name": "_ratio",
          "type": "uint32"
        }
      ],
      "name": "addReserve",
      "outputs": [],
      "payable": false,
      "stateMutability": "nonpayable",
      "type": "function"
    },
    {
      "constant": false,
      "inputs": [
        {
          "name": "_reserveToken",
          "type": "address"
        },
        {
          "name": "_virtualBalance",
          "type": "uint256"
        }
      ],
      "name": "updateReserveVirtualBalance",
      "outputs": [],
      "payable": false,
      "stateMutability": "nonpayable",
      "type": "function"
    },
    {
      "constant": true,
      "inputs": [
        {
          "name": "_reserveToken",
          "type": "address"
        }
      ],
      "name": "getReserveRatio",
      "outputs": [
        {
          "name": "",
          "type": "uint256"
        }
      ],
      "payable": false,
      "stateMutability": "view",
      "type": "function"
    },
    {
      "constant": true,
      "inputs": [
        {
          "name": "_reserveToken",
          "type": "address"
        }
      ],
      "name": "getReserveBalance",
      "outputs": [
        {
          "name": "",
          "type": "uint256"
        }
      ],
      "payable": false,
      "stateMutability": "view",
      "type": "function"
    },
    {
      "constant": true,
      "inputs": [
        {
          "name": "_fromToken",
          "type": "address"
        },
        {
          "name": "_toToken",
          "type": "address"
        },
        {
          "name": "_amount",
          "type": "uint256"
        }
      ],
      "name": "getReturn",
      "outputs": [
        {
          "name": "",
          "type": "uint256"
        },
        {
          "name": "",
          "type": "uint256"
        }
      ],
      "payable": false,
      "stateMutability": "view",
      "type": "function"
    },
    {
      "constant": true,
      "inputs": [
        {
          "name": "_reserveToken",
          "type": "address"
        },
        {
          "name": "_depositAmount",
          "type": "uint256"
        }
      ],
      "name": "getPurchaseReturn",
      "outputs": [
        {
          "name": "",
          "type": "uint256"
        },
        {
          "name": "",
          "type": "uint256"
        }
      ],
      "payable": false,
      "stateMutability": "view",
      "type": "function"
    },
    {
      "constant": true,
      "inputs": [
        {
          "name": "_reserveToken",
          "type": "address"
        },
        {
          "name": "_sellAmount",
          "type": "uint256"
        }
      ],
      "name": "getSaleReturn",
      "outputs": [
        {
          "name": "",
          "type": "uint256"
        },
        {
          "name": "",
          "type": "uint256"
        }
      ],
      "payable": false,
      "stateMutability": "view",
      "type": "function"
    },
    {
      "constant": true,
      "inputs": [
        {
          "name": "_fromReserveToken",
          "type": "address"
        },
        {
          "name": "_toReserveToken",
          "type": "address"
        },
        {
          "name": "_amount",
          "type": "uint256"
        }
      ],
      "name": "getCrossReserveReturn",
      "outputs": [
        {
          "name": "",
          "type": "uint256"
        },
        {
          "name": "",
          "type": "uint256"
        }
      ],
      "payable": false,
      "stateMutability": "view",
      "type": "function"
    },
    {
      "constant": false,
      "inputs": [
        {
          "name": "_fromToken",
          "type": "address"
        },
        {
          "name": "_toToken",
          "type": "address"
        },
        {
          "name": "_amount",
          "type": "uint256"
        },
        {
          "name": "_minReturn",
          "type": "uint256"
        }
      ],
      "name": "convertInternal",
      "outputs": [
        {
          "name": "",
          "type": "uint256"
        }
      ],
      "payable": false,
      "stateMutability": "nonpayable",
      "type": "function"
    },
    {
      "constant": false,
      "inputs": [
        {
          "name": "_fromToken",
          "type": "address"
        },
        {
          "name": "_toToken",
          "type": "address"
        },
        {
          "name": "_amount",
          "type": "uint256"
        },
        {
          "name": "_minReturn",
          "type": "uint256"
        },
        {
          "name": "_affiliateAccount",
          "type": "address"
        },
        {
          "name": "_affiliateFee",
          "type": "uint256"
        }
      ],
      "name": "convert2",
      "outputs": [
        {
          "name": "",
          "type": "uint256"
        }
      ],
      "payable": false,
      "stateMutability": "nonpayable",
      "type": "function"
    },
    {
      "constant": false,
      "inputs": [
        {
          "name": "_path",
          "type": "address[]"
        },
        {
          "name": "_amount",
          "type": "uint256"
        },
        {
          "name": "_minReturn",
          "type": "uint256"
        },
        {
          "name": "_affiliateAccount",
          "type": "address"
        },
        {
          "name": "_affiliateFee",
          "type": "uint256"
        }
      ],
      "name": "quickConvert2",
      "outputs": [
        {
          "name": "",
          "type": "uint256"
        }
      ],
      "payable": true,
      "stateMutability": "payable",
      "type": "function"
    },
    {
      "constant": false,
      "inputs": [
        {
          "name": "_path",
          "type": "address[]"
        },
        {
          "name": "_minReturn",
          "type": "uint256"
        },
        {
          "name": "_conversionId",
          "type": "uint256"
        }
      ],
      "name": "completeXConversion2",
      "outputs": [
        {
          "name": "",
          "type": "uint256"
        }
      ],
      "payable": false,
      "stateMutability": "nonpayable",
      "type": "function"
    },
    {
      "constant": false,
      "inputs": [
        {
          "name": "_amount",
          "type": "uint256"
        }
      ],
      "name": "fund",
      "outputs": [],
      "payable": false,
      "stateMutability": "nonpayable",
      "type": "function"
    },
    {
      "constant": false,
      "inputs": [
        {
          "name": "_amount",
          "type": "uint256"
        }
      ],
      "name": "liquidate",
      "outputs": [],
      "payable": false,
      "stateMutability": "nonpayable",
      "type": "function"
    },
    {
      "constant": false,
      "inputs": [
        {
          "name": "_fromToken",
          "type": "address"
        },
        {
          "name": "_toToken",
          "type": "address"
        },
        {
          "name": "_amount",
          "type": "uint256"
        },
        {
          "name": "_minReturn",
          "type": "uint256"
        }
      ],
      "name": "change",
      "outputs": [
        {
          "name": "",
          "type": "uint256"
        }
      ],
      "payable": false,
      "stateMutability": "nonpayable",
      "type": "function"
    },
    {
      "constant": false,
      "inputs": [
        {
          "name": "_fromToken",
          "type": "address"
        },
        {
          "name": "_toToken",
          "type": "address"
        },
        {
          "name": "_amount",
          "type": "uint256"
        },
        {
          "name": "_minReturn",
          "type": "uint256"
        }
      ],
      "name": "convert",
      "outputs": [
        {
          "name": "",
          "type": "uint256"
        }
      ],
      "payable": false,
      "stateMutability": "nonpayable",
      "type": "function"
    },
    {
      "constant": false,
      "inputs": [
        {
          "name": "_path",
          "type": "address[]"
        },
        {
          "name": "_amount",
          "type": "uint256"
        },
        {
          "name": "_minReturn",
          "type": "uint256"
        }
      ],
      "name": "quickConvert",
      "outputs": [
        {
          "name": "",
          "type": "uint256"
        }
      ],
      "payable": true,
      "stateMutability": "payable",
      "type": "function"
    },
    {
      "constant": false,
      "inputs": [
        {
          "name": "_path",
          "type": "address[]"
        },
        {
          "name": "_amount",
          "type": "uint256"
        },
        {
          "name": "_minReturn",
          "type": "uint256"
        },
        {
          "name": "",
          "type": "uint256[]"
        },
        {
          "name": "_affiliateAccount",
          "type": "address"
        },
        {
          "name": "_affiliateFee",
          "type": "uint256"
        }
      ],
      "name": "quickConvertPrioritized2",
      "outputs": [
        {
          "name": "",
          "type": "uint256"
        }
      ],
      "payable": true,
      "stateMutability": "payable",
      "type": "function"
    },
    {
      "constant": false,
      "inputs": [
        {
          "name": "_path",
          "type": "address[]"
        },
        {
          "name": "_amount",
          "type": "uint256"
        },
        {
          "name": "_minReturn",
          "type": "uint256"
        },
        {
          "name": "",
          "type": "uint256"
        },
        {
          "name": "",
          "type": "uint8"
        },
        {
          "name": "",
          "type": "bytes32"
        },
        {
          "name": "",
          "type": "bytes32"
        }
      ],
      "name": "quickConvertPrioritized",
      "outputs": [
        {
          "name": "",
          "type": "uint256"
        }
      ],
      "payable": true,
      "stateMutability": "payable",
      "type": "function"
    },
    {
      "constant": false,
      "inputs": [
        {
          "name": "_path",
          "type": "address[]"
        },
        {
          "name": "_minReturn",
          "type": "uint256"
        },
        {
          "name": "_conversionId",
          "type": "uint256"
        },
        {
          "name": "",
          "type": "uint256"
        },
        {
          "name": "",
          "type": "uint8"
        },
        {
          "name": "",
          "type": "bytes32"
        },
        {
          "name": "",
          "type": "bytes32"
        }
      ],
      "name": "completeXConversion",
      "outputs": [
        {
          "name": "",
          "type": "uint256"
        }
      ],
      "payable": false,
      "stateMutability": "nonpayable",
      "type": "function"
    },
    {
      "constant": true,
      "inputs": [
        {
          "name": "_address",
          "type": "address"
        }
      ],
      "name": "connectors",
      "outputs": [
        {
          "name": "",
          "type": "uint256"
        },
        {
          "name": "",
          "type": "uint32"
        },
        {
          "name": "",
          "type": "bool"
        },
        {
          "name": "",
          "type": "bool"
        },
        {
          "name": "",
          "type": "bool"
        }
      ],
      "payable": false,
      "stateMutability": "view",
      "type": "function"
    },
    {
      "constant": true,
      "inputs": [
        {
          "name": "_index",
          "type": "uint256"
        }
      ],
      "name": "connectorTokens",
      "outputs": [
        {
          "name": "",
          "type": "address"
        }
      ],
      "payable": false,
      "stateMutability": "view",
      "type": "function"
    },
    {
      "constant": true,
      "inputs": [],
      "name": "connectorTokenCount",
      "outputs": [
        {
          "name": "",
          "type": "uint16"
        }
      ],
      "payable": false,
      "stateMutability": "view",
      "type": "function"
    },
    {
      "constant": false,
      "inputs": [
        {
          "name": "_token",
          "type": "address"
        },
        {
          "name": "_weight",
          "type": "uint32"
        },
        {
          "name": "",
          "type": "bool"
        }
      ],
      "name": "addConnector",
      "outputs": [],
      "payable": false,
      "stateMutability": "nonpayable",
      "type": "function"
    },
    {
      "constant": false,
      "inputs": [
        {
          "name": "_connectorToken",
          "type": "address"
        },
        {
          "name": "",
          "type": "uint32"
        },
        {
          "name": "",
          "type": "bool"
        },
        {
          "name": "_virtualBalance",
          "type": "uint256"
        }
      ],
      "name": "updateConnector",
      "outputs": [],
      "payable": false,
      "stateMutability": "nonpayable",
      "type": "function"
    },
    {
      "constant": true,
      "inputs": [
        {
          "name": "_connectorToken",
          "type": "address"
        }
      ],
      "name": "getConnectorBalance",
      "outputs": [
        {
          "name": "",
          "type": "uint256"
        }
      ],
      "payable": false,
      "stateMutability": "view",
      "type": "function"
    },
    {
      "constant": true,
      "inputs": [
        {
          "name": "_fromConnectorToken",
          "type": "address"
        },
        {
          "name": "_toConnectorToken",
          "type": "address"
        },
        {
          "name": "_amount",
          "type": "uint256"
        }
      ],
      "name": "getCrossConnectorReturn",
      "outputs": [
        {
          "name": "",
          "type": "uint256"
        },
        {
          "name": "",
          "type": "uint256"
        }
      ],
      "payable": false,
      "stateMutability": "view",
      "type": "function"
    }
  ],
  "bytecode": "0x60806040526005805460a860020a61ffff021916751b000000000000000000000000000000000000000000179055600980546c010000000000000000000000006001606860020a031990911617606860020a60ff02191690553480156200006557600080fd5b5060405160a080620047258339810160409081528151602083015191830151606084015160809094015160008054600160a060020a0319163317815592949192848680600160a060020a0381161515620000be57600080fd5b5060028054600160a060020a031916600160a060020a03928316179055819081161515620000eb57600080fd5b5060048054600160a060020a03909216600160a060020a031992831681179091556005805490921617905583600063ffffffff821610801590620001385750620f424063ffffffff821611155b15156200014457600080fd5b620001787f436f6e74726163744665617475726573000000000000000000000000000000006401000000006200025f810204565b9150600160a060020a038216156200020d57604080517f2c7077c000000000000000000000000000000000000000000000000000000000815260016004820181905260248201529051600160a060020a03841691632c7077c091604480830192600092919082900301818387803b158015620001f357600080fd5b505af115801562000208573d6000803e3d6000fd5b505050505b6009805467ffffffff00000000191664010000000063ffffffff881602179055600160a060020a038416156200025257620002528484640100000000620002fb810204565b505050505050506200053f565b60048054604080517fbb34534c00000000000000000000000000000000000000000000000000000000815292830184905251600092600160a060020a039092169163bb34534c91602480830192602092919082900301818787803b158015620002c757600080fd5b505af1158015620002dc573d6000803e3d6000fd5b505050506040513d6020811015620002f357600080fd5b505192915050565b600054600160a060020a031633146200031357600080fd5b600254604080517f8da5cb5b00000000000000000000000000000000000000000000000000000000815290513092600160a060020a031691638da5cb5b9160048083019260209291908290030181600087803b1580156200037357600080fd5b505af115801562000388573d6000803e3d6000fd5b505050506040513d60208110156200039f57600080fd5b5051600160a060020a03161415620003b657600080fd5b81600160a060020a0381161515620003cd57600080fd5b82600160a060020a038116301415620003e557600080fd5b8260008163ffffffff16118015620004065750620f424063ffffffff821611155b15156200041257600080fd5b600254600160a060020a03868116911614801590620004575750600160a060020a0385166000908152600860205260409020600101546601000000000000900460ff16155b8015620004765750600954620f424063ffffffff918216860190911611155b15156200048257600080fd5b505050600160a060020a03919091166000818152600860205260408120600180820180549284905566010000000000006501000000000063ffffffff1994851663ffffffff808a169190911765ffff0000000019169190911766ff0000000000001916919091179091556007805492830181559093527fa66cc928b5edb82af9bd49922954155ab7b0942694bea4ce44661d9a8736c688018054600160a060020a0319169093179092556009805492831692821690930116179055565b6141d6806200054f6000396000f3006080604052600436106102a55763ffffffff60e060020a600035041663024c7ec781146102aa5780630ca78923146102c65780630e53aae9146102f85780631120a7761461034d57806315226b541461037e57806319b64015146103b15780631e1401f8146103c957806321e6b53d1461040c578063227425641461042d5780632a2e2f0c146104955780632c12b446146104c25780632fe8a6ad146104e357806338a5e0161461050c5780633aa0145a146105215780633f4d2fc21461053f578063415f12401461056e57806341a5b33d1461058657806349d10b64146105b05780634af80f0e146105c557806350057351146105e657806354fd4d501461065b578063579cd3ca146106875780635e35359e146106b55780635e5144eb146106df57806361cd756e1461070c5780636520d6fb146107215780636a49d2c4146107365780636ebf36c01461076057806371f52bf31461079857806372b44b2c146107ad57806375892cf1146107d157806379ba5097146107fe5780637b103999146108135780638da5cb5b146108285780638e3047e01461083d57806392d1abb714610867578063935e2ae11461087c57806394c275ad146108a05780639b99a8e2146108b5578063a2c4c336146108ca578063b3a426d5146108ee578063b4a176d31461098f578063bf754558146109a4578063c45d3d92146109b9578063ca1d209d146109ce578063cf73266a146109e6578063d031370b14610a10578063d4ee1d9014610a28578063d55ec69714610a3d578063d66bd52414610a52578063d895951214610a73578063d924f0c314610a94578063e4dd22f614610ab5578063ebf9470014610b18578063ecbca55d14610b76578063f0843ba914610b94578063f2fde38b14610be5578063fc0c546a14610c06578063fe417fa514610c1b575b600080fd5b3480156102b657600080fd5b506102c46004351515610c3f565b005b3480156102d257600080fd5b506102c4600160a060020a036004351663ffffffff602435166044351515606435610c96565b34801561030457600080fd5b50610319600160a060020a0360043516610ca6565b6040805195865263ffffffff9094166020860152911515848401521515606084015215156080830152519081900360a00190f35b34801561035957600080fd5b50610362610cf8565b60408051600160a060020a039092168252519081900360200190f35b34801561038a57600080fd5b5061039f600160a060020a0360043516610d07565b60408051918252519081900360200190f35b3480156103bd57600080fd5b50610362600435610dbb565b3480156103d557600080fd5b506103f3600160a060020a0360043581169060243516604435610de7565b6040805192835260208301919091528051918290030190f35b34801561041857600080fd5b506102c4600160a060020a0360043516610e64565b6040805160206004803580820135838102808601850190965280855261039f95369593946024949385019291829185019084908082843750949750508435955050506020830135926040810135925060ff606082013516915060808101359060a00135610eb4565b3480156104a157600080fd5b5061039f600160a060020a0360043581169060243516604435606435610ed0565b3480156104ce57600080fd5b5061039f600160a060020a036004351661132a565b3480156104ef57600080fd5b506104f8611386565b604080519115158252519081900360200190f35b34801561051857600080fd5b506102c46113a7565b34801561052d57600080fd5b5061039f60043560ff6024351661145d565b34801561054b57600080fd5b506102c4600160a060020a036004351663ffffffff6024351660443515156114bb565b34801561057a57600080fd5b506102c46004356114ca565b34801561059257600080fd5b506102c4600160a060020a0360043581169060243516604435611829565b3480156105bc57600080fd5b506102c46118d3565b3480156105d157600080fd5b506102c4600160a060020a0360043516611a64565b3480156105f257600080fd5b506040805160206004803580820135838102808601850190965280855261039f95369593946024949385019291829185019084908082843750949750508435955050506020830135926040810135925060ff606082013516915060808101359060a00135611ab5565b34801561066757600080fd5b50610670611ac2565b6040805161ffff9092168252519081900360200190f35b34801561069357600080fd5b5061069c611ae5565b6040805163ffffffff9092168252519081900360200190f35b3480156106c157600080fd5b506102c4600160a060020a0360043581169060243516604435611afd565b3480156106eb57600080fd5b5061039f600160a060020a0360043581169060243516604435606435611c0e565b34801561071857600080fd5b50610362611c25565b34801561072d57600080fd5b5061069c611c34565b34801561074257600080fd5b506102c4600160a060020a036004351663ffffffff60243516611c40565b34801561076c57600080fd5b5061039f600160a060020a0360043581169060243581169060443590606435906084351660a435611e78565b3480156107a457600080fd5b50610670611f1e565b3480156107b957600080fd5b506103f3600160a060020a0360043516602435611f2d565b3480156107dd57600080fd5b5061039f600160a060020a036004358116906024351660443560643561220d565b34801561080a57600080fd5b506102c461221e565b34801561081f57600080fd5b50610362612299565b34801561083457600080fd5b506103626122a8565b34801561084957600080fd5b506103f3600160a060020a03600435811690602435166044356122b7565b34801561087357600080fd5b5061039f6122c5565b34801561088857600080fd5b506102c4600160a060020a03600435166024356122ca565b3480156108ac57600080fd5b5061069c61237f565b3480156108c157600080fd5b50610670612393565b3480156108d657600080fd5b506103f3600160a060020a0360043516602435612399565b6040805160206004803580820135838102808601850190965280855261039f953695939460249493850192918291850190849080828437505060408051818801358901803560208181028481018201909552818452989b8a359b8a8c01359b919a9099506060909101975092955090820193509182918501908490808284375094975050508335600160a060020a031694505050602090910135905061262c565b34801561099b57600080fd5b506102c4612646565b3480156109b057600080fd5b506104f8612681565b3480156109c557600080fd5b5061036261269a565b3480156109da57600080fd5b506102c46004356126a9565b3480156109f257600080fd5b506103f3600160a060020a0360043581169060243516604435612a07565b348015610a1c57600080fd5b50610362600435612c37565b348015610a3457600080fd5b50610362612c5f565b348015610a4957600080fd5b506102c4612c6e565b348015610a5e57600080fd5b50610319600160a060020a0360043516612d4a565b348015610a7f57600080fd5b5061039f600160a060020a0360043516612d90565b348015610aa057600080fd5b506102c4600160a060020a0360043516612da1565b6040805160206004803580820135838102808601850190965280855261039f9536959394602494938501929182918501908490808284375094975050843595505050602083013592600160a060020a036040820135169250606001359050612dda565b348015610b2457600080fd5b506040805160206004803580820135838102808601850190965280855261039f953695939460249493850192918291850190849080828437509497505084359550505060209092013591506130589050565b348015610b8257600080fd5b506102c463ffffffff60043516613385565b6040805160206004803580820135838102808601850190965280855261039f953695939460249493850192918291850190849080828437509497505084359550505060209092013591506134539050565b348015610bf157600080fd5b506102c4600160a060020a036004351661346b565b348015610c1257600080fd5b506103626134bf565b348015610c2757600080fd5b506102c4600160a060020a03600435166024356134ce565b600054600160a060020a03163314610c5657600080fd5b60058054911515740100000000000000000000000000000000000000000274ff000000000000000000000000000000000000000019909216919091179055565b610ca084826122ca565b50505050565b600160a060020a031660009081526008602052604090208054600190910154909163ffffffff82169160ff64010000000082048116926501000000000083048216926601000000000000900490911690565b600354600160a060020a031681565b600160a060020a03811660009081526008602052604081206001015482906601000000000000900460ff161515610d3d57600080fd5b6040805160e060020a6370a082310281523060048201529051600160a060020a038516916370a082319160248083019260209291908290030181600087803b158015610d8857600080fd5b505af1158015610d9c573d6000803e3d6000fd5b505050506040513d6020811015610db257600080fd5b50519392505050565b6000600782815481101515610dcc57fe5b600091825260209091200154600160a060020a031692915050565b600080600160a060020a038581169085161415610e0357600080fd5b600254600160a060020a0385811691161415610e2c57610e238584612399565b91509150610e5c565b600254600160a060020a0386811691161415610e4c57610e238484611f2d565b610e57858585612a07565b915091505b935093915050565b600054600160a060020a03163314610e7b57600080fd5b60008051602061416b833981519152610e93816135c7565b600160a060020a03163314610ea757600080fd5b610eb082613660565b5050565b6000610ec4888888600080612dda565b98975050505050505050565b6000806000806000806009600d9054906101000a900460ff16151515610ef557600080fd5b600980546dff0000000000000000000000000019166d01000000000000000000000000001790557f42616e636f724e6574776f726b00000000000000000000000000000000000000610f46816135c7565b600160a060020a03163314610f5a57600080fd5b8760008111610f6857600080fd5b600160a060020a038c8116908c161415610f8157600080fd5b600254600160a060020a038c811691161415610fa957610fa28c8b8b6136f9565b9750611303565b600254600160a060020a038d811691161415610fca57610fa28b8b8b613917565b610fd58c8c8c612a07565b90975095508615801590610fe95750888710155b1515610ff457600080fd5b600160a060020a03808d16600090815260086020526040808220928e168252902090955093506110238b610d07565b925082871061102e57fe5b61103a8c33308d613cd2565b6110468b30338a613cd2565b6110538c8c8c8a8a613f10565b8b600160a060020a031660008051602061418b833981519152600260009054906101000a9004600160a060020a0316600160a060020a03166318160ddd6040518163ffffffff1660e060020a028152600401602060405180830381600087803b1580156110bf57600080fd5b505af11580156110d3573d6000803e3d6000fd5b505050506040513d60208110156110e957600080fd5b81019080805190602001909291905050508e600160a060020a03166370a08231306040518263ffffffff1660e060020a0281526004018082600160a060020a0316600160a060020a03168152602001915050602060405180830381600087803b15801561115557600080fd5b505af1158015611169573d6000803e3d6000fd5b505050506040513d602081101561117f57600080fd5b5051600189015460408051938452602084019290925263ffffffff1682820152519081900360600190a28a600160a060020a031660008051602061418b833981519152600260009054906101000a9004600160a060020a0316600160a060020a03166318160ddd6040518163ffffffff1660e060020a028152600401602060405180830381600087803b15801561121557600080fd5b505af1158015611229573d6000803e3d6000fd5b505050506040513d602081101561123f57600080fd5b81019080805190602001909291905050508d600160a060020a03166370a08231306040518263ffffffff1660e060020a0281526004018082600160a060020a0316600160a060020a03168152602001915050602060405180830381600087803b1580156112ab57600080fd5b505af11580156112bf573d6000803e3d6000fd5b505050506040513d60208110156112d557600080fd5b5051600188015460408051938452602084019290925263ffffffff1682820152519081900360600190a28697505b5050600980546dff0000000000000000000000000019169055509398975050505050505050565b600160a060020a03811660009081526008602052604081206001015482906601000000000000900460ff16151561136057600080fd5b5050600160a060020a031660009081526008602052604090206001015463ffffffff1690565b60055474010000000000000000000000000000000000000000900460ff1681565b600054600160a060020a031633146113be57600080fd5b600254604080517f18160ddd0000000000000000000000000000000000000000000000000000000081529051600092600160a060020a0316916318160ddd91600480830192602092919082900301818787803b15801561141d57600080fd5b505af1158015611431573d6000803e3d6000fd5b505050506040513d602081101561144757600080fd5b50511161145357600080fd5b61145b613f93565b565b6009546000906114b49060ff8416620f424081810a67ffffffffffffffff908116936114a893899363ffffffff680100000000000000009093048316900383160a9091169061401116565b9063ffffffff61404a16565b9392505050565b6114c58383611c40565b505050565b60008060008060008060006009600d9054906101000a900460ff161515156114f157600080fd5b600980546dff0000000000000000000000000019166d010000000000000000000000000017905560075460011061152757600080fd5b600260009054906101000a9004600160a060020a0316600160a060020a03166318160ddd6040518163ffffffff1660e060020a028152600401602060405180830381600087803b15801561157a57600080fd5b505af115801561158e573d6000803e3d6000fd5b505050506040513d60208110156115a457600080fd5b505196506115bf60008051602061414b8339815191526135c7565b6002546040805160e060020a63a24835d1028152336004820152602481018c90529051929850600160a060020a039091169163a24835d19160448082019260009290919082900301818387803b15801561161857600080fd5b505af115801561162c573d6000803e3d6000fd5b50505050600091505b60075461ffff83161015611808576007805461ffff841690811061165557fe5b60009182526020808320909101546040805160e060020a6370a082310281523060048201529051600160a060020a03909216985088936370a082319360248084019491939192918390030190829087803b1580156116b257600080fd5b505af11580156116c6573d6000803e3d6000fd5b505050506040513d60208110156116dc57600080fd5b5051600954604080517fabfd231d000000000000000000000000000000000000000000000000000000008152600481018b90526024810184905263ffffffff9092166044830152606482018b905251919550600160a060020a0388169163abfd231d916084808201926020929091908290030181600087803b15801561176157600080fd5b505af1158015611775573d6000803e3d6000fd5b505050506040513d602081101561178b57600080fd5b5051600160a060020a038616600090815260086020526040902090935090506117b685303386613cd2565b6001810154604080518a8a038152858703602082015263ffffffff9092168282015251600160a060020a0387169160008051602061418b833981519152919081900360600190a2600190910190611635565b5050600980546dff0000000000000000000000000019169055505050505050565b600054600160a060020a0316331461184057600080fd5b600254604080517f5e35359e000000000000000000000000000000000000000000000000000000008152600160a060020a03868116600483015285811660248301526044820185905291519190921691635e35359e91606480830192600092919082900301818387803b1580156118b657600080fd5b505af11580156118ca573d6000803e3d6000fd5b50505050505050565b60008054600160a060020a0316331480611908575060055474010000000000000000000000000000000000000000900460ff16155b151561191357600080fd5b61193c7f436f6e74726163745265676973747279000000000000000000000000000000006135c7565b600454909150600160a060020a038083169116148015906119655750600160a060020a03811615155b151561197057600080fd5b604080517fbb34534c0000000000000000000000000000000000000000000000000000000081527f436f6e747261637452656769737472790000000000000000000000000000000060048201529051600091600160a060020a0384169163bb34534c9160248082019260209290919082900301818787803b1580156119f457600080fd5b505af1158015611a08573d6000803e3d6000fd5b505050506040513d6020811015611a1e57600080fd5b5051600160a060020a03161415611a3457600080fd5b6004805460058054600160a060020a03808416600160a060020a0319928316179092559091169216919091179055565b600054600160a060020a03163314611a7b57600080fd5b80600160a060020a038116301415611a9257600080fd5b5060068054600160a060020a031916600160a060020a0392909216919091179055565b6000610ec4888888613058565b6005547501000000000000000000000000000000000000000000900461ffff1681565b60095468010000000000000000900463ffffffff1681565b6000611b1660008051602061416b8339815191526135c7565b600160a060020a0385166000908152600860205260409020600101549091506601000000000000900460ff161580611be05750600254604080517f8da5cb5b00000000000000000000000000000000000000000000000000000000815290513092600160a060020a031691638da5cb5b9160048083019260209291908290030181600087803b158015611ba857600080fd5b505af1158015611bbc573d6000803e3d6000fd5b505050506040513d6020811015611bd257600080fd5b5051600160a060020a031614155b80611bf85750600054600160a060020a038281169116145b1515611c0357600080fd5b610ca084848461406d565b6000611c1c85858585610ed0565b95945050505050565b600554600160a060020a031681565b60095463ffffffff1681565b600054600160a060020a03163314611c5757600080fd5b600254604080517f8da5cb5b00000000000000000000000000000000000000000000000000000000815290513092600160a060020a031691638da5cb5b9160048083019260209291908290030181600087803b158015611cb657600080fd5b505af1158015611cca573d6000803e3d6000fd5b505050506040513d6020811015611ce057600080fd5b5051600160a060020a03161415611cf657600080fd5b81600160a060020a0381161515611d0c57600080fd5b82600160a060020a038116301415611d2357600080fd5b8260008163ffffffff16118015611d435750620f424063ffffffff821611155b1515611d4e57600080fd5b600254600160a060020a03868116911614801590611d925750600160a060020a0385166000908152600860205260409020600101546601000000000000900460ff16155b8015611db05750600954620f424063ffffffff918216860190911611155b1515611dbb57600080fd5b505050600160a060020a03919091166000818152600860205260408120600180820180549284905566010000000000006501000000000063ffffffff1994851663ffffffff808a169190911765ffff0000000019169190911766ff0000000000001916919091179091556007805492830181559093527fa66cc928b5edb82af9bd49922954155ab7b0942694bea4ce44661d9a8736c688018054600160a060020a0319169093179092556009805492831692821690930116179055565b6040805160038082526080820190925260009160609190602082018380388339505060025482519293508a92600160a060020a039091169150899084906000908110611ec057fe5b906020019060200201846001815181101515611ed857fe5b906020019060200201856002815181101515611ef057fe5b600160a060020a0394851660209182029092010152928216909252919091169052610ec48187878787612dda565b6000611f28612393565b905090565b60008060008060008060008030600160a060020a0316600260009054906101000a9004600160a060020a0316600160a060020a0316638da5cb5b6040518163ffffffff1660e060020a028152600401602060405180830381600087803b158015611f9657600080fd5b505af1158015611faa573d6000803e3d6000fd5b505050506040513d6020811015611fc057600080fd5b5051600160a060020a031614611fd557600080fd5b600160a060020a038a166000908152600860205260409020600101548a906601000000000000900460ff16151561200b57600080fd5b600160a060020a03808c16600090815260086020908152604080832060025482517f18160ddd0000000000000000000000000000000000000000000000000000000081529251919c50909416936318160ddd93600480840194938390030190829087803b15801561207b57600080fd5b505af115801561208f573d6000803e3d6000fd5b505050506040513d60208110156120a557600080fd5b50516040805160e060020a6370a082310281523060048201529051919750600160a060020a038d16916370a08231916024808201926020929091908290030181600087803b1580156120f657600080fd5b505af115801561210a573d6000803e3d6000fd5b505050506040513d602081101561212057600080fd5b5051945061213b60008051602061414b8339815191526135c7565b6001880154604080517f49f9b0f7000000000000000000000000000000000000000000000000000000008152600481018a90526024810189905263ffffffff9092166044830152606482018d905251919550600160a060020a038616916349f9b0f7916084808201926020929091908290030181600087803b1580156121c057600080fd5b505af11580156121d4573d6000803e3d6000fd5b505050506040513d60208110156121ea57600080fd5b505192506121f983600161145d565b9b928c90039a509198505050505050505050565b6000611c1c85858585600080611e78565b600154600160a060020a0316331461223557600080fd5b60015460008054604051600160a060020a0393841693909116917f343765429aea5a34b3ff6a3785a98a5abb2597aca87bfbb58632c173d585373a91a36001805460008054600160a060020a0319908116600160a060020a03841617909155169055565b600454600160a060020a031681565b600054600160a060020a031681565b600080610e57858585612a07565b600181565b60008054600160a060020a031633146122e257600080fd5b60008051602061416b8339815191526122fa816135c7565b600160a060020a0316331461230e57600080fd5b600160a060020a03841660009081526008602052604090206001015484906601000000000000900460ff16151561234457600080fd5b505050600160a060020a0391909116600090815260086020526040902060018101805464ff0000000019168315156401000000000217905555565b600954640100000000900463ffffffff1681565b60075490565b60008060008060008060008030600160a060020a0316600260009054906101000a9004600160a060020a0316600160a060020a0316638da5cb5b6040518163ffffffff1660e060020a028152600401602060405180830381600087803b15801561240257600080fd5b505af1158015612416573d6000803e3d6000fd5b505050506040513d602081101561242c57600080fd5b5051600160a060020a03161461244157600080fd5b600160a060020a038a166000908152600860205260409020600101548a906601000000000000900460ff16151561247757600080fd5b600160a060020a03808c16600090815260086020908152604080832060025482517f18160ddd0000000000000000000000000000000000000000000000000000000081529251919c50909416936318160ddd93600480840194938390030190829087803b1580156124e757600080fd5b505af11580156124fb573d6000803e3d6000fd5b505050506040513d602081101561251157600080fd5b50516040805160e060020a6370a082310281523060048201529051919750600160a060020a038d16916370a08231916024808201926020929091908290030181600087803b15801561256257600080fd5b505af1158015612576573d6000803e3d6000fd5b505050506040513d602081101561258c57600080fd5b505194506125a760008051602061414b8339815191526135c7565b6001880154604080517f29a00e7c000000000000000000000000000000000000000000000000000000008152600481018a90526024810189905263ffffffff9092166044830152606482018d905251919550600160a060020a038616916329a00e7c916084808201926020929091908290030181600087803b1580156121c057600080fd5b600061263b8787878686612dda565b979650505050505050565b600054600160a060020a0316331461265d57600080fd5b60055460048054600160a060020a031916600160a060020a03909216919091179055565b6009546c01000000000000000000000000900460ff1681565b600654600160a060020a031681565b60008060008060008060006009600d9054906101000a900460ff161515156126d057600080fd5b600980546dff0000000000000000000000000019166d010000000000000000000000000017905560075460011061270657600080fd5b600260009054906101000a9004600160a060020a0316600160a060020a03166318160ddd6040518163ffffffff1660e060020a028152600401602060405180830381600087803b15801561275957600080fd5b505af115801561276d573d6000803e3d6000fd5b505050506040513d602081101561278357600080fd5b5051965061279e60008051602061414b8339815191526135c7565b9550600091505b60075461ffff83161015612978576007805461ffff84169081106127c557fe5b60009182526020808320909101546040805160e060020a6370a082310281523060048201529051600160a060020a03909216985088936370a082319360248084019491939192918390030190829087803b15801561282257600080fd5b505af1158015612836573d6000803e3d6000fd5b505050506040513d602081101561284c57600080fd5b5051600954604080517f1da6bbfb000000000000000000000000000000000000000000000000000000008152600481018b90526024810184905263ffffffff9092166044830152606482018b905251919550600160a060020a03881691631da6bbfb916084808201926020929091908290030181600087803b1580156128d157600080fd5b505af11580156128e5573d6000803e3d6000fd5b505050506040513d60208110156128fb57600080fd5b5051600160a060020a0386166000908152600860205260409020909350905061292685333086613cd2565b600181015460408051898b018152868601602082015263ffffffff9092168282015251600160a060020a0387169160008051602061418b833981519152919081900360600190a26001909101906127a5565b6002546040805160e260020a63219e412d028152336004820152602481018b90529051600160a060020a039092169163867904b49160448082019260009290919082900301818387803b1580156129ce57600080fd5b505af11580156129e2573d6000803e3d6000fd5b5050600980546dff000000000000000000000000001916905550505050505050505050565b600080600080600080600030600160a060020a0316600260009054906101000a9004600160a060020a0316600160a060020a0316638da5cb5b6040518163ffffffff1660e060020a028152600401602060405180830381600087803b158015612a6f57600080fd5b505af1158015612a83573d6000803e3d6000fd5b505050506040513d6020811015612a9957600080fd5b5051600160a060020a031614612aae57600080fd5b600160a060020a038a166000908152600860205260409020600101548a906601000000000000900460ff161515612ae457600080fd5b600160a060020a038a166000908152600860205260409020600101548a906601000000000000900460ff161515612b1a57600080fd5b600160a060020a03808d16600090815260086020526040808220928e16825290209097509550612b5760008051602061414b8339815191526135c7565b945084600160a060020a03166379c1b450612b718e610d07565b60018a015463ffffffff16612b858f610d07565b60018b01546040805163ffffffff87811660e060020a028252600482019690965293851660248501526044840192909252929092166064820152608481018e9052905160a48083019260209291908290030181600087803b158015612be957600080fd5b505af1158015612bfd573d6000803e3d6000fd5b505050506040513d6020811015612c1357600080fd5b50519350612c2284600261145d565b9c938d90039b50929950505050505050505050565b6007805482908110612c4557fe5b600091825260209091200154600160a060020a0316905081565b600154600160a060020a031681565b60008054600160a060020a03163314612c8657600080fd5b612c9d60008051602061416b8339815191526135c7565b9050612ca88161346b565b600554604080517f90f58c96000000000000000000000000000000000000000000000000000000008152750100000000000000000000000000000000000000000090920461ffff16600483015251600160a060020a038316916390f58c9691602480830192600092919082900301818387803b158015612d2757600080fd5b505af1158015612d3b573d6000803e3d6000fd5b50505050612d4761221e565b50565b6008602052600090815260409020805460019091015463ffffffff81169060ff640100000000820481169165010000000000810482169166010000000000009091041685565b6000612d9b82610d07565b92915050565b600054600160a060020a03163314612db857600080fd5b60038054600160a060020a031916600160a060020a0392909216919091179055565b600080612e067f42616e636f724e6574776f726b000000000000000000000000000000000000006135c7565b9050341515612f4d576002548751600160a060020a039091169088906000908110612e2d57fe5b90602001906020020151600160a060020a03161415612f29576002546040805160e060020a63a24835d1028152336004820152602481018990529051600160a060020a039092169163a24835d19160448082019260009290919082900301818387803b158015612e9c57600080fd5b505af1158015612eb0573d6000803e3d6000fd5b50506002546040805160e260020a63219e412d028152600160a060020a038681166004830152602482018c9052915191909216935063867904b49250604480830192600092919082900301818387803b158015612f0c57600080fd5b505af1158015612f20573d6000803e3d6000fd5b50505050612f4d565b612f4d876000815181101515612f3b57fe5b90602001906020020151338389613cd2565b80600160a060020a031663ab6214ce34898989338a8a6040518863ffffffff1660e060020a028152600401808060200187815260200186815260200185600160a060020a0316600160a060020a0316815260200184600160a060020a0316600160a060020a03168152602001838152602001828103825288818151815260200191508051906020019060200280838360005b83811015612ff7578181015183820152602001612fdf565b505050509050019750505050505050506020604051808303818588803b15801561302057600080fd5b505af1158015613034573d6000803e3d6000fd5b50505050506040513d602081101561304b57600080fd5b5051979650505050505050565b6000806000806130877f42616e636f7258000000000000000000000000000000000000000000000000006135c7565b92506130b27f42616e636f724e6574776f726b000000000000000000000000000000000000006135c7565b91506130dd7f424e54546f6b656e0000000000000000000000000000000000000000000000006135c7565b600160a060020a03168760008151811015156130f557fe5b60209081029091010151600160a060020a03161461311257600080fd5b604080517faafd6b76000000000000000000000000000000000000000000000000000000008152600481018790523360248201529051600160a060020a0385169163aafd6b769160448083019260209291908290030181600087803b15801561317a57600080fd5b505af115801561318e573d6000803e3d6000fd5b505050506040513d60208110156131a457600080fd5b50516002546040805160e060020a63a24835d1028152336004820152602481018490529051929350600160a060020a039091169163a24835d19160448082019260009290919082900301818387803b1580156131ff57600080fd5b505af1158015613213573d6000803e3d6000fd5b50506002546040805160e260020a63219e412d028152600160a060020a03878116600483015260248201879052915191909216935063867904b49250604480830192600092919082900301818387803b15801561326f57600080fd5b505af1158015613283573d6000803e3d6000fd5b5050505081600160a060020a031663ab6214ce888389336000806040518763ffffffff1660e060020a028152600401808060200187815260200186815260200185600160a060020a0316600160a060020a0316815260200184600160a060020a0316600160a060020a03168152602001838152602001828103825288818151815260200191508051906020019060200280838360005b83811015613331578181015183820152602001613319565b50505050905001975050505050505050602060405180830381600087803b15801561335b57600080fd5b505af115801561336f573d6000803e3d6000fd5b505050506040513d602081101561304b57600080fd5b600054600160a060020a0316331461339c57600080fd5b60008163ffffffff16101580156133c7575060095463ffffffff640100000000909104811690821611155b15156133d257600080fd5b6009546040805163ffffffff6801000000000000000090930483168152918316602083015280517f81cd2ffb37dd237c0e4e2a3de5265fcf9deb43d3e7801e80db9f1ccfba7ee6009281900390910190a16009805463ffffffff90921668010000000000000000026bffffffff000000000000000019909216919091179055565b6000613463848484600080612dda565b949350505050565b600054600160a060020a0316331461348257600080fd5b600054600160a060020a038281169116141561349d57600080fd5b60018054600160a060020a031916600160a060020a0392909216919091179055565b600254600160a060020a031681565b600354600160a060020a031633146134e557600080fd5b6002546040805160e060020a63a24835d1028152600160a060020a038581166004830152602482018590529151919092169163a24835d191604480830192600092919082900301818387803b15801561353d57600080fd5b505af1158015613551573d6000803e3d6000fd5b50506002546040805160e260020a63219e412d028152336004820152602481018690529051600160a060020a03909216935063867904b4925060448082019260009290919082900301818387803b1580156135ab57600080fd5b505af11580156135bf573d6000803e3d6000fd5b505050505050565b60048054604080517fbb34534c00000000000000000000000000000000000000000000000000000000815292830184905251600092600160a060020a039092169163bb34534c91602480830192602092919082900301818787803b15801561362e57600080fd5b505af1158015613642573d6000803e3d6000fd5b505050506040513d602081101561365857600080fd5b505192915050565b600054600160a060020a0316331461367757600080fd5b600254604080517ff2fde38b000000000000000000000000000000000000000000000000000000008152600160a060020a0384811660048301529151919092169163f2fde38b91602480830192600092919082900301818387803b1580156136de57600080fd5b505af11580156136f2573d6000803e3d6000fd5b5050505050565b6000806000806137098787612399565b9093509150821580159061371d5750848310155b151561372857600080fd5b50600160a060020a038616600090815260086020526040902061374d87333089613cd2565b6002546040805160e260020a63219e412d028152336004820152602481018690529051600160a060020a039092169163867904b49160448082019260009290919082900301818387803b1580156137a357600080fd5b505af11580156137b7573d6000803e3d6000fd5b50506002546137d59250899150600160a060020a0316888686613f10565b86600160a060020a031660008051602061418b833981519152600260009054906101000a9004600160a060020a0316600160a060020a03166318160ddd6040518163ffffffff1660e060020a028152600401602060405180830381600087803b15801561384157600080fd5b505af1158015613855573d6000803e3d6000fd5b505050506040513d602081101561386b57600080fd5b50516040805160e060020a6370a082310281523060048201529051600160a060020a038c16916370a082319160248083019260209291908290030181600087803b1580156138b857600080fd5b505af11580156138cc573d6000803e3d6000fd5b505050506040513d60208110156138e257600080fd5b5051600185015460408051938452602084019290925263ffffffff1682820152519081900360600190a2509095945050505050565b6002546040805160e060020a6370a08231028152336004820152905160009283928392839283928392600160a060020a03909216916370a082319160248082019260209290919082900301818787803b15801561397357600080fd5b505af1158015613987573d6000803e3d6000fd5b505050506040513d602081101561399d57600080fd5b50518811156139ab57600080fd5b6139b58989611f2d565b909550935084158015906139c95750868510155b15156139d457600080fd5b600260009054906101000a9004600160a060020a0316600160a060020a03166318160ddd6040518163ffffffff1660e060020a028152600401602060405180830381600087803b158015613a2757600080fd5b505af1158015613a3b573d6000803e3d6000fd5b505050506040513d6020811015613a5157600080fd5b50516040805160e060020a6370a082310281523060048201529051919450600160a060020a038b16916370a08231916024808201926020929091908290030181600087803b158015613aa257600080fd5b505af1158015613ab6573d6000803e3d6000fd5b505050506040513d6020811015613acc57600080fd5b5051915081851080613ae757508185148015613ae757508288145b1515613aef57fe5b50600160a060020a03808916600090815260086020526040808220600254825160e060020a63a24835d1028152336004820152602481018d905292519194169263a24835d1926044808201939182900301818387803b158015613b5157600080fd5b505af1158015613b65573d6000803e3d6000fd5b50505050613b7589303388613cd2565b600254613b8e90600160a060020a03168a8a8888613f10565b88600160a060020a031660008051602061418b833981519152600260009054906101000a9004600160a060020a0316600160a060020a03166318160ddd6040518163ffffffff1660e060020a028152600401602060405180830381600087803b158015613bfa57600080fd5b505af1158015613c0e573d6000803e3d6000fd5b505050506040513d6020811015613c2457600080fd5b50516040805160e060020a6370a082310281523060048201529051600160a060020a038e16916370a082319160248083019260209291908290030181600087803b158015613c7157600080fd5b505af1158015613c85573d6000803e3d6000fd5b505050506040513d6020811015613c9b57600080fd5b5051600185015460408051938452602084019290925263ffffffff1682820152519081900360600190a25092979650505050505050565b60008085600160a060020a03166370a08231856040518263ffffffff1660e060020a0281526004018082600160a060020a0316600160a060020a03168152602001915050602060405180830381600087803b158015613d3057600080fd5b505af1158015613d44573d6000803e3d6000fd5b505050506040513d6020811015613d5a57600080fd5b50519150600160a060020a038516301415613def5785600160a060020a031663a9059cbb85856040518363ffffffff1660e060020a0281526004018083600160a060020a0316600160a060020a0316815260200182815260200192505050600060405180830381600087803b158015613dd257600080fd5b505af1158015613de6573d6000803e3d6000fd5b50505050613e7b565b604080517f23b872dd000000000000000000000000000000000000000000000000000000008152600160a060020a0387811660048301528681166024830152604482018690529151918816916323b872dd9160648082019260009290919082900301818387803b158015613e6257600080fd5b505af1158015613e76573d6000803e3d6000fd5b505050505b85600160a060020a03166370a08231856040518263ffffffff1660e060020a0281526004018082600160a060020a0316600160a060020a03168152602001915050602060405180830381600087803b158015613ed657600080fd5b505af1158015613eea573d6000803e3d6000fd5b505050506040513d6020811015613f0057600080fd5b505190508181116135bf57600080fd5b7f80000000000000000000000000000000000000000000000000000000000000008110613f3957fe5b604080518481526020810184905280820183905290513391600160a060020a0387811692908916917f276856b36cbc45526a0ba64f44611557a2a8b68662c5388e9fe6d72e86e1c8cb919081900360600190a45050505050565b600054600160a060020a03163314613faa57600080fd5b600260009054906101000a9004600160a060020a0316600160a060020a03166379ba50976040518163ffffffff1660e060020a028152600401600060405180830381600087803b158015613ffd57600080fd5b505af1158015610ca0573d6000803e3d6000fd5b6000808315156140245760009150614043565b5082820282848281151561403457fe5b041461403f57600080fd5b8091505b5092915050565b60008080831161405957600080fd5b828481151561406457fe5b04949350505050565b600054600160a060020a0316331461408457600080fd5b82600160a060020a038116151561409a57600080fd5b82600160a060020a03811615156140b057600080fd5b83600160a060020a0381163014156140c757600080fd5b85600160a060020a031663a9059cbb86866040518363ffffffff1660e060020a0281526004018083600160a060020a0316600160a060020a0316815260200182815260200192505050600060405180830381600087803b15801561412a57600080fd5b505af115801561413e573d6000803e3d6000fd5b50505050505050505050560042616e636f72466f726d756c610000000000000000000000000000000000000042616e636f72436f6e76657274657255706772616465720000000000000000008a6a7f53b3c8fa1dc4b83e3f1be668c1b251ff8d44cdcb83eb3acec3fec6a788a165627a7a723058205625152f21fc036308942f5d1959488f4a93bdf6bfeefd1087fff054486659940029",
  "source": "pragma solidity 0.4.26;\r\nimport './interfaces/IBancorConverter.sol';\r\nimport './interfaces/IBancorConverterUpgrader.sol';\r\nimport './interfaces/IBancorFormula.sol';\r\nimport '../IBancorNetwork.sol';\r\nimport '../FeatureIds.sol';\r\nimport '../utility/SafeMath.sol';\r\nimport '../utility/ContractRegistryClient.sol';\r\nimport '../utility/interfaces/IContractFeatures.sol';\r\nimport '../token/SmartTokenController.sol';\r\nimport '../token/interfaces/ISmartToken.sol';\r\nimport '../token/interfaces/INonStandardERC20.sol';\r\nimport '../token/interfaces/IEtherToken.sol';\r\nimport '../bancorx/interfaces/IBancorX.sol';\r\n\r\n/**\r\n  * @dev Bancor Converter\r\n  * \r\n  * The Bancor converter allows for conversions between a Smart Token and other ERC20 tokens and between different ERC20 tokens and themselves. \r\n  * \r\n  * This mechanism opens the possibility to create different financial tools (for example, lower slippage in conversions).\r\n  * \r\n  * The converter is upgradable (just like any SmartTokenController) and all upgrades are opt-in. \r\n  * \r\n  * WARNING: It is NOT RECOMMENDED to use the converter with Smart Tokens that have less than 8 decimal digits or with very small numbers because of precision loss \r\n  * \r\n  * Open issues:\r\n  * - Front-running attacks are currently mitigated by providing the minimum return argument for each conversion\r\n  *   Other potential solutions might include a commit/reveal based schemes\r\n*/\r\ncontract BancorConverter is IBancorConverter, SmartTokenController, ContractRegistryClient, FeatureIds {\r\n    using SafeMath for uint256;\r\n\r\n    uint32 private constant RATIO_RESOLUTION = 1000000;\r\n    uint64 private constant CONVERSION_FEE_RESOLUTION = 1000000;\r\n\r\n    struct Reserve {\r\n        uint256 virtualBalance;         // reserve virtual balance\r\n        uint32 ratio;                   // reserve ratio, represented in ppm, 1-1000000\r\n        bool isVirtualBalanceEnabled;   // true if virtual balance is enabled, false if not\r\n        bool isSaleEnabled;             // is sale of the reserve token enabled, can be set by the owner\r\n        bool isSet;                     // used to tell if the mapping element is defined\r\n    }\r\n\r\n    /**\r\n      * @dev version number\r\n    */\r\n    uint16 public version = 27;\r\n\r\n    IWhitelist public conversionWhitelist;          // whitelist contract with list of addresses that are allowed to use the converter\r\n    IERC20Token[] public reserveTokens;             // ERC20 standard token addresses (prior version 17, use 'connectorTokens' instead)\r\n    mapping (address => Reserve) public reserves;   // reserve token addresses -> reserve data (prior version 17, use 'connectors' instead)\r\n    uint32 public totalReserveRatio = 0;            // total ratio of all reservces, also used to efficiently prevent increasing\r\n                                                    // the total reserve ratio above 100%\r\n    uint32 public maxConversionFee = 0;             // maximum conversion fee for the lifetime of the contract,\r\n                                                    // represented in ppm, 0...1000000 (0 = no fee, 100 = 0.01%, 1000000 = 100%)\r\n    uint32 public conversionFee = 0;                // current conversion fee, represented in ppm, 0...maxConversionFee\r\n    bool public conversionsEnabled = true;          // deprecated, backward compatibility\r\n    bool private locked = false;                    // re-entrancy protection\r\n\r\n    /**\r\n      * @dev triggered when a conversion between two tokens occurs\r\n      * \r\n      * @param _fromToken       ERC20 token converted from\r\n      * @param _toToken         ERC20 token converted to\r\n      * @param _trader          wallet that initiated the trade\r\n      * @param _amount          amount converted, in fromToken\r\n      * @param _return          amount returned, minus conversion fee\r\n      * @param _conversionFee   conversion fee\r\n    */\r\n    event Conversion(\r\n        address indexed _fromToken,\r\n        address indexed _toToken,\r\n        address indexed _trader,\r\n        uint256 _amount,\r\n        uint256 _return,\r\n        int256 _conversionFee\r\n    );\r\n\r\n    /**\r\n      * @dev triggered after a conversion with new price data\r\n      * \r\n      * @param  _connectorToken     reserve token\r\n      * @param  _tokenSupply        smart token supply\r\n      * @param  _connectorBalance   reserve balance\r\n      * @param  _connectorWeight    reserve ratio\r\n    */\r\n    event PriceDataUpdate(\r\n        address indexed _connectorToken,\r\n        uint256 _tokenSupply,\r\n        uint256 _connectorBalance,\r\n        uint32 _connectorWeight\r\n    );\r\n\r\n    /**\r\n      * @dev triggered when the conversion fee is updated\r\n      * \r\n      * @param  _prevFee    previous fee percentage, represented in ppm\r\n      * @param  _newFee     new fee percentage, represented in ppm\r\n    */\r\n    event ConversionFeeUpdate(uint32 _prevFee, uint32 _newFee);\r\n\r\n    /**\r\n      * @dev initializes a new BancorConverter instance\r\n      * \r\n      * @param  _token              smart token governed by the converter\r\n      * @param  _registry           address of a contract registry contract\r\n      * @param  _maxConversionFee   maximum conversion fee, represented in ppm\r\n      * @param  _reserveToken       optional, initial reserve, allows defining the first reserve at deployment time\r\n      * @param  _reserveRatio       optional, ratio for the initial reserve\r\n    */\r\n    constructor(\r\n        ISmartToken _token,\r\n        IContractRegistry _registry,\r\n        uint32 _maxConversionFee,\r\n        IERC20Token _reserveToken,\r\n        uint32 _reserveRatio\r\n    )   ContractRegistryClient(_registry)\r\n        public\r\n        SmartTokenController(_token)\r\n        validConversionFee(_maxConversionFee)\r\n    {\r\n        IContractFeatures features = IContractFeatures(addressOf(CONTRACT_FEATURES));\r\n\r\n        // initialize supported features\r\n        if (features != address(0))\r\n            features.enableFeatures(FeatureIds.CONVERTER_CONVERSION_WHITELIST, true);\r\n\r\n        maxConversionFee = _maxConversionFee;\r\n\r\n        if (_reserveToken != address(0))\r\n            addReserve(_reserveToken, _reserveRatio);\r\n    }\r\n\r\n    // protects a function against reentrancy attacks\r\n    modifier protected() {\r\n        require(!locked);\r\n        locked = true;\r\n        _;\r\n        locked = false;\r\n    }\r\n\r\n    // validates a reserve token address - verifies that the address belongs to one of the reserve tokens\r\n    modifier validReserve(IERC20Token _address) {\r\n        require(reserves[_address].isSet);\r\n        _;\r\n    }\r\n\r\n    // validates conversion fee\r\n    modifier validConversionFee(uint32 _conversionFee) {\r\n        require(_conversionFee >= 0 && _conversionFee <= CONVERSION_FEE_RESOLUTION);\r\n        _;\r\n    }\r\n\r\n    // validates reserve ratio\r\n    modifier validReserveRatio(uint32 _ratio) {\r\n        require(_ratio > 0 && _ratio <= RATIO_RESOLUTION);\r\n        _;\r\n    }\r\n\r\n    // allows execution only if the total-supply of the token is greater than zero\r\n    modifier totalSupplyGreaterThanZeroOnly {\r\n        require(token.totalSupply() > 0);\r\n        _;\r\n    }\r\n\r\n    // allows execution only on a multiple-reserve converter\r\n    modifier multipleReservesOnly {\r\n        require(reserveTokens.length > 1);\r\n        _;\r\n    }\r\n\r\n    /**\r\n      * @dev returns the number of reserve tokens defined\r\n      * note that prior to version 17, you should use 'connectorTokenCount' instead\r\n      * \r\n      * @return number of reserve tokens\r\n    */\r\n    function reserveTokenCount() public view returns (uint16) {\r\n        return uint16(reserveTokens.length);\r\n    }\r\n\r\n    /**\r\n      * @dev allows the owner to update & enable the conversion whitelist contract address\r\n      * when set, only addresses that are whitelisted are actually allowed to use the converter\r\n      * note that the whitelist check is actually done by the BancorNetwork contract\r\n      * \r\n      * @param _whitelist    address of a whitelist contract\r\n    */\r\n    function setConversionWhitelist(IWhitelist _whitelist)\r\n        public\r\n        ownerOnly\r\n        notThis(_whitelist)\r\n    {\r\n        conversionWhitelist = _whitelist;\r\n    }\r\n\r\n    /**\r\n      * @dev allows transferring the token ownership\r\n      * the new owner needs to accept the transfer\r\n      * can only be called by the contract owner\r\n      * note that token ownership can only be transferred while the owner is the converter upgrader contract\r\n      * \r\n      * @param _newOwner    new token owner\r\n    */\r\n    function transferTokenOwnership(address _newOwner)\r\n        public\r\n        ownerOnly\r\n        only(BANCOR_CONVERTER_UPGRADER)\r\n    {\r\n        super.transferTokenOwnership(_newOwner);\r\n    }\r\n\r\n    /**\r\n      * @dev used by a new owner to accept a token ownership transfer\r\n      * can only be called by the contract owner\r\n      * note that token ownership can only be accepted if its total-supply is greater than zero\r\n    */\r\n    function acceptTokenOwnership()\r\n        public\r\n        ownerOnly\r\n        totalSupplyGreaterThanZeroOnly\r\n    {\r\n        super.acceptTokenOwnership();\r\n    }\r\n\r\n    /**\r\n      * @dev updates the current conversion fee\r\n      * can only be called by the contract owner\r\n      * \r\n      * @param _conversionFee new conversion fee, represented in ppm\r\n    */\r\n    function setConversionFee(uint32 _conversionFee)\r\n        public\r\n        ownerOnly\r\n    {\r\n        require(_conversionFee >= 0 && _conversionFee <= maxConversionFee);\r\n        emit ConversionFeeUpdate(conversionFee, _conversionFee);\r\n        conversionFee = _conversionFee;\r\n    }\r\n\r\n    /**\r\n      * @dev given a return amount, returns the amount minus the conversion fee\r\n      * \r\n      * @param _amount      return amount\r\n      * @param _magnitude   1 for standard conversion, 2 for cross reserve conversion\r\n      * \r\n      * @return return amount minus conversion fee\r\n    */\r\n    function getFinalAmount(uint256 _amount, uint8 _magnitude) public view returns (uint256) {\r\n        return _amount.mul((CONVERSION_FEE_RESOLUTION - conversionFee) ** _magnitude).div(CONVERSION_FEE_RESOLUTION ** _magnitude);\r\n    }\r\n\r\n    /**\r\n      * @dev withdraws tokens held by the converter and sends them to an account\r\n      * can only be called by the owner\r\n      * note that reserve tokens can only be withdrawn by the owner while the converter is inactive\r\n      * unless the owner is the converter upgrader contract\r\n      * \r\n      * @param _token   ERC20 token contract address\r\n      * @param _to      account to receive the new amount\r\n      * @param _amount  amount to withdraw\r\n    */\r\n    function withdrawTokens(IERC20Token _token, address _to, uint256 _amount) public {\r\n        address converterUpgrader = addressOf(BANCOR_CONVERTER_UPGRADER);\r\n\r\n        // if the token is not a reserve token, allow withdrawal\r\n        // otherwise verify that the converter is inactive or that the owner is the upgrader contract\r\n        require(!reserves[_token].isSet || token.owner() != address(this) || owner == converterUpgrader);\r\n        super.withdrawTokens(_token, _to, _amount);\r\n    }\r\n\r\n    /**\r\n      * @dev upgrades the converter to the latest version\r\n      * can only be called by the owner\r\n      * note that the owner needs to call acceptOwnership on the new converter after the upgrade\r\n    */\r\n    function upgrade() public ownerOnly {\r\n        IBancorConverterUpgrader converterUpgrader = IBancorConverterUpgrader(addressOf(BANCOR_CONVERTER_UPGRADER));\r\n\r\n        transferOwnership(converterUpgrader);\r\n        converterUpgrader.upgrade(version);\r\n        acceptOwnership();\r\n    }\r\n\r\n    /**\r\n      * @dev defines a new reserve for the token\r\n      * can only be called by the owner while the converter is inactive\r\n      * note that prior to version 17, you should use 'addConnector' instead\r\n      * \r\n      * @param _token                  address of the reserve token\r\n      * @param _ratio                  constant reserve ratio, represented in ppm, 1-1000000\r\n    */\r\n    function addReserve(IERC20Token _token, uint32 _ratio)\r\n        public\r\n        ownerOnly\r\n        inactive\r\n        validAddress(_token)\r\n        notThis(_token)\r\n        validReserveRatio(_ratio)\r\n    {\r\n        require(_token != token && !reserves[_token].isSet && totalReserveRatio + _ratio <= RATIO_RESOLUTION); // validate input\r\n\r\n        reserves[_token].ratio = _ratio;\r\n        reserves[_token].isVirtualBalanceEnabled = false;\r\n        reserves[_token].virtualBalance = 0;\r\n        reserves[_token].isSaleEnabled = true;\r\n        reserves[_token].isSet = true;\r\n        reserveTokens.push(_token);\r\n        totalReserveRatio += _ratio;\r\n    }\r\n\r\n    /**\r\n      * @dev updates a reserve's virtual balance\r\n      * only used during an upgrade process\r\n      * can only be called by the contract owner while the owner is the converter upgrader contract\r\n      * note that prior to version 17, you should use 'updateConnector' instead\r\n      * \r\n      * @param _reserveToken    address of the reserve token\r\n      * @param _virtualBalance  new reserve virtual balance, or 0 to disable virtual balance\r\n    */\r\n    function updateReserveVirtualBalance(IERC20Token _reserveToken, uint256 _virtualBalance)\r\n        public\r\n        ownerOnly\r\n        only(BANCOR_CONVERTER_UPGRADER)\r\n        validReserve(_reserveToken)\r\n    {\r\n        Reserve storage reserve = reserves[_reserveToken];\r\n        reserve.isVirtualBalanceEnabled = _virtualBalance != 0;\r\n        reserve.virtualBalance = _virtualBalance;\r\n    }\r\n\r\n    /**\r\n      * @dev returns the reserve's ratio\r\n      * added in version 22\r\n      * \r\n      * @param _reserveToken    reserve token contract address\r\n      * \r\n      * @return reserve ratio\r\n    */\r\n    function getReserveRatio(IERC20Token _reserveToken)\r\n        public\r\n        view\r\n        validReserve(_reserveToken)\r\n        returns (uint256)\r\n    {\r\n        return reserves[_reserveToken].ratio;\r\n    }\r\n\r\n    /**\r\n      * @dev returns the reserve's balance\r\n      * note that prior to version 17, you should use 'getConnectorBalance' instead\r\n      * \r\n      * @param _reserveToken    reserve token contract address\r\n      * \r\n      * @return reserve balance\r\n    */\r\n    function getReserveBalance(IERC20Token _reserveToken)\r\n        public\r\n        view\r\n        validReserve(_reserveToken)\r\n        returns (uint256)\r\n    {\r\n        return _reserveToken.balanceOf(this);\r\n    }\r\n\r\n    /**\r\n      * @dev calculates the expected return of converting a given amount of tokens\r\n      * \r\n      * @param _fromToken  contract address of the token to convert from\r\n      * @param _toToken    contract address of the token to convert to\r\n      * @param _amount     amount of tokens received from the user\r\n      * \r\n      * @return amount of tokens that the user will receive\r\n      * @return amount of tokens that the user will pay as fee\r\n    */\r\n    function getReturn(IERC20Token _fromToken, IERC20Token _toToken, uint256 _amount) public view returns (uint256, uint256) {\r\n        require(_fromToken != _toToken); // validate input\r\n\r\n        // conversion between the token and one of its reserves\r\n        if (_toToken == token)\r\n            return getPurchaseReturn(_fromToken, _amount);\r\n        else if (_fromToken == token)\r\n            return getSaleReturn(_toToken, _amount);\r\n\r\n        // conversion between 2 reserves\r\n        return getCrossReserveReturn(_fromToken, _toToken, _amount);\r\n    }\r\n\r\n    /**\r\n      * @dev calculates the expected return of buying with a given amount of tokens\r\n      * \r\n      * @param _reserveToken    contract address of the reserve token\r\n      * @param _depositAmount   amount of reserve-tokens received from the user\r\n      * \r\n      * @return amount of supply-tokens that the user will receive\r\n      * @return amount of supply-tokens that the user will pay as fee\r\n    */\r\n    function getPurchaseReturn(IERC20Token _reserveToken, uint256 _depositAmount)\r\n        public\r\n        view\r\n        active\r\n        validReserve(_reserveToken)\r\n        returns (uint256, uint256)\r\n    {\r\n        Reserve storage reserve = reserves[_reserveToken];\r\n\r\n        uint256 tokenSupply = token.totalSupply();\r\n        uint256 reserveBalance = _reserveToken.balanceOf(this);\r\n        IBancorFormula formula = IBancorFormula(addressOf(BANCOR_FORMULA));\r\n        uint256 amount = formula.calculatePurchaseReturn(tokenSupply, reserveBalance, reserve.ratio, _depositAmount);\r\n        uint256 finalAmount = getFinalAmount(amount, 1);\r\n\r\n        // return the amount minus the conversion fee and the conversion fee\r\n        return (finalAmount, amount - finalAmount);\r\n    }\r\n\r\n    /**\r\n      * @dev calculates the expected return of selling a given amount of tokens\r\n      * \r\n      * @param _reserveToken    contract address of the reserve token\r\n      * @param _sellAmount      amount of supply-tokens received from the user\r\n      * \r\n      * @return amount of reserve-tokens that the user will receive\r\n      * @return amount of reserve-tokens that the user will pay as fee\r\n    */\r\n    function getSaleReturn(IERC20Token _reserveToken, uint256 _sellAmount)\r\n        public\r\n        view\r\n        active\r\n        validReserve(_reserveToken)\r\n        returns (uint256, uint256)\r\n    {\r\n        Reserve storage reserve = reserves[_reserveToken];\r\n        uint256 tokenSupply = token.totalSupply();\r\n        uint256 reserveBalance = _reserveToken.balanceOf(this);\r\n        IBancorFormula formula = IBancorFormula(addressOf(BANCOR_FORMULA));\r\n        uint256 amount = formula.calculateSaleReturn(tokenSupply, reserveBalance, reserve.ratio, _sellAmount);\r\n        uint256 finalAmount = getFinalAmount(amount, 1);\r\n\r\n        // return the amount minus the conversion fee and the conversion fee\r\n        return (finalAmount, amount - finalAmount);\r\n    }\r\n\r\n    /**\r\n      * @dev calculates the expected return of converting a given amount from one reserve to another\r\n      * note that prior to version 17, you should use 'getCrossConnectorReturn' instead\r\n      * \r\n      * @param _fromReserveToken    contract address of the reserve token to convert from\r\n      * @param _toReserveToken      contract address of the reserve token to convert to\r\n      * @param _amount              amount of tokens received from the user\r\n      * \r\n      * @return amount of tokens that the user will receive\r\n      * @return amount of tokens that the user will pay as fee\r\n    */\r\n    function getCrossReserveReturn(IERC20Token _fromReserveToken, IERC20Token _toReserveToken, uint256 _amount)\r\n        public\r\n        view\r\n        active\r\n        validReserve(_fromReserveToken)\r\n        validReserve(_toReserveToken)\r\n        returns (uint256, uint256)\r\n    {\r\n        Reserve storage fromReserve = reserves[_fromReserveToken];\r\n        Reserve storage toReserve = reserves[_toReserveToken];\r\n\r\n        IBancorFormula formula = IBancorFormula(addressOf(BANCOR_FORMULA));\r\n        uint256 amount = formula.calculateCrossReserveReturn(\r\n            getReserveBalance(_fromReserveToken), \r\n            fromReserve.ratio, \r\n            getReserveBalance(_toReserveToken), \r\n            toReserve.ratio, \r\n            _amount);\r\n        uint256 finalAmount = getFinalAmount(amount, 2);\r\n\r\n        // return the amount minus the conversion fee and the conversion fee\r\n        // the fee is higher (magnitude = 2) since cross reserve conversion equals 2 conversions (from / to the smart token)\r\n        return (finalAmount, amount - finalAmount);\r\n    }\r\n\r\n    /**\r\n      * @dev converts a specific amount of _fromToken to _toToken\r\n      * can only be called by the bancor network contract\r\n      * \r\n      * @param _fromToken  ERC20 token to convert from\r\n      * @param _toToken    ERC20 token to convert to\r\n      * @param _amount     amount to convert, in fromToken\r\n      * @param _minReturn  if the conversion results in an amount smaller than the minimum return - it is cancelled, must be nonzero\r\n      * \r\n      * @return conversion return amount\r\n    */\r\n    function convertInternal(IERC20Token _fromToken, IERC20Token _toToken, uint256 _amount, uint256 _minReturn)\r\n        public\r\n        protected\r\n        only(BANCOR_NETWORK)\r\n        greaterThanZero(_minReturn)\r\n        returns (uint256)\r\n    {\r\n        require(_fromToken != _toToken); // validate input\r\n\r\n        // conversion between the token and one of its reserves\r\n        if (_toToken == token)\r\n            return buy(_fromToken, _amount, _minReturn);\r\n        else if (_fromToken == token)\r\n            return sell(_toToken, _amount, _minReturn);\r\n\r\n        uint256 amount;\r\n        uint256 feeAmount;\r\n\r\n        // conversion between 2 reserves\r\n        (amount, feeAmount) = getCrossReserveReturn(_fromToken, _toToken, _amount);\r\n        // ensure the trade gives something in return and meets the minimum requested amount\r\n        require(amount != 0 && amount >= _minReturn);\r\n\r\n        Reserve storage fromReserve = reserves[_fromToken];\r\n        Reserve storage toReserve = reserves[_toToken];\r\n\r\n        // ensure that the trade won't deplete the reserve balance\r\n        uint256 toReserveBalance = getReserveBalance(_toToken);\r\n        assert(amount < toReserveBalance);\r\n\r\n        // transfer funds from the caller in the from reserve token\r\n        ensureTransferFrom(_fromToken, msg.sender, this, _amount);\r\n        // transfer funds to the caller in the to reserve token\r\n        ensureTransferFrom(_toToken, this, msg.sender, amount);\r\n\r\n        // dispatch the conversion event\r\n        // the fee is higher (magnitude = 2) since cross reserve conversion equals 2 conversions (from / to the smart token)\r\n        dispatchConversionEvent(_fromToken, _toToken, _amount, amount, feeAmount);\r\n\r\n        // dispatch price data updates for the smart token / both reserves\r\n        emit PriceDataUpdate(_fromToken, token.totalSupply(), _fromToken.balanceOf(this), fromReserve.ratio);\r\n        emit PriceDataUpdate(_toToken, token.totalSupply(), _toToken.balanceOf(this), toReserve.ratio);\r\n        return amount;\r\n    }\r\n\r\n    /**\r\n      * @dev buys the token by depositing one of its reserve tokens\r\n      * \r\n      * @param _reserveToken    reserve token contract address\r\n      * @param _depositAmount   amount to deposit (in the reserve token)\r\n      * @param _minReturn       if the conversion results in an amount smaller than the minimum return - it is cancelled, must be nonzero\r\n      * \r\n      * @return buy return amount\r\n    */\r\n    function buy(IERC20Token _reserveToken, uint256 _depositAmount, uint256 _minReturn) internal returns (uint256) {\r\n        uint256 amount;\r\n        uint256 feeAmount;\r\n        (amount, feeAmount) = getPurchaseReturn(_reserveToken, _depositAmount);\r\n        // ensure the trade gives something in return and meets the minimum requested amount\r\n        require(amount != 0 && amount >= _minReturn);\r\n\r\n        Reserve storage reserve = reserves[_reserveToken];\r\n\r\n        // transfer funds from the caller in the reserve token\r\n        ensureTransferFrom(_reserveToken, msg.sender, this, _depositAmount);\r\n        // issue new funds to the caller in the smart token\r\n        token.issue(msg.sender, amount);\r\n\r\n        // dispatch the conversion event\r\n        dispatchConversionEvent(_reserveToken, token, _depositAmount, amount, feeAmount);\r\n\r\n        // dispatch price data update for the smart token/reserve\r\n        emit PriceDataUpdate(_reserveToken, token.totalSupply(), _reserveToken.balanceOf(this), reserve.ratio);\r\n        return amount;\r\n    }\r\n\r\n    /**\r\n      * @dev sells the token by withdrawing from one of its reserve tokens\r\n      * \r\n      * @param _reserveToken    reserve token contract address\r\n      * @param _sellAmount      amount to sell (in the smart token)\r\n      * @param _minReturn       if the conversion results in an amount smaller the minimum return - it is cancelled, must be nonzero\r\n      * \r\n      * @return sell return amount\r\n    */\r\n    function sell(IERC20Token _reserveToken, uint256 _sellAmount, uint256 _minReturn) internal returns (uint256) {\r\n        require(_sellAmount <= token.balanceOf(msg.sender)); // validate input\r\n        uint256 amount;\r\n        uint256 feeAmount;\r\n        (amount, feeAmount) = getSaleReturn(_reserveToken, _sellAmount);\r\n        // ensure the trade gives something in return and meets the minimum requested amount\r\n        require(amount != 0 && amount >= _minReturn);\r\n\r\n        // ensure that the trade will only deplete the reserve balance if the total supply is depleted as well\r\n        uint256 tokenSupply = token.totalSupply();\r\n        uint256 reserveBalance = _reserveToken.balanceOf(this);\r\n        assert(amount < reserveBalance || (amount == reserveBalance && _sellAmount == tokenSupply));\r\n\r\n        Reserve storage reserve = reserves[_reserveToken];\r\n\r\n        // destroy _sellAmount from the caller's balance in the smart token\r\n        token.destroy(msg.sender, _sellAmount);\r\n        // transfer funds to the caller in the reserve token\r\n        ensureTransferFrom(_reserveToken, this, msg.sender, amount);\r\n\r\n        // dispatch the conversion event\r\n        dispatchConversionEvent(token, _reserveToken, _sellAmount, amount, feeAmount);\r\n\r\n        // dispatch price data update for the smart token/reserve\r\n        emit PriceDataUpdate(_reserveToken, token.totalSupply(), _reserveToken.balanceOf(this), reserve.ratio);\r\n        return amount;\r\n    }\r\n\r\n    /**\r\n      * @dev converts a specific amount of _fromToken to _toToken\r\n      * note that prior to version 16, you should use 'convert' instead\r\n      * \r\n      * @param _fromToken           ERC20 token to convert from\r\n      * @param _toToken             ERC20 token to convert to\r\n      * @param _amount              amount to convert, in fromToken\r\n      * @param _minReturn           if the conversion results in an amount smaller than the minimum return - it is cancelled, must be nonzero\r\n      * @param _affiliateAccount    affiliate account\r\n      * @param _affiliateFee        affiliate fee in PPM\r\n      * \r\n      * @return conversion return amount\r\n    */\r\n    function convert2(IERC20Token _fromToken, IERC20Token _toToken, uint256 _amount, uint256 _minReturn, address _affiliateAccount, uint256 _affiliateFee) public returns (uint256) {\r\n        IERC20Token[] memory path = new IERC20Token[](3);\r\n        (path[0], path[1], path[2]) = (_fromToken, token, _toToken);\r\n        return quickConvert2(path, _amount, _minReturn, _affiliateAccount, _affiliateFee);\r\n    }\r\n\r\n    /**\r\n      * @dev converts the token to any other token in the bancor network by following a predefined conversion path\r\n      * note that when converting from an ERC20 token (as opposed to a smart token), allowance must be set beforehand\r\n      * note that prior to version 16, you should use 'quickConvert' instead\r\n      * \r\n      * @param _path                conversion path, see conversion path format in the BancorNetwork contract\r\n      * @param _amount              amount to convert from (in the initial source token)\r\n      * @param _minReturn           if the conversion results in an amount smaller than the minimum return - it is cancelled, must be nonzero\r\n      * @param _affiliateAccount    affiliate account\r\n      * @param _affiliateFee        affiliate fee in PPM\r\n      * \r\n      * @return tokens issued in return\r\n    */\r\n    function quickConvert2(IERC20Token[] _path, uint256 _amount, uint256 _minReturn, address _affiliateAccount, uint256 _affiliateFee)\r\n        public\r\n        payable\r\n        returns (uint256)\r\n    {\r\n        IBancorNetwork bancorNetwork = IBancorNetwork(addressOf(BANCOR_NETWORK));\r\n\r\n        // we need to transfer the source tokens from the caller to the BancorNetwork contract,\r\n        // so it can execute the conversion on behalf of the caller\r\n        if (msg.value == 0) {\r\n            // not ETH, send the source tokens to the BancorNetwork contract\r\n            // if the token is the smart token, no allowance is required - destroy the tokens\r\n            // from the caller and issue them to the BancorNetwork contract\r\n            if (_path[0] == token) {\r\n                token.destroy(msg.sender, _amount); // destroy _amount tokens from the caller's balance in the smart token\r\n                token.issue(bancorNetwork, _amount); // issue _amount new tokens to the BancorNetwork contract\r\n            } else {\r\n                // otherwise, we assume we already have allowance, transfer the tokens directly to the BancorNetwork contract\r\n                ensureTransferFrom(_path[0], msg.sender, bancorNetwork, _amount);\r\n            }\r\n        }\r\n\r\n        // execute the conversion and pass on the ETH with the call\r\n        return bancorNetwork.convertFor2.value(msg.value)(_path, _amount, _minReturn, msg.sender, _affiliateAccount, _affiliateFee);\r\n    }\r\n\r\n    /**\r\n      * @dev allows a user to convert BNT that was sent from another blockchain into any other\r\n      * token on the BancorNetwork without specifying the amount of BNT to be converted, but\r\n      * rather by providing the xTransferId which allows us to get the amount from BancorX.\r\n      * note that prior to version 16, you should use 'completeXConversion' instead\r\n      * \r\n      * @param _path            conversion path, see conversion path format in the BancorNetwork contract\r\n      * @param _minReturn       if the conversion results in an amount smaller than the minimum return - it is cancelled, must be nonzero\r\n      * @param _conversionId    pre-determined unique (if non zero) id which refers to this transaction \r\n      * \r\n      * @return tokens issued in return\r\n    */\r\n    function completeXConversion2(\r\n        IERC20Token[] _path,\r\n        uint256 _minReturn,\r\n        uint256 _conversionId\r\n    )\r\n        public\r\n        returns (uint256)\r\n    {\r\n        IBancorX bancorX = IBancorX(addressOf(BANCOR_X));\r\n        IBancorNetwork bancorNetwork = IBancorNetwork(addressOf(BANCOR_NETWORK));\r\n\r\n        // verify that the first token in the path is BNT\r\n        require(_path[0] == addressOf(BNT_TOKEN));\r\n\r\n        // get conversion amount from BancorX contract\r\n        uint256 amount = bancorX.getXTransferAmount(_conversionId, msg.sender);\r\n\r\n        // send BNT from msg.sender to the BancorNetwork contract\r\n        token.destroy(msg.sender, amount);\r\n        token.issue(bancorNetwork, amount);\r\n\r\n        return bancorNetwork.convertFor2(_path, amount, _minReturn, msg.sender, address(0), 0);\r\n    }\r\n\r\n    /**\r\n      * @dev ensures transfer of tokens, taking into account that some ERC-20 implementations don't return\r\n      * true on success but revert on failure instead\r\n      * \r\n      * @param _token     the token to transfer\r\n      * @param _from      the address to transfer the tokens from\r\n      * @param _to        the address to transfer the tokens to\r\n      * @param _amount    the amount to transfer\r\n    */\r\n    function ensureTransferFrom(IERC20Token _token, address _from, address _to, uint256 _amount) private {\r\n        // We must assume that functions `transfer` and `transferFrom` do not return anything,\r\n        // because not all tokens abide the requirement of the ERC20 standard to return success or failure.\r\n        // This is because in the current compiler version, the calling contract can handle more returned data than expected but not less.\r\n        // This may change in the future, so that the calling contract will revert if the size of the data is not exactly what it expects.\r\n        uint256 prevBalance = _token.balanceOf(_to);\r\n        if (_from == address(this))\r\n            INonStandardERC20(_token).transfer(_to, _amount);\r\n        else\r\n            INonStandardERC20(_token).transferFrom(_from, _to, _amount);\r\n        uint256 postBalance = _token.balanceOf(_to);\r\n        require(postBalance > prevBalance);\r\n    }\r\n\r\n    /**\r\n      * @dev buys the token with all reserve tokens using the same percentage\r\n      * for example, if the caller increases the supply by 10%,\r\n      * then it will cost an amount equal to 10% of each reserve token balance\r\n      * note that the function can be called only when conversions are enabled\r\n      * \r\n      * @param _amount  amount to increase the supply by (in the smart token)\r\n    */\r\n    function fund(uint256 _amount)\r\n        public\r\n        protected\r\n        multipleReservesOnly\r\n    {\r\n        uint256 supply = token.totalSupply();\r\n        IBancorFormula formula = IBancorFormula(addressOf(BANCOR_FORMULA));\r\n\r\n        // iterate through the reserve tokens and transfer a percentage equal to the ratio between _amount\r\n        // and the total supply in each reserve from the caller to the converter\r\n        IERC20Token reserveToken;\r\n        uint256 reserveBalance;\r\n        uint256 reserveAmount;\r\n        for (uint16 i = 0; i < reserveTokens.length; i++) {\r\n            reserveToken = reserveTokens[i];\r\n            reserveBalance = reserveToken.balanceOf(this);\r\n            reserveAmount = formula.calculateFundCost(supply, reserveBalance, totalReserveRatio, _amount);\r\n\r\n            Reserve storage reserve = reserves[reserveToken];\r\n\r\n            // transfer funds from the caller in the reserve token\r\n            ensureTransferFrom(reserveToken, msg.sender, this, reserveAmount);\r\n\r\n            // dispatch price data update for the smart token/reserve\r\n            emit PriceDataUpdate(reserveToken, supply + _amount, reserveBalance + reserveAmount, reserve.ratio);\r\n        }\r\n\r\n        // issue new funds to the caller in the smart token\r\n        token.issue(msg.sender, _amount);\r\n    }\r\n\r\n    /**\r\n      * @dev sells the token for all reserve tokens using the same percentage\r\n      * for example, if the holder sells 10% of the supply,\r\n      * then they will receive 10% of each reserve token balance in return\r\n      * note that the function can be called also when conversions are disabled\r\n      * \r\n      * @param _amount  amount to liquidate (in the smart token)\r\n    */\r\n    function liquidate(uint256 _amount)\r\n        public\r\n        protected\r\n        multipleReservesOnly\r\n    {\r\n        uint256 supply = token.totalSupply();\r\n        IBancorFormula formula = IBancorFormula(addressOf(BANCOR_FORMULA));\r\n\r\n        // destroy _amount from the caller's balance in the smart token\r\n        token.destroy(msg.sender, _amount);\r\n\r\n        // iterate through the reserve tokens and send a percentage equal to the ratio between _amount\r\n        // and the total supply from each reserve balance to the caller\r\n        IERC20Token reserveToken;\r\n        uint256 reserveBalance;\r\n        uint256 reserveAmount;\r\n        for (uint16 i = 0; i < reserveTokens.length; i++) {\r\n            reserveToken = reserveTokens[i];\r\n            reserveBalance = reserveToken.balanceOf(this);\r\n            reserveAmount = formula.calculateLiquidateReturn(supply, reserveBalance, totalReserveRatio, _amount);\r\n\r\n            Reserve storage reserve = reserves[reserveToken];\r\n\r\n            // transfer funds to the caller in the reserve token\r\n            ensureTransferFrom(reserveToken, this, msg.sender, reserveAmount);\r\n\r\n            // dispatch price data update for the smart token/reserve\r\n            emit PriceDataUpdate(reserveToken, supply - _amount, reserveBalance - reserveAmount, reserve.ratio);\r\n        }\r\n    }\r\n\r\n    /**\r\n      * @dev helper, dispatches the Conversion event\r\n      * \r\n      * @param _fromToken       ERC20 token to convert from\r\n      * @param _toToken         ERC20 token to convert to\r\n      * @param _amount          amount purchased/sold (in the source token)\r\n      * @param _returnAmount    amount returned (in the target token)\r\n    */\r\n    function dispatchConversionEvent(IERC20Token _fromToken, IERC20Token _toToken, uint256 _amount, uint256 _returnAmount, uint256 _feeAmount) private {\r\n        // fee amount is converted to 255 bits -\r\n        // negative amount means the fee is taken from the source token, positive amount means its taken from the target token\r\n        // currently the fee is always taken from the target token\r\n        // since we convert it to a signed number, we first ensure that it's capped at 255 bits to prevent overflow\r\n        assert(_feeAmount < 2 ** 255);\r\n        emit Conversion(_fromToken, _toToken, msg.sender, _amount, _returnAmount, int256(_feeAmount));\r\n    }\r\n\r\n    /**\r\n      * @dev deprecated, backward compatibility\r\n    */\r\n    function change(IERC20Token _fromToken, IERC20Token _toToken, uint256 _amount, uint256 _minReturn) public returns (uint256) {\r\n        return convertInternal(_fromToken, _toToken, _amount, _minReturn);\r\n    }\r\n\r\n    /**\r\n      * @dev deprecated, backward compatibility\r\n    */\r\n    function convert(IERC20Token _fromToken, IERC20Token _toToken, uint256 _amount, uint256 _minReturn) public returns (uint256) {\r\n        return convert2(_fromToken, _toToken, _amount, _minReturn, address(0), 0);\r\n    }\r\n\r\n    /**\r\n      * @dev deprecated, backward compatibility\r\n    */\r\n    function quickConvert(IERC20Token[] _path, uint256 _amount, uint256 _minReturn) public payable returns (uint256) {\r\n        return quickConvert2(_path, _amount, _minReturn, address(0), 0);\r\n    }\r\n\r\n    /**\r\n      * @dev deprecated, backward compatibility\r\n    */\r\n    function quickConvertPrioritized2(IERC20Token[] _path, uint256 _amount, uint256 _minReturn, uint256[] memory, address _affiliateAccount, uint256 _affiliateFee) public payable returns (uint256) {\r\n        return quickConvert2(_path, _amount, _minReturn, _affiliateAccount, _affiliateFee);\r\n    }\r\n\r\n    /**\r\n      * @dev deprecated, backward compatibility\r\n    */\r\n    function quickConvertPrioritized(IERC20Token[] _path, uint256 _amount, uint256 _minReturn, uint256, uint8, bytes32, bytes32) public payable returns (uint256) {\r\n        return quickConvert2(_path, _amount, _minReturn, address(0), 0);\r\n    }\r\n\r\n    /**\r\n      * @dev deprecated, backward compatibility\r\n    */\r\n    function completeXConversion(IERC20Token[] _path, uint256 _minReturn, uint256 _conversionId, uint256, uint8, bytes32, bytes32) public returns (uint256) {\r\n        return completeXConversion2(_path, _minReturn, _conversionId);\r\n    }\r\n\r\n    /**\r\n      * @dev deprecated, backward compatibility\r\n    */\r\n    function connectors(address _address) public view returns (uint256, uint32, bool, bool, bool) {\r\n        Reserve storage reserve = reserves[_address];\r\n        return(reserve.virtualBalance, reserve.ratio, reserve.isVirtualBalanceEnabled, reserve.isSaleEnabled, reserve.isSet);\r\n    }\r\n\r\n    /**\r\n      * @dev deprecated, backward compatibility\r\n    */\r\n    function connectorTokens(uint256 _index) public view returns (IERC20Token) {\r\n        return BancorConverter.reserveTokens[_index];\r\n    }\r\n\r\n    /**\r\n      * @dev deprecated, backward compatibility\r\n    */\r\n    function connectorTokenCount() public view returns (uint16) {\r\n        return reserveTokenCount();\r\n    }\r\n\r\n    /**\r\n      * @dev deprecated, backward compatibility\r\n    */\r\n    function addConnector(IERC20Token _token, uint32 _weight, bool /*_enableVirtualBalance*/) public {\r\n        addReserve(_token, _weight);\r\n    }\r\n\r\n    /**\r\n      * @dev deprecated, backward compatibility\r\n    */\r\n    function updateConnector(IERC20Token _connectorToken, uint32 /*_weight*/, bool /*_enableVirtualBalance*/, uint256 _virtualBalance) public {\r\n        updateReserveVirtualBalance(_connectorToken, _virtualBalance);\r\n    }\r\n\r\n    /**\r\n      * @dev deprecated, backward compatibility\r\n    */\r\n    function getConnectorBalance(IERC20Token _connectorToken) public view returns (uint256) {\r\n        return getReserveBalance(_connectorToken);\r\n    }\r\n\r\n    /**\r\n      * @dev deprecated, backward compatibility\r\n    */\r\n    function getCrossConnectorReturn(IERC20Token _fromConnectorToken, IERC20Token _toConnectorToken, uint256 _amount) public view returns (uint256, uint256) {\r\n        return getCrossReserveReturn(_fromConnectorToken, _toConnectorToken, _amount);\r\n    }\r\n}\r\n",
  "sourcePath": "/home/safu/minddeft/jointerInc/bancorTry/temp/contracts/solidity/contracts/converter/BancorConverter.sol",
  "compiler": {
    "name": "solc",
    "version": "0.4.26+commit.4563c3fc.Emscripten.clang"
  },
  "schemaVersion": "3.1.0",
  "updatedAt": "2020-06-10T14:32:18.594Z",
  "devdoc": {
    "methods": {
      "acceptOwnership()": {
        "details": "used by a new owner to accept an ownership transfer\r"
      },
      "acceptTokenOwnership()": {
        "details": "used by a new owner to accept a token ownership transfer\r can only be called by the contract owner\r note that token ownership can only be accepted if its total-supply is greater than zero\r"
      },
      "addConnector(address,uint32,bool)": {
        "details": "deprecated, backward compatibility\r"
      },
      "addReserve(address,uint32)": {
        "details": "defines a new reserve for the token\r can only be called by the owner while the converter is inactive\r note that prior to version 17, you should use 'addConnector' instead\r \r",
        "params": {
          "_ratio": "constant reserve ratio, represented in ppm, 1-1000000\r",
          "_token": "address of the reserve token\r"
        }
      },
      "change(address,address,uint256,uint256)": {
        "details": "deprecated, backward compatibility\r"
      },
      "claimTokens(address,uint256)": {
        "details": "allows the associated BancorX contract to claim tokens from any address (so that users\r dont have to first give allowance when calling BancorX)\r \r",
        "params": {
          "_amount": "the amount of tokens to claim\r",
          "_from": "address to claim the tokens from\r"
        }
      },
      "completeXConversion(address[],uint256,uint256,uint256,uint8,bytes32,bytes32)": {
        "details": "deprecated, backward compatibility\r"
      },
      "completeXConversion2(address[],uint256,uint256)": {
        "details": "allows a user to convert BNT that was sent from another blockchain into any other\r token on the BancorNetwork without specifying the amount of BNT to be converted, but\r rather by providing the xTransferId which allows us to get the amount from BancorX.\r note that prior to version 16, you should use 'completeXConversion' instead\r \r",
        "params": {
          "_conversionId": "pre-determined unique (if non zero) id which refers to this transaction \r \r",
          "_minReturn": "if the conversion results in an amount smaller than the minimum return - it is cancelled, must be nonzero\r",
          "_path": "conversion path, see conversion path format in the BancorNetwork contract\r"
        },
        "return": "tokens issued in return\r"
      },
      "connectorTokenCount()": {
        "details": "deprecated, backward compatibility\r"
      },
      "connectorTokens(uint256)": {
        "details": "deprecated, backward compatibility\r"
      },
      "connectors(address)": {
        "details": "deprecated, backward compatibility\r"
      },
      "convert(address,address,uint256,uint256)": {
        "details": "deprecated, backward compatibility\r"
      },
      "convert2(address,address,uint256,uint256,address,uint256)": {
        "details": "converts a specific amount of _fromToken to _toToken\r note that prior to version 16, you should use 'convert' instead\r \r",
        "params": {
          "_affiliateAccount": "affiliate account\r",
          "_affiliateFee": "affiliate fee in PPM\r \r",
          "_amount": "amount to convert, in fromToken\r",
          "_fromToken": "ERC20 token to convert from\r",
          "_minReturn": "if the conversion results in an amount smaller than the minimum return - it is cancelled, must be nonzero\r",
          "_toToken": "ERC20 token to convert to\r"
        },
        "return": "conversion return amount\r"
      },
      "convertInternal(address,address,uint256,uint256)": {
        "details": "converts a specific amount of _fromToken to _toToken\r can only be called by the bancor network contract\r \r",
        "params": {
          "_amount": "amount to convert, in fromToken\r",
          "_fromToken": "ERC20 token to convert from\r",
          "_minReturn": "if the conversion results in an amount smaller than the minimum return - it is cancelled, must be nonzero\r \r",
          "_toToken": "ERC20 token to convert to\r"
        },
        "return": "conversion return amount\r"
      },
      "fund(uint256)": {
        "details": "buys the token with all reserve tokens using the same percentage\r for example, if the caller increases the supply by 10%,\r then it will cost an amount equal to 10% of each reserve token balance\r note that the function can be called only when conversions are enabled\r \r",
        "params": {
          "_amount": "amount to increase the supply by (in the smart token)\r"
        }
      },
      "getConnectorBalance(address)": {
        "details": "deprecated, backward compatibility\r"
      },
      "getCrossConnectorReturn(address,address,uint256)": {
        "details": "deprecated, backward compatibility\r"
      },
      "getCrossReserveReturn(address,address,uint256)": {
        "details": "calculates the expected return of converting a given amount from one reserve to another\r note that prior to version 17, you should use 'getCrossConnectorReturn' instead\r \r",
        "params": {
          "_amount": "amount of tokens received from the user\r \r",
          "_fromReserveToken": "contract address of the reserve token to convert from\r",
          "_toReserveToken": "contract address of the reserve token to convert to\r"
        },
        "return": "amount of tokens that the user will receive\ramount of tokens that the user will pay as fee\r"
      },
      "getFinalAmount(uint256,uint8)": {
        "details": "given a return amount, returns the amount minus the conversion fee\r \r",
        "params": {
          "_amount": "return amount\r",
          "_magnitude": "1 for standard conversion, 2 for cross reserve conversion\r \r"
        },
        "return": "return amount minus conversion fee\r"
      },
      "getPurchaseReturn(address,uint256)": {
        "details": "calculates the expected return of buying with a given amount of tokens\r \r",
        "params": {
          "_depositAmount": "amount of reserve-tokens received from the user\r \r",
          "_reserveToken": "contract address of the reserve token\r"
        },
        "return": "amount of supply-tokens that the user will receive\ramount of supply-tokens that the user will pay as fee\r"
      },
      "getReserveBalance(address)": {
        "details": "returns the reserve's balance\r note that prior to version 17, you should use 'getConnectorBalance' instead\r \r",
        "params": {
          "_reserveToken": "reserve token contract address\r \r"
        },
        "return": "reserve balance\r"
      },
      "getReserveRatio(address)": {
        "details": "returns the reserve's ratio\r added in version 22\r \r",
        "params": {
          "_reserveToken": "reserve token contract address\r \r"
        },
        "return": "reserve ratio\r"
      },
      "getReturn(address,address,uint256)": {
        "details": "calculates the expected return of converting a given amount of tokens\r \r",
        "params": {
          "_amount": "amount of tokens received from the user\r \r",
          "_fromToken": "contract address of the token to convert from\r",
          "_toToken": "contract address of the token to convert to\r"
        },
        "return": "amount of tokens that the user will receive\ramount of tokens that the user will pay as fee\r"
      },
      "getSaleReturn(address,uint256)": {
        "details": "calculates the expected return of selling a given amount of tokens\r \r",
        "params": {
          "_reserveToken": "contract address of the reserve token\r",
          "_sellAmount": "amount of supply-tokens received from the user\r \r"
        },
        "return": "amount of reserve-tokens that the user will receive\ramount of reserve-tokens that the user will pay as fee\r"
      },
      "liquidate(uint256)": {
        "details": "sells the token for all reserve tokens using the same percentage\r for example, if the holder sells 10% of the supply,\r then they will receive 10% of each reserve token balance in return\r note that the function can be called also when conversions are disabled\r \r",
        "params": {
          "_amount": "amount to liquidate (in the smart token)\r"
        }
      },
      "quickConvert(address[],uint256,uint256)": {
        "details": "deprecated, backward compatibility\r"
      },
      "quickConvert2(address[],uint256,uint256,address,uint256)": {
        "details": "converts the token to any other token in the bancor network by following a predefined conversion path\r note that when converting from an ERC20 token (as opposed to a smart token), allowance must be set beforehand\r note that prior to version 16, you should use 'quickConvert' instead\r \r",
        "params": {
          "_affiliateAccount": "affiliate account\r",
          "_affiliateFee": "affiliate fee in PPM\r \r",
          "_amount": "amount to convert from (in the initial source token)\r",
          "_minReturn": "if the conversion results in an amount smaller than the minimum return - it is cancelled, must be nonzero\r",
          "_path": "conversion path, see conversion path format in the BancorNetwork contract\r"
        },
        "return": "tokens issued in return\r"
      },
      "quickConvertPrioritized(address[],uint256,uint256,uint256,uint8,bytes32,bytes32)": {
        "details": "deprecated, backward compatibility\r"
      },
      "quickConvertPrioritized2(address[],uint256,uint256,uint256[],address,uint256)": {
        "details": "deprecated, backward compatibility\r"
      },
      "reserveTokenCount()": {
        "details": "returns the number of reserve tokens defined\r note that prior to version 17, you should use 'connectorTokenCount' instead\r \r",
        "return": "number of reserve tokens\r"
      },
      "restoreRegistry()": {
        "details": "restores the previous contract-registry\r"
      },
      "restrictRegistryUpdate(bool)": {
        "details": "restricts the permission to update the contract-registry\r \r",
        "params": {
          "_onlyOwnerCanUpdateRegistry": "indicates whether or not permission is restricted to owner only\r"
        }
      },
      "setBancorX(address)": {
        "details": "allows the owner to set the associated BancorX contract\r",
        "params": {
          "_bancorX": "BancorX contract\r"
        }
      },
      "setConversionFee(uint32)": {
        "details": "updates the current conversion fee\r can only be called by the contract owner\r \r",
        "params": {
          "_conversionFee": "new conversion fee, represented in ppm\r"
        }
      },
      "setConversionWhitelist(address)": {
        "details": "allows the owner to update & enable the conversion whitelist contract address\r when set, only addresses that are whitelisted are actually allowed to use the converter\r note that the whitelist check is actually done by the BancorNetwork contract\r \r",
        "params": {
          "_whitelist": "address of a whitelist contract\r"
        }
      },
      "transferOwnership(address)": {
        "details": "allows transferring the contract ownership\r the new owner still needs to accept the transfer\r can only be called by the contract owner\r \r",
        "params": {
          "_newOwner": "new contract owner\r"
        }
      },
      "transferTokenOwnership(address)": {
        "details": "allows transferring the token ownership\r the new owner needs to accept the transfer\r can only be called by the contract owner\r note that token ownership can only be transferred while the owner is the converter upgrader contract\r \r",
        "params": {
          "_newOwner": "new token owner\r"
        }
      },
      "updateConnector(address,uint32,bool,uint256)": {
        "details": "deprecated, backward compatibility\r"
      },
      "updateRegistry()": {
        "details": "updates to the new contract-registry\r"
      },
      "updateReserveVirtualBalance(address,uint256)": {
        "details": "updates a reserve's virtual balance\r only used during an upgrade process\r can only be called by the contract owner while the owner is the converter upgrader contract\r note that prior to version 17, you should use 'updateConnector' instead\r \r",
        "params": {
          "_reserveToken": "address of the reserve token\r",
          "_virtualBalance": "new reserve virtual balance, or 0 to disable virtual balance\r"
        }
      },
      "upgrade()": {
        "details": "upgrades the converter to the latest version\r can only be called by the owner\r note that the owner needs to call acceptOwnership on the new converter after the upgrade\r"
      },
      "withdrawFromToken(address,address,uint256)": {
        "details": "withdraws tokens held by the controller and sends them to an account\r can only be called by the owner\r \r",
        "params": {
          "_amount": "amount to withdraw\r",
          "_to": "account to receive the new amount\r",
          "_token": "ERC20 token contract address\r"
        }
      },
      "withdrawTokens(address,address,uint256)": {
        "details": "withdraws tokens held by the converter and sends them to an account\r can only be called by the owner\r note that reserve tokens can only be withdrawn by the owner while the converter is inactive\r unless the owner is the converter upgrader contract\r \r",
        "params": {
          "_amount": "amount to withdraw\r",
          "_to": "account to receive the new amount\r",
          "_token": "ERC20 token contract address\r"
        }
      }
    }
  },
  "userdoc": {
    "methods": {}
  }
}