{
  "contractName": "BancorNetwork",
  "abi": [
    {
      "constant": false,
      "inputs": [
        {
          "name": "_onlyOwnerCanUpdateRegistry",
          "type": "bool"
        }
      ],
      "name": "restrictRegistryUpdate",
      "outputs": [],
      "payable": false,
      "stateMutability": "nonpayable",
      "type": "function"
    },
    {
      "constant": true,
      "inputs": [],
      "name": "onlyOwnerCanUpdateRegistry",
      "outputs": [
        {
          "name": "",
          "type": "bool"
        }
      ],
      "payable": false,
      "stateMutability": "view",
      "type": "function"
    },
    {
      "constant": false,
      "inputs": [],
      "name": "updateRegistry",
      "outputs": [],
      "payable": false,
      "stateMutability": "nonpayable",
      "type": "function"
    },
    {
      "constant": true,
      "inputs": [],
      "name": "maxAffiliateFee",
      "outputs": [
        {
          "name": "",
          "type": "uint256"
        }
      ],
      "payable": false,
      "stateMutability": "view",
      "type": "function"
    },
    {
      "constant": false,
      "inputs": [
        {
          "name": "_token",
          "type": "address"
        },
        {
          "name": "_to",
          "type": "address"
        },
        {
          "name": "_amount",
          "type": "uint256"
        }
      ],
      "name": "withdrawTokens",
      "outputs": [],
      "payable": false,
      "stateMutability": "nonpayable",
      "type": "function"
    },
    {
      "constant": true,
      "inputs": [],
      "name": "prevRegistry",
      "outputs": [
        {
          "name": "",
          "type": "address"
        }
      ],
      "payable": false,
      "stateMutability": "view",
      "type": "function"
    },
    {
      "constant": false,
      "inputs": [],
      "name": "acceptOwnership",
      "outputs": [],
      "payable": false,
      "stateMutability": "nonpayable",
      "type": "function"
    },
    {
      "constant": true,
      "inputs": [],
      "name": "registry",
      "outputs": [
        {
          "name": "",
          "type": "address"
        }
      ],
      "payable": false,
      "stateMutability": "view",
      "type": "function"
    },
    {
      "constant": true,
      "inputs": [
        {
          "name": "",
          "type": "address"
        }
      ],
      "name": "etherTokens",
      "outputs": [
        {
          "name": "",
          "type": "bool"
        }
      ],
      "payable": false,
      "stateMutability": "view",
      "type": "function"
    },
    {
      "constant": true,
      "inputs": [
        {
          "name": "",
          "type": "bytes32"
        }
      ],
      "name": "conversionHashes",
      "outputs": [
        {
          "name": "",
          "type": "bool"
        }
      ],
      "payable": false,
      "stateMutability": "view",
      "type": "function"
    },
    {
      "constant": true,
      "inputs": [],
      "name": "owner",
      "outputs": [
        {
          "name": "",
          "type": "address"
        }
      ],
      "payable": false,
      "stateMutability": "view",
      "type": "function"
    },
    {
      "constant": true,
      "inputs": [],
      "name": "CONVERTER_CONVERSION_WHITELIST",
      "outputs": [
        {
          "name": "",
          "type": "uint256"
        }
      ],
      "payable": false,
      "stateMutability": "view",
      "type": "function"
    },
    {
      "constant": false,
      "inputs": [],
      "name": "restoreRegistry",
      "outputs": [],
      "payable": false,
      "stateMutability": "nonpayable",
      "type": "function"
    },
    {
      "constant": true,
      "inputs": [],
      "name": "newOwner",
      "outputs": [
        {
          "name": "",
          "type": "address"
        }
      ],
      "payable": false,
      "stateMutability": "view",
      "type": "function"
    },
    {
      "constant": false,
      "inputs": [
        {
          "name": "_newOwner",
          "type": "address"
        }
      ],
      "name": "transferOwnership",
      "outputs": [],
      "payable": false,
      "stateMutability": "nonpayable",
      "type": "function"
    },
    {
      "inputs": [
        {
          "name": "_registry",
          "type": "address"
        }
      ],
      "payable": false,
      "stateMutability": "nonpayable",
      "type": "constructor"
    },
    {
      "anonymous": false,
      "inputs": [
        {
          "indexed": true,
          "name": "_smartToken",
          "type": "address"
        },
        {
          "indexed": true,
          "name": "_fromToken",
          "type": "address"
        },
        {
          "indexed": true,
          "name": "_toToken",
          "type": "address"
        },
        {
          "indexed": false,
          "name": "_fromAmount",
          "type": "uint256"
        },
        {
          "indexed": false,
          "name": "_toAmount",
          "type": "uint256"
        },
        {
          "indexed": false,
          "name": "_trader",
          "type": "address"
        }
      ],
      "name": "Conversion",
      "type": "event"
    },
    {
      "anonymous": false,
      "inputs": [
        {
          "indexed": true,
          "name": "_prevOwner",
          "type": "address"
        },
        {
          "indexed": true,
          "name": "_newOwner",
          "type": "address"
        }
      ],
      "name": "OwnerUpdate",
      "type": "event"
    },
    {
      "constant": false,
      "inputs": [
        {
          "name": "_maxAffiliateFee",
          "type": "uint256"
        }
      ],
      "name": "setMaxAffiliateFee",
      "outputs": [],
      "payable": false,
      "stateMutability": "nonpayable",
      "type": "function"
    },
    {
      "constant": false,
      "inputs": [
        {
          "name": "_token",
          "type": "address"
        },
        {
          "name": "_register",
          "type": "bool"
        }
      ],
      "name": "registerEtherToken",
      "outputs": [],
      "payable": false,
      "stateMutability": "nonpayable",
      "type": "function"
    },
    {
      "constant": false,
      "inputs": [
        {
          "name": "_path",
          "type": "address[]"
        },
        {
          "name": "_amount",
          "type": "uint256"
        },
        {
          "name": "_minReturn",
          "type": "uint256"
        },
        {
          "name": "_for",
          "type": "address"
        },
        {
          "name": "_affiliateAccount",
          "type": "address"
        },
        {
          "name": "_affiliateFee",
          "type": "uint256"
        }
      ],
      "name": "convertFor2",
      "outputs": [
        {
          "name": "",
          "type": "uint256"
        }
      ],
      "payable": true,
      "stateMutability": "payable",
      "type": "function"
    },
    {
      "constant": false,
      "inputs": [
        {
          "name": "_path",
          "type": "address[]"
        },
        {
          "name": "_amount",
          "type": "uint256"
        },
        {
          "name": "_minReturn",
          "type": "uint256"
        },
        {
          "name": "_toBlockchain",
          "type": "bytes32"
        },
        {
          "name": "_to",
          "type": "bytes32"
        },
        {
          "name": "_conversionId",
          "type": "uint256"
        },
        {
          "name": "_affiliateAccount",
          "type": "address"
        },
        {
          "name": "_affiliateFee",
          "type": "uint256"
        }
      ],
      "name": "xConvert2",
      "outputs": [
        {
          "name": "",
          "type": "uint256"
        }
      ],
      "payable": true,
      "stateMutability": "payable",
      "type": "function"
    },
    {
      "constant": true,
      "inputs": [
        {
          "name": "_path",
          "type": "address[]"
        },
        {
          "name": "_amount",
          "type": "uint256"
        }
      ],
      "name": "getReturnByPath",
      "outputs": [
        {
          "name": "",
          "type": "uint256"
        },
        {
          "name": "",
          "type": "uint256"
        }
      ],
      "payable": false,
      "stateMutability": "view",
      "type": "function"
    },
    {
      "constant": false,
      "inputs": [
        {
          "name": "_path",
          "type": "address[]"
        },
        {
          "name": "_amount",
          "type": "uint256"
        },
        {
          "name": "_minReturn",
          "type": "uint256"
        },
        {
          "name": "_for",
          "type": "address"
        },
        {
          "name": "_affiliateAccount",
          "type": "address"
        },
        {
          "name": "_affiliateFee",
          "type": "uint256"
        }
      ],
      "name": "claimAndConvertFor2",
      "outputs": [
        {
          "name": "",
          "type": "uint256"
        }
      ],
      "payable": false,
      "stateMutability": "nonpayable",
      "type": "function"
    },
    {
      "constant": false,
      "inputs": [
        {
          "name": "_path",
          "type": "address[]"
        },
        {
          "name": "_amount",
          "type": "uint256"
        },
        {
          "name": "_minReturn",
          "type": "uint256"
        },
        {
          "name": "_affiliateAccount",
          "type": "address"
        },
        {
          "name": "_affiliateFee",
          "type": "uint256"
        }
      ],
      "name": "convert2",
      "outputs": [
        {
          "name": "",
          "type": "uint256"
        }
      ],
      "payable": true,
      "stateMutability": "payable",
      "type": "function"
    },
    {
      "constant": false,
      "inputs": [
        {
          "name": "_path",
          "type": "address[]"
        },
        {
          "name": "_amount",
          "type": "uint256"
        },
        {
          "name": "_minReturn",
          "type": "uint256"
        },
        {
          "name": "_affiliateAccount",
          "type": "address"
        },
        {
          "name": "_affiliateFee",
          "type": "uint256"
        }
      ],
      "name": "claimAndConvert2",
      "outputs": [
        {
          "name": "",
          "type": "uint256"
        }
      ],
      "payable": false,
      "stateMutability": "nonpayable",
      "type": "function"
    },
    {
      "constant": false,
      "inputs": [
        {
          "name": "_path",
          "type": "address[]"
        },
        {
          "name": "_amount",
          "type": "uint256"
        },
        {
          "name": "_minReturn",
          "type": "uint256"
        }
      ],
      "name": "convert",
      "outputs": [
        {
          "name": "",
          "type": "uint256"
        }
      ],
      "payable": true,
      "stateMutability": "payable",
      "type": "function"
    },
    {
      "constant": false,
      "inputs": [
        {
          "name": "_path",
          "type": "address[]"
        },
        {
          "name": "_amount",
          "type": "uint256"
        },
        {
          "name": "_minReturn",
          "type": "uint256"
        }
      ],
      "name": "claimAndConvert",
      "outputs": [
        {
          "name": "",
          "type": "uint256"
        }
      ],
      "payable": false,
      "stateMutability": "nonpayable",
      "type": "function"
    },
    {
      "constant": false,
      "inputs": [
        {
          "name": "_path",
          "type": "address[]"
        },
        {
          "name": "_amount",
          "type": "uint256"
        },
        {
          "name": "_minReturn",
          "type": "uint256"
        },
        {
          "name": "_for",
          "type": "address"
        }
      ],
      "name": "convertFor",
      "outputs": [
        {
          "name": "",
          "type": "uint256"
        }
      ],
      "payable": true,
      "stateMutability": "payable",
      "type": "function"
    },
    {
      "constant": false,
      "inputs": [
        {
          "name": "_path",
          "type": "address[]"
        },
        {
          "name": "_amount",
          "type": "uint256"
        },
        {
          "name": "_minReturn",
          "type": "uint256"
        },
        {
          "name": "_for",
          "type": "address"
        }
      ],
      "name": "claimAndConvertFor",
      "outputs": [
        {
          "name": "",
          "type": "uint256"
        }
      ],
      "payable": false,
      "stateMutability": "nonpayable",
      "type": "function"
    },
    {
      "constant": false,
      "inputs": [
        {
          "name": "_path",
          "type": "address[]"
        },
        {
          "name": "_amount",
          "type": "uint256"
        },
        {
          "name": "_minReturn",
          "type": "uint256"
        },
        {
          "name": "_toBlockchain",
          "type": "bytes32"
        },
        {
          "name": "_to",
          "type": "bytes32"
        },
        {
          "name": "_conversionId",
          "type": "uint256"
        }
      ],
      "name": "xConvert",
      "outputs": [
        {
          "name": "",
          "type": "uint256"
        }
      ],
      "payable": true,
      "stateMutability": "payable",
      "type": "function"
    },
    {
      "constant": false,
      "inputs": [
        {
          "name": "_path",
          "type": "address[]"
        },
        {
          "name": "_amount",
          "type": "uint256"
        },
        {
          "name": "_minReturn",
          "type": "uint256"
        },
        {
          "name": "_toBlockchain",
          "type": "bytes32"
        },
        {
          "name": "_to",
          "type": "bytes32"
        },
        {
          "name": "_conversionId",
          "type": "uint256"
        },
        {
          "name": "",
          "type": "uint256[]"
        },
        {
          "name": "_affiliateAccount",
          "type": "address"
        },
        {
          "name": "_affiliateFee",
          "type": "uint256"
        }
      ],
      "name": "xConvertPrioritized3",
      "outputs": [
        {
          "name": "",
          "type": "uint256"
        }
      ],
      "payable": true,
      "stateMutability": "payable",
      "type": "function"
    },
    {
      "constant": false,
      "inputs": [
        {
          "name": "_path",
          "type": "address[]"
        },
        {
          "name": "_amount",
          "type": "uint256"
        },
        {
          "name": "_minReturn",
          "type": "uint256"
        },
        {
          "name": "_toBlockchain",
          "type": "bytes32"
        },
        {
          "name": "_to",
          "type": "bytes32"
        },
        {
          "name": "_conversionId",
          "type": "uint256"
        },
        {
          "name": "",
          "type": "uint256[]"
        }
      ],
      "name": "xConvertPrioritized2",
      "outputs": [
        {
          "name": "",
          "type": "uint256"
        }
      ],
      "payable": true,
      "stateMutability": "payable",
      "type": "function"
    },
    {
      "constant": false,
      "inputs": [
        {
          "name": "_path",
          "type": "address[]"
        },
        {
          "name": "_amount",
          "type": "uint256"
        },
        {
          "name": "_minReturn",
          "type": "uint256"
        },
        {
          "name": "_toBlockchain",
          "type": "bytes32"
        },
        {
          "name": "_to",
          "type": "bytes32"
        },
        {
          "name": "_conversionId",
          "type": "uint256"
        },
        {
          "name": "",
          "type": "uint256"
        },
        {
          "name": "",
          "type": "uint8"
        },
        {
          "name": "",
          "type": "bytes32"
        },
        {
          "name": "",
          "type": "bytes32"
        }
      ],
      "name": "xConvertPrioritized",
      "outputs": [
        {
          "name": "",
          "type": "uint256"
        }
      ],
      "payable": true,
      "stateMutability": "payable",
      "type": "function"
    },
    {
      "constant": false,
      "inputs": [
        {
          "name": "_path",
          "type": "address[]"
        },
        {
          "name": "_amount",
          "type": "uint256"
        },
        {
          "name": "_minReturn",
          "type": "uint256"
        },
        {
          "name": "_for",
          "type": "address"
        },
        {
          "name": "",
          "type": "uint256[]"
        },
        {
          "name": "_affiliateAccount",
          "type": "address"
        },
        {
          "name": "_affiliateFee",
          "type": "uint256"
        }
      ],
      "name": "convertForPrioritized4",
      "outputs": [
        {
          "name": "",
          "type": "uint256"
        }
      ],
      "payable": true,
      "stateMutability": "payable",
      "type": "function"
    },
    {
      "constant": false,
      "inputs": [
        {
          "name": "_path",
          "type": "address[]"
        },
        {
          "name": "_amount",
          "type": "uint256"
        },
        {
          "name": "_minReturn",
          "type": "uint256"
        },
        {
          "name": "_for",
          "type": "address"
        },
        {
          "name": "",
          "type": "uint256"
        },
        {
          "name": "",
          "type": "uint256"
        },
        {
          "name": "",
          "type": "uint8"
        },
        {
          "name": "",
          "type": "bytes32"
        },
        {
          "name": "",
          "type": "bytes32"
        }
      ],
      "name": "convertForPrioritized3",
      "outputs": [
        {
          "name": "",
          "type": "uint256"
        }
      ],
      "payable": true,
      "stateMutability": "payable",
      "type": "function"
    },
    {
      "constant": false,
      "inputs": [
        {
          "name": "_path",
          "type": "address[]"
        },
        {
          "name": "_amount",
          "type": "uint256"
        },
        {
          "name": "_minReturn",
          "type": "uint256"
        },
        {
          "name": "_for",
          "type": "address"
        },
        {
          "name": "",
          "type": "uint256"
        },
        {
          "name": "",
          "type": "uint8"
        },
        {
          "name": "",
          "type": "bytes32"
        },
        {
          "name": "",
          "type": "bytes32"
        }
      ],
      "name": "convertForPrioritized2",
      "outputs": [
        {
          "name": "",
          "type": "uint256"
        }
      ],
      "payable": true,
      "stateMutability": "payable",
      "type": "function"
    },
    {
      "constant": false,
      "inputs": [
        {
          "name": "_path",
          "type": "address[]"
        },
        {
          "name": "_amount",
          "type": "uint256"
        },
        {
          "name": "_minReturn",
          "type": "uint256"
        },
        {
          "name": "_for",
          "type": "address"
        },
        {
          "name": "",
          "type": "uint256"
        },
        {
          "name": "",
          "type": "uint256"
        },
        {
          "name": "",
          "type": "uint8"
        },
        {
          "name": "",
          "type": "bytes32"
        },
        {
          "name": "",
          "type": "bytes32"
        }
      ],
      "name": "convertForPrioritized",
      "outputs": [
        {
          "name": "",
          "type": "uint256"
        }
      ],
      "payable": true,
      "stateMutability": "payable",
      "type": "function"
    }
  ],
  "bytecode": "0x608060405261753060045534801561001657600080fd5b50604051602080612c66833981016040525160008054600160a060020a031916331790558080600160a060020a038116151561005157600080fd5b5060028054600160a060020a03909216600160a060020a031992831681179091556003805490921617905550612bda8061008c6000396000f30060806040526004361061019d5763ffffffff60e060020a600035041663024c7ec781146101a257806302ef521e146101be5780630c8496cc146101e45780631134269a146102545780632978c10e146102e35780632fe8a6ad1461035a57806349d10b64146103835780634de006cb14610398578063569706eb146104445780635d732ff2146104a75780635e35359e146104bc57806361cd756e146104e65780636896b999146105175780636b08f2ef1461059257806379ba5097146106095780637b1039991461061e5780638077ccf71461063357806389e63a60146106545780638da5cb5b1461066c5780638dc566571461068157806392d1abb71461072f578063ab6214ce14610744578063b1e9932b146107ae578063b406d38614610254578063b4a176d314610819578063c52173de1461082e578063c7ba24bc1461088d578063c98fefed146108eb578063cb32564e14610949578063ce200963146109bd578063d4ee1d9014610a5a578063e57738e514610a6f578063f2fde38b14610adf578063f3898a9714610b00578063f3bc7d2a14610b51575b600080fd5b3480156101ae57600080fd5b506101bc6004351515610b69565b005b3480156101ca57600080fd5b506101bc600160a060020a03600435166024351515610bc0565b3480156101f057600080fd5b506040805160206004803580820135838102808601850190965280855261023b953695939460249493850192918291850190849080828437509497505093359450610c319350505050565b6040805192835260208301919091528051918290030190f35b604080516020600480358082013583810280860185019096528085526102d19536959394602494938501929182918501908490808284375094975050843595505050602083013592600160a060020a0360408201351692506060810135915060808101359060ff60a0820135169060c08101359060e00135611545565b60408051918252519081900360200190f35b3480156102ef57600080fd5b50604080516020600480358082013583810280860185019096528085526102d19536959394602494938501929182918501908490808284375094975050843595505050602083013592600160a060020a03604082013581169350606082013516915060800135611564565b34801561036657600080fd5b5061036f6115a8565b604080519115158252519081900360200190f35b34801561038f57600080fd5b506101bc6115c9565b604080516020600480358082013583810280860185019096528085526102d1953695939460249493850192918291850190849080828437505060408051602060608901358a01803582810280850184018652818552999c8b359c848d01359c96870135600160a060020a03169b919a5098506080909501965092945081019282918501908490808284375094975050508335600160a060020a0316945050506020909101359050611767565b604080516020600480358082013583810280860185019096528085526102d19536959394602494938501929182918501908490808284375094975050843595505050602083013592600160a060020a036040820135169250606001359050611777565b3480156104b357600080fd5b506102d1611791565b3480156104c857600080fd5b506101bc600160a060020a0360043581169060243516604435611797565b3480156104f257600080fd5b506104fb611874565b60408051600160a060020a039092168252519081900360200190f35b604080516020600480358082013583810280860185019096528085526102d19536959394602494938501929182918501908490808284375094975050843595505050602083013592604081013592506060810135915060808101359060a08101359060ff60c0820135169060e0810135906101000135611883565b604080516020600480358082013583810280860185019096528085526102d19536959394602494938501929182918501908490808284375094975050843595505050602083013592600160a060020a0360408201351692506060810135915060ff6080820135169060a08101359060c001356118a5565b34801561061557600080fd5b506101bc6118c3565b34801561062a57600080fd5b506104fb61194b565b34801561063f57600080fd5b5061036f600160a060020a036004351661195a565b34801561066057600080fd5b5061036f60043561196f565b34801561067857600080fd5b506104fb611984565b604080516020600480358082013583810280860185019096528085526102d195369593946024949385019291829185019084908082843750506040805160a088013589018035602081810284810182018652828552999c8b359c828d01359c968701359b60608801359b5060808801359a50919850965060c0909501949281019282918501908490808284375094975050508335600160a060020a0316945050506020909101359050611993565b34801561073b57600080fd5b506102d16119a5565b604080516020600480358082013583810280860185019096528085526102d19536959394602494938501929182918501908490808284375094975050843595505050602083013592600160a060020a036040820135811693506060820135169150608001356119aa565b3480156107ba57600080fd5b50604080516020600480358082013583810280860185019096528085526102d1953695939460249493850192918291850190849080828437509497505084359550505060208301359260400135600160a060020a03169150611b009050565b34801561082557600080fd5b506101bc611b1a565b604080516020600480358082013583810280860185019096528085526102d19536959394602494938501929182918501908490808284375094975050843595505050602083013592604081013592506060810135915060800135611b62565b34801561089957600080fd5b50604080516020600480358082013583810280860185019096528085526102d195369593946024949385019291829185019084908082843750949750508435955050506020909201359150611b809050565b604080516020600480358082013583810280860185019096528085526102d1953695939460249493850192918291850190849080828437509497505084359550505060208301359260400135600160a060020a03169150611b989050565b604080516020600480358082013583810280860185019096528085526102d195369593946024949385019291829185019084908082843750949750508435955050506020830135926040810135925060608101359150608081013590600160a060020a0360a0820135169060c00135611ba9565b604080516020600480358082013583810280860185019096528085526102d195369593946024949385019291829185019084908082843750506040805160a088013589018035602081810284810182018652828552999c8b359c828d01359c968701359b60608801359b5060808801359a50919850965060c09095019492810192829185019084908082843750949750611d379650505050505050565b348015610a6657600080fd5b506104fb611d4a565b348015610a7b57600080fd5b50604080516020600480358082013583810280860185019096528085526102d19536959394602494938501929182918501908490808284375094975050843595505050602083013592600160a060020a036040820135169250606001359050611d59565b348015610aeb57600080fd5b506101bc600160a060020a0360043516611d69565b604080516020600480358082013583810280860185019096528085526102d195369593946024949385019291829185019084908082843750949750508435955050506020909201359150611dca9050565b348015610b5d57600080fd5b506101bc600435611dda565b600054600160a060020a03163314610b8057600080fd5b60038054911515740100000000000000000000000000000000000000000274ff000000000000000000000000000000000000000019909216919091179055565b600054600160a060020a03163314610bd757600080fd5b81600160a060020a0381161515610bed57600080fd5b82600160a060020a038116301415610c0457600080fd5b5050600160a060020a03919091166000908152600560205260409020805460ff1916911515919091179055565b6000806000806000806000806000806000806000610c6e7f42616e636f72466f726d756c6100000000000000000000000000000000000000611e06565b94508d9a5060028f51118015610c8957508e51600290066001145b1515610c9457600080fd5b600293505b8e51841015611530578e60028503815181101515610cb357fe5b9060200190602002015192508e60018503815181101515610cd057fe5b9060200190602002015191508e84815181101515610cea57fe5b90602001906020020151905081600160a060020a031681600160a060020a031614156110d2576003841080610d4b57508e60038503815181101515610d2b57fe5b90602001906020020151600160a060020a031682600160a060020a031614155b15610e485781600160a060020a03166318160ddd6040518163ffffffff1660e060020a028152600401602060405180830381600087803b158015610d8e57600080fd5b505af1158015610da2573d6000803e3d6000fd5b505050506040513d6020811015610db857600080fd5b5051604080517f8da5cb5b0000000000000000000000000000000000000000000000000000000081529051919a50600160a060020a03841691638da5cb5b916004808201926020929091908290030181600087803b158015610e1957600080fd5b505af1158015610e2d573d6000803e3d6000fd5b505050506040513d6020811015610e4357600080fd5b505195505b85600160a060020a031663d8959512846040518263ffffffff1660e060020a0281526004018082600160a060020a0316600160a060020a03168152602001915050602060405180830381600087803b158015610ea357600080fd5b505af1158015610eb7573d6000803e3d6000fd5b505050506040513d6020811015610ecd57600080fd5b5051604080517f0e53aae9000000000000000000000000000000000000000000000000000000008152600160a060020a0386811660048301529151929a5090881691630e53aae99160248082019260a0929091908290030181600087803b158015610f3757600080fd5b505af1158015610f4b573d6000803e3d6000fd5b505050506040513d60a0811015610f6157600080fd5b50602090810151604080517f29a00e7c000000000000000000000000000000000000000000000000000000008152600481018d9052602481018c905263ffffffff83166044820152606481018f90529051919950600160a060020a038816926329a00e7c926084808401938290030181600087803b158015610fe257600080fd5b505af1158015610ff6573d6000803e3d6000fd5b505050506040513d602081101561100c57600080fd5b5051604080517f579cd3ca0000000000000000000000000000000000000000000000000000000081529051919c506110c291620f4240916110b691600160a060020a038b169163579cd3ca9160048083019260209291908290030181600087803b15801561107957600080fd5b505af115801561108d573d6000803e3d6000fd5b505050506040513d60208110156110a357600080fd5b50518e9063ffffffff90811690611e9e16565b9063ffffffff611ed716565b9a8b90039a9950978a0197611525565b81600160a060020a031683600160a060020a0316141561146657600384108061112757508e6003850381518110151561110757fe5b90602001906020020151600160a060020a031682600160a060020a031614155b156112245781600160a060020a03166318160ddd6040518163ffffffff1660e060020a028152600401602060405180830381600087803b15801561116a57600080fd5b505af115801561117e573d6000803e3d6000fd5b505050506040513d602081101561119457600080fd5b5051604080517f8da5cb5b0000000000000000000000000000000000000000000000000000000081529051919a50600160a060020a03841691638da5cb5b916004808201926020929091908290030181600087803b1580156111f557600080fd5b505af1158015611209573d6000803e3d6000fd5b505050506040513d602081101561121f57600080fd5b505195505b85600160a060020a031663d8959512826040518263ffffffff1660e060020a0281526004018082600160a060020a0316600160a060020a03168152602001915050602060405180830381600087803b15801561127f57600080fd5b505af1158015611293573d6000803e3d6000fd5b505050506040513d60208110156112a957600080fd5b5051604080517f0e53aae9000000000000000000000000000000000000000000000000000000008152600160a060020a0384811660048301529151929a5090881691630e53aae99160248082019260a0929091908290030181600087803b15801561131357600080fd5b505af1158015611327573d6000803e3d6000fd5b505050506040513d60a081101561133d57600080fd5b50602090810151604080517f49f9b0f7000000000000000000000000000000000000000000000000000000008152600481018d9052602481018c905263ffffffff83166044820152606481018f90529051919950600160a060020a038816926349f9b0f7926084808401938290030181600087803b1580156113be57600080fd5b505af11580156113d2573d6000803e3d6000fd5b505050506040513d60208110156113e857600080fd5b5051604080517f579cd3ca0000000000000000000000000000000000000000000000000000000081529051919c5061145591620f4240916110b691600160a060020a038b169163579cd3ca9160048083019260209291908290030181600087803b15801561107957600080fd5b9950898b039a508a89039850611525565b60038410806114a157508e6003850381518110151561148157fe5b90602001906020020151600160a060020a031682600160a060020a031614155b156115135781600160a060020a0316638da5cb5b6040518163ffffffff1660e060020a028152600401602060405180830381600087803b1580156114e457600080fd5b505af11580156114f8573d6000803e3d6000fd5b505050506040513d602081101561150e57600080fd5b505195505b61151f8684838e611efa565b909b5099505b600284019350610c99565b50989d979c50969a5050505050505050505050565b60006115568a8a8a8a6000806119aa565b9a9950505050505050505050565b60008087600081518110151561157657fe5b90602001906020020151905061158e8133308a612018565b61159c8888888888886119aa565b98975050505050505050565b60035474010000000000000000000000000000000000000000900460ff1681565b60008054600160a060020a03163314806115fe575060035474010000000000000000000000000000000000000000900460ff16155b151561160957600080fd5b6116327f436f6e7472616374526567697374727900000000000000000000000000000000611e06565b600254909150600160a060020a0380831691161480159061165b5750600160a060020a03811615155b151561166657600080fd5b604080517fbb34534c0000000000000000000000000000000000000000000000000000000081527f436f6e747261637452656769737472790000000000000000000000000000000060048201529051600091600160a060020a0384169163bb34534c9160248082019260209290919082900301818787803b1580156116ea57600080fd5b505af11580156116fe573d6000803e3d6000fd5b505050506040513d602081101561171457600080fd5b5051600160a060020a0316141561172a57600080fd5b6002805460038054600160a060020a0380841673ffffffffffffffffffffffffffffffffffffffff19928316179092559091169216919091179055565b600061159c8888888887876119aa565b60006117878686863387876119aa565b9695505050505050565b60045481565b600054600160a060020a031633146117ae57600080fd5b82600160a060020a03811615156117c457600080fd5b82600160a060020a03811615156117da57600080fd5b83600160a060020a0381163014156117f157600080fd5b85600160a060020a031663a9059cbb86866040518363ffffffff1660e060020a0281526004018083600160a060020a0316600160a060020a0316815260200182815260200192505050600060405180830381600087803b15801561185457600080fd5b505af1158015611868573d6000803e3d6000fd5b50505050505050505050565b600354600160a060020a031681565b60006118968b8b8b8b8b8b600080611ba9565b9b9a5050505050505050505050565b60006118b6898989896000806119aa565b9998505050505050505050565b600154600160a060020a031633146118da57600080fd5b60015460008054604051600160a060020a0393841693909116917f343765429aea5a34b3ff6a3785a98a5abb2597aca87bfbb58632c173d585373a91a3600180546000805473ffffffffffffffffffffffffffffffffffffffff19908116600160a060020a03841617909155169055565b600254600160a060020a031681565b60056020526000908152604090205460ff1681565b60066020526000908152604090205460ff1681565b600054600160a060020a031681565b60006115568a8a8a8a8a8a8989611ba9565b600181565b6000806000600289511180156119c257506015895111155b80156119d357508851600290066001145b15156119de57600080fd5b6119e8898761225e565b15156119f357600080fd5b611a17896000815181101515611a0557fe5b906020019060200201518960006124f0565b611a24898989888861259e565b91508860018a5103815181101515611a3857fe5b6020908102909101810151600160a060020a0381166000908152600590925260409091205490915060ff1615611ae85780600160a060020a031663205c287887846040518363ffffffff1660e060020a0281526004018083600160a060020a0316600160a060020a0316815260200182815260200192505050600060405180830381600087803b158015611acb57600080fd5b505af1158015611adf573d6000803e3d6000fd5b50505050611af4565b611af481308885612018565b50979650505050505050565b6000611b1185858585600080611564565b95945050505050565b600054600160a060020a03163314611b3157600080fd5b6003546002805473ffffffffffffffffffffffffffffffffffffffff1916600160a060020a03909216919091179055565b6000611b75878787878787600080611ba9565b979650505050505050565b6000611b90848484600080611d59565b949350505050565b6000611b11858585856000806119aa565b60008060028a51118015611bbf575060158a5111155b8015611bd057508951600290066001145b1515611bdb57600080fd5b611c047f424e54546f6b656e000000000000000000000000000000000000000000000000611e06565b600160a060020a03168a60018c5103815181101515611c1f57fe5b60209081029091010151600160a060020a031614611c3c57600080fd5b611c608a6000815181101515611c4e57fe5b906020019060200201518a60016124f0565b611c6d8a8a8a878761259e565b9050611c987f42616e636f725800000000000000000000000000000000000000000000000000611e06565b604080517f427c0374000000000000000000000000000000000000000000000000000000008152600481018a90526024810189905260448101849052606481018890529051600160a060020a03929092169163427c03749160848082019260009290919082900301818387803b158015611d1157600080fd5b505af1158015611d25573d6000803e3d6000fd5b50929c9b505050505050505050505050565b600061159c888888888888600080611ba9565b600154600160a060020a031681565b6000611787868686338787611564565b600054600160a060020a03163314611d8057600080fd5b600054600160a060020a0382811691161415611d9b57600080fd5b6001805473ffffffffffffffffffffffffffffffffffffffff1916600160a060020a0392909216919091179055565b6000611b90848484600080611777565b600054600160a060020a03163314611df157600080fd5b620f4240811115611e0157600080fd5b600455565b600254604080517fbb34534c000000000000000000000000000000000000000000000000000000008152600481018490529051600092600160a060020a03169163bb34534c91602480830192602092919082900301818787803b158015611e6c57600080fd5b505af1158015611e80573d6000803e3d6000fd5b505050506040513d6020811015611e9657600080fd5b505192915050565b600080831515611eb15760009150611ed0565b50828202828482811515611ec157fe5b0414611ecc57600080fd5b8091505b5092915050565b600080808311611ee657600080fd5b8284811515611ef157fe5b04949350505050565b600080611f05612b93565b604080517f67657452657475726e28616464726573732c616464726573732c75696e74323581527f36290000000000000000000000000000000000000000000000000000000000006020808301919091528251918290036022018220600160a060020a03808b166024850152891660448401526064808401899052845180850390910181526084909301845290820180517bffffffffffffffffffffffffffffffffffffffffffffffffffffffff167fffffffff0000000000000000000000000000000000000000000000000000000060e060020a9384900490930292909216919091178152815191929184918b5afa80151561200157600080fd5b505080516020909101519097909650945050505050565b60008085600160a060020a03166370a08231856040518263ffffffff1660e060020a0281526004018082600160a060020a0316600160a060020a03168152602001915050602060405180830381600087803b15801561207657600080fd5b505af115801561208a573d6000803e3d6000fd5b505050506040513d60208110156120a057600080fd5b50519150600160a060020a0385163014156121355785600160a060020a031663a9059cbb85856040518363ffffffff1660e060020a0281526004018083600160a060020a0316600160a060020a0316815260200182815260200192505050600060405180830381600087803b15801561211857600080fd5b505af115801561212c573d6000803e3d6000fd5b505050506121c1565b604080517f23b872dd000000000000000000000000000000000000000000000000000000008152600160a060020a0387811660048301528681166024830152604482018690529151918816916323b872dd9160648082019260009290919082900301818387803b1580156121a857600080fd5b505af11580156121bc573d6000803e3d6000fd5b505050505b85600160a060020a03166370a08231856040518263ffffffff1660e060020a0281526004018082600160a060020a0316600160a060020a03168152602001915050602060405180830381600087803b15801561221c57600080fd5b505af1158015612230573d6000803e3d6000fd5b505050506040513d602081101561224657600080fd5b5051905081811161225657600080fd5b505050505050565b600080600080600061228f7f436f6e7472616374466561747572657300000000000000000000000000000000611e06565b9350600192505b86518310156124e15786838151811015156122ad57fe5b90602001906020020151600160a060020a0316638da5cb5b6040518163ffffffff1660e060020a028152600401602060405180830381600087803b1580156122f457600080fd5b505af1158015612308573d6000803e3d6000fd5b505050506040513d602081101561231e57600080fd5b5051604080517fa5fbf287000000000000000000000000000000000000000000000000000000008152600160a060020a0380841660048301526001602483015291519294509086169163a5fbf287916044808201926020929091908290030181600087803b15801561238f57600080fd5b505af11580156123a3573d6000803e3d6000fd5b505050506040513d60208110156123b957600080fd5b5051156124d65781600160a060020a031663c45d3d926040518163ffffffff1660e060020a028152600401602060405180830381600087803b1580156123fe57600080fd5b505af1158015612412573d6000803e3d6000fd5b505050506040513d602081101561242857600080fd5b50519050600160a060020a038116158015906124c8575080600160a060020a0316633af32abf876040518263ffffffff1660e060020a0281526004018082600160a060020a0316600160a060020a03168152602001915050602060405180830381600087803b15801561249a57600080fd5b505af11580156124ae573d6000803e3d6000fd5b505050506040513d60208110156124c457600080fd5b5051155b156124d657600094506124e6565b600283019250612296565b600194505b5050505092915050565b60003411156125875734821480156125205750600160a060020a03831660009081526005602052604090205460ff165b151561252b57600080fd5b82600160a060020a031663d0e30db0346040518263ffffffff1660e060020a0281526004016000604051808303818588803b15801561256957600080fd5b505af115801561257d573d6000803e3d6000fd5b5050505050612599565b80156125995761259983333085612018565b505050565b8451600090819086906000190182808080600160a060020a038a1615156125d35788156125ca57600080fd5b6000935061261c565b8860001080156125e557506004548911155b15156125f057600080fd5b6126197f424e54546f6b656e000000000000000000000000000000000000000000000000611e06565b93505b600292505b8483116129d5578c6001840381518110151561263957fe5b90602001906020020151600160a060020a0316638da5cb5b6040518163ffffffff1660e060020a028152600401602060405180830381600087803b15801561268057600080fd5b505af1158015612694573d6000803e3d6000fd5b505050506040513d60208110156126aa57600080fd5b50518d519092508d9060011985019081106126c157fe5b90602001906020020151600160a060020a03168d600185038151811015156126e557fe5b60209081029091010151600160a060020a031614612722576127228d6002850381518110151561271157fe5b9060200190602002015183886129e6565b81600160a060020a0316635e5144eb8e6002860381518110151561274257fe5b906020019060200201518f8681518110151561275a57fe5b9060200190602002015189898814612773576001612775565b8f5b6040518563ffffffff1660e060020a0281526004018085600160a060020a0316600160a060020a0316815260200184600160a060020a0316600160a060020a03168152602001838152602001828152602001945050505050602060405180830381600087803b1580156127e757600080fd5b505af11580156127fb573d6000803e3d6000fd5b505050506040513d602081101561281157600080fd5b50518d51909750600160a060020a038516908e908590811061282f57fe5b90602001906020020151600160a060020a0316141561291c5761285f620f42406110b6898c63ffffffff611e9e16565b90508c8381518110151561286f57fe5b90602001906020020151600160a060020a031663a9059cbb8b836040518363ffffffff1660e060020a0281526004018083600160a060020a0316600160a060020a0316815260200182815260200192505050602060405180830381600087803b1580156128db57600080fd5b505af11580156128ef573d6000803e3d6000fd5b505050506040513d602081101561290557600080fd5b5051151561291257600080fd5b8087039650600093505b8c8381518110151561292a57fe5b90602001906020020151600160a060020a03168d6002850381518110151561294e57fe5b90602001906020020151600160a060020a03168e6001860381518110151561297257fe5b6020908102909101810151604080518b81529283018c9052338382015251600160a060020a03909116917f7154b38b5dd31bb3122436a96d4e09aba5b323ae1fd580025fab55074334c095919081900360600190a4869550600283019250612621565b50949b9a5050505050505050505050565b604080517fdd62ed3e000000000000000000000000000000000000000000000000000000008152306004820152600160a060020a038481166024830152915160009286169163dd62ed3e91604480830192602092919082900301818787803b158015612a5157600080fd5b505af1158015612a65573d6000803e3d6000fd5b505050506040513d6020811015612a7b57600080fd5b5051905081811015612b8d576000811115612b1157604080517f095ea7b3000000000000000000000000000000000000000000000000000000008152600160a060020a03858116600483015260006024830181905292519087169263095ea7b3926044808201939182900301818387803b158015612af857600080fd5b505af1158015612b0c573d6000803e3d6000fd5b505050505b83600160a060020a031663095ea7b384846040518363ffffffff1660e060020a0281526004018083600160a060020a0316600160a060020a0316815260200182815260200192505050600060405180830381600087803b158015612b7457600080fd5b505af1158015612b88573d6000803e3d6000fd5b505050505b50505050565b604080518082018252906002908290803883395091929150505600a165627a7a723058200a9ba4904ba92615cfda2cf9370152a6a15865bb9df69c99e5e8fea9d8eca8bc0029",
  "source": "pragma solidity 0.4.26;\r\nimport './IBancorNetwork.sol';\r\nimport './FeatureIds.sol';\r\nimport './converter/interfaces/IBancorConverter.sol';\r\nimport './converter/interfaces/IBancorFormula.sol';\r\nimport './utility/TokenHolder.sol';\r\nimport './utility/SafeMath.sol';\r\nimport './utility/ContractRegistryClient.sol';\r\nimport './utility/interfaces/IContractFeatures.sol';\r\nimport './utility/interfaces/IWhitelist.sol';\r\nimport './token/interfaces/IEtherToken.sol';\r\nimport './token/interfaces/ISmartToken.sol';\r\nimport './token/interfaces/INonStandardERC20.sol';\r\nimport './bancorx/interfaces/IBancorX.sol';\r\n\r\n/**\r\n  * @dev The BancorNetwork contract is the main entry point for Bancor token conversions.\r\n  * It also allows for the conversion of any token in the Bancor Network to any other token in a single transaction by providing a conversion path.\r\n  * \r\n  * A note on Conversion Path: Conversion path is a data structure that is used when converting a token to another token in the Bancor Network,\r\n  * when the conversion cannot necessarily be done by a single converter and might require multiple 'hops'.\r\n  * The path defines which converters should be used and what kind of conversion should be done in each step.\r\n  * \r\n  * The path format doesn't include complex structure; instead, it is represented by a single array in which each 'hop' is represented by a 2-tuple - smart token & to token.\r\n  * In addition, the first element is always the source token.\r\n  * The smart token is only used as a pointer to a converter (since converter addresses are more likely to change as opposed to smart token addresses).\r\n  * \r\n  * Format:\r\n  * [source token, smart token, to token, smart token, to token...]\r\n*/\r\ncontract BancorNetwork is IBancorNetwork, TokenHolder, ContractRegistryClient, FeatureIds {\r\n    using SafeMath for uint256;\r\n\r\n    uint256 private constant CONVERSION_FEE_RESOLUTION = 1000000;\r\n    uint256 private constant AFFILIATE_FEE_RESOLUTION = 1000000;\r\n\r\n    uint256 public maxAffiliateFee = 30000;     // maximum affiliate-fee\r\n\r\n    mapping (address => bool) public etherTokens;       // list of all supported ether tokens\r\n    mapping (bytes32 => bool) public conversionHashes;  // list of conversion hashes, to prevent re-use of the same hash\r\n\r\n    /**\r\n      * @dev triggered when a conversion between two tokens occurs\r\n      * \r\n      * @param _smartToken      smart token governed by the converter\r\n      * @param _fromToken       ERC20 token converted from\r\n      * @param _toToken         ERC20 token converted to\r\n      * @param _fromAmount      amount converted, in fromToken\r\n      * @param _toAmount        amount returned, minus conversion fee\r\n      * @param _trader          wallet that initiated the trade\r\n    */\r\n    event Conversion(\r\n        address indexed _smartToken,\r\n        address indexed _fromToken,\r\n        address indexed _toToken,\r\n        uint256 _fromAmount,\r\n        uint256 _toAmount,\r\n        address _trader\r\n    );\r\n\r\n    /**\r\n      * @dev initializes a new BancorNetwork instance\r\n      * \r\n      * @param _registry    address of a contract registry contract\r\n    */\r\n    constructor(IContractRegistry _registry) ContractRegistryClient(_registry) public {\r\n    }\r\n\r\n    /**\r\n      * @dev allows the owner to update the maximum affiliate-fee\r\n      * \r\n      * @param _maxAffiliateFee   maximum affiliate-fee\r\n    */\r\n    function setMaxAffiliateFee(uint256 _maxAffiliateFee)\r\n        public\r\n        ownerOnly\r\n    {\r\n        require(_maxAffiliateFee <= AFFILIATE_FEE_RESOLUTION);\r\n        maxAffiliateFee = _maxAffiliateFee;\r\n    }\r\n\r\n    /**\r\n      * @dev allows the owner to register/unregister ether tokens\r\n      * \r\n      * @param _token       ether token contract address\r\n      * @param _register    true to register, false to unregister\r\n    */\r\n    function registerEtherToken(IEtherToken _token, bool _register)\r\n        public\r\n        ownerOnly\r\n        validAddress(_token)\r\n        notThis(_token)\r\n    {\r\n        etherTokens[_token] = _register;\r\n    }\r\n\r\n    /**\r\n      * @dev converts the token to any other token in the bancor network by following\r\n      * a predefined conversion path and transfers the result tokens to a target account\r\n      * note that the network should already own the source tokens\r\n      * \r\n      * @param _path                conversion path, see conversion path format above\r\n      * @param _amount              amount to convert from (in the initial source token)\r\n      * @param _minReturn           if the conversion results in an amount smaller than the minimum return - it is cancelled, must be nonzero\r\n      * @param _for                 account that will receive the conversion result\r\n      * @param _affiliateAccount    affiliate account\r\n      * @param _affiliateFee        affiliate fee in PPM\r\n      * \r\n      * @return tokens issued in return\r\n    */\r\n    function convertFor2(IERC20Token[] _path, uint256 _amount, uint256 _minReturn, address _for, address _affiliateAccount, uint256 _affiliateFee) public payable returns (uint256) {\r\n        // verify that the number of elements is odd and that maximum number of 'hops' is 10\r\n        require(_path.length > 2 && _path.length <= (1 + 2 * 10) && _path.length % 2 == 1);\r\n\r\n        // verify that the account which should receive the conversion result is whitelisted\r\n        require(isWhitelisted(_path, _for));\r\n\r\n        // handle msg.value\r\n        handleValue(_path[0], _amount, false);\r\n\r\n        // convert and get the resulting amount\r\n        uint256 amount = convertByPath(_path, _amount, _minReturn, _affiliateAccount, _affiliateFee);\r\n\r\n        // finished the conversion, transfer the funds to the target account\r\n        // if the target token is an ether token, withdraw the tokens and send them as ETH\r\n        // otherwise, transfer the tokens as is\r\n        IERC20Token toToken = _path[_path.length - 1];\r\n        if (etherTokens[toToken])\r\n            IEtherToken(toToken).withdrawTo(_for, amount);\r\n        else\r\n            ensureTransferFrom(toToken, this, _for, amount);\r\n\r\n        return amount;\r\n    }\r\n\r\n    /**\r\n      * @dev converts any other token to BNT in the bancor network\r\n      * by following a predefined conversion path and transfers the resulting\r\n      * tokens to BancorX.\r\n      * note that the network should already have been given allowance of the source token (if not ETH)\r\n      * \r\n      * @param _path                conversion path, see conversion path format above\r\n      * @param _amount              amount to convert from (in the initial source token)\r\n      * @param _minReturn           if the conversion results in an amount smaller than the minimum return - it is cancelled, must be nonzero\r\n      * @param _toBlockchain        blockchain BNT will be issued on\r\n      * @param _to                  address/account on _toBlockchain to send the BNT to\r\n      * @param _conversionId        pre-determined unique (if non zero) id which refers to this transaction \r\n      * @param _affiliateAccount    affiliate account\r\n      * @param _affiliateFee        affiliate fee in PPM\r\n      * \r\n      * @return the amount of BNT received from this conversion\r\n    */\r\n    function xConvert2(\r\n        IERC20Token[] _path,\r\n        uint256 _amount,\r\n        uint256 _minReturn,\r\n        bytes32 _toBlockchain,\r\n        bytes32 _to,\r\n        uint256 _conversionId,\r\n        address _affiliateAccount,\r\n        uint256 _affiliateFee\r\n    )\r\n        public\r\n        payable\r\n        returns (uint256)\r\n    {\r\n        // verify that the number of elements is odd and that maximum number of 'hops' is 10\r\n        require(_path.length > 2 && _path.length <= (1 + 2 * 10) && _path.length % 2 == 1);\r\n\r\n        // verify that the destination token is BNT\r\n        require(_path[_path.length - 1] == addressOf(BNT_TOKEN));\r\n\r\n        // handle msg.value\r\n        handleValue(_path[0], _amount, true);\r\n\r\n        // convert and get the resulting amount\r\n        uint256 amount = convertByPath(_path, _amount, _minReturn, _affiliateAccount, _affiliateFee);\r\n\r\n        // transfer the resulting amount to BancorX\r\n        IBancorX(addressOf(BANCOR_X)).xTransfer(_toBlockchain, _to, amount, _conversionId);\r\n\r\n        return amount;\r\n    }\r\n\r\n    /**\r\n      * @dev executes the actual conversion by following the conversion path\r\n      * \r\n      * @param _path                conversion path, see conversion path format above\r\n      * @param _amount              amount to convert from (in the initial source token)\r\n      * @param _minReturn           if the conversion results in an amount smaller than the minimum return - it is cancelled, must be nonzero\r\n      * @param _affiliateAccount    affiliate account\r\n      * @param _affiliateFee        affiliate fee in PPM\r\n      * \r\n      * @return amount of tokens issued\r\n    */\r\n    function convertByPath(\r\n        IERC20Token[] _path,\r\n        uint256 _amount,\r\n        uint256 _minReturn,\r\n        address _affiliateAccount,\r\n        uint256 _affiliateFee\r\n    ) private returns (uint256) {\r\n        uint256 toAmount;\r\n        uint256 fromAmount = _amount;\r\n        uint256 lastIndex = _path.length - 1;\r\n\r\n        address bntToken;\r\n        if (address(_affiliateAccount) == 0) {\r\n            require(_affiliateFee == 0);\r\n            bntToken = address(0);\r\n        }\r\n        else {\r\n            require(0 < _affiliateFee && _affiliateFee <= maxAffiliateFee);\r\n            bntToken = addressOf(BNT_TOKEN);\r\n        }\r\n\r\n        // iterate over the conversion path\r\n        for (uint256 i = 2; i <= lastIndex; i += 2) {\r\n            IBancorConverter converter = IBancorConverter(ISmartToken(_path[i - 1]).owner());\r\n\r\n            // if the smart token isn't the source (from token), the converter doesn't have control over it and thus we need to approve the request\r\n            if (_path[i - 1] != _path[i - 2])\r\n                ensureAllowance(_path[i - 2], converter, fromAmount);\r\n\r\n            // make the conversion - if it's the last one, also provide the minimum return value\r\n            toAmount = converter.change(_path[i - 2], _path[i], fromAmount, i == lastIndex ? _minReturn : 1);\r\n\r\n            // pay affiliate-fee if needed\r\n            if (address(_path[i]) == bntToken) {\r\n                uint256 affiliateAmount = toAmount.mul(_affiliateFee).div(AFFILIATE_FEE_RESOLUTION);\r\n                require(_path[i].transfer(_affiliateAccount, affiliateAmount));\r\n                toAmount -= affiliateAmount;\r\n                bntToken = address(0);\r\n            }\r\n\r\n            emit Conversion(_path[i - 1], _path[i - 2], _path[i], fromAmount, toAmount, msg.sender);\r\n            fromAmount = toAmount;\r\n        }\r\n\r\n        return toAmount;\r\n    }\r\n\r\n    bytes4 private constant GET_RETURN_FUNC_SELECTOR = bytes4(uint256(keccak256(\"getReturn(address,address,uint256)\") >> (256 - 4 * 8)));\r\n\r\n    function getReturn(address _dest, address _fromToken, address _toToken, uint256 _amount) internal view returns (uint256, uint256) {\r\n        uint256[2] memory ret;\r\n        bytes memory data = abi.encodeWithSelector(GET_RETURN_FUNC_SELECTOR, _fromToken, _toToken, _amount);\r\n\r\n        assembly {\r\n            let success := staticcall(\r\n                gas,           // gas remaining\r\n                _dest,         // destination address\r\n                add(data, 32), // input buffer (starts after the first 32 bytes in the `data` array)\r\n                mload(data),   // input length (loaded from the first 32 bytes in the `data` array)\r\n                ret,           // output buffer\r\n                64             // output length\r\n            )\r\n            if iszero(success) {\r\n                revert(0, 0)\r\n            }\r\n        }\r\n\r\n        return (ret[0], ret[1]);\r\n    }\r\n\r\n    /**\r\n      * @dev calculates the expected return of converting a given amount on a given path\r\n      * note that there is no support for circular paths\r\n      * \r\n      * @param _path        conversion path (see conversion path format above)\r\n      * @param _amount      amount of _path[0] tokens received from the user\r\n      * \r\n      * @return amount of _path[_path.length - 1] tokens that the user will receive\r\n      * @return amount of _path[_path.length - 1] tokens that the user will pay as fee\r\n    */\r\n    function getReturnByPath(IERC20Token[] _path, uint256 _amount) public view returns (uint256, uint256) {\r\n        uint256 amount;\r\n        uint256 fee;\r\n        uint256 supply;\r\n        uint256 balance;\r\n        uint32 ratio;\r\n        IBancorConverter converter;\r\n        IBancorFormula formula = IBancorFormula(addressOf(BANCOR_FORMULA));\r\n\r\n        amount = _amount;\r\n\r\n        // verify that the number of elements is larger than 2 and odd\r\n        require(_path.length > 2 && _path.length % 2 == 1);\r\n\r\n        // iterate over the conversion path\r\n        for (uint256 i = 2; i < _path.length; i += 2) {\r\n            IERC20Token fromToken = _path[i - 2];\r\n            IERC20Token smartToken = _path[i - 1];\r\n            IERC20Token toToken = _path[i];\r\n\r\n            if (toToken == smartToken) { // buy the smart token\r\n                // check if the current smart token has changed\r\n                if (i < 3 || smartToken != _path[i - 3]) {\r\n                    supply = smartToken.totalSupply();\r\n                    converter = IBancorConverter(ISmartToken(smartToken).owner());\r\n                }\r\n\r\n                // calculate the amount & the conversion fee\r\n                balance = converter.getConnectorBalance(fromToken);\r\n                (, ratio, , , ) = converter.connectors(fromToken);\r\n                amount = formula.calculatePurchaseReturn(supply, balance, ratio, amount);\r\n                fee = amount.mul(converter.conversionFee()).div(CONVERSION_FEE_RESOLUTION);\r\n                amount -= fee;\r\n\r\n                // update the smart token supply for the next iteration\r\n                supply += amount;\r\n            }\r\n            else if (fromToken == smartToken) { // sell the smart token\r\n                // check if the current smart token has changed\r\n                if (i < 3 || smartToken != _path[i - 3]) {\r\n                    supply = smartToken.totalSupply();\r\n                    converter = IBancorConverter(ISmartToken(smartToken).owner());\r\n                }\r\n\r\n                // calculate the amount & the conversion fee\r\n                balance = converter.getConnectorBalance(toToken);\r\n                (, ratio, , , ) = converter.connectors(toToken);\r\n                amount = formula.calculateSaleReturn(supply, balance, ratio, amount);\r\n                fee = amount.mul(converter.conversionFee()).div(CONVERSION_FEE_RESOLUTION);\r\n                amount -= fee;\r\n\r\n                // update the smart token supply for the next iteration\r\n                supply -= amount;\r\n            }\r\n            else { // cross reserve conversion\r\n                // check if the current smart token has changed\r\n                if (i < 3 || smartToken != _path[i - 3]) {\r\n                    converter = IBancorConverter(ISmartToken(smartToken).owner());\r\n                }\r\n\r\n                (amount, fee) = getReturn(converter, fromToken, toToken, amount);\r\n            }\r\n        }\r\n\r\n        return (amount, fee);\r\n    }\r\n\r\n    /**\r\n      * @dev claims the caller's tokens, converts them to any other token in the bancor network\r\n      * by following a predefined conversion path and transfers the result tokens to a target account\r\n      * note that allowance must be set beforehand\r\n      * \r\n      * @param _path                conversion path, see conversion path format above\r\n      * @param _amount              amount to convert from (in the initial source token)\r\n      * @param _minReturn           if the conversion results in an amount smaller than the minimum return - it is cancelled, must be nonzero\r\n      * @param _for                 account that will receive the conversion result\r\n      * @param _affiliateAccount    affiliate account\r\n      * @param _affiliateFee        affiliate fee in PPM\r\n      * \r\n      * @return tokens issued in return\r\n    */\r\n    function claimAndConvertFor2(IERC20Token[] _path, uint256 _amount, uint256 _minReturn, address _for, address _affiliateAccount, uint256 _affiliateFee) public returns (uint256) {\r\n        // we need to transfer the tokens from the caller to the network before we follow\r\n        // the conversion path, to allow it to execute the conversion on behalf of the caller\r\n        // note: we assume we already have allowance\r\n        IERC20Token fromToken = _path[0];\r\n        ensureTransferFrom(fromToken, msg.sender, this, _amount);\r\n        return convertFor2(_path, _amount, _minReturn, _for, _affiliateAccount, _affiliateFee);\r\n    }\r\n\r\n    /**\r\n      * @dev converts the token to any other token in the bancor network by following\r\n      * a predefined conversion path and transfers the result tokens back to the sender\r\n      * note that the network should already own the source tokens\r\n      * \r\n      * @param _path                conversion path, see conversion path format above\r\n      * @param _amount              amount to convert from (in the initial source token)\r\n      * @param _minReturn           if the conversion results in an amount smaller than the minimum return - it is cancelled, must be nonzero\r\n      * @param _affiliateAccount    affiliate account\r\n      * @param _affiliateFee        affiliate fee in PPM\r\n      * \r\n      * @return tokens issued in return\r\n    */\r\n    function convert2(IERC20Token[] _path, uint256 _amount, uint256 _minReturn, address _affiliateAccount, uint256 _affiliateFee) public payable returns (uint256) {\r\n        return convertFor2(_path, _amount, _minReturn, msg.sender, _affiliateAccount, _affiliateFee);\r\n    }\r\n\r\n    /**\r\n      * @dev claims the caller's tokens, converts them to any other token in the bancor network\r\n      * by following a predefined conversion path and transfers the result tokens back to the sender\r\n      * note that allowance must be set beforehand\r\n      * \r\n      * @param _path                conversion path, see conversion path format above\r\n      * @param _amount              amount to convert from (in the initial source token)\r\n      * @param _minReturn           if the conversion results in an amount smaller than the minimum return - it is cancelled, must be nonzero\r\n      * @param _affiliateAccount    affiliate account\r\n      * @param _affiliateFee        affiliate fee in PPM\r\n      * \r\n      * @return tokens issued in return\r\n    */\r\n    function claimAndConvert2(IERC20Token[] _path, uint256 _amount, uint256 _minReturn, address _affiliateAccount, uint256 _affiliateFee) public returns (uint256) {\r\n        return claimAndConvertFor2(_path, _amount, _minReturn, msg.sender, _affiliateAccount, _affiliateFee);\r\n    }\r\n\r\n    /**\r\n      * @dev ensures transfer of tokens, taking into account that some ERC-20 implementations don't return\r\n      * true on success but revert on failure instead\r\n      * \r\n      * @param _token     the token to transfer\r\n      * @param _from      the address to transfer the tokens from\r\n      * @param _to        the address to transfer the tokens to\r\n      * @param _amount    the amount to transfer\r\n    */\r\n    function ensureTransferFrom(IERC20Token _token, address _from, address _to, uint256 _amount) private {\r\n        // We must assume that functions `transfer` and `transferFrom` do not return anything,\r\n        // because not all tokens abide the requirement of the ERC20 standard to return success or failure.\r\n        // This is because in the current compiler version, the calling contract can handle more returned data than expected but not less.\r\n        // This may change in the future, so that the calling contract will revert if the size of the data is not exactly what it expects.\r\n        uint256 prevBalance = _token.balanceOf(_to);\r\n        if (_from == address(this))\r\n            INonStandardERC20(_token).transfer(_to, _amount);\r\n        else\r\n            INonStandardERC20(_token).transferFrom(_from, _to, _amount);\r\n        uint256 postBalance = _token.balanceOf(_to);\r\n        require(postBalance > prevBalance);\r\n    }\r\n\r\n    /**\r\n      * @dev utility, checks whether allowance for the given spender exists and approves one if it doesn't.\r\n      * Note that we use the non standard erc-20 interface in which `approve` has no return value so that\r\n      * this function will work for both standard and non standard tokens\r\n      * \r\n      * @param _token   token to check the allowance in\r\n      * @param _spender approved address\r\n      * @param _value   allowance amount\r\n    */\r\n    function ensureAllowance(IERC20Token _token, address _spender, uint256 _value) private {\r\n        uint256 allowance = _token.allowance(this, _spender);\r\n        if (allowance < _value) {\r\n            if (allowance > 0)\r\n                INonStandardERC20(_token).approve(_spender, 0);\r\n            INonStandardERC20(_token).approve(_spender, _value);\r\n        }\r\n    }\r\n\r\n    function isWhitelisted(IERC20Token[] _path, address _receiver) private view returns (bool) {\r\n        IContractFeatures features = IContractFeatures(addressOf(CONTRACT_FEATURES));\r\n        for (uint256 i = 1; i < _path.length; i += 2) {\r\n            IBancorConverter converter = IBancorConverter(ISmartToken(_path[i]).owner());\r\n            if (features.isSupported(converter, FeatureIds.CONVERTER_CONVERSION_WHITELIST)) {\r\n                IWhitelist whitelist = converter.conversionWhitelist();\r\n                if (whitelist != address(0) && !whitelist.isWhitelisted(_receiver))\r\n                    return false;\r\n            }\r\n        }\r\n        return true;\r\n    }\r\n\r\n    function handleValue(IERC20Token _token, uint256 _amount, bool _claim) private {\r\n        // if ETH is provided, ensure that the amount is identical to _amount, verify that the source token is an ether token and deposit the ETH in it\r\n        if (msg.value > 0) {\r\n            require(_amount == msg.value && etherTokens[_token]);\r\n            IEtherToken(_token).deposit.value(msg.value)();\r\n        }\r\n        // Otherwise, claim the tokens from the sender if needed\r\n        else if (_claim) {\r\n            ensureTransferFrom(_token, msg.sender, this, _amount);\r\n        }\r\n    }\r\n\r\n    /**\r\n      * @dev deprecated, backward compatibility\r\n    */\r\n    function convert(\r\n        IERC20Token[] _path,\r\n        uint256 _amount,\r\n        uint256 _minReturn\r\n    ) public payable returns (uint256)\r\n    {\r\n        return convert2(_path, _amount, _minReturn, address(0), 0);\r\n    }\r\n\r\n    /**\r\n      * @dev deprecated, backward compatibility\r\n    */\r\n    function claimAndConvert(\r\n        IERC20Token[] _path,\r\n        uint256 _amount,\r\n        uint256 _minReturn\r\n    ) public returns (uint256)\r\n    {\r\n        return claimAndConvert2(_path, _amount, _minReturn, address(0), 0);\r\n    }\r\n\r\n    /**\r\n      * @dev deprecated, backward compatibility\r\n    */\r\n    function convertFor(\r\n        IERC20Token[] _path,\r\n        uint256 _amount,\r\n        uint256 _minReturn,\r\n        address _for\r\n    ) public payable returns (uint256)\r\n    {\r\n        return convertFor2(_path, _amount, _minReturn, _for, address(0), 0);\r\n    }\r\n\r\n    /**\r\n      * @dev deprecated, backward compatibility\r\n    */\r\n    function claimAndConvertFor(\r\n        IERC20Token[] _path,\r\n        uint256 _amount,\r\n        uint256 _minReturn,\r\n        address _for\r\n    ) public returns (uint256)\r\n    {\r\n        return claimAndConvertFor2(_path, _amount, _minReturn, _for, address(0), 0);\r\n    }\r\n\r\n    /**\r\n      * @dev deprecated, backward compatibility\r\n    */\r\n    function xConvert(\r\n        IERC20Token[] _path,\r\n        uint256 _amount,\r\n        uint256 _minReturn,\r\n        bytes32 _toBlockchain,\r\n        bytes32 _to,\r\n        uint256 _conversionId\r\n    )\r\n        public\r\n        payable\r\n        returns (uint256)\r\n    {\r\n        return xConvert2(_path, _amount, _minReturn, _toBlockchain, _to, _conversionId, address(0), 0);\r\n    }\r\n\r\n    /**\r\n      * @dev deprecated, backward compatibility\r\n    */\r\n    function xConvertPrioritized3(\r\n        IERC20Token[] _path,\r\n        uint256 _amount,\r\n        uint256 _minReturn,\r\n        bytes32 _toBlockchain,\r\n        bytes32 _to,\r\n        uint256 _conversionId,\r\n        uint256[] memory,\r\n        address _affiliateAccount,\r\n        uint256 _affiliateFee\r\n    )\r\n        public\r\n        payable\r\n        returns (uint256)\r\n    {\r\n        return xConvert2(_path, _amount, _minReturn, _toBlockchain, _to, _conversionId, _affiliateAccount, _affiliateFee);\r\n    }\r\n\r\n    /**\r\n      * @dev deprecated, backward compatibility\r\n    */\r\n    function xConvertPrioritized2(\r\n        IERC20Token[] _path,\r\n        uint256 _amount,\r\n        uint256 _minReturn,\r\n        bytes32 _toBlockchain,\r\n        bytes32 _to,\r\n        uint256 _conversionId,\r\n        uint256[] memory\r\n    )\r\n        public\r\n        payable\r\n        returns (uint256)\r\n    {\r\n        return xConvert2(_path, _amount, _minReturn, _toBlockchain, _to, _conversionId, address(0), 0);\r\n    }\r\n\r\n    /**\r\n      * @dev deprecated, backward compatibility\r\n    */\r\n    function xConvertPrioritized(\r\n        IERC20Token[] _path,\r\n        uint256 _amount,\r\n        uint256 _minReturn,\r\n        bytes32 _toBlockchain,\r\n        bytes32 _to,\r\n        uint256 _conversionId,\r\n        uint256,\r\n        uint8,\r\n        bytes32,\r\n        bytes32\r\n    )\r\n        public\r\n        payable\r\n        returns (uint256)\r\n    {\r\n        return xConvert2(_path, _amount, _minReturn, _toBlockchain, _to, _conversionId, address(0), 0);\r\n    }\r\n\r\n    /**\r\n      * @dev deprecated, backward compatibility\r\n    */\r\n    function convertForPrioritized4(\r\n        IERC20Token[] _path,\r\n        uint256 _amount,\r\n        uint256 _minReturn,\r\n        address _for,\r\n        uint256[] memory,\r\n        address _affiliateAccount,\r\n        uint256 _affiliateFee\r\n    )\r\n        public\r\n        payable\r\n        returns (uint256)\r\n    {\r\n        return convertFor2(_path, _amount, _minReturn, _for, _affiliateAccount, _affiliateFee);\r\n    }\r\n\r\n    /**\r\n      * @dev deprecated, backward compatibility\r\n    */\r\n    function convertForPrioritized3(\r\n        IERC20Token[] _path,\r\n        uint256 _amount,\r\n        uint256 _minReturn,\r\n        address _for,\r\n        uint256,\r\n        uint256,\r\n        uint8,\r\n        bytes32,\r\n        bytes32\r\n    )\r\n        public\r\n        payable\r\n        returns (uint256)\r\n    {\r\n        return convertFor2(_path, _amount, _minReturn, _for, address(0), 0);\r\n    }\r\n\r\n    /**\r\n      * @dev deprecated, backward compatibility\r\n    */\r\n    function convertForPrioritized2(\r\n        IERC20Token[] _path,\r\n        uint256 _amount,\r\n        uint256 _minReturn,\r\n        address _for,\r\n        uint256,\r\n        uint8,\r\n        bytes32,\r\n        bytes32\r\n    )\r\n        public\r\n        payable\r\n        returns (uint256)\r\n    {\r\n        return convertFor2(_path, _amount, _minReturn, _for, address(0), 0);\r\n    }\r\n\r\n    /**\r\n      * @dev deprecated, backward compatibility\r\n    */\r\n    function convertForPrioritized(\r\n        IERC20Token[] _path,\r\n        uint256 _amount,\r\n        uint256 _minReturn,\r\n        address _for,\r\n        uint256,\r\n        uint256,\r\n        uint8,\r\n        bytes32,\r\n        bytes32\r\n    )\r\n        public payable returns (uint256)\r\n    {\r\n        return convertFor2(_path, _amount, _minReturn, _for, address(0), 0);\r\n    }\r\n}\r\n",
  "sourcePath": "/home/safu/minddeft/jointerInc/bancorTry/temp/contracts/solidity/contracts/BancorNetwork.sol",
  "compiler": {
    "name": "solc",
    "version": "0.4.26+commit.4563c3fc.Emscripten.clang"
  },
  "schemaVersion": "3.1.0",
  "updatedAt": "2020-06-10T14:32:18.521Z",
  "devdoc": {
    "methods": {
      "acceptOwnership()": {
        "details": "used by a new owner to accept an ownership transfer\r"
      },
      "claimAndConvert(address[],uint256,uint256)": {
        "details": "deprecated, backward compatibility\r"
      },
      "claimAndConvert2(address[],uint256,uint256,address,uint256)": {
        "details": "claims the caller's tokens, converts them to any other token in the bancor network\r by following a predefined conversion path and transfers the result tokens back to the sender\r note that allowance must be set beforehand\r \r",
        "params": {
          "_affiliateAccount": "affiliate account\r",
          "_affiliateFee": "affiliate fee in PPM\r \r",
          "_amount": "amount to convert from (in the initial source token)\r",
          "_minReturn": "if the conversion results in an amount smaller than the minimum return - it is cancelled, must be nonzero\r",
          "_path": "conversion path, see conversion path format above\r"
        },
        "return": "tokens issued in return\r"
      },
      "claimAndConvertFor(address[],uint256,uint256,address)": {
        "details": "deprecated, backward compatibility\r"
      },
      "claimAndConvertFor2(address[],uint256,uint256,address,address,uint256)": {
        "details": "claims the caller's tokens, converts them to any other token in the bancor network\r by following a predefined conversion path and transfers the result tokens to a target account\r note that allowance must be set beforehand\r \r",
        "params": {
          "_affiliateAccount": "affiliate account\r",
          "_affiliateFee": "affiliate fee in PPM\r \r",
          "_amount": "amount to convert from (in the initial source token)\r",
          "_for": "account that will receive the conversion result\r",
          "_minReturn": "if the conversion results in an amount smaller than the minimum return - it is cancelled, must be nonzero\r",
          "_path": "conversion path, see conversion path format above\r"
        },
        "return": "tokens issued in return\r"
      },
      "convert(address[],uint256,uint256)": {
        "details": "deprecated, backward compatibility\r"
      },
      "convert2(address[],uint256,uint256,address,uint256)": {
        "details": "converts the token to any other token in the bancor network by following\r a predefined conversion path and transfers the result tokens back to the sender\r note that the network should already own the source tokens\r \r",
        "params": {
          "_affiliateAccount": "affiliate account\r",
          "_affiliateFee": "affiliate fee in PPM\r \r",
          "_amount": "amount to convert from (in the initial source token)\r",
          "_minReturn": "if the conversion results in an amount smaller than the minimum return - it is cancelled, must be nonzero\r",
          "_path": "conversion path, see conversion path format above\r"
        },
        "return": "tokens issued in return\r"
      },
      "convertFor(address[],uint256,uint256,address)": {
        "details": "deprecated, backward compatibility\r"
      },
      "convertFor2(address[],uint256,uint256,address,address,uint256)": {
        "details": "converts the token to any other token in the bancor network by following\r a predefined conversion path and transfers the result tokens to a target account\r note that the network should already own the source tokens\r \r",
        "params": {
          "_affiliateAccount": "affiliate account\r",
          "_affiliateFee": "affiliate fee in PPM\r \r",
          "_amount": "amount to convert from (in the initial source token)\r",
          "_for": "account that will receive the conversion result\r",
          "_minReturn": "if the conversion results in an amount smaller than the minimum return - it is cancelled, must be nonzero\r",
          "_path": "conversion path, see conversion path format above\r"
        },
        "return": "tokens issued in return\r"
      },
      "convertForPrioritized(address[],uint256,uint256,address,uint256,uint256,uint8,bytes32,bytes32)": {
        "details": "deprecated, backward compatibility\r"
      },
      "convertForPrioritized2(address[],uint256,uint256,address,uint256,uint8,bytes32,bytes32)": {
        "details": "deprecated, backward compatibility\r"
      },
      "convertForPrioritized3(address[],uint256,uint256,address,uint256,uint256,uint8,bytes32,bytes32)": {
        "details": "deprecated, backward compatibility\r"
      },
      "convertForPrioritized4(address[],uint256,uint256,address,uint256[],address,uint256)": {
        "details": "deprecated, backward compatibility\r"
      },
      "getReturnByPath(address[],uint256)": {
        "details": "calculates the expected return of converting a given amount on a given path\r note that there is no support for circular paths\r \r",
        "params": {
          "_amount": "amount of _path[0] tokens received from the user\r \r",
          "_path": "conversion path (see conversion path format above)\r"
        },
        "return": "amount of _path[_path.length - 1] tokens that the user will receive\ramount of _path[_path.length - 1] tokens that the user will pay as fee\r"
      },
      "registerEtherToken(address,bool)": {
        "details": "allows the owner to register/unregister ether tokens\r \r",
        "params": {
          "_register": "true to register, false to unregister\r",
          "_token": "ether token contract address\r"
        }
      },
      "restoreRegistry()": {
        "details": "restores the previous contract-registry\r"
      },
      "restrictRegistryUpdate(bool)": {
        "details": "restricts the permission to update the contract-registry\r \r",
        "params": {
          "_onlyOwnerCanUpdateRegistry": "indicates whether or not permission is restricted to owner only\r"
        }
      },
      "setMaxAffiliateFee(uint256)": {
        "details": "allows the owner to update the maximum affiliate-fee\r \r",
        "params": {
          "_maxAffiliateFee": "maximum affiliate-fee\r"
        }
      },
      "transferOwnership(address)": {
        "details": "allows transferring the contract ownership\r the new owner still needs to accept the transfer\r can only be called by the contract owner\r \r",
        "params": {
          "_newOwner": "new contract owner\r"
        }
      },
      "updateRegistry()": {
        "details": "updates to the new contract-registry\r"
      },
      "withdrawTokens(address,address,uint256)": {
        "details": "withdraws tokens held by the contract and sends them to an account\r can only be called by the owner\r \r",
        "params": {
          "_amount": "amount to withdraw\r",
          "_to": "account to receive the new amount\r",
          "_token": "ERC20 token contract address\r"
        }
      },
      "xConvert(address[],uint256,uint256,bytes32,bytes32,uint256)": {
        "details": "deprecated, backward compatibility\r"
      },
      "xConvert2(address[],uint256,uint256,bytes32,bytes32,uint256,address,uint256)": {
        "details": "converts any other token to BNT in the bancor network\r by following a predefined conversion path and transfers the resulting\r tokens to BancorX.\r note that the network should already have been given allowance of the source token (if not ETH)\r \r",
        "params": {
          "_affiliateAccount": "affiliate account\r",
          "_affiliateFee": "affiliate fee in PPM\r \r",
          "_amount": "amount to convert from (in the initial source token)\r",
          "_conversionId": "pre-determined unique (if non zero) id which refers to this transaction \r",
          "_minReturn": "if the conversion results in an amount smaller than the minimum return - it is cancelled, must be nonzero\r",
          "_path": "conversion path, see conversion path format above\r",
          "_to": "address/account on _toBlockchain to send the BNT to\r",
          "_toBlockchain": "blockchain BNT will be issued on\r"
        },
        "return": "the amount of BNT received from this conversion\r"
      },
      "xConvertPrioritized(address[],uint256,uint256,bytes32,bytes32,uint256,uint256,uint8,bytes32,bytes32)": {
        "details": "deprecated, backward compatibility\r"
      },
      "xConvertPrioritized2(address[],uint256,uint256,bytes32,bytes32,uint256,uint256[])": {
        "details": "deprecated, backward compatibility\r"
      },
      "xConvertPrioritized3(address[],uint256,uint256,bytes32,bytes32,uint256,uint256[],address,uint256)": {
        "details": "deprecated, backward compatibility\r"
      }
    }
  },
  "userdoc": {
    "methods": {}
  }
}