{
  "contractName": "EtherToken",
  "abi": [
    {
      "constant": true,
      "inputs": [],
      "name": "name",
      "outputs": [
        {
          "name": "",
          "type": "string"
        }
      ],
      "payable": false,
      "stateMutability": "view",
      "type": "function"
    },
    {
      "constant": false,
      "inputs": [
        {
          "name": "_spender",
          "type": "address"
        },
        {
          "name": "_value",
          "type": "uint256"
        }
      ],
      "name": "approve",
      "outputs": [
        {
          "name": "success",
          "type": "bool"
        }
      ],
      "payable": false,
      "stateMutability": "nonpayable",
      "type": "function"
    },
    {
      "constant": true,
      "inputs": [],
      "name": "totalSupply",
      "outputs": [
        {
          "name": "",
          "type": "uint256"
        }
      ],
      "payable": false,
      "stateMutability": "view",
      "type": "function"
    },
    {
      "constant": true,
      "inputs": [],
      "name": "decimals",
      "outputs": [
        {
          "name": "",
          "type": "uint8"
        }
      ],
      "payable": false,
      "stateMutability": "view",
      "type": "function"
    },
    {
      "constant": true,
      "inputs": [
        {
          "name": "",
          "type": "address"
        }
      ],
      "name": "balanceOf",
      "outputs": [
        {
          "name": "",
          "type": "uint256"
        }
      ],
      "payable": false,
      "stateMutability": "view",
      "type": "function"
    },
    {
      "constant": true,
      "inputs": [],
      "name": "symbol",
      "outputs": [
        {
          "name": "",
          "type": "string"
        }
      ],
      "payable": false,
      "stateMutability": "view",
      "type": "function"
    },
    {
      "constant": true,
      "inputs": [
        {
          "name": "",
          "type": "address"
        },
        {
          "name": "",
          "type": "address"
        }
      ],
      "name": "allowance",
      "outputs": [
        {
          "name": "",
          "type": "uint256"
        }
      ],
      "payable": false,
      "stateMutability": "view",
      "type": "function"
    },
    {
      "inputs": [
        {
          "name": "_name",
          "type": "string"
        },
        {
          "name": "_symbol",
          "type": "string"
        }
      ],
      "payable": false,
      "stateMutability": "nonpayable",
      "type": "constructor"
    },
    {
      "payable": true,
      "stateMutability": "payable",
      "type": "fallback"
    },
    {
      "anonymous": false,
      "inputs": [
        {
          "indexed": false,
          "name": "_amount",
          "type": "uint256"
        }
      ],
      "name": "Issuance",
      "type": "event"
    },
    {
      "anonymous": false,
      "inputs": [
        {
          "indexed": false,
          "name": "_amount",
          "type": "uint256"
        }
      ],
      "name": "Destruction",
      "type": "event"
    },
    {
      "anonymous": false,
      "inputs": [
        {
          "indexed": true,
          "name": "_from",
          "type": "address"
        },
        {
          "indexed": true,
          "name": "_to",
          "type": "address"
        },
        {
          "indexed": false,
          "name": "_value",
          "type": "uint256"
        }
      ],
      "name": "Transfer",
      "type": "event"
    },
    {
      "anonymous": false,
      "inputs": [
        {
          "indexed": true,
          "name": "_owner",
          "type": "address"
        },
        {
          "indexed": true,
          "name": "_spender",
          "type": "address"
        },
        {
          "indexed": false,
          "name": "_value",
          "type": "uint256"
        }
      ],
      "name": "Approval",
      "type": "event"
    },
    {
      "constant": false,
      "inputs": [],
      "name": "deposit",
      "outputs": [],
      "payable": true,
      "stateMutability": "payable",
      "type": "function"
    },
    {
      "constant": false,
      "inputs": [
        {
          "name": "_amount",
          "type": "uint256"
        }
      ],
      "name": "withdraw",
      "outputs": [],
      "payable": false,
      "stateMutability": "nonpayable",
      "type": "function"
    },
    {
      "constant": false,
      "inputs": [
        {
          "name": "_to",
          "type": "address"
        }
      ],
      "name": "depositTo",
      "outputs": [],
      "payable": true,
      "stateMutability": "payable",
      "type": "function"
    },
    {
      "constant": false,
      "inputs": [
        {
          "name": "_to",
          "type": "address"
        },
        {
          "name": "_amount",
          "type": "uint256"
        }
      ],
      "name": "withdrawTo",
      "outputs": [],
      "payable": false,
      "stateMutability": "nonpayable",
      "type": "function"
    },
    {
      "constant": false,
      "inputs": [
        {
          "name": "_to",
          "type": "address"
        },
        {
          "name": "_value",
          "type": "uint256"
        }
      ],
      "name": "transfer",
      "outputs": [
        {
          "name": "success",
          "type": "bool"
        }
      ],
      "payable": false,
      "stateMutability": "nonpayable",
      "type": "function"
    },
    {
      "constant": false,
      "inputs": [
        {
          "name": "_from",
          "type": "address"
        },
        {
          "name": "_to",
          "type": "address"
        },
        {
          "name": "_value",
          "type": "uint256"
        }
      ],
      "name": "transferFrom",
      "outputs": [
        {
          "name": "success",
          "type": "bool"
        }
      ],
      "payable": false,
      "stateMutability": "nonpayable",
      "type": "function"
    }
  ],
  "bytecode": "0x608060405234801561001057600080fd5b50604051610ac0380380610ac083398101604052805160208201519082018051909291909101908290829060129060009081108015610050575060008351115b151561005b57600080fd5b835161006e9060009060208701906100b7565b5082516100829060019060208601906100b7565b506002805460ff191660ff93909316929092179091556003819055336000908152600460205260409020555061015292505050565b828054600181600116156101000203166002900490600052602060002090601f016020900481019282601f106100f857805160ff1916838001178555610125565b82800160010185558215610125579182015b8281111561012557825182559160200191906001019061010a565b50610131929150610135565b5090565b61014f91905b80821115610131576000815560010161013b565b90565b61095f806101616000396000f3006080604052600436106100c45763ffffffff7c010000000000000000000000000000000000000000000000000000000060003504166306fdde0381146100ce578063095ea7b31461015857806318160ddd14610190578063205c2878146101b757806323b872dd146101db5780632e1a7d4d14610205578063313ce5671461021d57806370a082311461024857806395d89b4114610269578063a9059cbb1461027e578063b760faf9146102a2578063d0e30db0146100c4578063dd62ed3e146102b6575b6100cc6102dd565b005b3480156100da57600080fd5b506100e36102e8565b6040805160208082528351818301528351919283929083019185019080838360005b8381101561011d578181015183820152602001610105565b50505050905090810190601f16801561014a5780820380516001836020036101000a031916815260200191505b509250505060405180910390f35b34801561016457600080fd5b5061017c600160a060020a0360043516602435610376565b604080519115158252519081900360200190f35b34801561019c57600080fd5b506101a561042f565b60408051918252519081900360200190f35b3480156101c357600080fd5b506100cc600160a060020a0360043516602435610435565b3480156101e757600080fd5b5061017c600160a060020a0360043581169060243516604435610526565b34801561021157600080fd5b506100cc60043561055d565b34801561022957600080fd5b5061023261056a565b6040805160ff9092168252519081900360200190f35b34801561025457600080fd5b506101a5600160a060020a0360043516610573565b34801561027557600080fd5b506100e3610585565b34801561028a57600080fd5b5061017c600160a060020a03600435166024356105df565b6100cc600160a060020a0360043516610614565b3480156102c257600080fd5b506101a5600160a060020a03600435811690602435166106e8565b6102e633610614565b565b6000805460408051602060026001851615610100026000190190941693909304601f8101849004840282018401909252818152929183018282801561036e5780601f106103435761010080835404028352916020019161036e565b820191906000526020600020905b81548152906001019060200180831161035157829003601f168201915b505050505081565b600082600160a060020a038116151561038e57600080fd5b8215806103bc5750336000908152600560209081526040808320600160a060020a0388168452909152902054155b15156103c757600080fd5b336000818152600560209081526040808320600160a060020a03891680855290835292819020879055805187815290519293927f8c5be1e5ebec7d5bd14f71427d1e84f3dd0314c0f7b2291e5b200ac8c7c3b925929181900390910190a35060019392505050565b60035481565b81600160a060020a03811630141561044c57600080fd5b3360009081526004602052604090205461046c908363ffffffff61070516565b3360009081526004602052604090205560035461048f908363ffffffff61070516565b600355604051600160a060020a0384169083156108fc029084906000818181858888f193505050501580156104c8573d6000803e3d6000fd5b50604080518381529051309133916000805160206109148339815191529181900360200190a36040805183815290517f9a1b418bc061a5d80270261562e6986a35d995f8051145f277be16103abd34539181900360200190a1505050565b600082600160a060020a03811630141561053f57600080fd5b61054a85858561071a565b151561055257fe5b506001949350505050565b6105673382610435565b50565b60025460ff1681565b60046020526000908152604090205481565b60018054604080516020600284861615610100026000190190941693909304601f8101849004840282018401909252818152929183018282801561036e5780601f106103435761010080835404028352916020019161036e565b600082600160a060020a0381163014156105f857600080fd5b6106028484610843565b151561060a57fe5b5060019392505050565b80600160a060020a03811630141561062b57600080fd5b600160a060020a038216600090815260046020526040902054610654903463ffffffff6108fa16565b600160a060020a038316600090815260046020526040902055600354610680903463ffffffff6108fa16565b6003556040805134815290517f9386c90217c323f58030f9dadcbc938f807a940f4ff41cd4cead9562f5da7dc39181900360200190a1604080513481529051600160a060020a0384169130916000805160206109148339815191529181900360200190a35050565b600560209081526000928352604080842090915290825290205481565b60008183101561071457600080fd5b50900390565b600083600160a060020a038116151561073257600080fd5b83600160a060020a038116151561074857600080fd5b600160a060020a038616600090815260056020908152604080832033845290915290205461077c908563ffffffff61070516565b600160a060020a0387166000818152600560209081526040808320338452825280832094909455918152600490915220546107bd908563ffffffff61070516565b600160a060020a0380881660009081526004602052604080822093909355908716815220546107f2908563ffffffff6108fa16565b600160a060020a0380871660008181526004602090815260409182902094909455805188815290519193928a169260008051602061091483398151915292918290030190a350600195945050505050565b600082600160a060020a038116151561085b57600080fd5b3360009081526004602052604090205461087b908463ffffffff61070516565b3360009081526004602052604080822092909255600160a060020a038616815220546108ad908463ffffffff6108fa16565b600160a060020a0385166000818152600460209081526040918290209390935580518681529051919233926000805160206109148339815191529281900390910190a35060019392505050565b60008282018381101561090c57600080fd5b93925050505600ddf252ad1be2c89b69c2b068fc378daa952ba7f163c4a11628f55a4df523b3efa165627a7a7230582056b85cb09a0fd1b308e9310a5012d06b301cda9c932b994efc7d5768a3d0c5440029",
  "source": "pragma solidity 0.4.26;\r\nimport './ERC20Token.sol';\r\nimport './interfaces/IEtherToken.sol';\r\nimport '../utility/SafeMath.sol';\r\n\r\n/**\r\n  * @dev Ether tokenization contract\r\n  * \r\n  * 'Owned' is specified here for readability reasons\r\n*/\r\ncontract EtherToken is IEtherToken, ERC20Token {\r\n    using SafeMath for uint256;\r\n\r\n    /**\r\n      * @dev triggered when the total supply is increased\r\n      * \r\n      * @param _amount  amount that gets added to the supply\r\n    */\r\n    event Issuance(uint256 _amount);\r\n\r\n    /**\r\n      * @dev triggered when the total supply is decreased\r\n      * \r\n      * @param _amount  amount that gets removed from the supply\r\n    */\r\n    event Destruction(uint256 _amount);\r\n\r\n    /**\r\n      * @dev initializes a new EtherToken instance\r\n      * \r\n      * @param _name        token name\r\n      * @param _symbol      token symbol\r\n    */\r\n    constructor(string _name, string _symbol)\r\n        public\r\n        ERC20Token(_name, _symbol, 18, 0) {\r\n    }\r\n\r\n    /**\r\n      * @dev deposit ether on behalf of the sender\r\n    */\r\n    function deposit() public payable {\r\n        depositTo(msg.sender);\r\n    }\r\n\r\n    /**\r\n      * @dev withdraw ether to the sender's account\r\n      * \r\n      * @param _amount  amount of ether to withdraw\r\n    */\r\n    function withdraw(uint256 _amount) public {\r\n        withdrawTo(msg.sender, _amount);\r\n    }\r\n\r\n    /**\r\n      * @dev deposit ether to be entitled for a given account\r\n      * \r\n      * @param _to      account to be entitled for the ether\r\n    */\r\n    function depositTo(address _to)\r\n        public\r\n        payable\r\n        notThis(_to)\r\n    {\r\n        balanceOf[_to] = balanceOf[_to].add(msg.value); // add the value to the account balance\r\n        totalSupply = totalSupply.add(msg.value); // increase the total supply\r\n\r\n        emit Issuance(msg.value);\r\n        emit Transfer(this, _to, msg.value);\r\n    }\r\n\r\n    /**\r\n      * @dev withdraw ether entitled by the sender to a given account\r\n      * \r\n      * @param _to      account to receive the ether\r\n      * @param _amount  amount of ether to withdraw\r\n    */\r\n    function withdrawTo(address _to, uint256 _amount)\r\n        public\r\n        notThis(_to)\r\n    {\r\n        balanceOf[msg.sender] = balanceOf[msg.sender].sub(_amount); // deduct the amount from the account balance\r\n        totalSupply = totalSupply.sub(_amount); // decrease the total supply\r\n        _to.transfer(_amount); // send the amount to the target account\r\n\r\n        emit Transfer(msg.sender, this, _amount);\r\n        emit Destruction(_amount);\r\n    }\r\n\r\n    // ERC20 standard method overrides with some extra protection\r\n\r\n    /**\r\n      * @dev send coins\r\n      * throws on any error rather then return a false flag to minimize user errors\r\n      * \r\n      * @param _to      target address\r\n      * @param _value   transfer amount\r\n      * \r\n      * @return true if the transfer was successful, false if it wasn't\r\n    */\r\n    function transfer(address _to, uint256 _value)\r\n        public\r\n        notThis(_to)\r\n        returns (bool success)\r\n    {\r\n        assert(super.transfer(_to, _value));\r\n        return true;\r\n    }\r\n\r\n    /**\r\n      * @dev an account/contract attempts to get the coins\r\n      * throws on any error rather then return a false flag to minimize user errors\r\n      * \r\n      * @param _from    source address\r\n      * @param _to      target address\r\n      * @param _value   transfer amount\r\n      * \r\n      * @return true if the transfer was successful, false if it wasn't\r\n    */\r\n    function transferFrom(address _from, address _to, uint256 _value)\r\n        public\r\n        notThis(_to)\r\n        returns (bool success)\r\n    {\r\n        assert(super.transferFrom(_from, _to, _value));\r\n        return true;\r\n    }\r\n\r\n    /**\r\n      * @dev deposit ether in the account\r\n    */\r\n    function() public payable {\r\n        deposit();\r\n    }\r\n}\r\n",
  "sourcePath": "/home/safu/minddeft/jointerInc/bancorTry/temp/contracts/solidity/contracts/token/EtherToken.sol",
  "compiler": {
    "name": "solc",
    "version": "0.4.26+commit.4563c3fc.Emscripten.clang"
  },
  "schemaVersion": "3.1.0",
  "updatedAt": "2020-06-10T14:32:18.831Z",
  "devdoc": {
    "methods": {
      "approve(address,uint256)": {
        "details": "allow another account/contract to spend some tokens on your behalf\r throws on any error rather then return a false flag to minimize user errors\r \r also, to minimize the risk of the approve/transferFrom attack vector\r (see https://docs.google.com/document/d/1YLPtQxZu1UAvO9cZ1O2RPXBbT0mooh4DYKjA_jp-RLM/), approve has to be called twice\r in 2 separate transactions - once to change the allowance to 0 and secondly to change it to the new allowance value\r \r",
        "params": {
          "_spender": "approved address\r",
          "_value": "allowance amount\r \r"
        },
        "return": "true if the approval was successful, false if it wasn't\r"
      },
      "deposit()": {
        "details": "deposit ether on behalf of the sender\r"
      },
      "depositTo(address)": {
        "details": "deposit ether to be entitled for a given account\r \r",
        "params": {
          "_to": "account to be entitled for the ether\r"
        }
      },
      "transfer(address,uint256)": {
        "details": "send coins\r throws on any error rather then return a false flag to minimize user errors\r \r",
        "params": {
          "_to": "target address\r",
          "_value": "transfer amount\r \r"
        },
        "return": "true if the transfer was successful, false if it wasn't\r"
      },
      "transferFrom(address,address,uint256)": {
        "details": "an account/contract attempts to get the coins\r throws on any error rather then return a false flag to minimize user errors\r \r",
        "params": {
          "_from": "source address\r",
          "_to": "target address\r",
          "_value": "transfer amount\r \r"
        },
        "return": "true if the transfer was successful, false if it wasn't\r"
      },
      "withdraw(uint256)": {
        "details": "withdraw ether to the sender's account\r \r",
        "params": {
          "_amount": "amount of ether to withdraw\r"
        }
      },
      "withdrawTo(address,uint256)": {
        "details": "withdraw ether entitled by the sender to a given account\r \r",
        "params": {
          "_amount": "amount of ether to withdraw\r",
          "_to": "account to receive the ether\r"
        }
      }
    }
  },
  "userdoc": {
    "methods": {}
  }
}