{
  "contractName": "SmartTokenController",
  "abi": [
    {
      "constant": true,
      "inputs": [],
      "name": "bancorX",
      "outputs": [
        {
          "name": "",
          "type": "address"
        }
      ],
      "payable": false,
      "stateMutability": "view",
      "type": "function"
    },
    {
      "constant": false,
      "inputs": [
        {
          "name": "_token",
          "type": "address"
        },
        {
          "name": "_to",
          "type": "address"
        },
        {
          "name": "_amount",
          "type": "uint256"
        }
      ],
      "name": "withdrawTokens",
      "outputs": [],
      "payable": false,
      "stateMutability": "nonpayable",
      "type": "function"
    },
    {
      "constant": false,
      "inputs": [],
      "name": "acceptOwnership",
      "outputs": [],
      "payable": false,
      "stateMutability": "nonpayable",
      "type": "function"
    },
    {
      "constant": true,
      "inputs": [],
      "name": "owner",
      "outputs": [
        {
          "name": "",
          "type": "address"
        }
      ],
      "payable": false,
      "stateMutability": "view",
      "type": "function"
    },
    {
      "constant": true,
      "inputs": [],
      "name": "newOwner",
      "outputs": [
        {
          "name": "",
          "type": "address"
        }
      ],
      "payable": false,
      "stateMutability": "view",
      "type": "function"
    },
    {
      "constant": false,
      "inputs": [
        {
          "name": "_newOwner",
          "type": "address"
        }
      ],
      "name": "transferOwnership",
      "outputs": [],
      "payable": false,
      "stateMutability": "nonpayable",
      "type": "function"
    },
    {
      "constant": true,
      "inputs": [],
      "name": "token",
      "outputs": [
        {
          "name": "",
          "type": "address"
        }
      ],
      "payable": false,
      "stateMutability": "view",
      "type": "function"
    },
    {
      "inputs": [
        {
          "name": "_token",
          "type": "address"
        }
      ],
      "payable": false,
      "stateMutability": "nonpayable",
      "type": "constructor"
    },
    {
      "anonymous": false,
      "inputs": [
        {
          "indexed": true,
          "name": "_prevOwner",
          "type": "address"
        },
        {
          "indexed": true,
          "name": "_newOwner",
          "type": "address"
        }
      ],
      "name": "OwnerUpdate",
      "type": "event"
    },
    {
      "constant": false,
      "inputs": [
        {
          "name": "_newOwner",
          "type": "address"
        }
      ],
      "name": "transferTokenOwnership",
      "outputs": [],
      "payable": false,
      "stateMutability": "nonpayable",
      "type": "function"
    },
    {
      "constant": false,
      "inputs": [],
      "name": "acceptTokenOwnership",
      "outputs": [],
      "payable": false,
      "stateMutability": "nonpayable",
      "type": "function"
    },
    {
      "constant": false,
      "inputs": [
        {
          "name": "_token",
          "type": "address"
        },
        {
          "name": "_to",
          "type": "address"
        },
        {
          "name": "_amount",
          "type": "uint256"
        }
      ],
      "name": "withdrawFromToken",
      "outputs": [],
      "payable": false,
      "stateMutability": "nonpayable",
      "type": "function"
    },
    {
      "constant": false,
      "inputs": [
        {
          "name": "_from",
          "type": "address"
        },
        {
          "name": "_amount",
          "type": "uint256"
        }
      ],
      "name": "claimTokens",
      "outputs": [],
      "payable": false,
      "stateMutability": "nonpayable",
      "type": "function"
    },
    {
      "constant": false,
      "inputs": [
        {
          "name": "_bancorX",
          "type": "address"
        }
      ],
      "name": "setBancorX",
      "outputs": [],
      "payable": false,
      "stateMutability": "nonpayable",
      "type": "function"
    }
  ],
  "bytecode": "0x608060405234801561001057600080fd5b506040516020806107f6833981016040525160008054600160a060020a0319163317905580600160a060020a038116151561004a57600080fd5b5060028054600160a060020a031916600160a060020a039290921691909117905561077c8061007a6000396000f3006080604052600436106100a05763ffffffff60e060020a6000350416631120a77681146100a557806321e6b53d146100d657806338a5e016146100f957806341a5b33d1461010e5780635e35359e1461013857806379ba5097146101625780638da5cb5b14610177578063d4ee1d901461018c578063d924f0c3146101a1578063f2fde38b146101c2578063fc0c546a146101e3578063fe417fa5146101f8575b600080fd5b3480156100b157600080fd5b506100ba61021c565b60408051600160a060020a039092168252519081900360200190f35b3480156100e257600080fd5b506100f7600160a060020a036004351661022b565b005b34801561010557600080fd5b506100f76102c4565b34801561011a57600080fd5b506100f7600160a060020a0360043581169060243516604435610348565b34801561014457600080fd5b506100f7600160a060020a03600435811690602435166044356103f2565b34801561016e57600080fd5b506100f76104cf565b34801561018357600080fd5b506100ba610557565b34801561019857600080fd5b506100ba610566565b3480156101ad57600080fd5b506100f7600160a060020a0360043516610575565b3480156101ce57600080fd5b506100f7600160a060020a03600435166105bb565b3480156101ef57600080fd5b506100ba61061c565b34801561020457600080fd5b506100f7600160a060020a036004351660243561062b565b600354600160a060020a031681565b600054600160a060020a0316331461024257600080fd5b600254604080517ff2fde38b000000000000000000000000000000000000000000000000000000008152600160a060020a0384811660048301529151919092169163f2fde38b91602480830192600092919082900301818387803b1580156102a957600080fd5b505af11580156102bd573d6000803e3d6000fd5b5050505050565b600054600160a060020a031633146102db57600080fd5b600260009054906101000a9004600160a060020a0316600160a060020a03166379ba50976040518163ffffffff1660e060020a028152600401600060405180830381600087803b15801561032e57600080fd5b505af1158015610342573d6000803e3d6000fd5b50505050565b600054600160a060020a0316331461035f57600080fd5b600254604080517f5e35359e000000000000000000000000000000000000000000000000000000008152600160a060020a03868116600483015285811660248301526044820185905291519190921691635e35359e91606480830192600092919082900301818387803b1580156103d557600080fd5b505af11580156103e9573d6000803e3d6000fd5b50505050505050565b600054600160a060020a0316331461040957600080fd5b82600160a060020a038116151561041f57600080fd5b82600160a060020a038116151561043557600080fd5b83600160a060020a03811630141561044c57600080fd5b85600160a060020a031663a9059cbb86866040518363ffffffff1660e060020a0281526004018083600160a060020a0316600160a060020a0316815260200182815260200192505050600060405180830381600087803b1580156104af57600080fd5b505af11580156104c3573d6000803e3d6000fd5b50505050505050505050565b600154600160a060020a031633146104e657600080fd5b60015460008054604051600160a060020a0393841693909116917f343765429aea5a34b3ff6a3785a98a5abb2597aca87bfbb58632c173d585373a91a3600180546000805473ffffffffffffffffffffffffffffffffffffffff19908116600160a060020a03841617909155169055565b600054600160a060020a031681565b600154600160a060020a031681565b600054600160a060020a0316331461058c57600080fd5b6003805473ffffffffffffffffffffffffffffffffffffffff1916600160a060020a0392909216919091179055565b600054600160a060020a031633146105d257600080fd5b600054600160a060020a03828116911614156105ed57600080fd5b6001805473ffffffffffffffffffffffffffffffffffffffff1916600160a060020a0392909216919091179055565b600254600160a060020a031681565b600354600160a060020a0316331461064257600080fd5b600254604080517fa24835d1000000000000000000000000000000000000000000000000000000008152600160a060020a038581166004830152602482018590529151919092169163a24835d191604480830192600092919082900301818387803b1580156106b057600080fd5b505af11580156106c4573d6000803e3d6000fd5b5050600254604080517f867904b4000000000000000000000000000000000000000000000000000000008152336004820152602481018690529051600160a060020a03909216935063867904b4925060448082019260009290919082900301818387803b15801561073457600080fd5b505af1158015610748573d6000803e3d6000fd5b5050505050505600a165627a7a72305820ecdbe055617412e14a2cf6b409c2a9a2b26243d4642cd9c21bbb1983eaf8f1640029",
  "source": "pragma solidity 0.4.26;\r\nimport './interfaces/ISmartTokenController.sol';\r\nimport './interfaces/ISmartToken.sol';\r\nimport '../utility/TokenHolder.sol';\r\n\r\n/**\r\n  * @dev The smart token controller is an upgradable part of the smart token that allows\r\n  * more functionality as well as fixes for bugs/exploits.\r\n  * Once it accepts ownership of the token, it becomes the token's sole controller\r\n  * that can execute any of its functions.\r\n  * \r\n  * To upgrade the controller, ownership must be transferred to a new controller, along with\r\n  * any relevant data.\r\n  * \r\n  * The smart token must be set on construction and cannot be changed afterwards.\r\n  * Wrappers are provided (as opposed to a single 'execute' function) for each of the token's functions, for easier access.\r\n  * \r\n  * Note that the controller can transfer token ownership to a new controller that\r\n  * doesn't allow executing any function on the token, for a trustless solution.\r\n  * Doing that will also remove the owner's ability to upgrade the controller.\r\n*/\r\ncontract SmartTokenController is ISmartTokenController, TokenHolder {\r\n    ISmartToken public token;   // Smart Token contract\r\n    address public bancorX;     // BancorX contract\r\n\r\n    /**\r\n      * @dev initializes a new SmartTokenController instance\r\n      * \r\n      * @param  _token      smart token governed by the controller\r\n    */\r\n    constructor(ISmartToken _token)\r\n        public\r\n        validAddress(_token)\r\n    {\r\n        token = _token;\r\n    }\r\n\r\n    // ensures that the controller is the token's owner\r\n    modifier active() {\r\n        require(token.owner() == address(this));\r\n        _;\r\n    }\r\n\r\n    // ensures that the controller is not the token's owner\r\n    modifier inactive() {\r\n        require(token.owner() != address(this));\r\n        _;\r\n    }\r\n\r\n    /**\r\n      * @dev allows transferring the token ownership\r\n      * the new owner needs to accept the transfer\r\n      * can only be called by the contract owner\r\n      * \r\n      * @param _newOwner    new token owner\r\n    */\r\n    function transferTokenOwnership(address _newOwner) public ownerOnly {\r\n        token.transferOwnership(_newOwner);\r\n    }\r\n\r\n    /**\r\n      * @dev used by a new owner to accept a token ownership transfer\r\n      * can only be called by the contract owner\r\n    */\r\n    function acceptTokenOwnership() public ownerOnly {\r\n        token.acceptOwnership();\r\n    }\r\n\r\n    /**\r\n      * @dev withdraws tokens held by the controller and sends them to an account\r\n      * can only be called by the owner\r\n      * \r\n      * @param _token   ERC20 token contract address\r\n      * @param _to      account to receive the new amount\r\n      * @param _amount  amount to withdraw\r\n    */\r\n    function withdrawFromToken(IERC20Token _token, address _to, uint256 _amount) public ownerOnly {\r\n        ITokenHolder(token).withdrawTokens(_token, _to, _amount);\r\n    }\r\n\r\n    /**\r\n      * @dev allows the associated BancorX contract to claim tokens from any address (so that users\r\n      * dont have to first give allowance when calling BancorX)\r\n      * \r\n      * @param _from      address to claim the tokens from\r\n      * @param _amount    the amount of tokens to claim\r\n     */\r\n    function claimTokens(address _from, uint256 _amount) public {\r\n        // only the associated BancorX contract may call this method\r\n        require(msg.sender == bancorX);\r\n\r\n        // destroy the tokens belonging to _from, and issue the same amount to bancorX\r\n        token.destroy(_from, _amount);\r\n        token.issue(msg.sender, _amount);\r\n    }\r\n\r\n    /**\r\n      * @dev allows the owner to set the associated BancorX contract\r\n      * @param _bancorX    BancorX contract\r\n     */\r\n    function setBancorX(address _bancorX) public ownerOnly {\r\n        bancorX = _bancorX;\r\n    }\r\n}\r\n",
  "sourcePath": "/home/safu/minddeft/jointerInc/bancorTry/temp/contracts/solidity/contracts/token/SmartTokenController.sol",
  "compiler": {
    "name": "solc",
    "version": "0.4.26+commit.4563c3fc.Emscripten.clang"
  },
  "schemaVersion": "3.1.0",
  "updatedAt": "2020-06-10T14:32:18.843Z",
  "devdoc": {
    "methods": {
      "acceptOwnership()": {
        "details": "used by a new owner to accept an ownership transfer\r"
      },
      "acceptTokenOwnership()": {
        "details": "used by a new owner to accept a token ownership transfer\r can only be called by the contract owner\r"
      },
      "claimTokens(address,uint256)": {
        "details": "allows the associated BancorX contract to claim tokens from any address (so that users\r dont have to first give allowance when calling BancorX)\r \r",
        "params": {
          "_amount": "the amount of tokens to claim\r",
          "_from": "address to claim the tokens from\r"
        }
      },
      "setBancorX(address)": {
        "details": "allows the owner to set the associated BancorX contract\r",
        "params": {
          "_bancorX": "BancorX contract\r"
        }
      },
      "transferOwnership(address)": {
        "details": "allows transferring the contract ownership\r the new owner still needs to accept the transfer\r can only be called by the contract owner\r \r",
        "params": {
          "_newOwner": "new contract owner\r"
        }
      },
      "transferTokenOwnership(address)": {
        "details": "allows transferring the token ownership\r the new owner needs to accept the transfer\r can only be called by the contract owner\r \r",
        "params": {
          "_newOwner": "new token owner\r"
        }
      },
      "withdrawFromToken(address,address,uint256)": {
        "details": "withdraws tokens held by the controller and sends them to an account\r can only be called by the owner\r \r",
        "params": {
          "_amount": "amount to withdraw\r",
          "_to": "account to receive the new amount\r",
          "_token": "ERC20 token contract address\r"
        }
      },
      "withdrawTokens(address,address,uint256)": {
        "details": "withdraws tokens held by the contract and sends them to an account\r can only be called by the owner\r \r",
        "params": {
          "_amount": "amount to withdraw\r",
          "_to": "account to receive the new amount\r",
          "_token": "ERC20 token contract address\r"
        }
      }
    }
  },
  "userdoc": {
    "methods": {}
  }
}