{
  "contractName": "TestBancorNetwork",
  "abi": [
    {
      "constant": false,
      "inputs": [
        {
          "name": "_onlyOwnerCanUpdateRegistry",
          "type": "bool"
        }
      ],
      "name": "restrictRegistryUpdate",
      "outputs": [],
      "payable": false,
      "stateMutability": "nonpayable",
      "type": "function"
    },
    {
      "constant": false,
      "inputs": [
        {
          "name": "_token",
          "type": "address"
        },
        {
          "name": "_register",
          "type": "bool"
        }
      ],
      "name": "registerEtherToken",
      "outputs": [],
      "payable": false,
      "stateMutability": "nonpayable",
      "type": "function"
    },
    {
      "constant": true,
      "inputs": [
        {
          "name": "_path",
          "type": "address[]"
        },
        {
          "name": "_amount",
          "type": "uint256"
        }
      ],
      "name": "getReturnByPath",
      "outputs": [
        {
          "name": "",
          "type": "uint256"
        },
        {
          "name": "",
          "type": "uint256"
        }
      ],
      "payable": false,
      "stateMutability": "view",
      "type": "function"
    },
    {
      "constant": false,
      "inputs": [
        {
          "name": "_path",
          "type": "address[]"
        },
        {
          "name": "_amount",
          "type": "uint256"
        },
        {
          "name": "_minReturn",
          "type": "uint256"
        },
        {
          "name": "_for",
          "type": "address"
        },
        {
          "name": "",
          "type": "uint256"
        },
        {
          "name": "",
          "type": "uint256"
        },
        {
          "name": "",
          "type": "uint8"
        },
        {
          "name": "",
          "type": "bytes32"
        },
        {
          "name": "",
          "type": "bytes32"
        }
      ],
      "name": "convertForPrioritized",
      "outputs": [
        {
          "name": "",
          "type": "uint256"
        }
      ],
      "payable": true,
      "stateMutability": "payable",
      "type": "function"
    },
    {
      "constant": false,
      "inputs": [
        {
          "name": "_path",
          "type": "address[]"
        },
        {
          "name": "_amount",
          "type": "uint256"
        },
        {
          "name": "_minReturn",
          "type": "uint256"
        },
        {
          "name": "_for",
          "type": "address"
        },
        {
          "name": "_affiliateAccount",
          "type": "address"
        },
        {
          "name": "_affiliateFee",
          "type": "uint256"
        }
      ],
      "name": "claimAndConvertFor2",
      "outputs": [
        {
          "name": "",
          "type": "uint256"
        }
      ],
      "payable": false,
      "stateMutability": "nonpayable",
      "type": "function"
    },
    {
      "constant": true,
      "inputs": [],
      "name": "onlyOwnerCanUpdateRegistry",
      "outputs": [
        {
          "name": "",
          "type": "bool"
        }
      ],
      "payable": false,
      "stateMutability": "view",
      "type": "function"
    },
    {
      "constant": false,
      "inputs": [],
      "name": "updateRegistry",
      "outputs": [],
      "payable": false,
      "stateMutability": "nonpayable",
      "type": "function"
    },
    {
      "constant": false,
      "inputs": [
        {
          "name": "_path",
          "type": "address[]"
        },
        {
          "name": "_amount",
          "type": "uint256"
        },
        {
          "name": "_minReturn",
          "type": "uint256"
        },
        {
          "name": "_for",
          "type": "address"
        },
        {
          "name": "",
          "type": "uint256[]"
        },
        {
          "name": "_affiliateAccount",
          "type": "address"
        },
        {
          "name": "_affiliateFee",
          "type": "uint256"
        }
      ],
      "name": "convertForPrioritized4",
      "outputs": [
        {
          "name": "",
          "type": "uint256"
        }
      ],
      "payable": true,
      "stateMutability": "payable",
      "type": "function"
    },
    {
      "constant": false,
      "inputs": [
        {
          "name": "_path",
          "type": "address[]"
        },
        {
          "name": "_amount",
          "type": "uint256"
        },
        {
          "name": "_minReturn",
          "type": "uint256"
        },
        {
          "name": "_affiliateAccount",
          "type": "address"
        },
        {
          "name": "_affiliateFee",
          "type": "uint256"
        }
      ],
      "name": "convert2",
      "outputs": [
        {
          "name": "",
          "type": "uint256"
        }
      ],
      "payable": true,
      "stateMutability": "payable",
      "type": "function"
    },
    {
      "constant": true,
      "inputs": [],
      "name": "maxAffiliateFee",
      "outputs": [
        {
          "name": "",
          "type": "uint256"
        }
      ],
      "payable": false,
      "stateMutability": "view",
      "type": "function"
    },
    {
      "constant": false,
      "inputs": [
        {
          "name": "_token",
          "type": "address"
        },
        {
          "name": "_to",
          "type": "address"
        },
        {
          "name": "_amount",
          "type": "uint256"
        }
      ],
      "name": "withdrawTokens",
      "outputs": [],
      "payable": false,
      "stateMutability": "nonpayable",
      "type": "function"
    },
    {
      "constant": true,
      "inputs": [],
      "name": "prevRegistry",
      "outputs": [
        {
          "name": "",
          "type": "address"
        }
      ],
      "payable": false,
      "stateMutability": "view",
      "type": "function"
    },
    {
      "constant": false,
      "inputs": [
        {
          "name": "_path",
          "type": "address[]"
        },
        {
          "name": "_amount",
          "type": "uint256"
        },
        {
          "name": "_minReturn",
          "type": "uint256"
        },
        {
          "name": "_toBlockchain",
          "type": "bytes32"
        },
        {
          "name": "_to",
          "type": "bytes32"
        },
        {
          "name": "_conversionId",
          "type": "uint256"
        },
        {
          "name": "",
          "type": "uint256"
        },
        {
          "name": "",
          "type": "uint8"
        },
        {
          "name": "",
          "type": "bytes32"
        },
        {
          "name": "",
          "type": "bytes32"
        }
      ],
      "name": "xConvertPrioritized",
      "outputs": [
        {
          "name": "",
          "type": "uint256"
        }
      ],
      "payable": true,
      "stateMutability": "payable",
      "type": "function"
    },
    {
      "constant": false,
      "inputs": [
        {
          "name": "_path",
          "type": "address[]"
        },
        {
          "name": "_amount",
          "type": "uint256"
        },
        {
          "name": "_minReturn",
          "type": "uint256"
        },
        {
          "name": "_for",
          "type": "address"
        },
        {
          "name": "",
          "type": "uint256"
        },
        {
          "name": "",
          "type": "uint8"
        },
        {
          "name": "",
          "type": "bytes32"
        },
        {
          "name": "",
          "type": "bytes32"
        }
      ],
      "name": "convertForPrioritized2",
      "outputs": [
        {
          "name": "",
          "type": "uint256"
        }
      ],
      "payable": true,
      "stateMutability": "payable",
      "type": "function"
    },
    {
      "constant": false,
      "inputs": [],
      "name": "acceptOwnership",
      "outputs": [],
      "payable": false,
      "stateMutability": "nonpayable",
      "type": "function"
    },
    {
      "constant": true,
      "inputs": [],
      "name": "registry",
      "outputs": [
        {
          "name": "",
          "type": "address"
        }
      ],
      "payable": false,
      "stateMutability": "view",
      "type": "function"
    },
    {
      "constant": true,
      "inputs": [
        {
          "name": "",
          "type": "address"
        }
      ],
      "name": "etherTokens",
      "outputs": [
        {
          "name": "",
          "type": "bool"
        }
      ],
      "payable": false,
      "stateMutability": "view",
      "type": "function"
    },
    {
      "constant": true,
      "inputs": [
        {
          "name": "",
          "type": "bytes32"
        }
      ],
      "name": "conversionHashes",
      "outputs": [
        {
          "name": "",
          "type": "bool"
        }
      ],
      "payable": false,
      "stateMutability": "view",
      "type": "function"
    },
    {
      "constant": true,
      "inputs": [],
      "name": "owner",
      "outputs": [
        {
          "name": "",
          "type": "address"
        }
      ],
      "payable": false,
      "stateMutability": "view",
      "type": "function"
    },
    {
      "constant": false,
      "inputs": [
        {
          "name": "_path",
          "type": "address[]"
        },
        {
          "name": "_amount",
          "type": "uint256"
        },
        {
          "name": "_minReturn",
          "type": "uint256"
        },
        {
          "name": "_toBlockchain",
          "type": "bytes32"
        },
        {
          "name": "_to",
          "type": "bytes32"
        },
        {
          "name": "_conversionId",
          "type": "uint256"
        },
        {
          "name": "",
          "type": "uint256[]"
        },
        {
          "name": "_affiliateAccount",
          "type": "address"
        },
        {
          "name": "_affiliateFee",
          "type": "uint256"
        }
      ],
      "name": "xConvertPrioritized3",
      "outputs": [
        {
          "name": "",
          "type": "uint256"
        }
      ],
      "payable": true,
      "stateMutability": "payable",
      "type": "function"
    },
    {
      "constant": true,
      "inputs": [],
      "name": "CONVERTER_CONVERSION_WHITELIST",
      "outputs": [
        {
          "name": "",
          "type": "uint256"
        }
      ],
      "payable": false,
      "stateMutability": "view",
      "type": "function"
    },
    {
      "constant": false,
      "inputs": [
        {
          "name": "_path",
          "type": "address[]"
        },
        {
          "name": "_amount",
          "type": "uint256"
        },
        {
          "name": "_minReturn",
          "type": "uint256"
        },
        {
          "name": "_for",
          "type": "address"
        },
        {
          "name": "_affiliateAccount",
          "type": "address"
        },
        {
          "name": "_affiliateFee",
          "type": "uint256"
        }
      ],
      "name": "convertFor2",
      "outputs": [
        {
          "name": "",
          "type": "uint256"
        }
      ],
      "payable": true,
      "stateMutability": "payable",
      "type": "function"
    },
    {
      "constant": false,
      "inputs": [
        {
          "name": "_path",
          "type": "address[]"
        },
        {
          "name": "_amount",
          "type": "uint256"
        },
        {
          "name": "_minReturn",
          "type": "uint256"
        },
        {
          "name": "_for",
          "type": "address"
        }
      ],
      "name": "claimAndConvertFor",
      "outputs": [
        {
          "name": "",
          "type": "uint256"
        }
      ],
      "payable": false,
      "stateMutability": "nonpayable",
      "type": "function"
    },
    {
      "constant": false,
      "inputs": [
        {
          "name": "_path",
          "type": "address[]"
        },
        {
          "name": "_amount",
          "type": "uint256"
        },
        {
          "name": "_minReturn",
          "type": "uint256"
        },
        {
          "name": "_for",
          "type": "address"
        },
        {
          "name": "",
          "type": "uint256"
        },
        {
          "name": "",
          "type": "uint256"
        },
        {
          "name": "",
          "type": "uint8"
        },
        {
          "name": "",
          "type": "bytes32"
        },
        {
          "name": "",
          "type": "bytes32"
        }
      ],
      "name": "convertForPrioritized3",
      "outputs": [
        {
          "name": "",
          "type": "uint256"
        }
      ],
      "payable": true,
      "stateMutability": "payable",
      "type": "function"
    },
    {
      "constant": false,
      "inputs": [],
      "name": "restoreRegistry",
      "outputs": [],
      "payable": false,
      "stateMutability": "nonpayable",
      "type": "function"
    },
    {
      "constant": false,
      "inputs": [
        {
          "name": "_path",
          "type": "address[]"
        },
        {
          "name": "_amount",
          "type": "uint256"
        },
        {
          "name": "_minReturn",
          "type": "uint256"
        },
        {
          "name": "_toBlockchain",
          "type": "bytes32"
        },
        {
          "name": "_to",
          "type": "bytes32"
        },
        {
          "name": "_conversionId",
          "type": "uint256"
        }
      ],
      "name": "xConvert",
      "outputs": [
        {
          "name": "",
          "type": "uint256"
        }
      ],
      "payable": true,
      "stateMutability": "payable",
      "type": "function"
    },
    {
      "constant": false,
      "inputs": [
        {
          "name": "_path",
          "type": "address[]"
        },
        {
          "name": "_amount",
          "type": "uint256"
        },
        {
          "name": "_minReturn",
          "type": "uint256"
        }
      ],
      "name": "claimAndConvert",
      "outputs": [
        {
          "name": "",
          "type": "uint256"
        }
      ],
      "payable": false,
      "stateMutability": "nonpayable",
      "type": "function"
    },
    {
      "constant": false,
      "inputs": [
        {
          "name": "_path",
          "type": "address[]"
        },
        {
          "name": "_amount",
          "type": "uint256"
        },
        {
          "name": "_minReturn",
          "type": "uint256"
        },
        {
          "name": "_for",
          "type": "address"
        }
      ],
      "name": "convertFor",
      "outputs": [
        {
          "name": "",
          "type": "uint256"
        }
      ],
      "payable": true,
      "stateMutability": "payable",
      "type": "function"
    },
    {
      "constant": false,
      "inputs": [
        {
          "name": "_path",
          "type": "address[]"
        },
        {
          "name": "_amount",
          "type": "uint256"
        },
        {
          "name": "_minReturn",
          "type": "uint256"
        },
        {
          "name": "_toBlockchain",
          "type": "bytes32"
        },
        {
          "name": "_to",
          "type": "bytes32"
        },
        {
          "name": "_conversionId",
          "type": "uint256"
        },
        {
          "name": "_affiliateAccount",
          "type": "address"
        },
        {
          "name": "_affiliateFee",
          "type": "uint256"
        }
      ],
      "name": "xConvert2",
      "outputs": [
        {
          "name": "",
          "type": "uint256"
        }
      ],
      "payable": true,
      "stateMutability": "payable",
      "type": "function"
    },
    {
      "constant": false,
      "inputs": [
        {
          "name": "_path",
          "type": "address[]"
        },
        {
          "name": "_amount",
          "type": "uint256"
        },
        {
          "name": "_minReturn",
          "type": "uint256"
        },
        {
          "name": "_toBlockchain",
          "type": "bytes32"
        },
        {
          "name": "_to",
          "type": "bytes32"
        },
        {
          "name": "_conversionId",
          "type": "uint256"
        },
        {
          "name": "",
          "type": "uint256[]"
        }
      ],
      "name": "xConvertPrioritized2",
      "outputs": [
        {
          "name": "",
          "type": "uint256"
        }
      ],
      "payable": true,
      "stateMutability": "payable",
      "type": "function"
    },
    {
      "constant": true,
      "inputs": [],
      "name": "newOwner",
      "outputs": [
        {
          "name": "",
          "type": "address"
        }
      ],
      "payable": false,
      "stateMutability": "view",
      "type": "function"
    },
    {
      "constant": false,
      "inputs": [
        {
          "name": "_path",
          "type": "address[]"
        },
        {
          "name": "_amount",
          "type": "uint256"
        },
        {
          "name": "_minReturn",
          "type": "uint256"
        },
        {
          "name": "_affiliateAccount",
          "type": "address"
        },
        {
          "name": "_affiliateFee",
          "type": "uint256"
        }
      ],
      "name": "claimAndConvert2",
      "outputs": [
        {
          "name": "",
          "type": "uint256"
        }
      ],
      "payable": false,
      "stateMutability": "nonpayable",
      "type": "function"
    },
    {
      "constant": false,
      "inputs": [
        {
          "name": "_newOwner",
          "type": "address"
        }
      ],
      "name": "transferOwnership",
      "outputs": [],
      "payable": false,
      "stateMutability": "nonpayable",
      "type": "function"
    },
    {
      "constant": false,
      "inputs": [
        {
          "name": "_path",
          "type": "address[]"
        },
        {
          "name": "_amount",
          "type": "uint256"
        },
        {
          "name": "_minReturn",
          "type": "uint256"
        }
      ],
      "name": "convert",
      "outputs": [
        {
          "name": "",
          "type": "uint256"
        }
      ],
      "payable": true,
      "stateMutability": "payable",
      "type": "function"
    },
    {
      "constant": false,
      "inputs": [
        {
          "name": "_maxAffiliateFee",
          "type": "uint256"
        }
      ],
      "name": "setMaxAffiliateFee",
      "outputs": [],
      "payable": false,
      "stateMutability": "nonpayable",
      "type": "function"
    },
    {
      "inputs": [
        {
          "name": "_amount",
          "type": "uint256"
        },
        {
          "name": "_fee",
          "type": "uint256"
        }
      ],
      "payable": false,
      "stateMutability": "nonpayable",
      "type": "constructor"
    },
    {
      "anonymous": false,
      "inputs": [
        {
          "indexed": true,
          "name": "_smartToken",
          "type": "address"
        },
        {
          "indexed": true,
          "name": "_fromToken",
          "type": "address"
        },
        {
          "indexed": true,
          "name": "_toToken",
          "type": "address"
        },
        {
          "indexed": false,
          "name": "_fromAmount",
          "type": "uint256"
        },
        {
          "indexed": false,
          "name": "_toAmount",
          "type": "uint256"
        },
        {
          "indexed": false,
          "name": "_trader",
          "type": "address"
        }
      ],
      "name": "Conversion",
      "type": "event"
    },
    {
      "anonymous": false,
      "inputs": [
        {
          "indexed": true,
          "name": "_prevOwner",
          "type": "address"
        },
        {
          "indexed": true,
          "name": "_newOwner",
          "type": "address"
        }
      ],
      "name": "OwnerUpdate",
      "type": "event"
    },
    {
      "constant": true,
      "inputs": [],
      "name": "getReturnOld",
      "outputs": [
        {
          "name": "",
          "type": "uint256"
        },
        {
          "name": "",
          "type": "uint256"
        }
      ],
      "payable": false,
      "stateMutability": "view",
      "type": "function"
    },
    {
      "constant": true,
      "inputs": [],
      "name": "getReturnNew",
      "outputs": [
        {
          "name": "",
          "type": "uint256"
        },
        {
          "name": "",
          "type": "uint256"
        }
      ],
      "payable": false,
      "stateMutability": "view",
      "type": "function"
    }
  ],
  "bytecode": "0x60806040526175306004553480156200001757600080fd5b5060405160408062002f958339810160405280516020909101516000805433600160a060020a03199182161790915560028054821660019081179091556003805490921617905581620000696200010c565b90815260405190819003602001906000f0801580156200008d573d6000803e3d6000fd5b5060078054600160a060020a031916600160a060020a03929092169190911790558181620000ba6200011c565b9182526020820152604080519182900301906000f080158015620000e2573d6000803e3d6000fd5b5060088054600160a060020a031916600160a060020a0392909216919091179055506200012d9050565b60405160f28062002d9983390190565b60405161010a8062002e8b83390190565b612c5c806200013d6000396000f3006080604052600436106101b35763ffffffff60e060020a600035041663024c7ec781146101b857806302ef521e146101d45780630c8496cc146101fa5780631134269a1461026a5780632978c10e146102f95780632fe8a6ad1461037057806349d10b64146103995780634de006cb146103ae578063569706eb1461045a5780635d732ff2146104bd5780635e35359e146104d257806361cd756e146104fc5780636896b9991461052d578063699e7546146105a85780636b08f2ef146105bd57806379ba5097146106345780637b103999146106495780638077ccf71461065e57806389e63a601461067f5780638da5cb5b146106975780638dc56657146106ac57806392d1abb71461075a57806398e957401461076f578063ab6214ce14610784578063b1e9932b146107ee578063b406d3861461026a578063b4a176d314610859578063c52173de1461086e578063c7ba24bc146108cd578063c98fefed1461092b578063cb32564e14610989578063ce200963146109fd578063d4ee1d9014610a9a578063e57738e514610aaf578063f2fde38b14610b1f578063f3898a9714610b40578063f3bc7d2a14610b91575b600080fd5b3480156101c457600080fd5b506101d26004351515610ba9565b005b3480156101e057600080fd5b506101d2600160a060020a03600435166024351515610c00565b34801561020657600080fd5b5060408051602060048035808201358381028086018501909652808552610251953695939460249493850192918291850190849080828437509497505093359450610c719350505050565b6040805192835260208301919091528051918290030190f35b604080516020600480358082013583810280860185019096528085526102e79536959394602494938501929182918501908490808284375094975050843595505050602083013592600160a060020a0360408201351692506060810135915060808101359060ff60a0820135169060c08101359060e00135611585565b60408051918252519081900360200190f35b34801561030557600080fd5b50604080516020600480358082013583810280860185019096528085526102e79536959394602494938501929182918501908490808284375094975050843595505050602083013592600160a060020a036040820135811693506060820135169150608001356115a4565b34801561037c57600080fd5b506103856115e8565b604080519115158252519081900360200190f35b3480156103a557600080fd5b506101d2611609565b604080516020600480358082013583810280860185019096528085526102e7953695939460249493850192918291850190849080828437505060408051602060608901358a01803582810280850184018652818552999c8b359c848d01359c96870135600160a060020a03169b919a5098506080909501965092945081019282918501908490808284375094975050508335600160a060020a03169450505060209091013590506117a7565b604080516020600480358082013583810280860185019096528085526102e79536959394602494938501929182918501908490808284375094975050843595505050602083013592600160a060020a0360408201351692506060013590506117b7565b3480156104c957600080fd5b506102e76117d1565b3480156104de57600080fd5b506101d2600160a060020a03600435811690602435166044356117d7565b34801561050857600080fd5b506105116118b4565b60408051600160a060020a039092168252519081900360200190f35b604080516020600480358082013583810280860185019096528085526102e79536959394602494938501929182918501908490808284375094975050843595505050602083013592604081013592506060810135915060808101359060a08101359060ff60c0820135169060e08101359061010001356118c3565b3480156105b457600080fd5b506102516118e5565b604080516020600480358082013583810280860185019096528085526102e79536959394602494938501929182918501908490808284375094975050843595505050602083013592600160a060020a0360408201351692506060810135915060ff6080820135169060a08101359060c0013561190a565b34801561064057600080fd5b506101d2611928565b34801561065557600080fd5b506105116119b0565b34801561066a57600080fd5b50610385600160a060020a03600435166119bf565b34801561068b57600080fd5b506103856004356119d4565b3480156106a357600080fd5b506105116119e9565b604080516020600480358082013583810280860185019096528085526102e795369593946024949385019291829185019084908082843750506040805160a088013589018035602081810284810182018652828552999c8b359c828d01359c968701359b60608801359b5060808801359a50919850965060c0909501949281019282918501908490808284375094975050508335600160a060020a03169450505060209091013590506119f8565b34801561076657600080fd5b506102e7611a0a565b34801561077b57600080fd5b50610251611a0f565b604080516020600480358082013583810280860185019096528085526102e79536959394602494938501929182918501908490808284375094975050843595505050602083013592600160a060020a03604082013581169350606082013516915060800135611a2c565b3480156107fa57600080fd5b50604080516020600480358082013583810280860185019096528085526102e7953695939460249493850192918291850190849080828437509497505084359550505060208301359260400135600160a060020a03169150611b829050565b34801561086557600080fd5b506101d2611b9c565b604080516020600480358082013583810280860185019096528085526102e79536959394602494938501929182918501908490808284375094975050843595505050602083013592604081013592506060810135915060800135611be4565b3480156108d957600080fd5b50604080516020600480358082013583810280860185019096528085526102e795369593946024949385019291829185019084908082843750949750508435955050506020909201359150611c029050565b604080516020600480358082013583810280860185019096528085526102e7953695939460249493850192918291850190849080828437509497505084359550505060208301359260400135600160a060020a03169150611c1a9050565b604080516020600480358082013583810280860185019096528085526102e795369593946024949385019291829185019084908082843750949750508435955050506020830135926040810135925060608101359150608081013590600160a060020a0360a0820135169060c00135611c2b565b604080516020600480358082013583810280860185019096528085526102e795369593946024949385019291829185019084908082843750506040805160a088013589018035602081810284810182018652828552999c8b359c828d01359c968701359b60608801359b5060808801359a50919850965060c09095019492810192829185019084908082843750949750611db99650505050505050565b348015610aa657600080fd5b50610511611dcc565b348015610abb57600080fd5b50604080516020600480358082013583810280860185019096528085526102e79536959394602494938501929182918501908490808284375094975050843595505050602083013592600160a060020a036040820135169250606001359050611ddb565b348015610b2b57600080fd5b506101d2600160a060020a0360043516611deb565b604080516020600480358082013583810280860185019096528085526102e795369593946024949385019291829185019084908082843750949750508435955050506020909201359150611e4c9050565b348015610b9d57600080fd5b506101d2600435611e5c565b600054600160a060020a03163314610bc057600080fd5b60038054911515740100000000000000000000000000000000000000000274ff000000000000000000000000000000000000000019909216919091179055565b600054600160a060020a03163314610c1757600080fd5b81600160a060020a0381161515610c2d57600080fd5b82600160a060020a038116301415610c4457600080fd5b5050600160a060020a03919091166000908152600560205260409020805460ff1916911515919091179055565b6000806000806000806000806000806000806000610cae7f42616e636f72466f726d756c6100000000000000000000000000000000000000611e88565b94508d9a5060028f51118015610cc957508e51600290066001145b1515610cd457600080fd5b600293505b8e51841015611570578e60028503815181101515610cf357fe5b9060200190602002015192508e60018503815181101515610d1057fe5b9060200190602002015191508e84815181101515610d2a57fe5b90602001906020020151905081600160a060020a031681600160a060020a03161415611112576003841080610d8b57508e60038503815181101515610d6b57fe5b90602001906020020151600160a060020a031682600160a060020a031614155b15610e885781600160a060020a03166318160ddd6040518163ffffffff1660e060020a028152600401602060405180830381600087803b158015610dce57600080fd5b505af1158015610de2573d6000803e3d6000fd5b505050506040513d6020811015610df857600080fd5b5051604080517f8da5cb5b0000000000000000000000000000000000000000000000000000000081529051919a50600160a060020a03841691638da5cb5b916004808201926020929091908290030181600087803b158015610e5957600080fd5b505af1158015610e6d573d6000803e3d6000fd5b505050506040513d6020811015610e8357600080fd5b505195505b85600160a060020a031663d8959512846040518263ffffffff1660e060020a0281526004018082600160a060020a0316600160a060020a03168152602001915050602060405180830381600087803b158015610ee357600080fd5b505af1158015610ef7573d6000803e3d6000fd5b505050506040513d6020811015610f0d57600080fd5b5051604080517f0e53aae9000000000000000000000000000000000000000000000000000000008152600160a060020a0386811660048301529151929a5090881691630e53aae99160248082019260a0929091908290030181600087803b158015610f7757600080fd5b505af1158015610f8b573d6000803e3d6000fd5b505050506040513d60a0811015610fa157600080fd5b50602090810151604080517f29a00e7c000000000000000000000000000000000000000000000000000000008152600481018d9052602481018c905263ffffffff83166044820152606481018f90529051919950600160a060020a038816926329a00e7c926084808401938290030181600087803b15801561102257600080fd5b505af1158015611036573d6000803e3d6000fd5b505050506040513d602081101561104c57600080fd5b5051604080517f579cd3ca0000000000000000000000000000000000000000000000000000000081529051919c5061110291620f4240916110f691600160a060020a038b169163579cd3ca9160048083019260209291908290030181600087803b1580156110b957600080fd5b505af11580156110cd573d6000803e3d6000fd5b505050506040513d60208110156110e357600080fd5b50518e9063ffffffff90811690611f2016565b9063ffffffff611f5916565b9a8b90039a9950978a0197611565565b81600160a060020a031683600160a060020a031614156114a657600384108061116757508e6003850381518110151561114757fe5b90602001906020020151600160a060020a031682600160a060020a031614155b156112645781600160a060020a03166318160ddd6040518163ffffffff1660e060020a028152600401602060405180830381600087803b1580156111aa57600080fd5b505af11580156111be573d6000803e3d6000fd5b505050506040513d60208110156111d457600080fd5b5051604080517f8da5cb5b0000000000000000000000000000000000000000000000000000000081529051919a50600160a060020a03841691638da5cb5b916004808201926020929091908290030181600087803b15801561123557600080fd5b505af1158015611249573d6000803e3d6000fd5b505050506040513d602081101561125f57600080fd5b505195505b85600160a060020a031663d8959512826040518263ffffffff1660e060020a0281526004018082600160a060020a0316600160a060020a03168152602001915050602060405180830381600087803b1580156112bf57600080fd5b505af11580156112d3573d6000803e3d6000fd5b505050506040513d60208110156112e957600080fd5b5051604080517f0e53aae9000000000000000000000000000000000000000000000000000000008152600160a060020a0384811660048301529151929a5090881691630e53aae99160248082019260a0929091908290030181600087803b15801561135357600080fd5b505af1158015611367573d6000803e3d6000fd5b505050506040513d60a081101561137d57600080fd5b50602090810151604080517f49f9b0f7000000000000000000000000000000000000000000000000000000008152600481018d9052602481018c905263ffffffff83166044820152606481018f90529051919950600160a060020a038816926349f9b0f7926084808401938290030181600087803b1580156113fe57600080fd5b505af1158015611412573d6000803e3d6000fd5b505050506040513d602081101561142857600080fd5b5051604080517f579cd3ca0000000000000000000000000000000000000000000000000000000081529051919c5061149591620f4240916110f691600160a060020a038b169163579cd3ca9160048083019260209291908290030181600087803b1580156110b957600080fd5b9950898b039a508a89039850611565565b60038410806114e157508e600385038151811015156114c157fe5b90602001906020020151600160a060020a031682600160a060020a031614155b156115535781600160a060020a0316638da5cb5b6040518163ffffffff1660e060020a028152600401602060405180830381600087803b15801561152457600080fd5b505af1158015611538573d6000803e3d6000fd5b505050506040513d602081101561154e57600080fd5b505195505b61155f8684838e611f7c565b909b5099505b600284019350610cd9565b50989d979c50969a5050505050505050505050565b60006115968a8a8a8a600080611a2c565b9a9950505050505050505050565b6000808760008151811015156115b657fe5b9060200190602002015190506115ce8133308a61209a565b6115dc888888888888611a2c565b98975050505050505050565b60035474010000000000000000000000000000000000000000900460ff1681565b60008054600160a060020a031633148061163e575060035474010000000000000000000000000000000000000000900460ff16155b151561164957600080fd5b6116727f436f6e7472616374526567697374727900000000000000000000000000000000611e88565b600254909150600160a060020a0380831691161480159061169b5750600160a060020a03811615155b15156116a657600080fd5b604080517fbb34534c0000000000000000000000000000000000000000000000000000000081527f436f6e747261637452656769737472790000000000000000000000000000000060048201529051600091600160a060020a0384169163bb34534c9160248082019260209290919082900301818787803b15801561172a57600080fd5b505af115801561173e573d6000803e3d6000fd5b505050506040513d602081101561175457600080fd5b5051600160a060020a0316141561176a57600080fd5b6002805460038054600160a060020a0380841673ffffffffffffffffffffffffffffffffffffffff19928316179092559091169216919091179055565b60006115dc888888888787611a2c565b60006117c7868686338787611a2c565b9695505050505050565b60045481565b600054600160a060020a031633146117ee57600080fd5b82600160a060020a038116151561180457600080fd5b82600160a060020a038116151561181a57600080fd5b83600160a060020a03811630141561183157600080fd5b85600160a060020a031663a9059cbb86866040518363ffffffff1660e060020a0281526004018083600160a060020a0316600160a060020a0316815260200182815260200192505050600060405180830381600087803b15801561189457600080fd5b505af11580156118a8573d6000803e3d6000fd5b50505050505050505050565b600354600160a060020a031681565b60006118d68b8b8b8b8b8b600080611c2b565b9b9a5050505050505050505050565b600854600090819061190290600160a060020a0316828080611f7c565b915091509091565b600061191b89898989600080611a2c565b9998505050505050505050565b600154600160a060020a0316331461193f57600080fd5b60015460008054604051600160a060020a0393841693909116917f343765429aea5a34b3ff6a3785a98a5abb2597aca87bfbb58632c173d585373a91a3600180546000805473ffffffffffffffffffffffffffffffffffffffff19908116600160a060020a03841617909155169055565b600254600160a060020a031681565b60056020526000908152604090205460ff1681565b60066020526000908152604090205460ff1681565b600054600160a060020a031681565b60006115968a8a8a8a8a8a8989611c2b565b600181565b600754600090819061190290600160a060020a0316828080611f7c565b600080600060028951118015611a4457506015895111155b8015611a5557508851600290066001145b1515611a6057600080fd5b611a6a89876122e0565b1515611a7557600080fd5b611a99896000815181101515611a8757fe5b90602001906020020151896000612572565b611aa68989898888612620565b91508860018a5103815181101515611aba57fe5b6020908102909101810151600160a060020a0381166000908152600590925260409091205490915060ff1615611b6a5780600160a060020a031663205c287887846040518363ffffffff1660e060020a0281526004018083600160a060020a0316600160a060020a0316815260200182815260200192505050600060405180830381600087803b158015611b4d57600080fd5b505af1158015611b61573d6000803e3d6000fd5b50505050611b76565b611b768130888561209a565b50979650505050505050565b6000611b93858585856000806115a4565b95945050505050565b600054600160a060020a03163314611bb357600080fd5b6003546002805473ffffffffffffffffffffffffffffffffffffffff1916600160a060020a03909216919091179055565b6000611bf7878787878787600080611c2b565b979650505050505050565b6000611c12848484600080611ddb565b949350505050565b6000611b9385858585600080611a2c565b60008060028a51118015611c41575060158a5111155b8015611c5257508951600290066001145b1515611c5d57600080fd5b611c867f424e54546f6b656e000000000000000000000000000000000000000000000000611e88565b600160a060020a03168a60018c5103815181101515611ca157fe5b60209081029091010151600160a060020a031614611cbe57600080fd5b611ce28a6000815181101515611cd057fe5b906020019060200201518a6001612572565b611cef8a8a8a8787612620565b9050611d1a7f42616e636f725800000000000000000000000000000000000000000000000000611e88565b604080517f427c0374000000000000000000000000000000000000000000000000000000008152600481018a90526024810189905260448101849052606481018890529051600160a060020a03929092169163427c03749160848082019260009290919082900301818387803b158015611d9357600080fd5b505af1158015611da7573d6000803e3d6000fd5b50929c9b505050505050505050505050565b60006115dc888888888888600080611c2b565b600154600160a060020a031681565b60006117c78686863387876115a4565b600054600160a060020a03163314611e0257600080fd5b600054600160a060020a0382811691161415611e1d57600080fd5b6001805473ffffffffffffffffffffffffffffffffffffffff1916600160a060020a0392909216919091179055565b6000611c128484846000806117b7565b600054600160a060020a03163314611e7357600080fd5b620f4240811115611e8357600080fd5b600455565b600254604080517fbb34534c000000000000000000000000000000000000000000000000000000008152600481018490529051600092600160a060020a03169163bb34534c91602480830192602092919082900301818787803b158015611eee57600080fd5b505af1158015611f02573d6000803e3d6000fd5b505050506040513d6020811015611f1857600080fd5b505192915050565b600080831515611f335760009150611f52565b50828202828482811515611f4357fe5b0414611f4e57600080fd5b8091505b5092915050565b600080808311611f6857600080fd5b8284811515611f7357fe5b04949350505050565b600080611f87612c15565b604080517f67657452657475726e28616464726573732c616464726573732c75696e74323581527f36290000000000000000000000000000000000000000000000000000000000006020808301919091528251918290036022018220600160a060020a03808b166024850152891660448401526064808401899052845180850390910181526084909301845290820180517bffffffffffffffffffffffffffffffffffffffffffffffffffffffff167fffffffff0000000000000000000000000000000000000000000000000000000060e060020a9384900490930292909216919091178152815191929184918b5afa80151561208357600080fd5b505080516020909101519097909650945050505050565b60008085600160a060020a03166370a08231856040518263ffffffff1660e060020a0281526004018082600160a060020a0316600160a060020a03168152602001915050602060405180830381600087803b1580156120f857600080fd5b505af115801561210c573d6000803e3d6000fd5b505050506040513d602081101561212257600080fd5b50519150600160a060020a0385163014156121b75785600160a060020a031663a9059cbb85856040518363ffffffff1660e060020a0281526004018083600160a060020a0316600160a060020a0316815260200182815260200192505050600060405180830381600087803b15801561219a57600080fd5b505af11580156121ae573d6000803e3d6000fd5b50505050612243565b604080517f23b872dd000000000000000000000000000000000000000000000000000000008152600160a060020a0387811660048301528681166024830152604482018690529151918816916323b872dd9160648082019260009290919082900301818387803b15801561222a57600080fd5b505af115801561223e573d6000803e3d6000fd5b505050505b85600160a060020a03166370a08231856040518263ffffffff1660e060020a0281526004018082600160a060020a0316600160a060020a03168152602001915050602060405180830381600087803b15801561229e57600080fd5b505af11580156122b2573d6000803e3d6000fd5b505050506040513d60208110156122c857600080fd5b505190508181116122d857600080fd5b505050505050565b60008060008060006123117f436f6e7472616374466561747572657300000000000000000000000000000000611e88565b9350600192505b865183101561256357868381518110151561232f57fe5b90602001906020020151600160a060020a0316638da5cb5b6040518163ffffffff1660e060020a028152600401602060405180830381600087803b15801561237657600080fd5b505af115801561238a573d6000803e3d6000fd5b505050506040513d60208110156123a057600080fd5b5051604080517fa5fbf287000000000000000000000000000000000000000000000000000000008152600160a060020a0380841660048301526001602483015291519294509086169163a5fbf287916044808201926020929091908290030181600087803b15801561241157600080fd5b505af1158015612425573d6000803e3d6000fd5b505050506040513d602081101561243b57600080fd5b5051156125585781600160a060020a031663c45d3d926040518163ffffffff1660e060020a028152600401602060405180830381600087803b15801561248057600080fd5b505af1158015612494573d6000803e3d6000fd5b505050506040513d60208110156124aa57600080fd5b50519050600160a060020a0381161580159061254a575080600160a060020a0316633af32abf876040518263ffffffff1660e060020a0281526004018082600160a060020a0316600160a060020a03168152602001915050602060405180830381600087803b15801561251c57600080fd5b505af1158015612530573d6000803e3d6000fd5b505050506040513d602081101561254657600080fd5b5051155b156125585760009450612568565b600283019250612318565b600194505b5050505092915050565b60003411156126095734821480156125a25750600160a060020a03831660009081526005602052604090205460ff165b15156125ad57600080fd5b82600160a060020a031663d0e30db0346040518263ffffffff1660e060020a0281526004016000604051808303818588803b1580156125eb57600080fd5b505af11580156125ff573d6000803e3d6000fd5b505050505061261b565b801561261b5761261b8333308561209a565b505050565b8451600090819086906000190182808080600160a060020a038a16151561265557881561264c57600080fd5b6000935061269e565b88600010801561266757506004548911155b151561267257600080fd5b61269b7f424e54546f6b656e000000000000000000000000000000000000000000000000611e88565b93505b600292505b848311612a57578c600184038151811015156126bb57fe5b90602001906020020151600160a060020a0316638da5cb5b6040518163ffffffff1660e060020a028152600401602060405180830381600087803b15801561270257600080fd5b505af1158015612716573d6000803e3d6000fd5b505050506040513d602081101561272c57600080fd5b50518d519092508d90600119850190811061274357fe5b90602001906020020151600160a060020a03168d6001850381518110151561276757fe5b60209081029091010151600160a060020a0316146127a4576127a48d6002850381518110151561279357fe5b906020019060200201518388612a68565b81600160a060020a0316635e5144eb8e600286038151811015156127c457fe5b906020019060200201518f868151811015156127dc57fe5b90602001906020020151898988146127f55760016127f7565b8f5b6040518563ffffffff1660e060020a0281526004018085600160a060020a0316600160a060020a0316815260200184600160a060020a0316600160a060020a03168152602001838152602001828152602001945050505050602060405180830381600087803b15801561286957600080fd5b505af115801561287d573d6000803e3d6000fd5b505050506040513d602081101561289357600080fd5b50518d51909750600160a060020a038516908e90859081106128b157fe5b90602001906020020151600160a060020a0316141561299e576128e1620f42406110f6898c63ffffffff611f2016565b90508c838151811015156128f157fe5b90602001906020020151600160a060020a031663a9059cbb8b836040518363ffffffff1660e060020a0281526004018083600160a060020a0316600160a060020a0316815260200182815260200192505050602060405180830381600087803b15801561295d57600080fd5b505af1158015612971573d6000803e3d6000fd5b505050506040513d602081101561298757600080fd5b5051151561299457600080fd5b8087039650600093505b8c838151811015156129ac57fe5b90602001906020020151600160a060020a03168d600285038151811015156129d057fe5b90602001906020020151600160a060020a03168e600186038151811015156129f457fe5b6020908102909101810151604080518b81529283018c9052338382015251600160a060020a03909116917f7154b38b5dd31bb3122436a96d4e09aba5b323ae1fd580025fab55074334c095919081900360600190a48695506002830192506126a3565b50949b9a5050505050505050505050565b604080517fdd62ed3e000000000000000000000000000000000000000000000000000000008152306004820152600160a060020a038481166024830152915160009286169163dd62ed3e91604480830192602092919082900301818787803b158015612ad357600080fd5b505af1158015612ae7573d6000803e3d6000fd5b505050506040513d6020811015612afd57600080fd5b5051905081811015612c0f576000811115612b9357604080517f095ea7b3000000000000000000000000000000000000000000000000000000008152600160a060020a03858116600483015260006024830181905292519087169263095ea7b3926044808201939182900301818387803b158015612b7a57600080fd5b505af1158015612b8e573d6000803e3d6000fd5b505050505b83600160a060020a031663095ea7b384846040518363ffffffff1660e060020a0281526004018083600160a060020a0316600160a060020a0316815260200182815260200192505050600060405180830381600087803b158015612bf657600080fd5b505af1158015612c0a573d6000803e3d6000fd5b505050505b50505050565b604080518082018252906002908290803883395091929150505600a165627a7a7230582084fd398a2ad87ea96c5dd930ad2417ad8adb2e8634f71a9d7fd497a33e3454ae0029608060405234801561001057600080fd5b506040516020806100f2833981016040525160005560bf806100336000396000f300608060405260043610603e5763ffffffff7c01000000000000000000000000000000000000000000000000000000006000350416631e1401f881146043575b600080fd5b348015604e57600080fd5b50607773ffffffffffffffffffffffffffffffffffffffff600435811690602435166044356089565b60408051918252519081900360200190f35b60005493925050505600a165627a7a72305820e3c9dc0319e702fbb97290ad3251df3b89fc2b646a387c40b31a8949050d72d80029608060405234801561001057600080fd5b5060405160408061010a83398101604052805160209091015160009190915560015560ca806100406000396000f300608060405260043610603e5763ffffffff7c01000000000000000000000000000000000000000000000000000000006000350416631e1401f881146043575b600080fd5b348015604e57600080fd5b50607773ffffffffffffffffffffffffffffffffffffffff600435811690602435166044356090565b6040805192835260208301919091528051918290030190f35b6000546001549350939150505600a165627a7a72305820e873e4439770cbefe52a2d18749c0b411f6b19e7fafd165841e058c439e689f30029",
  "source": "pragma solidity 0.4.26;\nimport '../BancorNetwork.sol';\n\ncontract OldBancorConverter {\n    uint256 private amount;\n\n    constructor(uint256 _amount) public {\n        amount = _amount;\n    }\n\n    function getReturn(IERC20Token _fromToken, IERC20Token _toToken, uint256 _amount) external view returns (uint256) {\n        _fromToken;\n        _toToken;\n        _amount;\n        return (amount);\n    }\n}\n\ncontract NewBancorConverter {\n    uint256 private amount;\n    uint256 private fee;\n\n    constructor(uint256 _amount, uint256 _fee) public {\n        amount = _amount;\n        fee = _fee;\n    }\n\n    function getReturn(IERC20Token _fromToken, IERC20Token _toToken, uint256 _amount) external view returns (uint256, uint256) {\n        _fromToken;\n        _toToken;\n        _amount;\n        return (amount, fee);\n    }\n}\n\ncontract TestBancorNetwork is BancorNetwork {\n    OldBancorConverter private oldBancorConverter;\n    NewBancorConverter private newBancorConverter;\n\n    constructor(uint256 _amount, uint256 _fee) public BancorNetwork(IContractRegistry(address(1))) {\n        oldBancorConverter = new OldBancorConverter(_amount);\n        newBancorConverter = new NewBancorConverter(_amount, _fee);\n    }\n\n    function getReturnOld() external view returns (uint256, uint256) {\n        return getReturn(address(oldBancorConverter), IERC20Token(0), IERC20Token(0), uint256(0));\n    }\n\n    function getReturnNew() external view returns (uint256, uint256) {\n        return getReturn(address(newBancorConverter), IERC20Token(0), IERC20Token(0), uint256(0));\n    }\n}\n",
  "sourcePath": "/home/safu/minddeft/jointerInc/bancorTry/temp/contracts/solidity/contracts/helpers/TestBancorNetwork.sol",
  "compiler": {
    "name": "solc",
    "version": "0.4.26+commit.4563c3fc.Emscripten.clang"
  },
  "schemaVersion": "3.1.0",
  "updatedAt": "2020-06-10T14:32:18.806Z",
  "devdoc": {
    "methods": {
      "acceptOwnership()": {
        "details": "used by a new owner to accept an ownership transfer\r"
      },
      "claimAndConvert(address[],uint256,uint256)": {
        "details": "deprecated, backward compatibility\r"
      },
      "claimAndConvert2(address[],uint256,uint256,address,uint256)": {
        "details": "claims the caller's tokens, converts them to any other token in the bancor network\r by following a predefined conversion path and transfers the result tokens back to the sender\r note that allowance must be set beforehand\r \r",
        "params": {
          "_affiliateAccount": "affiliate account\r",
          "_affiliateFee": "affiliate fee in PPM\r \r",
          "_amount": "amount to convert from (in the initial source token)\r",
          "_minReturn": "if the conversion results in an amount smaller than the minimum return - it is cancelled, must be nonzero\r",
          "_path": "conversion path, see conversion path format above\r"
        },
        "return": "tokens issued in return\r"
      },
      "claimAndConvertFor(address[],uint256,uint256,address)": {
        "details": "deprecated, backward compatibility\r"
      },
      "claimAndConvertFor2(address[],uint256,uint256,address,address,uint256)": {
        "details": "claims the caller's tokens, converts them to any other token in the bancor network\r by following a predefined conversion path and transfers the result tokens to a target account\r note that allowance must be set beforehand\r \r",
        "params": {
          "_affiliateAccount": "affiliate account\r",
          "_affiliateFee": "affiliate fee in PPM\r \r",
          "_amount": "amount to convert from (in the initial source token)\r",
          "_for": "account that will receive the conversion result\r",
          "_minReturn": "if the conversion results in an amount smaller than the minimum return - it is cancelled, must be nonzero\r",
          "_path": "conversion path, see conversion path format above\r"
        },
        "return": "tokens issued in return\r"
      },
      "convert(address[],uint256,uint256)": {
        "details": "deprecated, backward compatibility\r"
      },
      "convert2(address[],uint256,uint256,address,uint256)": {
        "details": "converts the token to any other token in the bancor network by following\r a predefined conversion path and transfers the result tokens back to the sender\r note that the network should already own the source tokens\r \r",
        "params": {
          "_affiliateAccount": "affiliate account\r",
          "_affiliateFee": "affiliate fee in PPM\r \r",
          "_amount": "amount to convert from (in the initial source token)\r",
          "_minReturn": "if the conversion results in an amount smaller than the minimum return - it is cancelled, must be nonzero\r",
          "_path": "conversion path, see conversion path format above\r"
        },
        "return": "tokens issued in return\r"
      },
      "convertFor(address[],uint256,uint256,address)": {
        "details": "deprecated, backward compatibility\r"
      },
      "convertFor2(address[],uint256,uint256,address,address,uint256)": {
        "details": "converts the token to any other token in the bancor network by following\r a predefined conversion path and transfers the result tokens to a target account\r note that the network should already own the source tokens\r \r",
        "params": {
          "_affiliateAccount": "affiliate account\r",
          "_affiliateFee": "affiliate fee in PPM\r \r",
          "_amount": "amount to convert from (in the initial source token)\r",
          "_for": "account that will receive the conversion result\r",
          "_minReturn": "if the conversion results in an amount smaller than the minimum return - it is cancelled, must be nonzero\r",
          "_path": "conversion path, see conversion path format above\r"
        },
        "return": "tokens issued in return\r"
      },
      "convertForPrioritized(address[],uint256,uint256,address,uint256,uint256,uint8,bytes32,bytes32)": {
        "details": "deprecated, backward compatibility\r"
      },
      "convertForPrioritized2(address[],uint256,uint256,address,uint256,uint8,bytes32,bytes32)": {
        "details": "deprecated, backward compatibility\r"
      },
      "convertForPrioritized3(address[],uint256,uint256,address,uint256,uint256,uint8,bytes32,bytes32)": {
        "details": "deprecated, backward compatibility\r"
      },
      "convertForPrioritized4(address[],uint256,uint256,address,uint256[],address,uint256)": {
        "details": "deprecated, backward compatibility\r"
      },
      "getReturnByPath(address[],uint256)": {
        "details": "calculates the expected return of converting a given amount on a given path\r note that there is no support for circular paths\r \r",
        "params": {
          "_amount": "amount of _path[0] tokens received from the user\r \r",
          "_path": "conversion path (see conversion path format above)\r"
        },
        "return": "amount of _path[_path.length - 1] tokens that the user will receive\ramount of _path[_path.length - 1] tokens that the user will pay as fee\r"
      },
      "registerEtherToken(address,bool)": {
        "details": "allows the owner to register/unregister ether tokens\r \r",
        "params": {
          "_register": "true to register, false to unregister\r",
          "_token": "ether token contract address\r"
        }
      },
      "restoreRegistry()": {
        "details": "restores the previous contract-registry\r"
      },
      "restrictRegistryUpdate(bool)": {
        "details": "restricts the permission to update the contract-registry\r \r",
        "params": {
          "_onlyOwnerCanUpdateRegistry": "indicates whether or not permission is restricted to owner only\r"
        }
      },
      "setMaxAffiliateFee(uint256)": {
        "details": "allows the owner to update the maximum affiliate-fee\r \r",
        "params": {
          "_maxAffiliateFee": "maximum affiliate-fee\r"
        }
      },
      "transferOwnership(address)": {
        "details": "allows transferring the contract ownership\r the new owner still needs to accept the transfer\r can only be called by the contract owner\r \r",
        "params": {
          "_newOwner": "new contract owner\r"
        }
      },
      "updateRegistry()": {
        "details": "updates to the new contract-registry\r"
      },
      "withdrawTokens(address,address,uint256)": {
        "details": "withdraws tokens held by the contract and sends them to an account\r can only be called by the owner\r \r",
        "params": {
          "_amount": "amount to withdraw\r",
          "_to": "account to receive the new amount\r",
          "_token": "ERC20 token contract address\r"
        }
      },
      "xConvert(address[],uint256,uint256,bytes32,bytes32,uint256)": {
        "details": "deprecated, backward compatibility\r"
      },
      "xConvert2(address[],uint256,uint256,bytes32,bytes32,uint256,address,uint256)": {
        "details": "converts any other token to BNT in the bancor network\r by following a predefined conversion path and transfers the resulting\r tokens to BancorX.\r note that the network should already have been given allowance of the source token (if not ETH)\r \r",
        "params": {
          "_affiliateAccount": "affiliate account\r",
          "_affiliateFee": "affiliate fee in PPM\r \r",
          "_amount": "amount to convert from (in the initial source token)\r",
          "_conversionId": "pre-determined unique (if non zero) id which refers to this transaction \r",
          "_minReturn": "if the conversion results in an amount smaller than the minimum return - it is cancelled, must be nonzero\r",
          "_path": "conversion path, see conversion path format above\r",
          "_to": "address/account on _toBlockchain to send the BNT to\r",
          "_toBlockchain": "blockchain BNT will be issued on\r"
        },
        "return": "the amount of BNT received from this conversion\r"
      },
      "xConvertPrioritized(address[],uint256,uint256,bytes32,bytes32,uint256,uint256,uint8,bytes32,bytes32)": {
        "details": "deprecated, backward compatibility\r"
      },
      "xConvertPrioritized2(address[],uint256,uint256,bytes32,bytes32,uint256,uint256[])": {
        "details": "deprecated, backward compatibility\r"
      },
      "xConvertPrioritized3(address[],uint256,uint256,bytes32,bytes32,uint256,uint256[],address,uint256)": {
        "details": "deprecated, backward compatibility\r"
      }
    }
  },
  "userdoc": {
    "methods": {}
  }
}