{
  "contractName": "TestCrowdsaleController",
  "abi": [
    {
      "constant": true,
      "inputs": [],
      "name": "BTCS_ETHER_CAP",
      "outputs": [
        {
          "name": "",
          "type": "uint256"
        }
      ],
      "payable": false,
      "stateMutability": "view",
      "type": "function"
    },
    {
      "constant": true,
      "inputs": [],
      "name": "TOKEN_PRICE_D",
      "outputs": [
        {
          "name": "",
          "type": "uint256"
        }
      ],
      "payable": false,
      "stateMutability": "view",
      "type": "function"
    },
    {
      "constant": true,
      "inputs": [],
      "name": "bancorX",
      "outputs": [
        {
          "name": "",
          "type": "address"
        }
      ],
      "payable": false,
      "stateMutability": "view",
      "type": "function"
    },
    {
      "constant": false,
      "inputs": [],
      "name": "contributeETH",
      "outputs": [
        {
          "name": "amount",
          "type": "uint256"
        }
      ],
      "payable": true,
      "stateMutability": "payable",
      "type": "function"
    },
    {
      "constant": true,
      "inputs": [],
      "name": "DURATION",
      "outputs": [
        {
          "name": "",
          "type": "uint256"
        }
      ],
      "payable": false,
      "stateMutability": "view",
      "type": "function"
    },
    {
      "constant": true,
      "inputs": [
        {
          "name": "_contribution",
          "type": "uint256"
        }
      ],
      "name": "computeReturn",
      "outputs": [
        {
          "name": "",
          "type": "uint256"
        }
      ],
      "payable": false,
      "stateMutability": "pure",
      "type": "function"
    },
    {
      "constant": false,
      "inputs": [
        {
          "name": "_newOwner",
          "type": "address"
        }
      ],
      "name": "transferTokenOwnership",
      "outputs": [],
      "payable": false,
      "stateMutability": "nonpayable",
      "type": "function"
    },
    {
      "constant": true,
      "inputs": [],
      "name": "endTime",
      "outputs": [
        {
          "name": "",
          "type": "uint256"
        }
      ],
      "payable": false,
      "stateMutability": "view",
      "type": "function"
    },
    {
      "constant": true,
      "inputs": [],
      "name": "totalEtherCap",
      "outputs": [
        {
          "name": "",
          "type": "uint256"
        }
      ],
      "payable": false,
      "stateMutability": "view",
      "type": "function"
    },
    {
      "constant": false,
      "inputs": [],
      "name": "acceptTokenOwnership",
      "outputs": [],
      "payable": false,
      "stateMutability": "nonpayable",
      "type": "function"
    },
    {
      "constant": true,
      "inputs": [],
      "name": "beneficiary",
      "outputs": [
        {
          "name": "",
          "type": "address"
        }
      ],
      "payable": false,
      "stateMutability": "view",
      "type": "function"
    },
    {
      "constant": false,
      "inputs": [
        {
          "name": "_token",
          "type": "address"
        },
        {
          "name": "_to",
          "type": "address"
        },
        {
          "name": "_amount",
          "type": "uint256"
        }
      ],
      "name": "withdrawFromToken",
      "outputs": [],
      "payable": false,
      "stateMutability": "nonpayable",
      "type": "function"
    },
    {
      "constant": true,
      "inputs": [],
      "name": "TOKEN_PRICE_N",
      "outputs": [
        {
          "name": "",
          "type": "uint256"
        }
      ],
      "payable": false,
      "stateMutability": "view",
      "type": "function"
    },
    {
      "constant": true,
      "inputs": [],
      "name": "version",
      "outputs": [
        {
          "name": "",
          "type": "string"
        }
      ],
      "payable": false,
      "stateMutability": "view",
      "type": "function"
    },
    {
      "constant": false,
      "inputs": [
        {
          "name": "_token",
          "type": "address"
        },
        {
          "name": "_to",
          "type": "address"
        },
        {
          "name": "_amount",
          "type": "uint256"
        }
      ],
      "name": "withdrawTokens",
      "outputs": [],
      "payable": false,
      "stateMutability": "nonpayable",
      "type": "function"
    },
    {
      "constant": true,
      "inputs": [],
      "name": "startTime",
      "outputs": [
        {
          "name": "",
          "type": "uint256"
        }
      ],
      "payable": false,
      "stateMutability": "view",
      "type": "function"
    },
    {
      "constant": false,
      "inputs": [],
      "name": "acceptOwnership",
      "outputs": [],
      "payable": false,
      "stateMutability": "nonpayable",
      "type": "function"
    },
    {
      "constant": true,
      "inputs": [],
      "name": "owner",
      "outputs": [
        {
          "name": "",
          "type": "address"
        }
      ],
      "payable": false,
      "stateMutability": "view",
      "type": "function"
    },
    {
      "constant": true,
      "inputs": [],
      "name": "realEtherCapHash",
      "outputs": [
        {
          "name": "",
          "type": "bytes32"
        }
      ],
      "payable": false,
      "stateMutability": "view",
      "type": "function"
    },
    {
      "constant": false,
      "inputs": [
        {
          "name": "_cap",
          "type": "uint256"
        },
        {
          "name": "_key",
          "type": "uint256"
        }
      ],
      "name": "enableRealCap",
      "outputs": [],
      "payable": false,
      "stateMutability": "nonpayable",
      "type": "function"
    },
    {
      "constant": false,
      "inputs": [],
      "name": "contributeBTCs",
      "outputs": [
        {
          "name": "amount",
          "type": "uint256"
        }
      ],
      "payable": true,
      "stateMutability": "payable",
      "type": "function"
    },
    {
      "constant": true,
      "inputs": [],
      "name": "totalEtherContributed",
      "outputs": [
        {
          "name": "",
          "type": "uint256"
        }
      ],
      "payable": false,
      "stateMutability": "view",
      "type": "function"
    },
    {
      "constant": true,
      "inputs": [],
      "name": "btcs",
      "outputs": [
        {
          "name": "",
          "type": "address"
        }
      ],
      "payable": false,
      "stateMutability": "view",
      "type": "function"
    },
    {
      "constant": true,
      "inputs": [],
      "name": "newOwner",
      "outputs": [
        {
          "name": "",
          "type": "address"
        }
      ],
      "payable": false,
      "stateMutability": "view",
      "type": "function"
    },
    {
      "constant": false,
      "inputs": [
        {
          "name": "_bancorX",
          "type": "address"
        }
      ],
      "name": "setBancorX",
      "outputs": [],
      "payable": false,
      "stateMutability": "nonpayable",
      "type": "function"
    },
    {
      "constant": true,
      "inputs": [
        {
          "name": "_cap",
          "type": "uint256"
        },
        {
          "name": "_key",
          "type": "uint256"
        }
      ],
      "name": "computeRealCap",
      "outputs": [
        {
          "name": "",
          "type": "bytes32"
        }
      ],
      "payable": false,
      "stateMutability": "pure",
      "type": "function"
    },
    {
      "constant": true,
      "inputs": [],
      "name": "MAX_GAS_PRICE",
      "outputs": [
        {
          "name": "",
          "type": "uint256"
        }
      ],
      "payable": false,
      "stateMutability": "view",
      "type": "function"
    },
    {
      "constant": true,
      "inputs": [],
      "name": "BTCS_ETHER_CAP_SMALL",
      "outputs": [
        {
          "name": "",
          "type": "uint256"
        }
      ],
      "payable": false,
      "stateMutability": "view",
      "type": "function"
    },
    {
      "constant": false,
      "inputs": [
        {
          "name": "_newOwner",
          "type": "address"
        }
      ],
      "name": "transferOwnership",
      "outputs": [],
      "payable": false,
      "stateMutability": "nonpayable",
      "type": "function"
    },
    {
      "constant": true,
      "inputs": [],
      "name": "token",
      "outputs": [
        {
          "name": "",
          "type": "address"
        }
      ],
      "payable": false,
      "stateMutability": "view",
      "type": "function"
    },
    {
      "constant": false,
      "inputs": [
        {
          "name": "_from",
          "type": "address"
        },
        {
          "name": "_amount",
          "type": "uint256"
        }
      ],
      "name": "claimTokens",
      "outputs": [],
      "payable": false,
      "stateMutability": "nonpayable",
      "type": "function"
    },
    {
      "inputs": [
        {
          "name": "_token",
          "type": "address"
        },
        {
          "name": "_startTime",
          "type": "uint256"
        },
        {
          "name": "_beneficiary",
          "type": "address"
        },
        {
          "name": "_btcs",
          "type": "address"
        },
        {
          "name": "_realEtherCapHash",
          "type": "bytes32"
        },
        {
          "name": "_startTimeOverride",
          "type": "uint256"
        }
      ],
      "payable": false,
      "stateMutability": "nonpayable",
      "type": "constructor"
    },
    {
      "payable": true,
      "stateMutability": "payable",
      "type": "fallback"
    },
    {
      "anonymous": false,
      "inputs": [
        {
          "indexed": true,
          "name": "_contributor",
          "type": "address"
        },
        {
          "indexed": false,
          "name": "_amount",
          "type": "uint256"
        },
        {
          "indexed": false,
          "name": "_return",
          "type": "uint256"
        }
      ],
      "name": "Contribution",
      "type": "event"
    },
    {
      "anonymous": false,
      "inputs": [
        {
          "indexed": true,
          "name": "_prevOwner",
          "type": "address"
        },
        {
          "indexed": true,
          "name": "_newOwner",
          "type": "address"
        }
      ],
      "name": "OwnerUpdate",
      "type": "event"
    }
  ],
  "bytecode": "0x60c0604052600360808190527f302e31000000000000000000000000000000000000000000000000000000000060a09081526200004091600491906200019c565b5060006005819055600681905569d3c21bcecceda1000000600755600855600a8054600160a060020a0319908116909155600b805490911690553480156200008757600080fd5b5060405160c080620012ca83398101604090815281516020830151918301516060840151608085015160a09095015160008054600160a060020a031916331790559294919290919085858585858480600160a060020a0381161515620000ec57600080fd5b5060028054600160a060020a031916600160a060020a039283161790558390811615156200011957600080fd5b82600160a060020a03811615156200013057600080fd5b854281116200013b57fe5b83600081116200014a57600080fd5b5050600a8054600160a060020a03968716600160a060020a031991821617909155600b805495909616941693909317909355600955505050600582905550621275000160065550620002419350505050565b828054600181600116156101000203166002900490600052602060002090601f016020900481019282601f10620001df57805160ff19168380011785556200020f565b828001600101855582156200020f579182015b828111156200020f578251825591602001919060010190620001f2565b506200021d92915062000221565b5090565b6200023e91905b808211156200021d576000815560010162000228565b90565b61107980620002516000396000f3006080604052600436106101715763ffffffff60e060020a60003504166301d1c7fd811461017c5780630d2806ad146101a35780631120a776146101b8578063175323a8146101e95780631be05289146101f15780631fc3a5191461020657806321e6b53d1461021e5780633197cbb61461024157806334971dd61461025657806338a5e0161461026b57806338af3eed1461028057806341a5b33d1461029557806345cfad3e146102bf57806354fd4d50146102d45780635e35359e1461035e57806378e979251461038857806379ba50971461039d5780638da5cb5b146103b2578063aa4bdd3b146103c7578063ad03abc5146103dc578063b3cffc6e146103f7578063b591fc69146103ff578063bb63224414610414578063d4ee1d9014610429578063d924f0c31461043e578063e2119c801461045f578063e3bbb4f11461047a578063ebaf2f3a1461048f578063f2fde38b146104a4578063fc0c546a146104c5578063fe417fa5146104da575b6101796104fe565b50005b34801561018857600080fd5b5061019161052c565b60408051918252519081900360200190f35b3480156101af57600080fd5b5061019161053a565b3480156101c457600080fd5b506101cd61053f565b60408051600160a060020a039092168252519081900360200190f35b6101916104fe565b3480156101fd57600080fd5b5061019161054e565b34801561021257600080fd5b50610191600435610555565b34801561022a57600080fd5b5061023f600160a060020a036004351661057f565b005b34801561024d57600080fd5b50610191610618565b34801561026257600080fd5b5061019161061e565b34801561027757600080fd5b5061023f610624565b34801561028c57600080fd5b506101cd6106a8565b3480156102a157600080fd5b5061023f600160a060020a03600435811690602435166044356106b7565b3480156102cb57600080fd5b50610191610761565b3480156102e057600080fd5b506102e9610766565b6040805160208082528351818301528351919283929083019185019080838360005b8381101561032357818101518382015260200161030b565b50505050905090810190601f1680156103505780820380516001836020036101000a031916815260200191505b509250505060405180910390f35b34801561036a57600080fd5b5061023f600160a060020a03600435811690602435166044356107f4565b34801561039457600080fd5b506101916108d1565b3480156103a957600080fd5b5061023f6108d7565b3480156103be57600080fd5b506101cd61095f565b3480156103d357600080fd5b5061019161096e565b3480156103e857600080fd5b5061023f600435602435610974565b610191610a7c565b34801561040b57600080fd5b50610191610ac6565b34801561042057600080fd5b506101cd610acc565b34801561043557600080fd5b506101cd610adb565b34801561044a57600080fd5b5061023f600160a060020a0360043516610aea565b34801561046b57600080fd5b50610191600435602435610b30565b34801561048657600080fd5b50610191610bbc565b34801561049b57600080fd5b50610191610bc5565b3480156104b057600080fd5b5061023f600160a060020a0360043516610bd1565b3480156104d157600080fd5b506101cd610c32565b3480156104e657600080fd5b5061023f600160a060020a0360043516602435610c41565b600060055460065481421015801561051557508042105b151561051d57fe5b610525610d66565b9250505090565b690a968163f0a57b40000081565b606481565b600354600160a060020a031681565b6212750081565b6000610579600161056d84606463ffffffff610fdf16565b9063ffffffff61101816565b92915050565b600054600160a060020a0316331461059657600080fd5b600254604080517ff2fde38b000000000000000000000000000000000000000000000000000000008152600160a060020a0384811660048301529151919092169163f2fde38b91602480830192600092919082900301818387803b1580156105fd57600080fd5b505af1158015610611573d6000803e3d6000fd5b5050505050565b60065481565b60075481565b600054600160a060020a0316331461063b57600080fd5b600260009054906101000a9004600160a060020a0316600160a060020a03166379ba50976040518163ffffffff1660e060020a028152600401600060405180830381600087803b15801561068e57600080fd5b505af11580156106a2573d6000803e3d6000fd5b50505050565b600a54600160a060020a031681565b600054600160a060020a031633146106ce57600080fd5b600254604080517f5e35359e000000000000000000000000000000000000000000000000000000008152600160a060020a03868116600483015285811660248301526044820185905291519190921691635e35359e91606480830192600092919082900301818387803b15801561074457600080fd5b505af1158015610758573d6000803e3d6000fd5b50505050505050565b600181565b6004805460408051602060026001851615610100026000190190941693909304601f810184900484028201840190925281815292918301828280156107ec5780601f106107c1576101008083540402835291602001916107ec565b820191906000526020600020905b8154815290600101906020018083116107cf57829003601f168201915b505050505081565b600054600160a060020a0316331461080b57600080fd5b82600160a060020a038116151561082157600080fd5b82600160a060020a038116151561083757600080fd5b83600160a060020a03811630141561084e57600080fd5b85600160a060020a031663a9059cbb86866040518363ffffffff1660e060020a0281526004018083600160a060020a0316600160a060020a0316815260200182815260200192505050600060405180830381600087803b1580156108b157600080fd5b505af11580156108c5573d6000803e3d6000fd5b50505050505050505050565b60055481565b600154600160a060020a031633146108ee57600080fd5b60015460008054604051600160a060020a0393841693909116917f343765429aea5a34b3ff6a3785a98a5abb2597aca87bfbb58632c173d585373a91a3600180546000805473ffffffffffffffffffffffffffffffffffffffff19908116600160a060020a03841617909155169055565b600054600160a060020a031681565b60095481565b600054600160a060020a0316331461098b57600080fd5b600254604080517f8da5cb5b00000000000000000000000000000000000000000000000000000000815290513092600160a060020a031691638da5cb5b9160048083019260209291908290030181600087803b1580156109ea57600080fd5b505af11580156109fe573d6000803e3d6000fd5b505050506040513d6020811015610a1457600080fd5b5051600160a060020a031614610a2957600080fd5b600554600654814210158015610a3e57508042105b1515610a4657fe5b60095484908490610a578383610b30565b14610a6157600080fd5b6007548610610a6f57600080fd5b5050506007929092555050565b600b54600090600160a060020a03163314610a9357fe5b34671bc16d674ec80000610ab28260085461103b90919063ffffffff16565b1115610aba57fe5b60055442811161051d57fe5b60085481565b600b54600160a060020a031681565b600154600160a060020a031681565b600054600160a060020a03163314610b0157600080fd5b6003805473ffffffffffffffffffffffffffffffffffffffff1916600160a060020a0392909216919091179055565b6000828260405160200180838152602001828152602001925050506040516020818303038152906040526040518082805190602001908083835b60208310610b895780518252601f199092019160209182019101610b6a565b5181516020939093036101000a600019018019909116921691909117905260405192018290039091209695505050505050565b640ba43b740081565b671bc16d674ec8000081565b600054600160a060020a03163314610be857600080fd5b600054600160a060020a0382811691161415610c0357600080fd5b6001805473ffffffffffffffffffffffffffffffffffffffff1916600160a060020a0392909216919091179055565b600254600160a060020a031681565b600354600160a060020a03163314610c5857600080fd5b600254604080517fa24835d1000000000000000000000000000000000000000000000000000000008152600160a060020a038581166004830152602482018590529151919092169163a24835d191604480830192600092919082900301818387803b158015610cc657600080fd5b505af1158015610cda573d6000803e3d6000fd5b5050600254604080517f867904b4000000000000000000000000000000000000000000000000000000008152336004820152602481018690529051600160a060020a03909216935063867904b4925060448082019260009290919082900301818387803b158015610d4a57600080fd5b505af1158015610d5e573d6000803e3d6000fd5b505050505050565b60008030600160a060020a0316600260009054906101000a9004600160a060020a0316600160a060020a0316638da5cb5b6040518163ffffffff1660e060020a028152600401602060405180830381600087803b158015610dc657600080fd5b505af1158015610dda573d6000803e3d6000fd5b505050506040513d6020811015610df057600080fd5b5051600160a060020a031614610e0557600080fd5b34600754610e1e8260085461103b90919063ffffffff16565b1115610e2657fe5b640ba43b74003a1115610e3557fe5b610e3e34610555565b600a54604051919350600160a060020a0316903480156108fc02916000818181858888f19350505050158015610e78573d6000803e3d6000fd5b50600854610e8c903463ffffffff61103b16565b600855600254604080517f867904b4000000000000000000000000000000000000000000000000000000008152336004820152602481018590529051600160a060020a039092169163867904b49160448082019260009290919082900301818387803b158015610efb57600080fd5b505af1158015610f0f573d6000803e3d6000fd5b5050600254600a54604080517f867904b4000000000000000000000000000000000000000000000000000000008152600160a060020a03928316600482015260248101889052905191909216935063867904b49250604480830192600092919082900301818387803b158015610f8457600080fd5b505af1158015610f98573d6000803e3d6000fd5b5050604080513481526020810186905281513394507f5f7675b09617d2c9fa4fd13058ee5877a9538f626b0308816736e83748a4504093509081900390910190a250919050565b600080831515610ff25760009150611011565b5082820282848281151561100257fe5b041461100d57600080fd5b8091505b5092915050565b60008080831161102757600080fd5b828481151561103257fe5b04949350505050565b60008282018381101561100d57600080fd00a165627a7a723058208e895b0bbd21b386abc2f1591d70396404c392293052556b64c197a147f172fa0029",
  "source": "pragma solidity 0.4.26;\nimport '../crowdsale/CrowdsaleController.sol';\n\n/*\n    Test crowdsale controller with start time < now < end time\n*/\ncontract TestCrowdsaleController is CrowdsaleController {\n    using SafeMath for uint256;\n\n    \n    uint256 public constant BTCS_ETHER_CAP_SMALL = 2 ether; // maximum bitcoin suisse ether contribution\n\n    constructor(\n        ISmartToken _token,\n        uint256 _startTime,\n        address _beneficiary,\n        address _btcs,\n        bytes32 _realEtherCapHash,\n        uint256 _startTimeOverride)\n        public\n        CrowdsaleController(_token, _startTime, _beneficiary, _btcs, _realEtherCapHash)\n    {\n        startTime = _startTimeOverride;\n        endTime = startTime + DURATION;\n    }\n\n    modifier btcsEtherCapNotReached(uint256 _ethContribution) {\n        assert(totalEtherContributed.add(_ethContribution) <= BTCS_ETHER_CAP_SMALL);\n        _;\n    }\n}\n",
  "sourcePath": "/home/safu/minddeft/jointerInc/bancorTry/temp/contracts/solidity/contracts/helpers/TestCrowdsaleController.sol",
  "compiler": {
    "name": "solc",
    "version": "0.4.26+commit.4563c3fc.Emscripten.clang"
  },
  "schemaVersion": "3.1.0",
  "updatedAt": "2020-06-10T14:32:18.813Z",
  "devdoc": {
    "methods": {
      "acceptOwnership()": {
        "details": "used by a new owner to accept an ownership transfer\r"
      },
      "acceptTokenOwnership()": {
        "details": "used by a new owner to accept a token ownership transfer\r can only be called by the contract owner\r"
      },
      "claimTokens(address,uint256)": {
        "details": "allows the associated BancorX contract to claim tokens from any address (so that users\r dont have to first give allowance when calling BancorX)\r \r",
        "params": {
          "_amount": "the amount of tokens to claim\r",
          "_from": "address to claim the tokens from\r"
        }
      },
      "computeRealCap(uint256,uint256)": {
        "details": "computes the real cap based on the given cap & key\r \r",
        "params": {
          "_cap": "cap\r",
          "_key": "key used to compute the cap hash\r \r"
        },
        "return": "computed real cap hash\r"
      },
      "computeReturn(uint256)": {
        "details": "computes the number of tokens that should be issued for a given contribution\r \r",
        "params": {
          "_contribution": "contribution amount\r \r"
        },
        "return": "computed number of tokens\r"
      },
      "contributeBTCs()": {
        "details": "Contribution through BTCs (Bitcoin Suisse only)\r can only be called before the crowdsale started\r \r",
        "return": "tokens issued in return\r"
      },
      "contributeETH()": {
        "details": "ETH contribution\r can only be called during the crowdsale\r \r",
        "return": "tokens issued in return\r"
      },
      "enableRealCap(uint256,uint256)": {
        "details": "enables the real cap defined on deployment\r \r",
        "params": {
          "_cap": "predefined cap\r",
          "_key": "key used to compute the cap hash\r"
        }
      },
      "setBancorX(address)": {
        "details": "allows the owner to set the associated BancorX contract\r",
        "params": {
          "_bancorX": "BancorX contract\r"
        }
      },
      "transferOwnership(address)": {
        "details": "allows transferring the contract ownership\r the new owner still needs to accept the transfer\r can only be called by the contract owner\r \r",
        "params": {
          "_newOwner": "new contract owner\r"
        }
      },
      "transferTokenOwnership(address)": {
        "details": "allows transferring the token ownership\r the new owner needs to accept the transfer\r can only be called by the contract owner\r \r",
        "params": {
          "_newOwner": "new token owner\r"
        }
      },
      "withdrawFromToken(address,address,uint256)": {
        "details": "withdraws tokens held by the controller and sends them to an account\r can only be called by the owner\r \r",
        "params": {
          "_amount": "amount to withdraw\r",
          "_to": "account to receive the new amount\r",
          "_token": "ERC20 token contract address\r"
        }
      },
      "withdrawTokens(address,address,uint256)": {
        "details": "withdraws tokens held by the contract and sends them to an account\r can only be called by the owner\r \r",
        "params": {
          "_amount": "amount to withdraw\r",
          "_to": "account to receive the new amount\r",
          "_token": "ERC20 token contract address\r"
        }
      }
    }
  },
  "userdoc": {
    "methods": {}
  }
}