{
  "contractName": "AuctionTagAlong",
  "abi": [
    {
      "constant": false,
      "inputs": [
        {
          "name": "_which",
          "type": "address"
        }
      ],
      "name": "changeSystemAddress",
      "outputs": [
        {
          "name": "",
          "type": "bool"
        }
      ],
      "payable": false,
      "stateMutability": "nonpayable",
      "type": "function"
    },
    {
      "constant": true,
      "inputs": [],
      "name": "newAuthorityAddress",
      "outputs": [
        {
          "name": "",
          "type": "address"
        }
      ],
      "payable": false,
      "stateMutability": "view",
      "type": "function"
    },
    {
      "constant": false,
      "inputs": [
        {
          "name": "_ratio",
          "type": "uint256"
        }
      ],
      "name": "setcContributionRatio",
      "outputs": [
        {
          "name": "",
          "type": "bool"
        }
      ],
      "payable": false,
      "stateMutability": "nonpayable",
      "type": "function"
    },
    {
      "constant": false,
      "inputs": [],
      "name": "acceptAuthorityAddress",
      "outputs": [
        {
          "name": "",
          "type": "bool"
        }
      ],
      "payable": false,
      "stateMutability": "nonpayable",
      "type": "function"
    },
    {
      "constant": true,
      "inputs": [],
      "name": "liquadityRatio",
      "outputs": [
        {
          "name": "",
          "type": "uint256"
        }
      ],
      "payable": false,
      "stateMutability": "view",
      "type": "function"
    },
    {
      "constant": true,
      "inputs": [],
      "name": "authorityAddress",
      "outputs": [
        {
          "name": "",
          "type": "address"
        }
      ],
      "payable": false,
      "stateMutability": "view",
      "type": "function"
    },
    {
      "constant": false,
      "inputs": [
        {
          "name": "_ratio",
          "type": "uint256"
        }
      ],
      "name": "setLiquadityRatio",
      "outputs": [
        {
          "name": "",
          "type": "bool"
        }
      ],
      "payable": false,
      "stateMutability": "nonpayable",
      "type": "function"
    },
    {
      "constant": true,
      "inputs": [],
      "name": "primaryOwner",
      "outputs": [
        {
          "name": "",
          "type": "address"
        }
      ],
      "payable": false,
      "stateMutability": "view",
      "type": "function"
    },
    {
      "constant": false,
      "inputs": [
        {
          "name": "_which",
          "type": "address"
        }
      ],
      "name": "changeAuthorityAddress",
      "outputs": [
        {
          "name": "",
          "type": "bool"
        }
      ],
      "payable": false,
      "stateMutability": "nonpayable",
      "type": "function"
    },
    {
      "constant": false,
      "inputs": [
        {
          "name": "_address",
          "type": "address"
        }
      ],
      "name": "updateRegistery",
      "outputs": [
        {
          "name": "",
          "type": "bool"
        }
      ],
      "payable": false,
      "stateMutability": "nonpayable",
      "type": "function"
    },
    {
      "constant": true,
      "inputs": [],
      "name": "contributionRatio",
      "outputs": [
        {
          "name": "",
          "type": "uint256"
        }
      ],
      "payable": false,
      "stateMutability": "view",
      "type": "function"
    },
    {
      "constant": false,
      "inputs": [
        {
          "name": "_which",
          "type": "address"
        }
      ],
      "name": "changePrimaryOwner",
      "outputs": [
        {
          "name": "",
          "type": "bool"
        }
      ],
      "payable": false,
      "stateMutability": "nonpayable",
      "type": "function"
    },
    {
      "constant": true,
      "inputs": [],
      "name": "systemAddress",
      "outputs": [
        {
          "name": "",
          "type": "address"
        }
      ],
      "payable": false,
      "stateMutability": "view",
      "type": "function"
    },
    {
      "constant": true,
      "inputs": [],
      "name": "contractsRegistry",
      "outputs": [
        {
          "name": "",
          "type": "address"
        }
      ],
      "payable": false,
      "stateMutability": "view",
      "type": "function"
    },
    {
      "inputs": [
        {
          "name": "_systemAddress",
          "type": "address"
        },
        {
          "name": "_multisigAdress",
          "type": "address"
        }
      ],
      "payable": false,
      "stateMutability": "nonpayable",
      "type": "constructor"
    },
    {
      "payable": true,
      "stateMutability": "payable",
      "type": "fallback"
    },
    {
      "anonymous": false,
      "inputs": [
        {
          "indexed": false,
          "name": "_token",
          "type": "address"
        },
        {
          "indexed": false,
          "name": "_from",
          "type": "address"
        },
        {
          "indexed": false,
          "name": "_amount",
          "type": "uint256"
        }
      ],
      "name": "FundDeposited",
      "type": "event"
    },
    {
      "anonymous": false,
      "inputs": [
        {
          "indexed": false,
          "name": "ownerType",
          "type": "string"
        },
        {
          "indexed": true,
          "name": "previousOwner",
          "type": "address"
        },
        {
          "indexed": true,
          "name": "newOwner",
          "type": "address"
        }
      ],
      "name": "OwnershipTransferred",
      "type": "event"
    },
    {
      "anonymous": false,
      "inputs": [
        {
          "indexed": true,
          "name": "previousOwner",
          "type": "address"
        },
        {
          "indexed": true,
          "name": "newOwner",
          "type": "address"
        }
      ],
      "name": "AuthorityAddressChnageCall",
      "type": "event"
    },
    {
      "constant": false,
      "inputs": [
        {
          "name": "_amount",
          "type": "uint256"
        }
      ],
      "name": "contributeTowardAuction",
      "outputs": [
        {
          "name": "",
          "type": "uint256"
        },
        {
          "name": "",
          "type": "address[]"
        },
        {
          "name": "",
          "type": "uint256[]"
        }
      ],
      "payable": false,
      "stateMutability": "nonpayable",
      "type": "function"
    },
    {
      "constant": false,
      "inputs": [],
      "name": "cancelInvestment",
      "outputs": [
        {
          "name": "",
          "type": "bool"
        }
      ],
      "payable": false,
      "stateMutability": "nonpayable",
      "type": "function"
    },
    {
      "constant": false,
      "inputs": [],
      "name": "unLockTokens",
      "outputs": [
        {
          "name": "",
          "type": "bool"
        }
      ],
      "payable": false,
      "stateMutability": "nonpayable",
      "type": "function"
    },
    {
      "constant": false,
      "inputs": [
        {
          "name": "_tokens",
          "type": "address"
        },
        {
          "name": "_to",
          "type": "address"
        },
        {
          "name": "_value",
          "type": "uint256"
        }
      ],
      "name": "returnTokens",
      "outputs": [
        {
          "name": "",
          "type": "bool"
        }
      ],
      "payable": false,
      "stateMutability": "nonpayable",
      "type": "function"
    },
    {
      "constant": false,
      "inputs": [
        {
          "name": "_value",
          "type": "uint256"
        }
      ],
      "name": "withDraw",
      "outputs": [
        {
          "name": "",
          "type": "bool"
        }
      ],
      "payable": false,
      "stateMutability": "nonpayable",
      "type": "function"
    }
  ],
  "bytecode": "0x6080604052600080546001600160a01b031990811690915560018054821690556002805482169055600380549091169055606460058190556006553480156200004757600080fd5b5060405162001ba038038062001ba0833981810160405260408110156200006d57600080fd5b50805160209182015160408051808201909152601081527f4552525f5a45524f5f41444452455353000000000000000000000000000000009381019390935290918290829082906001600160a01b03821662000164576040517f08c379a00000000000000000000000000000000000000000000000000000000081526004018080602001828103825283818151815260200191508051906020019080838360005b83811015620001285781810151838201526020016200010e565b50505050905090810190601f168015620001565780820380516001836020036101000a031916815260200191505b509250505060405180910390fd5b5060408051808201909152601081527f4552525f53414d455f41444452455353000000000000000000000000000000006020820152336001600160a01b03851614156200020e576040517f08c379a0000000000000000000000000000000000000000000000000000000008152602060048201818152835160248401528351909283926044909101919085019080838360008315620001285781810151838201526020016200010e565b50816001600160a01b0316836001600160a01b031614156040518060400160405280601081526020017f4552525f53414d455f414444524553530000000000000000000000000000000081525090620002c4576040517f08c379a0000000000000000000000000000000000000000000000000000000008152602060048201818152835160248401528351909283926044909101919085019080838360008315620001285781810151838201526020016200010e565b5060408051808201909152601081527f4552525f53414d455f41444452455353000000000000000000000000000000006020820152336001600160a01b03841614156200036e576040517f08c379a0000000000000000000000000000000000000000000000000000000008152602060048201818152835160248401528351909283926044909101919085019080838360008315620001285781810151838201526020016200010e565b5050600080546001600160a01b03199081163317909155600280546001600160a01b039485169083161790556001805492909316911617905550506117e780620003b96000396000f3fe6080604052600436106101145760003560e01c806357fc3991116100a0578063bc1366fe11610064578063bc1366fe1461041b578063c0b7daef1461044e578063c4d3426814610463578063d3e848f114610496578063d98d0c7e146104ab57610114565b806357fc3991146102b15780638e10be33146102f45780638f3c428e146103095780638f51368b146103d357806394f8e9541461040657610114565b80631b41de29116100e75780631b41de291461020c57806320c462fe146102365780632ea2c4151461024b5780633c695d4e14610272578063488698701461028757610114565b806304d63089146101555780630abaad7a1461019c5780631044bbe6146101cd57806314174f33146101e2575b6040805160008152336020820152348183015290517f988be5a4a02a3fab0f0927cf7b83b33931fce7bc30a2380dad1114c673c880519181900360600190a1005b34801561016157600080fd5b506101886004803603602081101561017857600080fd5b50356001600160a01b03166104c0565b604080519115158252519081900360200190f35b3480156101a857600080fd5b506101b16107d1565b604080516001600160a01b039092168252519081900360200190f35b3480156101d957600080fd5b506101886107e0565b3480156101ee57600080fd5b506101886004803603602081101561020557600080fd5b50356108e7565b34801561021857600080fd5b506101886004803603602081101561022f57600080fd5b503561099b565b34801561024257600080fd5b50610188610a23565b34801561025757600080fd5b50610260610b38565b60408051918252519081900360200190f35b34801561027e57600080fd5b506101b1610b3e565b34801561029357600080fd5b50610188600480360360208110156102aa57600080fd5b5035610b4d565b3480156102bd57600080fd5b50610188600480360360608110156102d457600080fd5b506001600160a01b03813581169160208101359091169060400135610bd5565b34801561030057600080fd5b506101b1610c69565b34801561031557600080fd5b506103336004803603602081101561032c57600080fd5b5035610c78565b604051808481526020018060200180602001838103835285818151815260200191508051906020019060200280838360005b8381101561037d578181015183820152602001610365565b50505050905001838103825284818151815260200191508051906020019060200280838360005b838110156103bc5781810151838201526020016103a4565b505050509050019550505050505060405180910390f35b3480156103df57600080fd5b50610188600480360360208110156103f657600080fd5b50356001600160a01b0316610e43565b34801561041257600080fd5b50610188611024565b34801561042757600080fd5b506101886004803603602081101561043e57600080fd5b50356001600160a01b03166110fa565b34801561045a57600080fd5b5061026061121f565b34801561046f57600080fd5b506101886004803603602081101561048657600080fd5b50356001600160a01b0316611225565b3480156104a257600080fd5b506101b1611468565b3480156104b757600080fd5b506101b1611477565b60015460408051808201909152601b815260008051602061179383398151915260208201526000916001600160a01b0316331461057b5760405162461bcd60e51b81526004018080602001828103825283818151815260200191508051906020019080838360005b83811015610540578181015183820152602001610528565b50505050905090810190601f16801561056d5780820380516001836020036101000a031916815260200191505b509250505060405180910390fd5b5060408051808201909152601981527f4552525f434f4e54524143545f53454c465f4144445245535300000000000000602082015282906001600160a01b03821630141561060a5760405162461bcd60e51b8152602060048201818152835160248401528351909283926044909101919085019080838360008315610540578181015183820152602001610528565b5060408051808201909152601081526f4552525f5a45524f5f4144445245535360801b602082015283906001600160a01b0382166106895760405162461bcd60e51b8152602060048201818152835160248401528351909283926044909101919085019080838360008315610540578181015183820152602001610528565b506002546001600160a01b038581169116148015906106b657506001546001600160a01b03858116911614155b80156106d057506000546001600160a01b03858116911614155b6040518060400160405280601081526020016f4552525f53414d455f4144445245535360801b815250906107455760405162461bcd60e51b8152602060048201818152835160248401528351909283926044909101919085019080838360008315610540578181015183820152602001610528565b50600254604080516020808252600e908201526d53595354454d5f4144445245535360901b8183015290516001600160a01b038088169316917f6840904f5b31827f74e1497360da245f56e530c8c3de3163a2d31f11493273c6919081900360600190a3600280546001600160a01b0386166001600160a01b0319909116179055600192505050919050565b6003546001600160a01b031681565b6000805460408051808201909152601b81526000805160206117938339815191526020820152906001600160a01b0316331461085d5760405162461bcd60e51b8152602060048201818152835160248401528351909283926044909101919085019080838360008315610540578181015183820152602001610528565b5061087c7120aaa1aa24a7a72fa82927aa22a1aa24a7a760711b611486565b6001600160a01b0316631044bbe66040518163ffffffff1660e01b8152600401602060405180830381600087803b1580156108b657600080fd5b505af11580156108ca573d6000803e3d6000fd5b505050506040513d60208110156108e057600080fd5b5051905090565b6000805460408051808201909152601b81526000805160206117938339815191526020820152906001600160a01b031633146109645760405162461bcd60e51b8152602060048201818152835160248401528351909283926044909101919085019080838360008315610540578181015183820152602001610528565b50604051339083156108fc029084906000818181858888f19350505050158015610992573d6000803e3d6000fd5b50600192915050565b60025460408051808201909152601b815260008051602061179383398151915260208201526000916001600160a01b03163314610a195760405162461bcd60e51b8152602060048201818152835160248401528351909283926044909101919085019080838360008315610540578181015183820152602001610528565b5050600655600190565b60035460408051808201909152601b815260008051602061179383398151915260208201526000916001600160a01b03163314610aa15760405162461bcd60e51b8152602060048201818152835160248401528351909283926044909101919085019080838360008315610540578181015183820152602001610528565b5060035460015460408051602080825260119082015270415554484f524954595f4144445245535360781b8183015290516001600160a01b039384169392909216917f6840904f5b31827f74e1497360da245f56e530c8c3de3163a2d31f11493273c69181900360600190a35060038054600180546001600160a01b03199081166001600160a01b03841617825590911690915590565b60055481565b6001546001600160a01b031681565b60025460408051808201909152601b815260008051602061179383398151915260208201526000916001600160a01b03163314610bcb5760405162461bcd60e51b8152602060048201818152835160248401528351909283926044909101919085019080838360008315610540578181015183820152602001610528565b5050600555600190565b6000805460408051808201909152601b81526000805160206117938339815191526020820152906001600160a01b03163314610c525760405162461bcd60e51b8152602060048201818152835160248401528351909283926044909101919085019080838360008315610540578181015183820152602001610528565b50610c5f84308585611505565b5060019392505050565b6000546001600160a01b031681565b6000606080610c906620aaa1aa24a7a760c91b611486565b6001600160a01b0316336001600160a01b031614610cf5576040805162461bcd60e51b815260206004820152601860248201527f4552525f4f4e4c595f41554354494f4e5f414c4c574f45440000000000000000604482015290519081900360640190fd5b6000610d0b6743555252454e435960c01b611486565b6001600160a01b0316637058346f60006040518263ffffffff1660e01b815260040180826001600160a01b03166001600160a01b0316815260200191505060206040518083038186803b158015610d6157600080fd5b505afa158015610d75573d6000803e3d6000fd5b505050506040513d6020811015610d8b57600080fd5b5051600654909150610da990610da2908790611750565b606461177d565b94506000610db7868361177d565b90506060803031831115610e055760405130319350339084156108fc029085906000818181858888f19350505050158015610df6573d6000803e3d6000fd5b5091955093509150610e3c9050565b604051339084156108fc029085906000818181858888f19350505050158015610e32573d6000803e3d6000fd5b5091955093509150505b9193909250565b60015460408051808201909152601b815260008051602061179383398151915260208201526000916001600160a01b03163314610ec15760405162461bcd60e51b8152602060048201818152835160248401528351909283926044909101919085019080838360008315610540578181015183820152602001610528565b5060408051808201909152601081526f4552525f5a45524f5f4144445245535360801b602082015282906001600160a01b038216610f405760405162461bcd60e51b8152602060048201818152835160248401528351909283926044909101919085019080838360008315610540578181015183820152602001610528565b506002546001600160a01b03848116911614801590610f6d57506001546001600160a01b03848116911614155b8015610f8757506000546001600160a01b03848116911614155b6040518060400160405280601081526020016f4552525f53414d455f4144445245535360801b81525090610ffc5760405162461bcd60e51b8152602060048201818152835160248401528351909283926044909101919085019080838360008315610540578181015183820152602001610528565b50600380546001600160a01b0385166001600160a01b03199091161790556001915050919050565b6000805460408051808201909152601b81526000805160206117938339815191526020820152906001600160a01b031633146110a15760405162461bcd60e51b8152602060048201818152835160248401528351909283926044909101919085019080838360008315610540578181015183820152602001610528565b506110c07120aaa1aa24a7a72fa82927aa22a1aa24a7a760711b611486565b6001600160a01b03166394f8e9546040518163ffffffff1660e01b8152600401602060405180830381600087803b1580156108b657600080fd5b60015460408051808201909152601b815260008051602061179383398151915260208201526000916001600160a01b031633146111785760405162461bcd60e51b8152602060048201818152835160248401528351909283926044909101919085019080838360008315610540578181015183820152602001610528565b5060408051808201909152601081526f4552525f5a45524f5f4144445245535360801b602082015282906001600160a01b0382166111f75760405162461bcd60e51b8152602060048201818152835160248401528351909283926044909101919085019080838360008315610540578181015183820152602001610528565b50600480546001600160a01b0385166001600160a01b03199091161790556001915050919050565b60065481565b60015460408051808201909152601b815260008051602061179383398151915260208201526000916001600160a01b031633146112a35760405162461bcd60e51b8152602060048201818152835160248401528351909283926044909101919085019080838360008315610540578181015183820152602001610528565b5060408051808201909152601081526f4552525f5a45524f5f4144445245535360801b602082015282906001600160a01b0382166113225760405162461bcd60e51b8152602060048201818152835160248401528351909283926044909101919085019080838360008315610540578181015183820152602001610528565b506002546001600160a01b0384811691161480159061134f57506001546001600160a01b03848116911614155b801561136957506000546001600160a01b03848116911614155b6040518060400160405280601081526020016f4552525f53414d455f4144445245535360801b815250906113de5760405162461bcd60e51b8152602060048201818152835160248401528351909283926044909101919085019080838360008315610540578181015183820152602001610528565b50600054604080516020808252600d908201526c282924a6a0a92cafa7aba722a960991b8183015290516001600160a01b038087169316917f6840904f5b31827f74e1497360da245f56e530c8c3de3163a2d31f11493273c6919081900360600190a3600080546001600160a01b0385166001600160a01b03199091161790556001915050919050565b6002546001600160a01b031681565b6004546001600160a01b031681565b6004805460408051637d4367ab60e11b8152928301849052516000926001600160a01b039092169163fa86cf56916024808301926020929190829003018186803b1580156114d357600080fd5b505afa1580156114e7573d6000803e3d6000fd5b505050506040513d60208110156114fd57600080fd5b505192915050565b6000846001600160a01b03166370a08231846040518263ffffffff1660e01b815260040180826001600160a01b03166001600160a01b0316815260200191505060206040518083038186803b15801561155d57600080fd5b505afa158015611571573d6000803e3d6000fd5b505050506040513d602081101561158757600080fd5b505190506001600160a01b03841630141561162e57846001600160a01b031663a9059cbb84846040518363ffffffff1660e01b815260040180836001600160a01b03166001600160a01b0316815260200182815260200192505050602060405180830381600087803b1580156115fc57600080fd5b505af1158015611610573d6000803e3d6000fd5b505050506040513d602081101561162657600080fd5b506116b69050565b604080516323b872dd60e01b81526001600160a01b0386811660048301528581166024830152604482018590529151918716916323b872dd916064808201926020929091908290030181600087803b15801561168957600080fd5b505af115801561169d573d6000803e3d6000fd5b505050506040513d60208110156116b357600080fd5b50505b6000856001600160a01b03166370a08231856040518263ffffffff1660e01b815260040180826001600160a01b03166001600160a01b0316815260200191505060206040518083038186803b15801561170e57600080fd5b505afa158015611722573d6000803e3d6000fd5b505050506040513d602081101561173857600080fd5b5051905081811161174857600080fd5b505050505050565b60008261175f57506000611777565b8282028284828161176c57fe5b041461177457fe5b90505b92915050565b60008082848161178957fe5b0494935050505056fe4552525f415554484f52495a45445f414444524553535f4f4e4c590000000000a265627a7a723058206acfd71445a970f301211e44a6557df0d4d229575e91beeed9f0a62d09022b4264736f6c63430005090032",
  "source": "pragma solidity ^0.5.9;\n\nimport \"../common/SafeMath.sol\";\nimport \"../common/Ownable.sol\";\nimport \"../InterFaces/IAuctionRegistery.sol\";\nimport \"../InterFaces/IAuctionProtection.sol\";\nimport \"../InterFaces/ICurrencyPrices.sol\";\nimport \"../InterFaces/IERC20Token.sol\";\nimport \"../InterFaces/IAuctionFormula.sol\";\nimport \"../InterFaces/IAuction.sol\";\nimport \"../InterFaces/ITokenVault.sol\";\n\n\n\ncontract AuctionRegistery is Ownable, AuctionRegisteryContracts {\n    \n    IAuctionRegistery public contractsRegistry;\n    \n    function updateRegistery(address _address)\n        external\n        onlyAuthorized()\n        notZeroAddress(_address)\n        returns (bool)\n    {\n        \n        contractsRegistry = IAuctionRegistery(_address);\n        return true;\n    }\n\n    function getAddressOf(bytes32 _contractName)\n        internal\n        view\n        returns (address)\n    {\n        return contractsRegistry.getAddressOf(_contractName);\n    }\n}\n\ncontract Utils is AuctionRegistery,SafeMath{\n    \n    uint256 public liquadityRatio = 100;\n    \n    uint256 public contributionRatio = 100;\n    \n    function setLiquadityRatio(uint256 _ratio) external onlySystem() returns(bool) {\n        liquadityRatio = _ratio;\n        return true;\n    }\n    \n    function setcContributionRatio(uint256 _ratio) external onlySystem() returns(bool) {\n        contributionRatio = _ratio;\n        return true;\n    }\n    \n}\n\ncontract AuctionTagAlong is Utils{\n    \n    \n    constructor(address _systemAddress,\n                address _multisigAdress\n                ) public Ownable(_systemAddress,_multisigAdress){\n     \n    }\n    \n    event FundDeposited(\n            address _token,\n            address _from,\n            uint256 _amount\n        );\n    \n    \n    \n    \n    function ensureTransferFrom(\n                IERC20Token _token,\n                address _from,\n                address _to,\n                uint256 _amount\n            ) internal {\n            \n        uint256 prevBalance = _token.balanceOf(_to);\n        if (_from == address(this))\n            _token.transfer(_to, _amount);\n        else\n            _token.transferFrom(_from, _to, _amount);\n        uint256 postBalance = _token.balanceOf(_to);\n        require(postBalance > prevBalance);\n    }\n    \n    function approveTransferFrom(\n                IERC20Token _token,\n                address _spender, \n                uint256 _amount\n            ) internal {\n        _token.approve(_spender, _amount);\n    }\n    \n    \n    //when we staring contrinution with token then we have to develop \n    //address and uint256 from token \n    function contributeTowardAuction(uint256 _amount) public  returns(uint256,address[] memory,uint256[] memory){\n        require(msg.sender == getAddressOf(AUCTION),\"ERR_ONLY_AUCTION_ALLWOED\");\n        uint256 _currencyPrices = ICurrencyPrices(getAddressOf(CURRENCY)).getCurrencyPrice(address(0));\n        _amount = safeDiv(safeMul(_amount,contributionRatio),100);\n        uint256 ethAmount = safeDiv(_amount,_currencyPrices);\n        address[] memory a;\n        uint256[] memory b;\n        if(ethAmount > address(this).balance ){\n            ethAmount = address(this).balance;\n            msg.sender.transfer(ethAmount);\n            return (ethAmount,a,b);\n        }\n        msg.sender.transfer(ethAmount);\n        return (ethAmount,a,b);\n        \n    }\n    \n    function() external payable {\n        emit FundDeposited(\n            address(0),\n            msg.sender,\n            msg.value\n        );\n    }\n    \n    function cancelInvestment() public onlyOwner() returns (bool) {\n        return IAuctionProtection(getAddressOf(AUCTION_PROTECTION)).cancelInvestment();\n    }\n    \n    function unLockTokens() public onlyOwner() returns (bool) {\n        return IAuctionProtection(getAddressOf(AUCTION_PROTECTION)).unLockTokens();\n    }\n    \n    function returnTokens(IERC20Token _tokens, address _to, uint256 _value)\n        external\n        onlyOwner()\n        returns (bool)\n    {\n        ensureTransferFrom(_tokens, address(this), _to, _value);\n        return true;\n    }\n\n    function withDraw(uint256 _value) external onlyOwner() returns (bool) {\n        msg.sender.transfer(_value);\n        return true;\n    }\n    \n}",
  "sourcePath": "/home/mind/Work/Projects/Jointer/Jointer_auction/NewContracts/contracts/auctionContracts/AuctionTagAlong.sol",
  "compiler": {
    "name": "solc",
    "version": "0.5.9+commit.e560f70d.Emscripten.clang"
  },
  "schemaVersion": "3.0.16",
  "updatedAt": "2020-05-13T15:06:48.139Z",
  "devdoc": {
    "methods": {
      "changeAuthorityAddress(address)": {
        "details": "change system address",
        "params": {
          "_which": "The address to which is new Authority address"
        }
      },
      "changePrimaryOwner(address)": {
        "details": "change primary ownership",
        "params": {
          "_which": "The address to which is new owner address"
        }
      },
      "changeSystemAddress(address)": {
        "details": "change system address",
        "params": {
          "_which": "The address to which is new system address"
        }
      }
    }
  },
  "userdoc": {
    "methods": {}
  }
}