{
  "contractName": "AuctionFormula",
  "abi": [
    {
      "constant": true,
      "inputs": [],
      "name": "version",
      "outputs": [
        {
          "name": "",
          "type": "uint16"
        }
      ],
      "payable": false,
      "stateMutability": "view",
      "type": "function"
    },
    {
      "constant": true,
      "inputs": [
        {
          "name": "dayWiseContributionByWallet",
          "type": "uint256"
        },
        {
          "name": "dayWiseSupplyCore",
          "type": "uint256"
        },
        {
          "name": "dayWiseSupplyBonus",
          "type": "uint256"
        },
        {
          "name": "dayWiseContribution",
          "type": "uint256"
        },
        {
          "name": "downSideProtectionRatio",
          "type": "uint256"
        }
      ],
      "name": "calcuateAuctionTokenDistrubution",
      "outputs": [
        {
          "name": "",
          "type": "uint256"
        },
        {
          "name": "",
          "type": "uint256"
        }
      ],
      "payable": false,
      "stateMutability": "pure",
      "type": "function"
    },
    {
      "constant": true,
      "inputs": [
        {
          "name": "_value",
          "type": "uint256"
        },
        {
          "name": "downSideProtectionRatio",
          "type": "uint256"
        },
        {
          "name": "fundWalletRatio",
          "type": "uint256"
        }
      ],
      "name": "calcuateAuctionFundDistrubution",
      "outputs": [
        {
          "name": "",
          "type": "uint256"
        },
        {
          "name": "",
          "type": "uint256"
        },
        {
          "name": "",
          "type": "uint256"
        }
      ],
      "payable": false,
      "stateMutability": "pure",
      "type": "function"
    },
    {
      "constant": true,
      "inputs": [
        {
          "name": "_reserveBaseTokenBalance",
          "type": "uint256"
        },
        {
          "name": "_reserveBaseTokenRatio",
          "type": "uint256"
        },
        {
          "name": "_reserveMainTokenPrice",
          "type": "uint256"
        },
        {
          "name": "_reserveMainTokenRatio",
          "type": "uint256"
        },
        {
          "name": "_baseTokenPrice",
          "type": "uint256"
        }
      ],
      "name": "calculateApprectiation",
      "outputs": [
        {
          "name": "",
          "type": "uint256"
        }
      ],
      "payable": false,
      "stateMutability": "pure",
      "type": "function"
    },
    {
      "constant": true,
      "inputs": [
        {
          "name": "_reserveBaseTokenBalance",
          "type": "uint256"
        },
        {
          "name": "_reserveBaseTokenRatio",
          "type": "uint256"
        },
        {
          "name": "_reserveMainTokenBalance",
          "type": "uint256"
        },
        {
          "name": "_reserveMainTokenRatio",
          "type": "uint256"
        },
        {
          "name": "_baseTokenPrice",
          "type": "uint256"
        }
      ],
      "name": "calculateTokenPrice",
      "outputs": [
        {
          "name": "",
          "type": "uint256"
        }
      ],
      "payable": false,
      "stateMutability": "pure",
      "type": "function"
    },
    {
      "constant": true,
      "inputs": [
        {
          "name": "todayContribution",
          "type": "uint256"
        },
        {
          "name": "tokenPrice",
          "type": "uint256"
        },
        {
          "name": "decimal",
          "type": "uint256"
        }
      ],
      "name": "calculateNewSupply",
      "outputs": [
        {
          "name": "",
          "type": "uint256"
        }
      ],
      "payable": false,
      "stateMutability": "pure",
      "type": "function"
    },
    {
      "constant": true,
      "inputs": [
        {
          "name": "_supply",
          "type": "uint256"
        },
        {
          "name": "_percent",
          "type": "uint256"
        }
      ],
      "name": "calculateMangmentFee",
      "outputs": [
        {
          "name": "",
          "type": "uint256"
        }
      ],
      "payable": false,
      "stateMutability": "pure",
      "type": "function"
    },
    {
      "constant": true,
      "inputs": [
        {
          "name": "yesterdayPrice",
          "type": "uint256"
        },
        {
          "name": "dayBeforyesterdayPrice",
          "type": "uint256"
        },
        {
          "name": "yesterDaycontibution",
          "type": "uint256"
        },
        {
          "name": "yesterdayMainReserv",
          "type": "uint256"
        }
      ],
      "name": "calculateLiquadityMainReserve",
      "outputs": [
        {
          "name": "",
          "type": "uint256"
        }
      ],
      "payable": false,
      "stateMutability": "pure",
      "type": "function"
    }
  ],
  "bytecode": "0x60806040526000805461ffff1916600117905534801561001e57600080fd5b506104538061002e6000396000f3fe608060405234801561001057600080fd5b50600436106100885760003560e01c806361a9bc211161005b57806361a9bc211461011c578063640fc3051461014b578063675a0eb414610192578063aeaffdb5146101b557610088565b806322c687471461008d57806342d85379146100c857806354fd4d50146100fd5780635d449162146100c8575b600080fd5b6100b6600480360360608110156100a357600080fd5b5080359060208101359060400135610203565b60408051918252519081900360200190f35b6100b6600480360360a08110156100de57600080fd5b508035906020810135906040810135906060810135906080013561022a565b61010561027e565b6040805161ffff9092168252519081900360200190f35b6100b66004803603608081101561013257600080fd5b5080359060208101359060408101359060600135610288565b6101746004803603606081101561016157600080fd5b50803590602081013590604001356102c7565b60408051938452602084019290925282820152519081900360600190f35b6100b6600480360360408110156101a857600080fd5b508035906020013561031d565b6101ea600480360360a08110156101cb57600080fd5b5080359060208101359060408101359060608101359060800135610352565b6040805192835260208301919091528051918290030190f35b600061022261021c85610217600a866103b8565b6103bd565b846103e8565b949350505050565b60008061025861024961023d89876103bd565b610217600a60066103b8565b61025387896103bd565b6103e8565b905061027361026782856103bd565b610253600a60066103b8565b979650505050505050565b60005461ffff1681565b60008061029e61021c85610217600a60066103b8565b905060006102bb6102b588610217600a60066103b8565b876103e8565b905061027382826103bd565b6000806000806102e16102da88886103bd565b60646103e8565b905060006102ef88836103fd565b905060006103006102da83896103bd565b905061030c82826103fd565b929990985091965090945050505050565b60008061033961032e8560646103bd565b6102536064866103fd565b9050600061034782866103fd565b925050505b92915050565b600080600061036a610364888a6103bd565b866103e8565b905060008615610384576103816102b5888b6103bd565b90505b6000610390838361040f565b905060006103a66102da8561021760648b6103fd565b919b919a509098505050505050505050565b900a90565b6000826103cc5750600061034c565b828202828482816103d957fe5b04146103e157fe5b9392505050565b6000808284816103f457fe5b04949350505050565b60008282111561040957fe5b50900390565b6000828201838110156103e157fefea265627a7a72305820c7caa255c8df415ed9ceb7f9c46f343d383266336d90de9c10278fa8b7c68aa564736f6c63430005090032",
  "source": "pragma solidity ^0.5.9;\n\nimport \"../common/SafeMath.sol\";\n\n\ncontract AuctionFormula is SafeMath {\n    uint16 public version = 1;\n\n    function calcuateAuctionTokenDistrubution(\n        uint256 dayWiseContributionByWallet,\n        uint256 dayWiseSupplyCore,\n        uint256 dayWiseSupplyBonus,\n        uint256 dayWiseContribution,\n        uint256 downSideProtectionRatio\n    ) external pure returns (uint256, uint256) {\n        uint256 _dayWiseSupplyCore = safeDiv(\n            safeMul(dayWiseSupplyCore, dayWiseContributionByWallet),\n            dayWiseContribution\n        );\n\n        uint256 _dayWiseSupplyBonus = 0;\n\n        if (dayWiseSupplyBonus > 0)\n            _dayWiseSupplyBonus = safeDiv(\n                safeMul(dayWiseSupplyBonus, dayWiseContributionByWallet),\n                dayWiseContribution\n            );\n\n        uint256 _returnAmount = safeAdd(\n            _dayWiseSupplyCore,\n            _dayWiseSupplyBonus\n        );\n\n        // user get only 100 - downSideProtectionRatio(90) fund only other fund is locked\n        uint256 _userAmount = safeDiv(\n            safeMul(_dayWiseSupplyCore, safeSub(100, downSideProtectionRatio)),\n            100\n        );\n\n        return (_returnAmount, _userAmount);\n    }\n\n    function calcuateAuctionFundDistrubution(\n        uint256 _value,\n        uint256 downSideProtectionRatio,\n        uint256 fundWalletRatio\n    ) external pure returns (uint256, uint256, uint256) {\n        uint256 _downsideAmount = safeDiv(\n            safeMul(_value, downSideProtectionRatio),\n            100\n        );\n        uint256 newvalue = safeSub(_value, _downsideAmount);\n\n        uint256 _fundwallet = safeDiv(safeMul(newvalue, fundWalletRatio), 100);\n\n        newvalue = safeSub(newvalue, _fundwallet);\n\n        return (_downsideAmount, _fundwallet, newvalue);\n    }\n\n    function calculateApprectiation(\n        uint256 _reserveBaseTokenBalance,\n        uint256 _reserveBaseTokenRatio,\n        uint256 _reserveMainTokenPrice,\n        uint256 _reserveMainTokenRatio,\n        uint256 _baseTokenPrice\n    ) external pure returns (uint256) {\n        uint256 ratio = safeDiv(\n            safeMul(\n                safeMul(_reserveBaseTokenBalance, _reserveMainTokenRatio),\n                safeExponent(10, 6)\n            ),\n            safeMul(_reserveMainTokenPrice, _reserveBaseTokenRatio)\n        );\n\n        return safeDiv(safeMul(ratio, _baseTokenPrice), safeExponent(10, 6));\n    }\n\n    function calculateTokenPrice(\n        uint256 _reserveBaseTokenBalance,\n        uint256 _reserveBaseTokenRatio,\n        uint256 _reserveMainTokenBalance,\n        uint256 _reserveMainTokenRatio,\n        uint256 _baseTokenPrice\n    ) external pure returns (uint256) {\n        uint256 ratio = safeDiv(\n            safeMul(\n                safeMul(_reserveBaseTokenBalance, _reserveMainTokenRatio),\n                safeExponent(10, 6)\n            ),\n            safeMul(_reserveMainTokenBalance, _reserveBaseTokenRatio)\n        );\n\n        return safeDiv(safeMul(ratio, _baseTokenPrice), safeExponent(10, 6));\n    }\n\n    function calculateNewSupply(\n        uint256 todayContribution,\n        uint256 tokenPrice,\n        uint256 decimal\n    ) external pure returns (uint256) {\n        return\n            safeDiv(\n                safeMul(todayContribution, safeExponent(10, decimal)),\n                tokenPrice\n            );\n    }\n\n    function calculateMangmentFee(uint256 _supply, uint256 _percent)\n        external\n        pure\n        returns (uint256)\n    {\n        uint256 _tempSupply = safeDiv(\n            safeMul(_supply, 100),\n            safeSub(100, _percent)\n        );\n        uint256 _managmantFee = safeSub(_tempSupply, _supply);\n        return _managmantFee;\n    }\n\n    function calculateLiquadityMainReserve(\n        uint256 yesterdayPrice,\n        uint256 dayBeforyesterdayPrice,\n        uint256 yesterDaycontibution,\n        uint256 yesterdayMainReserv\n    ) external pure returns (uint256) {\n        \n        // multiply 10**6 so we cant get zero value if amount come in float \n        uint256 _tempContrbution = safeDiv(\n            safeMul(yesterDaycontibution, safeExponent(10, 6)),\n            yesterdayMainReserv\n        );\n        \n        \n        uint256 _tempSupply = safeDiv(\n            safeMul(yesterdayPrice, safeExponent(10, 6)),\n            dayBeforyesterdayPrice\n        );\n        \n        \n        return safeMul(_tempContrbution, _tempSupply);\n    }\n}\n",
  "sourcePath": "/home/safu/minddeft/jointerInc/jointer-token/contracts/auctionContracts/AuctionFormula.sol",
  "compiler": {
    "name": "solc",
    "version": "0.5.9+commit.e560f70d.Emscripten.clang"
  },
  "schemaVersion": "3.1.0",
  "updatedAt": "2020-05-22T13:05:30.573Z",
  "devdoc": {
    "methods": {}
  },
  "userdoc": {
    "methods": {}
  }
}