{
  "contractName": "AuctionProtection",
  "abi": [
    {
      "constant": false,
      "inputs": [
        {
          "name": "_which",
          "type": "address"
        }
      ],
      "name": "changeSystemAddress",
      "outputs": [
        {
          "name": "",
          "type": "bool"
        }
      ],
      "payable": false,
      "stateMutability": "nonpayable",
      "type": "function"
    },
    {
      "constant": true,
      "inputs": [],
      "name": "newAuthorityAddress",
      "outputs": [
        {
          "name": "",
          "type": "address"
        }
      ],
      "payable": false,
      "stateMutability": "view",
      "type": "function"
    },
    {
      "constant": true,
      "inputs": [
        {
          "name": "",
          "type": "address"
        }
      ],
      "name": "lockedOn",
      "outputs": [
        {
          "name": "",
          "type": "uint256"
        }
      ],
      "payable": false,
      "stateMutability": "view",
      "type": "function"
    },
    {
      "constant": true,
      "inputs": [
        {
          "name": "",
          "type": "address"
        }
      ],
      "name": "unLockBlock",
      "outputs": [
        {
          "name": "",
          "type": "bool"
        }
      ],
      "payable": false,
      "stateMutability": "view",
      "type": "function"
    },
    {
      "constant": false,
      "inputs": [],
      "name": "acceptAuthorityAddress",
      "outputs": [
        {
          "name": "",
          "type": "bool"
        }
      ],
      "payable": false,
      "stateMutability": "nonpayable",
      "type": "function"
    },
    {
      "constant": false,
      "inputs": [
        {
          "name": "_tokenLockDuration",
          "type": "uint256"
        }
      ],
      "name": "setTokenLockDuration",
      "outputs": [
        {
          "name": "",
          "type": "bool"
        }
      ],
      "payable": false,
      "stateMutability": "nonpayable",
      "type": "function"
    },
    {
      "constant": true,
      "inputs": [],
      "name": "authorityAddress",
      "outputs": [
        {
          "name": "",
          "type": "address"
        }
      ],
      "payable": false,
      "stateMutability": "view",
      "type": "function"
    },
    {
      "constant": true,
      "inputs": [],
      "name": "isOwnerInitialize",
      "outputs": [
        {
          "name": "",
          "type": "bool"
        }
      ],
      "payable": false,
      "stateMutability": "view",
      "type": "function"
    },
    {
      "constant": true,
      "inputs": [
        {
          "name": "",
          "type": "address"
        }
      ],
      "name": "allowedAddress",
      "outputs": [
        {
          "name": "",
          "type": "bool"
        }
      ],
      "payable": false,
      "stateMutability": "view",
      "type": "function"
    },
    {
      "constant": true,
      "inputs": [
        {
          "name": "",
          "type": "address"
        },
        {
          "name": "",
          "type": "address"
        }
      ],
      "name": "lockedFunds",
      "outputs": [
        {
          "name": "",
          "type": "uint256"
        }
      ],
      "payable": false,
      "stateMutability": "view",
      "type": "function"
    },
    {
      "constant": true,
      "inputs": [
        {
          "name": "",
          "type": "address"
        },
        {
          "name": "",
          "type": "address"
        }
      ],
      "name": "currentLockedFunds",
      "outputs": [
        {
          "name": "",
          "type": "uint256"
        }
      ],
      "payable": false,
      "stateMutability": "view",
      "type": "function"
    },
    {
      "constant": true,
      "inputs": [
        {
          "name": "",
          "type": "address"
        }
      ],
      "name": "tokenAllowed",
      "outputs": [
        {
          "name": "",
          "type": "bool"
        }
      ],
      "payable": false,
      "stateMutability": "view",
      "type": "function"
    },
    {
      "constant": true,
      "inputs": [],
      "name": "implementation",
      "outputs": [
        {
          "name": "",
          "type": "address"
        }
      ],
      "payable": false,
      "stateMutability": "view",
      "type": "function"
    },
    {
      "constant": true,
      "inputs": [
        {
          "name": "",
          "type": "uint256"
        }
      ],
      "name": "allowedTokens",
      "outputs": [
        {
          "name": "",
          "type": "address"
        }
      ],
      "payable": false,
      "stateMutability": "view",
      "type": "function"
    },
    {
      "constant": true,
      "inputs": [
        {
          "name": "",
          "type": "address"
        }
      ],
      "name": "lockedTokens",
      "outputs": [
        {
          "name": "",
          "type": "uint256"
        }
      ],
      "payable": false,
      "stateMutability": "view",
      "type": "function"
    },
    {
      "constant": false,
      "inputs": [
        {
          "name": "_primaryOwner",
          "type": "address"
        },
        {
          "name": "_systemAddress",
          "type": "address"
        },
        {
          "name": "_authorityAddress",
          "type": "address"
        }
      ],
      "name": "initializeOwner",
      "outputs": [],
      "payable": false,
      "stateMutability": "nonpayable",
      "type": "function"
    },
    {
      "constant": true,
      "inputs": [
        {
          "name": "_firstLockDay",
          "type": "uint256"
        }
      ],
      "name": "isTokenLockEndDay",
      "outputs": [
        {
          "name": "",
          "type": "bool"
        }
      ],
      "payable": false,
      "stateMutability": "view",
      "type": "function"
    },
    {
      "constant": true,
      "inputs": [],
      "name": "registry",
      "outputs": [
        {
          "name": "",
          "type": "address"
        }
      ],
      "payable": false,
      "stateMutability": "view",
      "type": "function"
    },
    {
      "constant": true,
      "inputs": [],
      "name": "primaryOwner",
      "outputs": [
        {
          "name": "",
          "type": "address"
        }
      ],
      "payable": false,
      "stateMutability": "view",
      "type": "function"
    },
    {
      "constant": false,
      "inputs": [
        {
          "name": "_which",
          "type": "address"
        }
      ],
      "name": "changeAuthorityAddress",
      "outputs": [
        {
          "name": "",
          "type": "bool"
        }
      ],
      "payable": false,
      "stateMutability": "nonpayable",
      "type": "function"
    },
    {
      "constant": false,
      "inputs": [
        {
          "name": "_which",
          "type": "address"
        }
      ],
      "name": "allowToken",
      "outputs": [
        {
          "name": "",
          "type": "bool"
        }
      ],
      "payable": false,
      "stateMutability": "nonpayable",
      "type": "function"
    },
    {
      "constant": false,
      "inputs": [
        {
          "name": "_address",
          "type": "address"
        }
      ],
      "name": "updateRegistery",
      "outputs": [
        {
          "name": "",
          "type": "bool"
        }
      ],
      "payable": false,
      "stateMutability": "nonpayable",
      "type": "function"
    },
    {
      "constant": false,
      "inputs": [
        {
          "name": "_which",
          "type": "address"
        }
      ],
      "name": "changePrimaryOwner",
      "outputs": [
        {
          "name": "",
          "type": "bool"
        }
      ],
      "payable": false,
      "stateMutability": "nonpayable",
      "type": "function"
    },
    {
      "constant": true,
      "inputs": [],
      "name": "tokenLockDuration",
      "outputs": [
        {
          "name": "",
          "type": "uint256"
        }
      ],
      "payable": false,
      "stateMutability": "view",
      "type": "function"
    },
    {
      "constant": true,
      "inputs": [],
      "name": "systemAddress",
      "outputs": [
        {
          "name": "",
          "type": "address"
        }
      ],
      "payable": false,
      "stateMutability": "view",
      "type": "function"
    },
    {
      "constant": true,
      "inputs": [],
      "name": "contractsRegistry",
      "outputs": [
        {
          "name": "",
          "type": "address"
        }
      ],
      "payable": false,
      "stateMutability": "view",
      "type": "function"
    },
    {
      "constant": false,
      "inputs": [
        {
          "name": "_address",
          "type": "address"
        },
        {
          "name": "_check",
          "type": "bool"
        }
      ],
      "name": "setAllowedAddress",
      "outputs": [
        {
          "name": "",
          "type": "bool"
        }
      ],
      "payable": false,
      "stateMutability": "nonpayable",
      "type": "function"
    },
    {
      "anonymous": false,
      "inputs": [
        {
          "indexed": true,
          "name": "_from",
          "type": "address"
        }
      ],
      "name": "TokenUnLocked",
      "type": "event"
    },
    {
      "anonymous": false,
      "inputs": [
        {
          "indexed": true,
          "name": "_from",
          "type": "address"
        }
      ],
      "name": "InvestMentCancelled",
      "type": "event"
    },
    {
      "anonymous": false,
      "inputs": [
        {
          "indexed": false,
          "name": "_token",
          "type": "address"
        },
        {
          "indexed": false,
          "name": "_which",
          "type": "address"
        },
        {
          "indexed": false,
          "name": "_amount",
          "type": "uint256"
        }
      ],
      "name": "FundLocked",
      "type": "event"
    },
    {
      "anonymous": false,
      "inputs": [
        {
          "indexed": true,
          "name": "_to",
          "type": "address"
        },
        {
          "indexed": false,
          "name": "_token",
          "type": "address"
        },
        {
          "indexed": false,
          "name": "_amount",
          "type": "uint256"
        }
      ],
      "name": "FundTransfer",
      "type": "event"
    },
    {
      "anonymous": false,
      "inputs": [
        {
          "indexed": false,
          "name": "ownerType",
          "type": "string"
        },
        {
          "indexed": true,
          "name": "previousOwner",
          "type": "address"
        },
        {
          "indexed": true,
          "name": "newOwner",
          "type": "address"
        }
      ],
      "name": "OwnershipTransferred",
      "type": "event"
    },
    {
      "anonymous": false,
      "inputs": [
        {
          "indexed": true,
          "name": "previousOwner",
          "type": "address"
        },
        {
          "indexed": true,
          "name": "newOwner",
          "type": "address"
        }
      ],
      "name": "AuthorityAddressChnageCall",
      "type": "event"
    },
    {
      "constant": true,
      "inputs": [],
      "name": "initialize",
      "outputs": [],
      "payable": false,
      "stateMutability": "view",
      "type": "function"
    },
    {
      "constant": false,
      "inputs": [
        {
          "name": "_primaryOwner",
          "type": "address"
        },
        {
          "name": "_systemAddress",
          "type": "address"
        },
        {
          "name": "_authorityAddress",
          "type": "address"
        },
        {
          "name": "_registeryAddress",
          "type": "address"
        }
      ],
      "name": "initialize",
      "outputs": [],
      "payable": false,
      "stateMutability": "nonpayable",
      "type": "function"
    },
    {
      "constant": false,
      "inputs": [
        {
          "name": "_which",
          "type": "address"
        }
      ],
      "name": "lockEther",
      "outputs": [
        {
          "name": "",
          "type": "bool"
        }
      ],
      "payable": true,
      "stateMutability": "payable",
      "type": "function"
    },
    {
      "constant": false,
      "inputs": [
        {
          "name": "_token",
          "type": "address"
        },
        {
          "name": "_from",
          "type": "address"
        },
        {
          "name": "_which",
          "type": "address"
        },
        {
          "name": "_amount",
          "type": "uint256"
        }
      ],
      "name": "lockTokens",
      "outputs": [
        {
          "name": "",
          "type": "bool"
        }
      ],
      "payable": false,
      "stateMutability": "nonpayable",
      "type": "function"
    },
    {
      "constant": false,
      "inputs": [],
      "name": "cancelInvestment",
      "outputs": [
        {
          "name": "",
          "type": "bool"
        }
      ],
      "payable": false,
      "stateMutability": "nonpayable",
      "type": "function"
    },
    {
      "constant": false,
      "inputs": [],
      "name": "unLockTokens",
      "outputs": [
        {
          "name": "",
          "type": "bool"
        }
      ],
      "payable": false,
      "stateMutability": "nonpayable",
      "type": "function"
    },
    {
      "constant": false,
      "inputs": [
        {
          "name": "_which",
          "type": "address"
        }
      ],
      "name": "unLockFundByAdmin",
      "outputs": [
        {
          "name": "",
          "type": "bool"
        }
      ],
      "payable": false,
      "stateMutability": "nonpayable",
      "type": "function"
    },
    {
      "constant": false,
      "inputs": [
        {
          "name": "_from",
          "type": "address"
        },
        {
          "name": "_which",
          "type": "address"
        },
        {
          "name": "_amount",
          "type": "uint256"
        }
      ],
      "name": "depositToken",
      "outputs": [
        {
          "name": "",
          "type": "bool"
        }
      ],
      "payable": false,
      "stateMutability": "nonpayable",
      "type": "function"
    }
  ],
  "bytecode": "0x6080604052600780546001600160a01b03199081169091556008805482169055600980549091169055600a80546001600160a81b031916905534801561004457600080fd5b50612e4e806100546000396000f3fe6080604052600436106102045760003560e01c80635e5f2e2611610118578063b53472ef116100a0578063d3e848f11161006f578063d3e848f11461070d578063d98d0c7e14610722578063f8c8765e14610737578063fae3698614610782578063fb0f97a8146107bd57610204565b8063b53472ef1461065f578063bc1366fe14610692578063c4d34268146106c5578063d0982feb146106f857610204565b80637b103999116100e75780637b103999146105d85780638129fc1c146105ed5780638e10be33146106025780638f51368b1461061757806394f8e9541461064a57610204565b80635e5f2e261461050a5780635eb7413a14610534578063760e595a146105675780637744d424146105ae57610204565b806322639bd11161019b578063409082981161016a57806340908298146104195780634bdde1cf1461044c578063507e38531461048757806355219d5a146104c25780635c60da1b146104f557610204565b806322639bd11461039f578063320454c0146103c55780633c695d4e146103ef5780633ff59a521461040457610204565b80631044bbe6116101d75780631044bbe6146102f957806311b858e91461030e5780631b14eef91461035757806320c462fe1461038a57610204565b806304d630891461020957806307b9b62a146102505780630abaad7a146102835780630e470179146102b4575b600080fd5b34801561021557600080fd5b5061023c6004803603602081101561022c57600080fd5b50356001600160a01b0316610800565b604080519115158252519081900360200190f35b34801561025c57600080fd5b5061023c6004803603602081101561027357600080fd5b50356001600160a01b0316610b11565b34801561028f57600080fd5b50610298610f12565b604080516001600160a01b039092168252519081900360200190f35b3480156102c057600080fd5b506102e7600480360360208110156102d757600080fd5b50356001600160a01b0316610f21565b60408051918252519081900360200190f35b34801561030557600080fd5b5061023c610f33565b34801561031a57600080fd5b5061023c6004803603608081101561033157600080fd5b506001600160a01b038135811691602081013582169160408201351690606001356111f4565b34801561036357600080fd5b5061023c6004803603602081101561037a57600080fd5b50356001600160a01b0316611306565b34801561039657600080fd5b5061023c61131b565b61023c600480360360208110156103b557600080fd5b50356001600160a01b0316611430565b3480156103d157600080fd5b5061023c600480360360208110156103e857600080fd5b50356114cb565b3480156103fb57600080fd5b50610298611553565b34801561041057600080fd5b5061023c611562565b34801561042557600080fd5b5061023c6004803603602081101561043c57600080fd5b50356001600160a01b0316611572565b34801561045857600080fd5b506102e76004803603604081101561046f57600080fd5b506001600160a01b0381358116916020013516611587565b34801561049357600080fd5b506102e7600480360360408110156104aa57600080fd5b506001600160a01b03813581169160200135166115a4565b3480156104ce57600080fd5b5061023c600480360360208110156104e557600080fd5b50356001600160a01b03166115c1565b34801561050157600080fd5b506102986115d6565b34801561051657600080fd5b506102986004803603602081101561052d57600080fd5b50356115e5565b34801561054057600080fd5b506102e76004803603602081101561055757600080fd5b50356001600160a01b031661160c565b34801561057357600080fd5b506105ac6004803603606081101561058a57600080fd5b506001600160a01b03813581169160208101358216916040909101351661161e565b005b3480156105ba57600080fd5b5061023c600480360360208110156105d157600080fd5b50356119f4565b3480156105e457600080fd5b50610298611a32565b3480156105f957600080fd5b506105ac611a41565b34801561060e57600080fd5b50610298611aa2565b34801561062357600080fd5b5061023c6004803603602081101561063a57600080fd5b50356001600160a01b0316611ab1565b34801561065657600080fd5b5061023c611c92565b34801561066b57600080fd5b5061023c6004803603602081101561068257600080fd5b50356001600160a01b0316611f73565b34801561069e57600080fd5b5061023c600480360360208110156106b557600080fd5b50356001600160a01b0316612148565b3480156106d157600080fd5b5061023c600480360360208110156106e857600080fd5b50356001600160a01b031661226d565b34801561070457600080fd5b506102e76124b0565b34801561071957600080fd5b506102986124b6565b34801561072e57600080fd5b506102986124c5565b34801561074357600080fd5b506105ac6004803603608081101561075a57600080fd5b506001600160a01b0381358116916020810135821691604082013581169160600135166124d4565b34801561078e57600080fd5b5061023c600480360360408110156107a557600080fd5b506001600160a01b038135169060200135151561250e565b3480156107c957600080fd5b5061023c600480360360608110156107e057600080fd5b506001600160a01b03813581169160208101359091169060400135612654565b60085460408051808201909152601b8152600080516020612dfa83398151915260208201526000916001600160a01b031633146108bb5760405162461bcd60e51b81526004018080602001828103825283818151815260200191508051906020019080838360005b83811015610880578181015183820152602001610868565b50505050905090810190601f1680156108ad5780820380516001836020036101000a031916815260200191505b509250505060405180910390fd5b5060408051808201909152601981527f4552525f434f4e54524143545f53454c465f4144445245535300000000000000602082015282906001600160a01b03821630141561094a5760405162461bcd60e51b8152602060048201818152835160248401528351909283926044909101919085019080838360008315610880578181015183820152602001610868565b5060408051808201909152601081526f4552525f5a45524f5f4144445245535360801b602082015283906001600160a01b0382166109c95760405162461bcd60e51b8152602060048201818152835160248401528351909283926044909101919085019080838360008315610880578181015183820152602001610868565b50600a546001600160a01b038581169116148015906109f657506008546001600160a01b03858116911614155b8015610a1057506007546001600160a01b03858116911614155b6040518060400160405280601081526020016f4552525f53414d455f4144445245535360801b81525090610a855760405162461bcd60e51b8152602060048201818152835160248401528351909283926044909101919085019080838360008315610880578181015183820152602001610868565b50600a54604080516020808252600e908201526d53595354454d5f4144445245535360901b8183015290516001600160a01b038088169316917f6840904f5b31827f74e1497360da245f56e530c8c3de3163a2d31f11493273c6919081900360600190a3600a80546001600160a01b0386166001600160a01b0319909116179055600192505050919050565b6007546000906001600160a01b0316331480610b375750600a546001600160a01b031633145b6040518060400160405280601b8152602001600080516020612dfa83398151915281525090610ba75760405162461bcd60e51b8152602060048201818152835160248401528351909283926044909101919085019080838360008315610880578181015183820152602001610868565b506001600160a01b0382166000908152600c6020526040902054610bca906119f4565b610c1b576040805162461bcd60e51b815260206004820152601a60248201527f4552525f41444d494e5f43414e545f554e4c4f434b5f46554e44000000000000604482015290519081900360640190fd5b6000610c32685441475f414c4f4e4760b81b61290f565b9050600080805b600454811015610d635760048181548110610c5057fe5b60009182526020808320909101546001600160a01b038981168452600d8352604080852091909216808552925290912054935091508215610d5b57610c9682858561298d565b6040805163c1bc42bb60e01b81526001600160a01b0384811660048301523060248301526044820186905291519186169163c1bc42bb9160648082019260009290919082900301818387803b158015610cee57600080fd5b505af1158015610d02573d6000803e3d6000fd5b5050506001600160a01b038088166000908152600d6020908152604080832087851680855290835281842093909355805192835290820187905280519288169350600080516020612dda83398151915292918290030190a25b600101610c39565b506001600160a01b0385166000908152600d6020908152604080832083805290915290205491508115610e3e57826001600160a01b031663e799b3f5836040518263ffffffff1660e01b81526004016000604051808303818588803b158015610dcb57600080fd5b505af1158015610ddf573d6000803e3d6000fd5b505060408051600081526020810187905281516001600160a01b0389169550600080516020612dda8339815191529450908190039091019150a26001600160a01b0385166000908152600d602090815260408083208380529091528120555b6001600160a01b0385166000908152600f602052604090205491508115610ed157610e756926a0a4a72faa27a5a2a760b11b61290f565b9050610e8381308785612a1e565b604080516001600160a01b03838116825260208201859052825190881692600080516020612dda833981519152928290030190a26001600160a01b0385166000908152600f60205260408120555b6040516001600160a01b038616907fe5b46c30acbb016d9469fbcaa4f275ff952a718786f17c268271bd2938f0fe1f90600090a2600193505050505b919050565b6009546001600160a01b031681565b600c6020526000908152604090205481565b600080610f4b685441475f414c4f4e4760b81b61290f565b9050600080805b6004548110156110785760048181548110610f6957fe5b6000918252602080832090910154338352600d825260408084206001600160a01b039092168085529190925291205493509150821561107057610fad82858561298d565b6040805163c1bc42bb60e01b81526001600160a01b0384811660048301523060248301526044820186905291519186169163c1bc42bb9160648082019260009290919082900301818387803b15801561100557600080fd5b505af1158015611019573d6000803e3d6000fd5b5050336000908152600d602090815260408083206001600160a01b0388811680865291845282852094909455815190815291820188905280519289169450600080516020612dda8339815191529350908290030190a25b600101610f52565b50336000908152600d602090815260408083208380529091529020549150811561114157826001600160a01b031663e799b3f5836040518263ffffffff1660e01b81526004016000604051808303818588803b1580156110d757600080fd5b505af11580156110eb573d6000803e3d6000fd5b505060408051600081526020810187905281516001600160a01b0389169550600080516020612dda8339815191529450908190039091019150a2336000908152600d602090815260408083208380529091528120555b336000908152600f6020526040902054915081156111bf5761116f6926a0a4a72faa27a5a2a760b11b61290f565b905061117d81303385612a1e565b604080516001600160a01b03831681526020810184905281513392600080516020612dda833981519152928290030190a2336000908152600f60205260408120555b60405133907fe5b46c30acbb016d9469fbcaa4f275ff952a718786f17c268271bd2938f0fe1f90600090a26001935050505090565b336000818152600260209081526040808320548151808301909252601b8252600080516020612dfa833981519152928201929092529192919060ff1661127b5760405162461bcd60e51b8152602060048201818152835160248401528351909283926044909101919085019080838360008315610880578181015183820152602001610868565b506001600160a01b038616600090815260056020526040902054869060ff166112e4576040805162461bcd60e51b815260206004820152601660248201527522a9292fa7a7262cafa0a62627aba2a22faa27a5a2a760511b604482015290519081900360640190fd5b6112f087873087612a1e565b6112fb878686612ca0565b979650505050505050565b60066020526000908152604090205460ff1681565b60095460408051808201909152601b8152600080516020612dfa83398151915260208201526000916001600160a01b031633146113995760405162461bcd60e51b8152602060048201818152835160248401528351909283926044909101919085019080838360008315610880578181015183820152602001610868565b5060095460085460408051602080825260119082015270415554484f524954595f4144445245535360781b8183015290516001600160a01b039384169392909216917f6840904f5b31827f74e1497360da245f56e530c8c3de3163a2d31f11493273c69181900360600190a35060098054600880546001600160a01b03199081166001600160a01b03841617909155169055600190565b336000818152600260209081526040808320548151808301909252601b8252600080516020612dfa833981519152928201929092529192919060ff166114b75760405162461bcd60e51b8152602060048201818152835160248401528351909283926044909101919085019080838360008315610880578181015183820152602001610868565b506114c460008434612ca0565b9392505050565b60085460408051808201909152601b8152600080516020612dfa83398151915260208201526000916001600160a01b031633146115495760405162461bcd60e51b8152602060048201818152835160248401528351909283926044909101919085019080838360008315610880578181015183820152602001610868565b5050600355600190565b6008546001600160a01b031681565b600a54600160a01b900460ff1681565b60026020526000908152604090205460ff1681565b600d60209081526000928352604080842090915290825290205481565b600e60209081526000928352604080842090915290825290205481565b60056020526000908152604090205460ff1681565b6001546001600160a01b031690565b600481815481106115f257fe5b6000918252602090912001546001600160a01b0316905081565b600f6020526000908152604090205481565b60408051808201909152601081526f4552525f5a45524f5f4144445245535360801b602082015283906001600160a01b03821661169c5760405162461bcd60e51b8152602060048201818152835160248401528351909283926044909101919085019080838360008315610880578181015183820152602001610868565b5060408051808201909152601081526f4552525f5a45524f5f4144445245535360801b602082015283906001600160a01b03821661171b5760405162461bcd60e51b8152602060048201818152835160248401528351909283926044909101919085019080838360008315610880578181015183820152602001610868565b5060408051808201909152601081526f4552525f5a45524f5f4144445245535360801b602082015283906001600160a01b03821661179a5760405162461bcd60e51b8152602060048201818152835160248401528351909283926044909101919085019080838360008315610880578181015183820152602001610868565b50600a54600160a01b900460ff16156117fa576040805162461bcd60e51b815260206004820152601c60248201527f4552525f4f574e45525f494e5449414c495a45445f414c524541445900000000604482015290519081900360640190fd5b846001600160a01b0316866001600160a01b031614156040518060400160405280601081526020016f4552525f53414d455f4144445245535360801b815250906118855760405162461bcd60e51b8152602060048201818152835160248401528351909283926044909101919085019080838360008315610880578181015183820152602001610868565b50836001600160a01b0316856001600160a01b031614156040518060400160405280601081526020016f4552525f53414d455f4144445245535360801b815250906119115760405162461bcd60e51b8152602060048201818152835160248401528351909283926044909101919085019080838360008315610880578181015183820152602001610868565b50836001600160a01b0316866001600160a01b031614156040518060400160405280601081526020016f4552525f53414d455f4144445245535360801b8152509061199d5760405162461bcd60e51b8152602060048201818152835160248401528351909283926044909101919085019080838360008315610880578181015183820152602001610868565b5050600780546001600160a01b039687166001600160a01b031991821617909155600a8054600880549689169684169690961790955560ff60a01b199590961693169290921792909216600160a01b179092555050565b600080611a0662015180600354612d7c565b90506000611a148285612da9565b9050804210611a2857600192505050610f0d565b5060009392505050565b6000546001600160a01b031681565b6000546001600160a01b03163314611aa0576040805162461bcd60e51b815260206004820152601c60248201527f4552525f4f4e4c595f524547495354524552595f43414e5f43414c4c00000000604482015290519081900360640190fd5b565b6007546001600160a01b031681565b60085460408051808201909152601b8152600080516020612dfa83398151915260208201526000916001600160a01b03163314611b2f5760405162461bcd60e51b8152602060048201818152835160248401528351909283926044909101919085019080838360008315610880578181015183820152602001610868565b5060408051808201909152601081526f4552525f5a45524f5f4144445245535360801b602082015282906001600160a01b038216611bae5760405162461bcd60e51b8152602060048201818152835160248401528351909283926044909101919085019080838360008315610880578181015183820152602001610868565b50600a546001600160a01b03848116911614801590611bdb57506008546001600160a01b03848116911614155b8015611bf557506007546001600160a01b03848116911614155b6040518060400160405280601081526020016f4552525f53414d455f4144445245535360801b81525090611c6a5760405162461bcd60e51b8152602060048201818152835160248401528351909283926044909101919085019080838360008315610880578181015183820152602001610868565b50600980546001600160a01b0385166001600160a01b03199091161790556001915050919050565b336000908152600c6020526040812054611cab906119f4565b15611ce75760405162461bcd60e51b8152600401808060200182810382526021815260200180612db96021913960400191505060405180910390fd5b600080805b600454811015611d9f5760048181548110611d0357fe5b6000918252602080832090910154338352600d825260408084206001600160a01b0390921680855291909252912054935091508215611d9757611d4882303386612a1e565b336000818152600d602090815260408083206001600160a01b0387168085529083528184209390935580519283529082018690528051600080516020612dda8339815191529281900390910190a25b600101611cec565b50336000908152600d6020908152604080832083805290915290205491508115611e3657604051339083156108fc029084906000818181858888f19350505050158015611df0573d6000803e3d6000fd5b5060408051600081526020810184905281513392600080516020612dda833981519152928290030190a2336000908152600d602090815260408083208380529091528120555b336000908152600f602052604090205491508115611f3f57611e646926a0a4a72faa27a5a2a760b11b61290f565b90506000611e7964159055531560da1b61290f565b9050611e8682828561298d565b6040805163c1bc42bb60e01b81526001600160a01b0384811660048301523060248301526044820186905291519183169163c1bc42bb9160648082019260009290919082900301818387803b158015611ede57600080fd5b505af1158015611ef2573d6000803e3d6000fd5b5050604080516001600160a01b0386811682526020820188905282519086169450600080516020612dda83398151915293509081900390910190a250336000908152600f60205260408120555b60405133907f79104a0d1fe2dbbc01713c7a98ba91f5aa10a1d1f26ffa53e2d02a4af28166f090600090a260019250505090565b600a5460408051808201909152601b8152600080516020612dfa83398151915260208201526000916001600160a01b03163314611ff15760405162461bcd60e51b8152602060048201818152835160248401528351909283926044909101919085019080838360008315610880578181015183820152602001610868565b5060408051808201909152601081526f4552525f5a45524f5f4144445245535360801b602082015282906001600160a01b0382166120705760405162461bcd60e51b8152602060048201818152835160248401528351909283926044909101919085019080838360008315610880578181015183820152602001610868565b506001600160a01b03831660009081526005602052604090205460ff16156120df576040805162461bcd60e51b815260206004820152601960248201527f4552525f544f4b454e5f414c52454144595f414c4c4f57454400000000000000604482015290519081900360640190fd5b50506004805460018082019092557f8a35acfbc15ff81a39ae7d344fd709f28e8600b4aa8c65c6b64bfe7fe36bd19b0180546001600160a01b0319166001600160a01b03939093169283179055600091825260056020526040909120805460ff19168217905590565b60085460408051808201909152601b8152600080516020612dfa83398151915260208201526000916001600160a01b031633146121c65760405162461bcd60e51b8152602060048201818152835160248401528351909283926044909101919085019080838360008315610880578181015183820152602001610868565b5060408051808201909152601081526f4552525f5a45524f5f4144445245535360801b602082015282906001600160a01b0382166122455760405162461bcd60e51b8152602060048201818152835160248401528351909283926044909101919085019080838360008315610880578181015183820152602001610868565b50600b80546001600160a01b0385166001600160a01b03199091161790556001915050919050565b60085460408051808201909152601b8152600080516020612dfa83398151915260208201526000916001600160a01b031633146122eb5760405162461bcd60e51b8152602060048201818152835160248401528351909283926044909101919085019080838360008315610880578181015183820152602001610868565b5060408051808201909152601081526f4552525f5a45524f5f4144445245535360801b602082015282906001600160a01b03821661236a5760405162461bcd60e51b8152602060048201818152835160248401528351909283926044909101919085019080838360008315610880578181015183820152602001610868565b50600a546001600160a01b0384811691161480159061239757506008546001600160a01b03848116911614155b80156123b157506007546001600160a01b03848116911614155b6040518060400160405280601081526020016f4552525f53414d455f4144445245535360801b815250906124265760405162461bcd60e51b8152602060048201818152835160248401528351909283926044909101919085019080838360008315610880578181015183820152602001610868565b50600754604080516020808252600d908201526c282924a6a0a92cafa7aba722a960991b8183015290516001600160a01b038087169316917f6840904f5b31827f74e1497360da245f56e530c8c3de3163a2d31f11493273c6919081900360600190a3600780546001600160a01b0385166001600160a01b03199091161790556001915050919050565b60035481565b600a546001600160a01b031681565b600b546001600160a01b031681565b6124dc611a41565b600b80546001600160a01b0319166001600160a01b03831617905561016d60035561250884848461161e565b50505050565b6007546000906001600160a01b03163314806125345750600a546001600160a01b031633145b6040518060400160405280601b8152602001600080516020612dfa833981519152815250906125a45760405162461bcd60e51b8152602060048201818152835160248401528351909283926044909101919085019080838360008315610880578181015183820152602001610868565b5060408051808201909152601081526f4552525f5a45524f5f4144445245535360801b602082015283906001600160a01b0382166126235760405162461bcd60e51b8152602060048201818152835160248401528351909283926044909101919085019080838360008315610880578181015183820152602001610868565b5050506001600160a01b03919091166000908152600260205260409020805460ff1916911515919091179055600190565b336000818152600260209081526040808320548151808301909252601b8252600080516020612dfa833981519152928201929092529192919060ff166126db5760405162461bcd60e51b8152602060048201818152835160248401528351909283926044909101919085019080838360008315610880578181015183820152602001610868565b5060006126f46926a0a4a72faa27a5a2a760b11b61290f565b905061270281873087612a1e565b6001600160a01b0385166000908152600f60205260409020546127259085612da9565b6001600160a01b0386166000908152600f602052604081209190915580805b60045481101561280d576004818154811061275b57fe5b60009182526020808320909101546001600160a01b038b81168452600e835260408085209190921680855292529091205493509150821561280557336000908152600d602090815260408083206001600160a01b03861684529091529020546127c49084612da9565b336000908152600d602090815260408083206001600160a01b0387811680865291845282852095909555938c168352600e8252808320938352929052908120555b600101612744565b506001600160a01b0387166000908152600e60209081526040808320838052909152902054156128b7576001600160a01b0387166000818152600e60209081526040808320838052825280832054938352600d825280832083805290915290205490925061287b9083612da9565b6001600160a01b0388166000818152600d60209081526040808320838052825280832094909455918152600e8252828120818052909152908120555b604080516001600160a01b0380861682528916602082015280820188905290517f7060083cf2ce4de65cfe3f362d622b1e098863e3e9e4df08bb1542f1988513b19181900360600190a1506001979650505050505050565b600b5460408051637d4367ab60e11b81526004810184905290516000926001600160a01b03169163fa86cf56916024808301926020929190829003018186803b15801561295b57600080fd5b505afa15801561296f573d6000803e3d6000fd5b505050506040513d602081101561298557600080fd5b505192915050565b826001600160a01b031663095ea7b383836040518363ffffffff1660e01b815260040180836001600160a01b03166001600160a01b0316815260200182815260200192505050602060405180830381600087803b1580156129ed57600080fd5b505af1158015612a01573d6000803e3d6000fd5b505050506040513d6020811015612a1757600080fd5b5050505050565b6000846001600160a01b03166370a08231846040518263ffffffff1660e01b815260040180826001600160a01b03166001600160a01b0316815260200191505060206040518083038186803b158015612a7657600080fd5b505afa158015612a8a573d6000803e3d6000fd5b505050506040513d6020811015612aa057600080fd5b505190506001600160a01b038416301415612b4757846001600160a01b031663a9059cbb84846040518363ffffffff1660e01b815260040180836001600160a01b03166001600160a01b0316815260200182815260200192505050602060405180830381600087803b158015612b1557600080fd5b505af1158015612b29573d6000803e3d6000fd5b505050506040513d6020811015612b3f57600080fd5b50612bcf9050565b604080516323b872dd60e01b81526001600160a01b0386811660048301528581166024830152604482018590529151918716916323b872dd916064808201926020929091908290030181600087803b158015612ba257600080fd5b505af1158015612bb6573d6000803e3d6000fd5b505050506040513d6020811015612bcc57600080fd5b50505b6000856001600160a01b03166370a08231856040518263ffffffff1660e01b815260040180826001600160a01b03166001600160a01b0316815260200191505060206040518083038186803b158015612c2757600080fd5b505afa158015612c3b573d6000803e3d6000fd5b505050506040513d6020811015612c5157600080fd5b50519050818111612c98576040805162461bcd60e51b815260206004820152600c60248201526b22a9292faa2920a729a322a960a11b604482015290519081900360640190fd5b505050505050565b6001600160a01b0382166000908152600c6020526040812054612cd9576001600160a01b0383166000908152600c602052604090204290555b6001600160a01b038084166000908152600e6020908152604080832093881683529290522054612d098184612da9565b6001600160a01b038086166000818152600e60209081526040808320948b16808452948252918290209490945580519283529282015280820185905290517f7060083cf2ce4de65cfe3f362d622b1e098863e3e9e4df08bb1542f1988513b19181900360600190a1506001949350505050565b600082612d8b57506000612da3565b82820282848281612d9857fe5b0414612da057fe5b90505b92915050565b600082820183811015612da057fefe4552525f494e564553544d454e545f43414e43454c5f504552494f445f4f5645529efbae8147a8577b5a4714ecf53a64fe21e6f76ee4931cbfa7859c560234e0254552525f415554484f52495a45445f414444524553535f4f4e4c590000000000a265627a7a72305820b058929cfddd611f7efc2ccc438002157c6aad477e4f709bdd41c58cc1f7fef464736f6c63430005090032",
  "source": "pragma solidity ^0.5.9;\n\nimport \"../common/ProxyOwnable.sol\";\nimport \"../common/SafeMath.sol\";\nimport \"../Proxy/Upgradeable.sol\";\nimport \"../InterFaces/IAuctionRegistery.sol\";\nimport \"../InterFaces/IAuctionTagAlong.sol\";\nimport \"../InterFaces/ITokenVault.sol\";\nimport \"../InterFaces/IERC20Token.sol\";\n\n\ninterface InitializeInterface {\n    function initialize(\n        address _primaryOwner,\n        address _systemAddress,\n        address _authorityAddress,\n        address _registeryAddress\n    ) external;\n}\n\n\ncontract AuctionRegistery is ProxyOwnable, AuctionRegisteryContracts {\n    \n    IAuctionRegistery public contractsRegistry;\n    \n    function updateRegistery(address _address)\n        external\n        onlyAuthorized()\n        notZeroAddress(_address)\n        returns (bool)\n    {\n        \n        contractsRegistry = IAuctionRegistery(_address);\n        return true;\n    }\n\n    function getAddressOf(bytes32 _contractName)\n        internal\n        view\n        returns (address)\n    {\n        return contractsRegistry.getAddressOf(_contractName);\n    }\n    \n}\n\n\ncontract UtilsStorage {\n    \n    mapping(address => bool) public allowedAddress;\n\n    uint256 public tokenLockDuration;\n\n    address[] public allowedTokens;\n\n    mapping(address => bool) public tokenAllowed;\n\n\n    mapping(address => bool) public unLockBlock;\n    \n}\n\n\ncontract Utils is SafeMath, UtilsStorage, AuctionRegistery {\n    \n    modifier allowedTokenOnly(address _which) {\n        require(tokenAllowed[_which],\"ERR_ONLY_ALLOWED_TOKEN\");\n        _;\n    }\n\n    modifier allowedAddressOnly(address _which) {\n        require(allowedAddress[_which],ERR_AUTHORIZED_ADDRESS_ONLY);\n        _;\n    }\n\n    function allowToken(address _which)\n        external\n        onlySystem()\n        notZeroAddress(_which)\n        returns (bool)\n    {\n        require(!tokenAllowed[_which], \"ERR_TOKEN_ALREADY_ALLOWED\");\n        allowedTokens.push(_which);\n        tokenAllowed[_which] = true;\n        return true;\n    }\n\n    function setAllowedAddress(address _address, bool _check)\n        external\n        onlyOneOfOnwer()\n        notZeroAddress(_address)\n        returns (bool)\n    {\n        allowedAddress[_address] = _check;\n        return true;\n    }\n\n    function setTokenLockDuration(uint256 _tokenLockDuration)\n        external\n        onlyAuthorized()\n        returns (bool)\n    {\n        tokenLockDuration = _tokenLockDuration;\n        return true;\n    }\n\n    function isTokenLockEndDay(uint256 _firstLockDay)\n        public\n        view\n        returns (bool)\n    {\n        uint256 tempDay = safeMul(86400, tokenLockDuration);\n\n        uint256 tokenLockEndDay = safeAdd(tempDay, _firstLockDay);\n\n        if (now >= tokenLockEndDay) {\n            return true;\n        }\n        \n        return false;\n    }\n}\n\n\ncontract ProtectionStorage {\n    // timestamp for address where first lock happen\n    mapping(address => uint256) public lockedOn;\n\n    mapping(address => mapping(address => uint256)) public lockedFunds;\n\n    mapping(address => mapping(address => uint256)) public currentLockedFunds;\n\n    mapping(address => uint256) public lockedTokens;\n}\n\n\ncontract AuctionProtection is\n    Upgradeable,\n    Utils,\n    ProtectionStorage,\n    InitializeInterface\n{\n    function initialize(\n        address _primaryOwner,\n        address _systemAddress,\n        address _authorityAddress,\n        address _registeryAddress\n    ) public {\n        super.initialize();\n        contractsRegistry = IAuctionRegistery(_registeryAddress);\n        tokenLockDuration = 365;\n        ProxyOwnable.initializeOwner(\n            _primaryOwner,\n            _systemAddress,\n            _authorityAddress\n        );\n    }\n\n    event TokenUnLocked(address indexed _from);\n    event InvestMentCancelled(address indexed _from);\n    event FundLocked(address _token, address _which, uint256 _amount);\n    event FundTransfer(address indexed _to, address _token, uint256 _amount);\n\n    function ensureTransferFrom(\n        IERC20Token _token,\n        address _from,\n        address _to,\n        uint256 _amount\n    ) internal {\n        uint256 prevBalance = _token.balanceOf(_to);\n        if (_from == address(this)) _token.transfer(_to, _amount);\n        else _token.transferFrom(_from, _to, _amount);\n        uint256 postBalance = _token.balanceOf(_to);\n        require(postBalance > prevBalance,\"ERR_TRANSFER\");\n    }\n\n    function approveTransferFrom(\n        IERC20Token _token,\n        address _spender,\n        uint256 _amount\n    ) internal {\n        _token.approve(_spender, _amount);\n    }\n\n    function lockBalance(address _token, address _which, uint256 _amount)\n        internal\n        returns (bool)\n    {\n        if (lockedOn[_which] == 0) lockedOn[_which] = now;\n        uint256 currentBalance = currentLockedFunds[_which][_token];\n        currentLockedFunds[_which][_token] = safeAdd(currentBalance, _amount);\n        emit FundLocked(_token, _which, _amount);\n        return true;\n    }\n\n    function lockEther(address _which)\n        public\n        payable\n        allowedAddressOnly(msg.sender)\n        returns (bool)\n    {\n        return lockBalance(address(0), _which, msg.value);\n    }\n\n    function lockTokens(\n        IERC20Token _token,\n        address _from,\n        address _which,\n        uint256 _amount\n    )\n        public\n        allowedAddressOnly(msg.sender)\n        allowedTokenOnly(address(_token))\n        returns (bool)\n    {\n        ensureTransferFrom(_token, _from, address(this), _amount);\n        return lockBalance(address(_token), _which, _amount);\n    }\n\n    function cancelInvestment() external returns (bool) {\n        \n        require(\n           !isTokenLockEndDay(lockedOn[msg.sender]),\n            \"ERR_INVESTMENT_CANCEL_PERIOD_OVER\"\n        );\n\n        uint256 _tokenBalance;\n        IERC20Token _token;\n        for (uint256 tempX = 0; tempX < allowedTokens.length; tempX++) {\n            _token = IERC20Token(allowedTokens[tempX]);\n            _tokenBalance = lockedFunds[msg.sender][address(_token)];\n            if (_tokenBalance > 0) {\n                ensureTransferFrom(\n                    _token,\n                    address(this),\n                    msg.sender,\n                    _tokenBalance\n                );\n                lockedFunds[msg.sender][address(_token)] = 0;\n                emit FundTransfer(msg.sender, address(_token), _tokenBalance);\n            }\n        }\n\n        _tokenBalance = lockedFunds[msg.sender][address(0)];\n        if (_tokenBalance > 0) {\n            msg.sender.transfer(_tokenBalance);\n            emit FundTransfer(msg.sender, address(0), _tokenBalance);\n            lockedFunds[msg.sender][address(0)] = 0;\n        }\n\n        _tokenBalance = lockedTokens[msg.sender];\n        if (_tokenBalance > 0) {\n            _token = IERC20Token(getAddressOf(MAIN_TOKEN));\n            \n            address vaultAddress = getAddressOf(VAULT);\n            \n            approveTransferFrom(_token, vaultAddress, _tokenBalance);\n            \n            ITokenVault(vaultAddress).depositeToken(\n                _token,\n                address(this),\n                _tokenBalance\n            );\n            \n            emit FundTransfer(vaultAddress, address(_token), _tokenBalance);\n            lockedTokens[msg.sender] = 0;\n        }\n        emit InvestMentCancelled(msg.sender);\n        return true;\n    }\n\n    // user unlock tokens and funds goes to compnay wallet\n    function unLockTokens() external returns (bool) {\n        address tagAlongAdress = getAddressOf(TAG_ALONG);\n        uint256 _tokenBalance;\n        IERC20Token _token;\n        for (uint256 tempX = 0; tempX < allowedTokens.length; tempX++) {\n            _token = IERC20Token(allowedTokens[tempX]);\n            _tokenBalance = lockedFunds[msg.sender][address(_token)];\n            if (_tokenBalance > 0) {\n                approveTransferFrom(_token, tagAlongAdress, _tokenBalance);\n                IAuctionTagAlong(tagAlongAdress).depositeToken(\n                    _token,\n                    address(this),\n                    _tokenBalance\n                );\n                lockedFunds[msg.sender][address(_token)] = 0;\n                emit FundTransfer(\n                    tagAlongAdress,\n                    address(_token),\n                    _tokenBalance\n                );\n            }\n        }\n\n        _tokenBalance = lockedFunds[msg.sender][address(0)];\n\n        if (_tokenBalance > 0) {\n            IAuctionTagAlong(tagAlongAdress).depositeEther.value(\n                _tokenBalance\n            )();\n            emit FundTransfer(tagAlongAdress, address(0), _tokenBalance);\n            lockedFunds[msg.sender][address(0)] = 0;\n        }\n\n        _tokenBalance = lockedTokens[msg.sender];\n        if (_tokenBalance > 0) {\n            _token = IERC20Token(getAddressOf(MAIN_TOKEN));\n            ensureTransferFrom(\n                _token,\n                address(this),\n                msg.sender,\n                _tokenBalance\n            );\n            emit FundTransfer(msg.sender, address(_token), _tokenBalance);\n            lockedTokens[msg.sender] = 0;\n        }\n\n        emit TokenUnLocked(msg.sender);\n        return true;\n    }\n\n    function unLockFundByAdmin(address _which)\n        external\n        onlyOneOfOnwer()\n        returns (bool)\n    {\n        require(isTokenLockEndDay(lockedOn[_which]),\"ERR_ADMIN_CANT_UNLOCK_FUND\");\n\n        address tagAlongAdress = getAddressOf(TAG_ALONG);\n        uint256 _tokenBalance;\n        IERC20Token _token;\n\n        for (uint256 tempX = 0; tempX < allowedTokens.length; tempX++) {\n            _token = IERC20Token(allowedTokens[tempX]);\n            _tokenBalance = lockedFunds[_which][address(_token)];\n            if (_tokenBalance > 0) {\n                approveTransferFrom(_token, tagAlongAdress, _tokenBalance);\n                IAuctionTagAlong(tagAlongAdress).depositeToken(\n                    _token,\n                    address(this),\n                    _tokenBalance\n                );\n                lockedFunds[_which][address(_token)] = 0;\n                emit FundTransfer(\n                    tagAlongAdress,\n                    address(_token),\n                    _tokenBalance\n                );\n            }\n        }\n\n        _tokenBalance = lockedFunds[_which][address(0)];\n        if (_tokenBalance > 0) {\n            IAuctionTagAlong(tagAlongAdress).depositeEther.value(\n                _tokenBalance\n            )();\n            emit FundTransfer(tagAlongAdress, address(0), _tokenBalance);\n            lockedFunds[_which][address(0)] = 0;\n        }\n\n        _tokenBalance = lockedTokens[_which];\n        if (_tokenBalance > 0) {\n            _token = IERC20Token(getAddressOf(MAIN_TOKEN));\n            ensureTransferFrom(_token, address(this), _which, _tokenBalance);\n            emit FundTransfer(_which, address(_token), _tokenBalance);\n            lockedTokens[_which] = 0;\n        }\n\n        emit TokenUnLocked(_which);\n        return true;\n    }\n\n    function depositToken(address _from, address _which, uint256 _amount)\n        external\n        allowedAddressOnly(msg.sender)\n        returns (bool)\n    {\n        IERC20Token token = IERC20Token(getAddressOf(MAIN_TOKEN));\n        ensureTransferFrom(token, _from, address(this), _amount);\n        lockedTokens[_which] = safeAdd(lockedTokens[_which], _amount);\n\n        uint256 _currentTokenBalance;\n        IERC20Token _token;\n        for (uint256 tempX = 0; tempX < allowedTokens.length; tempX++) {\n            _token = IERC20Token(allowedTokens[tempX]);\n            _currentTokenBalance = currentLockedFunds[_which][address(_token)];\n            if (_currentTokenBalance > 0) {\n                lockedFunds[msg.sender][address(_token)] = safeAdd(\n                    lockedFunds[msg.sender][address(_token)],\n                    _currentTokenBalance\n                );\n                currentLockedFunds[_which][address(_token)] = 0;\n            }\n        }\n\n        if (currentLockedFunds[_which][address(0)] > 0) {\n            _currentTokenBalance = currentLockedFunds[_which][address(0)];\n            lockedFunds[_which][address(0)] = safeAdd(\n                lockedFunds[_which][address(0)],\n                _currentTokenBalance\n            );\n            currentLockedFunds[_which][address(0)] = 0;\n        }\n\n        emit FundLocked(address(token), _which, _amount);\n        return true;\n    }\n}\n",
  "sourcePath": "/home/mind/Work/Projects/Jointer/Jointer_auction/NewContracts/contracts/Protection/AuctionProtection.sol",
  "compiler": {
    "name": "solc",
    "version": "0.5.9+commit.e560f70d.Emscripten.clang"
  },
  "schemaVersion": "3.0.16",
  "updatedAt": "2020-05-13T15:06:47.175Z",
  "devdoc": {
    "methods": {
      "changeAuthorityAddress(address)": {
        "details": "change system address",
        "params": {
          "_which": "The address to which is new Authority address"
        }
      },
      "changePrimaryOwner(address)": {
        "details": "change primary ownership",
        "params": {
          "_which": "The address to which is new owner address"
        }
      },
      "changeSystemAddress(address)": {
        "details": "change system address",
        "params": {
          "_which": "The address to which is new system address"
        }
      },
      "implementation()": {
        "details": "Tells the address of the current implementation",
        "return": "address of the current implementation"
      },
      "initialize()": {
        "details": "Validates the caller is the versions registry. THIS FUNCTION SHOULD BE OVERRIDDEN CALLING SUPER"
      },
      "initializeOwner(address,address,address)": {
        "details": "The Ownable constructor sets the `primaryOwner` and `systemAddress` and '_multisigAddress' account."
      }
    }
  },
  "userdoc": {
    "methods": {}
  }
}