{
  "contractName": "Auction",
  "abi": [
    {
      "constant": false,
      "inputs": [
        {
          "name": "_which",
          "type": "address"
        }
      ],
      "name": "changeSystemAddress",
      "outputs": [
        {
          "name": "",
          "type": "bool"
        }
      ],
      "payable": false,
      "stateMutability": "nonpayable",
      "type": "function"
    },
    {
      "constant": false,
      "inputs": [
        {
          "name": "_mangmentFee",
          "type": "uint256"
        }
      ],
      "name": "setMangmentFee",
      "outputs": [
        {
          "name": "",
          "type": "bool"
        }
      ],
      "payable": false,
      "stateMutability": "nonpayable",
      "type": "function"
    },
    {
      "constant": true,
      "inputs": [],
      "name": "allowedMaxContribution",
      "outputs": [
        {
          "name": "",
          "type": "uint256"
        }
      ],
      "payable": false,
      "stateMutability": "view",
      "type": "function"
    },
    {
      "constant": true,
      "inputs": [],
      "name": "newAuthorityAddress",
      "outputs": [
        {
          "name": "",
          "type": "address"
        }
      ],
      "payable": false,
      "stateMutability": "view",
      "type": "function"
    },
    {
      "constant": true,
      "inputs": [],
      "name": "totalContribution",
      "outputs": [
        {
          "name": "",
          "type": "uint256"
        }
      ],
      "payable": false,
      "stateMutability": "view",
      "type": "function"
    },
    {
      "constant": true,
      "inputs": [],
      "name": "LAST_AUCTION_START",
      "outputs": [
        {
          "name": "",
          "type": "uint256"
        }
      ],
      "payable": false,
      "stateMutability": "view",
      "type": "function"
    },
    {
      "constant": true,
      "inputs": [
        {
          "name": "",
          "type": "uint256"
        }
      ],
      "name": "dayWiseSupplyBonus",
      "outputs": [
        {
          "name": "",
          "type": "uint256"
        }
      ],
      "payable": false,
      "stateMutability": "view",
      "type": "function"
    },
    {
      "constant": true,
      "inputs": [],
      "name": "todaySupply",
      "outputs": [
        {
          "name": "",
          "type": "uint256"
        }
      ],
      "payable": false,
      "stateMutability": "view",
      "type": "function"
    },
    {
      "constant": true,
      "inputs": [
        {
          "name": "",
          "type": "uint256"
        }
      ],
      "name": "dayWiseSupplyCore",
      "outputs": [
        {
          "name": "",
          "type": "uint256"
        }
      ],
      "payable": false,
      "stateMutability": "view",
      "type": "function"
    },
    {
      "constant": true,
      "inputs": [
        {
          "name": "",
          "type": "uint256"
        },
        {
          "name": "",
          "type": "address"
        }
      ],
      "name": "walletDayWiseContribution",
      "outputs": [
        {
          "name": "",
          "type": "uint256"
        }
      ],
      "payable": false,
      "stateMutability": "view",
      "type": "function"
    },
    {
      "constant": false,
      "inputs": [],
      "name": "acceptAuthorityAddress",
      "outputs": [
        {
          "name": "",
          "type": "bool"
        }
      ],
      "payable": false,
      "stateMutability": "nonpayable",
      "type": "function"
    },
    {
      "constant": true,
      "inputs": [
        {
          "name": "",
          "type": "uint256"
        }
      ],
      "name": "dayWiseSupply",
      "outputs": [
        {
          "name": "",
          "type": "uint256"
        }
      ],
      "payable": false,
      "stateMutability": "view",
      "type": "function"
    },
    {
      "constant": false,
      "inputs": [
        {
          "name": "_auctionDayId",
          "type": "uint256"
        }
      ],
      "name": "contributeWithEther",
      "outputs": [
        {
          "name": "",
          "type": "bool"
        }
      ],
      "payable": true,
      "stateMutability": "payable",
      "type": "function"
    },
    {
      "constant": true,
      "inputs": [],
      "name": "downSideProtectionRatio",
      "outputs": [
        {
          "name": "",
          "type": "uint256"
        }
      ],
      "payable": false,
      "stateMutability": "view",
      "type": "function"
    },
    {
      "constant": true,
      "inputs": [
        {
          "name": "",
          "type": "uint256"
        },
        {
          "name": "",
          "type": "uint256"
        }
      ],
      "name": "topFiveContributior",
      "outputs": [
        {
          "name": "",
          "type": "address"
        }
      ],
      "payable": false,
      "stateMutability": "view",
      "type": "function"
    },
    {
      "constant": true,
      "inputs": [],
      "name": "authorityAddress",
      "outputs": [
        {
          "name": "",
          "type": "address"
        }
      ],
      "payable": false,
      "stateMutability": "view",
      "type": "function"
    },
    {
      "constant": true,
      "inputs": [
        {
          "name": "",
          "type": "uint256"
        }
      ],
      "name": "dayWiseDownSideProtectionRatio",
      "outputs": [
        {
          "name": "",
          "type": "uint256"
        }
      ],
      "payable": false,
      "stateMutability": "view",
      "type": "function"
    },
    {
      "constant": true,
      "inputs": [
        {
          "name": "",
          "type": "address"
        }
      ],
      "name": "userTotalReturnToken",
      "outputs": [
        {
          "name": "",
          "type": "uint256"
        }
      ],
      "payable": false,
      "stateMutability": "view",
      "type": "function"
    },
    {
      "constant": true,
      "inputs": [],
      "name": "yesterdaySupply",
      "outputs": [
        {
          "name": "",
          "type": "uint256"
        }
      ],
      "payable": false,
      "stateMutability": "view",
      "type": "function"
    },
    {
      "constant": true,
      "inputs": [],
      "name": "maxContributionAllowed",
      "outputs": [
        {
          "name": "",
          "type": "uint256"
        }
      ],
      "payable": false,
      "stateMutability": "view",
      "type": "function"
    },
    {
      "constant": true,
      "inputs": [],
      "name": "fundWalletRatio",
      "outputs": [
        {
          "name": "",
          "type": "uint256"
        }
      ],
      "payable": false,
      "stateMutability": "view",
      "type": "function"
    },
    {
      "constant": false,
      "inputs": [
        {
          "name": "_groupBonusRatio",
          "type": "uint256"
        }
      ],
      "name": "setGroupBonusRatio",
      "outputs": [
        {
          "name": "",
          "type": "bool"
        }
      ],
      "payable": false,
      "stateMutability": "nonpayable",
      "type": "function"
    },
    {
      "constant": true,
      "inputs": [],
      "name": "yesterdayContribution",
      "outputs": [
        {
          "name": "",
          "type": "uint256"
        }
      ],
      "payable": false,
      "stateMutability": "view",
      "type": "function"
    },
    {
      "constant": true,
      "inputs": [
        {
          "name": "",
          "type": "address"
        }
      ],
      "name": "userTotalFund",
      "outputs": [
        {
          "name": "",
          "type": "uint256"
        }
      ],
      "payable": false,
      "stateMutability": "view",
      "type": "function"
    },
    {
      "constant": true,
      "inputs": [],
      "name": "mainTokencheckOn",
      "outputs": [
        {
          "name": "",
          "type": "bool"
        }
      ],
      "payable": false,
      "stateMutability": "view",
      "type": "function"
    },
    {
      "constant": true,
      "inputs": [],
      "name": "auctionDay",
      "outputs": [
        {
          "name": "",
          "type": "uint256"
        }
      ],
      "payable": false,
      "stateMutability": "view",
      "type": "function"
    },
    {
      "constant": true,
      "inputs": [],
      "name": "primaryOwner",
      "outputs": [
        {
          "name": "",
          "type": "address"
        }
      ],
      "payable": false,
      "stateMutability": "view",
      "type": "function"
    },
    {
      "constant": false,
      "inputs": [
        {
          "name": "_which",
          "type": "address"
        }
      ],
      "name": "changeAuthorityAddress",
      "outputs": [
        {
          "name": "",
          "type": "bool"
        }
      ],
      "payable": false,
      "stateMutability": "nonpayable",
      "type": "function"
    },
    {
      "constant": false,
      "inputs": [
        {
          "name": "_token",
          "type": "address"
        },
        {
          "name": "_value",
          "type": "uint256"
        },
        {
          "name": "_auctionDayId",
          "type": "uint256"
        }
      ],
      "name": "contributeWithToken",
      "outputs": [
        {
          "name": "",
          "type": "bool"
        }
      ],
      "payable": false,
      "stateMutability": "nonpayable",
      "type": "function"
    },
    {
      "constant": true,
      "inputs": [],
      "name": "groupBonusRatio",
      "outputs": [
        {
          "name": "",
          "type": "uint256"
        }
      ],
      "payable": false,
      "stateMutability": "view",
      "type": "function"
    },
    {
      "constant": true,
      "inputs": [],
      "name": "tokenAuctionEndPrice",
      "outputs": [
        {
          "name": "",
          "type": "uint256"
        }
      ],
      "payable": false,
      "stateMutability": "view",
      "type": "function"
    },
    {
      "constant": true,
      "inputs": [
        {
          "name": "",
          "type": "uint256"
        },
        {
          "name": "",
          "type": "address"
        }
      ],
      "name": "returnToken",
      "outputs": [
        {
          "name": "",
          "type": "bool"
        }
      ],
      "payable": false,
      "stateMutability": "view",
      "type": "function"
    },
    {
      "constant": true,
      "inputs": [],
      "name": "auctionSoldOut",
      "outputs": [
        {
          "name": "",
          "type": "bool"
        }
      ],
      "payable": false,
      "stateMutability": "view",
      "type": "function"
    },
    {
      "constant": true,
      "inputs": [
        {
          "name": "",
          "type": "uint256"
        }
      ],
      "name": "dayWiseMarketPrice",
      "outputs": [
        {
          "name": "",
          "type": "uint256"
        }
      ],
      "payable": false,
      "stateMutability": "view",
      "type": "function"
    },
    {
      "constant": true,
      "inputs": [],
      "name": "MIN_AUCTION_END_TIME",
      "outputs": [
        {
          "name": "",
          "type": "uint256"
        }
      ],
      "payable": false,
      "stateMutability": "view",
      "type": "function"
    },
    {
      "constant": true,
      "inputs": [],
      "name": "mainTokenRatio",
      "outputs": [
        {
          "name": "",
          "type": "uint256"
        }
      ],
      "payable": false,
      "stateMutability": "view",
      "type": "function"
    },
    {
      "constant": true,
      "inputs": [],
      "name": "bufferLimit",
      "outputs": [
        {
          "name": "",
          "type": "uint256"
        }
      ],
      "payable": false,
      "stateMutability": "view",
      "type": "function"
    },
    {
      "constant": false,
      "inputs": [
        {
          "name": "_address",
          "type": "address"
        }
      ],
      "name": "updateRegistery",
      "outputs": [
        {
          "name": "",
          "type": "bool"
        }
      ],
      "payable": false,
      "stateMutability": "nonpayable",
      "type": "function"
    },
    {
      "constant": true,
      "inputs": [
        {
          "name": "",
          "type": "uint256"
        }
      ],
      "name": "dayWiseAuctionPrice",
      "outputs": [
        {
          "name": "",
          "type": "uint256"
        }
      ],
      "payable": false,
      "stateMutability": "view",
      "type": "function"
    },
    {
      "constant": false,
      "inputs": [
        {
          "name": "_which",
          "type": "address"
        }
      ],
      "name": "changePrimaryOwner",
      "outputs": [
        {
          "name": "",
          "type": "bool"
        }
      ],
      "payable": false,
      "stateMutability": "nonpayable",
      "type": "function"
    },
    {
      "constant": false,
      "inputs": [
        {
          "name": "_ratio",
          "type": "uint256"
        }
      ],
      "name": "setMainTokenRatio",
      "outputs": [
        {
          "name": "",
          "type": "bool"
        }
      ],
      "payable": false,
      "stateMutability": "nonpayable",
      "type": "function"
    },
    {
      "constant": true,
      "inputs": [],
      "name": "systemAddress",
      "outputs": [
        {
          "name": "",
          "type": "address"
        }
      ],
      "payable": false,
      "stateMutability": "view",
      "type": "function"
    },
    {
      "constant": true,
      "inputs": [],
      "name": "contractsRegistry",
      "outputs": [
        {
          "name": "",
          "type": "address"
        }
      ],
      "payable": false,
      "stateMutability": "view",
      "type": "function"
    },
    {
      "constant": true,
      "inputs": [],
      "name": "todayContribution",
      "outputs": [
        {
          "name": "",
          "type": "uint256"
        }
      ],
      "payable": false,
      "stateMutability": "view",
      "type": "function"
    },
    {
      "constant": false,
      "inputs": [
        {
          "name": "_maxContributionAllowed",
          "type": "uint256"
        }
      ],
      "name": "setMaxContributionAllowed",
      "outputs": [
        {
          "name": "",
          "type": "bool"
        }
      ],
      "payable": false,
      "stateMutability": "nonpayable",
      "type": "function"
    },
    {
      "constant": false,
      "inputs": [
        {
          "name": "_mainTokencheckOn",
          "type": "bool"
        }
      ],
      "name": "setMainTokenCheckOn",
      "outputs": [
        {
          "name": "",
          "type": "bool"
        }
      ],
      "payable": false,
      "stateMutability": "nonpayable",
      "type": "function"
    },
    {
      "constant": false,
      "inputs": [
        {
          "name": "_ratio",
          "type": "uint256"
        }
      ],
      "name": "setDownSideProtectionRatio",
      "outputs": [
        {
          "name": "",
          "type": "bool"
        }
      ],
      "payable": false,
      "stateMutability": "nonpayable",
      "type": "function"
    },
    {
      "constant": false,
      "inputs": [
        {
          "name": "_bufferLimit",
          "type": "uint256"
        }
      ],
      "name": "setBufferLimit",
      "outputs": [
        {
          "name": "",
          "type": "bool"
        }
      ],
      "payable": false,
      "stateMutability": "nonpayable",
      "type": "function"
    },
    {
      "constant": false,
      "inputs": [
        {
          "name": "_ratio",
          "type": "uint256"
        }
      ],
      "name": "setfundWalletRatio",
      "outputs": [
        {
          "name": "",
          "type": "bool"
        }
      ],
      "payable": false,
      "stateMutability": "nonpayable",
      "type": "function"
    },
    {
      "constant": true,
      "inputs": [],
      "name": "mangmentFee",
      "outputs": [
        {
          "name": "",
          "type": "uint256"
        }
      ],
      "payable": false,
      "stateMutability": "view",
      "type": "function"
    },
    {
      "constant": true,
      "inputs": [
        {
          "name": "",
          "type": "uint256"
        }
      ],
      "name": "dayWiseContribution",
      "outputs": [
        {
          "name": "",
          "type": "uint256"
        }
      ],
      "payable": false,
      "stateMutability": "view",
      "type": "function"
    },
    {
      "constant": true,
      "inputs": [
        {
          "name": "",
          "type": "uint256"
        },
        {
          "name": "",
          "type": "address"
        }
      ],
      "name": "topContributiorIndex",
      "outputs": [
        {
          "name": "",
          "type": "uint256"
        }
      ],
      "payable": false,
      "stateMutability": "view",
      "type": "function"
    },
    {
      "inputs": [
        {
          "name": "_startTime",
          "type": "uint256"
        },
        {
          "name": "_minAuctionTime",
          "type": "uint256"
        },
        {
          "name": "_systemAddress",
          "type": "address"
        },
        {
          "name": "_multisigAddress",
          "type": "address"
        },
        {
          "name": "_registeryAddress",
          "type": "address"
        }
      ],
      "payable": false,
      "stateMutability": "nonpayable",
      "type": "constructor"
    },
    {
      "payable": true,
      "stateMutability": "payable",
      "type": "fallback"
    },
    {
      "anonymous": false,
      "inputs": [
        {
          "indexed": true,
          "name": "_auctionDayId",
          "type": "uint256"
        },
        {
          "indexed": false,
          "name": "_todaySupply",
          "type": "uint256"
        },
        {
          "indexed": false,
          "name": "_yesterdaySupply",
          "type": "uint256"
        },
        {
          "indexed": false,
          "name": "_todayContribution",
          "type": "uint256"
        },
        {
          "indexed": false,
          "name": "_yesterdayContribution",
          "type": "uint256"
        },
        {
          "indexed": false,
          "name": "_totalContribution",
          "type": "uint256"
        },
        {
          "indexed": false,
          "name": "_maxContributionAllowed",
          "type": "uint256"
        },
        {
          "indexed": false,
          "name": "_tokenPrice",
          "type": "uint256"
        },
        {
          "indexed": false,
          "name": "_tokenMarketPrice",
          "type": "uint256"
        }
      ],
      "name": "AuctionEnded",
      "type": "event"
    },
    {
      "anonymous": false,
      "inputs": [
        {
          "indexed": true,
          "name": "_auctionDayId",
          "type": "uint256"
        },
        {
          "indexed": false,
          "name": "_todayContribution",
          "type": "uint256"
        },
        {
          "indexed": false,
          "name": "_fundBy",
          "type": "address"
        },
        {
          "indexed": false,
          "name": "_fundToken",
          "type": "address"
        },
        {
          "indexed": false,
          "name": "_fundAmount",
          "type": "uint256"
        },
        {
          "indexed": false,
          "name": "_fundValue",
          "type": "uint256"
        },
        {
          "indexed": false,
          "name": "_marketPrice",
          "type": "uint256"
        }
      ],
      "name": "FundAdded",
      "type": "event"
    },
    {
      "anonymous": false,
      "inputs": [
        {
          "indexed": false,
          "name": "ownerType",
          "type": "string"
        },
        {
          "indexed": true,
          "name": "previousOwner",
          "type": "address"
        },
        {
          "indexed": true,
          "name": "newOwner",
          "type": "address"
        }
      ],
      "name": "OwnershipTransferred",
      "type": "event"
    },
    {
      "anonymous": false,
      "inputs": [
        {
          "indexed": true,
          "name": "previousOwner",
          "type": "address"
        },
        {
          "indexed": true,
          "name": "newOwner",
          "type": "address"
        }
      ],
      "name": "AuthorityAddressChnageCall",
      "type": "event"
    },
    {
      "constant": false,
      "inputs": [],
      "name": "auctionEnd",
      "outputs": [
        {
          "name": "",
          "type": "bool"
        }
      ],
      "payable": false,
      "stateMutability": "nonpayable",
      "type": "function"
    },
    {
      "constant": false,
      "inputs": [
        {
          "name": "dayId",
          "type": "uint256"
        },
        {
          "name": "_which",
          "type": "address[]"
        }
      ],
      "name": "disturbuteTokens",
      "outputs": [
        {
          "name": "",
          "type": "bool"
        }
      ],
      "payable": false,
      "stateMutability": "nonpayable",
      "type": "function"
    },
    {
      "constant": false,
      "inputs": [
        {
          "name": "dayId",
          "type": "uint256"
        }
      ],
      "name": "disturbuteTokens",
      "outputs": [
        {
          "name": "",
          "type": "bool"
        }
      ],
      "payable": false,
      "stateMutability": "nonpayable",
      "type": "function"
    },
    {
      "constant": false,
      "inputs": [
        {
          "name": "_token",
          "type": "address"
        },
        {
          "name": "_value",
          "type": "uint256"
        },
        {
          "name": "_which",
          "type": "address"
        }
      ],
      "name": "returnFund",
      "outputs": [
        {
          "name": "",
          "type": "bool"
        }
      ],
      "payable": false,
      "stateMutability": "nonpayable",
      "type": "function"
    }
  ],
  "bytecode": "0x6080604052600080546001600160a01b03199081168255600180548216815560028054831681556003805490931690925560966005556006829055605a60078190556008556009919091556064600a556069600b55600c805460ff19908116909155600d91909155650246139ca800601b55601c829055631dcd6500601d556332a9f880601e55601f829055690a968163f0a57b4000006020556127106021556022805490911690556023819055602455348015620000bd57600080fd5b506040516200422a3803806200422a833981810160405260a0811015620000e357600080fd5b50805160208083015160408085015160608601516080909601518251808401909352601083527f4552525f5a45524f5f4144445245535300000000000000000000000000000000948301949094529394919392908390839082906001600160a01b038216620001ed576040517f08c379a00000000000000000000000000000000000000000000000000000000081526004018080602001828103825283818151815260200191508051906020019080838360005b83811015620001b157818101518382015260200162000197565b50505050905090810190601f168015620001df5780820380516001836020036101000a031916815260200191505b509250505060405180910390fd5b5060408051808201909152601081527f4552525f53414d455f41444452455353000000000000000000000000000000006020820152336001600160a01b038516141562000297576040517f08c379a0000000000000000000000000000000000000000000000000000000008152602060048201818152835160248401528351909283926044909101919085019080838360008315620001b157818101518382015260200162000197565b50816001600160a01b0316836001600160a01b031614156040518060400160405280601081526020017f4552525f53414d455f4144445245535300000000000000000000000000000000815250906200034d576040517f08c379a0000000000000000000000000000000000000000000000000000000008152602060048201818152835160248401528351909283926044909101919085019080838360008315620001b157818101518382015260200162000197565b5060408051808201909152601081527f4552525f53414d455f41444452455353000000000000000000000000000000006020820152336001600160a01b0384161415620003f7576040517f08c379a0000000000000000000000000000000000000000000000000000000008152602060048201818152835160248401528351909283926044909101919085019080838360008315620001b157818101518382015260200162000197565b505060008054336001600160a01b03199182161782556002805482166001600160a01b0395861617905560018054821693851693909317909255602497909755602395909555600480549095169116179092555050600754600d54825260166020526040822055613dbb9081906200046f90396000f3fe60806040526004361061036b5760003560e01c80638e10be33116101c6578063bfb1d4ac116100f7578063dbd03c3011610095578063eb2e27821161006f578063eb2e278214610b04578063f43e0e5114610b2e578063fc0546d114610b43578063fe12e78414610b6d5761036b565b8063dbd03c3014610a84578063e1cf557314610ab0578063e4936ed614610ada5761036b565b8063d3e848f1116100d1578063d3e848f114610a1b578063d98d0c7e14610a30578063dac563d014610a45578063dae6fa7e14610a5a5761036b565b8063bfb1d4ac14610994578063c4d34268146109be578063c6c65c8a146109f15761036b565b80639ea6589511610164578063a835fb941161013e578063a835fb94146108f4578063ae259ca814610909578063b31fa6df1461094c578063bc1366fe146109615761036b565b80639ea65895146108a0578063a504dcbb146108b5578063a8311533146108df5761036b565b806392c74982116101a057806392c7498214610813578063945722861461082857806398299f771461083d5780639a61f048146108765761036b565b80638e10be331461078c5780638f51368b146107a1578063912581f5146107d45761036b565b8063343b9d76116102a05780635b1a15de1161023e5780636a4f1172116102185780636a4f11721461071a5780636b1bd5af1461072f5780638402cc671461076257806384d6dffc146107775761036b565b80635b1a15de146106c6578063669329ce146106db5780636952fd51146106f05761036b565b80633c695d4e1161027a5780633c695d4e1461063f57806346d65919146106545780634719dd701461067e578063574f7244146106b15761036b565b8063343b9d7614610576578063367b22131461058b578063378b50d2146105bb5761036b565b80631424bcdf1161030d57806320c462fe116102e757806320c462fe14610505578063261a9fbe1461051a5780632a24f46c146105445780632c52639c146105595761036b565b80631424bcdf1461048d57806314a491a3146104a25780631d6cf719146104cc5761036b565b80630abaad7a116103495780630abaad7a146104085780630dcf4b8f146104395780631035e83b1461044e57806312c5e002146104635761036b565b806304d630891461037057806309b688e9146103b75780630a6215aa146103e1575b600080fd5b34801561037c57600080fd5b506103a36004803603602081101561039357600080fd5b50356001600160a01b0316610ba6565b604080519115158252519081900360200190f35b3480156103c357600080fd5b506103a3600480360360208110156103da57600080fd5b5035610eb7565b3480156103ed57600080fd5b506103f6610f3e565b60408051918252519081900360200190f35b34801561041457600080fd5b5061041d610f44565b604080516001600160a01b039092168252519081900360200190f35b34801561044557600080fd5b506103f6610f53565b34801561045a57600080fd5b506103f6610f59565b34801561046f57600080fd5b506103f66004803603602081101561048657600080fd5b5035610f5f565b34801561049957600080fd5b506103f6610f71565b3480156104ae57600080fd5b506103f6600480360360208110156104c557600080fd5b5035610f77565b3480156104d857600080fd5b506103f6600480360360408110156104ef57600080fd5b50803590602001356001600160a01b0316610f89565b34801561051157600080fd5b506103a3610fa6565b34801561052657600080fd5b506103f66004803603602081101561053d57600080fd5b50356110bb565b34801561055057600080fd5b506103a36110cd565b6103a36004803603602081101561056f57600080fd5b5035611886565b34801561058257600080fd5b506103f66118ab565b34801561059757600080fd5b5061041d600480360360408110156105ae57600080fd5b50803590602001356118b1565b3480156105c757600080fd5b506103a3600480360360408110156105de57600080fd5b8135919081019060408101602082013564010000000081111561060057600080fd5b82018360208201111561061257600080fd5b8035906020019184602083028401116401000000008311171561063457600080fd5b5090925090506118d7565b34801561064b57600080fd5b5061041d611a28565b34801561066057600080fd5b506103f66004803603602081101561067757600080fd5b5035611a37565b34801561068a57600080fd5b506103f6600480360360208110156106a157600080fd5b50356001600160a01b0316611a49565b3480156106bd57600080fd5b506103f6611a5b565b3480156106d257600080fd5b506103f6611a61565b3480156106e757600080fd5b506103f6611a67565b3480156106fc57600080fd5b506103a36004803603602081101561071357600080fd5b5035611a6d565b34801561072657600080fd5b506103f6611af4565b34801561073b57600080fd5b506103f66004803603602081101561075257600080fd5b50356001600160a01b0316611afa565b34801561076e57600080fd5b506103a3611b0c565b34801561078357600080fd5b506103f6611b15565b34801561079857600080fd5b5061041d611b1b565b3480156107ad57600080fd5b506103a3600480360360208110156107c457600080fd5b50356001600160a01b0316611b2a565b3480156107e057600080fd5b506103a3600480360360608110156107f757600080fd5b506001600160a01b038135169060208101359060400135611d0a565b34801561081f57600080fd5b506103f6611d32565b34801561083457600080fd5b506103f6611d38565b34801561084957600080fd5b506103a36004803603604081101561086057600080fd5b50803590602001356001600160a01b0316611d3e565b34801561088257600080fd5b506103a36004803603602081101561089957600080fd5b5035611d5e565b3480156108ac57600080fd5b506103a3611db2565b3480156108c157600080fd5b506103f6600480360360208110156108d857600080fd5b5035611dbb565b3480156108eb57600080fd5b506103f6611dcd565b34801561090057600080fd5b506103f6611dd3565b34801561091557600080fd5b506103a36004803603606081101561092c57600080fd5b506001600160a01b03813581169160208101359160409091013516611dd9565b34801561095857600080fd5b506103f6611eb7565b34801561096d57600080fd5b506103a36004803603602081101561098457600080fd5b50356001600160a01b0316611ebd565b3480156109a057600080fd5b506103f6600480360360208110156109b757600080fd5b5035611fe2565b3480156109ca57600080fd5b506103a3600480360360208110156109e157600080fd5b50356001600160a01b0316611ff4565b3480156109fd57600080fd5b506103a360048036036020811015610a1457600080fd5b5035612237565b348015610a2757600080fd5b5061041d6122be565b348015610a3c57600080fd5b5061041d6122cd565b348015610a5157600080fd5b506103f66122dc565b348015610a6657600080fd5b506103a360048036036020811015610a7d57600080fd5b50356122e2565b348015610a9057600080fd5b506103a360048036036020811015610aa757600080fd5b50351515612369565b348015610abc57600080fd5b506103a360048036036020811015610ad357600080fd5b50356123fe565b348015610ae657600080fd5b506103a360048036036020811015610afd57600080fd5b50356124da565b348015610b1057600080fd5b506103a360048036036020811015610b2757600080fd5b5035612561565b348015610b3a57600080fd5b506103f661263d565b348015610b4f57600080fd5b506103f660048036036020811015610b6657600080fd5b5035612643565b348015610b7957600080fd5b506103f660048036036040811015610b9057600080fd5b50803590602001356001600160a01b0316612655565b60015460408051808201909152601b8152600080516020613d6783398151915260208201526000916001600160a01b03163314610c615760405162461bcd60e51b81526004018080602001828103825283818151815260200191508051906020019080838360005b83811015610c26578181015183820152602001610c0e565b50505050905090810190601f168015610c535780820380516001836020036101000a031916815260200191505b509250505060405180910390fd5b5060408051808201909152601981527f4552525f434f4e54524143545f53454c465f4144445245535300000000000000602082015282906001600160a01b038216301415610cf05760405162461bcd60e51b8152602060048201818152835160248401528351909283926044909101919085019080838360008315610c26578181015183820152602001610c0e565b5060408051808201909152601081526f4552525f5a45524f5f4144445245535360801b602082015283906001600160a01b038216610d6f5760405162461bcd60e51b8152602060048201818152835160248401528351909283926044909101919085019080838360008315610c26578181015183820152602001610c0e565b506002546001600160a01b03858116911614801590610d9c57506001546001600160a01b03858116911614155b8015610db657506000546001600160a01b03858116911614155b6040518060400160405280601081526020016f4552525f53414d455f4144445245535360801b81525090610e2b5760405162461bcd60e51b8152602060048201818152835160248401528351909283926044909101919085019080838360008315610c26578181015183820152602001610c0e565b50600254604080516020808252600e908201526d53595354454d5f4144445245535360901b8183015290516001600160a01b038088169316917f6840904f5b31827f74e1497360da245f56e530c8c3de3163a2d31f11493273c6919081900360600190a3600280546001600160a01b0386166001600160a01b0319909116179055600192505050919050565b6000805460408051808201909152601b8152600080516020613d678339815191526020820152906001600160a01b03163314610f345760405162461bcd60e51b8152602060048201818152835160248401528351909283926044909101919085019080838360008315610c26578181015183820152602001610c0e565b5050600655600190565b601e5481565b6003546001600160a01b031681565b601b5481565b60245481565b60126020526000908152604090205481565b60205481565b60116020526000908152604090205481565b601760209081526000928352604080842090915290825290205481565b60035460408051808201909152601b8152600080516020613d6783398151915260208201526000916001600160a01b031633146110245760405162461bcd60e51b8152602060048201818152835160248401528351909283926044909101919085019080838360008315610c26578181015183820152602001610c0e565b5060035460015460408051602080825260119082015270415554484f524954595f4144445245535360781b8183015290516001600160a01b039384169392909216917f6840904f5b31827f74e1497360da245f56e530c8c3de3163a2d31f11493273c69181900360600190a35060038054600180546001600160a01b03199081166001600160a01b03841617825590911690915590565b60106020526000908152604090205481565b60025460408051808201909152601b8152600080516020613d6783398151915260208201526000916001600160a01b0316331461114b5760405162461bcd60e51b8152602060048201818152835160248401528351909283926044909101919085019080838360008315610c26578181015183820152602001610c0e565b504261115b602454602354612672565b116111ad576040805162461bcd60e51b815260206004820152601860248201527f4552525f4d494e5f54494d455f49535f4e4f545f4f5645520000000000000000604482015290519081900360640190fd5b60006111ca6e41554354494f4e5f464f524d554c4160881b612688565b905060006111df64159055531560da1b612688565b905060006111f8684c495155414449545960b81b612688565b9050601c546000141561137e57600061121b6743555252454e435960c01b612688565b6001600160a01b0316637058346f60006040518263ffffffff1660e01b815260040180826001600160a01b03166001600160a01b0316815260200191505060206040518083038186803b15801561127157600080fd5b505afa158015611285573d6000803e3d6000fd5b505050506040513d602081101561129b57600080fd5b505160408051630c0f788b60e21b815290519192506000916001600160a01b0385169163303de22c91600480830192602092919082900301818787803b1580156112e457600080fd5b505af11580156112f8573d6000803e3d6000fd5b505050506040513d602081101561130e57600080fd5b5051905061133061131f8284612707565b61132b600a601261272b565b612730565b600d80546000908152601360209081526040808320859055601c85905583548352601782528083206001600160a01b038a16845290915290208290555490915061137a9085612745565b5050505b600080905061139b611394601c54600554612707565b6064612730565b601e55601d54601c5411156113f95760006113d96113d16113c9601c546113c4600a601261272b565b612707565b601d54612730565b600954612707565b90506113f56113ed61131f60205484612707565b602054612c1c565b9150505b600d54600a90600090600b111561141057600d5491505b60015b828163ffffffff161161145c576000611434600d548363ffffffff16612c1c565b600081815260136020526040902054909150611451908490612672565b925050600101611413565b5061147561139461146d8385612730565b600554612707565b9050601e5481111561148757601e8190555b60208054600d8054600090815260118452604080822093909355905481526012835290812085905590546114bb9085612672565b90508060106000600d548152602001908152602001600020819055506000876001600160a01b031663675a0eb4836006546040518363ffffffff1660e01b8152600401808381526020018281526020019250505060206040518083038186803b15801561152757600080fd5b505afa15801561153b573d6000803e3d6000fd5b505050506040513d602081101561155157600080fd5b50519050600061156d6926a0a4a72faa27a5a2a760b11b612688565b9050806001600160a01b03166397304ced836040518263ffffffff1660e01b815260040180828152602001915050602060405180830381600087803b1580156115b557600080fd5b505af11580156115c9573d6000803e3d6000fd5b505050506040513d60208110156115df57600080fd5b506000905061160d7f434f4d50414e595f4d41494e5f544f4b454e5f57414c4c455400000000000000612688565b905061161b82308386612c2e565b6000611638611632601c546113c4600a601261272b565b86612730565b905060006116506743555252454e435960c01b612688565b6001600160a01b0316637058346f6116746926a0a4a72faa27a5a2a760b11b612688565b6040518263ffffffff1660e01b815260040180826001600160a01b03166001600160a01b0316815260200191505060206040518083038186803b1580156116ba57600080fd5b505afa1580156116ce573d6000803e3d6000fd5b505050506040513d60208110156116e457600080fd5b5051600d80546000908152601560209081526040808320879055925482526014905220819055601c5490915061172a90611724906113c4600a601261272b565b82612730565b602055601b54601c5461173d9190612672565b601b55601f869055601c54601d556021819055600d5461175e906001612672565b600d81905550896001600160a01b031663864333746040518163ffffffff1660e01b8152600401602060405180830381600087803b15801561179f57600080fd5b505af11580156117b3573d6000803e3d6000fd5b505050506040513d60208110156117c957600080fd5b5050600754600d8054600090815260166020908152604080832094909455426024556022805460ff19169055601c82905591548254601f54601d54601b54601e54885194855296840192909252828701949094526060820193909352608081019290925260a082019290925260c0810185905260e08101849052915190917f08f2202d5dfd868bba646add414c69894809b63b759689620990d6c38b27ad9991908190036101000190a260019c5050505050505050505050505090565b60006118923383612e79565b61189b57600080fd5b6118a53433612fb8565b92915050565b60075481565b60186020908152600092835260408084209091529082529020546001600160a01b031681565b60025460408051808201909152601b8152600080516020613d6783398151915260208201526000916001600160a01b031633146119555760405162461bcd60e51b8152602060048201818152835160248401528351909283926044909101919085019080838360008315610c26578181015183820152602001610c0e565b50600d54841061199e576040805162461bcd60e51b815260206004820152600f60248201526e4552525f41554354494f4e5f44415960881b604482015290519081900360640190fd5b60005b82811015611a1d576000858152601a60205260408120908585848181106119c457fe5b602090810292909201356001600160a01b03168352508101919091526040016000205460ff16611a1557611a13858585848181106119fe57fe5b905060200201356001600160a01b0316612745565b505b6001016119a1565b506001949350505050565b6001546001600160a01b031681565b60166020526000908152604090205481565b600f6020526000908152604090205481565b601f5481565b60055481565b60085481565b6000805460408051808201909152601b8152600080516020613d678339815191526020820152906001600160a01b03163314611aea5760405162461bcd60e51b8152602060048201818152835160248401528351909283926044909101919085019080838360008315610c26578181015183820152602001610c0e565b5050600955600190565b601d5481565b600e6020526000908152604090205481565b600c5460ff1681565b600d5481565b6000546001600160a01b031681565b60015460408051808201909152601b8152600080516020613d6783398151915260208201526000916001600160a01b03163314611ba85760405162461bcd60e51b8152602060048201818152835160248401528351909283926044909101919085019080838360008315610c26578181015183820152602001610c0e565b5060408051808201909152601081526f4552525f5a45524f5f4144445245535360801b602082015282906001600160a01b038216611c275760405162461bcd60e51b8152602060048201818152835160248401528351909283926044909101919085019080838360008315610c26578181015183820152602001610c0e565b506002546001600160a01b03848116911614801590611c5457506001546001600160a01b03848116911614155b8015611c6e57506000546001600160a01b03848116911614155b6040518060400160405280601081526020016f4552525f53414d455f4144445245535360801b81525090611ce35760405162461bcd60e51b8152602060048201818152835160248401528351909283926044909101919085019080838360008315610c26578181015183820152602001610c0e565b50600380546001600160a01b0319166001600160a01b038516179055600191505b50919050565b6000611d163383612e79565b611d1f57600080fd5b611d2a848433613221565b949350505050565b60095481565b60215481565b601a60209081526000928352604080842090915290825290205460ff1681565b6000600d548210611da8576040805162461bcd60e51b815260206004820152600f60248201526e4552525f41554354494f4e5f44415960881b604482015290519081900360640190fd5b611d048233612745565b60225460ff1681565b60146020526000908152604090205481565b60235481565b600a5481565b6000805460408051808201909152601b8152600080516020613d678339815191526020820152906001600160a01b03163314611e565760405162461bcd60e51b8152602060048201818152835160248401528351909283926044909101919085019080838360008315610c26578181015183820152602001610c0e565b506001600160a01b038416611ea1576040516001600160a01b0383169084156108fc029085906000818181858888f19350505050158015611e9b573d6000803e3d6000fd5b50611ead565b611ead84308486612c2e565b5060019392505050565b600b5481565b60015460408051808201909152601b8152600080516020613d6783398151915260208201526000916001600160a01b03163314611f3b5760405162461bcd60e51b8152602060048201818152835160248401528351909283926044909101919085019080838360008315610c26578181015183820152602001610c0e565b5060408051808201909152601081526f4552525f5a45524f5f4144445245535360801b602082015282906001600160a01b038216611fba5760405162461bcd60e51b8152602060048201818152835160248401528351909283926044909101919085019080838360008315610c26578181015183820152602001610c0e565b50600480546001600160a01b0385166001600160a01b03199091161790556001915050919050565b60156020526000908152604090205481565b60015460408051808201909152601b8152600080516020613d6783398151915260208201526000916001600160a01b031633146120725760405162461bcd60e51b8152602060048201818152835160248401528351909283926044909101919085019080838360008315610c26578181015183820152602001610c0e565b5060408051808201909152601081526f4552525f5a45524f5f4144445245535360801b602082015282906001600160a01b0382166120f15760405162461bcd60e51b8152602060048201818152835160248401528351909283926044909101919085019080838360008315610c26578181015183820152602001610c0e565b506002546001600160a01b0384811691161480159061211e57506001546001600160a01b03848116911614155b801561213857506000546001600160a01b03848116911614155b6040518060400160405280601081526020016f4552525f53414d455f4144445245535360801b815250906121ad5760405162461bcd60e51b8152602060048201818152835160248401528351909283926044909101919085019080838360008315610c26578181015183820152602001610c0e565b50600054604080516020808252600d908201526c282924a6a0a92cafa7aba722a960991b8183015290516001600160a01b038087169316917f6840904f5b31827f74e1497360da245f56e530c8c3de3163a2d31f11493273c6919081900360600190a3600080546001600160a01b0385166001600160a01b03199091161790556001915050919050565b6000805460408051808201909152601b8152600080516020613d678339815191526020820152906001600160a01b031633146122b45760405162461bcd60e51b8152602060048201818152835160248401528351909283926044909101919085019080838360008315610c26578181015183820152602001610c0e565b5050600a55600190565b6002546001600160a01b031681565b6004546001600160a01b031681565b601c5481565b6000805460408051808201909152601b8152600080516020613d678339815191526020820152906001600160a01b0316331461235f5760405162461bcd60e51b8152602060048201818152835160248401528351909283926044909101919085019080838360008315610c26578181015183820152602001610c0e565b5050600555600190565b6000805460408051808201909152601b8152600080516020613d678339815191526020820152906001600160a01b031633146123e65760405162461bcd60e51b8152602060048201818152835160248401528351909283926044909101919085019080838360008315610c26578181015183820152602001610c0e565b5050600c805460ff1916911515919091179055600190565b6000805460408051808201909152601b8152600080516020613d678339815191526020820152906001600160a01b0316331461247b5760405162461bcd60e51b8152602060048201818152835160248401528351909283926044909101919085019080838360008315610c26578181015183820152602001610c0e565b50606482106124d1576040805162461bcd60e51b815260206004820152601b60248201527f4552525f53484f554c445f42455f4c4553535f5448414e5f3130300000000000604482015290519081900360640190fd5b50600755600190565b6000805460408051808201909152601b8152600080516020613d678339815191526020820152906001600160a01b031633146125575760405162461bcd60e51b8152602060048201818152835160248401528351909283926044909101919085019080838360008315610c26578181015183820152602001610c0e565b5050600b55600190565b6000805460408051808201909152601b8152600080516020613d678339815191526020820152906001600160a01b031633146125de5760405162461bcd60e51b8152602060048201818152835160248401528351909283926044909101919085019080838360008315610c26578181015183820152602001610c0e565b5060648210612634576040805162461bcd60e51b815260206004820152601b60248201527f4552525f53484f554c445f42455f4c4553535f5448414e5f3130300000000000604482015290519081900360640190fd5b50600855600190565b60065481565b60136020526000908152604090205481565b601960209081526000928352604080842090915290825290205481565b60008282018381101561268157fe5b9392505050565b6004805460408051637d4367ab60e11b8152928301849052516000926001600160a01b039092169163fa86cf56916024808301926020929190829003018186803b1580156126d557600080fd5b505afa1580156126e9573d6000803e3d6000fd5b505050506040513d60208110156126ff57600080fd5b505192915050565b600082612716575060006118a5565b8282028284828161272357fe5b041461268157fe5b900a90565b60008082848161273c57fe5b04949350505050565b6000828152601a602090815260408083206001600160a01b038516845290915281205460ff16156127bd576040805162461bcd60e51b815260206004820152601b60248201527f4552525f414c52454144595f544f4b454e5f4449535442555445440000000000604482015290519081900360640190fd5b60008381526017602090815260408083206001600160a01b038616845282528083205486845260139092528220549091806128096e41554354494f4e5f464f524d554c4160881b612688565b600088815260116020908152604080832054601283528184205460169093529281902054815163aeaffdb560e01b8152600481018a90526024810194909452604484019290925260648301879052608483019190915280516001600160a01b03939093169263aeaffdb59260a4808201939291829003018186803b15801561289057600080fd5b505afa1580156128a4573d6000803e3d6000fd5b505050506040513d60408110156128ba57600080fd5b50805160209091015190925090506128e26d494e44494455414c5f424f4e555360901b612688565b60008881526019602090815260408083206001600160a01b038b81168552908352928190205481516366013f4760e01b8152600481019190915260248101879052905193909216926366013f47926044808201939291829003018186803b15801561294c57600080fd5b505afa158015612960573d6000803e3d6000fd5b505050506040513d602081101561297657600080fd5b505191506129906926a0a4a72faa27a5a2a760b11b612688565b6001600160a01b03166397304ced836040518263ffffffff1660e01b815260040180828152602001915050602060405180830381600087803b1580156129d557600080fd5b505af11580156129e9573d6000803e3d6000fd5b505050506040513d60208110156129ff57600080fd5b50612a1890506926a0a4a72faa27a5a2a760b11b612688565b6001600160a01b031663839972f98760006024546040518463ffffffff1660e01b815260040180846001600160a01b03166001600160a01b031681526020018381526020018281526020019350505050602060405180830381600087803b158015612a8257600080fd5b505af1158015612a96573d6000803e3d6000fd5b505050506040513d6020811015612aac57600080fd5b50612ad09050612ac86926a0a4a72faa27a5a2a760b11b612688565b308884612c2e565b612b16612ae96926a0a4a72faa27a5a2a760b11b612688565b612b077120aaa1aa24a7a72fa82927aa22a1aa24a7a760711b612688565b612b118585612c1c565b6134db565b612b347120aaa1aa24a7a72fa82927aa22a1aa24a7a760711b612688565b6001600160a01b031663fb0f97a83088612b4e8686612c1c565b6040518463ffffffff1660e01b815260040180846001600160a01b03166001600160a01b03168152602001836001600160a01b03166001600160a01b031681526020018281526020019350505050602060405180830381600087803b158015612bb657600080fd5b505af1158015612bca573d6000803e3d6000fd5b505050506040513d6020811015612be057600080fd5b50505060009586525050601a602090815260408086206001600160a01b0395909516865293905250509020805460ff1916600190811790915590565b600082821115612c2857fe5b50900390565b6000846001600160a01b03166370a08231846040518263ffffffff1660e01b815260040180826001600160a01b03166001600160a01b0316815260200191505060206040518083038186803b158015612c8657600080fd5b505afa158015612c9a573d6000803e3d6000fd5b505050506040513d6020811015612cb057600080fd5b505190506001600160a01b038416301415612d5757846001600160a01b031663a9059cbb84846040518363ffffffff1660e01b815260040180836001600160a01b03166001600160a01b0316815260200182815260200192505050602060405180830381600087803b158015612d2557600080fd5b505af1158015612d39573d6000803e3d6000fd5b505050506040513d6020811015612d4f57600080fd5b50612ddf9050565b604080516323b872dd60e01b81526001600160a01b0386811660048301528581166024830152604482018590529151918716916323b872dd916064808201926020929091908290030181600087803b158015612db257600080fd5b505af1158015612dc6573d6000803e3d6000fd5b505050506040513d6020811015612ddc57600080fd5b50505b6000856001600160a01b03166370a08231856040518263ffffffff1660e01b815260040180826001600160a01b03166001600160a01b0316815260200191505060206040518083038186803b158015612e3757600080fd5b505afa158015612e4b573d6000803e3d6000fd5b505050506040513d6020811015612e6157600080fd5b50519050818111612e7157600080fd5b505050505050565b6000600d548214612ed1576040805162461bcd60e51b815260206004820152601760248201527f4552525f41554354494f4e5f4441595f4348414e474544000000000000000000604482015290519081900360640190fd5b612ee76915d212551157d31254d560b21b612688565b6001600160a01b0316636f9170f6846040518263ffffffff1660e01b815260040180826001600160a01b03166001600160a01b0316815260200191505060206040518083038186803b158015612f3c57600080fd5b505afa158015612f50573d6000803e3d6000fd5b505050506040513d6020811015612f6657600080fd5b5051612faf576040805162461bcd60e51b81526020600482015260136024820152724552525f57484954454c4953545f434845434b60681b604482015290519081900360640190fd5b50600192915050565b600080612fd66e41554354494f4e5f464f524d554c4160881b612688565b90506000806000836001600160a01b031663640fc3058860166000600d548152602001908152602001600020546008546040518463ffffffff1660e01b815260040180848152602001838152602001828152602001935050505060606040518083038186803b15801561304857600080fd5b505afa15801561305c573d6000803e3d6000fd5b505050506040513d606081101561307257600080fd5b508051602082015160409092015190945090925090506130a67120aaa1aa24a7a72fa82927aa22a1aa24a7a760711b612688565b6001600160a01b03166322639bd184886040518363ffffffff1660e01b815260040180826001600160a01b03166001600160a01b031681526020019150506020604051808303818588803b1580156130fd57600080fd5b505af1158015613111573d6000803e3d6000fd5b50505050506040513d602081101561312857600080fd5b5060009050613142684c495155414449545960b81b612688565b6001600160a01b031663ab16b9c9836040518263ffffffff1660e01b81526004016020604051808303818588803b15801561317c57600080fd5b505af1158015613190573d6000803e3d6000fd5b50505050506040513d60208110156131a757600080fd5b5051905060006131cc7210d3d35410539657d195539117d5d053131155606a1b612688565b6040519091506001600160a01b0382169085156108fc029086906000818181858888f19350505050158015613205573d6000803e3d6000fd5b5061321560008a60128b8661356c565b50505050505092915050565b600061322f84833086612c2e565b600061324c6e41554354494f4e5f464f524d554c4160881b612688565b90506000806000836001600160a01b031663640fc3058860166000600d548152602001908152602001600020546008546040518463ffffffff1660e01b815260040180848152602001838152602001828152602001935050505060606040518083038186803b1580156132be57600080fd5b505afa1580156132d2573d6000803e3d6000fd5b505050506040513d60608110156132e857600080fd5b50805160208201516040909201519094509092509050613326886133207120aaa1aa24a7a72fa82927aa22a1aa24a7a760711b612688565b856134db565b6133447120aaa1aa24a7a72fa82927aa22a1aa24a7a760711b612688565b604080516311b858e960e01b81526001600160a01b038b81166004830152306024830152898116604483015260648201879052915192909116916311b858e9916084808201926020929091908290030181600087803b1580156133a657600080fd5b505af11580156133ba573d6000803e3d6000fd5b505050506040513d60208110156133d057600080fd5b506133f29050886133ec684c495155414449545960b81b612688565b836134db565b6000613409684c495155414449545960b81b612688565b6040805163e4df759f60e01b81526001600160a01b038c81166004830152306024830152604482018690529151929091169163e4df759f916064808201926020929091908290030181600087803b15801561346357600080fd5b505af1158015613477573d6000803e3d6000fd5b505050506040513d602081101561348d57600080fd5b5051905060006134b27210d3d35410539657d195539117d5d053131155606a1b612688565b90506134c08a308387612c2e565b6134ce8a8a60128b8661356c565b5050505050509392505050565b826001600160a01b031663095ea7b383836040518363ffffffff1660e01b815260040180836001600160a01b03166001600160a01b0316815260200182815260200192505050602060405180830381600087803b15801561353b57600080fd5b505af115801561354f573d6000803e3d6000fd5b505050506040513d602081101561356557600080fd5b5050505050565b60225460ff16156135b7576040805162461bcd60e51b815260206004820152601060248201526f105550d51253d397d4d3d31117d3d55560821b604482015290519081900360640190fd5b60006135cd6743555252454e435960c01b612688565b6001600160a01b0316637058346f876040518263ffffffff1660e01b815260040180826001600160a01b03166001600160a01b0316815260200191505060206040518083038186803b15801561362257600080fd5b505afa158015613636573d6000803e3d6000fd5b505050506040513d602081101561364c57600080fd5b50519050600061366a61365f8784612707565b61132b600a8861272b565b600c5490915060ff16156139a55760006136906926a0a4a72faa27a5a2a760b11b612688565b90506000816001600160a01b03166370a08231876040518263ffffffff1660e01b815260040180826001600160a01b03166001600160a01b0316815260200191505060206040518083038186803b1580156136ea57600080fd5b505afa1580156136fe573d6000803e3d6000fd5b505050506040513d602081101561371457600080fd5b50516040805163313ce56760e01b815290519192506000916001600160a01b0385169163313ce567916004808301926020929190829003018186803b15801561375c57600080fd5b505afa158015613770573d6000803e3d6000fd5b505050506040513d602081101561378657600080fd5b505160ff16905060006137a36743555252454e435960c01b612688565b6001600160a01b0316637058346f856040518263ffffffff1660e01b815260040180826001600160a01b03166001600160a01b0316815260200191505060206040518083038186803b1580156137f857600080fd5b505afa15801561380c573d6000803e3d6000fd5b505050506040513d602081101561382257600080fd5b5051600a549091506000906138559061384a9061384490611394908890612707565b84612707565b61132b600a8661272b565b600d5460009081526017602090815260408083206001600160a01b038e1684529091529020549091506138889087612672565b8110156138dc576040805162461bcd60e51b815260206004820152601f60248201527f4552525f555345525f444f4e545f484156455f454e4f5547485f544f4b454e00604482015290519081900360640190fd5b600d5460009081526017602090815260408083206001600160a01b038d168452909152812054613916906139109089612672565b84612730565b6040805163839972f960e01b81526001600160a01b038d811660048301526024820184905242604483015291519293509088169163839972f9916064808201926020929091908290030181600087803b15801561397257600080fd5b505af1158015613986573d6000803e3d6000fd5b505050506040513d602081101561399c57600080fd5b50505050505050505b6139b1601c5482612672565b601e5410613a37576139c5601c5482612672565b6139d6611394601e54600b54612707565b1015613a29576040805162461bcd60e51b815260206004820152601c60248201527f4552525f434f4e545249425554494f4e5f4c494d49545f524541434800000000604482015290519081900360640190fd5b6022805460ff191660011790555b613a43601c5482612672565b601e541015613a99576040805162461bcd60e51b815260206004820152601c60248201527f4552525f434f4e545249425554494f4e5f4c494d49545f524541434800000000604482015290519081900360640190fd5b613aa5601c5482612672565b601c55600d5460009081526017602090815260408083206001600160a01b0388168452909152902054613ad89082612672565b600d5460009081526017602090815260408083206001600160a01b0389168452825280832093909355600e90522054613b119082612672565b6001600160a01b0385166000908152600e6020908152604080832093909355600d548252601390522054613b459082612672565b600d805460009081526013602090815260408083209490945591548152601782528281206001600160a01b0388168252909152908120548190818060015b60058111613cf457600d546000818152601860209081526040808320858452825280832054938352601782528083206001600160a01b03909416808452939091529020549096509450848410801590613bda575082155b15613c73578960186000600d548152602001908152602001600020600083815260200190815260200160002060006101000a8154816001600160a01b0302191690836001600160a01b031602179055508060196000600d54815260200190815260200160002060008c6001600160a01b03166001600160a01b031681526020019081526020016000208190555085915060019250613cec565b828015613c925750896001600160a01b0316826001600160a01b031614155b15613cec57600d80546000908152601860209081526040808320858452825280832080546001600160a01b039097166001600160a01b03199097168717905592548252601981528282209482529390935290912081905584905b600101613b83565b50600d54601c54604080519182526001600160a01b03808d1660208401528f1682820152606082018e90526080820189905260a082018b9052517fc2211ebf4d8e9e616c0cacf62e4d6c799a5bacba5255d6965234b03ce0132c8b9181900360c00190a250505050505050505050505056fe4552525f415554484f52495a45445f414444524553535f4f4e4c590000000000a265627a7a72305820f734491e2599e68161e3a143bb50ef31fc773646dac38cf86439d88746b2da4964736f6c63430005090032",
  "source": "pragma solidity ^0.5.9;\n\nimport \"../common/Ownable.sol\";\nimport \"../common/SafeMath.sol\";\nimport \"../InterFaces/IAuctionRegistery.sol\";\nimport \"../InterFaces/IAuctionTagAlong.sol\";\nimport \"../InterFaces/IAuctionFormula.sol\";\nimport \"../InterFaces/IAuctionProtection.sol\";\nimport \"../InterFaces/IERC20Token.sol\";\nimport \"../InterFaces/ICurrencyPrices.sol\";\nimport \"../InterFaces/IAuctionLiquadity.sol\";\nimport \"../InterFaces/ITokenVault.sol\";\nimport \"../InterFaces/IToken.sol\";\nimport \"../InterFaces/IIndividualBonus.sol\";\nimport \"../InterFaces/IWhiteList.sol\";\n\n\ncontract AuctionRegistery is Ownable, AuctionRegisteryContracts {\n    IAuctionRegistery public contractsRegistry;\n\n    function updateRegistery(address _address)\n        external\n        onlyAuthorized()\n        notZeroAddress(_address)\n        returns (bool)\n    {\n        contractsRegistry = IAuctionRegistery(_address);\n        return true;\n    }\n\n    function getAddressOf(bytes32 _contractName)\n        internal\n        view\n        returns (address payable)\n    {\n        return contractsRegistry.getAddressOf(_contractName);\n    }\n}\n\n\ncontract AuctionUtils is AuctionRegistery {\n    uint256 public maxContributionAllowed = 150;\n\n    uint256 public mangmentFee = 2;\n\n    uint256 public downSideProtectionRatio = 90;\n\n    uint256 public fundWalletRatio = 90;\n\n    uint256 public groupBonusRatio = 2;\n\n    uint256 public mainTokenRatio = 100;\n\n    uint256 public bufferLimit = 105;\n\n    bool public mainTokencheckOn = false;\n\n    function setGroupBonusRatio(uint256 _groupBonusRatio)\n        external\n        onlyOwner()\n        returns (bool)\n    {\n        groupBonusRatio = _groupBonusRatio;\n        return true;\n    }\n\n    function setMangmentFee(uint256 _mangmentFee)\n        external\n        onlyOwner()\n        returns (bool)\n    {\n        mangmentFee = _mangmentFee;\n        return true;\n    }\n\n    function setBufferLimit(uint256 _bufferLimit)\n        external\n        onlyOwner()\n        returns (bool)\n    {\n        bufferLimit = _bufferLimit;\n        return true;\n    }\n\n    function setDownSideProtectionRatio(uint256 _ratio)\n        external\n        onlyOwner()\n        returns (bool)\n    {\n        require(_ratio < 100, \"ERR_SHOULD_BE_LESS_THAN_100\");\n        downSideProtectionRatio = _ratio;\n        return true;\n    }\n\n    function setfundWalletRatio(uint256 _ratio)\n        external\n        onlyOwner()\n        returns (bool)\n    {\n        require(_ratio < 100, \"ERR_SHOULD_BE_LESS_THAN_100\");\n        fundWalletRatio = _ratio;\n        return true;\n    }\n\n    function setMainTokenRatio(uint256 _ratio)\n        external\n        onlyOwner()\n        returns (bool)\n    {\n        mainTokenRatio = _ratio;\n        return true;\n    }\n\n    function setMainTokenCheckOn(bool _mainTokencheckOn)\n        external\n        onlyOwner()\n        returns (bool)\n    {\n        mainTokencheckOn = _mainTokencheckOn;\n        return true;\n    }\n\n    function setMaxContributionAllowed(uint256 _maxContributionAllowed)\n        external\n        onlyOwner()\n        returns (bool)\n    {\n        maxContributionAllowed = _maxContributionAllowed;\n        return true;\n    }\n}\n\n\ncontract AuctionStorage is AuctionUtils {\n    uint256 public auctionDay = 1;\n\n    mapping(address => uint256) public userTotalFund;\n\n    mapping(address => uint256) public userTotalReturnToken;\n\n    mapping(uint256 => uint256) public dayWiseSupply;\n\n    mapping(uint256 => uint256) public dayWiseSupplyCore;\n\n    mapping(uint256 => uint256) public dayWiseSupplyBonus;\n\n    mapping(uint256 => uint256) public dayWiseContribution;\n\n    mapping(uint256 => uint256) public dayWiseMarketPrice;\n\n    mapping(uint256 => uint256) public dayWiseAuctionPrice;\n\n    mapping(uint256 => uint256) public dayWiseDownSideProtectionRatio;\n\n    mapping(uint256 => mapping(address => uint256)) public walletDayWiseContribution;\n\n    mapping(uint256 => mapping(uint256 => address)) public topFiveContributior;\n\n    mapping(uint256 => mapping(address => uint256)) public topContributiorIndex;\n\n    // mapping(uint256 =>)\n\n    mapping(uint256 => mapping(address => bool)) public returnToken;\n\n    uint256 public totalContribution = 2500000000000;\n\n    uint256 public todayContribution = 0;\n\n    uint256 public yesterdayContribution = 500000000;\n\n    uint256 public allowedMaxContribution = 850000000;\n\n    uint256 public yesterdaySupply = 0;\n\n    uint256 public todaySupply = 50000000000000000000000;\n\n    uint256 public tokenAuctionEndPrice = 10000;\n\n    bool public auctionSoldOut = false;\n}\n\n\ncontract AuctionFundCollector is AuctionStorage, SafeMath {\n    event FundAdded(\n        uint256 indexed _auctionDayId,\n        uint256 _todayContribution,\n        address _fundBy,\n        address _fundToken,\n        uint256 _fundAmount,\n        uint256 _fundValue,\n        uint256 _marketPrice\n    );\n\n    function ensureTransferFrom(\n        IERC20Token _token,\n        address _from,\n        address _to,\n        uint256 _amount\n    ) internal {\n        uint256 prevBalance = _token.balanceOf(_to);\n        if (_from == address(this)) _token.transfer(_to, _amount);\n        else _token.transferFrom(_from, _to, _amount);\n        uint256 postBalance = _token.balanceOf(_to);\n        require(postBalance > prevBalance);\n    }\n\n    function approveTransferFrom(\n        IERC20Token _token,\n        address _spender,\n        uint256 _amount\n    ) internal {\n        _token.approve(_spender, _amount);\n    }\n\n    function _checkContribution(address _from, uint256 _auctionDayId)\n        internal\n        view\n        returns (bool)\n    {\n        require(_auctionDayId == auctionDay, \"ERR_AUCTION_DAY_CHANGED\");\n        require(\n            IWhiteList(getAddressOf(WHITE_LIST)).isWhiteListed(_from),\n            \"ERR_WHITELIST_CHECK\"\n        );\n        return true;\n    }\n\n    function fundAdded(\n        address _token,\n        uint256 _amount,\n        uint256 _decimal,\n        address _from,\n        uint256 currentMarketPrice\n    ) internal {\n        require(auctionSoldOut == false, \"AUCTION_SOLD_OUT\");\n        uint256 _currencyPrices = ICurrencyPrices(getAddressOf(CURRENCY))\n            .getCurrencyPrice(_token);\n\n        uint256 _contributedAmount = safeDiv(\n            safeMul(_amount, _currencyPrices),\n            safeExponent(10, _decimal)\n        );\n\n        if (mainTokencheckOn) {\n            IERC20Token mainToken = IERC20Token(getAddressOf(MAIN_TOKEN));\n            uint256 _tokenBalance = mainToken.balanceOf(_from);\n            uint256 _tokenDecimal = mainToken.decimals();\n\n            uint256 _mainTokenPrice = ICurrencyPrices(getAddressOf(CURRENCY))\n                .getCurrencyPrice(address(mainToken));\n\n            uint256 _tokenAmount = safeDiv(\n                safeMul(\n                    safeDiv(safeMul(_tokenBalance, mainTokenRatio), 100),\n                    _mainTokenPrice\n                ),\n                safeExponent(10, _tokenDecimal)\n            );\n\n            require(\n                _tokenAmount >=\n                    safeAdd(\n                        walletDayWiseContribution[auctionDay][_from],\n                        _contributedAmount\n                    ),\n                \"ERR_USER_DONT_HAVE_ENOUGH_TOKEN\"\n            );\n\n            uint256 lockToken = safeDiv(\n                safeAdd(\n                    walletDayWiseContribution[auctionDay][_from],\n                    _contributedAmount\n                ),\n                _mainTokenPrice\n            );\n\n            IToken(address(mainToken)).lockToken(_from, lockToken, now);\n        }\n\n        // allow five percent more for buffer\n        // Allow five percent more because of volatility in ether price\n        if (\n            allowedMaxContribution >=\n            safeAdd(todayContribution, _contributedAmount)\n        ) {\n            require(\n                safeDiv(safeMul(allowedMaxContribution, bufferLimit), 100) >=\n                    safeAdd(todayContribution, _contributedAmount),\n                \"ERR_CONTRIBUTION_LIMIT_REACH\"\n            );\n\n            auctionSoldOut = true;\n        }\n\n        require(\n            allowedMaxContribution >=\n                safeAdd(todayContribution, _contributedAmount),\n            \"ERR_CONTRIBUTION_LIMIT_REACH\"\n        );\n\n        todayContribution = safeAdd(todayContribution, _contributedAmount);\n\n        walletDayWiseContribution[auctionDay][_from] = safeAdd(\n            walletDayWiseContribution[auctionDay][_from],\n            _contributedAmount\n        );\n\n        userTotalFund[_from] = safeAdd(\n            userTotalFund[_from],\n            _contributedAmount\n        );\n\n        dayWiseContribution[auctionDay] = safeAdd(\n            dayWiseContribution[auctionDay],\n            _contributedAmount\n        );\n\n        address contributor;\n        uint256 topContributior;\n\n\n            uint256 contributionByUser\n         = walletDayWiseContribution[auctionDay][_from];\n        bool replaced = false;\n        address replaceWith;\n\n        for (uint256 x = 1; x <= 5; x++) {\n            contributor = topFiveContributior[auctionDay][x];\n            topContributior = walletDayWiseContribution[auctionDay][contributor];\n            if (contributionByUser >= topContributior && replaced == false) {\n                topFiveContributior[auctionDay][x] = _from;\n                topContributiorIndex[auctionDay][_from] = x;\n                replaceWith = contributor;\n                replaced = true;\n            } else if (replaced && replaceWith != _from) {\n                topFiveContributior[auctionDay][x] = replaceWith;\n                topContributiorIndex[auctionDay][replaceWith] = x;\n                replaceWith = contributor;\n            }\n        }\n\n        emit FundAdded(\n            auctionDay,\n            todayContribution,\n            _from,\n            _token,\n            _amount,\n            _contributedAmount,\n            currentMarketPrice\n        );\n    }\n\n    function _contributeWithEther(uint256 _value, address _from)\n        internal\n        returns (bool)\n    {\n        IAuctionFormula formula = IAuctionFormula(\n            getAddressOf(AUCTION_FORMULA)\n        );\n\n        (\n            uint256 downSideAmount,\n            uint256 fundWalletamount,\n            uint256 reserveAmount\n        ) = formula.calcuateAuctionFundDistrubution(\n            _value,\n            dayWiseDownSideProtectionRatio[auctionDay],\n            fundWalletRatio\n        );\n\n        IAuctionProtection(getAddressOf(AUCTION_PROTECTION)).lockEther.value(\n            downSideAmount\n        )(_from);\n\n        uint256 currentMarketPrice = IAuctionLiquadity(getAddressOf(LIQUADITY))\n            .contributeWithEther\n            .value(reserveAmount)();\n\n        address payable fundWallet = getAddressOf(COMPANY_FUND_WALLET);\n        fundWallet.transfer(fundWalletamount);\n\n        fundAdded(address(0), _value, 18, _from, currentMarketPrice);\n    }\n\n    function _contributeWithToken(\n        IERC20Token _token,\n        uint256 _value,\n        address _from\n    ) internal returns (bool) {\n        ensureTransferFrom(_token, _from, address(this), _value);\n\n        IAuctionFormula formula = IAuctionFormula(\n            getAddressOf(AUCTION_FORMULA)\n        );\n\n        (\n            uint256 downSideAmount,\n            uint256 fundWalletamount,\n            uint256 reserveAmount\n        ) = formula.calcuateAuctionFundDistrubution(\n            _value,\n            dayWiseDownSideProtectionRatio[auctionDay],\n            fundWalletRatio\n        );\n\n        approveTransferFrom(\n            _token,\n            getAddressOf(AUCTION_PROTECTION),\n            downSideAmount\n        );\n        IAuctionProtection(getAddressOf(AUCTION_PROTECTION)).lockTokens(\n            _token,\n            address(this),\n            _from,\n            downSideAmount\n        );\n\n        approveTransferFrom(_token, getAddressOf(LIQUADITY), reserveAmount);\n\n        uint256 currentMarketPrice = IAuctionLiquadity(getAddressOf(LIQUADITY))\n            .contributeWithToken(_token, address(this), reserveAmount);\n\n        address payable fundWallet = getAddressOf(COMPANY_FUND_WALLET);\n\n        ensureTransferFrom(_token, address(this), fundWallet, fundWalletamount);\n\n        fundAdded(address(_token), _value, 18, _from, currentMarketPrice);\n    }\n\n    function contributeWithEther(uint256 _auctionDayId)\n        external\n        payable\n        returns (bool)\n    {\n        require(_checkContribution(msg.sender, _auctionDayId));\n        return _contributeWithEther(msg.value, msg.sender);\n    }\n\n    function contributeWithToken(\n        IERC20Token _token,\n        uint256 _value,\n        uint256 _auctionDayId\n    ) external returns (bool) {\n        require(_checkContribution(msg.sender, _auctionDayId));\n\n        return _contributeWithToken(_token, _value, msg.sender);\n    }\n}\n\n\ncontract Auction is AuctionFundCollector {\n    uint256 public MIN_AUCTION_END_TIME = 0; //epoch\n\n    uint256 public LAST_AUCTION_START = 0;\n\n    constructor(\n        uint256 _startTime,\n        uint256 _minAuctionTime,\n        address _systemAddress,\n        address _multisigAddress,\n        address _registeryAddress\n    ) public Ownable(_systemAddress, _multisigAddress) {\n        LAST_AUCTION_START = _startTime;\n        MIN_AUCTION_END_TIME = _minAuctionTime;\n        contractsRegistry = IAuctionRegistery(_registeryAddress);\n        dayWiseDownSideProtectionRatio[auctionDay] = downSideProtectionRatio;\n    }\n\n    event AuctionEnded(\n        uint256 indexed _auctionDayId,\n        uint256 _todaySupply,\n        uint256 _yesterdaySupply,\n        uint256 _todayContribution,\n        uint256 _yesterdayContribution,\n        uint256 _totalContribution,\n        uint256 _maxContributionAllowed,\n        uint256 _tokenPrice,\n        uint256 _tokenMarketPrice\n    );\n\n    function auctionEnd() external onlySystem() returns (bool) {\n        require(\n            safeAdd(LAST_AUCTION_START, MIN_AUCTION_END_TIME) > now,\n            \"ERR_MIN_TIME_IS_NOT_OVER\"\n        );\n\n        IAuctionFormula formula = IAuctionFormula(\n            getAddressOf(AUCTION_FORMULA)\n        );\n\n        address vault = getAddressOf(VAULT);\n\n        address liqudity = getAddressOf(LIQUADITY);\n\n        if (todayContribution == 0) {\n            uint256 _currencyPrices = ICurrencyPrices(getAddressOf(CURRENCY))\n                .getCurrencyPrice(address(0));\n\n            uint256 mainReserveAmount = IAuctionLiquadity(liqudity)\n                .contributeTowardMainReserve();\n\n            mainReserveAmount = safeDiv(\n                safeMul(mainReserveAmount, _currencyPrices),\n                safeExponent(10, 18)\n            );\n\n            dayWiseContribution[auctionDay] = mainReserveAmount;\n\n            todayContribution = mainReserveAmount;\n\n            walletDayWiseContribution[auctionDay][vault] = mainReserveAmount;\n\n            disturbuteTokenInternal(auctionDay, vault);\n        }\n\n        uint256 bonusSupply = 0;\n\n        allowedMaxContribution = safeDiv(\n            safeMul(todayContribution, maxContributionAllowed),\n            100\n        );\n\n        if (todayContribution > yesterdayContribution) {\n            uint256 _groupBonusRatio = safeMul(\n                safeDiv(\n                    safeMul(todayContribution, safeExponent(10, 18)),\n                    yesterdayContribution\n                ),\n                groupBonusRatio\n            );\n\n            bonusSupply = safeSub(\n                safeDiv(\n                    safeMul(todaySupply, _groupBonusRatio),\n                    safeExponent(10, 18)\n                ),\n                todaySupply\n            );\n        }\n        uint256 _avgDays = 10;\n\n        uint256 _avgInvestment = 0;\n\n        if (auctionDay < 11) {\n            _avgDays = auctionDay;\n        }\n\n        for (uint32 tempX = 1; tempX <= _avgDays; tempX++) {\n            uint256 _tempDay = safeSub(auctionDay, tempX);\n            _avgInvestment = safeAdd(\n                _avgInvestment,\n                dayWiseContribution[_tempDay]\n            );\n        }\n\n        _avgInvestment = safeDiv(\n            safeMul(safeDiv(_avgInvestment, _avgDays), maxContributionAllowed),\n            100\n        );\n\n        if (_avgInvestment > allowedMaxContribution) {\n            allowedMaxContribution = _avgInvestment;\n        }\n\n        dayWiseSupplyCore[auctionDay] = todaySupply;\n        dayWiseSupplyBonus[auctionDay] = bonusSupply;\n        uint256 _tempSupply = safeAdd(todaySupply, bonusSupply);\n        dayWiseSupply[auctionDay] = _tempSupply;\n        uint256 fee = formula.calculateMangmentFee(_tempSupply, mangmentFee);\n        address token = getAddressOf(MAIN_TOKEN);\n        IToken(token).mintTokens(fee);\n\n        address payable companyMainTokenWallet = getAddressOf(\n            COMPANY_MAIN_TOKEN_WALLET\n        );\n\n        ensureTransferFrom(\n            IERC20Token(token),\n            address(this),\n            companyMainTokenWallet,\n            fee\n        );\n\n        uint256 _tokenPrice = safeDiv(\n            safeMul(todayContribution, safeExponent(10, 18)),\n            _tempSupply\n        );\n\n        uint256 _tokenMarketPrice = ICurrencyPrices(getAddressOf(CURRENCY))\n            .getCurrencyPrice(getAddressOf(MAIN_TOKEN));\n\n        dayWiseAuctionPrice[auctionDay] = _tokenPrice;\n\n        dayWiseMarketPrice[auctionDay] = _tokenMarketPrice;\n\n        todaySupply = safeDiv(\n            safeMul(todayContribution, safeExponent(10, 18)),\n            _tokenMarketPrice\n        );\n\n        totalContribution = safeAdd(totalContribution, todayContribution);\n\n        yesterdaySupply = _tempSupply;\n\n        yesterdayContribution = todayContribution;\n\n        tokenAuctionEndPrice = _tokenMarketPrice;\n\n        auctionDay = safeAdd(auctionDay, 1);\n\n        IAuctionLiquadity(liqudity).auctionEnded();\n\n        dayWiseDownSideProtectionRatio[auctionDay] = downSideProtectionRatio;\n\n        LAST_AUCTION_START = now;\n\n        auctionSoldOut = false;\n\n        todayContribution = 0;\n\n        emit AuctionEnded(\n            auctionDay,\n            todaySupply,\n            yesterdaySupply,\n            todayContribution,\n            yesterdayContribution,\n            totalContribution,\n            allowedMaxContribution,\n            _tokenPrice,\n            _tokenMarketPrice\n        );\n\n        return true;\n    }\n\n    function disturbuteTokenInternal(uint256 dayId, address _which)\n        internal\n        returns (bool)\n    {\n        require(\n            returnToken[dayId][_which] == false,\n            \"ERR_ALREADY_TOKEN_DISTBUTED\"\n        );\n\n\n            uint256 dayWiseContributionByWallet\n         = walletDayWiseContribution[dayId][_which];\n\n        uint256 dayWiseContribution = dayWiseContribution[dayId];\n\n        (uint256 returnAmount, uint256 _userAmount) = IAuctionFormula(\n            getAddressOf(AUCTION_FORMULA)\n        )\n            .calcuateAuctionTokenDistrubution(\n            dayWiseContributionByWallet,\n            dayWiseSupplyCore[dayId],\n            dayWiseSupplyBonus[dayId],\n            dayWiseContribution,\n            dayWiseDownSideProtectionRatio[dayId]\n        );\n\n        returnAmount = IIndividualBonus(getAddressOf(INDIDUAL_BONUS))\n            .calucalteBonus(topContributiorIndex[dayId][_which], returnAmount);\n\n        IToken(getAddressOf(MAIN_TOKEN)).mintTokens(returnAmount);\n        // here we check with last auction bcz user can invest after auction start\n        IToken(getAddressOf(MAIN_TOKEN)).lockToken(\n            _which,\n            0,\n            LAST_AUCTION_START\n        );\n\n        ensureTransferFrom(\n            IERC20Token(getAddressOf(MAIN_TOKEN)),\n            address(this),\n            _which,\n            _userAmount\n        );\n\n        approveTransferFrom(\n            IERC20Token(getAddressOf(MAIN_TOKEN)),\n            getAddressOf(AUCTION_PROTECTION),\n            safeSub(returnAmount, _userAmount)\n        );\n\n        IAuctionProtection(getAddressOf(AUCTION_PROTECTION)).depositToken(\n            address(this),\n            _which,\n            safeSub(returnAmount, _userAmount)\n        );\n\n        returnToken[dayId][_which] = true;\n\n        return true;\n    }\n\n    function disturbuteTokens(uint256 dayId, address[] calldata _which)\n        external\n        onlySystem()\n        returns (bool)\n    {\n        require(dayId < auctionDay, \"ERR_AUCTION_DAY\");\n        for (uint256 tempX = 0; tempX < _which.length; tempX++) {\n            if (returnToken[dayId][_which[tempX]] == false)\n                disturbuteTokenInternal(dayId, _which[tempX]);\n        }\n        return true;\n    }\n\n    function disturbuteTokens(uint256 dayId) external returns (bool) {\n        require(dayId < auctionDay, \"ERR_AUCTION_DAY\");\n        disturbuteTokenInternal(dayId, msg.sender);\n    }\n\n    //In case if there is other tokens into contract\n    function returnFund(\n        IERC20Token _token,\n        uint256 _value,\n        address payable _which\n    ) external onlyOwner() returns (bool) {\n        if (address(_token) == address(0)) {\n            _which.transfer(_value);\n        } else {\n            ensureTransferFrom(_token, address(this), _which, _value);\n        }\n        return true;\n    }\n\n    function() external payable {\n        revert();\n    }\n}\n",
  "sourcePath": "/home/safu/minddeft/jointerInc/jointer-token/contracts/auctionContracts/Auction.sol",
  "compiler": {
    "name": "solc",
    "version": "0.5.9+commit.e560f70d.Emscripten.clang"
  },
  "schemaVersion": "3.1.0",
  "updatedAt": "2020-05-22T13:05:29.369Z",
  "devdoc": {
    "methods": {
      "changeAuthorityAddress(address)": {
        "details": "change system address",
        "params": {
          "_which": "The address to which is new Authority address"
        }
      },
      "changePrimaryOwner(address)": {
        "details": "change primary ownership",
        "params": {
          "_which": "The address to which is new owner address"
        }
      },
      "changeSystemAddress(address)": {
        "details": "change system address",
        "params": {
          "_which": "The address to which is new system address"
        }
      }
    }
  },
  "userdoc": {
    "methods": {}
  }
}