{
  "contractName": "AuctionFormula",
  "abi": [
    {
      "constant": true,
      "inputs": [],
      "name": "version",
      "outputs": [
        {
          "name": "",
          "type": "uint16"
        }
      ],
      "payable": false,
      "stateMutability": "view",
      "type": "function"
    },
    {
      "constant": true,
      "inputs": [
        {
          "name": "dayWiseContributionByWallet",
          "type": "uint256"
        },
        {
          "name": "dayWiseSupplyCore",
          "type": "uint256"
        },
        {
          "name": "dayWiseSupplyBonus",
          "type": "uint256"
        },
        {
          "name": "dayWiseContribution",
          "type": "uint256"
        },
        {
          "name": "downSideProtectionRatio",
          "type": "uint256"
        }
      ],
      "name": "calcuateAuctionTokenDistrubution",
      "outputs": [
        {
          "name": "",
          "type": "uint256"
        },
        {
          "name": "",
          "type": "uint256"
        }
      ],
      "payable": false,
      "stateMutability": "pure",
      "type": "function"
    },
    {
      "constant": true,
      "inputs": [
        {
          "name": "_value",
          "type": "uint256"
        },
        {
          "name": "downSideProtectionRatio",
          "type": "uint256"
        },
        {
          "name": "fundWalletRatio",
          "type": "uint256"
        }
      ],
      "name": "calcuateAuctionFundDistrubution",
      "outputs": [
        {
          "name": "",
          "type": "uint256"
        },
        {
          "name": "",
          "type": "uint256"
        },
        {
          "name": "",
          "type": "uint256"
        }
      ],
      "payable": false,
      "stateMutability": "pure",
      "type": "function"
    },
    {
      "constant": true,
      "inputs": [],
      "name": "calculateVirtualReserve",
      "outputs": [
        {
          "name": "",
          "type": "uint256"
        }
      ],
      "payable": false,
      "stateMutability": "pure",
      "type": "function"
    },
    {
      "constant": true,
      "inputs": [
        {
          "name": "_reserveBaseTokenBalance",
          "type": "uint256"
        },
        {
          "name": "_reserveBaseTokenRatio",
          "type": "uint256"
        },
        {
          "name": "_reserveMainTokenPrice",
          "type": "uint256"
        },
        {
          "name": "_reserveMainTokenRatio",
          "type": "uint256"
        },
        {
          "name": "_baseTokenPrice",
          "type": "uint256"
        }
      ],
      "name": "calculateApprectiation",
      "outputs": [
        {
          "name": "",
          "type": "uint256"
        }
      ],
      "payable": false,
      "stateMutability": "pure",
      "type": "function"
    },
    {
      "constant": true,
      "inputs": [
        {
          "name": "_reserveBaseTokenBalance",
          "type": "uint256"
        },
        {
          "name": "_reserveBaseTokenRatio",
          "type": "uint256"
        },
        {
          "name": "_reserveMainTokenBalance",
          "type": "uint256"
        },
        {
          "name": "_reserveMainTokenRatio",
          "type": "uint256"
        },
        {
          "name": "_baseTokenPrice",
          "type": "uint256"
        }
      ],
      "name": "calculateTokenPrice",
      "outputs": [
        {
          "name": "",
          "type": "uint256"
        }
      ],
      "payable": false,
      "stateMutability": "pure",
      "type": "function"
    },
    {
      "constant": true,
      "inputs": [
        {
          "name": "todayContribution",
          "type": "uint256"
        },
        {
          "name": "tokenPrice",
          "type": "uint256"
        },
        {
          "name": "decimal",
          "type": "uint256"
        }
      ],
      "name": "calculateNewSupply",
      "outputs": [
        {
          "name": "",
          "type": "uint256"
        }
      ],
      "payable": false,
      "stateMutability": "pure",
      "type": "function"
    },
    {
      "constant": true,
      "inputs": [
        {
          "name": "_supply",
          "type": "uint256"
        },
        {
          "name": "_percent",
          "type": "uint256"
        }
      ],
      "name": "calculateMangmentFee",
      "outputs": [
        {
          "name": "",
          "type": "uint256"
        }
      ],
      "payable": false,
      "stateMutability": "pure",
      "type": "function"
    }
  ],
  "bytecode": "0x60806040526000805461ffff1916600117905534801561001e57600080fd5b506103f88061002e6000396000f3fe608060405234801561001057600080fd5b50600436106100885760003560e01c8063640fc3051161005b578063640fc3051461011c578063675a0eb414610163578063aeaffdb514610186578063dda36951146101d457610088565b806322c687471461008d57806342d85379146100c857806354fd4d50146100fd5780635d449162146100c8575b600080fd5b6100b6600480360360608110156100a357600080fd5b50803590602081013590604001356101dc565b60408051918252519081900360200190f35b6100b6600480360360a08110156100de57600080fd5b5080359060208101359060408101359060608101359060800135610203565b610105610257565b6040805161ffff9092168252519081900360200190f35b6101456004803603606081101561013257600080fd5b5080359060208101359060400135610261565b60408051938452602084019290925282820152519081900360600190f35b6100b66004803603604081101561017957600080fd5b50803590602001356102b7565b6101bb600480360360a081101561019c57600080fd5b50803590602081013590604081013590606081013590608001356102ec565b6040805192835260208301919091528051918290030190f35b6100b6610358565b60006101fb6101f5856101f0600a8661035d565b610362565b8461038d565b949350505050565b6000806102316102226102168987610362565b6101f0600a600661035d565b61022c8789610362565b61038d565b905061024c6102408285610362565b61022c600a600661035d565b979650505050505050565b60005461ffff1681565b60008060008061027b6102748888610362565b606461038d565b9050600061028988836103a2565b9050600061029a6102748389610362565b90506102a682826103a2565b929990985091965090945050505050565b6000806102d36102c8856064610362565b61022c6064866103a2565b905060006102e182866103a2565b925050505b92915050565b60008060006103046102fe888a610362565b8661038d565b9050600086156103245761032161031b888b610362565b8761038d565b90505b600061033083836103b4565b90506000610346610274856101f060648b6103a2565b919b919a509098505050505050505050565b600090565b900a90565b600082610371575060006102e6565b8282028284828161037e57fe5b041461038657fe5b9392505050565b60008082848161039957fe5b04949350505050565b6000828211156103ae57fe5b50900390565b60008282018381101561038657fefea265627a7a723058202b1d7282accd54baaa0edbea07f97188f91c6cc8108fece42fe81405770623fd64736f6c63430005090032",
  "source": "pragma solidity 0.5.9;\n\nimport \"../common/SafeMath.sol\";\n\n\ncontract AuctionFormula is SafeMath {\n    \n    \n    uint16 public version = 1;\n    \n    \n    function calcuateAuctionTokenDistrubution(\n        uint256 dayWiseContributionByWallet,\n        uint256 dayWiseSupplyCore,\n        uint256 dayWiseSupplyBonus,\n        uint256 dayWiseContribution,\n        uint256 downSideProtectionRatio)  \n        external\n        pure\n        returns (uint256, uint256)\n    {\n        \n        uint256 _dayWiseSupplyCore = safeDiv(safeMul(dayWiseSupplyCore,dayWiseContributionByWallet),dayWiseContribution);\n        \n        uint256 _dayWiseSupplyBonus = 0;\n        \n        if(dayWiseSupplyBonus > 0 )\n            _dayWiseSupplyBonus = safeDiv(safeMul(dayWiseSupplyBonus,dayWiseContributionByWallet),dayWiseContribution);\n        \n        uint256 _returnAmount = safeAdd(_dayWiseSupplyCore,_dayWiseSupplyBonus);\n        \n        // user get only 100 - downSideProtectionRatio(90) fund only other fund is locked \n        uint256 _userAmount = safeDiv(safeMul(_dayWiseSupplyCore,safeSub(100,downSideProtectionRatio)),100);\n        \n        return(_returnAmount,_userAmount);\n    }\n    \n    function calcuateAuctionFundDistrubution(uint256 _value,uint256 downSideProtectionRatio,uint256 fundWalletRatio)\n        external\n        pure\n        returns (uint256, uint256, uint256)\n    {\n        uint256 _downsideAmount = safeDiv(\n            safeMul(_value, downSideProtectionRatio),\n            100\n        );\n        uint256 newvalue = safeSub(_value, _downsideAmount);\n        \n        uint256 _fundwallet = safeDiv(safeMul(newvalue, fundWalletRatio), 100);\n        \n        newvalue = safeSub(newvalue, _fundwallet);\n        \n        return (_downsideAmount, _fundwallet, newvalue);\n\n    }\n    \n    \n    function calculateVirtualReserve() external pure returns (uint256) {\n        \n        \n    }\n    \n    \n    \n    \n    function calculateApprectiation(\n        uint256 _reserveBaseTokenBalance,\n        uint256 _reserveBaseTokenRatio,\n        uint256 _reserveMainTokenPrice,\n        uint256 _reserveMainTokenRatio,\n        uint256 _baseTokenPrice\n    ) external pure returns (uint256) {\n        \n        uint256 ratio = safeDiv(\n            safeMul(\n                safeMul(_reserveBaseTokenBalance, _reserveMainTokenRatio),\n                safeExponent(10, 6)\n            ),\n            safeMul(_reserveMainTokenPrice, _reserveBaseTokenRatio)\n        );\n        \n        return safeDiv(safeMul(ratio, _baseTokenPrice), safeExponent(10, 6));\n    }\n\n    function calculateTokenPrice(\n        uint256 _reserveBaseTokenBalance,\n        uint256 _reserveBaseTokenRatio,\n        uint256 _reserveMainTokenBalance,\n        uint256 _reserveMainTokenRatio,\n        uint256 _baseTokenPrice\n    ) external pure returns (uint256) {\n        \n        uint256 ratio = safeDiv(\n            safeMul(\n                safeMul(_reserveBaseTokenBalance, _reserveMainTokenRatio),\n                safeExponent(10, 6)\n            ),\n            safeMul(_reserveMainTokenBalance, _reserveBaseTokenRatio)\n        );\n        \n        return safeDiv(safeMul(ratio, _baseTokenPrice), safeExponent(10, 6));\n    }\n\n    function calculateNewSupply(\n        uint256 todayContribution,\n        uint256 tokenPrice,\n        uint256 decimal\n    ) external pure returns (uint256) {\n        return\n            safeDiv(\n                safeMul(todayContribution, safeExponent(10, decimal)),\n                tokenPrice\n            );\n    }\n\n    function calculateMangmentFee(uint256 _supply, uint256 _percent)\n        external\n        pure\n        returns (uint256)\n    {\n        uint256 _tempSupply = safeDiv(\n            safeMul(_supply, 100),\n            safeSub(100, _percent)\n        );\n        uint256 _managmantFee = safeSub(_tempSupply, _supply);\n        return _managmantFee;\n    }\n}\n",
  "sourcePath": "/home/mind/Work/Projects/Jointer/Jointer_auction/NewContracts/contracts/auctionContracts/AuctionFormula.sol",
  "compiler": {
    "name": "solc",
    "version": "0.5.9+commit.e560f70d.Emscripten.clang"
  },
  "schemaVersion": "3.0.16",
  "updatedAt": "2020-05-04T15:22:10.886Z",
  "devdoc": {
    "methods": {}
  },
  "userdoc": {
    "methods": {}
  }
}