{
  "contractName": "AuctionFormula",
  "abi": [
    {
      "constant": true,
      "inputs": [],
      "name": "version",
      "outputs": [
        {
          "name": "",
          "type": "uint16"
        }
      ],
      "payable": false,
      "stateMutability": "view",
      "type": "function"
    },
    {
      "constant": true,
      "inputs": [
        {
          "name": "dayWiseContributionByWallet",
          "type": "uint256"
        },
        {
          "name": "dayWiseSupplyCore",
          "type": "uint256"
        },
        {
          "name": "dayWiseSupplyBonus",
          "type": "uint256"
        },
        {
          "name": "dayWiseContribution",
          "type": "uint256"
        },
        {
          "name": "downSideProtectionRatio",
          "type": "uint256"
        }
      ],
      "name": "calcuateAuctionTokenDistrubution",
      "outputs": [
        {
          "name": "",
          "type": "uint256"
        },
        {
          "name": "",
          "type": "uint256"
        }
      ],
      "payable": false,
      "stateMutability": "pure",
      "type": "function"
    },
    {
      "constant": true,
      "inputs": [
        {
          "name": "_value",
          "type": "uint256"
        },
        {
          "name": "downSideProtectionRatio",
          "type": "uint256"
        },
        {
          "name": "fundWalletRatio",
          "type": "uint256"
        }
      ],
      "name": "calcuateAuctionFundDistrubution",
      "outputs": [
        {
          "name": "",
          "type": "uint256"
        },
        {
          "name": "",
          "type": "uint256"
        },
        {
          "name": "",
          "type": "uint256"
        }
      ],
      "payable": false,
      "stateMutability": "pure",
      "type": "function"
    },
    {
      "constant": true,
      "inputs": [
        {
          "name": "_reserveBaseTokenBalance",
          "type": "uint256"
        },
        {
          "name": "_reserveBaseTokenRatio",
          "type": "uint256"
        },
        {
          "name": "_reserveMainTokenPrice",
          "type": "uint256"
        },
        {
          "name": "_reserveMainTokenRatio",
          "type": "uint256"
        },
        {
          "name": "_baseTokenPrice",
          "type": "uint256"
        }
      ],
      "name": "calculateApprectiation",
      "outputs": [
        {
          "name": "",
          "type": "uint256"
        }
      ],
      "payable": false,
      "stateMutability": "pure",
      "type": "function"
    },
    {
      "constant": true,
      "inputs": [
        {
          "name": "_reserveBaseTokenBalance",
          "type": "uint256"
        },
        {
          "name": "_reserveBaseTokenRatio",
          "type": "uint256"
        },
        {
          "name": "_reserveMainTokenBalance",
          "type": "uint256"
        },
        {
          "name": "_reserveMainTokenRatio",
          "type": "uint256"
        },
        {
          "name": "_baseTokenPrice",
          "type": "uint256"
        }
      ],
      "name": "calculateTokenPrice",
      "outputs": [
        {
          "name": "",
          "type": "uint256"
        }
      ],
      "payable": false,
      "stateMutability": "pure",
      "type": "function"
    },
    {
      "constant": true,
      "inputs": [
        {
          "name": "todayContribution",
          "type": "uint256"
        },
        {
          "name": "tokenPrice",
          "type": "uint256"
        },
        {
          "name": "decimal",
          "type": "uint256"
        }
      ],
      "name": "calculateNewSupply",
      "outputs": [
        {
          "name": "",
          "type": "uint256"
        }
      ],
      "payable": false,
      "stateMutability": "pure",
      "type": "function"
    },
    {
      "constant": true,
      "inputs": [
        {
          "name": "_supply",
          "type": "uint256"
        },
        {
          "name": "_percent",
          "type": "uint256"
        }
      ],
      "name": "calculateMangmentFee",
      "outputs": [
        {
          "name": "",
          "type": "uint256"
        }
      ],
      "payable": false,
      "stateMutability": "pure",
      "type": "function"
    },
    {
      "constant": true,
      "inputs": [
        {
          "name": "yesterdayPrice",
          "type": "uint256"
        },
        {
          "name": "dayBeforyesterdayPrice",
          "type": "uint256"
        },
        {
          "name": "yesterDaycontibution",
          "type": "uint256"
        },
        {
          "name": "reserveSupplyBaseToken",
          "type": "uint256"
        },
        {
          "name": "_baseTokenPrice",
          "type": "uint256"
        }
      ],
      "name": "calculateLiquadityReduction",
      "outputs": [
        {
          "name": "",
          "type": "uint256"
        }
      ],
      "payable": false,
      "stateMutability": "pure",
      "type": "function"
    }
  ],
  "bytecode": "0x60806040526000805461ffff1916600117905534801561001e57600080fd5b506104698061002e6000396000f3fe608060405234801561001057600080fd5b50600436106100885760003560e01c8063640fc3051161005b578063640fc3051461011c578063675a0eb414610163578063aeaffdb514610186578063b4c49d67146101d457610088565b806322c687471461008d57806342d85379146100c857806354fd4d50146100fd5780635d449162146100c8575b600080fd5b6100b6600480360360608110156100a357600080fd5b5080359060208101359060400135610209565b60408051918252519081900360200190f35b6100b6600480360360a08110156100de57600080fd5b5080359060208101359060408101359060608101359060800135610230565b610105610284565b6040805161ffff9092168252519081900360200190f35b6101456004803603606081101561013257600080fd5b508035906020810135906040013561028e565b60408051938452602084019290925282820152519081900360600190f35b6100b66004803603604081101561017957600080fd5b50803590602001356102e4565b6101bb600480360360a081101561019c57600080fd5b5080359060208101359060408101359060608101359060800135610319565b6040805192835260208301919091528051918290030190f35b6100b6600480360360a08110156101ea57600080fd5b5080359060208101359060408101359060608101359060800135610385565b60006102286102228561021d600a866103ce565b6103d3565b846103fe565b949350505050565b60008061025e61024f61024389876103d3565b61021d600a60066103ce565b61025987896103d3565b6103fe565b905061027961026d82856103d3565b610259600a60066103ce565b979650505050505050565b60005461ffff1681565b6000806000806102a86102a188886103d3565b60646103fe565b905060006102b68883610413565b905060006102c76102a183896103d3565b90506102d38282610413565b929990985091965090945050505050565b6000806103006102f58560646103d3565b610259606486610413565b9050600061030e8286610413565b925050505b92915050565b600080600061033161032b888a6103d3565b866103fe565b9050600086156103515761034e610348888b6103d3565b876103fe565b90505b600061035d8383610425565b905060006103736102a18561021d60648b610413565b919b919a509098505050505050505050565b6000806103a561039b8661021d600a60066103ce565b61025985876103d3565b905060006103b388886103fe565b90506103c261026d83836103d3565b98975050505050505050565b900a90565b6000826103e257506000610313565b828202828482816103ef57fe5b04146103f757fe5b9392505050565b60008082848161040a57fe5b04949350505050565b60008282111561041f57fe5b50900390565b6000828201838110156103f757fefea265627a7a72305820bd4f4cb7e968e9a7a03571da7d4ba118c0d95a19afa27081a7441fa2e3213e0264736f6c63430005090032",
  "source": "pragma solidity ^0.5.9;\n\nimport \"../common/SafeMath.sol\";\n\n\ncontract AuctionFormula is SafeMath {\n    uint16 public version = 1;\n\n    function calcuateAuctionTokenDistrubution(\n        uint256 dayWiseContributionByWallet,\n        uint256 dayWiseSupplyCore,\n        uint256 dayWiseSupplyBonus,\n        uint256 dayWiseContribution,\n        uint256 downSideProtectionRatio\n    ) external pure returns (uint256, uint256) {\n        uint256 _dayWiseSupplyCore = safeDiv(\n            safeMul(dayWiseSupplyCore, dayWiseContributionByWallet),\n            dayWiseContribution\n        );\n\n        uint256 _dayWiseSupplyBonus = 0;\n\n        if (dayWiseSupplyBonus > 0)\n            _dayWiseSupplyBonus = safeDiv(\n                safeMul(dayWiseSupplyBonus, dayWiseContributionByWallet),\n                dayWiseContribution\n            );\n\n        uint256 _returnAmount = safeAdd(\n            _dayWiseSupplyCore,\n            _dayWiseSupplyBonus\n        );\n\n        // user get only 100 - downSideProtectionRatio(90) fund only other fund is locked\n        uint256 _userAmount = safeDiv(\n            safeMul(_dayWiseSupplyCore, safeSub(100, downSideProtectionRatio)),\n            100\n        );\n\n        return (_returnAmount, _userAmount);\n    }\n\n    function calcuateAuctionFundDistrubution(\n        uint256 _value,\n        uint256 downSideProtectionRatio,\n        uint256 fundWalletRatio\n    ) external pure returns (uint256, uint256, uint256) {\n        uint256 _downsideAmount = safeDiv(\n            safeMul(_value, downSideProtectionRatio),\n            100\n        );\n        uint256 newvalue = safeSub(_value, _downsideAmount);\n\n        uint256 _fundwallet = safeDiv(safeMul(newvalue, fundWalletRatio), 100);\n\n        newvalue = safeSub(newvalue, _fundwallet);\n\n        return (_downsideAmount, _fundwallet, newvalue);\n    }\n\n    function calculateApprectiation(\n        uint256 _reserveBaseTokenBalance,\n        uint256 _reserveBaseTokenRatio,\n        uint256 _reserveMainTokenPrice,\n        uint256 _reserveMainTokenRatio,\n        uint256 _baseTokenPrice\n    ) external pure returns (uint256) {\n        uint256 ratio = safeDiv(\n            safeMul(\n                safeMul(_reserveBaseTokenBalance, _reserveMainTokenRatio),\n                safeExponent(10, 6)\n            ),\n            safeMul(_reserveMainTokenPrice, _reserveBaseTokenRatio)\n        );\n\n        return safeDiv(safeMul(ratio, _baseTokenPrice), safeExponent(10, 6));\n    }\n\n    function calculateTokenPrice(\n        uint256 _reserveBaseTokenBalance,\n        uint256 _reserveBaseTokenRatio,\n        uint256 _reserveMainTokenBalance,\n        uint256 _reserveMainTokenRatio,\n        uint256 _baseTokenPrice\n    ) external pure returns (uint256) {\n        uint256 ratio = safeDiv(\n            safeMul(\n                safeMul(_reserveBaseTokenBalance, _reserveMainTokenRatio),\n                safeExponent(10, 6)\n            ),\n            safeMul(_reserveMainTokenBalance, _reserveBaseTokenRatio)\n        );\n\n        return safeDiv(safeMul(ratio, _baseTokenPrice), safeExponent(10, 6));\n    }\n\n    function calculateNewSupply(\n        uint256 todayContribution,\n        uint256 tokenPrice,\n        uint256 decimal\n    ) external pure returns (uint256) {\n        return\n            safeDiv(\n                safeMul(todayContribution, safeExponent(10, decimal)),\n                tokenPrice\n            );\n    }\n\n    function calculateMangmentFee(uint256 _supply, uint256 _percent)\n        external\n        pure\n        returns (uint256)\n    {\n        uint256 _tempSupply = safeDiv(\n            safeMul(_supply, 100),\n            safeSub(100, _percent)\n        );\n        uint256 _managmantFee = safeSub(_tempSupply, _supply);\n        return _managmantFee;\n    }\n\n    function calculateLiquadityReduction(\n        uint256 yesterdayPrice,\n        uint256 dayBeforyesterdayPrice,\n        uint256 yesterDaycontibution,\n        uint256 reserveSupplyBaseToken,\n        uint256 _baseTokenPrice\n    ) external pure returns (uint256) {\n        uint256 _tempContrbution = safeDiv(\n            safeMul(yesterDaycontibution, safeExponent(10, 6)),\n            safeMul(_baseTokenPrice, reserveSupplyBaseToken)\n        );\n        uint256 _tempSupply = safeDiv(yesterdayPrice, dayBeforyesterdayPrice);\n\n        return\n            safeDiv(\n                safeMul(_tempContrbution, _tempSupply),\n                safeExponent(10, 6)\n            );\n    }\n}\n",
  "sourcePath": "/home/mind/Work/Projects/Jointer/Jointer_auction/NewContracts/contracts/auctionContracts/AuctionFormula.sol",
  "compiler": {
    "name": "solc",
    "version": "0.5.9+commit.e560f70d.Emscripten.clang"
  },
  "schemaVersion": "3.0.16",
  "updatedAt": "2020-05-13T15:06:47.784Z",
  "devdoc": {
    "methods": {}
  },
  "userdoc": {
    "methods": {}
  }
}