{
  "contractName": "AuctionRegistery",
  "abi": [
    {
      "constant": false,
      "inputs": [
        {
          "name": "_which",
          "type": "address"
        }
      ],
      "name": "changeSystemAddress",
      "outputs": [
        {
          "name": "",
          "type": "bool"
        }
      ],
      "payable": false,
      "stateMutability": "nonpayable",
      "type": "function"
    },
    {
      "constant": true,
      "inputs": [],
      "name": "newAuthorityAddress",
      "outputs": [
        {
          "name": "",
          "type": "address"
        }
      ],
      "payable": false,
      "stateMutability": "view",
      "type": "function"
    },
    {
      "constant": false,
      "inputs": [],
      "name": "acceptAuthorityAddress",
      "outputs": [
        {
          "name": "",
          "type": "bool"
        }
      ],
      "payable": false,
      "stateMutability": "nonpayable",
      "type": "function"
    },
    {
      "constant": true,
      "inputs": [],
      "name": "authorityAddress",
      "outputs": [
        {
          "name": "",
          "type": "address"
        }
      ],
      "payable": false,
      "stateMutability": "view",
      "type": "function"
    },
    {
      "constant": true,
      "inputs": [
        {
          "name": "",
          "type": "uint256"
        }
      ],
      "name": "contracts",
      "outputs": [
        {
          "name": "",
          "type": "string"
        }
      ],
      "payable": false,
      "stateMutability": "view",
      "type": "function"
    },
    {
      "constant": true,
      "inputs": [],
      "name": "primaryOwner",
      "outputs": [
        {
          "name": "",
          "type": "address"
        }
      ],
      "payable": false,
      "stateMutability": "view",
      "type": "function"
    },
    {
      "constant": false,
      "inputs": [
        {
          "name": "_which",
          "type": "address"
        }
      ],
      "name": "changeAuthorityAddress",
      "outputs": [
        {
          "name": "",
          "type": "bool"
        }
      ],
      "payable": false,
      "stateMutability": "nonpayable",
      "type": "function"
    },
    {
      "constant": false,
      "inputs": [
        {
          "name": "_which",
          "type": "address"
        }
      ],
      "name": "changePrimaryOwner",
      "outputs": [
        {
          "name": "",
          "type": "bool"
        }
      ],
      "payable": false,
      "stateMutability": "nonpayable",
      "type": "function"
    },
    {
      "constant": true,
      "inputs": [],
      "name": "systemAddress",
      "outputs": [
        {
          "name": "",
          "type": "address"
        }
      ],
      "payable": false,
      "stateMutability": "view",
      "type": "function"
    },
    {
      "constant": true,
      "inputs": [
        {
          "name": "",
          "type": "bytes32"
        }
      ],
      "name": "contractIndex",
      "outputs": [
        {
          "name": "",
          "type": "uint256"
        }
      ],
      "payable": false,
      "stateMutability": "view",
      "type": "function"
    },
    {
      "inputs": [
        {
          "name": "_systemAddess",
          "type": "address"
        },
        {
          "name": "_multisig",
          "type": "address"
        }
      ],
      "payable": false,
      "stateMutability": "nonpayable",
      "type": "constructor"
    },
    {
      "anonymous": false,
      "inputs": [
        {
          "indexed": true,
          "name": "_contractName",
          "type": "bytes32"
        },
        {
          "indexed": false,
          "name": "_contractAddressFrom",
          "type": "address"
        },
        {
          "indexed": false,
          "name": "_contractAddressTo",
          "type": "address"
        }
      ],
      "name": "ContractAddressUpdated",
      "type": "event"
    },
    {
      "anonymous": false,
      "inputs": [
        {
          "indexed": false,
          "name": "ownerType",
          "type": "string"
        },
        {
          "indexed": true,
          "name": "previousOwner",
          "type": "address"
        },
        {
          "indexed": true,
          "name": "newOwner",
          "type": "address"
        }
      ],
      "name": "OwnershipTransferred",
      "type": "event"
    },
    {
      "anonymous": false,
      "inputs": [
        {
          "indexed": true,
          "name": "previousOwner",
          "type": "address"
        },
        {
          "indexed": true,
          "name": "newOwner",
          "type": "address"
        }
      ],
      "name": "AuthorityAddressChnageCall",
      "type": "event"
    },
    {
      "constant": true,
      "inputs": [],
      "name": "contractsCount",
      "outputs": [
        {
          "name": "",
          "type": "uint256"
        }
      ],
      "payable": false,
      "stateMutability": "view",
      "type": "function"
    },
    {
      "constant": true,
      "inputs": [
        {
          "name": "_contractName",
          "type": "bytes32"
        }
      ],
      "name": "getAddressOf",
      "outputs": [
        {
          "name": "",
          "type": "address"
        }
      ],
      "payable": false,
      "stateMutability": "view",
      "type": "function"
    },
    {
      "constant": false,
      "inputs": [
        {
          "name": "_contractName",
          "type": "bytes32"
        },
        {
          "name": "_contractAddress",
          "type": "address"
        }
      ],
      "name": "registerContractAddress",
      "outputs": [
        {
          "name": "",
          "type": "bool"
        }
      ],
      "payable": false,
      "stateMutability": "nonpayable",
      "type": "function"
    },
    {
      "constant": false,
      "inputs": [
        {
          "name": "_contractName",
          "type": "bytes32"
        },
        {
          "name": "_contractAddress",
          "type": "address"
        }
      ],
      "name": "updateContractAddress",
      "outputs": [
        {
          "name": "",
          "type": "bool"
        }
      ],
      "payable": false,
      "stateMutability": "nonpayable",
      "type": "function"
    },
    {
      "constant": false,
      "inputs": [
        {
          "name": "_contractName",
          "type": "bytes32"
        }
      ],
      "name": "removeContractAddress",
      "outputs": [
        {
          "name": "",
          "type": "bool"
        }
      ],
      "payable": false,
      "stateMutability": "nonpayable",
      "type": "function"
    },
    {
      "constant": true,
      "inputs": [
        {
          "name": "_bytes",
          "type": "bytes32"
        }
      ],
      "name": "bytes32ToString",
      "outputs": [
        {
          "name": "",
          "type": "string"
        }
      ],
      "payable": false,
      "stateMutability": "pure",
      "type": "function"
    },
    {
      "constant": true,
      "inputs": [
        {
          "name": "_string",
          "type": "string"
        }
      ],
      "name": "stringToBytes32",
      "outputs": [
        {
          "name": "",
          "type": "bytes32"
        }
      ],
      "payable": false,
      "stateMutability": "pure",
      "type": "function"
    }
  ],
  "bytecode": "0x6080604052600080546001600160a01b0319908116909155600180548216905560028054821690556003805490911690553480156200003d57600080fd5b5060405162001a7b38038062001a7b833981810160405260408110156200006357600080fd5b50805160209182015160408051808201909152601081527f4552525f5a45524f5f41444452455353000000000000000000000000000000009381019390935290918290829082906001600160a01b0382166200015a576040517f08c379a00000000000000000000000000000000000000000000000000000000081526004018080602001828103825283818151815260200191508051906020019080838360005b838110156200011e57818101518382015260200162000104565b50505050905090810190601f1680156200014c5780820380516001836020036101000a031916815260200191505b509250505060405180910390fd5b5060408051808201909152601081527f4552525f53414d455f41444452455353000000000000000000000000000000006020820152336001600160a01b038516141562000204576040517f08c379a00000000000000000000000000000000000000000000000000000000081526020600482018181528351602484015283519092839260449091019190850190808383600083156200011e57818101518382015260200162000104565b50816001600160a01b0316836001600160a01b031614156040518060400160405280601081526020017f4552525f53414d455f414444524553530000000000000000000000000000000081525090620002ba576040517f08c379a00000000000000000000000000000000000000000000000000000000081526020600482018181528351602484015283519092839260449091019190850190808383600083156200011e57818101518382015260200162000104565b5060408051808201909152601081527f4552525f53414d455f41444452455353000000000000000000000000000000006020820152336001600160a01b038416141562000364576040517f08c379a00000000000000000000000000000000000000000000000000000000081526020600482018181528351602484015283519092839260449091019190850190808383600083156200011e57818101518382015260200162000104565b5050600080546001600160a01b03199081163317909155600280546001600160a01b039485169083161790556001805492909316911617905550506116cc80620003af6000396000f3fe608060405234801561001057600080fd5b506004361061010b5760003560e01c80639d9c9647116100a2578063cfb5192811610071578063cfb51928146102e4578063d3e848f11461038a578063e50ab75914610392578063e5920d06146103af578063fa86cf56146103db5761010b565b80639d9c96471461025b578063a15050a014610278578063c4d34268146102a4578063c4fecdb6146102ca5761010b565b8063474da79a116100de578063474da79a1461017e5780638e10be33146102105780638f51368b146102185780639201de551461023e5761010b565b806304d63089146101105780630abaad7a1461014a57806320c462fe1461016e5780633c695d4e14610176575b600080fd5b6101366004803603602081101561012657600080fd5b50356001600160a01b03166103f8565b604080519115158252519081900360200190f35b610152610709565b604080516001600160a01b039092168252519081900360200190f35b610136610718565b61015261082e565b61019b6004803603602081101561019457600080fd5b503561083d565b6040805160208082528351818301528351919283929083019185019080838360005b838110156101d55781810151838201526020016101bd565b50505050905090810190601f1680156102025780820380516001836020036101000a031916815260200191505b509250505060405180910390f35b6101526108e3565b6101366004803603602081101561022e57600080fd5b50356001600160a01b03166108f2565b61019b6004803603602081101561025457600080fd5b5035610ad3565b6101366004803603602081101561027157600080fd5b5035610b45565b6101366004803603604081101561028e57600080fd5b50803590602001356001600160a01b0316610e36565b610136600480360360208110156102ba57600080fd5b50356001600160a01b0316611079565b6102d26112bc565b60408051918252519081900360200190f35b6102d2600480360360208110156102fa57600080fd5b81019060208101813564010000000081111561031557600080fd5b82018360208201111561032757600080fd5b8035906020019184600183028401116401000000008311171561034957600080fd5b91908080601f0160208091040260200160405190810160405280939291908181526020018383808284376000920191909152509295506112c2945050505050565b6101526112c9565b6102d2600480360360208110156103a857600080fd5b50356112d8565b610136600480360360408110156103c557600080fd5b50803590602001356001600160a01b03166112ea565b610152600480360360208110156103f157600080fd5b503561156b565b60015460408051808201909152601b815260008051602061167883398151915260208201526000916001600160a01b031633146104b35760405162461bcd60e51b81526004018080602001828103825283818151815260200191508051906020019080838360005b83811015610478578181015183820152602001610460565b50505050905090810190601f1680156104a55780820380516001836020036101000a031916815260200191505b509250505060405180910390fd5b5060408051808201909152601981527f4552525f434f4e54524143545f53454c465f4144445245535300000000000000602082015282906001600160a01b0382163014156105425760405162461bcd60e51b8152602060048201818152835160248401528351909283926044909101919085019080838360008315610478578181015183820152602001610460565b5060408051808201909152601081526f4552525f5a45524f5f4144445245535360801b602082015283906001600160a01b0382166105c15760405162461bcd60e51b8152602060048201818152835160248401528351909283926044909101919085019080838360008315610478578181015183820152602001610460565b506002546001600160a01b038581169116148015906105ee57506001546001600160a01b03858116911614155b801561060857506000546001600160a01b03858116911614155b6040518060400160405280601081526020016f4552525f53414d455f4144445245535360801b8152509061067d5760405162461bcd60e51b8152602060048201818152835160248401528351909283926044909101919085019080838360008315610478578181015183820152602001610460565b50600254604080516020808252600e908201526d53595354454d5f4144445245535360901b8183015290516001600160a01b038088169316917f6840904f5b31827f74e1497360da245f56e530c8c3de3163a2d31f11493273c6919081900360600190a3600280546001600160a01b0386166001600160a01b0319909116179055600192505050919050565b6003546001600160a01b031681565b60035460408051808201909152601b815260008051602061167883398151915260208201526000916001600160a01b031633146107965760405162461bcd60e51b8152602060048201818152835160248401528351909283926044909101919085019080838360008315610478578181015183820152602001610460565b5060035460015460408051602080825260119082015270415554484f524954595f4144445245535360781b8183015290516001600160a01b039384169392909216917f6840904f5b31827f74e1497360da245f56e530c8c3de3163a2d31f11493273c69181900360600190a35060038054600180546001600160a01b03199081166001600160a01b0384161782559091169091555b90565b6001546001600160a01b031681565b6006818154811061084a57fe5b600091825260209182902001805460408051601f60026000196101006001871615020190941693909304928301859004850281018501909152818152935090918301828280156108db5780601f106108b0576101008083540402835291602001916108db565b820191906000526020600020905b8154815290600101906020018083116108be57829003601f168201915b505050505081565b6000546001600160a01b031681565b60015460408051808201909152601b815260008051602061167883398151915260208201526000916001600160a01b031633146109705760405162461bcd60e51b8152602060048201818152835160248401528351909283926044909101919085019080838360008315610478578181015183820152602001610460565b5060408051808201909152601081526f4552525f5a45524f5f4144445245535360801b602082015282906001600160a01b0382166109ef5760405162461bcd60e51b8152602060048201818152835160248401528351909283926044909101919085019080838360008315610478578181015183820152602001610460565b506002546001600160a01b03848116911614801590610a1c57506001546001600160a01b03848116911614155b8015610a3657506000546001600160a01b03848116911614155b6040518060400160405280601081526020016f4552525f53414d455f4144445245535360801b81525090610aab5760405162461bcd60e51b8152602060048201818152835160248401528351909283926044909101919085019080838360008315610478578181015183820152602001610460565b50600380546001600160a01b0385166001600160a01b03199091161790556001915050919050565b60408051602080825281830190925260609182919060208201818038833901905050905060005b6020811015610b3e57838160208110610b0f57fe5b1a60f81b828281518110610b1f57fe5b60200101906001600160f81b031916908160001a905350600101610afa565b5092915050565b60015460408051808201909152601b815260008051602061167883398151915260208201526000916001600160a01b03163314610bc35760405162461bcd60e51b8152602060048201818152835160248401528351909283926044909101919085019080838360008315610478578181015183820152602001610460565b5060408051808201825260118152704552525f56414c55455f49535f5a45524f60781b602091820152600084815260048252829020548251808401909352601083526f4552525f5a45524f5f4144445245535360801b8383015290916001600160a01b039091169081610c775760405162461bcd60e51b8152602060048201818152835160248401528351909283926044909101919085019080838360008315610478578181015183820152602001610460565b506000848152600560205260409020546006805460609190610c9a906001611586565b81548110610ca457fe5b600091825260209182902001805460408051601f6002600019610100600187161502019094169390930492830185900485028101850190915281815292830182828015610d325780601f10610d0757610100808354040283529160200191610d32565b820191906000526020600020905b815481529060010190602001808311610d1557829003601f168201915b505050505090506000610d44826112c2565b90508160068481548110610d5457fe5b906000526020600020019080519060200190610d71929190611598565b506000818152600560209081526040808320869055898352600482528083205481516001600160a01b03909116815291820192909252815189927f56fe561436db89f175ad06483412f6487150a7eecc309b080de3334114153ee4928290030190a2600087815260046020908152604080832080546001600160a01b0319169055600590915281205560068054610e09906001611586565b81548110610e1357fe5b906000526020600020016000610e299190611616565b5060019695505050505050565b60015460408051808201909152601b815260008051602061167883398151915260208201526000916001600160a01b03163314610eb45760405162461bcd60e51b8152602060048201818152835160248401528351909283926044909101919085019080838360008315610478578181015183820152602001610460565b5060408051808201825260118152704552525f56414c55455f49535f5a45524f60781b6020918201528151808301909252601082526f4552525f5a45524f5f4144445245535360801b828201529083906001600160a01b038216610f595760405162461bcd60e51b8152602060048201818152835160248401528351909283926044909101919085019080838360008315610478578181015183820152602001610460565b50600085815260046020908152604091829020548251808401909352601083526f4552525f5a45524f5f4144445245535360801b918301919091526001600160a01b03169081610fea5760405162461bcd60e51b8152602060048201818152835160248401528351909283926044909101919085019080838360008315610478578181015183820152602001610460565b506000868152600460209081526040918290205482516001600160a01b03918216815290881691810191909152815188927f56fe561436db89f175ad06483412f6487150a7eecc309b080de3334114153ee4928290030190a2600086815260046020526040902080546001600160a01b0387166001600160a01b03199091161790556001935050505092915050565b60015460408051808201909152601b815260008051602061167883398151915260208201526000916001600160a01b031633146110f75760405162461bcd60e51b8152602060048201818152835160248401528351909283926044909101919085019080838360008315610478578181015183820152602001610460565b5060408051808201909152601081526f4552525f5a45524f5f4144445245535360801b602082015282906001600160a01b0382166111765760405162461bcd60e51b8152602060048201818152835160248401528351909283926044909101919085019080838360008315610478578181015183820152602001610460565b506002546001600160a01b038481169116148015906111a357506001546001600160a01b03848116911614155b80156111bd57506000546001600160a01b03848116911614155b6040518060400160405280601081526020016f4552525f53414d455f4144445245535360801b815250906112325760405162461bcd60e51b8152602060048201818152835160248401528351909283926044909101919085019080838360008315610478578181015183820152602001610460565b50600054604080516020808252600d908201526c282924a6a0a92cafa7aba722a960991b8183015290516001600160a01b038087169316917f6840904f5b31827f74e1497360da245f56e530c8c3de3163a2d31f11493273c6919081900360600190a3600080546001600160a01b0385166001600160a01b03199091161790556001915050919050565b60065490565b6020015190565b6002546001600160a01b031681565b60056020526000908152604090205481565b600080546001600160a01b031633148061130e57506002546001600160a01b031633145b6040518060400160405280601b81526020016000805160206116788339815191528152509061137e5760405162461bcd60e51b8152602060048201818152835160248401528351909283926044909101919085019080838360008315610478578181015183820152602001610460565b5060408051808201825260118152704552525f56414c55455f49535f5a45524f60781b6020918201528151808301909252601082526f4552525f5a45524f5f4144445245535360801b828201529083906001600160a01b0382166114235760405162461bcd60e51b8152602060048201818152835160248401528351909283926044909101919085019080838360008315610478578181015183820152602001610460565b50600085815260046020908152604091829020548251808401909352601083526f4552525f53414d455f4144445245535360801b918301919091526001600160a01b0316156114b35760405162461bcd60e51b8152602060048201818152835160248401528351909283926044909101919085019080838360008315610478578181015183820152602001610460565b50600085815260046020908152604080832080546001600160a01b0319166001600160a01b0389161790556006805460059093529220556114f386610ad3565b81546001810180845560009384526020938490208351919461151b9491909301920190611598565b505060408051600081526001600160a01b0386166020820152815187927f56fe561436db89f175ad06483412f6487150a7eecc309b080de3334114153ee4928290030190a2506001949350505050565b6000908152600460205260409020546001600160a01b031690565b60008282111561159257fe5b50900390565b828054600181600116156101000203166002900490600052602060002090601f016020900481019282601f106115d957805160ff1916838001178555611606565b82800160010185558215611606579182015b828111156116065782518255916020019190600101906115eb565b5061161292915061165d565b5090565b50805460018160011615610100020316600290046000825580601f1061163c575061165a565b601f01602090049060005260206000209081019061165a919061165d565b50565b61082b91905b80821115611612576000815560010161166356fe4552525f415554484f52495a45445f414444524553535f4f4e4c590000000000a265627a7a723058207a0792a6979c4fa8062d9e9f69ff3b996d28d759e8b2c1b322164b4d9d66484864736f6c63430005090032",
  "source": "pragma solidity ^0.5.9;\n\nimport \"../common/Ownable.sol\";\nimport \"../common/SafeMath.sol\";\n\ncontract AuctionRegistery is Ownable,SafeMath {\n    \n    \n    mapping(bytes32 => address) private contractAddress;\n\n    mapping(bytes32 => uint256) public contractIndex;\n\n    string[] public contracts;\n\n    event ContractAddressUpdated(\n        bytes32 indexed _contractName,\n        address _contractAddressFrom,\n        address _contractAddressTo\n    );\n\n    constructor(address _systemAddess, address _multisig)\n        public\n        Ownable(_systemAddess, _multisig)\n    {\n        \n    }\n\n    function contractsCount() external view returns (uint256) {\n        return contracts.length;\n    }\n\n    function getAddressOf(bytes32 _contractName) external view returns (address) {\n        return contractAddress[_contractName];\n    }\n    \n    \n    /**\n      * @dev add new contarct address to the registery \n      * @return bool\n    */\n    function registerContractAddress(bytes32 _contractName, address _contractAddress)\n        external\n        onlyOneOfOnwer()\n        notZeroValue(_contractName.length)\n        notZeroAddress(_contractAddress)\n        returns (bool)\n    {\n        require(contractAddress[_contractName] == address(0), ERR_SAME_ADDRESS);\n        \n        contractAddress[_contractName] = _contractAddress;\n        \n        contractIndex[_contractName] = contracts.length;\n        \n        contracts.push(bytes32ToString(_contractName));\n        \n        emit ContractAddressUpdated(_contractName,address(0),_contractAddress);\n        \n        return true;\n    }\n    \n    \n    \n   /**\n      * @dev update contarct address to the registery \n      * note that we dont need to update contractAddress index we just update contract addres only\n      * @return bool\n    */\n    function updateContractAddress(bytes32 _contractName, address _contractAddress) \n        external\n        onlyAuthorized()\n        notZeroValue(_contractName.length)\n        notZeroAddress(_contractAddress)\n        notZeroAddress(contractAddress[_contractName])\n        returns (bool)\n    {   \n        emit ContractAddressUpdated(_contractName,contractAddress[_contractName],_contractAddress);\n        contractAddress[_contractName] = _contractAddress;\n        return true;\n    }\n    \n    \n    /**\n      * @dev remove contarct address to the registery \n      * @return bool\n    */\n    function removeContractAddress(bytes32 _contractName)\n        external\n        onlyAuthorized()\n        notZeroValue(_contractName.length)\n        notZeroAddress(contractAddress[_contractName])\n        returns (bool)\n    {   \n        \n        uint256 _contractIndex = contractIndex[_contractName];\n        \n        string memory lastContract = contracts[safeSub(contracts.length,1)];\n        \n        bytes32 lastContractBytes = stringToBytes32(lastContract);\n        \n        contracts[ _contractIndex] = lastContract;\n        \n        contractIndex[lastContractBytes] = _contractIndex;\n        \n        emit ContractAddressUpdated(_contractName,contractAddress[_contractName],address(0));\n        \n        delete contractAddress[_contractName];\n        \n        delete contractIndex[_contractName];\n        \n        delete contracts[safeSub(contracts.length,1)];\n        \n        return true;\n    }\n    \n    \n    \n    \n     /**\n      * @dev utility, converts bytes32 to a string\n      * note that the bytes32 argument is assumed to be UTF8 encoded ASCII string\n      * \n      * @return string representation of the given bytes32 argument\n    */\n    function bytes32ToString(bytes32 _bytes) public pure returns (string memory) {\n        bytes memory byteArray = new bytes(32);\n        for (uint256 i; i < 32; i++) {\n            byteArray[i] = _bytes[i];\n        }\n\n        return string(byteArray);\n    }\n\n    /**\n      * @dev utility, converts string to bytes32\n      * note that the bytes32 argument is assumed to be UTF8 encoded ASCII string\n      * \n      * @return string representation of the given bytes32 argument\n    */\n    function stringToBytes32(string memory _string) public pure returns (bytes32) {\n        bytes32 result;\n        assembly {\n            result := mload(add(_string,32))\n        }\n        return result;\n    }\n}\n",
  "sourcePath": "/home/mind/Work/Projects/Jointer/Jointer_auction/NewContracts/contracts/auctionContracts/AuctionRegistery.sol",
  "compiler": {
    "name": "solc",
    "version": "0.5.9+commit.e560f70d.Emscripten.clang"
  },
  "schemaVersion": "3.0.16",
  "updatedAt": "2020-05-04T15:26:36.870Z",
  "devdoc": {
    "methods": {
      "bytes32ToString(bytes32)": {
        "details": "utility, converts bytes32 to a string note that the bytes32 argument is assumed to be UTF8 encoded ASCII string ",
        "return": "string representation of the given bytes32 argument"
      },
      "changeAuthorityAddress(address)": {
        "details": "change system address",
        "params": {
          "_which": "The address to which is new Authority address"
        }
      },
      "changePrimaryOwner(address)": {
        "details": "change primary ownership",
        "params": {
          "_which": "The address to which is new owner address"
        }
      },
      "changeSystemAddress(address)": {
        "details": "change system address",
        "params": {
          "_which": "The address to which is new system address"
        }
      },
      "registerContractAddress(bytes32,address)": {
        "details": "add new contarct address to the registery ",
        "return": "bool"
      },
      "removeContractAddress(bytes32)": {
        "details": "remove contarct address to the registery ",
        "return": "bool"
      },
      "stringToBytes32(string)": {
        "details": "utility, converts string to bytes32 note that the bytes32 argument is assumed to be UTF8 encoded ASCII string ",
        "return": "string representation of the given bytes32 argument"
      },
      "updateContractAddress(bytes32,address)": {
        "details": "update contarct address to the registery  note that we dont need to update contractAddress index we just update contract addres only",
        "return": "bool"
      }
    }
  },
  "userdoc": {
    "methods": {}
  }
}