{
  "contractName": "AuctionProtection",
  "abi": [
    {
      "constant": false,
      "inputs": [
        {
          "name": "_which",
          "type": "address"
        }
      ],
      "name": "changeSystemAddress",
      "outputs": [
        {
          "name": "",
          "type": "bool"
        }
      ],
      "payable": false,
      "stateMutability": "nonpayable",
      "type": "function"
    },
    {
      "constant": true,
      "inputs": [],
      "name": "newAuthorityAddress",
      "outputs": [
        {
          "name": "",
          "type": "address"
        }
      ],
      "payable": false,
      "stateMutability": "view",
      "type": "function"
    },
    {
      "constant": true,
      "inputs": [
        {
          "name": "",
          "type": "address"
        }
      ],
      "name": "lockedOn",
      "outputs": [
        {
          "name": "",
          "type": "uint256"
        }
      ],
      "payable": false,
      "stateMutability": "view",
      "type": "function"
    },
    {
      "constant": true,
      "inputs": [
        {
          "name": "",
          "type": "address"
        }
      ],
      "name": "unLockBlock",
      "outputs": [
        {
          "name": "",
          "type": "bool"
        }
      ],
      "payable": false,
      "stateMutability": "view",
      "type": "function"
    },
    {
      "constant": false,
      "inputs": [],
      "name": "acceptAuthorityAddress",
      "outputs": [
        {
          "name": "",
          "type": "bool"
        }
      ],
      "payable": false,
      "stateMutability": "nonpayable",
      "type": "function"
    },
    {
      "constant": false,
      "inputs": [
        {
          "name": "_tokenLockDuration",
          "type": "uint256"
        }
      ],
      "name": "setTokenLockDuration",
      "outputs": [
        {
          "name": "",
          "type": "bool"
        }
      ],
      "payable": false,
      "stateMutability": "nonpayable",
      "type": "function"
    },
    {
      "constant": true,
      "inputs": [],
      "name": "authorityAddress",
      "outputs": [
        {
          "name": "",
          "type": "address"
        }
      ],
      "payable": false,
      "stateMutability": "view",
      "type": "function"
    },
    {
      "constant": true,
      "inputs": [],
      "name": "isOwnerInitialize",
      "outputs": [
        {
          "name": "",
          "type": "bool"
        }
      ],
      "payable": false,
      "stateMutability": "view",
      "type": "function"
    },
    {
      "constant": true,
      "inputs": [
        {
          "name": "",
          "type": "address"
        }
      ],
      "name": "allowedAddress",
      "outputs": [
        {
          "name": "",
          "type": "bool"
        }
      ],
      "payable": false,
      "stateMutability": "view",
      "type": "function"
    },
    {
      "constant": true,
      "inputs": [
        {
          "name": "",
          "type": "address"
        },
        {
          "name": "",
          "type": "address"
        }
      ],
      "name": "lockedFunds",
      "outputs": [
        {
          "name": "",
          "type": "uint256"
        }
      ],
      "payable": false,
      "stateMutability": "view",
      "type": "function"
    },
    {
      "constant": true,
      "inputs": [
        {
          "name": "",
          "type": "address"
        },
        {
          "name": "",
          "type": "address"
        }
      ],
      "name": "currentLockedFunds",
      "outputs": [
        {
          "name": "",
          "type": "uint256"
        }
      ],
      "payable": false,
      "stateMutability": "view",
      "type": "function"
    },
    {
      "constant": true,
      "inputs": [
        {
          "name": "",
          "type": "address"
        }
      ],
      "name": "tokenAllowed",
      "outputs": [
        {
          "name": "",
          "type": "bool"
        }
      ],
      "payable": false,
      "stateMutability": "view",
      "type": "function"
    },
    {
      "constant": true,
      "inputs": [],
      "name": "implementation",
      "outputs": [
        {
          "name": "",
          "type": "address"
        }
      ],
      "payable": false,
      "stateMutability": "view",
      "type": "function"
    },
    {
      "constant": true,
      "inputs": [
        {
          "name": "",
          "type": "uint256"
        }
      ],
      "name": "allowedTokens",
      "outputs": [
        {
          "name": "",
          "type": "address"
        }
      ],
      "payable": false,
      "stateMutability": "view",
      "type": "function"
    },
    {
      "constant": true,
      "inputs": [
        {
          "name": "",
          "type": "address"
        }
      ],
      "name": "lockedTokens",
      "outputs": [
        {
          "name": "",
          "type": "uint256"
        }
      ],
      "payable": false,
      "stateMutability": "view",
      "type": "function"
    },
    {
      "constant": false,
      "inputs": [
        {
          "name": "_primaryOwner",
          "type": "address"
        },
        {
          "name": "_systemAddress",
          "type": "address"
        },
        {
          "name": "_authorityAddress",
          "type": "address"
        }
      ],
      "name": "initializeOwner",
      "outputs": [],
      "payable": false,
      "stateMutability": "nonpayable",
      "type": "function"
    },
    {
      "constant": true,
      "inputs": [
        {
          "name": "_firstLockDay",
          "type": "uint256"
        }
      ],
      "name": "isTokenLockEndDay",
      "outputs": [
        {
          "name": "",
          "type": "bool"
        }
      ],
      "payable": false,
      "stateMutability": "view",
      "type": "function"
    },
    {
      "constant": true,
      "inputs": [],
      "name": "registry",
      "outputs": [
        {
          "name": "",
          "type": "address"
        }
      ],
      "payable": false,
      "stateMutability": "view",
      "type": "function"
    },
    {
      "constant": false,
      "inputs": [
        {
          "name": "_vaultRatio",
          "type": "uint256"
        }
      ],
      "name": "setVaultRatio",
      "outputs": [
        {
          "name": "",
          "type": "bool"
        }
      ],
      "payable": false,
      "stateMutability": "nonpayable",
      "type": "function"
    },
    {
      "constant": true,
      "inputs": [],
      "name": "primaryOwner",
      "outputs": [
        {
          "name": "",
          "type": "address"
        }
      ],
      "payable": false,
      "stateMutability": "view",
      "type": "function"
    },
    {
      "constant": false,
      "inputs": [
        {
          "name": "_which",
          "type": "address"
        }
      ],
      "name": "changeAuthorityAddress",
      "outputs": [
        {
          "name": "",
          "type": "bool"
        }
      ],
      "payable": false,
      "stateMutability": "nonpayable",
      "type": "function"
    },
    {
      "constant": false,
      "inputs": [
        {
          "name": "_which",
          "type": "address"
        }
      ],
      "name": "allowToken",
      "outputs": [
        {
          "name": "",
          "type": "bool"
        }
      ],
      "payable": false,
      "stateMutability": "nonpayable",
      "type": "function"
    },
    {
      "constant": false,
      "inputs": [
        {
          "name": "_address",
          "type": "address"
        }
      ],
      "name": "updateRegistery",
      "outputs": [
        {
          "name": "",
          "type": "bool"
        }
      ],
      "payable": false,
      "stateMutability": "nonpayable",
      "type": "function"
    },
    {
      "constant": false,
      "inputs": [
        {
          "name": "_which",
          "type": "address"
        }
      ],
      "name": "changePrimaryOwner",
      "outputs": [
        {
          "name": "",
          "type": "bool"
        }
      ],
      "payable": false,
      "stateMutability": "nonpayable",
      "type": "function"
    },
    {
      "constant": true,
      "inputs": [],
      "name": "tokenLockDuration",
      "outputs": [
        {
          "name": "",
          "type": "uint256"
        }
      ],
      "payable": false,
      "stateMutability": "view",
      "type": "function"
    },
    {
      "constant": true,
      "inputs": [],
      "name": "systemAddress",
      "outputs": [
        {
          "name": "",
          "type": "address"
        }
      ],
      "payable": false,
      "stateMutability": "view",
      "type": "function"
    },
    {
      "constant": true,
      "inputs": [],
      "name": "vaultRatio",
      "outputs": [
        {
          "name": "",
          "type": "uint256"
        }
      ],
      "payable": false,
      "stateMutability": "view",
      "type": "function"
    },
    {
      "constant": true,
      "inputs": [],
      "name": "contractsRegistry",
      "outputs": [
        {
          "name": "",
          "type": "address"
        }
      ],
      "payable": false,
      "stateMutability": "view",
      "type": "function"
    },
    {
      "constant": false,
      "inputs": [
        {
          "name": "_address",
          "type": "address"
        },
        {
          "name": "_check",
          "type": "bool"
        }
      ],
      "name": "setAllowedAddress",
      "outputs": [
        {
          "name": "",
          "type": "bool"
        }
      ],
      "payable": false,
      "stateMutability": "nonpayable",
      "type": "function"
    },
    {
      "anonymous": false,
      "inputs": [
        {
          "indexed": true,
          "name": "_from",
          "type": "address"
        }
      ],
      "name": "TokenUnLocked",
      "type": "event"
    },
    {
      "anonymous": false,
      "inputs": [
        {
          "indexed": true,
          "name": "_from",
          "type": "address"
        }
      ],
      "name": "InvestMentCancelled",
      "type": "event"
    },
    {
      "anonymous": false,
      "inputs": [
        {
          "indexed": false,
          "name": "_token",
          "type": "address"
        },
        {
          "indexed": false,
          "name": "_which",
          "type": "address"
        },
        {
          "indexed": false,
          "name": "_amount",
          "type": "uint256"
        }
      ],
      "name": "FundLocked",
      "type": "event"
    },
    {
      "anonymous": false,
      "inputs": [
        {
          "indexed": true,
          "name": "_to",
          "type": "address"
        },
        {
          "indexed": false,
          "name": "_token",
          "type": "address"
        },
        {
          "indexed": false,
          "name": "_amount",
          "type": "uint256"
        }
      ],
      "name": "FundTransfer",
      "type": "event"
    },
    {
      "anonymous": false,
      "inputs": [
        {
          "indexed": false,
          "name": "ownerType",
          "type": "string"
        },
        {
          "indexed": true,
          "name": "previousOwner",
          "type": "address"
        },
        {
          "indexed": true,
          "name": "newOwner",
          "type": "address"
        }
      ],
      "name": "OwnershipTransferred",
      "type": "event"
    },
    {
      "anonymous": false,
      "inputs": [
        {
          "indexed": true,
          "name": "previousOwner",
          "type": "address"
        },
        {
          "indexed": true,
          "name": "newOwner",
          "type": "address"
        }
      ],
      "name": "AuthorityAddressChnageCall",
      "type": "event"
    },
    {
      "constant": true,
      "inputs": [],
      "name": "initialize",
      "outputs": [],
      "payable": false,
      "stateMutability": "view",
      "type": "function"
    },
    {
      "constant": false,
      "inputs": [
        {
          "name": "_primaryOwner",
          "type": "address"
        },
        {
          "name": "_systemAddress",
          "type": "address"
        },
        {
          "name": "_authorityAddress",
          "type": "address"
        },
        {
          "name": "_registeryAddress",
          "type": "address"
        }
      ],
      "name": "initialize",
      "outputs": [],
      "payable": false,
      "stateMutability": "nonpayable",
      "type": "function"
    },
    {
      "constant": false,
      "inputs": [
        {
          "name": "_which",
          "type": "address"
        }
      ],
      "name": "lockEther",
      "outputs": [
        {
          "name": "",
          "type": "bool"
        }
      ],
      "payable": true,
      "stateMutability": "payable",
      "type": "function"
    },
    {
      "constant": false,
      "inputs": [
        {
          "name": "_token",
          "type": "address"
        },
        {
          "name": "_from",
          "type": "address"
        },
        {
          "name": "_which",
          "type": "address"
        },
        {
          "name": "_amount",
          "type": "uint256"
        }
      ],
      "name": "lockTokens",
      "outputs": [
        {
          "name": "",
          "type": "bool"
        }
      ],
      "payable": false,
      "stateMutability": "nonpayable",
      "type": "function"
    },
    {
      "constant": false,
      "inputs": [],
      "name": "cancelInvestment",
      "outputs": [
        {
          "name": "",
          "type": "bool"
        }
      ],
      "payable": false,
      "stateMutability": "nonpayable",
      "type": "function"
    },
    {
      "constant": false,
      "inputs": [],
      "name": "unLockTokens",
      "outputs": [
        {
          "name": "",
          "type": "bool"
        }
      ],
      "payable": false,
      "stateMutability": "nonpayable",
      "type": "function"
    },
    {
      "constant": false,
      "inputs": [
        {
          "name": "_which",
          "type": "address"
        }
      ],
      "name": "unLockFundByAdmin",
      "outputs": [
        {
          "name": "",
          "type": "bool"
        }
      ],
      "payable": false,
      "stateMutability": "nonpayable",
      "type": "function"
    },
    {
      "constant": false,
      "inputs": [
        {
          "name": "_from",
          "type": "address"
        },
        {
          "name": "_which",
          "type": "address"
        },
        {
          "name": "_amount",
          "type": "uint256"
        }
      ],
      "name": "depositToken",
      "outputs": [
        {
          "name": "",
          "type": "bool"
        }
      ],
      "payable": false,
      "stateMutability": "nonpayable",
      "type": "function"
    }
  ],
  "bytecode": "0x6080604052605a600755600880546001600160a01b03199081169091556009805482169055600a80549091169055600b80546001600160a81b031916905534801561004957600080fd5b50612dd8806100596000396000f3fe60806040526004361061021a5760003560e01c80635eb7413a11610123578063b53472ef116100ab578063d8b8bc291161006f578063d8b8bc2914610762578063d98d0c7e14610777578063f8c8765e1461078c578063fae36986146107d7578063fb0f97a8146108125761021a565b8063b53472ef1461069f578063bc1366fe146106d2578063c4d3426814610705578063d0982feb14610738578063d3e848f11461074d5761021a565b80638129fc1c116100f25780638129fc1c1461060357806389346896146106185780638e10be33146106425780638f51368b1461065757806394f8e9541461068a5761021a565b80635eb7413a1461054a578063760e595a1461057d5780637744d424146105c45780637b103999146105ee5761021a565b8063320454c0116101a65780634bdde1cf116101755780634bdde1cf14610462578063507e38531461049d57806355219d5a146104d85780635c60da1b1461050b5780635e5f2e26146105205761021a565b8063320454c0146103db5780633c695d4e146104055780633ff59a521461041a578063409082981461042f5761021a565b80631044bbe6116101ed5780631044bbe61461030f57806311b858e9146103245780631b14eef91461036d57806320c462fe146103a057806322639bd1146103b55761021a565b806304d630891461021f57806307b9b62a146102665780630abaad7a146102995780630e470179146102ca575b600080fd5b34801561022b57600080fd5b506102526004803603602081101561024257600080fd5b50356001600160a01b0316610855565b604080519115158252519081900360200190f35b34801561027257600080fd5b506102526004803603602081101561028957600080fd5b50356001600160a01b0316610b66565b3480156102a557600080fd5b506102ae610c81565b604080516001600160a01b039092168252519081900360200190f35b3480156102d657600080fd5b506102fd600480360360208110156102ed57600080fd5b50356001600160a01b0316610c90565b60408051918252519081900360200190f35b34801561031b57600080fd5b50610252610ca2565b34801561033057600080fd5b506102526004803603608081101561034757600080fd5b506001600160a01b03813581169160208101358216916040820135169060600135610cb2565b34801561037957600080fd5b506102526004803603602081101561039057600080fd5b50356001600160a01b0316610dc4565b3480156103ac57600080fd5b50610252610dd9565b610252600480360360208110156103cb57600080fd5b50356001600160a01b0316610eee565b3480156103e757600080fd5b50610252600480360360208110156103fe57600080fd5b5035610f89565b34801561041157600080fd5b506102ae611011565b34801561042657600080fd5b50610252611020565b34801561043b57600080fd5b506102526004803603602081101561045257600080fd5b50356001600160a01b0316611030565b34801561046e57600080fd5b506102fd6004803603604081101561048557600080fd5b506001600160a01b0381358116916020013516611045565b3480156104a957600080fd5b506102fd600480360360408110156104c057600080fd5b506001600160a01b0381358116916020013516611062565b3480156104e457600080fd5b50610252600480360360208110156104fb57600080fd5b50356001600160a01b031661107f565b34801561051757600080fd5b506102ae611094565b34801561052c57600080fd5b506102ae6004803603602081101561054357600080fd5b50356110a3565b34801561055657600080fd5b506102fd6004803603602081101561056d57600080fd5b50356001600160a01b03166110ca565b34801561058957600080fd5b506105c2600480360360608110156105a057600080fd5b506001600160a01b0381358116916020810135821691604090910135166110dc565b005b3480156105d057600080fd5b50610252600480360360208110156105e757600080fd5b50356114b2565b3480156105fa57600080fd5b506102ae6114f0565b34801561060f57600080fd5b506105c26114ff565b34801561062457600080fd5b506102526004803603602081101561063b57600080fd5b5035611560565b34801561064e57600080fd5b506102ae6115f5565b34801561066357600080fd5b506102526004803603602081101561067a57600080fd5b50356001600160a01b0316611604565b34801561069657600080fd5b506102526117e5565b3480156106ab57600080fd5b50610252600480360360208110156106c257600080fd5b50356001600160a01b0316611ac6565b3480156106de57600080fd5b50610252600480360360208110156106f557600080fd5b50356001600160a01b0316611c9b565b34801561071157600080fd5b506102526004803603602081101561072857600080fd5b50356001600160a01b0316611dc0565b34801561074457600080fd5b506102fd612003565b34801561075957600080fd5b506102ae612009565b34801561076e57600080fd5b506102fd612018565b34801561078357600080fd5b506102ae61201e565b34801561079857600080fd5b506105c2600480360360808110156107af57600080fd5b506001600160a01b03813581169160208101358216916040820135811691606001351661202d565b3480156107e357600080fd5b50610252600480360360408110156107fa57600080fd5b506001600160a01b0381351690602001351515612067565b34801561081e57600080fd5b506102526004803603606081101561083557600080fd5b506001600160a01b038135811691602081013590911690604001356121ad565b60095460408051808201909152601b8152600080516020612d8483398151915260208201526000916001600160a01b031633146109105760405162461bcd60e51b81526004018080602001828103825283818151815260200191508051906020019080838360005b838110156108d55781810151838201526020016108bd565b50505050905090810190601f1680156109025780820380516001836020036101000a031916815260200191505b509250505060405180910390fd5b5060408051808201909152601981527f4552525f434f4e54524143545f53454c465f4144445245535300000000000000602082015282906001600160a01b03821630141561099f5760405162461bcd60e51b81526020600482018181528351602484015283519092839260449091019190850190808383600083156108d55781810151838201526020016108bd565b5060408051808201909152601081526f4552525f5a45524f5f4144445245535360801b602082015283906001600160a01b038216610a1e5760405162461bcd60e51b81526020600482018181528351602484015283519092839260449091019190850190808383600083156108d55781810151838201526020016108bd565b50600b546001600160a01b03858116911614801590610a4b57506009546001600160a01b03858116911614155b8015610a6557506008546001600160a01b03858116911614155b6040518060400160405280601081526020016f4552525f53414d455f4144445245535360801b81525090610ada5760405162461bcd60e51b81526020600482018181528351602484015283519092839260449091019190850190808383600083156108d55781810151838201526020016108bd565b50600b54604080516020808252600e908201526d53595354454d5f4144445245535360901b8183015290516001600160a01b038088169316917f6840904f5b31827f74e1497360da245f56e530c8c3de3163a2d31f11493273c6919081900360600190a3600b80546001600160a01b0386166001600160a01b0319909116179055600192505050919050565b6008546000906001600160a01b0316331480610b8c5750600b546001600160a01b031633145b6040518060400160405280601b8152602001600080516020612d8483398151915281525090610bfc5760405162461bcd60e51b81526020600482018181528351602484015283519092839260449091019190850190808383600083156108d55781810151838201526020016108bd565b506001600160a01b0382166000908152600d6020526040902054610c1f906114b2565b610c70576040805162461bcd60e51b815260206004820152601a60248201527f4552525f41444d494e5f43414e545f554e4c4f434b5f46554e44000000000000604482015290519081900360640190fd5b610c7982612468565b90505b919050565b600a546001600160a01b031681565b600d6020526000908152604090205481565b6000610cad33612468565b905090565b336000818152600260209081526040808320548151808301909252601b8252600080516020612d84833981519152928201929092529192919060ff16610d395760405162461bcd60e51b81526020600482018181528351602484015283519092839260449091019190850190808383600083156108d55781810151838201526020016108bd565b506001600160a01b038616600090815260056020526040902054869060ff16610da2576040805162461bcd60e51b815260206004820152601660248201527522a9292fa7a7262cafa0a62627aba2a22faa27a5a2a760511b604482015290519081900360640190fd5b610dae87873087612872565b610db9878686612af4565b979650505050505050565b60066020526000908152604090205460ff1681565b600a5460408051808201909152601b8152600080516020612d8483398151915260208201526000916001600160a01b03163314610e575760405162461bcd60e51b81526020600482018181528351602484015283519092839260449091019190850190808383600083156108d55781810151838201526020016108bd565b50600a5460095460408051602080825260119082015270415554484f524954595f4144445245535360781b8183015290516001600160a01b039384169392909216917f6840904f5b31827f74e1497360da245f56e530c8c3de3163a2d31f11493273c69181900360600190a350600a8054600980546001600160a01b03199081166001600160a01b03841617909155169055600190565b336000818152600260209081526040808320548151808301909252601b8252600080516020612d84833981519152928201929092529192919060ff16610f755760405162461bcd60e51b81526020600482018181528351602484015283519092839260449091019190850190808383600083156108d55781810151838201526020016108bd565b50610f8260008434612af4565b9392505050565b60095460408051808201909152601b8152600080516020612d8483398151915260208201526000916001600160a01b031633146110075760405162461bcd60e51b81526020600482018181528351602484015283519092839260449091019190850190808383600083156108d55781810151838201526020016108bd565b5050600355600190565b6009546001600160a01b031681565b600b54600160a01b900460ff1681565b60026020526000908152604090205460ff1681565b600e60209081526000928352604080842090915290825290205481565b600f60209081526000928352604080842090915290825290205481565b60056020526000908152604090205460ff1681565b6001546001600160a01b031690565b600481815481106110b057fe5b6000918252602090912001546001600160a01b0316905081565b60106020526000908152604090205481565b60408051808201909152601081526f4552525f5a45524f5f4144445245535360801b602082015283906001600160a01b03821661115a5760405162461bcd60e51b81526020600482018181528351602484015283519092839260449091019190850190808383600083156108d55781810151838201526020016108bd565b5060408051808201909152601081526f4552525f5a45524f5f4144445245535360801b602082015283906001600160a01b0382166111d95760405162461bcd60e51b81526020600482018181528351602484015283519092839260449091019190850190808383600083156108d55781810151838201526020016108bd565b5060408051808201909152601081526f4552525f5a45524f5f4144445245535360801b602082015283906001600160a01b0382166112585760405162461bcd60e51b81526020600482018181528351602484015283519092839260449091019190850190808383600083156108d55781810151838201526020016108bd565b50600b54600160a01b900460ff16156112b8576040805162461bcd60e51b815260206004820152601c60248201527f4552525f4f574e45525f494e5449414c495a45445f414c524541445900000000604482015290519081900360640190fd5b846001600160a01b0316866001600160a01b031614156040518060400160405280601081526020016f4552525f53414d455f4144445245535360801b815250906113435760405162461bcd60e51b81526020600482018181528351602484015283519092839260449091019190850190808383600083156108d55781810151838201526020016108bd565b50836001600160a01b0316856001600160a01b031614156040518060400160405280601081526020016f4552525f53414d455f4144445245535360801b815250906113cf5760405162461bcd60e51b81526020600482018181528351602484015283519092839260449091019190850190808383600083156108d55781810151838201526020016108bd565b50836001600160a01b0316866001600160a01b031614156040518060400160405280601081526020016f4552525f53414d455f4144445245535360801b8152509061145b5760405162461bcd60e51b81526020600482018181528351602484015283519092839260449091019190850190808383600083156108d55781810151838201526020016108bd565b5050600880546001600160a01b039687166001600160a01b031991821617909155600b8054600980549689169684169690961790955560ff60a01b199590961693169290921792909216600160a01b179092555050565b6000806114c462015180600354612bd0565b905060006114d28285612bfd565b90508042106114e657600192505050610c7c565b5060009392505050565b6000546001600160a01b031681565b6000546001600160a01b0316331461155e576040805162461bcd60e51b815260206004820152601c60248201527f4552525f4f4e4c595f524547495354524552595f43414e5f43414c4c00000000604482015290519081900360640190fd5b565b60095460408051808201909152601b8152600080516020612d8483398151915260208201526000916001600160a01b031633146115de5760405162461bcd60e51b81526020600482018181528351602484015283519092839260449091019190850190808383600083156108d55781810151838201526020016108bd565b50606482106115ec57600080fd5b50600755600190565b6008546001600160a01b031681565b60095460408051808201909152601b8152600080516020612d8483398151915260208201526000916001600160a01b031633146116825760405162461bcd60e51b81526020600482018181528351602484015283519092839260449091019190850190808383600083156108d55781810151838201526020016108bd565b5060408051808201909152601081526f4552525f5a45524f5f4144445245535360801b602082015282906001600160a01b0382166117015760405162461bcd60e51b81526020600482018181528351602484015283519092839260449091019190850190808383600083156108d55781810151838201526020016108bd565b50600b546001600160a01b0384811691161480159061172e57506009546001600160a01b03848116911614155b801561174857506008546001600160a01b03848116911614155b6040518060400160405280601081526020016f4552525f53414d455f4144445245535360801b815250906117bd5760405162461bcd60e51b81526020600482018181528351602484015283519092839260449091019190850190808383600083156108d55781810151838201526020016108bd565b50600a80546001600160a01b0385166001600160a01b03199091161790556001915050919050565b336000908152600d60205260408120546117fe906114b2565b1561183a5760405162461bcd60e51b8152600401808060200182810382526021815260200180612d436021913960400191505060405180910390fd5b600080805b6004548110156118f2576004818154811061185657fe5b6000918252602080832090910154338352600e825260408084206001600160a01b03909216808552919092529120549350915082156118ea5761189b82303386612872565b336000818152600e602090815260408083206001600160a01b0387168085529083528184209390935580519283529082018690528051600080516020612d648339815191529281900390910190a25b60010161183f565b50336000908152600e602090815260408083208380529091529020549150811561198957604051339083156108fc029084906000818181858888f19350505050158015611943573d6000803e3d6000fd5b5060408051600081526020810184905281513392600080516020612d64833981519152928290030190a2336000908152600e602090815260408083208380529091528120555b3360009081526010602052604090205491508115611a92576119b76926a0a4a72faa27a5a2a760b11b612c0c565b905060006119cc64159055531560da1b612c0c565b90506119d9828285612c8a565b6040805163c1bc42bb60e01b81526001600160a01b0384811660048301523060248301526044820186905291519183169163c1bc42bb9160648082019260009290919082900301818387803b158015611a3157600080fd5b505af1158015611a45573d6000803e3d6000fd5b5050604080516001600160a01b0386811682526020820188905282519086169450600080516020612d6483398151915293509081900390910190a250336000908152601060205260408120555b60405133907f79104a0d1fe2dbbc01713c7a98ba91f5aa10a1d1f26ffa53e2d02a4af28166f090600090a260019250505090565b600b5460408051808201909152601b8152600080516020612d8483398151915260208201526000916001600160a01b03163314611b445760405162461bcd60e51b81526020600482018181528351602484015283519092839260449091019190850190808383600083156108d55781810151838201526020016108bd565b5060408051808201909152601081526f4552525f5a45524f5f4144445245535360801b602082015282906001600160a01b038216611bc35760405162461bcd60e51b81526020600482018181528351602484015283519092839260449091019190850190808383600083156108d55781810151838201526020016108bd565b506001600160a01b03831660009081526005602052604090205460ff1615611c32576040805162461bcd60e51b815260206004820152601960248201527f4552525f544f4b454e5f414c52454144595f414c4c4f57454400000000000000604482015290519081900360640190fd5b50506004805460018082019092557f8a35acfbc15ff81a39ae7d344fd709f28e8600b4aa8c65c6b64bfe7fe36bd19b0180546001600160a01b0319166001600160a01b03939093169283179055600091825260056020526040909120805460ff19168217905590565b60095460408051808201909152601b8152600080516020612d8483398151915260208201526000916001600160a01b03163314611d195760405162461bcd60e51b81526020600482018181528351602484015283519092839260449091019190850190808383600083156108d55781810151838201526020016108bd565b5060408051808201909152601081526f4552525f5a45524f5f4144445245535360801b602082015282906001600160a01b038216611d985760405162461bcd60e51b81526020600482018181528351602484015283519092839260449091019190850190808383600083156108d55781810151838201526020016108bd565b50600c80546001600160a01b0385166001600160a01b03199091161790556001915050919050565b60095460408051808201909152601b8152600080516020612d8483398151915260208201526000916001600160a01b03163314611e3e5760405162461bcd60e51b81526020600482018181528351602484015283519092839260449091019190850190808383600083156108d55781810151838201526020016108bd565b5060408051808201909152601081526f4552525f5a45524f5f4144445245535360801b602082015282906001600160a01b038216611ebd5760405162461bcd60e51b81526020600482018181528351602484015283519092839260449091019190850190808383600083156108d55781810151838201526020016108bd565b50600b546001600160a01b03848116911614801590611eea57506009546001600160a01b03848116911614155b8015611f0457506008546001600160a01b03848116911614155b6040518060400160405280601081526020016f4552525f53414d455f4144445245535360801b81525090611f795760405162461bcd60e51b81526020600482018181528351602484015283519092839260449091019190850190808383600083156108d55781810151838201526020016108bd565b50600854604080516020808252600d908201526c282924a6a0a92cafa7aba722a960991b8183015290516001600160a01b038087169316917f6840904f5b31827f74e1497360da245f56e530c8c3de3163a2d31f11493273c6919081900360600190a3600880546001600160a01b0385166001600160a01b03199091161790556001915050919050565b60035481565b600b546001600160a01b031681565b60075481565b600c546001600160a01b031681565b6120356114ff565b600c80546001600160a01b0319166001600160a01b03831617905561016d6003556120618484846110dc565b50505050565b6008546000906001600160a01b031633148061208d5750600b546001600160a01b031633145b6040518060400160405280601b8152602001600080516020612d84833981519152815250906120fd5760405162461bcd60e51b81526020600482018181528351602484015283519092839260449091019190850190808383600083156108d55781810151838201526020016108bd565b5060408051808201909152601081526f4552525f5a45524f5f4144445245535360801b602082015283906001600160a01b03821661217c5760405162461bcd60e51b81526020600482018181528351602484015283519092839260449091019190850190808383600083156108d55781810151838201526020016108bd565b5050506001600160a01b03919091166000908152600260205260409020805460ff1916911515919091179055600190565b336000818152600260209081526040808320548151808301909252601b8252600080516020612d84833981519152928201929092529192919060ff166122345760405162461bcd60e51b81526020600482018181528351602484015283519092839260449091019190850190808383600083156108d55781810151838201526020016108bd565b50600061224d6926a0a4a72faa27a5a2a760b11b612c0c565b905061225b81873087612872565b6001600160a01b03851660009081526010602052604090205461227e9085612bfd565b6001600160a01b03861660009081526010602052604081209190915580805b60045481101561236657600481815481106122b457fe5b60009182526020808320909101546001600160a01b038b81168452600f835260408085209190921680855292529091205493509150821561235e57336000908152600e602090815260408083206001600160a01b038616845290915290205461231d9084612bfd565b336000908152600e602090815260408083206001600160a01b0387811680865291845282852095909555938c168352600f8252808320938352929052908120555b60010161229d565b506001600160a01b0387166000908152600f6020908152604080832083805290915290205415612410576001600160a01b0387166000818152600f60209081526040808320838052825280832054938352600e82528083208380529091529020549092506123d49083612bfd565b6001600160a01b0388166000818152600e60209081526040808320838052825280832094909455918152600f8252828120818052909152908120555b604080516001600160a01b0380861682528916602082015280820188905290517f7060083cf2ce4de65cfe3f362d622b1e098863e3e9e4df08bb1542f1988513b19181900360600190a1506001979650505050505050565b600080612480685441475f414c4f4e4760b81b612c0c565b905060006124a37210d3d35410539657d195539117d5d053131155606a1b612c0c565b90506000808080805b60045481101561264257600481815481106124c357fe5b60009182526020808320909101546001600160a01b038c81168452600e835260408085209190921680855292529091205495509350841561263a5761251461250d86600754612bd0565b6064612d1b565b92506125208584612d30565b915061252d848884612c8a565b6040805163c1bc42bb60e01b81526001600160a01b0386811660048301523060248301526044820185905291519189169163c1bc42bb9160648082019260009290919082900301818387803b15801561258557600080fd5b505af1158015612599573d6000803e3d6000fd5b505050506125a984308886612872565b604080516001600160a01b038681168252602082018590528251908a1692600080516020612d64833981519152928290030190a2604080516001600160a01b03868116825260208201869052825190891692600080516020612d64833981519152928290030190a26001600160a01b03808a166000908152600e602090815260408083209388168352929052908120555b6001016124ac565b506001600160a01b0388166000908152600e60209081526040808320838052909152902054935083156127a05761267e61250d85600754612bd0565b915061268a8483612d30565b9050856001600160a01b031663e799b3f5826040518263ffffffff1660e01b81526004016000604051808303818588803b1580156126c757600080fd5b505af11580156126db573d6000803e3d6000fd5b50506040516001600160a01b038916935085156108fc0292508591506000818181858888f19350505050158015612716573d6000803e3d6000fd5b5060408051600081526020810183905281516001600160a01b03891692600080516020612d64833981519152928290030190a260408051600081526020810184905281516001600160a01b03881692600080516020612d64833981519152928290030190a26001600160a01b0388166000908152600e602090815260408083208380529091528120555b6001600160a01b03881660009081526010602052604090205493508315612833576127d76926a0a4a72faa27a5a2a760b11b612c0c565b92506127e583308a87612872565b604080516001600160a01b038581168252602082018790528251908b1692600080516020612d64833981519152928290030190a26001600160a01b0388166000908152601060205260408120555b6040516001600160a01b038916907fe5b46c30acbb016d9469fbcaa4f275ff952a718786f17c268271bd2938f0fe1f90600090a2505050505050919050565b6000846001600160a01b03166370a08231846040518263ffffffff1660e01b815260040180826001600160a01b03166001600160a01b0316815260200191505060206040518083038186803b1580156128ca57600080fd5b505afa1580156128de573d6000803e3d6000fd5b505050506040513d60208110156128f457600080fd5b505190506001600160a01b03841630141561299b57846001600160a01b031663a9059cbb84846040518363ffffffff1660e01b815260040180836001600160a01b03166001600160a01b0316815260200182815260200192505050602060405180830381600087803b15801561296957600080fd5b505af115801561297d573d6000803e3d6000fd5b505050506040513d602081101561299357600080fd5b50612a239050565b604080516323b872dd60e01b81526001600160a01b0386811660048301528581166024830152604482018590529151918716916323b872dd916064808201926020929091908290030181600087803b1580156129f657600080fd5b505af1158015612a0a573d6000803e3d6000fd5b505050506040513d6020811015612a2057600080fd5b50505b6000856001600160a01b03166370a08231856040518263ffffffff1660e01b815260040180826001600160a01b03166001600160a01b0316815260200191505060206040518083038186803b158015612a7b57600080fd5b505afa158015612a8f573d6000803e3d6000fd5b505050506040513d6020811015612aa557600080fd5b50519050818111612aec576040805162461bcd60e51b815260206004820152600c60248201526b22a9292faa2920a729a322a960a11b604482015290519081900360640190fd5b505050505050565b6001600160a01b0382166000908152600d6020526040812054612b2d576001600160a01b0383166000908152600d602052604090204290555b6001600160a01b038084166000908152600f6020908152604080832093881683529290522054612b5d8184612bfd565b6001600160a01b038086166000818152600f60209081526040808320948b16808452948252918290209490945580519283529282015280820185905290517f7060083cf2ce4de65cfe3f362d622b1e098863e3e9e4df08bb1542f1988513b19181900360600190a1506001949350505050565b600082612bdf57506000612bf7565b82820282848281612bec57fe5b0414612bf457fe5b90505b92915050565b600082820183811015612bf457fe5b600c5460408051637d4367ab60e11b81526004810184905290516000926001600160a01b03169163fa86cf56916024808301926020929190829003018186803b158015612c5857600080fd5b505afa158015612c6c573d6000803e3d6000fd5b505050506040513d6020811015612c8257600080fd5b505192915050565b826001600160a01b031663095ea7b383836040518363ffffffff1660e01b815260040180836001600160a01b03166001600160a01b0316815260200182815260200192505050602060405180830381600087803b158015612cea57600080fd5b505af1158015612cfe573d6000803e3d6000fd5b505050506040513d6020811015612d1457600080fd5b5050505050565b600080828481612d2757fe5b04949350505050565b600082821115612d3c57fe5b5090039056fe4552525f494e564553544d454e545f43414e43454c5f504552494f445f4f5645529efbae8147a8577b5a4714ecf53a64fe21e6f76ee4931cbfa7859c560234e0254552525f415554484f52495a45445f414444524553535f4f4e4c590000000000a265627a7a72305820657c07c4cb1e1e3aafe3f146410608907f010fcfc58c0e49ac7832173fc8c52d64736f6c63430005090032",
  "source": "pragma solidity ^0.5.9;\n\nimport \"../common/ProxyOwnable.sol\";\nimport \"../common/SafeMath.sol\";\nimport \"../Proxy/Upgradeable.sol\";\nimport \"../InterFaces/IAuctionRegistery.sol\";\nimport \"../InterFaces/IAuctionTagAlong.sol\";\nimport \"../InterFaces/ITokenVault.sol\";\nimport \"../InterFaces/IERC20Token.sol\";\n\n\ninterface InitializeInterface {\n    function initialize(\n        address _primaryOwner,\n        address _systemAddress,\n        address _authorityAddress,\n        address _registeryAddress\n    ) external;\n}\n\n\ncontract AuctionRegistery is ProxyOwnable, AuctionRegisteryContracts {\n    \n    IAuctionRegistery public contractsRegistry;\n    \n    function updateRegistery(address _address)\n        external\n        onlyAuthorized()\n        notZeroAddress(_address)\n        returns (bool)\n    {\n        \n        contractsRegistry = IAuctionRegistery(_address);\n        return true;\n    }\n\n    function getAddressOf(bytes32 _contractName)\n        internal\n        view\n        returns (address payable)\n    {\n        return contractsRegistry.getAddressOf(_contractName);\n    }\n    \n}\n\n\ncontract UtilsStorage {\n    \n    mapping(address => bool) public allowedAddress;\n\n    uint256 public tokenLockDuration;\n\n    address[] public allowedTokens;\n\n    mapping(address => bool) public tokenAllowed;\n\n\n    mapping(address => bool) public unLockBlock;\n    \n    uint256 public vaultRatio = 90;\n    \n    \n    \n}\n\n\ncontract Utils is SafeMath, UtilsStorage, AuctionRegistery {\n    \n    modifier allowedTokenOnly(address _which) {\n        require(tokenAllowed[_which],\"ERR_ONLY_ALLOWED_TOKEN\");\n        _;\n    }\n\n    modifier allowedAddressOnly(address _which) {\n        require(allowedAddress[_which],ERR_AUTHORIZED_ADDRESS_ONLY);\n        _;\n    }\n\n    function allowToken(address _which)\n        external\n        onlySystem()\n        notZeroAddress(_which)\n        returns (bool)\n    {\n        require(!tokenAllowed[_which], \"ERR_TOKEN_ALREADY_ALLOWED\");\n        allowedTokens.push(_which);\n        tokenAllowed[_which] = true;\n        return true;\n    }\n\n    function setAllowedAddress(address _address, bool _check)\n        external\n        onlyOneOfOnwer()\n        notZeroAddress(_address)\n        returns (bool)\n    {\n        allowedAddress[_address] = _check;\n        return true;\n    }\n\n    function setVaultRatio(uint256 _vaultRatio)\n        external\n        onlyAuthorized()\n        returns (bool)\n    {\n        require( _vaultRatio < 100);\n        vaultRatio = _vaultRatio;\n        return true;\n    }\n    \n     function setTokenLockDuration(uint256 _tokenLockDuration)\n        external\n        onlyAuthorized()\n        returns (bool)\n    {\n        tokenLockDuration = _tokenLockDuration;\n        return true;\n    }\n\n    function isTokenLockEndDay(uint256 _firstLockDay)\n        public\n        view\n        returns (bool)\n    {\n        uint256 tempDay = safeMul(86400, tokenLockDuration);\n\n        uint256 tokenLockEndDay = safeAdd(tempDay, _firstLockDay);\n\n        if (now >= tokenLockEndDay) {\n            return true;\n        }\n        \n        return false;\n    }\n}\n\n\ncontract ProtectionStorage {\n    // timestamp for address where first lock happen\n    mapping(address => uint256) public lockedOn;\n\n    mapping(address => mapping(address => uint256)) public lockedFunds;\n\n    mapping(address => mapping(address => uint256)) public currentLockedFunds;\n\n    mapping(address => uint256) public lockedTokens;\n}\n\n\ncontract AuctionProtection is\n    Upgradeable,\n    Utils,\n    ProtectionStorage,\n    InitializeInterface\n{\n    function initialize(\n        address _primaryOwner,\n        address _systemAddress,\n        address _authorityAddress,\n        address _registeryAddress\n    ) public {\n        super.initialize();\n        contractsRegistry = IAuctionRegistery(_registeryAddress);\n        tokenLockDuration = 365;\n        ProxyOwnable.initializeOwner(\n            _primaryOwner,\n            _systemAddress,\n            _authorityAddress\n        );\n    }\n\n    event TokenUnLocked(address indexed _from);\n    event InvestMentCancelled(address indexed _from);\n    event FundLocked(address _token, address _which, uint256 _amount);\n    event FundTransfer(address indexed _to, address _token, uint256 _amount);\n\n    function ensureTransferFrom(\n        IERC20Token _token,\n        address _from,\n        address _to,\n        uint256 _amount\n    ) internal {\n        uint256 prevBalance = _token.balanceOf(_to);\n        if (_from == address(this)) _token.transfer(_to, _amount);\n        else _token.transferFrom(_from, _to, _amount);\n        uint256 postBalance = _token.balanceOf(_to);\n        require(postBalance > prevBalance,\"ERR_TRANSFER\");\n    }\n\n    function approveTransferFrom(\n        IERC20Token _token,\n        address _spender,\n        uint256 _amount\n    ) internal {\n        _token.approve(_spender, _amount);\n    }\n\n    function lockBalance(address _token, address _which, uint256 _amount)\n        internal\n        returns (bool)\n    {\n        if (lockedOn[_which] == 0) lockedOn[_which] = now;\n        uint256 currentBalance = currentLockedFunds[_which][_token];\n        currentLockedFunds[_which][_token] = safeAdd(currentBalance, _amount);\n        emit FundLocked(_token, _which, _amount);\n        return true;\n    }\n\n    function lockEther(address _which)\n        public\n        payable\n        allowedAddressOnly(msg.sender)\n        returns (bool)\n    {\n        return lockBalance(address(0), _which, msg.value);\n    }\n\n    function lockTokens(\n        IERC20Token _token,\n        address _from,\n        address _which,\n        uint256 _amount\n    )\n        public\n        allowedAddressOnly(msg.sender)\n        allowedTokenOnly(address(_token))\n        returns (bool)\n    {\n        ensureTransferFrom(_token, _from, address(this), _amount);\n        return lockBalance(address(_token), _which, _amount);\n    }\n\n    function cancelInvestment() external returns (bool) {\n        \n        require(\n           !isTokenLockEndDay(lockedOn[msg.sender]),\n            \"ERR_INVESTMENT_CANCEL_PERIOD_OVER\"\n        );\n\n        uint256 _tokenBalance;\n        IERC20Token _token;\n        for (uint256 tempX = 0; tempX < allowedTokens.length; tempX++) {\n            _token = IERC20Token(allowedTokens[tempX]);\n            _tokenBalance = lockedFunds[msg.sender][address(_token)];\n            if (_tokenBalance > 0) {\n                ensureTransferFrom(\n                    _token,\n                    address(this),\n                    msg.sender,\n                    _tokenBalance\n                );\n                lockedFunds[msg.sender][address(_token)] = 0;\n                emit FundTransfer(msg.sender, address(_token), _tokenBalance);\n            }\n        }\n\n        _tokenBalance = lockedFunds[msg.sender][address(0)];\n        if (_tokenBalance > 0) {\n            msg.sender.transfer(_tokenBalance);\n            emit FundTransfer(msg.sender, address(0), _tokenBalance);\n            lockedFunds[msg.sender][address(0)] = 0;\n        }\n\n        _tokenBalance = lockedTokens[msg.sender];\n        if (_tokenBalance > 0) {\n            _token = IERC20Token(getAddressOf(MAIN_TOKEN));\n            \n            address vaultAddress = getAddressOf(VAULT);\n            \n            approveTransferFrom(_token, vaultAddress, _tokenBalance);\n            \n            ITokenVault(vaultAddress).depositeToken(\n                _token,\n                address(this),\n                _tokenBalance\n            );\n            \n            emit FundTransfer(vaultAddress, address(_token), _tokenBalance);\n            lockedTokens[msg.sender] = 0;\n        }\n        emit InvestMentCancelled(msg.sender);\n        return true;\n    }\n    \n    \n    function _unLockTokens(address _which) internal returns(bool){\n        address tagAlongAdress = getAddressOf(TAG_ALONG);\n        address payable fundWallet = getAddressOf(COMPANY_FUND_WALLET);\n        \n        uint256 _tokenBalance;\n        IERC20Token _token;\n        uint256 walletAmount;\n        uint256 tagAlongAmount;\n        \n        for (uint256 tempX = 0; tempX < allowedTokens.length; tempX++) {\n            _token = IERC20Token(allowedTokens[tempX]);\n            _tokenBalance = lockedFunds[_which][address(_token)];\n            if (_tokenBalance > 0) {\n                \n                walletAmount = safeDiv(safeMul(_tokenBalance,vaultRatio),100);\n                tagAlongAmount = safeSub(_tokenBalance,walletAmount);\n                \n                approveTransferFrom(_token, tagAlongAdress, tagAlongAmount);\n                \n                IAuctionTagAlong(tagAlongAdress).depositeToken(\n                    _token,\n                    address(this),\n                    tagAlongAmount\n                );\n                \n                ensureTransferFrom(_token,address(this),fundWallet,walletAmount);\n                \n                emit FundTransfer(\n                    tagAlongAdress,\n                    address(_token),\n                    tagAlongAmount\n                );\n                emit FundTransfer(\n                    fundWallet,\n                    address(_token),\n                    walletAmount\n                );\n                lockedFunds[_which][address(_token)] = 0;\n            }\n        }\n        _tokenBalance = lockedFunds[_which][address(0)];\n        \n        if (_tokenBalance > 0) {\n            walletAmount = safeDiv(safeMul(_tokenBalance,vaultRatio),100);\n            tagAlongAmount = safeSub(_tokenBalance,walletAmount);\n                \n            IAuctionTagAlong(tagAlongAdress).depositeEther.value(\n                tagAlongAmount\n            )();\n            \n            fundWallet.transfer(walletAmount);\n            \n            emit FundTransfer(tagAlongAdress, address(0), tagAlongAmount);\n            emit FundTransfer(fundWallet, address(0), walletAmount);\n            lockedFunds[_which][address(0)] = 0;\n        }\n        \n        _tokenBalance = lockedTokens[_which];\n         \n        if (_tokenBalance > 0) {\n            _token = IERC20Token(getAddressOf(MAIN_TOKEN));\n            ensureTransferFrom(\n                _token,\n                address(this),\n                _which,\n                _tokenBalance\n            );\n            emit FundTransfer(_which, address(_token), _tokenBalance);\n            lockedTokens[_which] = 0;\n        }\n\n        emit TokenUnLocked(_which);\n    }\n    \n    // user unlock tokens and funds goes to compnay wallet\n    function unLockTokens() external returns (bool) {\n        return _unLockTokens(msg.sender);\n    }\n\n    function unLockFundByAdmin(address _which)\n        external\n        onlyOneOfOnwer()\n        returns (bool)\n    {\n        require(isTokenLockEndDay(lockedOn[_which]),\"ERR_ADMIN_CANT_UNLOCK_FUND\");\n        return _unLockTokens(_which);\n    }\n\n\n    function depositToken(address _from, address _which, uint256 _amount)\n        external\n        allowedAddressOnly(msg.sender)\n        returns (bool)\n    {\n        IERC20Token token = IERC20Token(getAddressOf(MAIN_TOKEN));\n        ensureTransferFrom(token, _from, address(this), _amount);\n        lockedTokens[_which] = safeAdd(lockedTokens[_which], _amount);\n\n        uint256 _currentTokenBalance;\n        IERC20Token _token;\n        for (uint256 tempX = 0; tempX < allowedTokens.length; tempX++) {\n            _token = IERC20Token(allowedTokens[tempX]);\n            _currentTokenBalance = currentLockedFunds[_which][address(_token)];\n            if (_currentTokenBalance > 0) {\n                lockedFunds[msg.sender][address(_token)] = safeAdd(\n                    lockedFunds[msg.sender][address(_token)],\n                    _currentTokenBalance\n                );\n                currentLockedFunds[_which][address(_token)] = 0;\n            }\n        }\n\n        if (currentLockedFunds[_which][address(0)] > 0) {\n            _currentTokenBalance = currentLockedFunds[_which][address(0)];\n            lockedFunds[_which][address(0)] = safeAdd(\n                lockedFunds[_which][address(0)],\n                _currentTokenBalance\n            );\n            currentLockedFunds[_which][address(0)] = 0;\n        }\n\n        emit FundLocked(address(token), _which, _amount);\n        return true;\n    }\n    \n}\n",
  "sourcePath": "/home/safu/minddeft/jointerInc/jointer-token/contracts/Protection/AuctionProtection.sol",
  "compiler": {
    "name": "solc",
    "version": "0.5.9+commit.e560f70d.Emscripten.clang"
  },
  "schemaVersion": "3.1.0",
  "updatedAt": "2020-05-22T12:31:57.152Z",
  "devdoc": {
    "methods": {
      "changeAuthorityAddress(address)": {
        "details": "change system address",
        "params": {
          "_which": "The address to which is new Authority address"
        }
      },
      "changePrimaryOwner(address)": {
        "details": "change primary ownership",
        "params": {
          "_which": "The address to which is new owner address"
        }
      },
      "changeSystemAddress(address)": {
        "details": "change system address",
        "params": {
          "_which": "The address to which is new system address"
        }
      },
      "implementation()": {
        "details": "Tells the address of the current implementation",
        "return": "address of the current implementation"
      },
      "initialize()": {
        "details": "Validates the caller is the versions registry. THIS FUNCTION SHOULD BE OVERRIDDEN CALLING SUPER"
      },
      "initializeOwner(address,address,address)": {
        "details": "The Ownable constructor sets the `primaryOwner` and `systemAddress` and '_multisigAddress' account."
      }
    }
  },
  "userdoc": {
    "methods": {}
  }
}