{
  "contractName": "AuctionTagAlong",
  "abi": [
    {
      "constant": false,
      "inputs": [
        {
          "name": "_which",
          "type": "address"
        }
      ],
      "name": "changeSystemAddress",
      "outputs": [
        {
          "name": "",
          "type": "bool"
        }
      ],
      "payable": false,
      "stateMutability": "nonpayable",
      "type": "function"
    },
    {
      "constant": true,
      "inputs": [],
      "name": "newAuthorityAddress",
      "outputs": [
        {
          "name": "",
          "type": "address"
        }
      ],
      "payable": false,
      "stateMutability": "view",
      "type": "function"
    },
    {
      "constant": false,
      "inputs": [
        {
          "name": "_ratio",
          "type": "uint256"
        }
      ],
      "name": "setcContributionRatio",
      "outputs": [
        {
          "name": "",
          "type": "bool"
        }
      ],
      "payable": false,
      "stateMutability": "nonpayable",
      "type": "function"
    },
    {
      "constant": false,
      "inputs": [],
      "name": "acceptAuthorityAddress",
      "outputs": [
        {
          "name": "",
          "type": "bool"
        }
      ],
      "payable": false,
      "stateMutability": "nonpayable",
      "type": "function"
    },
    {
      "constant": true,
      "inputs": [],
      "name": "liquadityRatio",
      "outputs": [
        {
          "name": "",
          "type": "uint256"
        }
      ],
      "payable": false,
      "stateMutability": "view",
      "type": "function"
    },
    {
      "constant": true,
      "inputs": [],
      "name": "authorityAddress",
      "outputs": [
        {
          "name": "",
          "type": "address"
        }
      ],
      "payable": false,
      "stateMutability": "view",
      "type": "function"
    },
    {
      "constant": false,
      "inputs": [
        {
          "name": "_ratio",
          "type": "uint256"
        }
      ],
      "name": "setLiquadityRatio",
      "outputs": [
        {
          "name": "",
          "type": "bool"
        }
      ],
      "payable": false,
      "stateMutability": "nonpayable",
      "type": "function"
    },
    {
      "constant": true,
      "inputs": [],
      "name": "primaryOwner",
      "outputs": [
        {
          "name": "",
          "type": "address"
        }
      ],
      "payable": false,
      "stateMutability": "view",
      "type": "function"
    },
    {
      "constant": false,
      "inputs": [
        {
          "name": "_which",
          "type": "address"
        }
      ],
      "name": "changeAuthorityAddress",
      "outputs": [
        {
          "name": "",
          "type": "bool"
        }
      ],
      "payable": false,
      "stateMutability": "nonpayable",
      "type": "function"
    },
    {
      "constant": false,
      "inputs": [
        {
          "name": "_address",
          "type": "address"
        }
      ],
      "name": "updateRegistery",
      "outputs": [
        {
          "name": "",
          "type": "bool"
        }
      ],
      "payable": false,
      "stateMutability": "nonpayable",
      "type": "function"
    },
    {
      "constant": true,
      "inputs": [],
      "name": "contributionRatio",
      "outputs": [
        {
          "name": "",
          "type": "uint256"
        }
      ],
      "payable": false,
      "stateMutability": "view",
      "type": "function"
    },
    {
      "constant": false,
      "inputs": [
        {
          "name": "_which",
          "type": "address"
        }
      ],
      "name": "changePrimaryOwner",
      "outputs": [
        {
          "name": "",
          "type": "bool"
        }
      ],
      "payable": false,
      "stateMutability": "nonpayable",
      "type": "function"
    },
    {
      "constant": true,
      "inputs": [],
      "name": "systemAddress",
      "outputs": [
        {
          "name": "",
          "type": "address"
        }
      ],
      "payable": false,
      "stateMutability": "view",
      "type": "function"
    },
    {
      "constant": true,
      "inputs": [],
      "name": "contractsRegistry",
      "outputs": [
        {
          "name": "",
          "type": "address"
        }
      ],
      "payable": false,
      "stateMutability": "view",
      "type": "function"
    },
    {
      "inputs": [
        {
          "name": "_systemAddress",
          "type": "address"
        },
        {
          "name": "_multisigAdress",
          "type": "address"
        }
      ],
      "payable": false,
      "stateMutability": "nonpayable",
      "type": "constructor"
    },
    {
      "payable": true,
      "stateMutability": "payable",
      "type": "fallback"
    },
    {
      "anonymous": false,
      "inputs": [
        {
          "indexed": false,
          "name": "_token",
          "type": "address"
        },
        {
          "indexed": false,
          "name": "_from",
          "type": "address"
        },
        {
          "indexed": false,
          "name": "_amount",
          "type": "uint256"
        }
      ],
      "name": "FundDeposited",
      "type": "event"
    },
    {
      "anonymous": false,
      "inputs": [
        {
          "indexed": false,
          "name": "ownerType",
          "type": "string"
        },
        {
          "indexed": true,
          "name": "previousOwner",
          "type": "address"
        },
        {
          "indexed": true,
          "name": "newOwner",
          "type": "address"
        }
      ],
      "name": "OwnershipTransferred",
      "type": "event"
    },
    {
      "anonymous": false,
      "inputs": [
        {
          "indexed": true,
          "name": "previousOwner",
          "type": "address"
        },
        {
          "indexed": true,
          "name": "newOwner",
          "type": "address"
        }
      ],
      "name": "AuthorityAddressChnageCall",
      "type": "event"
    },
    {
      "constant": false,
      "inputs": [
        {
          "name": "_amount",
          "type": "uint256"
        }
      ],
      "name": "contributeTowardLiquadity",
      "outputs": [
        {
          "name": "",
          "type": "uint256"
        }
      ],
      "payable": false,
      "stateMutability": "nonpayable",
      "type": "function"
    },
    {
      "constant": false,
      "inputs": [],
      "name": "cancelInvestment",
      "outputs": [
        {
          "name": "",
          "type": "bool"
        }
      ],
      "payable": false,
      "stateMutability": "nonpayable",
      "type": "function"
    },
    {
      "constant": false,
      "inputs": [],
      "name": "unLockTokens",
      "outputs": [
        {
          "name": "",
          "type": "bool"
        }
      ],
      "payable": false,
      "stateMutability": "nonpayable",
      "type": "function"
    },
    {
      "constant": false,
      "inputs": [
        {
          "name": "_tokens",
          "type": "address"
        },
        {
          "name": "_to",
          "type": "address"
        },
        {
          "name": "_value",
          "type": "uint256"
        }
      ],
      "name": "returnTokens",
      "outputs": [
        {
          "name": "",
          "type": "bool"
        }
      ],
      "payable": false,
      "stateMutability": "nonpayable",
      "type": "function"
    },
    {
      "constant": false,
      "inputs": [
        {
          "name": "_value",
          "type": "uint256"
        }
      ],
      "name": "withDraw",
      "outputs": [
        {
          "name": "",
          "type": "bool"
        }
      ],
      "payable": false,
      "stateMutability": "nonpayable",
      "type": "function"
    },
    {
      "constant": false,
      "inputs": [],
      "name": "depositeEther",
      "outputs": [
        {
          "name": "",
          "type": "bool"
        }
      ],
      "payable": true,
      "stateMutability": "payable",
      "type": "function"
    },
    {
      "constant": false,
      "inputs": [
        {
          "name": "_token",
          "type": "address"
        },
        {
          "name": "_from",
          "type": "address"
        },
        {
          "name": "_amount",
          "type": "uint256"
        }
      ],
      "name": "depositeToken",
      "outputs": [
        {
          "name": "",
          "type": "bool"
        }
      ],
      "payable": false,
      "stateMutability": "nonpayable",
      "type": "function"
    }
  ],
  "bytecode": "0x6080604052600080546001600160a01b031990811690915560018054821690556002805482169055600380549091169055606460058190556006553480156200004757600080fd5b5060405162001af038038062001af0833981810160405260408110156200006d57600080fd5b50805160209182015160408051808201909152601081527f4552525f5a45524f5f41444452455353000000000000000000000000000000009381019390935290918290829082906001600160a01b03821662000164576040517f08c379a00000000000000000000000000000000000000000000000000000000081526004018080602001828103825283818151815260200191508051906020019080838360005b83811015620001285781810151838201526020016200010e565b50505050905090810190601f168015620001565780820380516001836020036101000a031916815260200191505b509250505060405180910390fd5b5060408051808201909152601081527f4552525f53414d455f41444452455353000000000000000000000000000000006020820152336001600160a01b03851614156200020e576040517f08c379a0000000000000000000000000000000000000000000000000000000008152602060048201818152835160248401528351909283926044909101919085019080838360008315620001285781810151838201526020016200010e565b50816001600160a01b0316836001600160a01b031614156040518060400160405280601081526020017f4552525f53414d455f414444524553530000000000000000000000000000000081525090620002c4576040517f08c379a0000000000000000000000000000000000000000000000000000000008152602060048201818152835160248401528351909283926044909101919085019080838360008315620001285781810151838201526020016200010e565b5060408051808201909152601081527f4552525f53414d455f41444452455353000000000000000000000000000000006020820152336001600160a01b03841614156200036e576040517f08c379a0000000000000000000000000000000000000000000000000000000008152602060048201818152835160248401528351909283926044909101919085019080838360008315620001285781810151838201526020016200010e565b5050600080546001600160a01b03199081163317909155600280546001600160a01b0394851690831617905560018054929093169116179055505061173780620003b96000396000f3fe60806040526004361061012a5760003560e01c80638210b4b4116100ab578063c0b7daef1161006f578063c0b7daef146103c4578063c1bc42bb146103d9578063c4d342681461041c578063d3e848f11461044f578063d98d0c7e14610464578063e799b3f5146104795761012a565b80638210b4b41461030a5780638e10be33146103345780638f51368b1461034957806394f8e9541461037c578063bc1366fe146103915761012a565b806320c462fe116100f257806320c462fe1461024c5780632ea2c415146102615780633c695d4e14610288578063488698701461029d57806357fc3991146102c75761012a565b806304d630891461016b5780630abaad7a146101b25780631044bbe6146101e357806314174f33146101f85780631b41de2914610222575b6040805160008152336020820152348183015290517f988be5a4a02a3fab0f0927cf7b83b33931fce7bc30a2380dad1114c673c880519181900360600190a1005b34801561017757600080fd5b5061019e6004803603602081101561018e57600080fd5b50356001600160a01b0316610481565b604080519115158252519081900360200190f35b3480156101be57600080fd5b506101c7610792565b604080516001600160a01b039092168252519081900360200190f35b3480156101ef57600080fd5b5061019e6107a1565b34801561020457600080fd5b5061019e6004803603602081101561021b57600080fd5b50356108a8565b34801561022e57600080fd5b5061019e6004803603602081101561024557600080fd5b503561095e565b34801561025857600080fd5b5061019e6109e6565b34801561026d57600080fd5b50610276610afb565b60408051918252519081900360200190f35b34801561029457600080fd5b506101c7610b01565b3480156102a957600080fd5b5061019e600480360360208110156102c057600080fd5b5035610b10565b3480156102d357600080fd5b5061019e600480360360608110156102ea57600080fd5b506001600160a01b03813581169160208101359091169060400135610b98565b34801561031657600080fd5b506102766004803603602081101561032d57600080fd5b5035610c2c565b34801561034057600080fd5b506101c7610d1f565b34801561035557600080fd5b5061019e6004803603602081101561036c57600080fd5b50356001600160a01b0316610d2e565b34801561038857600080fd5b5061019e610f0f565b34801561039d57600080fd5b5061019e600480360360208110156103b457600080fd5b50356001600160a01b0316610fe5565b3480156103d057600080fd5b5061027661110a565b3480156103e557600080fd5b5061019e600480360360608110156103fc57600080fd5b506001600160a01b03813581169160208101359091169060400135611110565b34801561042857600080fd5b5061019e6004803603602081101561043f57600080fd5b50356001600160a01b0316611171565b34801561045b57600080fd5b506101c76113b4565b34801561047057600080fd5b506101c76113c3565b61019e6113d2565b60015460408051808201909152601b81526000805160206116e383398151915260208201526000916001600160a01b0316331461053c5760405162461bcd60e51b81526004018080602001828103825283818151815260200191508051906020019080838360005b838110156105015781810151838201526020016104e9565b50505050905090810190601f16801561052e5780820380516001836020036101000a031916815260200191505b509250505060405180910390fd5b5060408051808201909152601981527f4552525f434f4e54524143545f53454c465f4144445245535300000000000000602082015282906001600160a01b0382163014156105cb5760405162461bcd60e51b81526020600482018181528351602484015283519092839260449091019190850190808383600083156105015781810151838201526020016104e9565b5060408051808201909152601081526f4552525f5a45524f5f4144445245535360801b602082015283906001600160a01b03821661064a5760405162461bcd60e51b81526020600482018181528351602484015283519092839260449091019190850190808383600083156105015781810151838201526020016104e9565b506002546001600160a01b0385811691161480159061067757506001546001600160a01b03858116911614155b801561069157506000546001600160a01b03858116911614155b6040518060400160405280601081526020016f4552525f53414d455f4144445245535360801b815250906107065760405162461bcd60e51b81526020600482018181528351602484015283519092839260449091019190850190808383600083156105015781810151838201526020016104e9565b50600254604080516020808252600e908201526d53595354454d5f4144445245535360901b8183015290516001600160a01b038088169316917f6840904f5b31827f74e1497360da245f56e530c8c3de3163a2d31f11493273c6919081900360600190a3600280546001600160a01b0386166001600160a01b0319909116179055600192505050919050565b6003546001600160a01b031681565b6000805460408051808201909152601b81526000805160206116e38339815191526020820152906001600160a01b0316331461081e5760405162461bcd60e51b81526020600482018181528351602484015283519092839260449091019190850190808383600083156105015781810151838201526020016104e9565b5061083d7120aaa1aa24a7a72fa82927aa22a1aa24a7a760711b611418565b6001600160a01b0316631044bbe66040518163ffffffff1660e01b8152600401602060405180830381600087803b15801561087757600080fd5b505af115801561088b573d6000803e3d6000fd5b505050506040513d60208110156108a157600080fd5b5051905090565b6000805460408051808201909152601b81526000805160206116e38339815191526020820152906001600160a01b031633146109255760405162461bcd60e51b81526020600482018181528351602484015283519092839260449091019190850190808383600083156105015781810151838201526020016104e9565b50604051339083156108fc029084906000818181858888f19350505050158015610953573d6000803e3d6000fd5b50600190505b919050565b60025460408051808201909152601b81526000805160206116e383398151915260208201526000916001600160a01b031633146109dc5760405162461bcd60e51b81526020600482018181528351602484015283519092839260449091019190850190808383600083156105015781810151838201526020016104e9565b5050600655600190565b60035460408051808201909152601b81526000805160206116e383398151915260208201526000916001600160a01b03163314610a645760405162461bcd60e51b81526020600482018181528351602484015283519092839260449091019190850190808383600083156105015781810151838201526020016104e9565b5060035460015460408051602080825260119082015270415554484f524954595f4144445245535360781b8183015290516001600160a01b039384169392909216917f6840904f5b31827f74e1497360da245f56e530c8c3de3163a2d31f11493273c69181900360600190a35060038054600180546001600160a01b03199081166001600160a01b03841617825590911690915590565b60055481565b6001546001600160a01b031681565b60025460408051808201909152601b81526000805160206116e383398151915260208201526000916001600160a01b03163314610b8e5760405162461bcd60e51b81526020600482018181528351602484015283519092839260449091019190850190808383600083156105015781810151838201526020016104e9565b5050600555600190565b6000805460408051808201909152601b81526000805160206116e38339815191526020820152906001600160a01b03163314610c155760405162461bcd60e51b81526020600482018181528351602484015283519092839260449091019190850190808383600083156105015781810151838201526020016104e9565b50610c2284308585611497565b5060019392505050565b6000610c43684c495155414449545960b81b611418565b6001600160a01b0316336001600160a01b031614610ca8576040805162461bcd60e51b815260206004820152601860248201527f4552525f4f4e4c595f41554354494f4e5f414c4c574f45440000000000000000604482015290519081900360640190fd5b3031821115610ceb5760405130319250339083156108fc029084906000818181858888f19350505050158015610ce2573d6000803e3d6000fd5b50819050610959565b604051339083156108fc029084906000818181858888f19350505050158015610d18573d6000803e3d6000fd5b5090919050565b6000546001600160a01b031681565b60015460408051808201909152601b81526000805160206116e383398151915260208201526000916001600160a01b03163314610dac5760405162461bcd60e51b81526020600482018181528351602484015283519092839260449091019190850190808383600083156105015781810151838201526020016104e9565b5060408051808201909152601081526f4552525f5a45524f5f4144445245535360801b602082015282906001600160a01b038216610e2b5760405162461bcd60e51b81526020600482018181528351602484015283519092839260449091019190850190808383600083156105015781810151838201526020016104e9565b506002546001600160a01b03848116911614801590610e5857506001546001600160a01b03848116911614155b8015610e7257506000546001600160a01b03848116911614155b6040518060400160405280601081526020016f4552525f53414d455f4144445245535360801b81525090610ee75760405162461bcd60e51b81526020600482018181528351602484015283519092839260449091019190850190808383600083156105015781810151838201526020016104e9565b50600380546001600160a01b0385166001600160a01b03199091161790556001915050919050565b6000805460408051808201909152601b81526000805160206116e38339815191526020820152906001600160a01b03163314610f8c5760405162461bcd60e51b81526020600482018181528351602484015283519092839260449091019190850190808383600083156105015781810151838201526020016104e9565b50610fab7120aaa1aa24a7a72fa82927aa22a1aa24a7a760711b611418565b6001600160a01b03166394f8e9546040518163ffffffff1660e01b8152600401602060405180830381600087803b15801561087757600080fd5b60015460408051808201909152601b81526000805160206116e383398151915260208201526000916001600160a01b031633146110635760405162461bcd60e51b81526020600482018181528351602484015283519092839260449091019190850190808383600083156105015781810151838201526020016104e9565b5060408051808201909152601081526f4552525f5a45524f5f4144445245535360801b602082015282906001600160a01b0382166110e25760405162461bcd60e51b81526020600482018181528351602484015283519092839260449091019190850190808383600083156105015781810151838201526020016104e9565b50600480546001600160a01b0385166001600160a01b03199091161790556001915050919050565b60065481565b600061111e84843085611497565b60408051600081526001600160a01b038516602082015280820184905290517f988be5a4a02a3fab0f0927cf7b83b33931fce7bc30a2380dad1114c673c880519181900360600190a15060019392505050565b60015460408051808201909152601b81526000805160206116e383398151915260208201526000916001600160a01b031633146111ef5760405162461bcd60e51b81526020600482018181528351602484015283519092839260449091019190850190808383600083156105015781810151838201526020016104e9565b5060408051808201909152601081526f4552525f5a45524f5f4144445245535360801b602082015282906001600160a01b03821661126e5760405162461bcd60e51b81526020600482018181528351602484015283519092839260449091019190850190808383600083156105015781810151838201526020016104e9565b506002546001600160a01b0384811691161480159061129b57506001546001600160a01b03848116911614155b80156112b557506000546001600160a01b03848116911614155b6040518060400160405280601081526020016f4552525f53414d455f4144445245535360801b8152509061132a5760405162461bcd60e51b81526020600482018181528351602484015283519092839260449091019190850190808383600083156105015781810151838201526020016104e9565b50600054604080516020808252600d908201526c282924a6a0a92cafa7aba722a960991b8183015290516001600160a01b038087169316917f6840904f5b31827f74e1497360da245f56e530c8c3de3163a2d31f11493273c6919081900360600190a3600080546001600160a01b0385166001600160a01b03199091161790556001915050919050565b6002546001600160a01b031681565b6004546001600160a01b031681565b604080516000808252336020830152348284015291517f988be5a4a02a3fab0f0927cf7b83b33931fce7bc30a2380dad1114c673c880519181900360600190a150600190565b6004805460408051637d4367ab60e11b8152928301849052516000926001600160a01b039092169163fa86cf56916024808301926020929190829003018186803b15801561146557600080fd5b505afa158015611479573d6000803e3d6000fd5b505050506040513d602081101561148f57600080fd5b505192915050565b6000846001600160a01b03166370a08231846040518263ffffffff1660e01b815260040180826001600160a01b03166001600160a01b0316815260200191505060206040518083038186803b1580156114ef57600080fd5b505afa158015611503573d6000803e3d6000fd5b505050506040513d602081101561151957600080fd5b505190506001600160a01b0384163014156115c057846001600160a01b031663a9059cbb84846040518363ffffffff1660e01b815260040180836001600160a01b03166001600160a01b0316815260200182815260200192505050602060405180830381600087803b15801561158e57600080fd5b505af11580156115a2573d6000803e3d6000fd5b505050506040513d60208110156115b857600080fd5b506116489050565b604080516323b872dd60e01b81526001600160a01b0386811660048301528581166024830152604482018590529151918716916323b872dd916064808201926020929091908290030181600087803b15801561161b57600080fd5b505af115801561162f573d6000803e3d6000fd5b505050506040513d602081101561164557600080fd5b50505b6000856001600160a01b03166370a08231856040518263ffffffff1660e01b815260040180826001600160a01b03166001600160a01b0316815260200191505060206040518083038186803b1580156116a057600080fd5b505afa1580156116b4573d6000803e3d6000fd5b505050506040513d60208110156116ca57600080fd5b505190508181116116da57600080fd5b50505050505056fe4552525f415554484f52495a45445f414444524553535f4f4e4c590000000000a265627a7a72305820064a82ca9bed101061cbc3f2c3e4b37691449ee4eaaea364d7d35af12c75645864736f6c63430005090032",
  "source": "pragma solidity ^0.5.9;\n\nimport \"../common/SafeMath.sol\";\nimport \"../common/Ownable.sol\";\nimport \"../InterFaces/IAuctionRegistery.sol\";\nimport \"../InterFaces/IAuctionProtection.sol\";\nimport \"../InterFaces/ICurrencyPrices.sol\";\nimport \"../InterFaces/IERC20Token.sol\";\nimport \"../InterFaces/IAuctionFormula.sol\";\nimport \"../InterFaces/IAuction.sol\";\nimport \"../InterFaces/ITokenVault.sol\";\n\n\ncontract AuctionRegistery is Ownable, AuctionRegisteryContracts {\n    IAuctionRegistery public contractsRegistry;\n\n    function updateRegistery(address _address)\n        external\n        onlyAuthorized()\n        notZeroAddress(_address)\n        returns (bool)\n    {\n        contractsRegistry = IAuctionRegistery(_address);\n        return true;\n    }\n\n    function getAddressOf(bytes32 _contractName)\n        internal\n        view\n        returns (address)\n    {\n        return contractsRegistry.getAddressOf(_contractName);\n    }\n}\n\n\ncontract Utils is AuctionRegistery, SafeMath {\n    uint256 public liquadityRatio = 100;\n\n    uint256 public contributionRatio = 100;\n\n    function setLiquadityRatio(uint256 _ratio)\n        external\n        onlySystem()\n        returns (bool)\n    {\n        liquadityRatio = _ratio;\n        return true;\n    }\n\n    function setcContributionRatio(uint256 _ratio)\n        external\n        onlySystem()\n        returns (bool)\n    {\n        contributionRatio = _ratio;\n        return true;\n    }\n}\n\n\ncontract AuctionTagAlong is Utils {\n    constructor(address _systemAddress, address _multisigAdress)\n        public\n        Ownable(_systemAddress, _multisigAdress)\n    {}\n\n    event FundDeposited(address _token, address _from, uint256 _amount);\n\n    function ensureTransferFrom(\n        IERC20Token _token,\n        address _from,\n        address _to,\n        uint256 _amount\n    ) internal {\n        uint256 prevBalance = _token.balanceOf(_to);\n        if (_from == address(this)) _token.transfer(_to, _amount);\n        else _token.transferFrom(_from, _to, _amount);\n        uint256 postBalance = _token.balanceOf(_to);\n        require(postBalance > prevBalance);\n    }\n\n    function approveTransferFrom(\n        IERC20Token _token,\n        address _spender,\n        uint256 _amount\n    ) internal {\n        _token.approve(_spender, _amount);\n    }\n    \n    //selling 10% relay to be developed\n    function contributeTowardLiquadity(uint256 _amount)\n        public\n        returns (uint256)\n    {\n        require(\n            msg.sender == getAddressOf(LIQUADITY),\n            \"ERR_ONLY_AUCTION_ALLWOED\"\n        );\n        \n        if (_amount > address(this).balance) {\n            _amount = address(this).balance;\n            msg.sender.transfer(_amount);\n            return _amount;\n        }\n        \n        msg.sender.transfer(_amount);\n        return _amount;\n    }\n\n    function() external payable {\n        emit FundDeposited(address(0), msg.sender, msg.value);\n    }\n\n    function cancelInvestment() public onlyOwner() returns (bool) {\n        return\n            IAuctionProtection(getAddressOf(AUCTION_PROTECTION))\n                .cancelInvestment();\n    }\n\n    function unLockTokens() public onlyOwner() returns (bool) {\n        return\n            IAuctionProtection(getAddressOf(AUCTION_PROTECTION)).unLockTokens();\n    }\n\n    function returnTokens(IERC20Token _tokens, address _to, uint256 _value)\n        external\n        onlyOwner()\n        returns (bool)\n    {\n        ensureTransferFrom(_tokens, address(this), _to, _value);\n        return true;\n    }\n\n    function withDraw(uint256 _value) external onlyOwner() returns (bool) {\n        msg.sender.transfer(_value);\n        return true;\n    }\n    \n    function depositeEther() external payable returns (bool) {\n        emit FundDeposited(address(0), msg.sender, msg.value);\n        return true;\n    }\n\n    function depositeToken(IERC20Token _token, address _from, uint256 _amount)\n        external\n        returns (bool)\n    {\n        ensureTransferFrom(_token, _from, address(this), _amount);\n        emit FundDeposited(address(0), _from, _amount);\n        return true;\n    }\n}\n",
  "sourcePath": "/home/safu/minddeft/jointerInc/jointer-token/contracts/auctionContracts/AuctionTagAlong.sol",
  "compiler": {
    "name": "solc",
    "version": "0.5.9+commit.e560f70d.Emscripten.clang"
  },
  "schemaVersion": "3.1.0",
  "updatedAt": "2020-05-22T13:05:31.906Z",
  "devdoc": {
    "methods": {
      "changeAuthorityAddress(address)": {
        "details": "change system address",
        "params": {
          "_which": "The address to which is new Authority address"
        }
      },
      "changePrimaryOwner(address)": {
        "details": "change primary ownership",
        "params": {
          "_which": "The address to which is new owner address"
        }
      },
      "changeSystemAddress(address)": {
        "details": "change system address",
        "params": {
          "_which": "The address to which is new system address"
        }
      }
    }
  },
  "userdoc": {
    "methods": {}
  }
}