{
  "contractName": "CurrencyPrices",
  "abi": [
    {
      "constant": false,
      "inputs": [
        {
          "name": "_which",
          "type": "address"
        }
      ],
      "name": "changeSystemAddress",
      "outputs": [
        {
          "name": "",
          "type": "bool"
        }
      ],
      "payable": false,
      "stateMutability": "nonpayable",
      "type": "function"
    },
    {
      "constant": true,
      "inputs": [],
      "name": "newAuthorityAddress",
      "outputs": [
        {
          "name": "",
          "type": "address"
        }
      ],
      "payable": false,
      "stateMutability": "view",
      "type": "function"
    },
    {
      "constant": true,
      "inputs": [
        {
          "name": "",
          "type": "address"
        }
      ],
      "name": "currencyContract",
      "outputs": [
        {
          "name": "",
          "type": "address"
        }
      ],
      "payable": false,
      "stateMutability": "view",
      "type": "function"
    },
    {
      "constant": false,
      "inputs": [],
      "name": "acceptAuthorityAddress",
      "outputs": [
        {
          "name": "",
          "type": "bool"
        }
      ],
      "payable": false,
      "stateMutability": "nonpayable",
      "type": "function"
    },
    {
      "constant": true,
      "inputs": [],
      "name": "authorityAddress",
      "outputs": [
        {
          "name": "",
          "type": "address"
        }
      ],
      "payable": false,
      "stateMutability": "view",
      "type": "function"
    },
    {
      "constant": true,
      "inputs": [],
      "name": "primaryOwner",
      "outputs": [
        {
          "name": "",
          "type": "address"
        }
      ],
      "payable": false,
      "stateMutability": "view",
      "type": "function"
    },
    {
      "constant": false,
      "inputs": [
        {
          "name": "_which",
          "type": "address"
        }
      ],
      "name": "changeAuthorityAddress",
      "outputs": [
        {
          "name": "",
          "type": "bool"
        }
      ],
      "payable": false,
      "stateMutability": "nonpayable",
      "type": "function"
    },
    {
      "constant": false,
      "inputs": [
        {
          "name": "_which",
          "type": "address"
        }
      ],
      "name": "changePrimaryOwner",
      "outputs": [
        {
          "name": "",
          "type": "bool"
        }
      ],
      "payable": false,
      "stateMutability": "nonpayable",
      "type": "function"
    },
    {
      "constant": true,
      "inputs": [],
      "name": "systemAddress",
      "outputs": [
        {
          "name": "",
          "type": "address"
        }
      ],
      "payable": false,
      "stateMutability": "view",
      "type": "function"
    },
    {
      "inputs": [
        {
          "name": "_systemAddress",
          "type": "address"
        },
        {
          "name": "_multisigAddress",
          "type": "address"
        }
      ],
      "payable": false,
      "stateMutability": "nonpayable",
      "type": "constructor"
    },
    {
      "anonymous": false,
      "inputs": [
        {
          "indexed": false,
          "name": "ownerType",
          "type": "string"
        },
        {
          "indexed": true,
          "name": "previousOwner",
          "type": "address"
        },
        {
          "indexed": true,
          "name": "newOwner",
          "type": "address"
        }
      ],
      "name": "OwnershipTransferred",
      "type": "event"
    },
    {
      "anonymous": false,
      "inputs": [
        {
          "indexed": true,
          "name": "previousOwner",
          "type": "address"
        },
        {
          "indexed": true,
          "name": "newOwner",
          "type": "address"
        }
      ],
      "name": "AuthorityAddressChnageCall",
      "type": "event"
    },
    {
      "constant": false,
      "inputs": [
        {
          "name": "_currency",
          "type": "address"
        },
        {
          "name": "_priceFeed",
          "type": "address"
        }
      ],
      "name": "setCurrencyPriceContract",
      "outputs": [
        {
          "name": "",
          "type": "bool"
        }
      ],
      "payable": false,
      "stateMutability": "nonpayable",
      "type": "function"
    },
    {
      "constant": false,
      "inputs": [
        {
          "name": "_currency",
          "type": "address"
        },
        {
          "name": "_priceFeed",
          "type": "address"
        }
      ],
      "name": "updateCurrencyPriceContract",
      "outputs": [
        {
          "name": "",
          "type": "bool"
        }
      ],
      "payable": false,
      "stateMutability": "nonpayable",
      "type": "function"
    },
    {
      "constant": true,
      "inputs": [
        {
          "name": "_which",
          "type": "address"
        }
      ],
      "name": "getCurrencyPrice",
      "outputs": [
        {
          "name": "",
          "type": "uint256"
        }
      ],
      "payable": false,
      "stateMutability": "view",
      "type": "function"
    }
  ],
  "bytecode": "0x6080604052600080546001600160a01b03199081169091556001805482169055600280548216905560038054909116905534801561003c57600080fd5b506040516110d73803806110d78339818101604052604081101561005f57600080fd5b50805160209182015160408051808201909152601081527f4552525f5a45524f5f41444452455353000000000000000000000000000000009381019390935290918290829082906001600160a01b038216610152576040517f08c379a00000000000000000000000000000000000000000000000000000000081526004018080602001828103825283818151815260200191508051906020019080838360005b838110156101175781810151838201526020016100ff565b50505050905090810190601f1680156101445780820380516001836020036101000a031916815260200191505b509250505060405180910390fd5b5060408051808201909152601081527f4552525f53414d455f41444452455353000000000000000000000000000000006020820152336001600160a01b03851614156101f9576040517f08c379a00000000000000000000000000000000000000000000000000000000081526020600482018181528351602484015283519092839260449091019190850190808383600083156101175781810151838201526020016100ff565b50816001600160a01b0316836001600160a01b031614156040518060400160405280601081526020017f4552525f53414d455f4144445245535300000000000000000000000000000000815250906102ac576040517f08c379a00000000000000000000000000000000000000000000000000000000081526020600482018181528351602484015283519092839260449091019190850190808383600083156101175781810151838201526020016100ff565b5060408051808201909152601081527f4552525f53414d455f41444452455353000000000000000000000000000000006020820152336001600160a01b0384161415610353576040517f08c379a00000000000000000000000000000000000000000000000000000000081526020600482018181528351602484015283519092839260449091019190850190808383600083156101175781810151838201526020016100ff565b5050600080546001600160a01b03199081163317909155600280546001600160a01b03948516908316179055600180549290931691161790555050610d3a8061039d6000396000f3fe608060405234801561001057600080fd5b50600436106100b45760003560e01c80637058346f116100715780637058346f1461017b5780638e10be33146101b35780638f51368b146101bb578063b9b4d0d3146101e1578063c4d342681461020f578063d3e848f114610235576100b4565b806304d63089146100b95780630abaad7a146100f3578063182981891461011757806320c462fe1461013d5780633c695d4e1461014557806362163dd41461014d575b600080fd5b6100df600480360360208110156100cf57600080fd5b50356001600160a01b031661023d565b604080519115158252519081900360200190f35b6100fb61054e565b604080516001600160a01b039092168252519081900360200190f35b6100fb6004803603602081101561012d57600080fd5b50356001600160a01b031661055d565b6100df610578565b6100fb61068d565b6100df6004803603604081101561016357600080fd5b506001600160a01b038135811691602001351661069c565b6101a16004803603602081101561019157600080fd5b50356001600160a01b031661074d565b60408051918252519081900360200190f35b6100fb6107cd565b6100df600480360360208110156101d157600080fd5b50356001600160a01b03166107dc565b6100df600480360360408110156101f757600080fd5b506001600160a01b03813581169160200135166109bd565b6100df6004803603602081101561022557600080fd5b50356001600160a01b0316610a93565b6100fb610cd6565b60015460408051808201909152601b8152600080516020610ce683398151915260208201526000916001600160a01b031633146102f85760405162461bcd60e51b81526004018080602001828103825283818151815260200191508051906020019080838360005b838110156102bd5781810151838201526020016102a5565b50505050905090810190601f1680156102ea5780820380516001836020036101000a031916815260200191505b509250505060405180910390fd5b5060408051808201909152601981527f4552525f434f4e54524143545f53454c465f4144445245535300000000000000602082015282906001600160a01b0382163014156103875760405162461bcd60e51b81526020600482018181528351602484015283519092839260449091019190850190808383600083156102bd5781810151838201526020016102a5565b5060408051808201909152601081526f4552525f5a45524f5f4144445245535360801b602082015283906001600160a01b0382166104065760405162461bcd60e51b81526020600482018181528351602484015283519092839260449091019190850190808383600083156102bd5781810151838201526020016102a5565b506002546001600160a01b0385811691161480159061043357506001546001600160a01b03858116911614155b801561044d57506000546001600160a01b03858116911614155b6040518060400160405280601081526020016f4552525f53414d455f4144445245535360801b815250906104c25760405162461bcd60e51b81526020600482018181528351602484015283519092839260449091019190850190808383600083156102bd5781810151838201526020016102a5565b50600254604080516020808252600e908201526d53595354454d5f4144445245535360901b8183015290516001600160a01b038088169316917f6840904f5b31827f74e1497360da245f56e530c8c3de3163a2d31f11493273c6919081900360600190a3600280546001600160a01b0386166001600160a01b0319909116179055600192505050919050565b6003546001600160a01b031681565b6004602052600090815260409020546001600160a01b031681565b60035460408051808201909152601b8152600080516020610ce683398151915260208201526000916001600160a01b031633146105f65760405162461bcd60e51b81526020600482018181528351602484015283519092839260449091019190850190808383600083156102bd5781810151838201526020016102a5565b5060035460015460408051602080825260119082015270415554484f524954595f4144445245535360781b8183015290516001600160a01b039384169392909216917f6840904f5b31827f74e1497360da245f56e530c8c3de3163a2d31f11493273c69181900360600190a35060038054600180546001600160a01b03199081166001600160a01b03841617825590911690915590565b6001546001600160a01b031681565b60015460408051808201909152601b8152600080516020610ce683398151915260208201526000916001600160a01b0316331461071a5760405162461bcd60e51b81526020600482018181528351602484015283519092839260449091019190850190808383600083156102bd5781810151838201526020016102a5565b50506001600160a01b03918216600090815260046020526040902080546001600160a01b03191691909216179055600190565b6001600160a01b038082166000908152600460208181526040808420548151635cf0d06360e11b815291519495169363b9e1a0c6938281019392829003018186803b15801561079b57600080fd5b505afa1580156107af573d6000803e3d6000fd5b505050506040513d60208110156107c557600080fd5b505192915050565b6000546001600160a01b031681565b60015460408051808201909152601b8152600080516020610ce683398151915260208201526000916001600160a01b0316331461085a5760405162461bcd60e51b81526020600482018181528351602484015283519092839260449091019190850190808383600083156102bd5781810151838201526020016102a5565b5060408051808201909152601081526f4552525f5a45524f5f4144445245535360801b602082015282906001600160a01b0382166108d95760405162461bcd60e51b81526020600482018181528351602484015283519092839260449091019190850190808383600083156102bd5781810151838201526020016102a5565b506002546001600160a01b0384811691161480159061090657506001546001600160a01b03848116911614155b801561092057506000546001600160a01b03848116911614155b6040518060400160405280601081526020016f4552525f53414d455f4144445245535360801b815250906109955760405162461bcd60e51b81526020600482018181528351602484015283519092839260449091019190850190808383600083156102bd5781810151838201526020016102a5565b50600380546001600160a01b0385166001600160a01b03199091161790556001915050919050565b60025460408051808201909152601b8152600080516020610ce683398151915260208201526000916001600160a01b03163314610a3b5760405162461bcd60e51b81526020600482018181528351602484015283519092839260449091019190850190808383600083156102bd5781810151838201526020016102a5565b506001600160a01b038381166000908152600460205260409020541615610a6157600080fd5b506001600160a01b03918216600090815260046020526040902080546001600160a01b03191691909216179055600190565b60015460408051808201909152601b8152600080516020610ce683398151915260208201526000916001600160a01b03163314610b115760405162461bcd60e51b81526020600482018181528351602484015283519092839260449091019190850190808383600083156102bd5781810151838201526020016102a5565b5060408051808201909152601081526f4552525f5a45524f5f4144445245535360801b602082015282906001600160a01b038216610b905760405162461bcd60e51b81526020600482018181528351602484015283519092839260449091019190850190808383600083156102bd5781810151838201526020016102a5565b506002546001600160a01b03848116911614801590610bbd57506001546001600160a01b03848116911614155b8015610bd757506000546001600160a01b03848116911614155b6040518060400160405280601081526020016f4552525f53414d455f4144445245535360801b81525090610c4c5760405162461bcd60e51b81526020600482018181528351602484015283519092839260449091019190850190808383600083156102bd5781810151838201526020016102a5565b50600054604080516020808252600d908201526c282924a6a0a92cafa7aba722a960991b8183015290516001600160a01b038087169316917f6840904f5b31827f74e1497360da245f56e530c8c3de3163a2d31f11493273c6919081900360600190a3600080546001600160a01b0385166001600160a01b03199091161790556001915050919050565b6002546001600160a01b03168156fe4552525f415554484f52495a45445f414444524553535f4f4e4c590000000000a265627a7a72305820fcfe3e8e4e32c66183a9d733f7c26cb5b70da5eb600f395296cf8394bd3f1dab64736f6c63430005090032",
  "source": "pragma solidity ^0.5.9;\n\nimport \"../common/Ownable.sol\";\n\n\ncontract IPrice {\n    function getCurrencyPrice() public view returns (uint256);\n}\n\n\ncontract CurrencyPrices is Ownable {\n    mapping(address => address) public currencyContract;\n\n    constructor(address _systemAddress, address _multisigAddress)\n        public\n        Ownable(_systemAddress, _multisigAddress)\n    {}\n\n    function setCurrencyPriceContract(address _currency, address _priceFeed)\n        external\n        onlySystem()\n        returns (bool)\n    {\n        require(currencyContract[_currency] == address(0));\n        currencyContract[_currency] = _priceFeed;\n        return true;\n    }\n\n    function updateCurrencyPriceContract(address _currency, address _priceFeed)\n        external\n        onlyAuthorized()\n        returns (bool)\n    {\n        currencyContract[_currency] = _priceFeed;\n        return true;\n    }\n\n    function getCurrencyPrice(address _which) public view returns (uint256) {\n        return IPrice(currencyContract[_which]).getCurrencyPrice();\n    }\n}\n",
  "sourcePath": "/home/mind/Work/Projects/Jointer/Jointer_auction/NewContracts/contracts/Pricing/CurrencyPrice.sol",
  "compiler": {
    "name": "solc",
    "version": "0.5.9+commit.e560f70d.Emscripten.clang"
  },
  "schemaVersion": "3.0.16",
  "updatedAt": "2020-05-13T15:06:46.204Z",
  "devdoc": {
    "methods": {
      "changeAuthorityAddress(address)": {
        "details": "change system address",
        "params": {
          "_which": "The address to which is new Authority address"
        }
      },
      "changePrimaryOwner(address)": {
        "details": "change primary ownership",
        "params": {
          "_which": "The address to which is new owner address"
        }
      },
      "changeSystemAddress(address)": {
        "details": "change system address",
        "params": {
          "_which": "The address to which is new system address"
        }
      }
    }
  },
  "userdoc": {
    "methods": {}
  }
}