{
  "contractName": "CurrencyPrices",
  "abi": [
    {
      "constant": true,
      "inputs": [
        {
          "name": "",
          "type": "address"
        }
      ],
      "name": "currencyPrices",
      "outputs": [
        {
          "name": "",
          "type": "uint256"
        }
      ],
      "payable": false,
      "stateMutability": "view",
      "type": "function"
    },
    {
      "constant": true,
      "inputs": [],
      "name": "owner",
      "outputs": [
        {
          "name": "",
          "type": "address"
        }
      ],
      "payable": false,
      "stateMutability": "view",
      "type": "function"
    },
    {
      "constant": false,
      "inputs": [
        {
          "name": "newOwner",
          "type": "address"
        }
      ],
      "name": "transferOwnership",
      "outputs": [],
      "payable": false,
      "stateMutability": "nonpayable",
      "type": "function"
    },
    {
      "anonymous": false,
      "inputs": [
        {
          "indexed": true,
          "name": "previousOwner",
          "type": "address"
        },
        {
          "indexed": true,
          "name": "newOwner",
          "type": "address"
        }
      ],
      "name": "OwnershipTransferred",
      "type": "event"
    },
    {
      "constant": false,
      "inputs": [
        {
          "name": "_currency",
          "type": "address[]"
        },
        {
          "name": "_price",
          "type": "uint256[]"
        }
      ],
      "name": "setCurrencyPriceUSD",
      "outputs": [],
      "payable": false,
      "stateMutability": "nonpayable",
      "type": "function"
    },
    {
      "constant": true,
      "inputs": [
        {
          "name": "_which",
          "type": "address"
        }
      ],
      "name": "getCurrencyPrice",
      "outputs": [
        {
          "name": "",
          "type": "uint256"
        }
      ],
      "payable": false,
      "stateMutability": "view",
      "type": "function"
    }
  ],
  "bytecode": "0x6080604052600080546001600160a01b031916331790556103c8806100256000396000f3fe608060405234801561001057600080fd5b50600436106100575760003560e01c8063228bba061461005c5780632ee8f8d3146101855780637058346f146101bd5780638da5cb5b146101e3578063f2fde38b14610207575b600080fd5b6101836004803603604081101561007257600080fd5b81019060208101813564010000000081111561008d57600080fd5b82018360208201111561009f57600080fd5b803590602001918460208302840111640100000000831117156100c157600080fd5b919080806020026020016040519081016040528093929190818152602001838360200280828437600092019190915250929594936020810193503591505064010000000081111561011157600080fd5b82018360208201111561012357600080fd5b8035906020019184602083028401116401000000008311171561014557600080fd5b91908080602002602001604051908101604052809392919081815260200183836020028082843760009201919091525092955061022d945050505050565b005b6101ab6004803603602081101561019b57600080fd5b50356001600160a01b03166102d2565b60408051918252519081900360200190f35b6101ab600480360360208110156101d357600080fd5b50356001600160a01b03166102e4565b6101eb6102ff565b604080516001600160a01b039092168252519081900360200190f35b6101836004803603602081101561021d57600080fd5b50356001600160a01b031661030e565b6000546001600160a01b0316331461024457600080fd5b60005b82518160ff1610156102cd57818160ff168151811061026257fe5b60200260200101516000141561027757600080fd5b818160ff168151811061028657fe5b602002602001015160016000858460ff16815181106102a157fe5b6020908102919091018101516001600160a01b0316825281019190915260400160002055600101610247565b505050565b60016020526000908152604090205481565b6001600160a01b031660009081526001602052604090205490565b6000546001600160a01b031681565b6000546001600160a01b0316331461032557600080fd5b6001600160a01b03811661033857600080fd5b600080546040516001600160a01b03808516939216917f8be0079c531659141344cd1fd0a4f28419497f9722a3daafe3b4186f6b6457e091a3600080546001600160a01b0319166001600160a01b039290921691909117905556fea265627a7a7230582045870b926f137e0c0d9e6d62e06259ff23d006a8781266c9546e8e4a46c99de264736f6c63430005090032",
  "source": "pragma solidity ^0.5.9;\n\ncontract Ownable {\n  address public owner;\n\n\n  event OwnershipTransferred(address indexed previousOwner, address indexed newOwner);\n\n\n  /**\n   * @dev The Ownable constructor sets the original `owner` of the contract to the sender\n   * account.\n   */\n  constructor() public {\n    owner = msg.sender;\n  }\n\n\n  /**\n   * @dev Throws if called by any account other than the owner.\n   */\n  modifier onlyOwner() {\n    require(msg.sender == owner);\n    _;\n  }\n\n\n  /**\n   * @dev Allows the current owner to transfer control of the contract to a newOwner.\n   * @param newOwner The address to transfer ownership to.\n   */\n  function transferOwnership(address newOwner) public onlyOwner {\n    require(newOwner != address(0));\n    emit OwnershipTransferred(owner, newOwner);\n    owner = newOwner;\n  }\n\n}\n\n\ncontract CurrencyPrices is Ownable {\n    \n    mapping (address => uint256) public currencyPrices;\n    \n    //Owner can Set Currency price\n    //@ param _price Current price of currency.\n    // currency Price set in 6 decimal\n    function setCurrencyPriceUSD(address[] memory _currency, uint256[] memory _price) public onlyOwner {\n        for(uint8 i = 0; i < _currency.length; i++){\n            require(_price[i] != 0);\n            currencyPrices[_currency[i]] = _price[i];   \n        }\n    }\n    \n    \n    function getCurrencyPrice(address _which) public view returns(uint256){\n        return currencyPrices[_which];\n    }\n}",
  "sourcePath": "/home/mind/Work/Projects/Jointer/Jointer_auction/NewContracts/contracts/common/CurrencyPrice.sol",
  "compiler": {
    "name": "solc",
    "version": "0.5.9+commit.e560f70d.Emscripten.clang"
  },
  "schemaVersion": "3.0.16",
  "updatedAt": "2020-05-04T15:22:11.002Z",
  "devdoc": {
    "methods": {
      "transferOwnership(address)": {
        "details": "Allows the current owner to transfer control of the contract to a newOwner.",
        "params": {
          "newOwner": "The address to transfer ownership to."
        }
      }
    }
  },
  "userdoc": {
    "methods": {}
  }
}