{
  "contractName": "ERC20",
  "abi": [
    {
      "constant": true,
      "inputs": [],
      "name": "name",
      "outputs": [
        {
          "name": "",
          "type": "string"
        }
      ],
      "payable": false,
      "stateMutability": "view",
      "type": "function"
    },
    {
      "constant": true,
      "inputs": [],
      "name": "totalSupply",
      "outputs": [
        {
          "name": "",
          "type": "uint256"
        }
      ],
      "payable": false,
      "stateMutability": "view",
      "type": "function"
    },
    {
      "constant": true,
      "inputs": [],
      "name": "PERMIT_TYPEHASH",
      "outputs": [
        {
          "name": "",
          "type": "bytes32"
        }
      ],
      "payable": false,
      "stateMutability": "view",
      "type": "function"
    },
    {
      "constant": true,
      "inputs": [],
      "name": "decimals",
      "outputs": [
        {
          "name": "",
          "type": "uint8"
        }
      ],
      "payable": false,
      "stateMutability": "view",
      "type": "function"
    },
    {
      "constant": true,
      "inputs": [],
      "name": "DOMAIN_SEPARATOR",
      "outputs": [
        {
          "name": "",
          "type": "bytes32"
        }
      ],
      "payable": false,
      "stateMutability": "view",
      "type": "function"
    },
    {
      "constant": true,
      "inputs": [],
      "name": "version",
      "outputs": [
        {
          "name": "",
          "type": "string"
        }
      ],
      "payable": false,
      "stateMutability": "view",
      "type": "function"
    },
    {
      "constant": true,
      "inputs": [
        {
          "name": "",
          "type": "address"
        }
      ],
      "name": "balanceOf",
      "outputs": [
        {
          "name": "",
          "type": "uint256"
        }
      ],
      "payable": false,
      "stateMutability": "view",
      "type": "function"
    },
    {
      "constant": true,
      "inputs": [
        {
          "name": "",
          "type": "address"
        }
      ],
      "name": "nonces",
      "outputs": [
        {
          "name": "",
          "type": "uint256"
        }
      ],
      "payable": false,
      "stateMutability": "view",
      "type": "function"
    },
    {
      "constant": true,
      "inputs": [],
      "name": "symbol",
      "outputs": [
        {
          "name": "",
          "type": "string"
        }
      ],
      "payable": false,
      "stateMutability": "view",
      "type": "function"
    },
    {
      "constant": true,
      "inputs": [
        {
          "name": "",
          "type": "address"
        }
      ],
      "name": "wards",
      "outputs": [
        {
          "name": "",
          "type": "uint256"
        }
      ],
      "payable": false,
      "stateMutability": "view",
      "type": "function"
    },
    {
      "constant": true,
      "inputs": [
        {
          "name": "",
          "type": "address"
        },
        {
          "name": "",
          "type": "address"
        }
      ],
      "name": "allowance",
      "outputs": [
        {
          "name": "",
          "type": "uint256"
        }
      ],
      "payable": false,
      "stateMutability": "view",
      "type": "function"
    },
    {
      "inputs": [
        {
          "name": "symbol_",
          "type": "string"
        },
        {
          "name": "name_",
          "type": "string"
        },
        {
          "name": "version_",
          "type": "string"
        },
        {
          "name": "chainId_",
          "type": "uint256"
        }
      ],
      "payable": false,
      "stateMutability": "nonpayable",
      "type": "constructor"
    },
    {
      "anonymous": false,
      "inputs": [
        {
          "indexed": true,
          "name": "src",
          "type": "address"
        },
        {
          "indexed": true,
          "name": "guy",
          "type": "address"
        },
        {
          "indexed": false,
          "name": "wad",
          "type": "uint256"
        }
      ],
      "name": "Approval",
      "type": "event"
    },
    {
      "anonymous": false,
      "inputs": [
        {
          "indexed": true,
          "name": "src",
          "type": "address"
        },
        {
          "indexed": true,
          "name": "dst",
          "type": "address"
        },
        {
          "indexed": false,
          "name": "wad",
          "type": "uint256"
        }
      ],
      "name": "Transfer",
      "type": "event"
    },
    {
      "constant": false,
      "inputs": [
        {
          "name": "guy",
          "type": "address"
        }
      ],
      "name": "rely",
      "outputs": [],
      "payable": false,
      "stateMutability": "nonpayable",
      "type": "function"
    },
    {
      "constant": false,
      "inputs": [
        {
          "name": "guy",
          "type": "address"
        }
      ],
      "name": "deny",
      "outputs": [],
      "payable": false,
      "stateMutability": "nonpayable",
      "type": "function"
    },
    {
      "constant": false,
      "inputs": [
        {
          "name": "dst",
          "type": "address"
        },
        {
          "name": "wad",
          "type": "uint256"
        }
      ],
      "name": "transfer",
      "outputs": [
        {
          "name": "",
          "type": "bool"
        }
      ],
      "payable": false,
      "stateMutability": "nonpayable",
      "type": "function"
    },
    {
      "constant": false,
      "inputs": [
        {
          "name": "src",
          "type": "address"
        },
        {
          "name": "dst",
          "type": "address"
        },
        {
          "name": "wad",
          "type": "uint256"
        }
      ],
      "name": "transferFrom",
      "outputs": [
        {
          "name": "",
          "type": "bool"
        }
      ],
      "payable": false,
      "stateMutability": "nonpayable",
      "type": "function"
    },
    {
      "constant": false,
      "inputs": [
        {
          "name": "usr",
          "type": "address"
        },
        {
          "name": "wad",
          "type": "uint256"
        }
      ],
      "name": "mint",
      "outputs": [],
      "payable": false,
      "stateMutability": "nonpayable",
      "type": "function"
    },
    {
      "constant": false,
      "inputs": [
        {
          "name": "usr",
          "type": "address"
        },
        {
          "name": "wad",
          "type": "uint256"
        }
      ],
      "name": "burn",
      "outputs": [],
      "payable": false,
      "stateMutability": "nonpayable",
      "type": "function"
    },
    {
      "constant": false,
      "inputs": [
        {
          "name": "usr",
          "type": "address"
        },
        {
          "name": "wad",
          "type": "uint256"
        }
      ],
      "name": "approve",
      "outputs": [
        {
          "name": "",
          "type": "bool"
        }
      ],
      "payable": false,
      "stateMutability": "nonpayable",
      "type": "function"
    },
    {
      "constant": false,
      "inputs": [
        {
          "name": "usr",
          "type": "address"
        },
        {
          "name": "wad",
          "type": "uint256"
        }
      ],
      "name": "push",
      "outputs": [],
      "payable": false,
      "stateMutability": "nonpayable",
      "type": "function"
    },
    {
      "constant": false,
      "inputs": [
        {
          "name": "usr",
          "type": "address"
        },
        {
          "name": "wad",
          "type": "uint256"
        }
      ],
      "name": "pull",
      "outputs": [],
      "payable": false,
      "stateMutability": "nonpayable",
      "type": "function"
    },
    {
      "constant": false,
      "inputs": [
        {
          "name": "src",
          "type": "address"
        },
        {
          "name": "dst",
          "type": "address"
        },
        {
          "name": "wad",
          "type": "uint256"
        }
      ],
      "name": "move",
      "outputs": [],
      "payable": false,
      "stateMutability": "nonpayable",
      "type": "function"
    },
    {
      "constant": false,
      "inputs": [
        {
          "name": "holder",
          "type": "address"
        },
        {
          "name": "spender",
          "type": "address"
        },
        {
          "name": "nonce",
          "type": "uint256"
        },
        {
          "name": "expiry",
          "type": "uint256"
        },
        {
          "name": "allowed",
          "type": "bool"
        },
        {
          "name": "v",
          "type": "uint8"
        },
        {
          "name": "r",
          "type": "bytes32"
        },
        {
          "name": "s",
          "type": "bytes32"
        }
      ],
      "name": "permit",
      "outputs": [],
      "payable": false,
      "stateMutability": "nonpayable",
      "type": "function"
    }
  ],
  "bytecode": "0x60806040526001805460ff191660121790553480156200001e57600080fd5b50604051620011a9380380620011a9833981810160405260808110156200004457600080fd5b8101908080516401000000008111156200005d57600080fd5b820160208101848111156200007157600080fd5b81516401000000008111828201871017156200008c57600080fd5b50509291906020018051640100000000811115620000a957600080fd5b82016020810184811115620000bd57600080fd5b8151640100000000811182820187101715620000d857600080fd5b50509291906020018051640100000000811115620000f557600080fd5b820160208101848111156200010957600080fd5b81516401000000008111828201871017156200012457600080fd5b505060209182015133600090815280845260409020600190558651919450925062000156916003919087019062000208565b5082516200016c90600290602086019062000208565b50604051806052620011578239604080519182900360520182207f4461692053656d692d4175746f6d61746564205065726d6974204f66666963658352815192839003602090810184208751978201979097208482019290925283830196909652606083015260808201939093523060a0808301919091528351808303909101815260c090910190925250805191012060095550620002ad9050565b828054600181600116156101000203166002900490600052602060002090601f016020900481019282601f106200024b57805160ff19168380011785556200027b565b828001600101855582156200027b579182015b828111156200027b5782518255916020019190600101906200025e565b50620002899291506200028d565b5090565b620002aa91905b8082111562000289576000815560010162000294565b90565b610e9a80620002bd6000396000f3fe608060405234801561001057600080fd5b50600436106101425760003560e01c80637ecebe00116100b8578063a9059cbb1161007c578063a9059cbb146103de578063b753a98c1461040a578063bb35783b14610436578063bf353dbb1461046c578063dd62ed3e14610492578063f2d5d56b146104c057610142565b80637ecebe00146103045780638fcbaf0c1461032a57806395d89b41146103845780639c52a7f11461038c5780639dc29fac146103b257610142565b8063313ce5671161010a578063313ce5671461025c5780633644e5151461027a57806340c10f191461028257806354fd4d50146102b057806365fae35e146102b857806370a08231146102de57610142565b806306fdde0314610147578063095ea7b3146101c457806318160ddd1461020457806323b872dd1461021e57806330adf81f14610254575b600080fd5b61014f6104ec565b6040805160208082528351818301528351919283929083019185019080838360005b83811015610189578181015183820152602001610171565b50505050905090810190601f1680156101b65780820380516001836020036101000a031916815260200191505b509250505060405180910390f35b6101f0600480360360408110156101da57600080fd5b506001600160a01b038135169060200135610577565b604080519115158252519081900360200190f35b61020c6105de565b60408051918252519081900360200190f35b6101f06004803603606081101561023457600080fd5b506001600160a01b038135811691602081013590911690604001356105e4565b61020c61072f565b61026461074a565b6040805160ff9092168252519081900360200190f35b61020c610753565b6102ae6004803603604081101561029857600080fd5b506001600160a01b038135169060200135610759565b005b61014f610806565b6102ae600480360360208110156102ce57600080fd5b50356001600160a01b0316610861565b61020c600480360360208110156102f457600080fd5b50356001600160a01b031661089a565b61020c6004803603602081101561031a57600080fd5b50356001600160a01b03166108ac565b6102ae600480360361010081101561034157600080fd5b506001600160a01b038135811691602081013590911690604081013590606081013590608081013515159060ff60a0820135169060c08101359060e001356108be565b61014f610b55565b6102ae600480360360208110156103a257600080fd5b50356001600160a01b0316610bb0565b6102ae600480360360408110156103c857600080fd5b506001600160a01b038135169060200135610be6565b6101f0600480360360408110156103f457600080fd5b506001600160a01b038135169060200135610d0d565b6102ae6004803603604081101561042057600080fd5b506001600160a01b038135169060200135610d21565b6102ae6004803603606081101561044c57600080fd5b506001600160a01b03813581169160208101359091169060400135610d31565b61020c6004803603602081101561048257600080fd5b50356001600160a01b0316610d42565b61020c600480360360408110156104a857600080fd5b506001600160a01b0381358116916020013516610d54565b6102ae600480360360408110156104d657600080fd5b506001600160a01b038135169060200135610d71565b6002805460408051602060018416156101000260001901909316849004601f8101849004840282018401909252818152929183018282801561056f5780601f106105445761010080835404028352916020019161056f565b820191906000526020600020905b81548152906001019060200180831161055257829003601f168201915b505050505081565b3360008181526007602090815260408083206001600160a01b038716808552908352818420869055815186815291519394909390927f8c5be1e5ebec7d5bd14f71427d1e84f3dd0314c0f7b2291e5b200ac8c7c3b925928290030190a35060015b92915050565b60055481565b60006001600160a01b038416331480159061062457506001600160a01b038416600090815260076020908152604080832033845290915290205460001914155b1561067c576001600160a01b03841660009081526007602090815260408083203384529091529020546106579083610d7c565b6001600160a01b03851660009081526007602090815260408083203384529091529020555b6001600160a01b03841660009081526006602052604090205461069f9083610d7c565b6001600160a01b0380861660009081526006602052604080822093909355908516815220546106ce9083610dc9565b6001600160a01b0380851660008181526006602090815260409182902094909455805186815290519193928816927fddf252ad1be2c89b69c2b068fc378daa952ba7f163c4a11628f55a4df523b3ef92918290030190a35060019392505050565b604051806050610e1682396050019050604051809103902081565b60015460ff1681565b60095481565b3360009081526020819052604090205460011461077557600080fd5b6001600160a01b0382166000908152600660205260409020546107989082610dc9565b6001600160a01b0383166000908152600660205260409020556005546107be9082610dc9565b6005556040805182815290516001600160a01b038416916000917fddf252ad1be2c89b69c2b068fc378daa952ba7f163c4a11628f55a4df523b3ef9181900360200190a35050565b6004805460408051602060026001851615610100026000190190941693909304601f8101849004840282018401909252818152929183018282801561056f5780601f106105445761010080835404028352916020019161056f565b3360009081526020819052604090205460011461087d57600080fd5b6001600160a01b0316600090815260208190526040902060019055565b60066020526000908152604090205481565b60086020526000908152604090205481565b60006009546040518080610e1660509139604080519182900360500182206020808401919091526001600160a01b03808f16848401528d166060840152608083018c905260a083018b905289151560c0808501919091528251808503909101815260e08401835280519082012061190160f01b610100850152610102840195909552610122808401959095528151808403909501855261014283018083528551958201959095206000909552610162830180835285905260ff89166101828401526101a283018890526101c2830187905290519394506001936101e280840194509192601f19820192908290030190855afa1580156109c1573d6000803e3d6000fd5b505050602060405103516001600160a01b0316896001600160a01b031614610a21576040805162461bcd60e51b815260206004820152600e60248201526d1a5b9d985b1a59081c195c9b5a5d60921b604482015290519081900360640190fd5b851580610a2e5750854211155b610a70576040805162461bcd60e51b815260206004820152600e60248201526d1c195c9b5a5d08195e1c1a5c995960921b604482015290519081900360640190fd5b6001600160a01b03891660009081526008602052604090208054600181019091558714610ad4576040805162461bcd60e51b815260206004820152600d60248201526c696e76616c6964206e6f6e636560981b604482015290519081900360640190fd5b600085610ae2576000610ae6565b6000195b6001600160a01b03808c166000818152600760209081526040808320948f168084529482529182902085905581518581529151949550929391927f8c5be1e5ebec7d5bd14f71427d1e84f3dd0314c0f7b2291e5b200ac8c7c3b92592918290030190a350505050505050505050565b6003805460408051602060026001851615610100026000190190941693909304601f8101849004840282018401909252818152929183018282801561056f5780601f106105445761010080835404028352916020019161056f565b33600090815260208190526040902054600114610bcc57600080fd5b6001600160a01b0316600090815260208190526040812055565b6001600160a01b0382163314801590610c2457506001600160a01b038216600090815260076020908152604080832033845290915290205460001914155b15610c7c576001600160a01b0382166000908152600760209081526040808320338452909152902054610c579082610d7c565b6001600160a01b03831660009081526007602090815260408083203384529091529020555b6001600160a01b038216600090815260066020526040902054610c9f9082610d7c565b6001600160a01b038316600090815260066020526040902055600554610cc59082610d7c565b6005556040805182815290516000916001600160a01b038516917fddf252ad1be2c89b69c2b068fc378daa952ba7f163c4a11628f55a4df523b3ef9181900360200190a35050565b6000610d1a3384846105e4565b9392505050565b610d2c3383836105e4565b505050565b610d3c8383836105e4565b50505050565b60006020819052908152604090205481565b600760209081526000928352604080842090915290825290205481565b610d2c8233836105e4565b808203828111156105d8576040805162461bcd60e51b81526020600482015260126024820152716d6174682d7375622d756e646572666c6f7760701b604482015290519081900360640190fd5b808201828110156105d8576040805162461bcd60e51b81526020600482015260116024820152706d6174682d6164642d6f766572666c6f7760781b604482015290519081900360640190fdfe5065726d6974286164647265737320686f6c6465722c61646472657373207370656e6465722c75696e74323536206e6f6e63652c75696e74323536206578706972792c626f6f6c20616c6c6f77656429a265627a7a72305820cf21eef909010f4dcd24ee27888d2628f478a631aa7749e3f35f433e4e6081f864736f6c63430005090032454950373132446f6d61696e28737472696e67206e616d652c737472696e672076657273696f6e2c75696e7432353620636861696e49642c6164647265737320766572696679696e67436f6e747261637429",
  "source": "pragma solidity ^0.5.9;\n\n\n//on ropsten : 0x59DdAdcE870827186fC0aB55d8BFA9C601c3C4C0\n//on matic: 0x58AaBb5dbE1DA9329Dc45eBac9b6476c1BDe2213\ncontract ERC20 {\n    // --- Auth ---\n    mapping(address => uint256) public wards;\n\n    function rely(address guy) public auth {\n        wards[guy] = 1;\n    }\n\n    function deny(address guy) public auth {\n        wards[guy] = 0;\n    }\n\n    modifier auth {\n        require(wards[msg.sender] == 1);\n        _;\n    }\n\n    // --- ERC20 Data ---\n    uint8 public decimals = 18;\n    string public name;\n    string public symbol;\n    string public version;\n    uint256 public totalSupply;\n\n    mapping(address => uint256) public balanceOf;\n    mapping(address => mapping(address => uint256)) public allowance;\n    mapping(address => uint256) public nonces;\n\n    event Approval(address indexed src, address indexed guy, uint256 wad);\n    event Transfer(address indexed src, address indexed dst, uint256 wad);\n\n    // --- Math ---\n    function add(uint256 x, uint256 y) internal pure returns (uint256 z) {\n        require((z = x + y) >= x, \"math-add-overflow\");\n    }\n\n    function sub(uint256 x, uint256 y) internal pure returns (uint256 z) {\n        require((z = x - y) <= x, \"math-sub-underflow\");\n    }\n\n    // --- EIP712 niceties ---\n    bytes32 public DOMAIN_SEPARATOR;\n    bytes32 public constant PERMIT_TYPEHASH = keccak256(\n        \"Permit(address holder,address spender,uint256 nonce,uint256 expiry,bool allowed)\"\n    );\n\n    constructor(\n        string memory symbol_,\n        string memory name_,\n        string memory version_,\n        uint256 chainId_\n    ) public {\n        wards[msg.sender] = 1;\n        symbol = symbol_;\n        name = name_;\n        DOMAIN_SEPARATOR = keccak256(\n            abi.encode(\n                keccak256(\n                    \"EIP712Domain(string name,string version,uint256 chainId,address verifyingContract)\"\n                ),\n                keccak256(\"Dai Semi-Automated Permit Office\"),\n                keccak256(bytes(version_)),\n                chainId_,\n                address(this)\n            )\n        );\n    }\n\n    // --- Token ---\n    function transfer(address dst, uint256 wad) public returns (bool) {\n        return transferFrom(msg.sender, dst, wad);\n    }\n\n    function transferFrom(address src, address dst, uint256 wad)\n        public\n        returns (bool)\n    {\n        if (src != msg.sender && allowance[src][msg.sender] != uint256(-1)) {\n            allowance[src][msg.sender] = sub(allowance[src][msg.sender], wad);\n        }\n        balanceOf[src] = sub(balanceOf[src], wad);\n        balanceOf[dst] = add(balanceOf[dst], wad);\n        emit Transfer(src, dst, wad);\n        return true;\n    }\n\n    function mint(address usr, uint256 wad) public auth {\n        balanceOf[usr] = add(balanceOf[usr], wad);\n        totalSupply = add(totalSupply, wad);\n        emit Transfer(address(0), usr, wad);\n    }\n\n    function burn(address usr, uint256 wad) public {\n        if (usr != msg.sender && allowance[usr][msg.sender] != uint256(-1)) {\n            allowance[usr][msg.sender] = sub(allowance[usr][msg.sender], wad);\n        }\n        balanceOf[usr] = sub(balanceOf[usr], wad);\n        totalSupply = sub(totalSupply, wad);\n        emit Transfer(usr, address(0), wad);\n    }\n\n    function approve(address usr, uint256 wad) public returns (bool) {\n        allowance[msg.sender][usr] = wad;\n        emit Approval(msg.sender, usr, wad);\n        return true;\n    }\n\n    // --- Alias ---\n    function push(address usr, uint256 wad) public {\n        transferFrom(msg.sender, usr, wad);\n    }\n\n    function pull(address usr, uint256 wad) public {\n        transferFrom(usr, msg.sender, wad);\n    }\n\n    function move(address src, address dst, uint256 wad) public {\n        transferFrom(src, dst, wad);\n    }\n\n    // --- Approve by signature ---\n    function permit(\n        address holder,\n        address spender,\n        uint256 nonce,\n        uint256 expiry,\n        bool allowed,\n        uint8 v,\n        bytes32 r,\n        bytes32 s\n    ) public {\n        bytes32 digest = keccak256(\n            abi.encodePacked(\n                \"\\x19\\x01\",\n                DOMAIN_SEPARATOR,\n                keccak256(\n                    abi.encode(\n                        PERMIT_TYPEHASH,\n                        holder,\n                        spender,\n                        nonce,\n                        expiry,\n                        allowed\n                    )\n                )\n            )\n        );\n        require(holder == ecrecover(digest, v, r, s), \"invalid permit\");\n        require(expiry == 0 || now <= expiry, \"permit expired\");\n        require(nonce == nonces[holder]++, \"invalid nonce\");\n        uint256 wad = allowed ? uint256(-1) : 0;\n        allowance[holder][spender] = wad;\n        emit Approval(holder, spender, wad);\n    }\n}\n",
  "sourcePath": "/home/mind/Work/Projects/Jointer/Jointer_auction/NewContracts/contracts/test/ERC20.sol",
  "compiler": {
    "name": "solc",
    "version": "0.5.9+commit.e560f70d.Emscripten.clang"
  },
  "schemaVersion": "3.0.16",
  "updatedAt": "2020-04-27T13:53:30.433Z",
  "devdoc": {
    "methods": {}
  },
  "userdoc": {
    "methods": {}
  }
}