{
  "contractName": "EthPriceTicker",
  "abi": [
    {
      "constant": false,
      "inputs": [
        {
          "name": "_which",
          "type": "address"
        }
      ],
      "name": "changeSystemAddress",
      "outputs": [
        {
          "name": "",
          "type": "bool"
        }
      ],
      "payable": false,
      "stateMutability": "nonpayable",
      "type": "function"
    },
    {
      "constant": true,
      "inputs": [],
      "name": "newAuthorityAddress",
      "outputs": [
        {
          "name": "",
          "type": "address"
        }
      ],
      "payable": false,
      "stateMutability": "view",
      "type": "function"
    },
    {
      "constant": false,
      "inputs": [],
      "name": "acceptAuthorityAddress",
      "outputs": [
        {
          "name": "",
          "type": "bool"
        }
      ],
      "payable": false,
      "stateMutability": "nonpayable",
      "type": "function"
    },
    {
      "constant": true,
      "inputs": [
        {
          "name": "",
          "type": "uint256"
        }
      ],
      "name": "parameters",
      "outputs": [
        {
          "name": "",
          "type": "string"
        }
      ],
      "payable": false,
      "stateMutability": "view",
      "type": "function"
    },
    {
      "constant": true,
      "inputs": [],
      "name": "authorityAddress",
      "outputs": [
        {
          "name": "",
          "type": "address"
        }
      ],
      "payable": false,
      "stateMutability": "view",
      "type": "function"
    },
    {
      "constant": true,
      "inputs": [],
      "name": "priceETHUSD",
      "outputs": [
        {
          "name": "",
          "type": "uint256"
        }
      ],
      "payable": false,
      "stateMutability": "view",
      "type": "function"
    },
    {
      "constant": true,
      "inputs": [],
      "name": "primaryOwner",
      "outputs": [
        {
          "name": "",
          "type": "address"
        }
      ],
      "payable": false,
      "stateMutability": "view",
      "type": "function"
    },
    {
      "constant": false,
      "inputs": [
        {
          "name": "_which",
          "type": "address"
        }
      ],
      "name": "changeAuthorityAddress",
      "outputs": [
        {
          "name": "",
          "type": "bool"
        }
      ],
      "payable": false,
      "stateMutability": "nonpayable",
      "type": "function"
    },
    {
      "constant": true,
      "inputs": [],
      "name": "currentGasLimit",
      "outputs": [
        {
          "name": "",
          "type": "uint256"
        }
      ],
      "payable": false,
      "stateMutability": "view",
      "type": "function"
    },
    {
      "constant": true,
      "inputs": [],
      "name": "currentGasPrice",
      "outputs": [
        {
          "name": "",
          "type": "uint256"
        }
      ],
      "payable": false,
      "stateMutability": "view",
      "type": "function"
    },
    {
      "constant": false,
      "inputs": [
        {
          "name": "_which",
          "type": "address"
        }
      ],
      "name": "changePrimaryOwner",
      "outputs": [
        {
          "name": "",
          "type": "bool"
        }
      ],
      "payable": false,
      "stateMutability": "nonpayable",
      "type": "function"
    },
    {
      "constant": true,
      "inputs": [],
      "name": "systemAddress",
      "outputs": [
        {
          "name": "",
          "type": "address"
        }
      ],
      "payable": false,
      "stateMutability": "view",
      "type": "function"
    },
    {
      "inputs": [
        {
          "name": "_systemAddress",
          "type": "address"
        },
        {
          "name": "_multisigAddress",
          "type": "address"
        },
        {
          "name": "_parameter",
          "type": "string"
        }
      ],
      "payable": true,
      "stateMutability": "payable",
      "type": "constructor"
    },
    {
      "payable": true,
      "stateMutability": "payable",
      "type": "fallback"
    },
    {
      "anonymous": false,
      "inputs": [
        {
          "indexed": false,
          "name": "description",
          "type": "string"
        }
      ],
      "name": "LogNewProvableQuery",
      "type": "event"
    },
    {
      "anonymous": false,
      "inputs": [
        {
          "indexed": false,
          "name": "price",
          "type": "uint256"
        }
      ],
      "name": "LogNewEthPriceTicker",
      "type": "event"
    },
    {
      "anonymous": false,
      "inputs": [
        {
          "indexed": false,
          "name": "proof",
          "type": "bytes"
        }
      ],
      "name": "LogProof",
      "type": "event"
    },
    {
      "anonymous": false,
      "inputs": [
        {
          "indexed": false,
          "name": "ownerType",
          "type": "string"
        },
        {
          "indexed": true,
          "name": "previousOwner",
          "type": "address"
        },
        {
          "indexed": true,
          "name": "newOwner",
          "type": "address"
        }
      ],
      "name": "OwnershipTransferred",
      "type": "event"
    },
    {
      "anonymous": false,
      "inputs": [
        {
          "indexed": true,
          "name": "previousOwner",
          "type": "address"
        },
        {
          "indexed": true,
          "name": "newOwner",
          "type": "address"
        }
      ],
      "name": "AuthorityAddressChnageCall",
      "type": "event"
    },
    {
      "constant": false,
      "inputs": [
        {
          "name": "_gasPrice",
          "type": "uint256"
        }
      ],
      "name": "setGasPrice",
      "outputs": [],
      "payable": false,
      "stateMutability": "nonpayable",
      "type": "function"
    },
    {
      "constant": false,
      "inputs": [
        {
          "name": "_gasLimit",
          "type": "uint256"
        }
      ],
      "name": "setGasLimit",
      "outputs": [],
      "payable": false,
      "stateMutability": "nonpayable",
      "type": "function"
    },
    {
      "constant": false,
      "inputs": [
        {
          "name": "_parameter",
          "type": "string"
        }
      ],
      "name": "updateParameter",
      "outputs": [],
      "payable": false,
      "stateMutability": "nonpayable",
      "type": "function"
    },
    {
      "constant": false,
      "inputs": [
        {
          "name": "_myid",
          "type": "bytes32"
        },
        {
          "name": "_result",
          "type": "string"
        }
      ],
      "name": "__callback",
      "outputs": [],
      "payable": false,
      "stateMutability": "nonpayable",
      "type": "function"
    },
    {
      "constant": false,
      "inputs": [
        {
          "name": "_myid",
          "type": "bytes32"
        },
        {
          "name": "_result",
          "type": "string"
        },
        {
          "name": "_proof",
          "type": "bytes"
        }
      ],
      "name": "__callback",
      "outputs": [],
      "payable": false,
      "stateMutability": "nonpayable",
      "type": "function"
    },
    {
      "constant": true,
      "inputs": [],
      "name": "getCurrencyPrice",
      "outputs": [
        {
          "name": "",
          "type": "uint256"
        }
      ],
      "payable": false,
      "stateMutability": "view",
      "type": "function"
    },
    {
      "constant": false,
      "inputs": [],
      "name": "update",
      "outputs": [],
      "payable": true,
      "stateMutability": "payable",
      "type": "function"
    },
    {
      "constant": false,
      "inputs": [
        {
          "name": "_which",
          "type": "address"
        }
      ],
      "name": "withDrawEth",
      "outputs": [],
      "payable": false,
      "stateMutability": "nonpayable",
      "type": "function"
    }
  ],
  "bytecode": "0x60806040908152600580546001600160a01b03199081169091556006805482169055600780548216905560088054909116905563ee6b2800600a55620186a0600b55516200459c3803806200459c833981810160405260608110156200006457600080fd5b810190808051929190602001805192919060200180516401000000008111156200008d57600080fd5b82016020810184811115620000a157600080fd5b8151640100000000811182820187101715620000bc57600080fd5b509093508592508491508290506001600160a01b038116151560405160408082019052601081527f4552525f5a45524f5f4144445245535300000000000000000000000000000000602082015290620001b0576040517f08c379a00000000000000000000000000000000000000000000000000000000081526004018080602001828103825283818151815260200191508051906020019080838360005b83811015620001745780820151838201526020016200015a565b50505050905090810190601f168015620001a25780820380516001836020036101000a031916815260200191505b509250505060405180910390fd5b50336001600160a01b038416141560405160408082019052601081527f4552525f53414d455f41444452455353000000000000000000000000000000006020820152906200025b576040517f08c379a0000000000000000000000000000000000000000000000000000000008152600401808060200182810382528381815181526020019150805160209091019080838360008315620001745780820151838201526020016200015a565b50816001600160a01b0316836001600160a01b0316141560405160408082019052601081527f4552525f53414d455f41444452455353000000000000000000000000000000006020820152906200030f576040517f08c379a0000000000000000000000000000000000000000000000000000000008152600401808060200182810382528381815181526020019150805160209091019080838360008315620001745780820151838201526020016200015a565b50336001600160a01b038316141560405160408082019052601081527f4552525f53414d455f4144445245535300000000000000000000000000000000602082015290620003ba576040517f08c379a0000000000000000000000000000000000000000000000000000000008152600401808060200182810382528381815181526020019150805160209091019080838360008315620001745780820151838201526020016200015a565b5050600580546001600160a01b03199081163317909155600780546001600160a01b0394851690831617905560068054929093169116179055600a546200040a906001600160e01b036200048d16565b6200043e7f41000000000000000000000000000000000000000000000000000000000000006001600160e01b036200068016565b600c8054600181018083556000928352839290919060209020919291019080516200046e92916020019062001a90565b506200048490506001600160e01b036200087716565b50505062001b4a565b6001546001600160a01b03161580620004c35750600154620004c1906001600160a01b03166001600160e01b0362000b1516565b155b15620004e057620004de60006001600160e01b0362000b1916565b505b6001546001600160a01b03166338cc48316040518163ffffffff1660e01b8152600401602060405180830381600087803b1580156200051e57600080fd5b505af115801562000533573d6000803e3d6000fd5b505050506040513d60208110156200054a57600080fd5b8101908080516000546001600160a01b039081169116149250620005ff915050576001546001600160a01b03166338cc48316040518163ffffffff1660e01b8152600401602060405180830381600087803b158015620005a957600080fd5b505af1158015620005be573d6000803e3d6000fd5b505050506040513d6020811015620005d557600080fd5b810190808051600080546001600160a01b0319166001600160a01b03929092169190911790555050505b6000546001600160a01b031663ca6ad1e4826040517fffffffff0000000000000000000000000000000000000000000000000000000060e084901b1681526004810191909152602401600060405180830381600087803b1580156200066357600080fd5b505af115801562000678573d6000803e3d6000fd5b505050505b50565b6001546001600160a01b03161580620006b65750600154620006b4906001600160a01b03166001600160e01b0362000b1516565b155b15620006d357620006d160006001600160e01b0362000b1916565b505b6001546001600160a01b03166338cc48316040518163ffffffff1660e01b8152600401602060405180830381600087803b1580156200071157600080fd5b505af115801562000726573d6000803e3d6000fd5b505050506040513d60208110156200073d57600080fd5b8101908080516000546001600160a01b039081169116149250620007f2915050576001546001600160a01b03166338cc48316040518163ffffffff1660e01b8152600401602060405180830381600087803b1580156200079c57600080fd5b505af1158015620007b1573d6000803e3d6000fd5b505050506040513d6020811015620007c857600080fd5b810190808051600080546001600160a01b0319166001600160a01b03929092169190911790555050505b6000546001600160a01b031663688dcfd7826040517fffffffff0000000000000000000000000000000000000000000000000000000060e084901b1681527fff000000000000000000000000000000000000000000000000000000000000009091166004820152602401600060405180830381600087803b1580156200066357600080fd5b6000620008c260405160408082019052600b8082527f636f6d7075746174696f6e0000000000000000000000000000000000000000006020830152546001600160e01b0362000b3416565b6007549091506001600160a01b0316331462000933578034101562000933576040517f08c379a000000000000000000000000000000000000000000000000000000000815260040180806020018281038252603c8152602001806200452a603c913960400191505060405180910390fd5b30318111156200097e576000805160206200450a83398151915260405180806020018281038252604c815260200180620044be604c913960600191505060405180910390a16200067d565b6000805160206200450a833981519152604051808060200182810382526036815260200180620045666036913960400191505060405180910390a1600062000aee6040518060400160405280600b81526020017f636f6d7075746174696f6e000000000000000000000000000000000000000000815250600c80548060200260200160405190810160405281815291906000602084015b8282101562000ad7578382906000526020600020018054600181600116156101000203166002900480601f01602080910402602001604051908101604052809291908181526020018280546001816001161561010002031660029004801562000ac25780601f1062000a965761010080835404028352916020019162000ac2565b820191906000526020600020905b81548152906001019060200180831162000aa457829003601f168201915b50505050508152602001906001019062000a15565b5050600b549150506001600160e01b0362000d9b16565b6000818152600d60205290915060019060409020805460ff19169115159190911790555050565b3b90565b600062000b2e6001600160e01b03620011a916565b92915050565b6001546000906001600160a01b0316158062000b6d575060015462000b6b906001600160a01b03166001600160e01b0362000b1516565b155b1562000b8a5762000b8860006001600160e01b0362000b1916565b505b6001546001600160a01b03166338cc48316040518163ffffffff1660e01b8152600401602060405180830381600087803b15801562000bc857600080fd5b505af115801562000bdd573d6000803e3d6000fd5b505050506040513d602081101562000bf457600080fd5b8101908080516000546001600160a01b03908116911614925062000ca9915050576001546001600160a01b03166338cc48316040518163ffffffff1660e01b8152600401602060405180830381600087803b15801562000c5357600080fd5b505af115801562000c68573d6000803e3d6000fd5b505050506040513d602081101562000c7f57600080fd5b810190808051600080546001600160a01b0319166001600160a01b03929092169190911790555050505b6000546001600160a01b0316632ef3accc84846040518363ffffffff1660e01b81526004018080602001838152602001828103825284818151815260200191508051906020019080838360005b8381101562000d1057808201518382015260200162000cf6565b50505050905090810190601f16801562000d3e5780820380516001836020036101000a031916815260200191505b509350505050602060405180830381600087803b15801562000d5f57600080fd5b505af115801562000d74573d6000803e3d6000fd5b505050506040513d602081101562000d8b57600080fd5b8101908080519695505050505050565b6001546000906001600160a01b0316158062000dd4575060015462000dd2906001600160a01b03166001600160e01b0362000b1516565b155b1562000df15762000def60006001600160e01b0362000b1916565b505b6001546001600160a01b03166338cc48316040518163ffffffff1660e01b8152600401602060405180830381600087803b15801562000e2f57600080fd5b505af115801562000e44573d6000803e3d6000fd5b505050506040513d602081101562000e5b57600080fd5b8101908080516000546001600160a01b03908116911614925062000f10915050576001546001600160a01b03166338cc48316040518163ffffffff1660e01b8152600401602060405180830381600087803b15801562000eba57600080fd5b505af115801562000ecf573d6000803e3d6000fd5b505050506040513d602081101562000ee657600080fd5b810190808051600080546001600160a01b0319166001600160a01b03929092169190911790555050505b600080546001600160a01b0316632ef3accc86856040518363ffffffff1660e01b81526004018080602001838152602001828103825284818151815260200191508051906020019080838360005b8381101562000f7857808201518382015260200162000f5e565b50505050905090810190601f16801562000fa65780820380516001836020036101000a031916815260200191505b509350505050602060405180830381600087803b15801562000fc757600080fd5b505af115801562000fdc573d6000803e3d6000fd5b505050506040513d602081101562000ff357600080fd5b8101908080519350505050670de0b6b3a76400003a8402018111156200101e575060009050620011a2565b606062001034856001600160e01b03620015ea16565b600080549192506001600160a01b039091169063c55c1cb69084908985896040518663ffffffff1660e01b8152600401808581526020018060200180602001848152602001838103835286818151815260200191508051906020019080838360005b83811015620010b057808201518382015260200162001096565b50505050905090810190601f168015620010de5780820380516001836020036101000a031916815260200191505b50838103825285818151815260200191508051906020019080838360005b8381101562001116578082015183820152602001620010fc565b50505050905090810190601f168015620011445780820380516001836020036101000a031916815260200191505b5096505050505050506020604051808303818588803b1580156200116757600080fd5b505af11580156200117c573d6000803e3d6000fd5b50505050506040513d60208110156200119457600080fd5b810190808051955050505050505b9392505050565b600080620011d4731d3b2638a7cc9f2cb3d298a3da7a90b67e5506ed6001600160e01b0362000b1516565b11156200125157600180546001600160a01b031916731d3b2638a7cc9f2cb3d298a3da7a90b67e5506ed1790556200124860405160408082019052600b81527f6574685f6d61696e6e657400000000000000000000000000000000000000000060208201526001600160e01b036200169c16565b506001620015e7565b60006200127b73c03a2615d5efaf5f49f60b7bb6583eaec212fdf16001600160e01b0362000b1516565b1115620012ef57600180546001600160a01b03191673c03a2615d5efaf5f49f60b7bb6583eaec212fdf11790556200124860405160408082019052600c81527f6574685f726f707374656e33000000000000000000000000000000000000000060208201526001600160e01b036200169c16565b60006200131973b7a07bcf2ba2f2703b24c0691b5278999c59ac7e6001600160e01b0362000b1516565b11156200138d57600180546001600160a01b03191673b7a07bcf2ba2f2703b24c0691b5278999c59ac7e1790556200124860405160408082019052600981527f6574685f6b6f76616e000000000000000000000000000000000000000000000060208201526001600160e01b036200169c16565b6000620013b773146500cfd35b22e4a392fe0adc06de1a1368ed486001600160e01b0362000b1516565b11156200142b57600180546001600160a01b03191673146500cfd35b22e4a392fe0adc06de1a1368ed481790556200124860405160408082019052600b81527f6574685f72696e6b65627900000000000000000000000000000000000000000060208201526001600160e01b036200169c16565b60006200145573a2998efd205fb9d4b4963afb70778d6354ad3a416001600160e01b0362000b1516565b1115620014c957600180546001600160a01b03191673a2998efd205fb9d4b4963afb70778d6354ad3a411790556200124860405160408082019052600a81527f6574685f676f65726c690000000000000000000000000000000000000000000060208201526001600160e01b036200169c16565b6000620014f3736f485c8bf6fc43ea212e93bbf8ce046c7f1cb4756001600160e01b0362000b1516565b1115620015275750600180546001600160a01b031916736f485c8bf6fc43ea212e93bbf8ce046c7f1cb475178155620015e7565b6000620015517320e12a1f859b3feae5fb2a0a32c18f5a65555bbf6001600160e01b0362000b1516565b1115620015855750600180546001600160a01b0319167320e12a1f859b3feae5fb2a0a32c18f5a65555bbf178155620015e7565b6000620015af7351efaf4c8b3c9afbd5ab9f4bbc82784ab6ef8faa6001600160e01b0362000b1516565b1115620015e35750600180546001600160a01b0319167351efaf4c8b3c9afbd5ab9f4bbc82784ab6ef8faa178155620015e7565b5060005b90565b6060620015ff6001600160e01b03620016b516565b6200160962001b15565b6200162281610400620016c160201b6200243c1760201c565b6200163881620016f060201b6200246a1760201c565b60005b83518110156200167c57620016738482815181106200165657fe5b6020026020010151836200170660201b620024751790919060201c565b6001016200163b565b5062001693816200173d60201b620024921760201c565b80519392505050565b6002818051620016b192916020019062001a90565b5050565b60405180590338823950565b806020810615620016d55760208106602003015b60208301819052604051928390526000835290910160405250565b6200067d8160046001600160e01b036200175316565b6200171e82600383516001600160e01b036200177716565b620017388183620018eb60201b620025dc1790919060201c565b505050565b6200067d8160076001600160e01b036200175316565b620016b160058260ff16901b601f17836200199f60201b620026751790919060201c565b60178111620017ac57620017a68160058460ff16901b60ff1617846200199f60201b620026751790919060201c565b62001738565b60ff8111620017fd57620017d960058360ff16901b601817846200199f60201b620026751790919060201c565b620017f681600185620019e460201b620026ae179092919060201c565b5062001738565b61ffff811162001848576200182b60058360ff16901b601917846200199f60201b620026751790919060201c565b620017f681600285620019e460201b620026ae179092919060201c565b63ffffffff811162001895576200187860058360ff16901b601a17846200199f60201b620026751790919060201c565b620017f681600485620019e460201b620026ae179092919060201c565b6001600160401b0381116200173857620018c860058360ff16901b601b17846200199f60201b620026751790919060201c565b620018e581600885620019e460201b620026ae179092919060201c565b50505050565b620018f562001b15565b826020015183515183510111156200193857620019388362001926856020015185516001600160e01b0362001a4716565b6002026001600160e01b0362001a6016565b60008060008451905085518051602081830101945086510190526020850191505b602081106200197b57815183526020928301929190910190601f190162001959565b60001960208290036101000a01801983511681855116179093525093949350505050565b81602001518251516001011115620019cd57620019cd8283602001516002026001600160e01b0362001a6016565b815180516020818301018381535060010190525050565b620019ee62001b15565b83602001518451518301111562001a1d5762001a1d84620019268660200151856001600160e01b0362001a4716565b60001961010083900a01845180518481830101868419825116179052909301909252509192915050565b60008183111562001a5a57508162000b2e565b50919050565b60608251905062001a7b83836001600160e01b03620016c116565b620018e583826001600160e01b03620018eb16565b828054600181600116156101000203166002900490600052602060002090601f016020900481019282601f1062001ad357805160ff191683800117855562001b03565b8280016001018555821562001b03579182015b8281111562001b0357825182559160200191906001019062001ae6565b5062001b1192915062001b2d565b5090565b60405160408082019052606081526000602082015290565b620015e791905b8082111562001b11576000815560010162001b34565b6129648062001b5a6000396000f3fe60806040526004361061011f5760003560e01c80638f51368b116100a0578063bd9fa52811610064578063bd9fa528146105a5578063bf1fe420146105ba578063c4d34268146105e4578063d3e848f114610617578063ee7d72b41461062c5761011f565b80638f51368b146104c55780638f875edd146104f857806399c16f0c1461050d578063a2e6204514610588578063b9e1a0c6146105905761011f565b80632a4a9dd1116100e75780632a4a9dd11461029857806338bbfa50146103395780633c695d4e1461047457806358ed766d146104895780638e10be33146104b05761011f565b806304d63089146101215780630abaad7a1461016857806320c462fe146101995780632542ae30146101ae57806327dc297e146101e1575b005b34801561012d57600080fd5b506101546004803603602081101561014457600080fd5b50356001600160a01b0316610656565b604051901515815260200160405180910390f35b34801561017457600080fd5b5061017d61096b565b6040516001600160a01b03909116815260200160405180910390f35b3480156101a557600080fd5b5061015461097a565b3480156101ba57600080fd5b5061011f600480360360208110156101d157600080fd5b50356001600160a01b0316610a92565b3480156101ed57600080fd5b5061011f6004803603604081101561020457600080fd5b81359190810190604081016020820135600160201b81111561022557600080fd5b82018360208201111561023757600080fd5b803590602001918460018302840111600160201b8311171561025857600080fd5b91908080601f0160208091040260200160405190810160405281815292919060208401838380828437600092019190915250929550610b4c945050505050565b3480156102a457600080fd5b506102c2600480360360208110156102bb57600080fd5b5035610b83565b60405160208082528190810183818151815260200191508051906020019080838360005b838110156102fe5780820151838201526020016102e6565b50505050905090810190601f16801561032b5780820380516001836020036101000a031916815260200191505b509250505060405180910390f35b34801561034557600080fd5b5061011f6004803603606081101561035c57600080fd5b81359190810190604081016020820135600160201b81111561037d57600080fd5b82018360208201111561038f57600080fd5b803590602001918460018302840111600160201b831117156103b057600080fd5b91908080601f01602080910402602001604051908101604052818152929190602084018383808284376000920191909152509295949360208101935035915050600160201b81111561040157600080fd5b82018360208201111561041357600080fd5b803590602001918460018302840111600160201b8311171561043457600080fd5b91908080601f0160208091040260200160405190810160405281815292919060208401838380828437600092019190915250929550610c3a945050505050565b34801561048057600080fd5b5061017d610d6e565b34801561049557600080fd5b5061049e610d7d565b60405190815260200160405180910390f35b3480156104bc57600080fd5b5061017d610d83565b3480156104d157600080fd5b50610154600480360360208110156104e857600080fd5b50356001600160a01b0316610d92565b34801561050457600080fd5b5061049e610f74565b34801561051957600080fd5b5061011f6004803603602081101561053057600080fd5b810190602081018135600160201b81111561054a57600080fd5b82018360208201111561055c57600080fd5b803590602001918460018302840111600160201b8311171561057d57600080fd5b509092509050610f7a565b61011f611021565b34801561059c57600080fd5b5061049e611280565b3480156105b157600080fd5b5061049e611286565b3480156105c657600080fd5b5061011f600480360360208110156105dd57600080fd5b503561128c565b3480156105f057600080fd5b506101546004803603602081101561060757600080fd5b50356001600160a01b0316611317565b34801561062357600080fd5b5061017d61155e565b34801561063857600080fd5b5061011f6004803603602081101561064f57600080fd5b503561156d565b6006546000906001600160a01b0316331460405160408082019052601b81526000805160206128da8339815191526020820152906107125760405162461bcd60e51b81526004018080602001828103825283818151815260200191508051906020019080838360005b838110156106d75780820151838201526020016106bf565b50505050905090810190601f1680156107045780820380516001836020036101000a031916815260200191505b509250505060405180910390fd5b50816001600160a01b03811630141560405160408082019052601981527f4552525f434f4e54524143545f53454c465f41444452455353000000000000006020820152906107a15760405162461bcd60e51b81526004018080602001828103825283818151815260200191508051602090910190808383600083156106d75780820151838201526020016106bf565b50826001600160a01b038116151560405160408082019052601081526f4552525f5a45524f5f4144445245535360801b6020820152906108225760405162461bcd60e51b81526004018080602001828103825283818151815260200191508051602090910190808383600083156106d75780820151838201526020016106bf565b506007546001600160a01b0385811691161480159061084f57506006546001600160a01b03858116911614155b801561086957506005546001600160a01b03858116911614155b60405160408082019052601081526f4552525f53414d455f4144445245535360801b6020820152906108dc5760405162461bcd60e51b81526004018080602001828103825283818151815260200191508051602090910190808383600083156106d75780820151838201526020016106bf565b506007546001600160a01b0380861691167f6840904f5b31827f74e1497360da245f56e530c8c3de3163a2d31f11493273c66040516020808252600e908201526d53595354454d5f4144445245535360901b6040808301919091526060909101905180910390a3600780546001600160a01b0386166001600160a01b0319909116179055600192505050919050565b6008546001600160a01b031681565b6008546000906001600160a01b0316331460405160408082019052601b81526000805160206128da8339815191526020820152906109f95760405162461bcd60e51b81526004018080602001828103825283818151815260200191508051602090910190808383600083156106d75780820151838201526020016106bf565b506008546006546001600160a01b0391821691167f6840904f5b31827f74e1497360da245f56e530c8c3de3163a2d31f11493273c6604051602080825260119082015270415554484f524954595f4144445245535360781b6040808301919091526060909101905180910390a35060088054600680546001600160a01b03199081166001600160a01b0384161790915516905560015b90565b6006546001600160a01b0316331460405160408082019052601b81526000805160206128da833981519152602082015290610b0e5760405162461bcd60e51b81526004018080602001828103825283818151815260200191508051602090910190808383600083156106d75780820151838201526020016106bf565b506001600160a01b038116303180156108fc0290604051600060405180830381858888f19350505050158015610b48573d6000803e3d6000fd5b5050565b610b4882826000604051818152601f19601f8301168101602001604052908015610b7d576020820181803883390190505b50610c3a565b600c8181548110610b9057fe5b906000526020600020018054909150600260001961010060018416150201909116046020601f82018190048102016040519081016040528092919081815260200182805460018160011615610100020316600290048015610c325780601f10610c0757610100808354040283529160200191610c32565b820191906000526020600020905b815481529060010190602001808311610c1557829003601f168201915b505050505081565b610c426115ef565b6001600160a01b0316336001600160a01b031614610c5f57600080fd5b6000838152600d602052604090205460ff16610c7a57600080fd5b610c83826117b8565b6009556000838152600d60205260409020805460ff191690556009547fc3f2da76cd3b4dd18bf10a4f71e04ba5c352318e1aef295aa688b09708f44b0d9060405190815260200160405180910390a17e0cfab4ce6124de8dc8446411ba97a600f3d3484daa3f6500014853066400b78160405160208082528190810183818151815260200191508051906020019080838360005b83811015610d2f578082015183820152602001610d17565b50505050905090810190601f168015610d5c5780820380516001836020036101000a031916815260200191505b509250505060405180910390a1505050565b6006546001600160a01b031681565b60095481565b6005546001600160a01b031681565b6006546000906001600160a01b0316331460405160408082019052601b81526000805160206128da833981519152602082015290610e115760405162461bcd60e51b81526004018080602001828103825283818151815260200191508051602090910190808383600083156106d75780820151838201526020016106bf565b50816001600160a01b038116151560405160408082019052601081526f4552525f5a45524f5f4144445245535360801b602082015290610e925760405162461bcd60e51b81526004018080602001828103825283818151815260200191508051602090910190808383600083156106d75780820151838201526020016106bf565b506007546001600160a01b03848116911614801590610ebf57506006546001600160a01b03848116911614155b8015610ed957506005546001600160a01b03848116911614155b60405160408082019052601081526f4552525f53414d455f4144445245535360801b602082015290610f4c5760405162461bcd60e51b81526004018080602001828103825283818151815260200191508051602090910190808383600083156106d75780820151838201526020016106bf565b50600880546001600160a01b0385166001600160a01b03199091161790556001915050919050565b600b5481565b6006546001600160a01b0316331460405160408082019052601b81526000805160206128da833981519152602082015290610ff65760405162461bcd60e51b81526004018080602001828103825283818151815260200191508051602090910190808383600083156106d75780820151838201526020016106bf565b508181600c60008154811061100757fe5b90600052602060002061101c93910191612733565b505050565b600061104f60405160408082019052600b8082526a31b7b6b83aba30ba34b7b760a91b6020830152546117cb565b6007549091506001600160a01b031633146110a357803410156110a35760405162461bcd60e51b815260040180806020018281038252603c81526020018061289e603c913960400191505060405180910390fd5b30318111156110fc577fc4dc360d0a9c0677a3379ae0a3d81e887f761e65fdf3d7e00859d1bcd3c4738960405180806020018281038252604c815260200180612852604c913960600191505060405180910390a161127d565b7fc4dc360d0a9c0677a3379ae0a3d81e887f761e65fdf3d7e00859d1bcd3c473896040518080602001828103825260368152602001806128fa6036913960400191505060405180910390a160006112586040518060400160405280600b81526020016a31b7b6b83aba30ba34b7b760a91b815250600c80548060200260200160405190810160405281815291906000602084015b8282101561124c578382906000526020600020018054600181600116156101000203166002900480601f0160208091040260200160405190810160405280929190818152602001828054600181600116156101000203166002900480156112385780601f1061120d57610100808354040283529160200191611238565b820191906000526020600020905b81548152906001019060200180831161121b57829003601f168201915b505050505081526020019060010190611190565b50505050600b54611a0d565b6000818152600d60205290915060019060409020805460ff1916911515919091179055505b50565b60095490565b600a5481565b6007546001600160a01b0316331460405160408082019052601b81526000805160206128da8339815191526020820152906113085760405162461bcd60e51b81526004018080602001828103825283818151815260200191508051602090910190808383600083156106d75780820151838201526020016106bf565b5061131281611de0565b600a55565b6006546000906001600160a01b0316331460405160408082019052601b81526000805160206128da8339815191526020820152906113965760405162461bcd60e51b81526004018080602001828103825283818151815260200191508051602090910190808383600083156106d75780820151838201526020016106bf565b50816001600160a01b038116151560405160408082019052601081526f4552525f5a45524f5f4144445245535360801b6020820152906114175760405162461bcd60e51b81526004018080602001828103825283818151815260200191508051602090910190808383600083156106d75780820151838201526020016106bf565b506007546001600160a01b0384811691161480159061144457506006546001600160a01b03848116911614155b801561145e57506005546001600160a01b03848116911614155b60405160408082019052601081526f4552525f53414d455f4144445245535360801b6020820152906114d15760405162461bcd60e51b81526004018080602001828103825283818151815260200191508051602090910190808383600083156106d75780820151838201526020016106bf565b506005546001600160a01b0380851691167f6840904f5b31827f74e1497360da245f56e530c8c3de3163a2d31f11493273c66040516020808252600d908201526c282924a6a0a92cafa7aba722a960991b6040808301919091526060909101905180910390a3600580546001600160a01b0385166001600160a01b03199091161790556001915050919050565b6007546001600160a01b031681565b6007546001600160a01b0316331460405160408082019052601b81526000805160206128da8339815191526020820152906115e95760405162461bcd60e51b81526004018080602001828103825283818151815260200191508051602090910190808383600083156106d75780820151838201526020016106bf565b50600b55565b6001546000906001600160a01b0316158061161c575060015461161a906001600160a01b0316611f99565b155b1561162d5761162b6000611f9d565b505b6001546001600160a01b03166338cc48316040518163ffffffff1660e01b8152600401602060405180830381600087803b15801561166a57600080fd5b505af115801561167e573d6000803e3d6000fd5b505050506040513d602081101561169457600080fd5b8101908080516000546001600160a01b039081169116149250611745915050576001546001600160a01b03166338cc48316040518163ffffffff1660e01b8152600401602060405180830381600087803b1580156116f157600080fd5b505af1158015611705573d6000803e3d6000fd5b505050506040513d602081101561171b57600080fd5b810190808051600080546001600160a01b0319166001600160a01b03929092169190911790555050505b6000546001600160a01b031663c281d19e6040518163ffffffff1660e01b815260040160206040518083038186803b15801561178057600080fd5b505afa158015611794573d6000803e3d6000fd5b505050506040513d60208110156117aa57600080fd5b810190808051935050505090565b60006117c5826000611fa7565b92915050565b6001546000906001600160a01b031615806117f857506001546117f6906001600160a01b0316611f99565b155b15611809576118076000611f9d565b505b6001546001600160a01b03166338cc48316040518163ffffffff1660e01b8152600401602060405180830381600087803b15801561184657600080fd5b505af115801561185a573d6000803e3d6000fd5b505050506040513d602081101561187057600080fd5b8101908080516000546001600160a01b039081169116149250611921915050576001546001600160a01b03166338cc48316040518163ffffffff1660e01b8152600401602060405180830381600087803b1580156118cd57600080fd5b505af11580156118e1573d6000803e3d6000fd5b505050506040513d60208110156118f757600080fd5b810190808051600080546001600160a01b0319166001600160a01b03929092169190911790555050505b6000546001600160a01b0316632ef3accc84846040518363ffffffff1660e01b81526004018080602001838152602001828103825284818151815260200191508051906020019080838360005b8381101561198657808201518382015260200161196e565b50505050905090810190601f1680156119b35780820380516001836020036101000a031916815260200191505b509350505050602060405180830381600087803b1580156119d357600080fd5b505af11580156119e7573d6000803e3d6000fd5b505050506040513d60208110156119fd57600080fd5b8101908080519695505050505050565b6001546000906001600160a01b03161580611a3a5750600154611a38906001600160a01b0316611f99565b155b15611a4b57611a496000611f9d565b505b6001546001600160a01b03166338cc48316040518163ffffffff1660e01b8152600401602060405180830381600087803b158015611a8857600080fd5b505af1158015611a9c573d6000803e3d6000fd5b505050506040513d6020811015611ab257600080fd5b8101908080516000546001600160a01b039081169116149250611b63915050576001546001600160a01b03166338cc48316040518163ffffffff1660e01b8152600401602060405180830381600087803b158015611b0f57600080fd5b505af1158015611b23573d6000803e3d6000fd5b505050506040513d6020811015611b3957600080fd5b810190808051600080546001600160a01b0319166001600160a01b03929092169190911790555050505b600080546001600160a01b0316632ef3accc86856040518363ffffffff1660e01b81526004018080602001838152602001828103825284818151815260200191508051906020019080838360005b83811015611bc9578082015183820152602001611bb1565b50505050905090810190601f168015611bf65780820380516001836020036101000a031916815260200191505b509350505050602060405180830381600087803b158015611c1657600080fd5b505af1158015611c2a573d6000803e3d6000fd5b505050506040513d6020811015611c4057600080fd5b8101908080519350505050670de0b6b3a76400003a840201811115611c69575060009050611dd9565b6060611c7485612075565b600080549192506001600160a01b039091169063c55c1cb69084908985896040518663ffffffff1660e01b8152600401808581526020018060200180602001848152602001838103835286818151815260200191508051906020019080838360005b83811015611cee578082015183820152602001611cd6565b50505050905090810190601f168015611d1b5780820380516001836020036101000a031916815260200191505b50838103825285818151815260200191508051906020019080838360005b83811015611d51578082015183820152602001611d39565b50505050905090810190601f168015611d7e5780820380516001836020036101000a031916815260200191505b5096505050505050506020604051808303818588803b158015611da057600080fd5b505af1158015611db4573d6000803e3d6000fd5b50505050506040513d6020811015611dcb57600080fd5b810190808051955050505050505b9392505050565b6001546001600160a01b03161580611e0a5750600154611e08906001600160a01b0316611f99565b155b15611e1b57611e196000611f9d565b505b6001546001600160a01b03166338cc48316040518163ffffffff1660e01b8152600401602060405180830381600087803b158015611e5857600080fd5b505af1158015611e6c573d6000803e3d6000fd5b505050506040513d6020811015611e8257600080fd5b8101908080516000546001600160a01b039081169116149250611f33915050576001546001600160a01b03166338cc48316040518163ffffffff1660e01b8152600401602060405180830381600087803b158015611edf57600080fd5b505af1158015611ef3573d6000803e3d6000fd5b505050506040513d6020811015611f0957600080fd5b810190808051600080546001600160a01b0319166001600160a01b03929092169190911790555050505b6000546001600160a01b031663ca6ad1e4826040516001600160e01b031960e084901b1681526004810191909152602401600060405180830381600087803b158015611f7e57600080fd5b505af1158015611f92573d6000803e3d6000fd5b5050505050565b3b90565b60006117c56120e7565b6000828180805b835181101561205c576030848281518110611fc557fe5b602001015160f81c10801590611fef57506039848281518110611fe457fe5b602001015160f81c11155b1561203357811561200c57856120045761205c565b600019909501945b600a83029250603084828151811061202057fe5b602001015160f81c039290920191612054565b83818151811061203f57fe5b602001015160f81c602e141561205457600191505b600101611fae565b50841561206c5784600a0a820291505b50949350505050565b606061207f612430565b6120876127b1565b6120938161040061243c565b61209c8161246a565b60005b83518110156120d4576120cc8482815181106120b757fe5b6020026020010151839063ffffffff61247516565b60010161209f565b506120de81612492565b80519392505050565b600080612107731d3b2638a7cc9f2cb3d298a3da7a90b67e5506ed611f99565b111561216557600180546001600160a01b031916731d3b2638a7cc9f2cb3d298a3da7a90b67e5506ed17905561215d60405160408082019052600b81526a195d1a17db585a5b9b995d60aa1b602082015261249d565b506001610a8f565b600061218473c03a2615d5efaf5f49f60b7bb6583eaec212fdf1611f99565b11156121db57600180546001600160a01b03191673c03a2615d5efaf5f49f60b7bb6583eaec212fdf117905561215d60405160408082019052600c81526b6574685f726f707374656e3360a01b602082015261249d565b60006121fa73b7a07bcf2ba2f2703b24c0691b5278999c59ac7e611f99565b111561224e57600180546001600160a01b03191673b7a07bcf2ba2f2703b24c0691b5278999c59ac7e17905561215d60405160408082019052600981526832ba342fb5b7bb30b760b91b602082015261249d565b600061226d73146500cfd35b22e4a392fe0adc06de1a1368ed48611f99565b11156122c357600180546001600160a01b03191673146500cfd35b22e4a392fe0adc06de1a1368ed4817905561215d60405160408082019052600b81526a6574685f72696e6b65627960a81b602082015261249d565b60006122e273a2998efd205fb9d4b4963afb70778d6354ad3a41611f99565b111561233757600180546001600160a01b03191673a2998efd205fb9d4b4963afb70778d6354ad3a4117905561215d60405160408082019052600a8152696574685f676f65726c6960b01b602082015261249d565b6000612356736f485c8bf6fc43ea212e93bbf8ce046c7f1cb475611f99565b11156123885750600180546001600160a01b031916736f485c8bf6fc43ea212e93bbf8ce046c7f1cb475178155610a8f565b60006123a77320e12a1f859b3feae5fb2a0a32c18f5a65555bbf611f99565b11156123d95750600180546001600160a01b0319167320e12a1f859b3feae5fb2a0a32c18f5a65555bbf178155610a8f565b60006123f87351efaf4c8b3c9afbd5ab9f4bbc82784ab6ef8faa611f99565b111561242a5750600180546001600160a01b0319167351efaf4c8b3c9afbd5ab9f4bbc82784ab6ef8faa178155610a8f565b50600090565b60405180590338823950565b80602081061561244f5760208106602003015b60208301819052604051928390526000835290910160405250565b61127d8160046124b0565b61248282600383516124cb565b61101c828263ffffffff6125dc16565b61127d8160076124b0565b6002818051610b489291602001906127c9565b610b4882601f611fe0600585901b161763ffffffff61267516565b601781116124f1576124ec8360e0600585901b16831763ffffffff61267516565b61101c565b60ff811161252c57612514836018611fe0600586901b161763ffffffff61267516565b6125268382600163ffffffff6126ae16565b5061101c565b61ffff811161256257612550836019611fe0600586901b161763ffffffff61267516565b6125268382600263ffffffff6126ae16565b63ffffffff811161259a5761258883601a611fe0600586901b161763ffffffff61267516565b6125268382600463ffffffff6126ae16565b67ffffffffffffffff811161101c576125c483601b611fe0600586901b161763ffffffff61267516565b6125d68382600863ffffffff6126ae16565b50505050565b6125e46127b1565b82602001518351518351011115612610576126108361260885602001518551612702565b600202612719565b60008060008451905085518051602081830101945086510190526020850191505b6020811061265157815183526020928301929190910190601f1901612631565b60001960208290036101000a01801983511681855116179093525093949350505050565b8160200151825151600101111561269757612697828360200151600202612719565b815180516020818301018381535060010190525050565b6126b66127b1565b8360200151845151830111156126d8576126d884612608866020015185612702565b60001961010083900a01845180518481830101868419825116179052909301909252509192915050565b6000818311156127135750816117c5565b50919050565b606082519050612729838361243c565b6125d683826125dc565b828054600181600116156101000203166002900490600052602060002090601f016020900481019282601f106127745782800160ff198235161785556127a1565b828001600101855582156127a1579182015b828111156127a1578235825591602001919060010190612786565b506127ad929150612837565b5090565b60405160408082019052606081526000602082015290565b828054600181600116156101000203166002900490600052602060002090601f016020900481019282601f1061280a57805160ff19168380011785556127a1565b828001600101855582156127a1579182015b828111156127a157825182559160200191906001019061281c565b610a8f91905b808211156127ad576000815560010161283d56fe50726f7661626c6520717565727920776173204e4f542073656e742c20706c656173652061646420736f6d652045544820746f20636f76657220666f72207468652071756572792066656521496620757365722077616e747320746f2063616c6c20746869732074686579206861766520746f2070617920707269636520666f72207570646174654552525f415554484f52495a45445f414444524553535f4f4e4c59000000000050726f7661626c65207175657279207761732073656e742c207374616e64696e6720627920666f722074686520616e737765722e2e2ea265627a7a723058207bdb08fd0450a22be2f4f5782fba3e691652bba905b81e2cc7d595a8e168e32d64736f6c6343000509003250726f7661626c6520717565727920776173204e4f542073656e742c20706c656173652061646420736f6d652045544820746f20636f76657220666f72207468652071756572792066656521c4dc360d0a9c0677a3379ae0a3d81e887f761e65fdf3d7e00859d1bcd3c47389496620757365722077616e747320746f2063616c6c20746869732074686579206861766520746f2070617920707269636520666f722075706461746550726f7661626c65207175657279207761732073656e742c207374616e64696e6720627920666f722074686520616e737765722e2e2e",
  "source": "pragma solidity ^0.5.9;\n\nimport \"./provableAPI.sol\";\nimport \"../common/Ownable.sol\";\n\ncontract EthPriceTicker is usingProvable,Ownable {\n\n    uint256 public priceETHUSD;\n    \n    uint256 public currentGasPrice = 4000000000; //4Gwei\n    \n    uint256 public currentGasLimit = 100000;\n    \n    string[] public parameters ;\n    \n    mapping(bytes32=>bool) validIds;\n\n\n    event LogNewProvableQuery(string description);\n    event LogNewEthPriceTicker(uint256 price);\n    event LogProof(bytes proof);\n                \n    constructor(address _systemAddress,address _multisigAddress,string memory _parameter) payable\n        public\n        Ownable(_systemAddress,_multisigAddress)\n    {\n       provable_setCustomGasPrice(currentGasPrice);\n       provable_setProof(proofType_Android | proofStorage_IPFS);\n       parameters.push(_parameter);\n       update(); // Update price on contract creation...\n    }\n    \n    \n    function setGasPrice(uint256 _gasPrice) external onlySystem(){\n        provable_setCustomGasPrice(_gasPrice);\n       currentGasPrice = _gasPrice;\n    }\n    \n    function setGasLimit(uint256 _gasLimit) external onlySystem(){\n       currentGasLimit = _gasLimit;\n    }\n    \n    function updateParameter(string calldata _parameter)external onlyAuthorized(){\n        parameters[0] = _parameter;\n    }\n    \n  \n    \n    function __callback(\n        bytes32 _myid,\n        string memory _result,\n        bytes memory _proof\n    )\n        public\n    {\n        require(msg.sender == provable_cbAddress());\n        require (validIds[_myid]);\n       \n        priceETHUSD = parseInt(_result);\n        delete validIds[_myid];\n        emit LogNewEthPriceTicker(priceETHUSD);\n        emit LogProof(_proof);\n    }\n    \n    function getCurrencyPrice() external view returns(uint256){\n        return priceETHUSD;\n    }\n    \n    \n\n    function update()\n        public\n        payable\n    {   \n        \n        uint256 fee = provable_getPrice(\"computation\",currentGasLimit);\n        \n        if(msg.sender != systemAddress){\n            require(msg.value >= fee,\"If user wants to call this they have to pay price for update\");\n        }\n        \n        if (fee > address(this).balance) {\n            emit LogNewProvableQuery(\"Provable query was NOT sent, please add some ETH to cover for the query fee!\");\n        } else {\n            emit LogNewProvableQuery(\"Provable query was sent, standing by for the answer...\");\n            bytes32 queryId = provable_query(\"computation\",parameters, currentGasLimit);\n            validIds[queryId] = true;\n        }\n    }\n    \n    function() external payable{\n        \n    }\n    \n    function withDrawEth(address payable _which) external onlyAuthorized(){\n        _which.transfer(address(this).balance); \n    }\n}",
  "sourcePath": "/home/mind/Work/Projects/Jointer/Jointer_auction/NewContracts/contracts/Pricing/EthPriceTracker.sol",
  "compiler": {
    "name": "solc",
    "version": "0.5.9+commit.e560f70d.Emscripten.clang"
  },
  "schemaVersion": "3.0.16",
  "updatedAt": "2020-05-13T15:06:46.208Z",
  "devdoc": {
    "methods": {
      "__callback(bytes32,string)": {
        "details": "The following `__callback` functions are just placeholders ideally     meant to be defined in child contract when proofs are used.     The function bodies simply silence compiler warnings."
      },
      "changeAuthorityAddress(address)": {
        "details": "change system address",
        "params": {
          "_which": "The address to which is new Authority address"
        }
      },
      "changePrimaryOwner(address)": {
        "details": "change primary ownership",
        "params": {
          "_which": "The address to which is new owner address"
        }
      },
      "changeSystemAddress(address)": {
        "details": "change system address",
        "params": {
          "_which": "The address to which is new system address"
        }
      }
    }
  },
  "userdoc": {
    "methods": {}
  }
}