{
  "contractName": "EtnToken",
  "abi": [
    {
      "constant": false,
      "inputs": [
        {
          "name": "_which",
          "type": "address"
        }
      ],
      "name": "changeSystemAddress",
      "outputs": [
        {
          "name": "",
          "type": "bool"
        }
      ],
      "payable": false,
      "stateMutability": "nonpayable",
      "type": "function"
    },
    {
      "constant": true,
      "inputs": [],
      "name": "name",
      "outputs": [
        {
          "name": "",
          "type": "string"
        }
      ],
      "payable": false,
      "stateMutability": "view",
      "type": "function"
    },
    {
      "constant": false,
      "inputs": [
        {
          "name": "_spender",
          "type": "address"
        },
        {
          "name": "_value",
          "type": "uint256"
        }
      ],
      "name": "approve",
      "outputs": [
        {
          "name": "ok",
          "type": "bool"
        }
      ],
      "payable": false,
      "stateMutability": "nonpayable",
      "type": "function"
    },
    {
      "constant": true,
      "inputs": [],
      "name": "newAuthorityAddress",
      "outputs": [
        {
          "name": "",
          "type": "address"
        }
      ],
      "payable": false,
      "stateMutability": "view",
      "type": "function"
    },
    {
      "constant": true,
      "inputs": [],
      "name": "isTokenMature",
      "outputs": [
        {
          "name": "",
          "type": "bool"
        }
      ],
      "payable": false,
      "stateMutability": "view",
      "type": "function"
    },
    {
      "constant": true,
      "inputs": [],
      "name": "totalSupply",
      "outputs": [
        {
          "name": "",
          "type": "uint256"
        }
      ],
      "payable": false,
      "stateMutability": "view",
      "type": "function"
    },
    {
      "constant": false,
      "inputs": [],
      "name": "acceptAuthorityAddress",
      "outputs": [
        {
          "name": "",
          "type": "bool"
        }
      ],
      "payable": false,
      "stateMutability": "nonpayable",
      "type": "function"
    },
    {
      "constant": true,
      "inputs": [],
      "name": "returnToken",
      "outputs": [
        {
          "name": "",
          "type": "address"
        }
      ],
      "payable": false,
      "stateMutability": "view",
      "type": "function"
    },
    {
      "constant": true,
      "inputs": [],
      "name": "decimals",
      "outputs": [
        {
          "name": "",
          "type": "uint256"
        }
      ],
      "payable": false,
      "stateMutability": "view",
      "type": "function"
    },
    {
      "constant": false,
      "inputs": [
        {
          "name": "_spender",
          "type": "address"
        },
        {
          "name": "_value",
          "type": "uint256"
        }
      ],
      "name": "increaseAllowance",
      "outputs": [
        {
          "name": "",
          "type": "bool"
        }
      ],
      "payable": false,
      "stateMutability": "nonpayable",
      "type": "function"
    },
    {
      "constant": true,
      "inputs": [],
      "name": "authorityAddress",
      "outputs": [
        {
          "name": "",
          "type": "address"
        }
      ],
      "payable": false,
      "stateMutability": "view",
      "type": "function"
    },
    {
      "constant": false,
      "inputs": [
        {
          "name": "_value",
          "type": "uint256"
        }
      ],
      "name": "burn",
      "outputs": [
        {
          "name": "",
          "type": "bool"
        }
      ],
      "payable": false,
      "stateMutability": "nonpayable",
      "type": "function"
    },
    {
      "constant": true,
      "inputs": [],
      "name": "tokenMaturityDays",
      "outputs": [
        {
          "name": "",
          "type": "uint256"
        }
      ],
      "payable": false,
      "stateMutability": "view",
      "type": "function"
    },
    {
      "constant": true,
      "inputs": [
        {
          "name": "_who",
          "type": "address"
        }
      ],
      "name": "balanceOf",
      "outputs": [
        {
          "name": "balance",
          "type": "uint256"
        }
      ],
      "payable": false,
      "stateMutability": "view",
      "type": "function"
    },
    {
      "constant": true,
      "inputs": [],
      "name": "tokenSaleStartDate",
      "outputs": [
        {
          "name": "",
          "type": "uint256"
        }
      ],
      "payable": false,
      "stateMutability": "view",
      "type": "function"
    },
    {
      "constant": true,
      "inputs": [],
      "name": "primaryOwner",
      "outputs": [
        {
          "name": "",
          "type": "address"
        }
      ],
      "payable": false,
      "stateMutability": "view",
      "type": "function"
    },
    {
      "constant": false,
      "inputs": [
        {
          "name": "_which",
          "type": "address"
        }
      ],
      "name": "changeAuthorityAddress",
      "outputs": [
        {
          "name": "",
          "type": "bool"
        }
      ],
      "payable": false,
      "stateMutability": "nonpayable",
      "type": "function"
    },
    {
      "constant": true,
      "inputs": [],
      "name": "symbol",
      "outputs": [
        {
          "name": "",
          "type": "string"
        }
      ],
      "payable": false,
      "stateMutability": "view",
      "type": "function"
    },
    {
      "constant": true,
      "inputs": [],
      "name": "tokenHoldBackDays",
      "outputs": [
        {
          "name": "",
          "type": "uint256"
        }
      ],
      "payable": false,
      "stateMutability": "view",
      "type": "function"
    },
    {
      "constant": false,
      "inputs": [
        {
          "name": "_spender",
          "type": "address"
        },
        {
          "name": "_value",
          "type": "uint256"
        }
      ],
      "name": "decreaseAllowance",
      "outputs": [
        {
          "name": "",
          "type": "bool"
        }
      ],
      "payable": false,
      "stateMutability": "nonpayable",
      "type": "function"
    },
    {
      "constant": false,
      "inputs": [
        {
          "name": "_address",
          "type": "address"
        }
      ],
      "name": "updateRegistery",
      "outputs": [
        {
          "name": "",
          "type": "bool"
        }
      ],
      "payable": false,
      "stateMutability": "nonpayable",
      "type": "function"
    },
    {
      "constant": true,
      "inputs": [],
      "name": "isHoldbackDaysOver",
      "outputs": [
        {
          "name": "",
          "type": "bool"
        }
      ],
      "payable": false,
      "stateMutability": "view",
      "type": "function"
    },
    {
      "constant": false,
      "inputs": [
        {
          "name": "_which",
          "type": "address"
        }
      ],
      "name": "changePrimaryOwner",
      "outputs": [
        {
          "name": "",
          "type": "bool"
        }
      ],
      "payable": false,
      "stateMutability": "nonpayable",
      "type": "function"
    },
    {
      "constant": true,
      "inputs": [],
      "name": "systemAddress",
      "outputs": [
        {
          "name": "",
          "type": "address"
        }
      ],
      "payable": false,
      "stateMutability": "view",
      "type": "function"
    },
    {
      "constant": false,
      "inputs": [
        {
          "name": "_which",
          "type": "address"
        },
        {
          "name": "_amount",
          "type": "uint256"
        }
      ],
      "name": "forceSwap",
      "outputs": [
        {
          "name": "",
          "type": "bool"
        }
      ],
      "payable": false,
      "stateMutability": "nonpayable",
      "type": "function"
    },
    {
      "constant": true,
      "inputs": [],
      "name": "contractsRegistry",
      "outputs": [
        {
          "name": "",
          "type": "address"
        }
      ],
      "payable": false,
      "stateMutability": "view",
      "type": "function"
    },
    {
      "constant": true,
      "inputs": [],
      "name": "exchangeableToken",
      "outputs": [
        {
          "name": "",
          "type": "address"
        }
      ],
      "payable": false,
      "stateMutability": "view",
      "type": "function"
    },
    {
      "constant": true,
      "inputs": [
        {
          "name": "_owner",
          "type": "address"
        },
        {
          "name": "_spender",
          "type": "address"
        }
      ],
      "name": "allowance",
      "outputs": [
        {
          "name": "",
          "type": "uint256"
        }
      ],
      "payable": false,
      "stateMutability": "view",
      "type": "function"
    },
    {
      "constant": false,
      "inputs": [
        {
          "name": "_which",
          "type": "address"
        }
      ],
      "name": "setExchangeableToken",
      "outputs": [
        {
          "name": "",
          "type": "bool"
        }
      ],
      "payable": false,
      "stateMutability": "nonpayable",
      "type": "function"
    },
    {
      "constant": false,
      "inputs": [
        {
          "name": "_amount",
          "type": "uint256"
        }
      ],
      "name": "swapTokens",
      "outputs": [
        {
          "name": "",
          "type": "bool"
        }
      ],
      "payable": false,
      "stateMutability": "nonpayable",
      "type": "function"
    },
    {
      "inputs": [
        {
          "name": "_name",
          "type": "string"
        },
        {
          "name": "_symbol",
          "type": "string"
        },
        {
          "name": "_systemAddress",
          "type": "address"
        },
        {
          "name": "_authorityAddress",
          "type": "address"
        },
        {
          "name": "_registeryAddress",
          "type": "address"
        },
        {
          "name": "_tokenMaturityDays",
          "type": "uint256"
        },
        {
          "name": "_tokenHoldBackDays",
          "type": "uint256"
        },
        {
          "name": "_returnToken",
          "type": "address"
        }
      ],
      "payable": false,
      "stateMutability": "nonpayable",
      "type": "constructor"
    },
    {
      "payable": true,
      "stateMutability": "payable",
      "type": "fallback"
    },
    {
      "anonymous": false,
      "inputs": [
        {
          "indexed": true,
          "name": "_to",
          "type": "address"
        },
        {
          "indexed": false,
          "name": "value",
          "type": "uint256"
        }
      ],
      "name": "Mint",
      "type": "event"
    },
    {
      "anonymous": false,
      "inputs": [
        {
          "indexed": true,
          "name": "from",
          "type": "address"
        },
        {
          "indexed": false,
          "name": "value",
          "type": "uint256"
        }
      ],
      "name": "Burn",
      "type": "event"
    },
    {
      "anonymous": false,
      "inputs": [
        {
          "indexed": true,
          "name": "spender",
          "type": "address"
        },
        {
          "indexed": true,
          "name": "_from",
          "type": "address"
        },
        {
          "indexed": true,
          "name": "_to",
          "type": "address"
        }
      ],
      "name": "TransferFrom",
      "type": "event"
    },
    {
      "anonymous": false,
      "inputs": [
        {
          "indexed": false,
          "name": "ownerType",
          "type": "string"
        },
        {
          "indexed": true,
          "name": "previousOwner",
          "type": "address"
        },
        {
          "indexed": true,
          "name": "newOwner",
          "type": "address"
        }
      ],
      "name": "OwnershipTransferred",
      "type": "event"
    },
    {
      "anonymous": false,
      "inputs": [
        {
          "indexed": true,
          "name": "previousOwner",
          "type": "address"
        },
        {
          "indexed": true,
          "name": "newOwner",
          "type": "address"
        }
      ],
      "name": "AuthorityAddressChnageCall",
      "type": "event"
    },
    {
      "anonymous": false,
      "inputs": [
        {
          "indexed": true,
          "name": "from",
          "type": "address"
        },
        {
          "indexed": true,
          "name": "to",
          "type": "address"
        },
        {
          "indexed": false,
          "name": "value",
          "type": "uint256"
        }
      ],
      "name": "Transfer",
      "type": "event"
    },
    {
      "anonymous": false,
      "inputs": [
        {
          "indexed": true,
          "name": "owner",
          "type": "address"
        },
        {
          "indexed": true,
          "name": "spender",
          "type": "address"
        },
        {
          "indexed": false,
          "name": "value",
          "type": "uint256"
        }
      ],
      "name": "Approval",
      "type": "event"
    },
    {
      "constant": false,
      "inputs": [
        {
          "name": "_fromToken",
          "type": "address"
        },
        {
          "name": "_amount",
          "type": "uint256"
        }
      ],
      "name": "buyTokens",
      "outputs": [
        {
          "name": "",
          "type": "uint256"
        }
      ],
      "payable": false,
      "stateMutability": "nonpayable",
      "type": "function"
    },
    {
      "constant": false,
      "inputs": [
        {
          "name": "_to",
          "type": "address"
        },
        {
          "name": "_value",
          "type": "uint256"
        }
      ],
      "name": "transfer",
      "outputs": [
        {
          "name": "ok",
          "type": "bool"
        }
      ],
      "payable": false,
      "stateMutability": "nonpayable",
      "type": "function"
    },
    {
      "constant": false,
      "inputs": [
        {
          "name": "_from",
          "type": "address"
        },
        {
          "name": "_to",
          "type": "address"
        },
        {
          "name": "_value",
          "type": "uint256"
        }
      ],
      "name": "transferFrom",
      "outputs": [
        {
          "name": "",
          "type": "bool"
        }
      ],
      "payable": false,
      "stateMutability": "nonpayable",
      "type": "function"
    }
  ],
  "bytecode": "0x6080604052600180546001600160a01b0319908116909155600280548216905560038054821690556004805490911690553480156200003d57600080fd5b5060405162002c2e38038062002c2e83398181016040526101008110156200006457600080fd5b8101908080516401000000008111156200007d57600080fd5b820160208101848111156200009157600080fd5b8151640100000000811182820187101715620000ac57600080fd5b50509291906020018051640100000000811115620000c957600080fd5b82016020810184811115620000dd57600080fd5b8151640100000000811182820187101715620000f857600080fd5b50506020808301516040808501516060860151608087015160a088015160c0909801518451808601909552601085527f4552525f5a45524f5f414444524553530000000000000000000000000000000096850196909652959850929650949193929081908990899089908990889088908b90819088908890889088908290829082906001600160a01b0382166200022a576040517f08c379a00000000000000000000000000000000000000000000000000000000081526004018080602001828103825283818151815260200191508051906020019080838360005b83811015620001ee578181015183820152602001620001d4565b50505050905090810190601f1680156200021c5780820380516001836020036101000a031916815260200191505b509250505060405180910390fd5b5060408051808201909152601081527f4552525f53414d455f41444452455353000000000000000000000000000000006020820152336001600160a01b0385161415620002d4576040517f08c379a0000000000000000000000000000000000000000000000000000000008152602060048201818152835160248401528351909283926044909101919085019080838360008315620001ee578181015183820152602001620001d4565b50816001600160a01b0316836001600160a01b031614156040518060400160405280601081526020017f4552525f53414d455f4144445245535300000000000000000000000000000000815250906200038a576040517f08c379a0000000000000000000000000000000000000000000000000000000008152602060048201818152835160248401528351909283926044909101919085019080838360008315620001ee578181015183820152602001620001d4565b5060408051808201909152601081527f4552525f53414d455f41444452455353000000000000000000000000000000006020820152336001600160a01b038416141562000434576040517f08c379a0000000000000000000000000000000000000000000000000000000008152602060048201818152835160248401528351909283926044909101919085019080838360008315620001ee578181015183820152602001620001d4565b5050600180546001600160a01b03199081163317909155600380546001600160a01b03948516908316179055600280549290931691161790558351158015906200047f575060008351115b6200048957600080fd5b83516200049e90600590602087019062000668565b508251620004b490600690602086019062000668565b505060408051808201909152601081527f4552525f5a45524f5f414444524553530000000000000000000000000000000060208201528493509150506001600160a01b03821662000562576040517f08c379a0000000000000000000000000000000000000000000000000000000008152602060048201818152835160248401528351909283926044909101919085019080838360008315620001ee578181015183820152602001620001d4565b5050600980546001600160a01b0319166001600160a01b0392831617905542600a55600b9390935550600c5560408051808201909152601081527f4552525f5a45524f5f414444524553530000000000000000000000000000000060208201528695509350841615159150620006379050576040517f08c379a0000000000000000000000000000000000000000000000000000000008152602060048201818152835160248401528351909283926044909101919085019080838360008315620001ee578181015183820152602001620001d4565b5050600d80546001600160a01b0319166001600160a01b0392909216919091179055506200070d9650505050505050565b828054600181600116156101000203166002900490600052602060002090601f016020900481019282601f10620006ab57805160ff1916838001178555620006db565b82800160010185558215620006db579182015b82811115620006db578251825591602001919060010190620006be565b50620006e9929150620006ed565b5090565b6200070a91905b80821115620006e95760008155600101620006f4565b90565b612511806200071d6000396000f3fe6080604052600436106101ee5760003560e01c80638dcab1871161010d578063c4b01ebf116100a0578063d98d0c7e1161006f578063d98d0c7e146106a7578063dccaef74146106bc578063dd62ed3e146106d1578063f86119641461070c578063fe784eaa1461073f576101ee565b8063c4b01ebf14610611578063c4d3426814610626578063d3e848f114610659578063d532d6861461066e576101ee565b80639668d13e116100dc5780639668d13e14610557578063a457c2d71461056c578063a9059cbb146105a5578063bc1366fe146105de576101ee565b80638dcab187146104e55780638e10be33146104fa5780638f51368b1461050f57806395d89b4114610542576101ee565b806323b872dd116101855780633c695d4e116101545780633c695d4e1461045e57806342966c681461047357806353ecc7721461049d57806370a08231146104b2576101ee565b806323b872dd146103b85780632e4a3657146103fb578063313ce567146104105780633950935114610425576101ee565b80630abaad7a116101c15780630abaad7a1461034857806317ebc35f1461037957806318160ddd1461038e57806320c462fe146103a3576101ee565b806304d63089146101f357806306fdde031461023a5780630752881a146102c4578063095ea7b31461030f575b600080fd5b3480156101ff57600080fd5b506102266004803603602081101561021657600080fd5b50356001600160a01b0316610769565b604080519115158252519081900360200190f35b34801561024657600080fd5b5061024f610a76565b6040805160208082528351818301528351919283929083019185019080838360005b83811015610289578181015183820152602001610271565b50505050905090810190601f1680156102b65780820380516001836020036101000a031916815260200191505b509250505060405180910390f35b3480156102d057600080fd5b506102fd600480360360408110156102e757600080fd5b506001600160a01b038135169060200135610b04565b60408051918252519081900360200190f35b34801561031b57600080fd5b506102266004803603604081101561033257600080fd5b506001600160a01b038135169060200135610f65565b34801561035457600080fd5b5061035d610ffc565b604080516001600160a01b039092168252519081900360200190f35b34801561038557600080fd5b5061022661100b565b34801561039a57600080fd5b506102fd61105f565b3480156103af57600080fd5b50610226611065565b3480156103c457600080fd5b50610226600480360360608110156103db57600080fd5b506001600160a01b0381358116916020810135909116906040013561117a565b34801561040757600080fd5b5061035d6111a2565b34801561041c57600080fd5b506102fd6111b1565b34801561043157600080fd5b506102266004803603604081101561044857600080fd5b506001600160a01b0381351690602001356111b6565b34801561046a57600080fd5b5061035d6111f6565b34801561047f57600080fd5b506102266004803603602081101561049657600080fd5b5035611205565b3480156104a957600080fd5b506102fd611211565b3480156104be57600080fd5b506102fd600480360360208110156104d557600080fd5b50356001600160a01b0316611217565b3480156104f157600080fd5b506102fd611232565b34801561050657600080fd5b5061035d611238565b34801561051b57600080fd5b506102266004803603602081101561053257600080fd5b50356001600160a01b0316611247565b34801561054e57600080fd5b5061024f611428565b34801561056357600080fd5b506102fd611483565b34801561057857600080fd5b506102266004803603604081101561058f57600080fd5b506001600160a01b038135169060200135611489565b3480156105b157600080fd5b50610226600480360360408110156105c857600080fd5b506001600160a01b038135169060200135611501565b3480156105ea57600080fd5b506102266004803603602081101561060157600080fd5b50356001600160a01b0316611528565b34801561061d57600080fd5b5061022661164d565b34801561063257600080fd5b506102266004803603602081101561064957600080fd5b50356001600160a01b031661165f565b34801561066557600080fd5b5061035d6118a0565b34801561067a57600080fd5b506102266004803603604081101561069157600080fd5b506001600160a01b0381351690602001356118af565b3480156106b357600080fd5b5061035d611938565b3480156106c857600080fd5b5061035d611947565b3480156106dd57600080fd5b506102fd600480360360408110156106f457600080fd5b506001600160a01b0381358116916020013516611956565b34801561071857600080fd5b506102266004803603602081101561072f57600080fd5b50356001600160a01b0316611981565b34801561074b57600080fd5b506102266004803603602081101561076257600080fd5b5035611a7b565b60025460408051808201909152601b81526000805160206124bd83398151915260208201526000916001600160a01b031633146108245760405162461bcd60e51b81526004018080602001828103825283818151815260200191508051906020019080838360005b838110156107e95781810151838201526020016107d1565b50505050905090810190601f1680156108165780820380516001836020036101000a031916815260200191505b509250505060405180910390fd5b506040805180820190915260198152784552525f434f4e54524143545f53454c465f4144445245535360381b602082015282906001600160a01b0382163014156108af5760405162461bcd60e51b81526020600482018181528351602484015283519092839260449091019190850190808383600083156107e95781810151838201526020016107d1565b5060408051808201909152601081526f4552525f5a45524f5f4144445245535360801b602082015283906001600160a01b03821661092e5760405162461bcd60e51b81526020600482018181528351602484015283519092839260449091019190850190808383600083156107e95781810151838201526020016107d1565b506003546001600160a01b0385811691161480159061095b57506002546001600160a01b03858116911614155b801561097557506001546001600160a01b03858116911614155b6040518060400160405280601081526020016f4552525f53414d455f4144445245535360801b815250906109ea5760405162461bcd60e51b81526020600482018181528351602484015283519092839260449091019190850190808383600083156107e95781810151838201526020016107d1565b50600354604080516020808252600e908201526d53595354454d5f4144445245535360901b8183015290516001600160a01b038088169316917f6840904f5b31827f74e1497360da245f56e530c8c3de3163a2d31f11493273c6919081900360600190a3600380546001600160a01b0386166001600160a01b0319909116179055600192505050919050565b6005805460408051602060026001851615610100026000190190941693909304601f81018490048402820184019092528181529291830182828015610afc5780601f10610ad157610100808354040283529160200191610afc565b820191906000526020600020905b815481529060010190602001808311610adf57829003601f168201915b505050505081565b600e5460009083906001600160a01b0380831691161480610b325750600d546001600160a01b038281169116145b610b83576040805162461bcd60e51b815260206004820152601860248201527f4552525f544f4b454e5f49535f4e4f545f494e5f4c4953540000000000000000604482015290519081900360640190fd5b6000610b9b6915d212551157d31254d560b21b611a87565b604080516347d2c08560e01b815233600482015290519192506001600160a01b038316916347d2c08591602480820192602092909190829003018186803b158015610be557600080fd5b505afa158015610bf9573d6000803e3d6000fd5b505050506040513d6020811015610c0f57600080fd5b5051610c57576040805162461bcd60e51b81526020600482015260126024820152714552525f43414e4e4f545f5245434945564560701b604482015290519081900360640190fd5b6000610c6d6743555252454e435960c01b611a87565b90506000816001600160a01b0316637058346f886040518263ffffffff1660e01b815260040180826001600160a01b03166001600160a01b0316815260200191505060206040518083038186803b158015610cc757600080fd5b505afa158015610cdb573d6000803e3d6000fd5b505050506040513d6020811015610cf157600080fd5b505160408051637058346f60e01b815230600482015290519192506000916001600160a01b03851691637058346f916024808301926020929190829003018186803b158015610d3f57600080fd5b505afa158015610d53573d6000803e3d6000fd5b505050506040513d6020811015610d6957600080fd5b505190506000610d82610d7c8985611b05565b83611b29565b600d549091506001600160a01b038a811691161415610e5757886001600160a01b03166323b872dd33610dbc64159055531560da1b611a87565b8b6040518463ffffffff1660e01b815260040180846001600160a01b03166001600160a01b03168152602001836001600160a01b03166001600160a01b031681526020018281526020019350505050602060405180830381600087803b158015610e2557600080fd5b505af1158015610e39573d6000803e3d6000fd5b505050506040513d6020811015610e4f57600080fd5b50610f4e9050565b604080516323b872dd60e01b8152336004820152306024820152604481018a905290516001600160a01b038b16916323b872dd9160648083019260209291908290030181600087803b158015610eac57600080fd5b505af1158015610ec0573d6000803e3d6000fd5b505050506040513d6020811015610ed657600080fd5b505060408051630852cd8d60e31b8152600481018a905290516001600160a01b038b16916342966c689160248083019260209291908290030181600087803b158015610f2157600080fd5b505af1158015610f35573d6000803e3d6000fd5b505050506040513d6020811015610f4b57600080fd5b50505b610f583382611b3e565b5098975050505050505050565b60408051808201909152601081526f4552525f5a45524f5f4144445245535360801b602082015260009083906001600160a01b038216610fe65760405162461bcd60e51b81526020600482018181528351602484015283519092839260449091019190850190808383600083156107e95781810151838201526020016107d1565b50610ff2338585611c14565b5060019392505050565b6004546001600160a01b031681565b6000600b54600014156110205750600061105c565b600061103162015180600b54611b05565b9050600061104182600a54611cf6565b90508042106110555760019250505061105c565b6000925050505b90565b60005481565b60045460408051808201909152601b81526000805160206124bd83398151915260208201526000916001600160a01b031633146110e35760405162461bcd60e51b81526020600482018181528351602484015283519092839260449091019190850190808383600083156107e95781810151838201526020016107d1565b5060045460025460408051602080825260119082015270415554484f524954595f4144445245535360781b8183015290516001600160a01b039384169392909216917f6840904f5b31827f74e1497360da245f56e530c8c3de3163a2d31f11493273c69181900360600190a35060048054600280546001600160a01b03199081166001600160a01b03841617909155169055600190565b60006111868484611d05565b61118f57600080fd5b61119a848484611e07565b949350505050565b600d546001600160a01b031681565b601281565b3360008181526008602090815260408083206001600160a01b03871684529091528120549091610ff290856111eb8487611cf6565b611c14565b92915050565b6002546001600160a01b031681565b60006111f03383612028565b600b5481565b6001600160a01b031660009081526007602052604090205490565b600a5481565b6001546001600160a01b031681565b60025460408051808201909152601b81526000805160206124bd83398151915260208201526000916001600160a01b031633146112c55760405162461bcd60e51b81526020600482018181528351602484015283519092839260449091019190850190808383600083156107e95781810151838201526020016107d1565b5060408051808201909152601081526f4552525f5a45524f5f4144445245535360801b602082015282906001600160a01b0382166113445760405162461bcd60e51b81526020600482018181528351602484015283519092839260449091019190850190808383600083156107e95781810151838201526020016107d1565b506003546001600160a01b0384811691161480159061137157506002546001600160a01b03848116911614155b801561138b57506001546001600160a01b03848116911614155b6040518060400160405280601081526020016f4552525f53414d455f4144445245535360801b815250906114005760405162461bcd60e51b81526020600482018181528351602484015283519092839260449091019190850190808383600083156107e95781810151838201526020016107d1565b50600480546001600160a01b0385166001600160a01b03199091161790556001915050919050565b6006805460408051602060026001851615610100026000190190941693909304601f81018490048402820184019092528181529291830182828015610afc5780601f10610ad157610100808354040283529160200191610afc565b600c5481565b3360009081526008602090815260408083206001600160a01b0386168452909152812054828110156114f2576040805162461bcd60e51b815260206004820152600d60248201526c4552525f414c4c4f57454e434560981b604482015290519081900360640190fd5b610ff233856111eb848761214f565b600061150d3384611d05565b61151657600080fd5b611521338484612161565b9392505050565b60025460408051808201909152601b81526000805160206124bd83398151915260208201526000916001600160a01b031633146115a65760405162461bcd60e51b81526020600482018181528351602484015283519092839260449091019190850190808383600083156107e95781810151838201526020016107d1565b5060408051808201909152601081526f4552525f5a45524f5f4144445245535360801b602082015282906001600160a01b0382166116255760405162461bcd60e51b81526020600482018181528351602484015283519092839260449091019190850190808383600083156107e95781810151838201526020016107d1565b50600980546001600160a01b0385166001600160a01b03199091161790556001915050919050565b60008061103162015180600c54611b05565b60025460408051808201909152601b81526000805160206124bd83398151915260208201526000916001600160a01b031633146116dd5760405162461bcd60e51b81526020600482018181528351602484015283519092839260449091019190850190808383600083156107e95781810151838201526020016107d1565b5060408051808201909152601081526f4552525f5a45524f5f4144445245535360801b602082015282906001600160a01b03821661175c5760405162461bcd60e51b81526020600482018181528351602484015283519092839260449091019190850190808383600083156107e95781810151838201526020016107d1565b506003546001600160a01b0384811691161480159061178957506002546001600160a01b03848116911614155b80156117a357506001546001600160a01b03848116911614155b6040518060400160405280601081526020016f4552525f53414d455f4144445245535360801b815250906118185760405162461bcd60e51b81526020600482018181528351602484015283519092839260449091019190850190808383600083156107e95781810151838201526020016107d1565b50600154604080516020808252600d908201526c282924a6a0a92cafa7aba722a960991b8183015290516001600160a01b038087169316917f6840904f5b31827f74e1497360da245f56e530c8c3de3163a2d31f11493273c6919081900360600190a3600180546001600160a01b0385166001600160a01b0319909116178155915050919050565b6003546001600160a01b031681565b60035460408051808201909152601b81526000805160206124bd83398151915260208201526000916001600160a01b0316331461192d5760405162461bcd60e51b81526020600482018181528351602484015283519092839260449091019190850190808383600083156107e95781810151838201526020016107d1565b506115218383612265565b6009546001600160a01b031681565b600e546001600160a01b031681565b6001600160a01b03918216600090815260086020908152604080832093909416825291909152205490565b60035460408051808201909152601b81526000805160206124bd83398151915260208201526000916001600160a01b031633146119ff5760405162461bcd60e51b81526020600482018181528351602484015283519092839260449091019190850190808383600083156107e95781810151838201526020016107d1565b50600e546001600160a01b031615611a57576040805162461bcd60e51b815260206004820152601660248201527511549497d050d51253d397d393d517d0531313d5d15160521b604482015290519081900360640190fd5b600e80546001600160a01b0319166001600160a01b03939093169290921790915590565b60006111f03383612265565b60095460408051637d4367ab60e11b81526004810184905290516000926001600160a01b03169163fa86cf56916024808301926020929190829003018186803b158015611ad357600080fd5b505afa158015611ae7573d6000803e3d6000fd5b505050506040513d6020811015611afd57600080fd5b505192915050565b600082611b14575060006111f0565b82820282848281611b2157fe5b041461152157fe5b600080828481611b3557fe5b04949350505050565b6001600160a01b038216600090815260076020526040812054611b619083611cf6565b6001600160a01b03841660009081526007602052604081209190915554611b889083611cf6565b6000556040805183815290516001600160a01b038516917f0f6798a560793a54c3bcfe86a93cde1e73087d944c0ea20544137d4121396885919081900360200190a26040805183815290516001600160a01b038516916000917fddf252ad1be2c89b69c2b068fc378daa952ba7f163c4a11628f55a4df523b3ef9181900360200190a350600192915050565b60408051808201909152601081526f4552525f5a45524f5f4144445245535360801b602082015282906001600160a01b038216611c925760405162461bcd60e51b81526020600482018181528351602484015283519092839260449091019190850190808383600083156107e95781810151838201526020016107d1565b506001600160a01b03808516600081815260086020908152604080832094881680845294825291829020869055815186815291517f8c5be1e5ebec7d5bd14f71427d1e84f3dd0314c0f7b2291e5b200ac8c7c3b9259281900390910190a350505050565b60008282018381101561152157fe5b600080611d1e6915d212551157d31254d560b21b611a87565b9050611d36690534d4152545f535741560b41b611a87565b6001600160a01b0316836001600160a01b031614610ff257604080516362c9e97d60e11b81526001600160a01b038681166004830152858116602483015291519183169163c593d2fa91604480820192602092909190829003018186803b158015611da057600080fd5b505afa158015611db4573d6000803e3d6000fd5b505050506040513d6020811015611dca57600080fd5b5051610ff25760405162461bcd60e51b815260040180806020018281038252602381526020018061249a6023913960400191505060405180910390fd5b6040805180820190915260198152784552525f434f4e54524143545f53454c465f4144445245535360381b602082015260009083906001600160a01b038216301415611e945760405162461bcd60e51b81526020600482018181528351602484015283519092839260449091019190850190808383600083156107e95781810151838201526020016107d1565b5060408051808201909152601081526f4552525f5a45524f5f4144445245535360801b602082015284906001600160a01b038216611f135760405162461bcd60e51b81526020600482018181528351602484015283519092839260449091019190850190808383600083156107e95781810151838201526020016107d1565b506001600160a01b0386166000908152600860209081526040808320338452909152902054841115611f85576040805162461bcd60e51b81526020600482015260166024820152754552525f4e4f545f454e4f5547485f42414c414e434560501b604482015290519081900360640190fd5b611f90868686612161565b611f9957600080fd5b6001600160a01b0386166000908152600860209081526040808320338452909152902054611fc7908561214f565b6001600160a01b0380881660008181526008602090815260408083203380855292528083209590955593519289169391927f7d5ad68155582ceeebcef916386e9f0eb9f7a2dce10a880ced4d0d5d782317949190a450600195945050505050565b6001600160a01b0382166000908152600760205260408120548281101561208f576040805162461bcd60e51b81526020600482015260166024820152754552525f4e4f545f454e4f5547485f42414c414e434560501b604482015290519081900360640190fd5b612099818461214f565b6001600160a01b0385166000908152600760205260408120829055549091506120c2908461214f565b6000556040805184815290516001600160a01b038616917fcc16f5dbb4873280815c1ee09dbd06736cffcc184412cf7a71a0fdb75d397ca5919081900360200190a26040805184815290516000916001600160a01b038716917fddf252ad1be2c89b69c2b068fc378daa952ba7f163c4a11628f55a4df523b3ef9181900360200190a35060019392505050565b60008282111561215b57fe5b50900390565b6001600160a01b038316600090815260076020526040812054828110156121c8576040805162461bcd60e51b81526020600482015260166024820152754552525f4e4f545f454e4f5547485f42414c414e434560501b604482015290519081900360640190fd5b6121d2818461214f565b6001600160a01b03808716600090815260076020526040808220849055918716815220549091506122039084611cf6565b6001600160a01b0380861660008181526007602090815260409182902094909455805187815290519193928916927fddf252ad1be2c89b69c2b068fc378daa952ba7f163c4a11628f55a4df523b3ef92918290030190a3506001949350505050565b600d546000906001600160a01b03166122be576040805162461bcd60e51b815260206004820152601660248201527511549497d050d51253d397d393d517d0531313d5d15160521b604482015290519081900360640190fd5b6122c88383612028565b5060006122df6743555252454e435960c01b611a87565b905060006122f464159055531560da1b611a87565b600d5460408051637058346f60e01b81526001600160a01b039283166004820152905192935060009291851691637058346f91602480820192602092909190829003018186803b15801561234757600080fd5b505afa15801561235b573d6000803e3d6000fd5b505050506040513d602081101561237157600080fd5b505160408051637058346f60e01b815230600482015290519192506000916001600160a01b03861691637058346f916024808301926020929190829003018186803b1580156123bf57600080fd5b505afa1580156123d3573d6000803e3d6000fd5b505050506040513d60208110156123e957600080fd5b5051905060006124026123fc8884611b05565b84611b29565b600d546040805163f83d179160e01b81526001600160a01b0392831660048201523360248201526044810184905290519293509086169163f83d1791916064808201926020929091908290030181600087803b15801561246157600080fd5b505af1158015612475573d6000803e3d6000fd5b505050506040513d602081101561248b57600080fd5b50519897505050505050505056fe4552525f4e4f545f484156455f5045524d495353494f4e5f544f5f5452414e534645524552525f415554484f52495a45445f414444524553535f4f4e4c590000000000a265627a7a723058203a572f86d42291a624791822b4eb50c811d558f69ce25657a6f7808c9d171bef64736f6c63430005090032",
  "source": "pragma solidity ^0.5.9;\n\nimport \"./Exchangeable.sol\";\nimport \"../InterFaces/IWhiteList.sol\";\n\n\ncontract EtnToken is Exchangeable {\n    constructor(\n        string memory _name,\n        string memory _symbol,\n        address _systemAddress,\n        address _authorityAddress,\n        address _registeryAddress,\n        uint256 _tokenMaturityDays,\n        uint256 _tokenHoldBackDays,\n        address _returnToken\n    )\n        public\n        TokenUtils(\n            _name,\n            _symbol,\n            _systemAddress,\n            _authorityAddress,\n            _tokenMaturityDays,\n            _tokenHoldBackDays,\n            _registeryAddress\n        )\n        ForceSwap(_returnToken)\n    {}\n\n    function checkBeforeTransfer(address _from, address _to)\n        internal\n        view\n        returns (bool)\n    {\n        address whiteListAddress = getAddressOf(WHITE_LIST);\n\n        if (_to != getAddressOf(SMART_SWAP)) {\n            require(\n                IWhiteList(whiteListAddress).etn_isTransferAllowed(_from, _to),\n                \"ERR_NOT_HAVE_PERMISSION_TO_TRANSFER\"\n            );\n        }\n        return true;\n    }\n\n    // Allows to buyTokens\n    function buyTokens(address _fromToken, uint256 _amount)\n        external\n        isConversionAllowed(_fromToken)\n        returns (uint256)\n    {\n        address whiteListAddress = getAddressOf(WHITE_LIST);\n\n        //check if msg.sender is allowed\n\n        require(\n            IWhiteList(whiteListAddress).etn_isReceiveAllowed(msg.sender),\n            \"ERR_CANNOT_RECIEVE\"\n        );\n        //if(address(this) == getAddressOf(STOCK_TOKEN);)\n\n        ICurrencyPrices currencyPrice = ICurrencyPrices(getAddressOf(CURRENCY));\n\n        uint256 fromTokenPrice = currencyPrice.getCurrencyPrice(_fromToken);\n\n        uint256 currentTokenPrice = currencyPrice.getCurrencyPrice(\n            address(this)\n        );\n\n        uint256 _assignToken = safeDiv(\n            safeMul(_amount, fromTokenPrice),\n            currentTokenPrice\n        );\n\n        if (_fromToken == returnToken) {\n            ERC20(_fromToken).transferFrom(\n                msg.sender,\n                getAddressOf(VAULT),\n                _amount\n            );\n        } else {\n            ERC20(_fromToken).transferFrom(msg.sender, address(this), _amount);\n            IToken(_fromToken).burn(_amount);\n        }\n\n        _mint(msg.sender, _assignToken);\n\n        return _assignToken;\n    }\n\n    function transfer(address _to, uint256 _value) external returns (bool ok) {\n        require(checkBeforeTransfer(msg.sender, _to));\n        return _transfer(msg.sender, _to, _value);\n    }\n\n    function transferFrom(\n        address _from,\n        address _to,\n        uint256 _value\n    ) external returns (bool) {\n        require(checkBeforeTransfer(_from, _to));\n        return _transferFrom(_from, _to, _value);\n    }\n\n    function() external payable {\n        revert();\n    }\n}\n",
  "sourcePath": "/home/safu/minddeft/jointerInc/jointer-token/contracts/Tokens/EtnToken.sol",
  "compiler": {
    "name": "solc",
    "version": "0.5.9+commit.e560f70d.Emscripten.clang"
  },
  "schemaVersion": "3.1.0",
  "updatedAt": "2020-05-22T13:08:46.471Z",
  "devdoc": {
    "methods": {
      "allowance(address,address)": {
        "details": "to check allowed token for transferFrom",
        "params": {
          "_owner": "The address of the account owning tokens",
          "_spender": "The address of the account able to transfer the tokens"
        },
        "return": "Amount of remaining tokens allowed to spent"
      },
      "approve(address,uint256)": {
        "details": "`msg.sender` approves `spender` to spend `value` tokens",
        "params": {
          "_spender": "The address of the account able to transfer the tokens",
          "_value": "The amount of wei to be approved for transfer"
        },
        "return": "Whether the approval was successful or not"
      },
      "balanceOf(address)": {
        "details": "Gets the balance of the specified address.",
        "params": {
          "_who": "The address to query the the balance of."
        },
        "return": "An uint256 representing the amount owned by the passed address."
      },
      "burn(uint256)": {
        "details": "burn token from this address",
        "params": {
          "_value": "uint256 the amount of tokens to be burned"
        }
      },
      "changeAuthorityAddress(address)": {
        "details": "change system address",
        "params": {
          "_which": "The address to which is new Authority address"
        }
      },
      "changePrimaryOwner(address)": {
        "details": "change primary ownership",
        "params": {
          "_which": "The address to which is new owner address"
        }
      },
      "changeSystemAddress(address)": {
        "details": "change system address",
        "params": {
          "_which": "The address to which is new system address"
        }
      },
      "decreaseAllowance(address,uint256)": {
        "details": "`msg.sender` approves `spender` to decrease spend `value` tokens",
        "params": {
          "_spender": "The address of the account able to transfer the tokens",
          "_value": "The amount of wei to be approved for transfer"
        },
        "return": "Whether the approval was successful or not"
      },
      "increaseAllowance(address,uint256)": {
        "details": "`msg.sender` approves `spender` to increase spend `value` tokens",
        "params": {
          "_spender": "The address of the account able to transfer the tokens",
          "_value": "The amount of wei to be approved for transfer"
        },
        "return": "Whether the approval was successful or not"
      }
    }
  },
  "userdoc": {
    "methods": {}
  }
}