{
  "contractName": "ForceSwap",
  "abi": [
    {
      "constant": false,
      "inputs": [
        {
          "name": "_which",
          "type": "address"
        }
      ],
      "name": "changeSystemAddress",
      "outputs": [
        {
          "name": "",
          "type": "bool"
        }
      ],
      "payable": false,
      "stateMutability": "nonpayable",
      "type": "function"
    },
    {
      "constant": true,
      "inputs": [],
      "name": "name",
      "outputs": [
        {
          "name": "",
          "type": "string"
        }
      ],
      "payable": false,
      "stateMutability": "view",
      "type": "function"
    },
    {
      "constant": false,
      "inputs": [
        {
          "name": "_spender",
          "type": "address"
        },
        {
          "name": "_value",
          "type": "uint256"
        }
      ],
      "name": "approve",
      "outputs": [
        {
          "name": "ok",
          "type": "bool"
        }
      ],
      "payable": false,
      "stateMutability": "nonpayable",
      "type": "function"
    },
    {
      "constant": true,
      "inputs": [],
      "name": "newAuthorityAddress",
      "outputs": [
        {
          "name": "",
          "type": "address"
        }
      ],
      "payable": false,
      "stateMutability": "view",
      "type": "function"
    },
    {
      "constant": true,
      "inputs": [],
      "name": "totalSupply",
      "outputs": [
        {
          "name": "",
          "type": "uint256"
        }
      ],
      "payable": false,
      "stateMutability": "view",
      "type": "function"
    },
    {
      "constant": false,
      "inputs": [],
      "name": "acceptAuthorityAddress",
      "outputs": [
        {
          "name": "",
          "type": "bool"
        }
      ],
      "payable": false,
      "stateMutability": "nonpayable",
      "type": "function"
    },
    {
      "constant": false,
      "inputs": [
        {
          "name": "_from",
          "type": "address"
        },
        {
          "name": "_to",
          "type": "address"
        },
        {
          "name": "_value",
          "type": "uint256"
        }
      ],
      "name": "transferFrom",
      "outputs": [
        {
          "name": "",
          "type": "bool"
        }
      ],
      "payable": false,
      "stateMutability": "nonpayable",
      "type": "function"
    },
    {
      "constant": true,
      "inputs": [],
      "name": "returnToken",
      "outputs": [
        {
          "name": "",
          "type": "address"
        }
      ],
      "payable": false,
      "stateMutability": "view",
      "type": "function"
    },
    {
      "constant": true,
      "inputs": [],
      "name": "decimals",
      "outputs": [
        {
          "name": "",
          "type": "uint256"
        }
      ],
      "payable": false,
      "stateMutability": "view",
      "type": "function"
    },
    {
      "constant": true,
      "inputs": [],
      "name": "authorityAddress",
      "outputs": [
        {
          "name": "",
          "type": "address"
        }
      ],
      "payable": false,
      "stateMutability": "view",
      "type": "function"
    },
    {
      "constant": true,
      "inputs": [],
      "name": "isOwnerInitialize",
      "outputs": [
        {
          "name": "",
          "type": "bool"
        }
      ],
      "payable": false,
      "stateMutability": "view",
      "type": "function"
    },
    {
      "constant": false,
      "inputs": [
        {
          "name": "_spender",
          "type": "address"
        },
        {
          "name": "_currentValue",
          "type": "uint256"
        },
        {
          "name": "_value",
          "type": "uint256"
        }
      ],
      "name": "approve",
      "outputs": [
        {
          "name": "ok",
          "type": "bool"
        }
      ],
      "payable": false,
      "stateMutability": "nonpayable",
      "type": "function"
    },
    {
      "constant": false,
      "inputs": [
        {
          "name": "_value",
          "type": "uint256"
        }
      ],
      "name": "burn",
      "outputs": [
        {
          "name": "",
          "type": "bool"
        }
      ],
      "payable": false,
      "stateMutability": "nonpayable",
      "type": "function"
    },
    {
      "constant": true,
      "inputs": [],
      "name": "prevRegistry",
      "outputs": [
        {
          "name": "",
          "type": "address"
        }
      ],
      "payable": false,
      "stateMutability": "view",
      "type": "function"
    },
    {
      "constant": true,
      "inputs": [
        {
          "name": "_who",
          "type": "address"
        }
      ],
      "name": "balanceOf",
      "outputs": [
        {
          "name": "balance",
          "type": "uint256"
        }
      ],
      "payable": false,
      "stateMutability": "view",
      "type": "function"
    },
    {
      "constant": false,
      "inputs": [
        {
          "name": "_primaryOwner",
          "type": "address"
        },
        {
          "name": "_systemAddress",
          "type": "address"
        },
        {
          "name": "_authorityAddress",
          "type": "address"
        }
      ],
      "name": "initializeOwner",
      "outputs": [],
      "payable": false,
      "stateMutability": "nonpayable",
      "type": "function"
    },
    {
      "constant": true,
      "inputs": [],
      "name": "registry",
      "outputs": [
        {
          "name": "",
          "type": "address"
        }
      ],
      "payable": false,
      "stateMutability": "view",
      "type": "function"
    },
    {
      "constant": true,
      "inputs": [],
      "name": "primaryOwner",
      "outputs": [
        {
          "name": "",
          "type": "address"
        }
      ],
      "payable": false,
      "stateMutability": "view",
      "type": "function"
    },
    {
      "constant": false,
      "inputs": [
        {
          "name": "_which",
          "type": "address"
        }
      ],
      "name": "changeAuthorityAddress",
      "outputs": [
        {
          "name": "",
          "type": "bool"
        }
      ],
      "payable": false,
      "stateMutability": "nonpayable",
      "type": "function"
    },
    {
      "constant": true,
      "inputs": [],
      "name": "symbol",
      "outputs": [
        {
          "name": "",
          "type": "string"
        }
      ],
      "payable": false,
      "stateMutability": "view",
      "type": "function"
    },
    {
      "constant": false,
      "inputs": [
        {
          "name": "_to",
          "type": "address"
        },
        {
          "name": "_value",
          "type": "uint256"
        }
      ],
      "name": "transfer",
      "outputs": [
        {
          "name": "ok",
          "type": "bool"
        }
      ],
      "payable": false,
      "stateMutability": "nonpayable",
      "type": "function"
    },
    {
      "constant": false,
      "inputs": [
        {
          "name": "_address",
          "type": "address"
        }
      ],
      "name": "updateRegistery",
      "outputs": [
        {
          "name": "",
          "type": "bool"
        }
      ],
      "payable": false,
      "stateMutability": "nonpayable",
      "type": "function"
    },
    {
      "constant": false,
      "inputs": [
        {
          "name": "_which",
          "type": "address"
        }
      ],
      "name": "changePrimaryOwner",
      "outputs": [
        {
          "name": "",
          "type": "bool"
        }
      ],
      "payable": false,
      "stateMutability": "nonpayable",
      "type": "function"
    },
    {
      "constant": true,
      "inputs": [],
      "name": "systemAddress",
      "outputs": [
        {
          "name": "",
          "type": "address"
        }
      ],
      "payable": false,
      "stateMutability": "view",
      "type": "function"
    },
    {
      "constant": true,
      "inputs": [
        {
          "name": "_owner",
          "type": "address"
        },
        {
          "name": "_spender",
          "type": "address"
        }
      ],
      "name": "allowance",
      "outputs": [
        {
          "name": "",
          "type": "uint256"
        }
      ],
      "payable": false,
      "stateMutability": "view",
      "type": "function"
    },
    {
      "anonymous": false,
      "inputs": [
        {
          "indexed": true,
          "name": "_to",
          "type": "address"
        },
        {
          "indexed": false,
          "name": "value",
          "type": "uint256"
        }
      ],
      "name": "Mint",
      "type": "event"
    },
    {
      "anonymous": false,
      "inputs": [
        {
          "indexed": true,
          "name": "from",
          "type": "address"
        },
        {
          "indexed": false,
          "name": "value",
          "type": "uint256"
        }
      ],
      "name": "Burn",
      "type": "event"
    },
    {
      "anonymous": false,
      "inputs": [
        {
          "indexed": true,
          "name": "spender",
          "type": "address"
        },
        {
          "indexed": true,
          "name": "_from",
          "type": "address"
        },
        {
          "indexed": true,
          "name": "_to",
          "type": "address"
        }
      ],
      "name": "TransferFrom",
      "type": "event"
    },
    {
      "anonymous": false,
      "inputs": [
        {
          "indexed": false,
          "name": "ownerType",
          "type": "string"
        },
        {
          "indexed": true,
          "name": "previousOwner",
          "type": "address"
        },
        {
          "indexed": true,
          "name": "newOwner",
          "type": "address"
        }
      ],
      "name": "OwnershipTransferred",
      "type": "event"
    },
    {
      "anonymous": false,
      "inputs": [
        {
          "indexed": true,
          "name": "previousOwner",
          "type": "address"
        },
        {
          "indexed": true,
          "name": "newOwner",
          "type": "address"
        }
      ],
      "name": "AuthorityAddressChnageCall",
      "type": "event"
    },
    {
      "anonymous": false,
      "inputs": [
        {
          "indexed": true,
          "name": "from",
          "type": "address"
        },
        {
          "indexed": true,
          "name": "to",
          "type": "address"
        },
        {
          "indexed": false,
          "name": "value",
          "type": "uint256"
        }
      ],
      "name": "Transfer",
      "type": "event"
    },
    {
      "anonymous": false,
      "inputs": [
        {
          "indexed": true,
          "name": "owner",
          "type": "address"
        },
        {
          "indexed": true,
          "name": "spender",
          "type": "address"
        },
        {
          "indexed": false,
          "name": "value",
          "type": "uint256"
        }
      ],
      "name": "Approval",
      "type": "event"
    },
    {
      "constant": false,
      "inputs": [
        {
          "name": "_which",
          "type": "address"
        }
      ],
      "name": "setReturnToken",
      "outputs": [
        {
          "name": "",
          "type": "bool"
        }
      ],
      "payable": false,
      "stateMutability": "nonpayable",
      "type": "function"
    },
    {
      "constant": false,
      "inputs": [
        {
          "name": "_which",
          "type": "address"
        },
        {
          "name": "_amount",
          "type": "uint256"
        }
      ],
      "name": "forceSwap",
      "outputs": [
        {
          "name": "",
          "type": "bool"
        }
      ],
      "payable": false,
      "stateMutability": "nonpayable",
      "type": "function"
    }
  ],
  "bytecode": "0x6080604052600180546001600160a01b03199081169091556002805482169055600380549091169055600480546001600160a81b031916905534801561004457600080fd5b50612027806100546000396000f3fe608060405234801561001057600080fd5b50600436106101a95760003560e01c806342966c68116100f957806395d89b4111610097578063c4d3426811610071578063c4d342681461049a578063d3e848f1146104c0578063d532d686146104c8578063dd62ed3e146104f4576101a9565b806395d89b4114610440578063a9059cbb14610448578063bc1366fe14610474576101a9565b8063760e595a116100d3578063760e595a146103d05780637b1039991461040a5780638e10be33146104125780638f51368b1461041a576101a9565b806342966c681461038557806361cd756e146103a257806370a08231146103aa576101a9565b806320c462fe11610166578063313ce56711610140578063313ce5671461033b5780633c695d4e146103435780633ff59a521461034b578063426a849314610353576101a9565b806320c462fe146102f557806323b872dd146102fd5780632e4a365714610333576101a9565b806304d63089146101ae57806306fdde03146101e8578063095ea7b3146102655780630abaad7a146102915780630dcd3d13146102b557806318160ddd146102db575b600080fd5b6101d4600480360360208110156101c457600080fd5b50356001600160a01b0316610522565b604080519115158252519081900360200190f35b6101f061082f565b6040805160208082528351818301528351919283929083019185019080838360005b8381101561022a578181015183820152602001610212565b50505050905090810190601f1680156102575780820380516001836020036101000a031916815260200191505b509250505060405180910390f35b6101d46004803603604081101561027b57600080fd5b506001600160a01b0381351690602001356108bd565b6102996109a7565b604080516001600160a01b039092168252519081900360200190f35b6101d4600480360360208110156102cb57600080fd5b50356001600160a01b03166109b6565b6102e3610ab0565b60408051918252519081900360200190f35b6101d4610ab6565b6101d46004803603606081101561031357600080fd5b506001600160a01b03813581169160208101359091169060400135610bcb565b610299610dec565b6102e3610dfb565b610299610e00565b6101d4610e0f565b6101d46004803603606081101561036957600080fd5b506001600160a01b038135169060208101359060400135610e1f565b6101d46004803603602081101561039b57600080fd5b5035610f7a565b610299610f8c565b6102e3600480360360208110156103c057600080fd5b50356001600160a01b0316610f9b565b610408600480360360608110156103e657600080fd5b506001600160a01b038135811691602081013582169160409091013516610fb6565b005b61029961138c565b61029961139b565b6101d46004803603602081101561043057600080fd5b50356001600160a01b03166113aa565b6101f061158b565b6101d46004803603604081101561045e57600080fd5b506001600160a01b0381351690602001356115e6565b6101d46004803603602081101561048a57600080fd5b50356001600160a01b0316611707565b6101d4600480360360208110156104b057600080fd5b50356001600160a01b031661183b565b610299611a7c565b6101d4600480360360408110156104de57600080fd5b506001600160a01b038135169060200135611a8b565b6102e36004803603604081101561050a57600080fd5b506001600160a01b0381358116916020013516611c9d565b60025460408051808201909152601b8152600080516020611fd383398151915260208201526000916001600160a01b031633146105dd5760405162461bcd60e51b81526004018080602001828103825283818151815260200191508051906020019080838360005b838110156105a257818101518382015260200161058a565b50505050905090810190601f1680156105cf5780820380516001836020036101000a031916815260200191505b509250505060405180910390fd5b506040805180820190915260198152784552525f434f4e54524143545f53454c465f4144445245535360381b602082015282906001600160a01b0382163014156106685760405162461bcd60e51b81526020600482018181528351602484015283519092839260449091019190850190808383600083156105a257818101518382015260200161058a565b5060408051808201909152601081526f4552525f5a45524f5f4144445245535360801b602082015283906001600160a01b0382166106e75760405162461bcd60e51b81526020600482018181528351602484015283519092839260449091019190850190808383600083156105a257818101518382015260200161058a565b506004546001600160a01b0385811691161480159061071457506002546001600160a01b03858116911614155b801561072e57506001546001600160a01b03858116911614155b6040518060400160405280601081526020016f4552525f53414d455f4144445245535360801b815250906107a35760405162461bcd60e51b81526020600482018181528351602484015283519092839260449091019190850190808383600083156105a257818101518382015260200161058a565b50600454604080516020808252600e908201526d53595354454d5f4144445245535360901b8183015290516001600160a01b038088169316917f6840904f5b31827f74e1497360da245f56e530c8c3de3163a2d31f11493273c6919081900360600190a3600480546001600160a01b0386166001600160a01b0319909116179055600192505050919050565b6005805460408051602060026001851615610100026000190190941693909304601f810184900484028201840190925281815292918301828280156108b55780601f1061088a576101008083540402835291602001916108b5565b820191906000526020600020905b81548152906001019060200180831161089857829003601f168201915b505050505081565b60408051808201909152601081526f4552525f5a45524f5f4144445245535360801b602082015260009083906001600160a01b03821661093e5760405162461bcd60e51b81526020600482018181528351602484015283519092839260449091019190850190808383600083156105a257818101518382015260200161058a565b503360008181526008602090815260408083206001600160a01b03891680855290835292819020879055805187815290519293927f8c5be1e5ebec7d5bd14f71427d1e84f3dd0314c0f7b2291e5b200ac8c7c3b925929181900390910190a35060019392505050565b6003546001600160a01b031681565b60045460408051808201909152601b8152600080516020611fd383398151915260208201526000916001600160a01b03163314610a345760405162461bcd60e51b81526020600482018181528351602484015283519092839260449091019190850190808383600083156105a257818101518382015260200161058a565b50600b546001600160a01b031615610a8c576040805162461bcd60e51b815260206004820152601660248201527511549497d050d51253d397d393d517d0531313d5d15160521b604482015290519081900360640190fd5b600b80546001600160a01b0319166001600160a01b03939093169290921790915590565b60005481565b60035460408051808201909152601b8152600080516020611fd383398151915260208201526000916001600160a01b03163314610b345760405162461bcd60e51b81526020600482018181528351602484015283519092839260449091019190850190808383600083156105a257818101518382015260200161058a565b5060035460025460408051602080825260119082015270415554484f524954595f4144445245535360781b8183015290516001600160a01b039384169392909216917f6840904f5b31827f74e1497360da245f56e530c8c3de3163a2d31f11493273c69181900360600190a35060038054600280546001600160a01b03199081166001600160a01b03841617909155169055600190565b6040805180820190915260198152784552525f434f4e54524143545f53454c465f4144445245535360381b602082015260009083906001600160a01b038216301415610c585760405162461bcd60e51b81526020600482018181528351602484015283519092839260449091019190850190808383600083156105a257818101518382015260200161058a565b5060408051808201909152601081526f4552525f5a45524f5f4144445245535360801b602082015284906001600160a01b038216610cd75760405162461bcd60e51b81526020600482018181528351602484015283519092839260449091019190850190808383600083156105a257818101518382015260200161058a565b506001600160a01b0386166000908152600860209081526040808320338452909152902054841115610d49576040805162461bcd60e51b81526020600482015260166024820152754552525f4e4f545f454e4f5547485f42414c414e434560501b604482015290519081900360640190fd5b610d54868686611cc8565b610d5d57600080fd5b6001600160a01b0386166000908152600860209081526040808320338452909152902054610d8b9085611dcc565b6001600160a01b0380881660008181526008602090815260408083203380855292528083209590955593519289169391927f7d5ad68155582ceeebcef916386e9f0eb9f7a2dce10a880ced4d0d5d782317949190a450600195945050505050565b600b546001600160a01b031681565b601281565b6002546001600160a01b031681565b600454600160a01b900460ff1681565b60408051808201909152601081526f4552525f5a45524f5f4144445245535360801b602082015260009084906001600160a01b038216610ea05760405162461bcd60e51b81526020600482018181528351602484015283519092839260449091019190850190808383600083156105a257818101518382015260200161058a565b503360009081526008602090815260408083206001600160a01b03891684529091529020548414610f11576040805162461bcd60e51b815260206004820152601660248201527511549497d050d51253d397d393d517d0531313d5d15160521b604482015290519081900360640190fd5b3360008181526008602090815260408083206001600160a01b038a1680855290835292819020879055805187815290519293927f8c5be1e5ebec7d5bd14f71427d1e84f3dd0314c0f7b2291e5b200ac8c7c3b925929181900390910190a3506001949350505050565b6000610f863383611dde565b92915050565b600a546001600160a01b031681565b6001600160a01b031660009081526007602052604090205490565b60408051808201909152601081526f4552525f5a45524f5f4144445245535360801b602082015283906001600160a01b0382166110345760405162461bcd60e51b81526020600482018181528351602484015283519092839260449091019190850190808383600083156105a257818101518382015260200161058a565b5060408051808201909152601081526f4552525f5a45524f5f4144445245535360801b602082015283906001600160a01b0382166110b35760405162461bcd60e51b81526020600482018181528351602484015283519092839260449091019190850190808383600083156105a257818101518382015260200161058a565b5060408051808201909152601081526f4552525f5a45524f5f4144445245535360801b602082015283906001600160a01b0382166111325760405162461bcd60e51b81526020600482018181528351602484015283519092839260449091019190850190808383600083156105a257818101518382015260200161058a565b50600454600160a01b900460ff1615611192576040805162461bcd60e51b815260206004820152601c60248201527f4552525f4f574e45525f494e5449414c495a45445f414c524541445900000000604482015290519081900360640190fd5b846001600160a01b0316866001600160a01b031614156040518060400160405280601081526020016f4552525f53414d455f4144445245535360801b8152509061121d5760405162461bcd60e51b81526020600482018181528351602484015283519092839260449091019190850190808383600083156105a257818101518382015260200161058a565b50836001600160a01b0316856001600160a01b031614156040518060400160405280601081526020016f4552525f53414d455f4144445245535360801b815250906112a95760405162461bcd60e51b81526020600482018181528351602484015283519092839260449091019190850190808383600083156105a257818101518382015260200161058a565b50836001600160a01b0316866001600160a01b031614156040518060400160405280601081526020016f4552525f53414d455f4144445245535360801b815250906113355760405162461bcd60e51b81526020600482018181528351602484015283519092839260449091019190850190808383600083156105a257818101518382015260200161058a565b5050600180546001600160a01b039687166001600160a01b03199182161790915560048054600280549689169684169690961790955560ff60a01b199590961693169290921792909216600160a01b179092555050565b6009546001600160a01b031681565b6001546001600160a01b031681565b60025460408051808201909152601b8152600080516020611fd383398151915260208201526000916001600160a01b031633146114285760405162461bcd60e51b81526020600482018181528351602484015283519092839260449091019190850190808383600083156105a257818101518382015260200161058a565b5060408051808201909152601081526f4552525f5a45524f5f4144445245535360801b602082015282906001600160a01b0382166114a75760405162461bcd60e51b81526020600482018181528351602484015283519092839260449091019190850190808383600083156105a257818101518382015260200161058a565b506004546001600160a01b038481169116148015906114d457506002546001600160a01b03848116911614155b80156114ee57506001546001600160a01b03848116911614155b6040518060400160405280601081526020016f4552525f53414d455f4144445245535360801b815250906115635760405162461bcd60e51b81526020600482018181528351602484015283519092839260449091019190850190808383600083156105a257818101518382015260200161058a565b50600380546001600160a01b0385166001600160a01b03199091161790556001915050919050565b6006805460408051602060026001851615610100026000190190941693909304601f810184900484028201840190925281815292918301828280156108b55780601f1061088a576101008083540402835291602001916108b5565b6040805180820190915260198152784552525f434f4e54524143545f53454c465f4144445245535360381b602082015260009083906001600160a01b0382163014156116735760405162461bcd60e51b81526020600482018181528351602484015283519092839260449091019190850190808383600083156105a257818101518382015260200161058a565b5060408051808201909152601081526f4552525f5a45524f5f4144445245535360801b602082015284906001600160a01b0382166116f25760405162461bcd60e51b81526020600482018181528351602484015283519092839260449091019190850190808383600083156105a257818101518382015260200161058a565b506116fe338686611cc8565b95945050505050565b60025460408051808201909152601b8152600080516020611fd383398151915260208201526000916001600160a01b031633146117855760405162461bcd60e51b81526020600482018181528351602484015283519092839260449091019190850190808383600083156105a257818101518382015260200161058a565b5060408051808201909152601081526f4552525f5a45524f5f4144445245535360801b602082015282906001600160a01b0382166118045760405162461bcd60e51b81526020600482018181528351602484015283519092839260449091019190850190808383600083156105a257818101518382015260200161058a565b505060098054600a80546001600160a01b038084166001600160a01b03199283161790925590911693169290921790915550600190565b60025460408051808201909152601b8152600080516020611fd383398151915260208201526000916001600160a01b031633146118b95760405162461bcd60e51b81526020600482018181528351602484015283519092839260449091019190850190808383600083156105a257818101518382015260200161058a565b5060408051808201909152601081526f4552525f5a45524f5f4144445245535360801b602082015282906001600160a01b0382166119385760405162461bcd60e51b81526020600482018181528351602484015283519092839260449091019190850190808383600083156105a257818101518382015260200161058a565b506004546001600160a01b0384811691161480159061196557506002546001600160a01b03848116911614155b801561197f57506001546001600160a01b03848116911614155b6040518060400160405280601081526020016f4552525f53414d455f4144445245535360801b815250906119f45760405162461bcd60e51b81526020600482018181528351602484015283519092839260449091019190850190808383600083156105a257818101518382015260200161058a565b50600154604080516020808252600d908201526c282924a6a0a92cafa7aba722a960991b8183015290516001600160a01b038087169316917f6840904f5b31827f74e1497360da245f56e530c8c3de3163a2d31f11493273c6919081900360600190a3600180546001600160a01b0385166001600160a01b0319909116178155915050919050565b6004546001600160a01b031681565b60045460408051808201909152601b8152600080516020611fd383398151915260208201526000916001600160a01b03163314611b095760405162461bcd60e51b81526020600482018181528351602484015283519092839260449091019190850190808383600083156105a257818101518382015260200161058a565b50600b546001600160a01b0316611b60576040805162461bcd60e51b815260206004820152601660248201527511549497d050d51253d397d393d517d0531313d5d15160521b604482015290519081900360640190fd5b611b6a8383611dde565b506000611b816743555252454e435960c01b611f05565b600b5460408051637058346f60e01b81526001600160a01b039283166004820152905192935060009291841691637058346f9160248082019260209290919082900301818787803b158015611bd557600080fd5b505af1158015611be9573d6000803e3d6000fd5b505050506040513d6020811015611bff57600080fd5b505160408051637058346f60e01b815230600482015290519192506000916001600160a01b03851691637058346f91602480830192602092919082900301818787803b158015611c4e57600080fd5b505af1158015611c62573d6000803e3d6000fd5b505050506040513d6020811015611c7857600080fd5b505190506000611c91611c8b8784611f83565b84611fae565b90505050505092915050565b6001600160a01b03918216600090815260086020908152604080832093909416825291909152205490565b6001600160a01b03831660009081526007602052604081205482811015611d2f576040805162461bcd60e51b81526020600482015260166024820152754552525f4e4f545f454e4f5547485f42414c414e434560501b604482015290519081900360640190fd5b611d398184611dcc565b6001600160a01b0380871660009081526007602052604080822084905591871681522054909150611d6a9084611fc3565b6001600160a01b0380861660008181526007602090815260409182902094909455805187815290519193928916927fddf252ad1be2c89b69c2b068fc378daa952ba7f163c4a11628f55a4df523b3ef92918290030190a3506001949350505050565b600082821115611dd857fe5b50900390565b6001600160a01b03821660009081526007602052604081205482811015611e45576040805162461bcd60e51b81526020600482015260166024820152754552525f4e4f545f454e4f5547485f42414c414e434560501b604482015290519081900360640190fd5b611e4f8184611dcc565b6001600160a01b038516600090815260076020526040812082905554909150611e789084611dcc565b6000556040805184815290516001600160a01b038616917fcc16f5dbb4873280815c1ee09dbd06736cffcc184412cf7a71a0fdb75d397ca5919081900360200190a26040805184815290516000916001600160a01b038716917fddf252ad1be2c89b69c2b068fc378daa952ba7f163c4a11628f55a4df523b3ef9181900360200190a35060019392505050565b60095460408051637d4367ab60e11b81526004810184905290516000926001600160a01b03169163fa86cf56916024808301926020929190829003018186803b158015611f5157600080fd5b505afa158015611f65573d6000803e3d6000fd5b505050506040513d6020811015611f7b57600080fd5b505192915050565b600082611f9257506000610f86565b82820282848281611f9f57fe5b0414611fa757fe5b9392505050565b600080828481611fba57fe5b04949350505050565b600082820183811015611fa757fefe4552525f415554484f52495a45445f414444524553535f4f4e4c590000000000a265627a7a7230582091141646b62a0670125aed3d64d0f36a6b67d89a772efd3ee3596fc3203fc8d764736f6c63430005090032",
  "source": "pragma solidity 0.5.9;\nimport \"./StandardToken.sol\";\nimport \"../InterFaces/IAuctionRegistery.sol\";\nimport \"../InterFaces/ICurrencyPrices.sol\";\n\n\ncontract AuctionRegistery is ProxyOwnable, AuctionRegisteryContracts {\n    \n    IAuctionRegistery public registry;\n    IAuctionRegistery public prevRegistry;\n\n    function updateRegistery(address _address)\n        external\n        onlyAuthorized()\n        notZeroAddress(_address)\n        returns (bool)\n    {\n        prevRegistry = registry;\n        registry = IAuctionRegistery(_address);\n        return true;\n    }\n\n    function getAddressOf(bytes32 _contractName)\n        internal\n        view\n        returns (address)\n    {\n        return registry.getAddressOf(_contractName);\n    }\n}\n\n\ncontract TokenMinter is StandardToken {\n    \n    mapping(address=>bool) tokenMinters;\n    \n    mapping(address => uint256) public minterIndex;\n    \n    address[] public minters;\n   \n    modifier onlyMinter() {\n        require(tokenMinters[msg.sender],ERR_AUTHORIZED_ADDRESS_ONLY);\n        _;\n    }\n    \n    function addMinter(address _which) external onlyAuthorized() returns(bool){\n        require(!tokenMinters[_which],ERR_AUTHORIZED_ADDRESS_ONLY);\n        tokenMinters[_which] = true;\n        minterIndex[_which] = minters.length;\n        minters.push(_which);\n        return true;\n        \n    }\n    \n    function removeMinter(address _which) external onlyAuthorized() returns(bool){\n        \n        require(tokenMinters[_which],ERR_AUTHORIZED_ADDRESS_ONLY);\n        \n        uint256 _minterIndex = minterIndex[_which];\n        address _lastAdress = minters[safeSub(minters.length, 1)];\n        minters[_minterIndex] = _lastAdress;\n        minterIndex[_lastAdress] = _minterIndex;\n        delete tokenMinters[_which];\n        delete minters[safeSub(minters.length, 1)];\n        return true;\n        \n    }\n    \n    \n    function mintTokens(uint256 _amount) external onlyMinter() returns(bool){\n        return _mint(msg.sender, _amount);\n    }\n    \n}\n\n\n\n// token paid from vault address\ncontract ForceSwap is StandardToken,AuctionRegistery {\n    \n    address public returnToken;\n    \n    function setReturnToken(address _which) external onlySystem() returns(bool){\n        require(returnToken == address(0),\"ERR_ACTION_NOT_ALLOWED\");\n        returnToken = _which;\n    }\n    \n    function forceSwap(address _which,uint256 _amount) external onlySystem() returns(bool){\n        require(returnToken != address(0),\"ERR_ACTION_NOT_ALLOWED\");\n        _burn(_which,_amount);\n        ICurrencyPrices currencyPrice = ICurrencyPrices(getAddressOf(CURRENCY));\n        uint256 retunTokenPrice = currencyPrice.getCurrencyPrice(returnToken);\n        uint256 currentTokenPrice = currencyPrice.getCurrencyPrice(address(this));\n        uint256 _assignToken = safeDiv(safeMul(_amount,currentTokenPrice),retunTokenPrice);\n        //here we have to develop vault it is not yet developed\n    }\n    \n}\n\n\ncontract SuperTokenUtils is AuctionRegistery,TokenMinter {\n    \n    uint256 public tokenPrice;\n    \n    uint256 public tokenSaleStartDate ;\n\n    uint256 public tokenMaturityDays ;\n\n    uint256 public tokenHoldBackDays ;\n    \n    function isTokenMature() public view returns (bool) {\n        if (tokenMaturityDays == 0) return false;\n        uint256 tempDay = safeMul(86400, tokenMaturityDays);\n        uint256 tempMature = safeAdd(tempDay, tokenSaleStartDate);\n        if (now >= tempMature) {\n            return true;\n        }\n        return false;\n    }\n    \n    function isHoldbackDaysOver() public view returns (bool) {\n        uint256 tempDay = safeMul(86400, tokenHoldBackDays);\n\n        uint256 holdBackDaysEndDay = safeAdd(tempDay, tokenSaleStartDate);\n\n        if (now >= holdBackDaysEndDay) {\n            return true;\n        }\n\n        return false;\n    }\n    \n    \n}",
  "sourcePath": "/home/mind/Work/Projects/Jointer/Jointer_auction/NewContracts/contracts/Tokens/SuperTokenUtils.sol",
  "compiler": {
    "name": "solc",
    "version": "0.5.9+commit.e560f70d.Emscripten.clang"
  },
  "schemaVersion": "3.0.16",
  "updatedAt": "2020-04-22T14:52:56.475Z",
  "devdoc": {
    "methods": {
      "allowance(address,address)": {
        "details": "to check allowed token for transferFrom",
        "params": {
          "_owner": "The address of the account owning tokens",
          "_spender": "The address of the account able to transfer the tokens"
        },
        "return": "Amount of remaining tokens allowed to spent"
      },
      "approve(address,uint256)": {
        "details": "`msg.sender` approves `spender` to spend `value` tokens",
        "params": {
          "_spender": "The address of the account able to transfer the tokens",
          "_value": "The amount of wei to be approved for transfer"
        },
        "return": "Whether the approval was successful or not"
      },
      "approve(address,uint256,uint256)": {
        "details": "`msg.sender` approves `spender` to spend `value` tokensalthough all Dpp work with two argument approve method but we provide this method to ensure user from double spend",
        "params": {
          "_currentValue": "the amount user already apporved",
          "_spender": "The address of the account able to transfer the tokens",
          "_value": "The amount of wei to be approved for transfer"
        },
        "return": "Whether the approval was successful or not"
      },
      "balanceOf(address)": {
        "details": "Gets the balance of the specified address.",
        "params": {
          "_who": "The address to query the the balance of."
        },
        "return": "An uint256 representing the amount owned by the passed address."
      },
      "burn(uint256)": {
        "details": "burn token from this address",
        "params": {
          "_value": "uint256 the amount of tokens to be burned"
        }
      },
      "changeAuthorityAddress(address)": {
        "details": "change system address",
        "params": {
          "_which": "The address to which is new Authority address"
        }
      },
      "changePrimaryOwner(address)": {
        "details": "change primary ownership",
        "params": {
          "_which": "The address to which is new owner address"
        }
      },
      "changeSystemAddress(address)": {
        "details": "change system address",
        "params": {
          "_which": "The address to which is new system address"
        }
      },
      "initializeOwner(address,address,address)": {
        "details": "The Ownable constructor sets the `primaryOwner` and `systemAddress` and '_multisigAddress' account."
      },
      "transfer(address,uint256)": {
        "details": "transfer token for a specified address",
        "params": {
          "_to": "The address to transfer to.",
          "_value": "The amount to be transferred."
        }
      },
      "transferFrom(address,address,uint256)": {
        "details": "Transfer tokens from one address to another",
        "params": {
          "_from": "address The address which you want to send tokens from",
          "_to": "address The address which you want to transfer tokens",
          "_value": "uint256 the amount of tokens to be transferred"
        }
      }
    }
  },
  "userdoc": {
    "methods": {}
  }
}