{
  "contractName": "IndividualBonus",
  "abi": [
    {
      "constant": false,
      "inputs": [
        {
          "name": "_which",
          "type": "address"
        }
      ],
      "name": "changeSystemAddress",
      "outputs": [
        {
          "name": "",
          "type": "bool"
        }
      ],
      "payable": false,
      "stateMutability": "nonpayable",
      "type": "function"
    },
    {
      "constant": true,
      "inputs": [],
      "name": "newAuthorityAddress",
      "outputs": [
        {
          "name": "",
          "type": "address"
        }
      ],
      "payable": false,
      "stateMutability": "view",
      "type": "function"
    },
    {
      "constant": true,
      "inputs": [],
      "name": "X_5",
      "outputs": [
        {
          "name": "",
          "type": "uint256"
        }
      ],
      "payable": false,
      "stateMutability": "view",
      "type": "function"
    },
    {
      "constant": true,
      "inputs": [],
      "name": "X_2",
      "outputs": [
        {
          "name": "",
          "type": "uint256"
        }
      ],
      "payable": false,
      "stateMutability": "view",
      "type": "function"
    },
    {
      "constant": true,
      "inputs": [
        {
          "name": "",
          "type": "uint256"
        }
      ],
      "name": "indexReturn",
      "outputs": [
        {
          "name": "",
          "type": "uint256"
        }
      ],
      "payable": false,
      "stateMutability": "view",
      "type": "function"
    },
    {
      "constant": false,
      "inputs": [],
      "name": "acceptAuthorityAddress",
      "outputs": [
        {
          "name": "",
          "type": "bool"
        }
      ],
      "payable": false,
      "stateMutability": "nonpayable",
      "type": "function"
    },
    {
      "constant": true,
      "inputs": [],
      "name": "authorityAddress",
      "outputs": [
        {
          "name": "",
          "type": "address"
        }
      ],
      "payable": false,
      "stateMutability": "view",
      "type": "function"
    },
    {
      "constant": true,
      "inputs": [],
      "name": "X_3",
      "outputs": [
        {
          "name": "",
          "type": "uint256"
        }
      ],
      "payable": false,
      "stateMutability": "view",
      "type": "function"
    },
    {
      "constant": true,
      "inputs": [],
      "name": "X_0",
      "outputs": [
        {
          "name": "",
          "type": "uint256"
        }
      ],
      "payable": false,
      "stateMutability": "view",
      "type": "function"
    },
    {
      "constant": true,
      "inputs": [],
      "name": "X_4",
      "outputs": [
        {
          "name": "",
          "type": "uint256"
        }
      ],
      "payable": false,
      "stateMutability": "view",
      "type": "function"
    },
    {
      "constant": true,
      "inputs": [],
      "name": "primaryOwner",
      "outputs": [
        {
          "name": "",
          "type": "address"
        }
      ],
      "payable": false,
      "stateMutability": "view",
      "type": "function"
    },
    {
      "constant": false,
      "inputs": [
        {
          "name": "_which",
          "type": "address"
        }
      ],
      "name": "changeAuthorityAddress",
      "outputs": [
        {
          "name": "",
          "type": "bool"
        }
      ],
      "payable": false,
      "stateMutability": "nonpayable",
      "type": "function"
    },
    {
      "constant": true,
      "inputs": [],
      "name": "X_1",
      "outputs": [
        {
          "name": "",
          "type": "uint256"
        }
      ],
      "payable": false,
      "stateMutability": "view",
      "type": "function"
    },
    {
      "constant": false,
      "inputs": [
        {
          "name": "_which",
          "type": "address"
        }
      ],
      "name": "changePrimaryOwner",
      "outputs": [
        {
          "name": "",
          "type": "bool"
        }
      ],
      "payable": false,
      "stateMutability": "nonpayable",
      "type": "function"
    },
    {
      "constant": true,
      "inputs": [],
      "name": "systemAddress",
      "outputs": [
        {
          "name": "",
          "type": "address"
        }
      ],
      "payable": false,
      "stateMutability": "view",
      "type": "function"
    },
    {
      "inputs": [
        {
          "name": "_systemAddress",
          "type": "address"
        },
        {
          "name": "_multisigAdress",
          "type": "address"
        }
      ],
      "payable": false,
      "stateMutability": "nonpayable",
      "type": "constructor"
    },
    {
      "anonymous": false,
      "inputs": [
        {
          "indexed": false,
          "name": "ownerType",
          "type": "string"
        },
        {
          "indexed": true,
          "name": "previousOwner",
          "type": "address"
        },
        {
          "indexed": true,
          "name": "newOwner",
          "type": "address"
        }
      ],
      "name": "OwnershipTransferred",
      "type": "event"
    },
    {
      "anonymous": false,
      "inputs": [
        {
          "indexed": true,
          "name": "previousOwner",
          "type": "address"
        },
        {
          "indexed": true,
          "name": "newOwner",
          "type": "address"
        }
      ],
      "name": "AuthorityAddressChnageCall",
      "type": "event"
    },
    {
      "constant": false,
      "inputs": [
        {
          "name": "_from",
          "type": "uint256"
        },
        {
          "name": "_to",
          "type": "uint256"
        },
        {
          "name": "_percent",
          "type": "uint256"
        }
      ],
      "name": "updatePercentReturn",
      "outputs": [
        {
          "name": "",
          "type": "bool"
        }
      ],
      "payable": false,
      "stateMutability": "nonpayable",
      "type": "function"
    },
    {
      "constant": true,
      "inputs": [
        {
          "name": "_userIndex",
          "type": "uint256"
        },
        {
          "name": "_returnAmount",
          "type": "uint256"
        }
      ],
      "name": "calucalteBonus",
      "outputs": [
        {
          "name": "",
          "type": "uint256"
        }
      ],
      "payable": false,
      "stateMutability": "view",
      "type": "function"
    }
  ],
  "bytecode": "0x6080604052600080546001600160a01b03199081169091556001805482169055600280548216905560038054909116905560646004556096600555608c60065560826007556078600855606e6009553480156200005b57600080fd5b506040516200115b3803806200115b833981810160405260408110156200008157600080fd5b50805160209182015160408051808201909152601081527f4552525f5a45524f5f41444452455353000000000000000000000000000000009381019390935290918290829082906001600160a01b03821662000178576040517f08c379a00000000000000000000000000000000000000000000000000000000081526004018080602001828103825283818151815260200191508051906020019080838360005b838110156200013c57818101518382015260200162000122565b50505050905090810190601f1680156200016a5780820380516001836020036101000a031916815260200191505b509250505060405180910390fd5b5060408051808201909152601081527f4552525f53414d455f41444452455353000000000000000000000000000000006020820152336001600160a01b038516141562000222576040517f08c379a00000000000000000000000000000000000000000000000000000000081526020600482018181528351602484015283519092839260449091019190850190808383600083156200013c57818101518382015260200162000122565b50816001600160a01b0316836001600160a01b031614156040518060400160405280601081526020017f4552525f53414d455f414444524553530000000000000000000000000000000081525090620002d8576040517f08c379a00000000000000000000000000000000000000000000000000000000081526020600482018181528351602484015283519092839260449091019190850190808383600083156200013c57818101518382015260200162000122565b5060408051808201909152601081527f4552525f53414d455f41444452455353000000000000000000000000000000006020820152336001600160a01b038416141562000382576040517f08c379a00000000000000000000000000000000000000000000000000000000081526020600482018181528351602484015283519092839260449091019190850190808383600083156200013c57818101518382015260200162000122565b5050600080546001600160a01b031990811633178255600280546001600160a01b0395861690831617905560018054939094169216919091179091555b60058111620004945780620003e6576004546000828152600a60205260409020556200048b565b806001141562000408576005546000828152600a60205260409020556200048b565b80600214156200042a576006546000828152600a60205260409020556200048b565b80600314156200044c576007546000828152600a60205260409020556200048b565b80600414156200046e576008546000828152600a60205260409020556200048b565b80600514156200048b576009546000828152600a60205260409020555b600101620003bf565b505050610cb480620004a76000396000f3fe608060405234801561001057600080fd5b506004361061010b5760003560e01c80634bfb9857116100a25780638e10be33116100715780638e10be33146102215780638f51368b146102295780639f07dabf1461024f578063c4d3426814610257578063d3e848f11461027d5761010b565b80634bfb9857146101c557806356e4242b146101cd578063592e4a55146101d557806366013f47146101fe5761010b565b80631d4a26d7116100de5780631d4a26d71461019057806320c462fe146101ad5780633c695d4e146101b55780634ab0b263146101bd5761010b565b806304d63089146101105780630abaad7a1461014a5780631222382b1461016e57806315e0a2b614610188575b600080fd5b6101366004803603602081101561012657600080fd5b50356001600160a01b0316610285565b604080519115158252519081900360200190f35b610152610596565b604080516001600160a01b039092168252519081900360200190f35b6101766105a5565b60408051918252519081900360200190f35b6101766105ab565b610176600480360360208110156101a657600080fd5b50356105b1565b6101366105c3565b6101526106d8565b6101766106e7565b6101766106ed565b6101766106f3565b610136600480360360608110156101eb57600080fd5b50803590602081013590604001356106f9565b6101766004803603604081101561021457600080fd5b50803590602001356107a6565b6101526107d7565b6101366004803603602081101561023f57600080fd5b50356001600160a01b03166107e6565b6101766109c7565b6101366004803603602081101561026d57600080fd5b50356001600160a01b03166109cd565b610152610c10565b60015460408051808201909152601b8152600080516020610c6083398151915260208201526000916001600160a01b031633146103405760405162461bcd60e51b81526004018080602001828103825283818151815260200191508051906020019080838360005b838110156103055781810151838201526020016102ed565b50505050905090810190601f1680156103325780820380516001836020036101000a031916815260200191505b509250505060405180910390fd5b5060408051808201909152601981527f4552525f434f4e54524143545f53454c465f4144445245535300000000000000602082015282906001600160a01b0382163014156103cf5760405162461bcd60e51b81526020600482018181528351602484015283519092839260449091019190850190808383600083156103055781810151838201526020016102ed565b5060408051808201909152601081526f4552525f5a45524f5f4144445245535360801b602082015283906001600160a01b03821661044e5760405162461bcd60e51b81526020600482018181528351602484015283519092839260449091019190850190808383600083156103055781810151838201526020016102ed565b506002546001600160a01b0385811691161480159061047b57506001546001600160a01b03858116911614155b801561049557506000546001600160a01b03858116911614155b6040518060400160405280601081526020016f4552525f53414d455f4144445245535360801b8152509061050a5760405162461bcd60e51b81526020600482018181528351602484015283519092839260449091019190850190808383600083156103055781810151838201526020016102ed565b50600254604080516020808252600e908201526d53595354454d5f4144445245535360901b8183015290516001600160a01b038088169316917f6840904f5b31827f74e1497360da245f56e530c8c3de3163a2d31f11493273c6919081900360600190a3600280546001600160a01b0386166001600160a01b0319909116179055600192505050919050565b6003546001600160a01b031681565b60095481565b60065481565b600a6020526000908152604090205481565b60035460408051808201909152601b8152600080516020610c6083398151915260208201526000916001600160a01b031633146106415760405162461bcd60e51b81526020600482018181528351602484015283519092839260449091019190850190808383600083156103055781810151838201526020016102ed565b5060035460015460408051602080825260119082015270415554484f524954595f4144445245535360781b8183015290516001600160a01b039384169392909216917f6840904f5b31827f74e1497360da245f56e530c8c3de3163a2d31f11493273c69181900360600190a35060038054600180546001600160a01b03199081166001600160a01b03841617825590911690915590565b6001546001600160a01b031681565b60075481565b60045481565b60085481565b60025460408051808201909152601b8152600080516020610c6083398151915260208201526000916001600160a01b031633146107775760405162461bcd60e51b81526020600482018181528351602484015283519092839260449091019190850190808383600083156103055781810151838201526020016102ed565b50835b8381101561079b576000818152600a6020526040902083905560010161077a565b506001949350505050565b6000828152600a602052604081205481906107cd906107c6908590610c1f565b6064610c4a565b9150505b92915050565b6000546001600160a01b031681565b60015460408051808201909152601b8152600080516020610c6083398151915260208201526000916001600160a01b031633146108645760405162461bcd60e51b81526020600482018181528351602484015283519092839260449091019190850190808383600083156103055781810151838201526020016102ed565b5060408051808201909152601081526f4552525f5a45524f5f4144445245535360801b602082015282906001600160a01b0382166108e35760405162461bcd60e51b81526020600482018181528351602484015283519092839260449091019190850190808383600083156103055781810151838201526020016102ed565b506002546001600160a01b0384811691161480159061091057506001546001600160a01b03848116911614155b801561092a57506000546001600160a01b03848116911614155b6040518060400160405280601081526020016f4552525f53414d455f4144445245535360801b8152509061099f5760405162461bcd60e51b81526020600482018181528351602484015283519092839260449091019190850190808383600083156103055781810151838201526020016102ed565b50600380546001600160a01b0385166001600160a01b03199091161790556001915050919050565b60055481565b60015460408051808201909152601b8152600080516020610c6083398151915260208201526000916001600160a01b03163314610a4b5760405162461bcd60e51b81526020600482018181528351602484015283519092839260449091019190850190808383600083156103055781810151838201526020016102ed565b5060408051808201909152601081526f4552525f5a45524f5f4144445245535360801b602082015282906001600160a01b038216610aca5760405162461bcd60e51b81526020600482018181528351602484015283519092839260449091019190850190808383600083156103055781810151838201526020016102ed565b506002546001600160a01b03848116911614801590610af757506001546001600160a01b03848116911614155b8015610b1157506000546001600160a01b03848116911614155b6040518060400160405280601081526020016f4552525f53414d455f4144445245535360801b81525090610b865760405162461bcd60e51b81526020600482018181528351602484015283519092839260449091019190850190808383600083156103055781810151838201526020016102ed565b50600054604080516020808252600d908201526c282924a6a0a92cafa7aba722a960991b8183015290516001600160a01b038087169316917f6840904f5b31827f74e1497360da245f56e530c8c3de3163a2d31f11493273c6919081900360600190a3600080546001600160a01b0385166001600160a01b03199091161790556001915050919050565b6002546001600160a01b031681565b600082610c2e575060006107d1565b82820282848281610c3b57fe5b0414610c4357fe5b9392505050565b600080828481610c5657fe5b0494935050505056fe4552525f415554484f52495a45445f414444524553535f4f4e4c590000000000a265627a7a723058207c3ce7e3a540abaaddf3711e2453d226f28a5bca296ee42da838ddd5813f39b064736f6c63430005090032",
  "source": "pragma solidity ^0.5.9;\n\nimport \"../common/Ownable.sol\";\nimport \"../common/SafeMath.sol\";\n\n\ncontract IndividualBonus is Ownable, SafeMath {\n    uint256 public X_0 = 100;\n\n    uint256 public X_1 = 150;\n\n    uint256 public X_2 = 140;\n\n    uint256 public X_3 = 130;\n\n    uint256 public X_4 = 120;\n\n    uint256 public X_5 = 110;\n\n    mapping(uint256 => uint256) public indexReturn;\n\n    constructor(address _systemAddress, address _multisigAdress)\n        public\n        Ownable(_systemAddress, _multisigAdress)\n    {\n        for (uint256 tempX = 0; tempX <= 5; tempX++) {\n            if (tempX == 0) indexReturn[tempX] = X_0;\n            else if (tempX == 1) indexReturn[tempX] = X_1;\n            else if (tempX == 2) indexReturn[tempX] = X_2;\n            else if (tempX == 3) indexReturn[tempX] = X_3;\n            else if (tempX == 4) indexReturn[tempX] = X_4;\n            else if (tempX == 5) indexReturn[tempX] = X_5;\n        }\n    }\n\n    function updatePercentReturn(uint256 _from, uint256 _to, uint256 _percent)\n        public\n        onlySystem()\n        returns (bool)\n    {\n        for (uint256 tempX = _from; tempX < _to; tempX++)\n            indexReturn[tempX] = _percent;\n        return true;\n    }\n\n    function calucalteBonus(uint256 _userIndex, uint256 _returnAmount)\n        public\n        view\n        returns (uint256)\n    {\n        uint256 returnAmount = safeDiv(\n            safeMul(_returnAmount, indexReturn[_userIndex]),\n            100\n        );\n\n        return returnAmount;\n    }\n}\n",
  "sourcePath": "/home/safu/minddeft/jointerInc/jointer-token/contracts/auctionContracts/IndividualBonus.sol",
  "compiler": {
    "name": "solc",
    "version": "0.5.9+commit.e560f70d.Emscripten.clang"
  },
  "schemaVersion": "3.1.0",
  "updatedAt": "2020-05-22T12:32:02.110Z",
  "devdoc": {
    "methods": {
      "changeAuthorityAddress(address)": {
        "details": "change system address",
        "params": {
          "_which": "The address to which is new Authority address"
        }
      },
      "changePrimaryOwner(address)": {
        "details": "change primary ownership",
        "params": {
          "_which": "The address to which is new owner address"
        }
      },
      "changeSystemAddress(address)": {
        "details": "change system address",
        "params": {
          "_which": "The address to which is new system address"
        }
      }
    }
  },
  "userdoc": {
    "methods": {}
  }
}