{
  "contractName": "IndividualBonus",
  "abi": [
    {
      "constant": true,
      "inputs": [],
      "name": "X_200",
      "outputs": [
        {
          "name": "",
          "type": "uint256"
        }
      ],
      "payable": false,
      "stateMutability": "view",
      "type": "function"
    },
    {
      "constant": true,
      "inputs": [
        {
          "name": "",
          "type": "uint256"
        }
      ],
      "name": "percentReturn",
      "outputs": [
        {
          "name": "",
          "type": "uint256"
        }
      ],
      "payable": false,
      "stateMutability": "view",
      "type": "function"
    },
    {
      "constant": false,
      "inputs": [
        {
          "name": "_which",
          "type": "address"
        }
      ],
      "name": "changeSystemAddress",
      "outputs": [
        {
          "name": "",
          "type": "bool"
        }
      ],
      "payable": false,
      "stateMutability": "nonpayable",
      "type": "function"
    },
    {
      "constant": true,
      "inputs": [],
      "name": "X_150",
      "outputs": [
        {
          "name": "",
          "type": "uint256"
        }
      ],
      "payable": false,
      "stateMutability": "view",
      "type": "function"
    },
    {
      "constant": true,
      "inputs": [],
      "name": "newAuthorityAddress",
      "outputs": [
        {
          "name": "",
          "type": "address"
        }
      ],
      "payable": false,
      "stateMutability": "view",
      "type": "function"
    },
    {
      "constant": false,
      "inputs": [],
      "name": "acceptAuthorityAddress",
      "outputs": [
        {
          "name": "",
          "type": "bool"
        }
      ],
      "payable": false,
      "stateMutability": "nonpayable",
      "type": "function"
    },
    {
      "constant": true,
      "inputs": [],
      "name": "authorityAddress",
      "outputs": [
        {
          "name": "",
          "type": "address"
        }
      ],
      "payable": false,
      "stateMutability": "view",
      "type": "function"
    },
    {
      "constant": true,
      "inputs": [],
      "name": "X_100",
      "outputs": [
        {
          "name": "",
          "type": "uint256"
        }
      ],
      "payable": false,
      "stateMutability": "view",
      "type": "function"
    },
    {
      "constant": true,
      "inputs": [],
      "name": "primaryOwner",
      "outputs": [
        {
          "name": "",
          "type": "address"
        }
      ],
      "payable": false,
      "stateMutability": "view",
      "type": "function"
    },
    {
      "constant": false,
      "inputs": [
        {
          "name": "_which",
          "type": "address"
        }
      ],
      "name": "changeAuthorityAddress",
      "outputs": [
        {
          "name": "",
          "type": "bool"
        }
      ],
      "payable": false,
      "stateMutability": "nonpayable",
      "type": "function"
    },
    {
      "constant": true,
      "inputs": [],
      "name": "X_175",
      "outputs": [
        {
          "name": "",
          "type": "uint256"
        }
      ],
      "payable": false,
      "stateMutability": "view",
      "type": "function"
    },
    {
      "constant": false,
      "inputs": [
        {
          "name": "_which",
          "type": "address"
        }
      ],
      "name": "changePrimaryOwner",
      "outputs": [
        {
          "name": "",
          "type": "bool"
        }
      ],
      "payable": false,
      "stateMutability": "nonpayable",
      "type": "function"
    },
    {
      "constant": true,
      "inputs": [],
      "name": "systemAddress",
      "outputs": [
        {
          "name": "",
          "type": "address"
        }
      ],
      "payable": false,
      "stateMutability": "view",
      "type": "function"
    },
    {
      "constant": true,
      "inputs": [],
      "name": "X_125",
      "outputs": [
        {
          "name": "",
          "type": "uint256"
        }
      ],
      "payable": false,
      "stateMutability": "view",
      "type": "function"
    },
    {
      "inputs": [
        {
          "name": "_systemAddress",
          "type": "address"
        },
        {
          "name": "_multisigAdress",
          "type": "address"
        }
      ],
      "payable": false,
      "stateMutability": "nonpayable",
      "type": "constructor"
    },
    {
      "anonymous": false,
      "inputs": [
        {
          "indexed": false,
          "name": "ownerType",
          "type": "string"
        },
        {
          "indexed": true,
          "name": "previousOwner",
          "type": "address"
        },
        {
          "indexed": true,
          "name": "newOwner",
          "type": "address"
        }
      ],
      "name": "OwnershipTransferred",
      "type": "event"
    },
    {
      "anonymous": false,
      "inputs": [
        {
          "indexed": true,
          "name": "previousOwner",
          "type": "address"
        },
        {
          "indexed": true,
          "name": "newOwner",
          "type": "address"
        }
      ],
      "name": "AuthorityAddressChnageCall",
      "type": "event"
    },
    {
      "constant": false,
      "inputs": [
        {
          "name": "_from",
          "type": "uint256"
        },
        {
          "name": "_to",
          "type": "uint256"
        },
        {
          "name": "_percent",
          "type": "uint256"
        }
      ],
      "name": "updatePercentReturn",
      "outputs": [
        {
          "name": "",
          "type": "bool"
        }
      ],
      "payable": false,
      "stateMutability": "nonpayable",
      "type": "function"
    },
    {
      "constant": true,
      "inputs": [
        {
          "name": "_tolalInvestMent",
          "type": "uint256"
        },
        {
          "name": "_userInvestMent",
          "type": "uint256"
        },
        {
          "name": "returnAmount",
          "type": "uint256"
        }
      ],
      "name": "calucalteBonus",
      "outputs": [
        {
          "name": "",
          "type": "uint256"
        }
      ],
      "payable": false,
      "stateMutability": "view",
      "type": "function"
    }
  ],
  "bytecode": "0x6080604052600080546001600160a01b03199081169091556001805482169055600280548216905560038054909116905560c860045560af6005556096600655607d60075560646008553480156200005657600080fd5b506040516200113238038062001132833981810160405260408110156200007c57600080fd5b50805160209182015160408051808201909152601081527f4552525f5a45524f5f41444452455353000000000000000000000000000000009381019390935290918290829082906001600160a01b03821662000173576040517f08c379a00000000000000000000000000000000000000000000000000000000081526004018080602001828103825283818151815260200191508051906020019080838360005b83811015620001375781810151838201526020016200011d565b50505050905090810190601f168015620001655780820380516001836020036101000a031916815260200191505b509250505060405180910390fd5b5060408051808201909152601081527f4552525f53414d455f41444452455353000000000000000000000000000000006020820152336001600160a01b03851614156200021d576040517f08c379a0000000000000000000000000000000000000000000000000000000008152602060048201818152835160248401528351909283926044909101919085019080838360008315620001375781810151838201526020016200011d565b50816001600160a01b0316836001600160a01b031614156040518060400160405280601081526020017f4552525f53414d455f414444524553530000000000000000000000000000000081525090620002d3576040517f08c379a0000000000000000000000000000000000000000000000000000000008152602060048201818152835160248401528351909283926044909101919085019080838360008315620001375781810151838201526020016200011d565b5060408051808201909152601081527f4552525f53414d455f41444452455353000000000000000000000000000000006020820152336001600160a01b03841614156200037d576040517f08c379a0000000000000000000000000000000000000000000000000000000008152602060048201818152835160248401528351909283926044909101919085019080838360008315620001375781810151838201526020016200011d565b5050600080546001600160a01b031990811633178255600280546001600160a01b0395861690831617905560018054939094169216919091179091555b60658110156200046457605f8110620003e5576004546000828152600960205260409020556200045b565b604b811062000406576005546000828152600960205260409020556200045b565b6032811062000427576006546000828152600960205260409020556200045b565b6019811062000448576007546000828152600960205260409020556200045b565b6008546000828152600960205260409020555b600101620003ba565b505050610cbb80620004776000396000f3fe608060405234801561001057600080fd5b50600436106101005760003560e01c8063780d1c6211610097578063b07ef42011610066578063b07ef4201461023a578063c4d3426814610242578063d3e848f114610268578063dfad34b01461027057610100565b8063780d1c62146101db5780638432eae0146101e35780638e10be331461020c5780638f51368b1461021457610100565b80630abaad7a116100d35780630abaad7a1461017e57806320c462fe146101a25780633c695d4e146101aa578063592e4a55146101b257610100565b806301200cb2146101055780630232a4df1461011f57806304d630891461013c57806305114ef314610176575b600080fd5b61010d610278565b60408051918252519081900360200190f35b61010d6004803603602081101561013557600080fd5b503561027e565b6101626004803603602081101561015257600080fd5b50356001600160a01b0316610290565b604080519115158252519081900360200190f35b61010d6105a1565b6101866105a7565b604080516001600160a01b039092168252519081900360200190f35b6101626105b6565b6101866106cb565b610162600480360360608110156101c857600080fd5b50803590602081013590604001356106da565b61010d610787565b61010d600480360360608110156101f957600080fd5b508035906020810135906040013561078d565b6101866107d6565b6101626004803603602081101561022a57600080fd5b50356001600160a01b03166107e5565b61010d6109c6565b6101626004803603602081101561025857600080fd5b50356001600160a01b03166109cc565b610186610c0f565b61010d610c1e565b60045481565b60096020526000908152604090205481565b60015460408051808201909152601b8152600080516020610c6783398151915260208201526000916001600160a01b0316331461034b5760405162461bcd60e51b81526004018080602001828103825283818151815260200191508051906020019080838360005b838110156103105781810151838201526020016102f8565b50505050905090810190601f16801561033d5780820380516001836020036101000a031916815260200191505b509250505060405180910390fd5b5060408051808201909152601981527f4552525f434f4e54524143545f53454c465f4144445245535300000000000000602082015282906001600160a01b0382163014156103da5760405162461bcd60e51b81526020600482018181528351602484015283519092839260449091019190850190808383600083156103105781810151838201526020016102f8565b5060408051808201909152601081526f4552525f5a45524f5f4144445245535360801b602082015283906001600160a01b0382166104595760405162461bcd60e51b81526020600482018181528351602484015283519092839260449091019190850190808383600083156103105781810151838201526020016102f8565b506002546001600160a01b0385811691161480159061048657506001546001600160a01b03858116911614155b80156104a057506000546001600160a01b03858116911614155b6040518060400160405280601081526020016f4552525f53414d455f4144445245535360801b815250906105155760405162461bcd60e51b81526020600482018181528351602484015283519092839260449091019190850190808383600083156103105781810151838201526020016102f8565b50600254604080516020808252600e908201526d53595354454d5f4144445245535360901b8183015290516001600160a01b038088169316917f6840904f5b31827f74e1497360da245f56e530c8c3de3163a2d31f11493273c6919081900360600190a3600280546001600160a01b0386166001600160a01b0319909116179055600192505050919050565b60065481565b6003546001600160a01b031681565b60035460408051808201909152601b8152600080516020610c6783398151915260208201526000916001600160a01b031633146106345760405162461bcd60e51b81526020600482018181528351602484015283519092839260449091019190850190808383600083156103105781810151838201526020016102f8565b5060035460015460408051602080825260119082015270415554484f524954595f4144445245535360781b8183015290516001600160a01b039384169392909216917f6840904f5b31827f74e1497360da245f56e530c8c3de3163a2d31f11493273c69181900360600190a35060038054600180546001600160a01b03199081166001600160a01b03841617825590911690915590565b6001546001600160a01b031681565b60025460408051808201909152601b8152600080516020610c6783398151915260208201526000916001600160a01b031633146107585760405162461bcd60e51b81526020600482018181528351602484015283519092839260449091019190850190808383600083156103105781810151838201526020016102f8565b50835b8381101561077c57600081815260096020526040902083905560010161075b565b506001949350505050565b60085481565b6000806107a461079e856064610c24565b86610c51565b90506107cd6107c6846009600085815260200190815260200160002054610c24565b6064610c51565b95945050505050565b6000546001600160a01b031681565b60015460408051808201909152601b8152600080516020610c6783398151915260208201526000916001600160a01b031633146108635760405162461bcd60e51b81526020600482018181528351602484015283519092839260449091019190850190808383600083156103105781810151838201526020016102f8565b5060408051808201909152601081526f4552525f5a45524f5f4144445245535360801b602082015282906001600160a01b0382166108e25760405162461bcd60e51b81526020600482018181528351602484015283519092839260449091019190850190808383600083156103105781810151838201526020016102f8565b506002546001600160a01b0384811691161480159061090f57506001546001600160a01b03848116911614155b801561092957506000546001600160a01b03848116911614155b6040518060400160405280601081526020016f4552525f53414d455f4144445245535360801b8152509061099e5760405162461bcd60e51b81526020600482018181528351602484015283519092839260449091019190850190808383600083156103105781810151838201526020016102f8565b50600380546001600160a01b0385166001600160a01b03199091161790556001915050919050565b60055481565b60015460408051808201909152601b8152600080516020610c6783398151915260208201526000916001600160a01b03163314610a4a5760405162461bcd60e51b81526020600482018181528351602484015283519092839260449091019190850190808383600083156103105781810151838201526020016102f8565b5060408051808201909152601081526f4552525f5a45524f5f4144445245535360801b602082015282906001600160a01b038216610ac95760405162461bcd60e51b81526020600482018181528351602484015283519092839260449091019190850190808383600083156103105781810151838201526020016102f8565b506002546001600160a01b03848116911614801590610af657506001546001600160a01b03848116911614155b8015610b1057506000546001600160a01b03848116911614155b6040518060400160405280601081526020016f4552525f53414d455f4144445245535360801b81525090610b855760405162461bcd60e51b81526020600482018181528351602484015283519092839260449091019190850190808383600083156103105781810151838201526020016102f8565b50600054604080516020808252600d908201526c282924a6a0a92cafa7aba722a960991b8183015290516001600160a01b038087169316917f6840904f5b31827f74e1497360da245f56e530c8c3de3163a2d31f11493273c6919081900360600190a3600080546001600160a01b0385166001600160a01b03199091161790556001915050919050565b6002546001600160a01b031681565b60075481565b600082610c3357506000610c4b565b82820282848281610c4057fe5b0414610c4857fe5b90505b92915050565b600080828481610c5d57fe5b0494935050505056fe4552525f415554484f52495a45445f414444524553535f4f4e4c590000000000a265627a7a7230582027589df300913a693363f349b6b79279e6a7b034d1e208914c87547f44dbe08464736f6c63430005090032",
  "source": "pragma solidity ^0.5.9;\n\nimport '../common/Ownable.sol';\nimport '../common/SafeMath.sol';\n\ncontract IndividualBonus is Ownable,SafeMath{\n    \n    \n    uint256 public X_200 = 200;\n    \n    uint256 public X_175 = 175;\n    \n    uint256 public X_150 = 150;\n    \n    uint256 public X_125 = 125;\n    \n    uint256 public X_100 = 100;\n    \n    mapping(uint256 => uint256) public percentReturn;\n    \n    \n    constructor(address _systemAddress,address _multisigAdress) public Ownable(_systemAddress,_multisigAdress){\n        \n       for(uint256 tempX=0;tempX<101;tempX++){\n           \n        if(tempX >= 95)\n            percentReturn[tempX] = X_200;\n        else if(tempX >= 75)\n            percentReturn[tempX] = X_175;\n        else if(tempX >= 50)\n            percentReturn[tempX] = X_150;\n        else if(tempX >= 25)\n            percentReturn[tempX] = X_125;\n        else\n            percentReturn[tempX] = X_100;\n        \n       }\n        \n    }\n    \n    \n    function updatePercentReturn(uint256 _from,uint256 _to,uint256 _percent) public onlySystem() returns ( bool ){\n        for(uint256 tempX=_from ; tempX<_to ; tempX++)\n            percentReturn[tempX] = _percent;\n        return true;\n    }\n    \n    \n    function calucalteBonus(uint256 _tolalInvestMent,uint256 _userInvestMent,uint256 returnAmount) public view returns ( uint256 ){\n        uint256 percent =  safeDiv(safeMul(_userInvestMent,100),_tolalInvestMent);\n        \n        returnAmount = safeDiv(safeMul(returnAmount,percentReturn[percent]),100);\n        \n        return returnAmount;\n    }\n    \n    \n    \n    \n}",
  "sourcePath": "/home/mind/Work/Projects/Jointer/Jointer_auction/NewContracts/contracts/auctionContracts/IndividualBonus.sol",
  "compiler": {
    "name": "solc",
    "version": "0.5.9+commit.e560f70d.Emscripten.clang"
  },
  "schemaVersion": "3.0.16",
  "updatedAt": "2020-05-04T15:22:10.991Z",
  "devdoc": {
    "methods": {
      "changeAuthorityAddress(address)": {
        "details": "change system address",
        "params": {
          "_which": "The address to which is new Authority address"
        }
      },
      "changePrimaryOwner(address)": {
        "details": "change primary ownership",
        "params": {
          "_which": "The address to which is new owner address"
        }
      },
      "changeSystemAddress(address)": {
        "details": "change system address",
        "params": {
          "_which": "The address to which is new system address"
        }
      }
    }
  },
  "userdoc": {
    "methods": {}
  }
}