{
  "contractName": "Liquadity",
  "abi": [
    {
      "constant": false,
      "inputs": [
        {
          "name": "_which",
          "type": "address"
        }
      ],
      "name": "changeSystemAddress",
      "outputs": [
        {
          "name": "",
          "type": "bool"
        }
      ],
      "payable": false,
      "stateMutability": "nonpayable",
      "type": "function"
    },
    {
      "constant": true,
      "inputs": [],
      "name": "reductionStartDay",
      "outputs": [
        {
          "name": "",
          "type": "uint256"
        }
      ],
      "payable": false,
      "stateMutability": "view",
      "type": "function"
    },
    {
      "constant": true,
      "inputs": [],
      "name": "newAuthorityAddress",
      "outputs": [
        {
          "name": "",
          "type": "address"
        }
      ],
      "payable": false,
      "stateMutability": "view",
      "type": "function"
    },
    {
      "constant": true,
      "inputs": [
        {
          "name": "_fromToken",
          "type": "address"
        },
        {
          "name": "_toToken",
          "type": "address"
        },
        {
          "name": "_amount",
          "type": "uint256"
        }
      ],
      "name": "getReturn",
      "outputs": [
        {
          "name": "",
          "type": "uint256"
        },
        {
          "name": "",
          "type": "uint256"
        }
      ],
      "payable": false,
      "stateMutability": "view",
      "type": "function"
    },
    {
      "constant": false,
      "inputs": [],
      "name": "acceptAuthorityAddress",
      "outputs": [
        {
          "name": "",
          "type": "bool"
        }
      ],
      "payable": false,
      "stateMutability": "nonpayable",
      "type": "function"
    },
    {
      "constant": false,
      "inputs": [
        {
          "name": "_redempationPath",
          "type": "address[]"
        }
      ],
      "name": "setRedempationPath",
      "outputs": [
        {
          "name": "",
          "type": "bool"
        }
      ],
      "payable": false,
      "stateMutability": "nonpayable",
      "type": "function"
    },
    {
      "constant": true,
      "inputs": [
        {
          "name": "",
          "type": "uint256"
        }
      ],
      "name": "contributionPath",
      "outputs": [
        {
          "name": "",
          "type": "address"
        }
      ],
      "payable": false,
      "stateMutability": "view",
      "type": "function"
    },
    {
      "constant": true,
      "inputs": [],
      "name": "authorityAddress",
      "outputs": [
        {
          "name": "",
          "type": "address"
        }
      ],
      "payable": false,
      "stateMutability": "view",
      "type": "function"
    },
    {
      "constant": true,
      "inputs": [],
      "name": "mainToken",
      "outputs": [
        {
          "name": "",
          "type": "address"
        }
      ],
      "payable": false,
      "stateMutability": "view",
      "type": "function"
    },
    {
      "constant": true,
      "inputs": [
        {
          "name": "",
          "type": "address"
        }
      ],
      "name": "allowedAddress",
      "outputs": [
        {
          "name": "",
          "type": "bool"
        }
      ],
      "payable": false,
      "stateMutability": "view",
      "type": "function"
    },
    {
      "constant": false,
      "inputs": [
        {
          "name": "_ratio",
          "type": "uint256"
        }
      ],
      "name": "setSideReseverRatio",
      "outputs": [
        {
          "name": "",
          "type": "bool"
        }
      ],
      "payable": false,
      "stateMutability": "nonpayable",
      "type": "function"
    },
    {
      "constant": true,
      "inputs": [
        {
          "name": "",
          "type": "uint256"
        }
      ],
      "name": "dayWiseBaseTokenSupply",
      "outputs": [
        {
          "name": "",
          "type": "uint256"
        }
      ],
      "payable": false,
      "stateMutability": "view",
      "type": "function"
    },
    {
      "constant": true,
      "inputs": [
        {
          "name": "_address",
          "type": "address"
        }
      ],
      "name": "etherTokens",
      "outputs": [
        {
          "name": "",
          "type": "bool"
        }
      ],
      "payable": false,
      "stateMutability": "view",
      "type": "function"
    },
    {
      "constant": true,
      "inputs": [
        {
          "name": "",
          "type": "uint256"
        }
      ],
      "name": "redempationPath",
      "outputs": [
        {
          "name": "",
          "type": "address"
        }
      ],
      "payable": false,
      "stateMutability": "view",
      "type": "function"
    },
    {
      "constant": true,
      "inputs": [],
      "name": "primaryOwner",
      "outputs": [
        {
          "name": "",
          "type": "address"
        }
      ],
      "payable": false,
      "stateMutability": "view",
      "type": "function"
    },
    {
      "constant": false,
      "inputs": [
        {
          "name": "_which",
          "type": "address"
        }
      ],
      "name": "changeAuthorityAddress",
      "outputs": [
        {
          "name": "",
          "type": "bool"
        }
      ],
      "payable": false,
      "stateMutability": "nonpayable",
      "type": "function"
    },
    {
      "constant": true,
      "inputs": [],
      "name": "sideReseverRatio",
      "outputs": [
        {
          "name": "",
          "type": "uint256"
        }
      ],
      "payable": false,
      "stateMutability": "view",
      "type": "function"
    },
    {
      "constant": false,
      "inputs": [
        {
          "name": "_limit",
          "type": "uint256"
        }
      ],
      "name": "setAppreciationLimit",
      "outputs": [
        {
          "name": "",
          "type": "bool"
        }
      ],
      "payable": false,
      "stateMutability": "nonpayable",
      "type": "function"
    },
    {
      "constant": true,
      "inputs": [
        {
          "name": "_contractName",
          "type": "bytes32"
        }
      ],
      "name": "addressOf",
      "outputs": [
        {
          "name": "",
          "type": "address"
        }
      ],
      "payable": false,
      "stateMutability": "view",
      "type": "function"
    },
    {
      "constant": true,
      "inputs": [],
      "name": "appreciationLimit",
      "outputs": [
        {
          "name": "",
          "type": "uint256"
        }
      ],
      "payable": false,
      "stateMutability": "view",
      "type": "function"
    },
    {
      "constant": false,
      "inputs": [
        {
          "name": "_address",
          "type": "address"
        }
      ],
      "name": "updateRegistery",
      "outputs": [
        {
          "name": "",
          "type": "bool"
        }
      ],
      "payable": false,
      "stateMutability": "nonpayable",
      "type": "function"
    },
    {
      "constant": true,
      "inputs": [],
      "name": "converter",
      "outputs": [
        {
          "name": "",
          "type": "address"
        }
      ],
      "payable": false,
      "stateMutability": "view",
      "type": "function"
    },
    {
      "constant": false,
      "inputs": [
        {
          "name": "_contributionPath",
          "type": "address[]"
        }
      ],
      "name": "setContributionPath",
      "outputs": [
        {
          "name": "",
          "type": "bool"
        }
      ],
      "payable": false,
      "stateMutability": "nonpayable",
      "type": "function"
    },
    {
      "constant": false,
      "inputs": [
        {
          "name": "_which",
          "type": "address"
        }
      ],
      "name": "changePrimaryOwner",
      "outputs": [
        {
          "name": "",
          "type": "bool"
        }
      ],
      "payable": false,
      "stateMutability": "nonpayable",
      "type": "function"
    },
    {
      "constant": true,
      "inputs": [],
      "name": "baseToken",
      "outputs": [
        {
          "name": "",
          "type": "address"
        }
      ],
      "payable": false,
      "stateMutability": "view",
      "type": "function"
    },
    {
      "constant": true,
      "inputs": [],
      "name": "systemAddress",
      "outputs": [
        {
          "name": "",
          "type": "address"
        }
      ],
      "payable": false,
      "stateMutability": "view",
      "type": "function"
    },
    {
      "constant": true,
      "inputs": [],
      "name": "contractsRegistry",
      "outputs": [
        {
          "name": "",
          "type": "address"
        }
      ],
      "payable": false,
      "stateMutability": "view",
      "type": "function"
    },
    {
      "constant": false,
      "inputs": [
        {
          "name": "_converter",
          "type": "address"
        }
      ],
      "name": "updateConverter",
      "outputs": [
        {
          "name": "",
          "type": "bool"
        }
      ],
      "payable": false,
      "stateMutability": "nonpayable",
      "type": "function"
    },
    {
      "constant": true,
      "inputs": [
        {
          "name": "",
          "type": "uint256"
        }
      ],
      "name": "dayWiseMainTokenSupply",
      "outputs": [
        {
          "name": "",
          "type": "uint256"
        }
      ],
      "payable": false,
      "stateMutability": "view",
      "type": "function"
    },
    {
      "constant": true,
      "inputs": [],
      "name": "relayToken",
      "outputs": [
        {
          "name": "",
          "type": "address"
        }
      ],
      "payable": false,
      "stateMutability": "view",
      "type": "function"
    },
    {
      "constant": false,
      "inputs": [
        {
          "name": "_address",
          "type": "address"
        },
        {
          "name": "_check",
          "type": "bool"
        }
      ],
      "name": "setAllowedAddress",
      "outputs": [
        {
          "name": "",
          "type": "bool"
        }
      ],
      "payable": false,
      "stateMutability": "nonpayable",
      "type": "function"
    },
    {
      "inputs": [
        {
          "name": "_converter",
          "type": "address"
        },
        {
          "name": "_baseToken",
          "type": "address"
        },
        {
          "name": "_mainToken",
          "type": "address"
        },
        {
          "name": "_relayToken",
          "type": "address"
        },
        {
          "name": "_systemAddress",
          "type": "address"
        },
        {
          "name": "_multisigAddress",
          "type": "address"
        },
        {
          "name": "_registeryAddress",
          "type": "address"
        },
        {
          "name": "_contributionPath",
          "type": "address[]"
        },
        {
          "name": "_redempationPath",
          "type": "address[]"
        }
      ],
      "payable": false,
      "stateMutability": "nonpayable",
      "type": "constructor"
    },
    {
      "anonymous": false,
      "inputs": [
        {
          "indexed": false,
          "name": "_token",
          "type": "address"
        },
        {
          "indexed": false,
          "name": "_amount",
          "type": "uint256"
        },
        {
          "indexed": false,
          "name": "returnAmount",
          "type": "uint256"
        }
      ],
      "name": "Contribution",
      "type": "event"
    },
    {
      "anonymous": false,
      "inputs": [
        {
          "indexed": false,
          "name": "_oldPrice",
          "type": "uint256"
        },
        {
          "indexed": false,
          "name": "_newPrice",
          "type": "uint256"
        }
      ],
      "name": "RecoverPrice",
      "type": "event"
    },
    {
      "anonymous": false,
      "inputs": [
        {
          "indexed": false,
          "name": "_token",
          "type": "address"
        },
        {
          "indexed": false,
          "name": "_amount",
          "type": "uint256"
        },
        {
          "indexed": false,
          "name": "returnAmount",
          "type": "uint256"
        }
      ],
      "name": "Redemption",
      "type": "event"
    },
    {
      "anonymous": false,
      "inputs": [
        {
          "indexed": false,
          "name": "_token",
          "type": "address"
        },
        {
          "indexed": false,
          "name": "_from",
          "type": "address"
        },
        {
          "indexed": false,
          "name": "_amount",
          "type": "uint256"
        }
      ],
      "name": "FundDeposited",
      "type": "event"
    },
    {
      "anonymous": false,
      "inputs": [
        {
          "indexed": false,
          "name": "ownerType",
          "type": "string"
        },
        {
          "indexed": true,
          "name": "previousOwner",
          "type": "address"
        },
        {
          "indexed": true,
          "name": "newOwner",
          "type": "address"
        }
      ],
      "name": "OwnershipTransferred",
      "type": "event"
    },
    {
      "anonymous": false,
      "inputs": [
        {
          "indexed": true,
          "name": "previousOwner",
          "type": "address"
        },
        {
          "indexed": true,
          "name": "newOwner",
          "type": "address"
        }
      ],
      "name": "AuthorityAddressChnageCall",
      "type": "event"
    },
    {
      "constant": true,
      "inputs": [],
      "name": "getCurrentMarketPrice",
      "outputs": [
        {
          "name": "",
          "type": "uint256"
        }
      ],
      "payable": false,
      "stateMutability": "view",
      "type": "function"
    },
    {
      "constant": false,
      "inputs": [],
      "name": "contributeWithEther",
      "outputs": [
        {
          "name": "",
          "type": "uint256"
        }
      ],
      "payable": true,
      "stateMutability": "payable",
      "type": "function"
    },
    {
      "constant": false,
      "inputs": [
        {
          "name": "_token",
          "type": "address"
        },
        {
          "name": "_from",
          "type": "address"
        },
        {
          "name": "_amount",
          "type": "uint256"
        }
      ],
      "name": "contributeWithToken",
      "outputs": [
        {
          "name": "",
          "type": "uint256"
        }
      ],
      "payable": false,
      "stateMutability": "nonpayable",
      "type": "function"
    },
    {
      "constant": false,
      "inputs": [
        {
          "name": "_amount",
          "type": "uint256"
        }
      ],
      "name": "contributionSystem",
      "outputs": [
        {
          "name": "",
          "type": "bool"
        }
      ],
      "payable": false,
      "stateMutability": "nonpayable",
      "type": "function"
    },
    {
      "constant": false,
      "inputs": [
        {
          "name": "_amount",
          "type": "uint256"
        }
      ],
      "name": "redemptionSystem",
      "outputs": [
        {
          "name": "",
          "type": "bool"
        }
      ],
      "payable": false,
      "stateMutability": "nonpayable",
      "type": "function"
    },
    {
      "constant": false,
      "inputs": [
        {
          "name": "_path",
          "type": "address[]"
        },
        {
          "name": "_amount",
          "type": "uint256"
        }
      ],
      "name": "redemption",
      "outputs": [
        {
          "name": "",
          "type": "bool"
        }
      ],
      "payable": false,
      "stateMutability": "nonpayable",
      "type": "function"
    },
    {
      "constant": false,
      "inputs": [
        {
          "name": "aucyionDayId",
          "type": "uint256"
        }
      ],
      "name": "auctionEnded",
      "outputs": [
        {
          "name": "",
          "type": "bool"
        }
      ],
      "payable": false,
      "stateMutability": "nonpayable",
      "type": "function"
    },
    {
      "constant": false,
      "inputs": [],
      "name": "depositeEther",
      "outputs": [
        {
          "name": "",
          "type": "bool"
        }
      ],
      "payable": true,
      "stateMutability": "payable",
      "type": "function"
    },
    {
      "constant": false,
      "inputs": [
        {
          "name": "_token",
          "type": "address"
        },
        {
          "name": "_from",
          "type": "address"
        },
        {
          "name": "_amount",
          "type": "uint256"
        }
      ],
      "name": "depositeToken",
      "outputs": [
        {
          "name": "",
          "type": "bool"
        }
      ],
      "payable": false,
      "stateMutability": "nonpayable",
      "type": "function"
    },
    {
      "constant": false,
      "inputs": [
        {
          "name": "_tokens",
          "type": "address"
        },
        {
          "name": "_to",
          "type": "address"
        },
        {
          "name": "_value",
          "type": "uint256"
        }
      ],
      "name": "returnTokens",
      "outputs": [
        {
          "name": "",
          "type": "bool"
        }
      ],
      "payable": false,
      "stateMutability": "nonpayable",
      "type": "function"
    },
    {
      "constant": false,
      "inputs": [
        {
          "name": "_value",
          "type": "uint256"
        }
      ],
      "name": "withDraw",
      "outputs": [
        {
          "name": "",
          "type": "bool"
        }
      ],
      "payable": false,
      "stateMutability": "nonpayable",
      "type": "function"
    }
  ],
  "bytecode": "0x6080604052600080546001600160a01b031990811690915560018054821690556002805482169055600380549091169055605a600e9081556078600f556010553480156200004c57600080fd5b5060405162003d9c38038062003d9c83398181016040526101208110156200007357600080fd5b8151602083015160408401516060850151608086015160a087015160c088015160e08901805197999698959794969395929491939283019291640100000000811115620000bf57600080fd5b82016020810184811115620000d357600080fd5b8151856020820283011164010000000082111715620000f157600080fd5b505092919060200180516401000000008111156200010e57600080fd5b820160208101848111156200012257600080fd5b81518560208202830111640100000000821117156200014057600080fd5b50509291905050508888888888888160006001600160a01b0316816001600160a01b031614156040518060400160405280601081526020017f4552525f5a45524f5f41444452455353000000000000000000000000000000008152509062000243576040517f08c379a00000000000000000000000000000000000000000000000000000000081526004018080602001828103825283818151815260200191508051906020019080838360005b8381101562000207578181015183820152602001620001ed565b50505050905090810190601f168015620002355780820380516001836020036101000a031916815260200191505b509250505060405180910390fd5b5060408051808201909152601081527f4552525f53414d455f41444452455353000000000000000000000000000000006020820152336001600160a01b0385161415620002ed576040517f08c379a000000000000000000000000000000000000000000000000000000000815260206004820181815283516024840152835190928392604490910191908501908083836000831562000207578181015183820152602001620001ed565b50816001600160a01b0316836001600160a01b031614156040518060400160405280601081526020017f4552525f53414d455f414444524553530000000000000000000000000000000081525090620003a3576040517f08c379a000000000000000000000000000000000000000000000000000000000815260206004820181815283516024840152835190928392604490910191908501908083836000831562000207578181015183820152602001620001ed565b5060408051808201909152601081527f4552525f53414d455f41444452455353000000000000000000000000000000006020820152336001600160a01b03841614156200044d576040517f08c379a000000000000000000000000000000000000000000000000000000000815260206004820181815283516024840152835190928392604490910191908501908083836000831562000207578181015183820152602001620001ed565b505060008054336001600160a01b0319918216179091556002805482166001600160a01b0394851617905560018054821692841692909217909155600480548216968316969096179095556005805486169482169490941790935560068054851692841692909217909155600780549093169082161790915560408051808201909152601081527f4552525f5a45524f5f414444524553530000000000000000000000000000000060208201528691821662000566576040517f08c379a000000000000000000000000000000000000000000000000000000000815260206004820181815283516024840152835190928392604490910191908501908083836000831562000207578181015183820152602001620001ed565b50600880546001600160a01b0319166001600160a01b038616179055825162000597906009906020860190620005be565b508151620005ad90600a906020850190620005be565b505050505050505050505062000652565b82805482825590600052602060002090810192821562000616579160200282015b828111156200061657825182546001600160a01b0319166001600160a01b03909116178255602090920191600190910190620005df565b506200062492915062000628565b5090565b6200064f91905b80821115620006245780546001600160a01b03191681556001016200062f565b90565b61373a80620006626000396000f3fe6080604052600436106102515760003560e01c80638f51368b11610139578063c1bc42bb116100b6578063da0062fb1161007a578063da0062fb1461097b578063e4df759f146109ae578063e799b3f5146109f1578063eb9b47c8146109f9578063f4bf3db314610a23578063fae3698614610a3857610251565b8063c1bc42bb146108c6578063c4d3426814610909578063c55dae631461093c578063d3e848f114610951578063d98d0c7e1461096657610251565b8063bb34534c116100fd578063bb34534c1461078f578063bb51f2ba146107b9578063bc1366fe146107ce578063bd38837b14610801578063bdae2d461461081657610251565b80638f51368b146106eb5780639b8f703e1461071e5780639e71238714610733578063ab16b9c91461075d578063b36d57bd1461076557610251565b806334b6ce96116101d25780635d44b445116101965780635d44b445146105fb5780637c926e4e146106255780638077ccf71461064f57806385073576146106825780638b077cce146106ac5780638e10be33146106d657610251565b806334b6ce96146104a95780633c695d4e1461055b5780633fc15f1514610570578063409082981461058557806357fc3991146105b857610251565b80631ae74cce116102195780631ae74cce146103495780631e1401f81461035e57806320c462fe146103ba57806328fb629b146103cf57806332ea039a1461047f57610251565b806304d630891461025657806306bf9a901461029d5780630abaad7a146102c4578063137a96c9146102f557806314174f331461031f575b600080fd5b34801561026257600080fd5b506102896004803603602081101561027957600080fd5b50356001600160a01b0316610a73565b604080519115158252519081900360200190f35b3480156102a957600080fd5b506102b2610d84565b60408051918252519081900360200190f35b3480156102d057600080fd5b506102d9610d8a565b604080516001600160a01b039092168252519081900360200190f35b34801561030157600080fd5b506102896004803603602081101561031857600080fd5b5035610d99565b34801561032b57600080fd5b506102896004803603602081101561034257600080fd5b5035610e2a565b34801561035557600080fd5b506102b2610ed5565b34801561036a57600080fd5b506103a16004803603606081101561038157600080fd5b506001600160a01b0381358116916020810135909116906040013561103f565b6040805192835260208301919091528051918290030190f35b3480156103c657600080fd5b506102896110db565b3480156103db57600080fd5b50610289600480360360208110156103f257600080fd5b81019060208101813564010000000081111561040d57600080fd5b82018360208201111561041f57600080fd5b8035906020019184602083028401116401000000008311171561044157600080fd5b9190808060200260200160405190810160405280939291908181526020018383602002808284376000920191909152509295506111f0945050505050565b34801561048b57600080fd5b506102d9600480360360208110156104a257600080fd5b5035611282565b3480156104b557600080fd5b50610289600480360360408110156104cc57600080fd5b8101906020810181356401000000008111156104e757600080fd5b8201836020820111156104f957600080fd5b8035906020019184602083028401116401000000008311171561051b57600080fd5b91908080602002602001604051908101604052809392919081815260200183836020028082843760009201919091525092955050913592506112a9915050565b34801561056757600080fd5b506102d961165f565b34801561057c57600080fd5b506102d961166e565b34801561059157600080fd5b50610289600480360360208110156105a857600080fd5b50356001600160a01b031661167d565b3480156105c457600080fd5b50610289600480360360608110156105db57600080fd5b506001600160a01b03813581169160208101359091169060400135611692565b34801561060757600080fd5b506102896004803603602081101561061e57600080fd5b5035611726565b34801561063157600080fd5b506102b26004803603602081101561064857600080fd5b50356117ec565b34801561065b57600080fd5b506102896004803603602081101561067257600080fd5b50356001600160a01b03166117fe565b34801561068e57600080fd5b506102d9600480360360208110156106a557600080fd5b50356118a5565b3480156106b857600080fd5b50610289600480360360208110156106cf57600080fd5b50356118b2565b3480156106e257600080fd5b506102d961193a565b3480156106f757600080fd5b506102896004803603602081101561070e57600080fd5b50356001600160a01b0316611949565b34801561072a57600080fd5b506102b2611b2a565b34801561073f57600080fd5b506102896004803603602081101561075657600080fd5b5035611b30565b6102b2611b93565b34801561077157600080fd5b506102896004803603602081101561078857600080fd5b503561206a565b34801561079b57600080fd5b506102d9600480360360208110156107b257600080fd5b50356120f1565b3480156107c557600080fd5b506102b26121e1565b3480156107da57600080fd5b50610289600480360360208110156107f157600080fd5b50356001600160a01b03166121e7565b34801561080d57600080fd5b506102d961230c565b34801561082257600080fd5b506102896004803603602081101561083957600080fd5b81019060208101813564010000000081111561085457600080fd5b82018360208201111561086657600080fd5b8035906020019184602083028401116401000000008311171561088857600080fd5b91908080602002602001604051908101604052809392919081815260200183836020028082843760009201919091525092955061231b945050505050565b3480156108d257600080fd5b50610289600480360360608110156108e957600080fd5b506001600160a01b038135811691602081013590911690604001356123ad565b34801561091557600080fd5b506102896004803603602081101561092c57600080fd5b50356001600160a01b031661240e565b34801561094857600080fd5b506102d9612651565b34801561095d57600080fd5b506102d9612660565b34801561097257600080fd5b506102d961266f565b34801561098757600080fd5b506102896004803603602081101561099e57600080fd5b50356001600160a01b031661267e565b3480156109ba57600080fd5b506102b2600480360360608110156109d157600080fd5b506001600160a01b03813581169160208101359091169060400135612722565b6102896127c7565b348015610a0557600080fd5b506102b260048036036020811015610a1c57600080fd5b503561280d565b348015610a2f57600080fd5b506102d961281f565b348015610a4457600080fd5b5061028960048036036040811015610a5b57600080fd5b506001600160a01b038135169060200135151561282e565b60015460408051808201909152601b81526000805160206136e683398151915260208201526000916001600160a01b03163314610b2e5760405162461bcd60e51b81526004018080602001828103825283818151815260200191508051906020019080838360005b83811015610af3578181015183820152602001610adb565b50505050905090810190601f168015610b205780820380516001836020036101000a031916815260200191505b509250505060405180910390fd5b5060408051808201909152601981527f4552525f434f4e54524143545f53454c465f4144445245535300000000000000602082015282906001600160a01b038216301415610bbd5760405162461bcd60e51b8152602060048201818152835160248401528351909283926044909101919085019080838360008315610af3578181015183820152602001610adb565b5060408051808201909152601081526f4552525f5a45524f5f4144445245535360801b602082015283906001600160a01b038216610c3c5760405162461bcd60e51b8152602060048201818152835160248401528351909283926044909101919085019080838360008315610af3578181015183820152602001610adb565b506002546001600160a01b03858116911614801590610c6957506001546001600160a01b03858116911614155b8015610c8357506000546001600160a01b03858116911614155b6040518060400160405280601081526020016f4552525f53414d455f4144445245535360801b81525090610cf85760405162461bcd60e51b8152602060048201818152835160248401528351909283926044909101919085019080838360008315610af3578181015183820152602001610adb565b50600254604080516020808252600e908201526d53595354454d5f4144445245535360901b8183015290516001600160a01b038088169316917f6840904f5b31827f74e1497360da245f56e530c8c3de3163a2d31f11493273c6919081900360600190a3600280546001600160a01b0386166001600160a01b0319909116179055600192505050919050565b60105481565b6003546001600160a01b031681565b60025460408051808201909152601b81526000805160206136e683398151915260208201526000916001600160a01b03163314610e175760405162461bcd60e51b8152602060048201818152835160248401528351909283926044909101919085019080838360008315610af3578181015183820152602001610adb565b50610e218261295c565b50600192915050565b6000805460408051808201909152601b81526000805160206136e68339815191526020820152906001600160a01b03163314610ea75760405162461bcd60e51b8152602060048201818152835160248401528351909283926044909101919085019080838360008315610af3578181015183820152602001610adb565b50604051339083156108fc029084906000818181858888f19350505050158015610e21573d6000803e3d6000fd5b6000806000610ee2612b01565b91509150600080610ef1612c09565b915091506000610f0b6743555252454e435960c01b612d50565b60055460408051637058346f60e01b81526001600160a01b03928316600482015290519290911691637058346f91602480820192602092909190829003018186803b158015610f5957600080fd5b505afa158015610f6d573d6000803e3d6000fd5b505050506040513d6020811015610f8357600080fd5b505190506000610fa46e41554354494f4e5f464f524d554c4160881b612d50565b6001600160a01b03166342d8537987868887876040518663ffffffff1660e01b8152600401808681526020018581526020018481526020018381526020018281526020019550505050505060206040518083038186803b15801561100757600080fd5b505afa15801561101b573d6000803e3d6000fd5b505050506040513d602081101561103157600080fd5b505196505050505050505b90565b60048054604080516303c2803f60e31b81526001600160a01b0387811694820194909452858416602482015260448101859052815160009485941692631e1401f89260648082019391829003018186803b15801561109c57600080fd5b505afa1580156110b0573d6000803e3d6000fd5b505050506040513d60408110156110c657600080fd5b50805160209091015190969095509350505050565b60035460408051808201909152601b81526000805160206136e683398151915260208201526000916001600160a01b031633146111595760405162461bcd60e51b8152602060048201818152835160248401528351909283926044909101919085019080838360008315610af3578181015183820152602001610adb565b5060035460015460408051602080825260119082015270415554484f524954595f4144445245535360781b8183015290516001600160a01b039384169392909216917f6840904f5b31827f74e1497360da245f56e530c8c3de3163a2d31f11493273c69181900360600190a35060038054600180546001600160a01b03199081166001600160a01b03841617825590911690915590565b60025460408051808201909152601b81526000805160206136e683398151915260208201526000916001600160a01b0316331461126e5760405162461bcd60e51b8152602060048201818152835160248401528351909283926044909101919085019080838360008315610af3578181015183820152602001610adb565b508151610e2190600a906020850190613644565b6009818154811061128f57fe5b6000918252602090912001546001600160a01b0316905081565b60065482516000916001600160a01b031690849083906112c557fe5b60200260200101516001600160a01b031614611328576040805162461bcd60e51b815260206004820152601e60248201527f526564656d7074696f6e204f6e6c792057697468204d61696e546f6b656e0000604482015290519081900360640190fd5b6000611332610ed5565b90506113548460008151811061134457fe5b6020026020010151333086612dce565b6113818460008151811061136457fe5b60209081029190910101516004546001600160a01b031685613061565b6000600460009054906101000a90046001600160a01b03166001600160a01b031663e4dd22f685878760016000806040518763ffffffff1660e01b81526004018080602001868152602001858152602001846001600160a01b03166001600160a01b03168152602001838152602001828103825287818151815260200191508051906020019060200280838360005b83811015611428578181015183820152602001611410565b5050505090500196505050505050506020604051808303818588803b15801561145057600080fd5b505af1158015611464573d6000803e3d6000fd5b50505050506040513d602081101561147b57600080fd5b505190506114986c42616e636f724e6574776f726b60981b6120f1565b6001600160a01b0316638077ccf7866114b3885160016130f2565b815181106114bd57fe5b60200260200101516040518263ffffffff1660e01b815260040180826001600160a01b03166001600160a01b0316815260200191505060206040518083038186803b15801561150b57600080fd5b505afa15801561151f573d6000803e3d6000fd5b505050506040513d602081101561153557600080fd5b50511561156f57604051339082156108fc029083906000818181858888f19350505050158015611569573d6000803e3d6000fd5b50611599565b6115998561157f875160016130f2565b8151811061158957fe5b6020026020010151303384612dce565b7feebddeddf4ae1ee54a48517af27958e7666d69c7ba2e3e7c2b0ff87ef5f4491e856115c7875160016130f2565b815181106115d157fe5b6020026020010151858360405180846001600160a01b03166001600160a01b03168152602001838152602001828152602001935050505060405180910390a17f70742bbad56f12500d21b3dbe73d8f274dcdff888612241e4c9c7166e4b6c4c28261163a610ed5565b6040805192835260208301919091528051918290030190a16001925050505b92915050565b6001546001600160a01b031681565b6006546001600160a01b031681565b600b6020526000908152604090205460ff1681565b6000805460408051808201909152601b81526000805160206136e68339815191526020820152906001600160a01b0316331461170f5760405162461bcd60e51b8152602060048201818152835160248401528351909283926044909101919085019080838360008315610af3578181015183820152602001610adb565b5061171c84308585612dce565b5060019392505050565b6000805460408051808201909152601b81526000805160206136e68339815191526020820152906001600160a01b031633146117a35760405162461bcd60e51b8152602060048201818152835160248401528351909283926044909101919085019080838360008315610af3578181015183820152602001610adb565b50606482106117e35760405162461bcd60e51b81526004018080602001828103825260228152602001806136c46022913960400191505060405180910390fd5b50600e55600190565b600c6020526000908152604090205481565b60008061181a6c42616e636f724e6574776f726b60981b6120f1565b9050806001600160a01b0316638077ccf7846040518263ffffffff1660e01b815260040180826001600160a01b03166001600160a01b0316815260200191505060206040518083038186803b15801561187257600080fd5b505afa158015611886573d6000803e3d6000fd5b505050506040513d602081101561189c57600080fd5b50519392505050565b600a818154811061128f57fe5b60025460408051808201909152601b81526000805160206136e683398151915260208201526000916001600160a01b031633146119305760405162461bcd60e51b8152602060048201818152835160248401528351909283926044909101919085019080838360008315610af3578181015183820152602001610adb565b50610e2182613104565b6000546001600160a01b031681565b60015460408051808201909152601b81526000805160206136e683398151915260208201526000916001600160a01b031633146119c75760405162461bcd60e51b8152602060048201818152835160248401528351909283926044909101919085019080838360008315610af3578181015183820152602001610adb565b5060408051808201909152601081526f4552525f5a45524f5f4144445245535360801b602082015282906001600160a01b038216611a465760405162461bcd60e51b8152602060048201818152835160248401528351909283926044909101919085019080838360008315610af3578181015183820152602001610adb565b506002546001600160a01b03848116911614801590611a7357506001546001600160a01b03848116911614155b8015611a8d57506000546001600160a01b03848116911614155b6040518060400160405280601081526020016f4552525f53414d455f4144445245535360801b81525090611b025760405162461bcd60e51b8152602060048201818152835160248401528351909283926044909101919085019080838360008315610af3578181015183820152602001610adb565b50600380546001600160a01b0385166001600160a01b03199091161790556001915050919050565b600e5481565b6000611b456620aaa1aa24a7a760c91b612d50565b6001600160a01b0316336001600160a01b031614611b6257600080fd5b600080611b6d612b01565b6000868152600d6020908152604080832093909355600c90522055506001915050919050565b336000818152600b60209081526040808320548151808301909252601b82526000805160206136e6833981519152928201929092529192919060ff16611c1a5760405162461bcd60e51b8152602060048201818152835160248401528351909283926044909101919085019080838360008315610af3578181015183820152602001610adb565b5034611c31685441475f414c4f4e4760b81b612d50565b6001600160a01b0316638210b4b4826040518263ffffffff1660e01b815260040180828152602001915050602060405180830381600087803b158015611c7657600080fd5b505af1158015611c8a573d6000803e3d6000fd5b505050506040513d6020811015611ca057600080fd5b5051600e54909150600090611cc190611cba908490613276565b60646132a1565b90506000611cd86620aaa1aa24a7a760c91b612d50565b90506000816001600160a01b03166384d6dffc6040518163ffffffff1660e01b8152600401602060405180830381600087803b158015611d1757600080fd5b505af1158015611d2b573d6000803e3d6000fd5b505050506040513d6020811015611d4157600080fd5b505160105490915081111561203e576000826001600160a01b031663a504dcbb611d6c8460016130f2565b6040518263ffffffff1660e01b81526004018082815260200191505060206040518083038186803b158015611da057600080fd5b505afa158015611db4573d6000803e3d6000fd5b505050506040513d6020811015611dca57600080fd5b5051905060006001600160a01b03841663a504dcbb611dea8560026130f2565b6040518263ffffffff1660e01b81526004018082815260200191505060206040518083038186803b158015611e1e57600080fd5b505afa158015611e32573d6000803e3d6000fd5b505050506040513d6020811015611e4857600080fd5b5051905060006001600160a01b03851663fc0546d1611e688660016130f2565b6040518263ffffffff1660e01b81526004018082815260200191505060206040518083038186803b158015611e9c57600080fd5b505afa158015611eb0573d6000803e3d6000fd5b505050506040513d6020811015611ec657600080fd5b505190506000600c81611eda8760016130f2565b81526020019081526020016000205490506000611f016743555252454e435960c01b612d50565b60055460408051637058346f60e01b81526001600160a01b03928316600482015290519290911691637058346f91602480820192602092909190829003018186803b158015611f4f57600080fd5b505afa158015611f63573d6000803e3d6000fd5b505050506040513d6020811015611f7957600080fd5b505190506000611f9a6e41554354494f4e5f464f524d554c4160881b612d50565b6001600160a01b031663b4c49d6787878787876040518663ffffffff1660e01b8152600401808681526020018581526020018481526020018381526020018281526020019550505050505060206040518083038186803b158015611ffd57600080fd5b505afa158015612011573d6000803e3d6000fd5b505050506040513d602081101561202757600080fd5b5051905061203589826132a1565b98505050505050505b600061204a85856130f2565b90506120558161295c565b5061205e610ed5565b965050505050505b5090565b6000805460408051808201909152601b81526000805160206136e68339815191526020820152906001600160a01b031633146120e75760405162461bcd60e51b8152602060048201818152835160248401528351909283926044909101919085019080838360008315610af3578181015183820152602001610adb565b5050600f55600190565b6004805460408051637b10399960e01b8152905160009384936001600160a01b031692637b1039999281830192602092829003018186803b15801561213557600080fd5b505afa158015612149573d6000803e3d6000fd5b505050506040513d602081101561215f57600080fd5b505160408051632ecd14d360e21b815260048101869052905191925082916001600160a01b0383169163bb34534c916024808301926020929190829003018186803b1580156121ad57600080fd5b505afa1580156121c1573d6000803e3d6000fd5b505050506040513d60208110156121d757600080fd5b5051949350505050565b600f5481565b60015460408051808201909152601b81526000805160206136e683398151915260208201526000916001600160a01b031633146122655760405162461bcd60e51b8152602060048201818152835160248401528351909283926044909101919085019080838360008315610af3578181015183820152602001610adb565b5060408051808201909152601081526f4552525f5a45524f5f4144445245535360801b602082015282906001600160a01b0382166122e45760405162461bcd60e51b8152602060048201818152835160248401528351909283926044909101919085019080838360008315610af3578181015183820152602001610adb565b50600880546001600160a01b0385166001600160a01b03199091161790556001915050919050565b6004546001600160a01b031681565b60025460408051808201909152601b81526000805160206136e683398151915260208201526000916001600160a01b031633146123995760405162461bcd60e51b8152602060048201818152835160248401528351909283926044909101919085019080838360008315610af3578181015183820152602001610adb565b508151610e21906009906020850190613644565b60006123bb84843085612dce565b60408051600081526001600160a01b038516602082015280820184905290517f988be5a4a02a3fab0f0927cf7b83b33931fce7bc30a2380dad1114c673c880519181900360600190a15060019392505050565b60015460408051808201909152601b81526000805160206136e683398151915260208201526000916001600160a01b0316331461248c5760405162461bcd60e51b8152602060048201818152835160248401528351909283926044909101919085019080838360008315610af3578181015183820152602001610adb565b5060408051808201909152601081526f4552525f5a45524f5f4144445245535360801b602082015282906001600160a01b03821661250b5760405162461bcd60e51b8152602060048201818152835160248401528351909283926044909101919085019080838360008315610af3578181015183820152602001610adb565b506002546001600160a01b0384811691161480159061253857506001546001600160a01b03848116911614155b801561255257506000546001600160a01b03848116911614155b6040518060400160405280601081526020016f4552525f53414d455f4144445245535360801b815250906125c75760405162461bcd60e51b8152602060048201818152835160248401528351909283926044909101919085019080838360008315610af3578181015183820152602001610adb565b50600054604080516020808252600d908201526c282924a6a0a92cafa7aba722a960991b8183015290516001600160a01b038087169316917f6840904f5b31827f74e1497360da245f56e530c8c3de3163a2d31f11493273c6919081900360600190a3600080546001600160a01b0385166001600160a01b03199091161790556001915050919050565b6005546001600160a01b031681565b6002546001600160a01b031681565b6008546001600160a01b031681565b60025460408051808201909152601b81526000805160206136e683398151915260208201526000916001600160a01b031633146126fc5760405162461bcd60e51b8152602060048201818152835160248401528351909283926044909101919085019080838360008315610af3578181015183820152602001610adb565b5050600480546001600160a01b0383166001600160a01b03199091161790556001919050565b336000818152600b60209081526040808320548151808301909252601b82526000805160206136e6833981519152928201929092529192919060ff166127a95760405162461bcd60e51b8152602060048201818152835160248401528351909283926044909101919085019080838360008315610af3578181015183820152602001610adb565b506127b685853086612dce565b6127be610ed5565b95945050505050565b604080516000808252336020830152348284015291517f988be5a4a02a3fab0f0927cf7b83b33931fce7bc30a2380dad1114c673c880519181900360600190a150600190565b600d6020526000908152604090205481565b6007546001600160a01b031681565b60025460408051808201909152601b81526000805160206136e683398151915260208201526000916001600160a01b031633146128ac5760405162461bcd60e51b8152602060048201818152835160248401528351909283926044909101919085019080838360008315610af3578181015183820152602001610adb565b5060408051808201909152601081526f4552525f5a45524f5f4144445245535360801b602082015283906001600160a01b03821661292b5760405162461bcd60e51b8152602060048201818152835160248401528351909283926044909101919085019080838360008315610af3578181015183820152602001610adb565b5050506001600160a01b03919091166000908152600b60205260409020805460ff1916911515919091179055600190565b600080600460009054906101000a90046001600160a01b03166001600160a01b031663e4dd22f68460098660016000806040518763ffffffff1660e01b81526004018080602001868152602001858152602001846001600160a01b03166001600160a01b031681526020018381526020018281038252878181548152602001915080548015612a1457602002820191906000526020600020905b81546001600160a01b031681526001909101906020018083116129f6575b505096505050505050506020604051808303818588803b158015612a3757600080fd5b505af1158015612a4b573d6000803e3d6000fd5b50505050506040513d6020811015612a6257600080fd5b505160098054919250612ab191612a7a9060016130f2565b81548110612a8457fe5b6000918252602090912001546001600160a01b031630612aab64159055531560da1b612d50565b84612dce565b60408051600081526020810185905280820183905290517f5f7675b09617d2c9fa4fd13058ee5877a9538f626b0308816736e83748a450409181900360600190a1612afa6132b6565b5092915050565b60048054600554604080516305489ad560e21b81526001600160a01b039283169481019490945251600093849392909216916315226b54916024808301926020929190829003018186803b158015612b5857600080fd5b505afa158015612b6c573d6000803e3d6000fd5b505050506040513d6020811015612b8257600080fd5b505160048054600654604080516305489ad560e21b81526001600160a01b03928316948101949094525193955016916315226b5491602480820192602092909190829003018186803b158015612bd757600080fd5b505afa158015612beb573d6000803e3d6000fd5b505050506040513d6020811015612c0157600080fd5b505190509091565b600480546005546040805163359af54960e21b81526001600160a01b03928316948101949094525160009384938493849384938493929092169163d66bd5249160248083019260a0929190829003018186803b158015612c6857600080fd5b505afa158015612c7c573d6000803e3d6000fd5b505050506040513d60a0811015612c9257600080fd5b5080516020820151604080840151606085015160809095015160048054600654855163359af54960e21b81526001600160a01b0391821693810193909352945163ffffffff9096169d50959a509198509496509394509091169163d66bd5249160248083019260a0929190829003018186803b158015612d1157600080fd5b505afa158015612d25573d6000803e3d6000fd5b505050506040513d60a0811015612d3b57600080fd5b506020015163ffffffff169450505050509091565b60085460408051637d4367ab60e11b81526004810184905290516000926001600160a01b03169163fa86cf56916024808301926020929190829003018186803b158015612d9c57600080fd5b505afa158015612db0573d6000803e3d6000fd5b505050506040513d6020811015612dc657600080fd5b505192915050565b6000846001600160a01b03166370a08231846040518263ffffffff1660e01b815260040180826001600160a01b03166001600160a01b0316815260200191505060206040518083038186803b158015612e2657600080fd5b505afa158015612e3a573d6000803e3d6000fd5b505050506040513d6020811015612e5057600080fd5b505190506001600160a01b038416301415612ef757846001600160a01b031663a9059cbb84846040518363ffffffff1660e01b815260040180836001600160a01b03166001600160a01b0316815260200182815260200192505050602060405180830381600087803b158015612ec557600080fd5b505af1158015612ed9573d6000803e3d6000fd5b505050506040513d6020811015612eef57600080fd5b50612f7f9050565b604080516323b872dd60e01b81526001600160a01b0386811660048301528581166024830152604482018590529151918716916323b872dd916064808201926020929091908290030181600087803b158015612f5257600080fd5b505af1158015612f66573d6000803e3d6000fd5b505050506040513d6020811015612f7c57600080fd5b50505b6000856001600160a01b03166370a08231856040518263ffffffff1660e01b815260040180826001600160a01b03166001600160a01b0316815260200191505060206040518083038186803b158015612fd757600080fd5b505afa158015612feb573d6000803e3d6000fd5b505050506040513d602081101561300157600080fd5b50519050818111613059576040805162461bcd60e51b815260206004820152601960248201527f4552525f544f4b454e5f4e4f545f5452414e5346455252454400000000000000604482015290519081900360640190fd5b505050505050565b826001600160a01b031663095ea7b383836040518363ffffffff1660e01b815260040180836001600160a01b03166001600160a01b0316815260200182815260200192505050602060405180830381600087803b1580156130c157600080fd5b505af11580156130d5573d6000803e3d6000fd5b505050506040513d60208110156130eb57600080fd5b5050505050565b6000828211156130fe57fe5b50900390565b600654600454600091613124916001600160a01b03918216911684613061565b6000600460009054906101000a90046001600160a01b03166001600160a01b031663e4dd22f684600a8660016000806040518763ffffffff1660e01b81526004018080602001868152602001858152602001846001600160a01b03166001600160a01b0316815260200183815260200182810382528781815481526020019150805480156131db57602002820191906000526020600020905b81546001600160a01b031681526001909101906020018083116131bd575b505096505050505050506020604051808303818588803b1580156131fe57600080fd5b505af1158015613212573d6000803e3d6000fd5b50505050506040513d602081101561322957600080fd5b505160408051600081526020810186905280820183905290519192507feebddeddf4ae1ee54a48517af27958e7666d69c7ba2e3e7c2b0ff87ef5f4491e919081900360600190a192915050565b60008261328557506000611659565b8282028284828161329257fe5b041461329a57fe5b9392505050565b6000808284816132ad57fe5b04949350505050565b6000806132cc6620aaa1aa24a7a760c91b612d50565b6001600160a01b031663945722866040518163ffffffff1660e01b8152600401602060405180830381600087803b15801561330657600080fd5b505af115801561331a573d6000803e3d6000fd5b505050506040513d602081101561333057600080fd5b5051905060008061333f612b01565b9150915060008061334e612c09565b9150915060006133686743555252454e435960c01b612d50565b60055460408051637058346f60e01b81526001600160a01b03928316600482015290519290911691637058346f91602480820192602092909190829003018186803b1580156133b657600080fd5b505afa1580156133ca573d6000803e3d6000fd5b505050506040513d60208110156133e057600080fd5b5051905060006134016e41554354494f4e5f464f524d554c4160881b612d50565b6001600160a01b03166342d8537987868887876040518663ffffffff1660e01b8152600401808681526020018581526020018481526020018381526020018281526020019550505050505060206040518083038186803b15801561346457600080fd5b505afa158015613478573d6000803e3d6000fd5b505050506040513d602081101561348e57600080fd5b5051905060006134a86134a2836064613276565b896132a1565b9050600f54811115613639576001985060006134c9611cba600f548b613276565b905060006134e86e41554354494f4e5f464f524d554c4160881b612d50565b6001600160a01b0316635d4491628a89858a8a6040518663ffffffff1660e01b8152600401808681526020018581526020018481526020018381526020018281526020019550505050505060206040518083038186803b15801561354b57600080fd5b505afa15801561355f573d6000803e3d6000fd5b505050506040513d602081101561357557600080fd5b505190508781111561363657600061358d828a6130f2565b90506135a064159055531560da1b6120f1565b6006546040805163f83d179160e01b81526001600160a01b039283166004820152306024820152604481018590529051929091169163f83d1791916064808201926020929091908290030181600087803b1580156135fd57600080fd5b505af1158015613611573d6000803e3d6000fd5b505050506040513d602081101561362757600080fd5b50613633905081613104565b50505b50505b505050505050505090565b828054828255906000526020600020908101928215613699579160200282015b8281111561369957825182546001600160a01b0319166001600160a01b03909116178255602090920191600190910190613664565b506120669261103c9250905b808211156120665780546001600160a01b03191681556001016136a556fe4552525f524154494f5f43414e545f42455f475245415445525f5448414e5f3130304552525f415554484f52495a45445f414444524553535f4f4e4c590000000000a265627a7a72305820b0c183b3f554b961187d99660ec306eba1fd4800cb693f089651f38761ae08eb64736f6c63430005090032",
  "source": "pragma solidity ^0.5.9;\n\nimport \"../common/SafeMath.sol\";\nimport \"../common/Ownable.sol\";\nimport \"../InterFaces/IAuctionRegistery.sol\";\nimport \"../InterFaces/IAuctionTagAlong.sol\";\nimport \"../InterFaces/ICurrencyPrices.sol\";\nimport \"../InterFaces/IERC20Token.sol\";\nimport \"../InterFaces/IAuctionFormula.sol\";\nimport \"../InterFaces/IAuction.sol\";\nimport \"../InterFaces/ITokenVault.sol\";\n\n\n\n\ncontract IBancorNetwork {\n    function etherTokens(address _address) public view returns (bool);\n\n    function getReturnByPath(IERC20Token[] memory _path, uint256 _amount)\n        public\n        view\n        returns (uint256, uint256);\n}\n\n\ncontract IContractRegistry {\n    function addressOf(bytes32 _contractName) public view returns (address);\n\n    // deprecated, backward compatibility\n    function getAddress(bytes32 _contractName) public view returns (address);\n}\n\n\ncontract IBancorConverter {\n    function registry() public view returns (address);\n\n    function reserves(address _address)\n        public\n        view\n        returns (uint256, uint32, bool, bool, bool);\n\n    function getReturn(\n        IERC20Token _fromToken,\n        IERC20Token _toToken,\n        uint256 _amount\n    ) public view returns (uint256, uint256);\n\n    function quickConvert2(\n        IERC20Token[] memory _path,\n        uint256 _amount,\n        uint256 _minReturn,\n        address _affiliateAccount,\n        uint256 _affiliateFee\n    ) public payable returns (uint256);\n\n    function fund(uint256 _amount) public;\n\n    function liquidate(uint256 _amount) public;\n\n    function getReserveBalance(IERC20Token _reserveToken)\n        public\n        view\n        returns (uint256);\n}\n\n\n\ncontract BancorConverter is Ownable, SafeMath {\n    \n    bytes32 internal constant BANCOR_FORMULA = \"BancorFormula\";\n\n    bytes32 internal constant BANCOR_NETWORK = \"BancorNetwork\";\n\n    address public converter;\n\n    // here is base token is bnt\n    IERC20Token public baseToken;\n\n    IERC20Token public mainToken;\n\n    IERC20Token public relayToken;\n\n    constructor(\n        address _converter,\n        address _baseToken,\n        address _mainToken,\n        address _relayToken\n    ) public {\n        converter = _converter;\n        baseToken = IERC20Token(_baseToken);\n        mainToken = IERC20Token(_mainToken);\n        relayToken = IERC20Token(_relayToken);\n    }\n\n    function updateConverter(address _converter)\n        public\n        onlySystem()\n        returns (bool)\n    {\n        converter = _converter;\n        return true;\n    }\n\n    function addressOf(bytes32 _contractName) public view returns (address) {\n        address _registry = IBancorConverter(converter).registry();\n        IContractRegistry registry = IContractRegistry(_registry);\n        return registry.addressOf(_contractName);\n    }\n\n    function getTokensReserveBalance()\n        internal\n        view\n        returns (uint256 _baseTokenBalance, uint256 _mainTokenBalance)\n    {\n        _baseTokenBalance = IBancorConverter(converter).getReserveBalance(\n            baseToken\n        );\n        _mainTokenBalance = IBancorConverter(converter).getReserveBalance(\n            mainToken\n        );\n        return (_baseTokenBalance, _mainTokenBalance);\n    }\n\n    function getTokensReserveRatio()\n        internal\n        view\n        returns (uint256 _baseTokenRatio, uint256 _mainTokenRatio)\n    {\n        uint256 a;\n        bool c;\n        bool d;\n        bool e;\n        (a, _baseTokenRatio, c, d, e) = IBancorConverter(converter).reserves(\n            address(baseToken)\n        );\n        (a, _mainTokenRatio, c, d, e) = IBancorConverter(converter).reserves(\n            address(mainToken)\n        );\n        return (_baseTokenRatio, _mainTokenRatio);\n    }\n\n    function getReturn(address _fromToken, address _toToken, uint256 _amount)\n        public\n        view\n        returns (uint256, uint256)\n    {\n        return\n            IBancorConverter(converter).getReturn(\n                IERC20Token(_fromToken),\n                IERC20Token(_toToken),\n                _amount\n            );\n    }\n\n    function etherTokens(address _address) public view returns (bool) {\n        IBancorNetwork network = IBancorNetwork(addressOf(BANCOR_NETWORK));\n        return network.etherTokens(_address);\n    }\n}\n\n\ncontract AuctionRegistery is Ownable, AuctionRegisteryContracts {\n    \n    IAuctionRegistery public contractsRegistry;\n    \n    function updateRegistery(address _address)\n        external\n        onlyAuthorized()\n        notZeroAddress(_address)\n        returns (bool)\n    {\n        \n        contractsRegistry = IAuctionRegistery(_address);\n        return true;\n    }\n\n    function getAddressOf(bytes32 _contractName)\n        internal\n        view\n        returns (address)\n    {\n        return contractsRegistry.getAddressOf(_contractName);\n    }\n}\n\n\ncontract LiquadityUtils is BancorConverter,AuctionRegistery {\n    \n    IERC20Token[] public contributionPath;\n\n    IERC20Token[] public redempationPath;\n\n    mapping(address => bool) public allowedAddress;\n\n    mapping(uint256 => uint256) public dayWiseBaseTokenSupply;\n    \n    mapping(uint256 => uint256) public dayWiseMainTokenSupply;\n    \n    uint256 public sideReseverRatio = 90;\n\n    uint256 public appreciationLimit = 120;\n    \n    uint256 public reductionStartDay = 14;\n\n    modifier allowedAddressOnly(address _which) {\n        require(allowedAddress[_which], ERR_AUTHORIZED_ADDRESS_ONLY);\n        _;\n    }\n\n    function setAllowedAddress(address _address, bool _check)\n        public\n        onlySystem()\n        notZeroAddress(_address)\n        returns (bool)\n    {\n        allowedAddress[_address] = _check;\n        return true;\n    }\n\n    function setContributionPath(IERC20Token[] memory _contributionPath)\n        public\n        onlySystem()\n        returns (bool)\n    {\n        contributionPath = _contributionPath;\n        return true;\n    }\n\n    function setRedempationPath(IERC20Token[] memory _redempationPath)\n        public\n        onlySystem()\n        returns (bool)\n    {\n        redempationPath = _redempationPath;\n        return true;\n    }\n\n\n    function setSideReseverRatio(uint256 _ratio)\n        public\n        onlyOwner()\n        returns (bool)\n    {\n        require(_ratio < 100, \"ERR_RATIO_CANT_BE_GREATER_THAN_100\");\n        sideReseverRatio = _ratio;\n        return true;\n    }\n\n    function setAppreciationLimit(uint256 _limit)\n        public\n        onlyOwner()\n        returns (bool)\n    {\n        appreciationLimit = _limit;\n        return true;\n    }\n}\n\n\n\n\n\ncontract Liquadity is LiquadityUtils {\n    \n    constructor(\n        address _converter,\n        address _baseToken,\n        address _mainToken,\n        address _relayToken,\n        address _systemAddress,\n        address _multisigAddress,\n        address _registeryAddress,\n        IERC20Token[] memory _contributionPath,\n        IERC20Token[] memory _redempationPath\n    )\n        public\n        notZeroAddress(_systemAddress)\n        BancorConverter(_converter, _baseToken, _mainToken, _relayToken)\n        Ownable(_systemAddress, _multisigAddress)\n    {   \n        contractsRegistry = IAuctionRegistery(_registeryAddress);\n        contributionPath = _contributionPath;\n        redempationPath = _redempationPath;\n    }\n\n    event Contribution(address _token, uint256 _amount, uint256 returnAmount);\n    \n    event RecoverPrice(uint256 _oldPrice , uint256 _newPrice);\n    \n    event Redemption(\n        address _token,\n        uint256 _amount,\n        uint256 returnAmount);\n\n    event FundDeposited(address _token, address _from, uint256 _amount);\n\n    function ensureTransferFrom(\n        IERC20Token _token,\n        address _from,\n        address _to,\n        uint256 _amount\n    ) private {\n        uint256 prevBalance = _token.balanceOf(_to);\n\n        if (_from == address(this)) _token.transfer(_to, _amount);\n        else _token.transferFrom(_from, _to, _amount);\n        uint256 postBalance = _token.balanceOf(_to);\n        require(postBalance > prevBalance, \"ERR_TOKEN_NOT_TRANSFERRED\");\n    }\n\n    function approveTransferFrom(\n        IERC20Token _token,\n        address _spender,\n        uint256 _amount\n    ) private {\n        _token.approve(_spender, _amount);\n    }\n\n    function contributeWithEther(uint256 value)\n        internal\n        returns (uint256)\n    {\n        uint256 returnAmount = IBancorConverter(converter).quickConvert2.value(\n            value\n        )(contributionPath, value, 1, address(0), 0);\n        \n        ensureTransferFrom(\n            contributionPath[safeSub(contributionPath.length, 1)],\n            address(this),\n            getAddressOf(VAULT),\n            returnAmount\n        );\n        emit Contribution(address(0), value, returnAmount);\n        checkAppeciationLimit();\n        return returnAmount;\n    }\n    \n    \n    function redempation(uint256 value)\n        internal\n        returns (uint256)\n    {\n        \n        \n        approveTransferFrom(IERC20Token(mainToken),converter,value);\n        \n        uint256 returnAmount = IBancorConverter(converter).quickConvert2.value(\n            value\n        )(redempationPath, value, 1, address(0), 0);\n        \n        \n        emit Redemption(address(0), value, returnAmount);\n        \n        return returnAmount;\n    }\n    \n    \n    function getCurrentMarketPrice() public view returns(uint256){\n        (\n            uint256 _baseTokenBalance,\n            uint256 _mainTokenBalance\n        ) = getTokensReserveBalance();\n\n        (\n            uint256 _baseTokenRatio,\n            uint256 _mainTokenRatio\n        ) = getTokensReserveRatio();\n        \n        uint256 _baseTokenPrice = ICurrencyPrices(getAddressOf(CURRENCY)).getCurrencyPrice(address(baseToken));\n        \n        uint256 tokenCurrentPrice = IAuctionFormula(\n            getAddressOf(AUCTION_FORMULA)\n        )\n            .calculateTokenPrice(\n            _baseTokenBalance,\n            _baseTokenRatio,\n            _mainTokenBalance,\n            _mainTokenRatio,\n            _baseTokenPrice\n        );\n        \n        return tokenCurrentPrice;\n    }\n    \n    \n    function checkAppeciationLimit()\n        internal\n        returns (bool _isRedemptionReqiured)\n    {\n        _isRedemptionReqiured = false;\n\n        uint256 tokenAuctionEndPrice = IAuction(\n            getAddressOf(AUCTION)\n        )\n            .tokenAuctionEndPrice();\n\n        (\n            uint256 _baseTokenBalance,\n            uint256 _mainTokenBalance\n        ) = getTokensReserveBalance();\n\n        (\n            uint256 _baseTokenRatio,\n            uint256 _mainTokenRatio\n        ) = getTokensReserveRatio();\n\n        uint256 _baseTokenPrice = ICurrencyPrices(\n            getAddressOf(CURRENCY)\n        )\n            .getCurrencyPrice(address(baseToken));\n\n        uint256 tokenCurrentPrice = IAuctionFormula(\n            getAddressOf(AUCTION_FORMULA)\n        )\n            .calculateTokenPrice(\n            _baseTokenBalance,\n            _baseTokenRatio,\n            _mainTokenBalance,\n            _mainTokenRatio,\n            _baseTokenPrice\n        );\n\n        uint256 _appreciationReached = safeDiv(\n            safeMul(tokenCurrentPrice, 100),\n            tokenAuctionEndPrice\n        );\n\n        if (_appreciationReached > appreciationLimit) {\n            _isRedemptionReqiured = true;\n            \n            uint256 fallBackPrice = safeDiv(\n                safeMul(appreciationLimit, tokenAuctionEndPrice),\n                100\n            );\n            \n            uint256 newReserverBalance = IAuctionFormula(\n                getAddressOf(AUCTION_FORMULA)\n            )\n                .calculateApprectiation(\n                _baseTokenBalance,\n                _baseTokenRatio,\n                fallBackPrice,\n                _mainTokenRatio,\n                _baseTokenPrice\n            );\n            \n            if(newReserverBalance > _mainTokenBalance){\n                uint256 _reverseBalance = safeSub(newReserverBalance,_mainTokenBalance);\n                ITokenVault(addressOf(VAULT)).directTransfer(address(mainToken),address(this),_reverseBalance);\n                redempation(_reverseBalance);\n            }\n            \n        }\n\n        return _isRedemptionReqiured;\n    }\n\n    function contributeWithEther()\n        public\n        payable\n        allowedAddressOnly(msg.sender)\n        returns (uint256)\n    {\n        uint256 _amount = msg.value;\n        \n        _amount = IAuctionTagAlong(getAddressOf(TAG_ALONG)).contributeTowardLiquadity(_amount);\n        \n        uint256 sideReseverAmount = safeDiv(safeMul(_amount, sideReseverRatio),\n            100\n        );\n        \n        IAuction auction = IAuction(getAddressOf(AUCTION));\n        \n        uint256 auctionDay = auction.auctionDay();\n\n        if(auctionDay > reductionStartDay){\n            \n            uint256 _yesterDayPrice = auction.dayWiseMarketPrice(safeSub(auctionDay,1));\n            \n            uint256 _dayBeforePrice = auction.dayWiseMarketPrice(safeSub(auctionDay,2));\n            \n            uint256 _yesterDayContribution = auction.dayWiseContribution(safeSub(auctionDay,1));\n            \n            uint256 _yesterDayBaseToken = dayWiseBaseTokenSupply[safeSub(auctionDay,1)];\n            \n            uint256 _baseTokenPrice = ICurrencyPrices(getAddressOf(CURRENCY)).getCurrencyPrice(address(baseToken));\n             \n             \n            uint256 reduction = IAuctionFormula(getAddressOf(AUCTION_FORMULA)).calculateLiquadityReduction(_yesterDayPrice,_dayBeforePrice,_yesterDayContribution,_yesterDayBaseToken,_baseTokenPrice);\n            sideReseverAmount = safeDiv(sideReseverAmount,reduction);\n        }\n        \n        uint256 _newAmount = safeSub(_amount, sideReseverAmount);\n        contributeWithEther(_newAmount);\n        return getCurrentMarketPrice();\n    }\n    \n    \n    // contribution with Token is not avilable for bancor bacnor dont have stable coin base conversion\n    function contributeWithToken(\n        IERC20Token _token,\n        address _from,\n        uint256 _amount\n    ) public allowedAddressOnly(msg.sender) returns (uint256) {\n        ensureTransferFrom(_token, _from, address(this), _amount);\n        return getCurrentMarketPrice();\n    }\n    \n    function contributionSystem(uint256 _amount) external onlySystem() returns (bool){\n        contributeWithEther(_amount);\n        return true;\n    }\n    \n    function redemptionSystem(uint256 _amount) external onlySystem() returns (bool){\n       redempation(_amount);\n       return true;\n    }\n    \n    \n    function redemption(IERC20Token[] memory _path, uint256 _amount)\n        public\n        returns (bool)\n    {\n        require(\n            address(_path[0]) == address(mainToken),\n            \"Redemption Only With MainToken\"\n        );\n        \n        uint256 marketPrice = getCurrentMarketPrice();\n        \n        ensureTransferFrom(_path[0], msg.sender, address(this), _amount);\n\n        approveTransferFrom(_path[0], converter, _amount);\n\n        uint256 returnAmount = IBancorConverter(converter).quickConvert2.value(\n            _amount\n        )(_path, _amount, 1, address(0), 0);\n        \n        if (\n            IBancorNetwork(addressOf(BANCOR_NETWORK)).etherTokens(\n                address(_path[safeSub(_path.length, 1)])\n            )\n        ) msg.sender.transfer(returnAmount);\n        else\n            ensureTransferFrom(\n                _path[safeSub(_path.length, 1)],\n                address(this),\n                msg.sender,\n                returnAmount\n            );\n\n        emit Redemption(\n            address(_path[safeSub(_path.length, 1)]),\n            _amount,\n            returnAmount\n        );\n        emit RecoverPrice(marketPrice,getCurrentMarketPrice());\n        return true;\n\n    }\n\n    function auctionEnded(uint256 aucyionDayId) external returns(bool){\n        require(msg.sender == getAddressOf(AUCTION));\n        (\n            uint256 _baseTokenBalance,\n            uint256 _mainTokenBalance\n        ) = getTokensReserveBalance();\n        \n        dayWiseMainTokenSupply[aucyionDayId] = _mainTokenBalance;\n        dayWiseBaseTokenSupply[aucyionDayId] = _baseTokenBalance;\n        return true;\n    }\n\n\n\n    function depositeEther() external payable returns (bool) {\n        emit FundDeposited(address(0), msg.sender, msg.value);\n        return true;\n    }\n\n    function depositeToken(IERC20Token _token, address _from, uint256 _amount)\n        external\n        returns (bool)\n    {\n        ensureTransferFrom(_token, _from, address(this), _amount);\n        emit FundDeposited(address(0), _from, _amount);\n        return true;\n    }\n\n    function returnTokens(IERC20Token _tokens, address _to, uint256 _value)\n        external\n        onlyOwner()\n        returns (bool)\n    {\n        ensureTransferFrom(_tokens, address(this), _to, _value);\n        return true;\n    }\n\n    function withDraw(uint256 _value) external onlyOwner() returns (bool) {\n        msg.sender.transfer(_value);\n        return true;\n    }\n}\n",
  "sourcePath": "/home/mind/Work/Projects/Jointer/Jointer_auction/NewContracts/contracts/auctionContracts/AuctionLiquadity.sol",
  "compiler": {
    "name": "solc",
    "version": "0.5.9+commit.e560f70d.Emscripten.clang"
  },
  "schemaVersion": "3.0.16",
  "updatedAt": "2020-05-04T15:28:42.776Z",
  "devdoc": {
    "methods": {
      "changeAuthorityAddress(address)": {
        "details": "change system address",
        "params": {
          "_which": "The address to which is new Authority address"
        }
      },
      "changePrimaryOwner(address)": {
        "details": "change primary ownership",
        "params": {
          "_which": "The address to which is new owner address"
        }
      },
      "changeSystemAddress(address)": {
        "details": "change system address",
        "params": {
          "_which": "The address to which is new system address"
        }
      }
    }
  },
  "userdoc": {
    "methods": {}
  }
}