{
  "contractName": "Liquadity",
  "abi": [
    {
      "constant": false,
      "inputs": [
        {
          "name": "_which",
          "type": "address"
        }
      ],
      "name": "changeSystemAddress",
      "outputs": [
        {
          "name": "",
          "type": "bool"
        }
      ],
      "payable": false,
      "stateMutability": "nonpayable",
      "type": "function"
    },
    {
      "constant": true,
      "inputs": [],
      "name": "reductionStartDay",
      "outputs": [
        {
          "name": "",
          "type": "uint256"
        }
      ],
      "payable": false,
      "stateMutability": "view",
      "type": "function"
    },
    {
      "constant": true,
      "inputs": [],
      "name": "newAuthorityAddress",
      "outputs": [
        {
          "name": "",
          "type": "address"
        }
      ],
      "payable": false,
      "stateMutability": "view",
      "type": "function"
    },
    {
      "constant": true,
      "inputs": [
        {
          "name": "_fromToken",
          "type": "address"
        },
        {
          "name": "_toToken",
          "type": "address"
        },
        {
          "name": "_amount",
          "type": "uint256"
        }
      ],
      "name": "getReturn",
      "outputs": [
        {
          "name": "",
          "type": "uint256"
        },
        {
          "name": "",
          "type": "uint256"
        }
      ],
      "payable": false,
      "stateMutability": "view",
      "type": "function"
    },
    {
      "constant": false,
      "inputs": [],
      "name": "acceptAuthorityAddress",
      "outputs": [
        {
          "name": "",
          "type": "bool"
        }
      ],
      "payable": false,
      "stateMutability": "nonpayable",
      "type": "function"
    },
    {
      "constant": true,
      "inputs": [
        {
          "name": "",
          "type": "uint256"
        }
      ],
      "name": "baseTokenToMainToken",
      "outputs": [
        {
          "name": "",
          "type": "address"
        }
      ],
      "payable": false,
      "stateMutability": "view",
      "type": "function"
    },
    {
      "constant": true,
      "inputs": [],
      "name": "authorityAddress",
      "outputs": [
        {
          "name": "",
          "type": "address"
        }
      ],
      "payable": false,
      "stateMutability": "view",
      "type": "function"
    },
    {
      "constant": true,
      "inputs": [],
      "name": "virtualReserverDivisor",
      "outputs": [
        {
          "name": "",
          "type": "uint256"
        }
      ],
      "payable": false,
      "stateMutability": "view",
      "type": "function"
    },
    {
      "constant": true,
      "inputs": [],
      "name": "mainToken",
      "outputs": [
        {
          "name": "",
          "type": "address"
        }
      ],
      "payable": false,
      "stateMutability": "view",
      "type": "function"
    },
    {
      "constant": true,
      "inputs": [
        {
          "name": "",
          "type": "address"
        }
      ],
      "name": "allowedAddress",
      "outputs": [
        {
          "name": "",
          "type": "bool"
        }
      ],
      "payable": false,
      "stateMutability": "view",
      "type": "function"
    },
    {
      "constant": false,
      "inputs": [
        {
          "name": "_ratio",
          "type": "uint256"
        }
      ],
      "name": "setSideReseverRatio",
      "outputs": [
        {
          "name": "",
          "type": "bool"
        }
      ],
      "payable": false,
      "stateMutability": "nonpayable",
      "type": "function"
    },
    {
      "constant": true,
      "inputs": [],
      "name": "previousMainReserveContribution",
      "outputs": [
        {
          "name": "",
          "type": "uint256"
        }
      ],
      "payable": false,
      "stateMutability": "view",
      "type": "function"
    },
    {
      "constant": true,
      "inputs": [
        {
          "name": "_address",
          "type": "address"
        }
      ],
      "name": "etherTokens",
      "outputs": [
        {
          "name": "",
          "type": "bool"
        }
      ],
      "payable": false,
      "stateMutability": "view",
      "type": "function"
    },
    {
      "constant": true,
      "inputs": [
        {
          "name": "",
          "type": "uint256"
        }
      ],
      "name": "ethToBaseToken",
      "outputs": [
        {
          "name": "",
          "type": "address"
        }
      ],
      "payable": false,
      "stateMutability": "view",
      "type": "function"
    },
    {
      "constant": false,
      "inputs": [
        {
          "name": "_pathNo",
          "type": "uint256"
        },
        {
          "name": "_path",
          "type": "address[]"
        }
      ],
      "name": "setTokenPath",
      "outputs": [
        {
          "name": "",
          "type": "bool"
        }
      ],
      "payable": false,
      "stateMutability": "nonpayable",
      "type": "function"
    },
    {
      "constant": true,
      "inputs": [],
      "name": "primaryOwner",
      "outputs": [
        {
          "name": "",
          "type": "address"
        }
      ],
      "payable": false,
      "stateMutability": "view",
      "type": "function"
    },
    {
      "constant": false,
      "inputs": [
        {
          "name": "_which",
          "type": "address"
        }
      ],
      "name": "changeAuthorityAddress",
      "outputs": [
        {
          "name": "",
          "type": "bool"
        }
      ],
      "payable": false,
      "stateMutability": "nonpayable",
      "type": "function"
    },
    {
      "constant": true,
      "inputs": [],
      "name": "sideReseverRatio",
      "outputs": [
        {
          "name": "",
          "type": "uint256"
        }
      ],
      "payable": false,
      "stateMutability": "view",
      "type": "function"
    },
    {
      "constant": false,
      "inputs": [
        {
          "name": "_limit",
          "type": "uint256"
        }
      ],
      "name": "setAppreciationLimit",
      "outputs": [
        {
          "name": "",
          "type": "bool"
        }
      ],
      "payable": false,
      "stateMutability": "nonpayable",
      "type": "function"
    },
    {
      "constant": true,
      "inputs": [
        {
          "name": "_contractName",
          "type": "bytes32"
        }
      ],
      "name": "addressOf",
      "outputs": [
        {
          "name": "",
          "type": "address"
        }
      ],
      "payable": false,
      "stateMutability": "view",
      "type": "function"
    },
    {
      "constant": true,
      "inputs": [],
      "name": "appreciationLimit",
      "outputs": [
        {
          "name": "",
          "type": "uint256"
        }
      ],
      "payable": false,
      "stateMutability": "view",
      "type": "function"
    },
    {
      "constant": false,
      "inputs": [
        {
          "name": "_address",
          "type": "address"
        }
      ],
      "name": "updateRegistery",
      "outputs": [
        {
          "name": "",
          "type": "bool"
        }
      ],
      "payable": false,
      "stateMutability": "nonpayable",
      "type": "function"
    },
    {
      "constant": true,
      "inputs": [],
      "name": "converter",
      "outputs": [
        {
          "name": "",
          "type": "address"
        }
      ],
      "payable": false,
      "stateMutability": "view",
      "type": "function"
    },
    {
      "constant": false,
      "inputs": [
        {
          "name": "_which",
          "type": "address"
        }
      ],
      "name": "changePrimaryOwner",
      "outputs": [
        {
          "name": "",
          "type": "bool"
        }
      ],
      "payable": false,
      "stateMutability": "nonpayable",
      "type": "function"
    },
    {
      "constant": true,
      "inputs": [],
      "name": "baseToken",
      "outputs": [
        {
          "name": "",
          "type": "address"
        }
      ],
      "payable": false,
      "stateMutability": "view",
      "type": "function"
    },
    {
      "constant": true,
      "inputs": [
        {
          "name": "",
          "type": "uint256"
        }
      ],
      "name": "mainTokenTobaseToken",
      "outputs": [
        {
          "name": "",
          "type": "address"
        }
      ],
      "payable": false,
      "stateMutability": "view",
      "type": "function"
    },
    {
      "constant": true,
      "inputs": [
        {
          "name": "",
          "type": "uint256"
        }
      ],
      "name": "baseTokenToEth",
      "outputs": [
        {
          "name": "",
          "type": "address"
        }
      ],
      "payable": false,
      "stateMutability": "view",
      "type": "function"
    },
    {
      "constant": true,
      "inputs": [],
      "name": "systemAddress",
      "outputs": [
        {
          "name": "",
          "type": "address"
        }
      ],
      "payable": false,
      "stateMutability": "view",
      "type": "function"
    },
    {
      "constant": true,
      "inputs": [
        {
          "name": "",
          "type": "uint256"
        }
      ],
      "name": "ethToMainToken",
      "outputs": [
        {
          "name": "",
          "type": "address"
        }
      ],
      "payable": false,
      "stateMutability": "view",
      "type": "function"
    },
    {
      "constant": true,
      "inputs": [],
      "name": "contractsRegistry",
      "outputs": [
        {
          "name": "",
          "type": "address"
        }
      ],
      "payable": false,
      "stateMutability": "view",
      "type": "function"
    },
    {
      "constant": false,
      "inputs": [
        {
          "name": "_converter",
          "type": "address"
        }
      ],
      "name": "updateConverter",
      "outputs": [
        {
          "name": "",
          "type": "bool"
        }
      ],
      "payable": false,
      "stateMutability": "nonpayable",
      "type": "function"
    },
    {
      "constant": true,
      "inputs": [],
      "name": "relayToken",
      "outputs": [
        {
          "name": "",
          "type": "address"
        }
      ],
      "payable": false,
      "stateMutability": "view",
      "type": "function"
    },
    {
      "constant": false,
      "inputs": [
        {
          "name": "_address",
          "type": "address"
        },
        {
          "name": "_check",
          "type": "bool"
        }
      ],
      "name": "setAllowedAddress",
      "outputs": [
        {
          "name": "",
          "type": "bool"
        }
      ],
      "payable": false,
      "stateMutability": "nonpayable",
      "type": "function"
    },
    {
      "inputs": [
        {
          "name": "_converter",
          "type": "address"
        },
        {
          "name": "_baseToken",
          "type": "address"
        },
        {
          "name": "_mainToken",
          "type": "address"
        },
        {
          "name": "_relayToken",
          "type": "address"
        },
        {
          "name": "_systemAddress",
          "type": "address"
        },
        {
          "name": "_multisigAddress",
          "type": "address"
        },
        {
          "name": "_registeryAddress",
          "type": "address"
        },
        {
          "name": "_ethToMainToken",
          "type": "address[]"
        },
        {
          "name": "_baseTokenToMainToken",
          "type": "address[]"
        },
        {
          "name": "_mainTokenTobaseToken",
          "type": "address[]"
        },
        {
          "name": "_ethToBaseToken",
          "type": "address[]"
        }
      ],
      "payable": false,
      "stateMutability": "nonpayable",
      "type": "constructor"
    },
    {
      "anonymous": false,
      "inputs": [
        {
          "indexed": false,
          "name": "_token",
          "type": "address"
        },
        {
          "indexed": false,
          "name": "_amount",
          "type": "uint256"
        },
        {
          "indexed": false,
          "name": "returnAmount",
          "type": "uint256"
        }
      ],
      "name": "Contribution",
      "type": "event"
    },
    {
      "anonymous": false,
      "inputs": [
        {
          "indexed": false,
          "name": "_oldPrice",
          "type": "uint256"
        },
        {
          "indexed": false,
          "name": "_newPrice",
          "type": "uint256"
        }
      ],
      "name": "RecoverPrice",
      "type": "event"
    },
    {
      "anonymous": false,
      "inputs": [
        {
          "indexed": false,
          "name": "_token",
          "type": "address"
        },
        {
          "indexed": false,
          "name": "_amount",
          "type": "uint256"
        },
        {
          "indexed": false,
          "name": "returnAmount",
          "type": "uint256"
        }
      ],
      "name": "Redemption",
      "type": "event"
    },
    {
      "anonymous": false,
      "inputs": [
        {
          "indexed": false,
          "name": "_token",
          "type": "address"
        },
        {
          "indexed": false,
          "name": "_from",
          "type": "address"
        },
        {
          "indexed": false,
          "name": "_amount",
          "type": "uint256"
        }
      ],
      "name": "FundDeposited",
      "type": "event"
    },
    {
      "anonymous": false,
      "inputs": [
        {
          "indexed": false,
          "name": "ownerType",
          "type": "string"
        },
        {
          "indexed": true,
          "name": "previousOwner",
          "type": "address"
        },
        {
          "indexed": true,
          "name": "newOwner",
          "type": "address"
        }
      ],
      "name": "OwnershipTransferred",
      "type": "event"
    },
    {
      "anonymous": false,
      "inputs": [
        {
          "indexed": true,
          "name": "previousOwner",
          "type": "address"
        },
        {
          "indexed": true,
          "name": "newOwner",
          "type": "address"
        }
      ],
      "name": "AuthorityAddressChnageCall",
      "type": "event"
    },
    {
      "constant": false,
      "inputs": [],
      "name": "contributeTowardMainReserve",
      "outputs": [
        {
          "name": "",
          "type": "uint256"
        }
      ],
      "payable": false,
      "stateMutability": "nonpayable",
      "type": "function"
    },
    {
      "constant": false,
      "inputs": [],
      "name": "contributeWithEther",
      "outputs": [
        {
          "name": "",
          "type": "uint256"
        }
      ],
      "payable": true,
      "stateMutability": "payable",
      "type": "function"
    },
    {
      "constant": false,
      "inputs": [
        {
          "name": "_token",
          "type": "address"
        },
        {
          "name": "_from",
          "type": "address"
        },
        {
          "name": "_amount",
          "type": "uint256"
        }
      ],
      "name": "contributeWithToken",
      "outputs": [
        {
          "name": "",
          "type": "uint256"
        }
      ],
      "payable": false,
      "stateMutability": "nonpayable",
      "type": "function"
    },
    {
      "constant": false,
      "inputs": [
        {
          "name": "_amount",
          "type": "uint256"
        }
      ],
      "name": "contributionSystem",
      "outputs": [
        {
          "name": "",
          "type": "bool"
        }
      ],
      "payable": false,
      "stateMutability": "nonpayable",
      "type": "function"
    },
    {
      "constant": false,
      "inputs": [
        {
          "name": "_amount",
          "type": "uint256"
        }
      ],
      "name": "redemptionSystem",
      "outputs": [
        {
          "name": "",
          "type": "bool"
        }
      ],
      "payable": false,
      "stateMutability": "nonpayable",
      "type": "function"
    },
    {
      "constant": false,
      "inputs": [
        {
          "name": "_path",
          "type": "address[]"
        },
        {
          "name": "_amount",
          "type": "uint256"
        }
      ],
      "name": "redemption",
      "outputs": [
        {
          "name": "",
          "type": "bool"
        }
      ],
      "payable": false,
      "stateMutability": "nonpayable",
      "type": "function"
    },
    {
      "constant": false,
      "inputs": [],
      "name": "auctionEnded",
      "outputs": [
        {
          "name": "",
          "type": "bool"
        }
      ],
      "payable": false,
      "stateMutability": "nonpayable",
      "type": "function"
    },
    {
      "constant": true,
      "inputs": [],
      "name": "getCurrencyPrice",
      "outputs": [
        {
          "name": "",
          "type": "uint256"
        }
      ],
      "payable": false,
      "stateMutability": "view",
      "type": "function"
    },
    {
      "constant": false,
      "inputs": [],
      "name": "depositeEther",
      "outputs": [
        {
          "name": "",
          "type": "bool"
        }
      ],
      "payable": true,
      "stateMutability": "payable",
      "type": "function"
    },
    {
      "constant": false,
      "inputs": [
        {
          "name": "_token",
          "type": "address"
        },
        {
          "name": "_from",
          "type": "address"
        },
        {
          "name": "_amount",
          "type": "uint256"
        }
      ],
      "name": "depositeToken",
      "outputs": [
        {
          "name": "",
          "type": "bool"
        }
      ],
      "payable": false,
      "stateMutability": "nonpayable",
      "type": "function"
    },
    {
      "constant": false,
      "inputs": [
        {
          "name": "_tokens",
          "type": "address"
        },
        {
          "name": "_to",
          "type": "address"
        },
        {
          "name": "_value",
          "type": "uint256"
        }
      ],
      "name": "returnTokens",
      "outputs": [
        {
          "name": "",
          "type": "bool"
        }
      ],
      "payable": false,
      "stateMutability": "nonpayable",
      "type": "function"
    },
    {
      "constant": false,
      "inputs": [
        {
          "name": "_value",
          "type": "uint256"
        }
      ],
      "name": "withDraw",
      "outputs": [
        {
          "name": "",
          "type": "bool"
        }
      ],
      "payable": false,
      "stateMutability": "nonpayable",
      "type": "function"
    }
  ],
  "bytecode": "0x6080604052600080546001600160a01b0319908116825560018054821690556002805482169055600380549091169055605a6010556078601155600e6012556013553480156200004e57600080fd5b50604051620043303803806200433083398181016040526101608110156200007557600080fd5b8151602083015160408401516060850151608086015160a087015160c088015160e08901805197999698959794969395929491939283019291640100000000811115620000c157600080fd5b82016020810184811115620000d557600080fd5b8151856020820283011164010000000082111715620000f357600080fd5b505092919060200180516401000000008111156200011057600080fd5b820160208101848111156200012457600080fd5b81518560208202830111640100000000821117156200014257600080fd5b505092919060200180516401000000008111156200015f57600080fd5b820160208101848111156200017357600080fd5b81518560208202830111640100000000821117156200019157600080fd5b50509291906020018051640100000000811115620001ae57600080fd5b82016020810184811115620001c257600080fd5b8151856020820283011164010000000082111715620001e057600080fd5b50509291905050508a8a8a8a8a8a8160006001600160a01b0316816001600160a01b031614156040518060400160405280601081526020017f4552525f5a45524f5f414444524553530000000000000000000000000000000081525090620002e3576040517f08c379a00000000000000000000000000000000000000000000000000000000081526004018080602001828103825283818151815260200191508051906020019080838360005b83811015620002a75781810151838201526020016200028d565b50505050905090810190601f168015620002d55780820380516001836020036101000a031916815260200191505b509250505060405180910390fd5b5060408051808201909152601081527f4552525f53414d455f41444452455353000000000000000000000000000000006020820152336001600160a01b03851614156200038d576040517f08c379a0000000000000000000000000000000000000000000000000000000008152602060048201818152835160248401528351909283926044909101919085019080838360008315620002a75781810151838201526020016200028d565b50816001600160a01b0316836001600160a01b031614156040518060400160405280601081526020017f4552525f53414d455f41444452455353000000000000000000000000000000008152509062000443576040517f08c379a0000000000000000000000000000000000000000000000000000000008152602060048201818152835160248401528351909283926044909101919085019080838360008315620002a75781810151838201526020016200028d565b5060408051808201909152601081527f4552525f53414d455f41444452455353000000000000000000000000000000006020820152336001600160a01b0384161415620004ed576040517f08c379a0000000000000000000000000000000000000000000000000000000008152602060048201818152835160248401528351909283926044909101919085019080838360008315620002a75781810151838201526020016200028d565b505060008054336001600160a01b0319918216179091556002805482166001600160a01b0394851617905560018054821692841692909217909155600480548216968316969096179095556005805486169482169490941790935560068054851692841692909217909155600780549093169082161790915560408051808201909152601081527f4552525f5a45524f5f414444524553530000000000000000000000000000000060208201528891821662000606576040517f08c379a0000000000000000000000000000000000000000000000000000000008152602060048201818152835160248401528351909283926044909101919085019080838360008315620002a75781810151838201526020016200028d565b50600880546001600160a01b0319166001600160a01b0388161790558451620006379060099060208801906200068c565b5083516200064d90600a9060208701906200068c565b5082516200066390600b9060208601906200068c565b5081516200067990600c9060208501906200068c565b5050505050505050505050505062000720565b828054828255906000526020600020908101928215620006e4579160200282015b82811115620006e457825182546001600160a01b0319166001600160a01b03909116178255602090920191600190910190620006ad565b50620006f2929150620006f6565b5090565b6200071d91905b80821115620006f25780546001600160a01b0319168155600101620006fd565b90565b613c0080620007306000396000f3fe6080604052600436106102725760003560e01c80638e10be331161014f578063c4d34268116100c1578063d98d0c7e1161007a578063d98d0c7e1461095c578063da0062fb14610971578063e4df759f146109a4578063e799b3f5146109e7578063f4bf3db3146109ef578063fae3698614610a0457610272565b8063c4d3426814610881578063c55dae63146108b4578063c60aa8e0146108c9578063cc2ad48c146108f3578063d3e848f11461091d578063d50144c71461093257610272565b8063b9e1a0c611610113578063b9e1a0c6146107a2578063bb34534c146107b7578063bb51f2ba146107e1578063bc1366fe146107f6578063bd38837b14610829578063c1bc42bb1461083e57610272565b80638e10be33146107135780638f51368b146107285780639b8f703e1461075b578063ab16b9c914610770578063b36d57bd1461077857610272565b80633d8b62c9116101e857806376238625116101ac57806376238625146105ab5780638077ccf7146105c057806386433374146105f357806389f56e6b146106085780638b077cce146106325780638b7d6f1d1461065c57610272565b80633d8b62c9146104e15780633fc15f15146104f6578063409082981461050b57806357fc39911461053e5780635d44b4451461058157610272565b80631e1401f81161023a5780631e1401f81461036a57806320c462fe146103c657806329f35ed5146103db578063303de22c1461040557806334b6ce961461041a5780633c695d4e146104cc57610272565b806304d630891461027757806306bf9a90146102be5780630abaad7a146102e5578063137a96c91461031657806314174f3314610340575b600080fd5b34801561028357600080fd5b506102aa6004803603602081101561029a57600080fd5b50356001600160a01b0316610a3f565b604080519115158252519081900360200190f35b3480156102ca57600080fd5b506102d3610d50565b60408051918252519081900360200190f35b3480156102f157600080fd5b506102fa610d56565b604080516001600160a01b039092168252519081900360200190f35b34801561032257600080fd5b506102aa6004803603602081101561033957600080fd5b5035610d65565b34801561034c57600080fd5b506102aa6004803603602081101561036357600080fd5b5035610e86565b34801561037657600080fd5b506103ad6004803603606081101561038d57600080fd5b506001600160a01b03813581169160208101359091169060400135610f31565b6040805192835260208301919091528051918290030190f35b3480156103d257600080fd5b506102aa610fcd565b3480156103e757600080fd5b506102fa600480360360208110156103fe57600080fd5b50356110e3565b34801561041157600080fd5b506102d361110a565b34801561042657600080fd5b506102aa6004803603604081101561043d57600080fd5b81019060208101813564010000000081111561045857600080fd5b82018360208201111561046a57600080fd5b8035906020019184602083028401116401000000008311171561048c57600080fd5b9190808060200260200160405190810160405280939291908181526020018383602002808284376000920191909152509295505091359250611231915050565b3480156104d857600080fd5b506102fa6117d8565b3480156104ed57600080fd5b506102d36117e7565b34801561050257600080fd5b506102fa6117ed565b34801561051757600080fd5b506102aa6004803603602081101561052e57600080fd5b50356001600160a01b03166117fc565b34801561054a57600080fd5b506102aa6004803603606081101561056157600080fd5b506001600160a01b03813581169160208101359091169060400135611811565b34801561058d57600080fd5b506102aa600480360360208110156105a457600080fd5b50356118a5565b3480156105b757600080fd5b506102d361196b565b3480156105cc57600080fd5b506102aa600480360360208110156105e357600080fd5b50356001600160a01b0316611971565b3480156105ff57600080fd5b506102aa611a18565b34801561061457600080fd5b506102fa6004803603602081101561062b57600080fd5b5035611eb4565b34801561063e57600080fd5b506102aa6004803603602081101561065557600080fd5b5035611ec1565b34801561066857600080fd5b506102aa6004803603604081101561067f57600080fd5b813591908101906040810160208201356401000000008111156106a157600080fd5b8201836020820111156106b357600080fd5b803590602001918460208302840111640100000000831117156106d557600080fd5b919080806020026020016040519081016040528093929190818152602001838360200280828437600092019190915250929550611f49945050505050565b34801561071f57600080fd5b506102fa612060565b34801561073457600080fd5b506102aa6004803603602081101561074b57600080fd5b50356001600160a01b031661206f565b34801561076757600080fd5b506102d3612250565b6102d3612256565b34801561078457600080fd5b506102aa6004803603602081101561079b57600080fd5b50356123d7565b3480156107ae57600080fd5b506102d361245e565b3480156107c357600080fd5b506102fa600480360360208110156107da57600080fd5b503561246d565b3480156107ed57600080fd5b506102d361255d565b34801561080257600080fd5b506102aa6004803603602081101561081957600080fd5b50356001600160a01b0316612563565b34801561083557600080fd5b506102fa612688565b34801561084a57600080fd5b506102aa6004803603606081101561086157600080fd5b506001600160a01b03813581169160208101359091169060400135612697565b34801561088d57600080fd5b506102aa600480360360208110156108a457600080fd5b50356001600160a01b03166126f8565b3480156108c057600080fd5b506102fa61293b565b3480156108d557600080fd5b506102fa600480360360208110156108ec57600080fd5b503561294a565b3480156108ff57600080fd5b506102fa6004803603602081101561091657600080fd5b5035612957565b34801561092957600080fd5b506102fa612964565b34801561093e57600080fd5b506102fa6004803603602081101561095557600080fd5b5035612973565b34801561096857600080fd5b506102fa612980565b34801561097d57600080fd5b506102aa6004803603602081101561099457600080fd5b50356001600160a01b031661298f565b3480156109b057600080fd5b506102d3600480360360608110156109c757600080fd5b506001600160a01b03813581169160208101359091169060400135612a33565b6102aa612ad8565b3480156109fb57600080fd5b506102fa612b1e565b348015610a1057600080fd5b506102aa60048036036040811015610a2757600080fd5b506001600160a01b0381351690602001351515612b2d565b60015460408051808201909152601b8152600080516020613bac83398151915260208201526000916001600160a01b03163314610afa5760405162461bcd60e51b81526004018080602001828103825283818151815260200191508051906020019080838360005b83811015610abf578181015183820152602001610aa7565b50505050905090810190601f168015610aec5780820380516001836020036101000a031916815260200191505b509250505060405180910390fd5b5060408051808201909152601981527f4552525f434f4e54524143545f53454c465f4144445245535300000000000000602082015282906001600160a01b038216301415610b895760405162461bcd60e51b8152602060048201818152835160248401528351909283926044909101919085019080838360008315610abf578181015183820152602001610aa7565b5060408051808201909152601081526f4552525f5a45524f5f4144445245535360801b602082015283906001600160a01b038216610c085760405162461bcd60e51b8152602060048201818152835160248401528351909283926044909101919085019080838360008315610abf578181015183820152602001610aa7565b506002546001600160a01b03858116911614801590610c3557506001546001600160a01b03858116911614155b8015610c4f57506000546001600160a01b03858116911614155b6040518060400160405280601081526020016f4552525f53414d455f4144445245535360801b81525090610cc45760405162461bcd60e51b8152602060048201818152835160248401528351909283926044909101919085019080838360008315610abf578181015183820152602001610aa7565b50600254604080516020808252600e908201526d53595354454d5f4144445245535360901b8183015290516001600160a01b038088169316917f6840904f5b31827f74e1497360da245f56e530c8c3de3163a2d31f11493273c6919081900360600190a3600280546001600160a01b0386166001600160a01b0319909116179055600192505050919050565b60125481565b6003546001600160a01b031681565b60025460408051808201909152601b8152600080516020613bac83398151915260208201526000916001600160a01b03163314610de35760405162461bcd60e51b8152602060048201818152835160248401528351909283926044909101919085019080838360008315610abf578181015183820152602001610aa7565b503031821115610e7457610e02685441475f414c4f4e4760b81b612c5b565b6001600160a01b0316638210b4b4836040518263ffffffff1660e01b815260040180828152602001915050602060405180830381600087803b158015610e4757600080fd5b505af1158015610e5b573d6000803e3d6000fd5b505050506040513d6020811015610e7157600080fd5b50505b610e7d82612cd9565b50600192915050565b6000805460408051808201909152601b8152600080516020613bac8339815191526020820152906001600160a01b03163314610f035760405162461bcd60e51b8152602060048201818152835160248401528351909283926044909101919085019080838360008315610abf578181015183820152602001610aa7565b50604051339083156108fc029084906000818181858888f19350505050158015610e7d573d6000803e3d6000fd5b60048054604080516303c2803f60e31b81526001600160a01b0387811694820194909452858416602482015260448101859052815160009485941692631e1401f89260648082019391829003018186803b158015610f8e57600080fd5b505afa158015610fa2573d6000803e3d6000fd5b505050506040513d6040811015610fb857600080fd5b50805160209091015190969095509350505050565b60035460408051808201909152601b8152600080516020613bac83398151915260208201526000916001600160a01b0316331461104b5760405162461bcd60e51b8152602060048201818152835160248401528351909283926044909101919085019080838360008315610abf578181015183820152602001610aa7565b5060035460015460408051602080825260119082015270415554484f524954595f4144445245535360781b8183015290516001600160a01b039384169392909216917f6840904f5b31827f74e1497360da245f56e530c8c3de3163a2d31f11493273c69181900360600190a35060038054600180546001600160a01b03199081166001600160a01b0384161782559091169091555b90565b600a81815481106110f057fe5b6000918252602090912001546001600160a01b0316905081565b336000818152600e60209081526040808320548151808301909252601b8252600080516020613bac833981519152928201929092529192919060ff166111915760405162461bcd60e51b8152602060048201818152835160248401528351909283926044909101919085019080838360008315610abf578181015183820152602001610aa7565b506111a7685441475f414c4f4e4760b81b612c5b565b6001600160a01b0316638210b4b46014546040518263ffffffff1660e01b815260040180828152602001915050602060405180830381600087803b1580156111ee57600080fd5b505af1158015611202573d6000803e3d6000fd5b505050506040513d602081101561121857600080fd5b505060145461122690612cd9565b5060145491505b5090565b60065482516000916001600160a01b0316908490839061124d57fe5b60200260200101516001600160a01b0316146112b0576040805162461bcd60e51b815260206004820152601e60248201527f526564656d7074696f6e204f6e6c792057697468204d61696e546f6b656e0000604482015290519081900360640190fd5b60006112c86915d212551157d31254d560b21b612c5b565b6001600160a01b03166356be4a3e336040518263ffffffff1660e01b815260040180826001600160a01b03166001600160a01b0316815260200191505060206040518083038186803b15801561131d57600080fd5b505afa158015611331573d6000803e3d6000fd5b505050506040513d602081101561134757600080fd5b505190506001600160a01b038116611396576040805162461bcd60e51b815260206004820152600d60248201526c11549497d5d2125511531254d5609a1b604482015290519081900360640190fd5b60006113ab6620aaa1aa24a7a760c91b612c5b565b6001600160a01b03166384d6dffc6040518163ffffffff1660e01b8152600401602060405180830381600087803b1580156113e557600080fd5b505af11580156113f9573d6000803e3d6000fd5b505050506040513d602081101561140f57600080fd5b50516001600160a01b0383166000908152600f60205260409020549091508111611480576040805162461bcd60e51b815260206004820152601960248201527f4552525f57414c4c45545f414c52454144595f52454445454d00000000000000604482015290519081900360640190fd5b600061148a612e7e565b90506114ac8660008151811061149c57fe5b6020026020010151333088612fe7565b6114d9866000815181106114bc57fe5b60209081029190910101516004546001600160a01b03168761327a565b6000600460009054906101000a90046001600160a01b03166001600160a01b031663e4dd22f66000898960016000806040518763ffffffff1660e01b81526004018080602001868152602001858152602001846001600160a01b03166001600160a01b03168152602001838152602001828103825287818151815260200191508051906020019060200280838360005b83811015611581578181015183820152602001611569565b5050505090500196505050505050506020604051808303818588803b1580156115a957600080fd5b505af11580156115bd573d6000803e3d6000fd5b50505050506040513d60208110156115d457600080fd5b505190506115f16c42616e636f724e6574776f726b60981b61246d565b6001600160a01b0316638077ccf78861160c8a51600161330b565b8151811061161657fe5b60200260200101516040518263ffffffff1660e01b815260040180826001600160a01b03166001600160a01b0316815260200191505060206040518083038186803b15801561166457600080fd5b505afa158015611678573d6000803e3d6000fd5b505050506040513d602081101561168e57600080fd5b5051156116c857604051339082156108fc029083906000818181858888f193505050501580156116c2573d6000803e3d6000fd5b506116f2565b6116f2876116d88951600161330b565b815181106116e257fe5b6020026020010151303384612fe7565b336000908152600f6020526040902083905586517feebddeddf4ae1ee54a48517af27958e7666d69c7ba2e3e7c2b0ff87ef5f4491e90889061173590600161330b565b8151811061173f57fe5b6020026020010151878360405180846001600160a01b03166001600160a01b03168152602001838152602001828152602001935050505060405180910390a16117878261331d565b7f70742bbad56f12500d21b3dbe73d8f274dcdff888612241e4c9c7166e4b6c4c2826117b1612e7e565b6040805192835260208301919091528051918290030190a160019450505050505b92915050565b6001546001600160a01b031681565b60135481565b6006546001600160a01b031681565b600e6020526000908152604090205460ff1681565b6000805460408051808201909152601b8152600080516020613bac8339815191526020820152906001600160a01b0316331461188e5760405162461bcd60e51b8152602060048201818152835160248401528351909283926044909101919085019080838360008315610abf578181015183820152602001610aa7565b5061189b84308585612fe7565b5060019392505050565b6000805460408051808201909152601b8152600080516020613bac8339815191526020820152906001600160a01b031633146119225760405162461bcd60e51b8152602060048201818152835160248401528351909283926044909101919085019080838360008315610abf578181015183820152602001610aa7565b50606482106119625760405162461bcd60e51b8152600401808060200182810382526022815260200180613b8a6022913960400191505060405180910390fd5b50601055600190565b60145481565b60008061198d6c42616e636f724e6574776f726b60981b61246d565b9050806001600160a01b0316638077ccf7846040518263ffffffff1660e01b815260040180826001600160a01b03166001600160a01b0316815260200191505060206040518083038186803b1580156119e557600080fd5b505afa1580156119f9573d6000803e3d6000fd5b505050506040513d6020811015611a0f57600080fd5b50519392505050565b6000611a2d6620aaa1aa24a7a760c91b612c5b565b6001600160a01b0316336001600160a01b0316146040518060400160405280601b8152602001600080516020613bac83398151915281525090611ab15760405162461bcd60e51b8152602060048201818152835160248401528351909283926044909101919085019080838360008315610abf578181015183820152602001610aa7565b50600080611abd613320565b5091506000905080611ad96743555252454e435960c01b612c5b565b60055460408051637058346f60e01b81526001600160a01b03928316600482015290519290911691637058346f91602480820192602092909190829003018186803b158015611b2757600080fd5b505afa158015611b3b573d6000803e3d6000fd5b505050506040513d6020811015611b5157600080fd5b505190506000611bf0611b648584613428565b611beb600a600560009054906101000a90046001600160a01b03166001600160a01b031663313ce5676040518163ffffffff1660e01b815260040160206040518083038186803b158015611bb757600080fd5b505afa158015611bcb573d6000803e3d6000fd5b505050506040513d6020811015611be157600080fd5b505160ff16613453565b613458565b90506000611c076620aaa1aa24a7a760c91b612c5b565b90506000816001600160a01b03166384d6dffc6040518163ffffffff1660e01b8152600401602060405180830381600087803b158015611c4657600080fd5b505af1158015611c5a573d6000803e3d6000fd5b505050506040513d6020811015611c7057600080fd5b5051601254909150811115611ea2576000826001600160a01b031663a504dcbb611c9b84600161330b565b6040518263ffffffff1660e01b81526004018082815260200191505060206040518083038186803b158015611ccf57600080fd5b505afa158015611ce3573d6000803e3d6000fd5b505050506040513d6020811015611cf957600080fd5b5051905060006001600160a01b03841663a504dcbb611d1985600261330b565b6040518263ffffffff1660e01b81526004018082815260200191505060206040518083038186803b158015611d4d57600080fd5b505afa158015611d61573d6000803e3d6000fd5b505050506040513d6020811015611d7757600080fd5b5051905060006001600160a01b03851663fc0546d1611d9786600161330b565b6040518263ffffffff1660e01b81526004018082815260200191505060206040518083038186803b158015611dcb57600080fd5b505afa158015611ddf573d6000803e3d6000fd5b505050506040513d6020811015611df557600080fd5b50519050611e146e41554354494f4e5f464f524d554c4160881b612c5b565b6001600160a01b03166361a9bc218484848a6040518563ffffffff1660e01b81526004018085815260200184815260200183815260200182815260200194505050505060206040518083038186803b158015611e6f57600080fd5b505afa158015611e83573d6000803e3d6000fd5b505050506040513d6020811015611e9957600080fd5b50516013555050505b50506000601455506001935050505090565b600c81815481106110f057fe5b60025460408051808201909152601b8152600080516020613bac83398151915260208201526000916001600160a01b03163314611f3f5760405162461bcd60e51b8152602060048201818152835160248401528351909283926044909101919085019080838360008315610abf578181015183820152602001610aa7565b50610e7d8261346d565b60025460408051808201909152601b8152600080516020613bac83398151915260208201526000916001600160a01b03163314611fc75760405162461bcd60e51b8152602060048201818152835160248401528351909283926044909101919085019080838360008315610abf578181015183820152602001610aa7565b5082611fe6578151611fe0906009906020850190613b0a565b50610e7d565b8260011415612002578151611fe090600a906020850190613b0a565b826002141561201e578151611fe090600b906020850190613b0a565b826003141561203a578151611fe090600c906020850190613b0a565b8260041415610e7d57815161205690600d906020850190613b0a565b5050600192915050565b6000546001600160a01b031681565b60015460408051808201909152601b8152600080516020613bac83398151915260208201526000916001600160a01b031633146120ed5760405162461bcd60e51b8152602060048201818152835160248401528351909283926044909101919085019080838360008315610abf578181015183820152602001610aa7565b5060408051808201909152601081526f4552525f5a45524f5f4144445245535360801b602082015282906001600160a01b03821661216c5760405162461bcd60e51b8152602060048201818152835160248401528351909283926044909101919085019080838360008315610abf578181015183820152602001610aa7565b506002546001600160a01b0384811691161480159061219957506001546001600160a01b03848116911614155b80156121b357506000546001600160a01b03848116911614155b6040518060400160405280601081526020016f4552525f53414d455f4144445245535360801b815250906122285760405162461bcd60e51b8152602060048201818152835160248401528351909283926044909101919085019080838360008315610abf578181015183820152602001610aa7565b50600380546001600160a01b0385166001600160a01b03199091161790556001915050919050565b60105481565b336000818152600e60209081526040808320548151808301909252601b8252600080516020613bac833981519152928201929092529192919060ff166122dd5760405162461bcd60e51b8152602060048201818152835160248401528351909283926044909101919085019080838360008315610abf578181015183820152602001610aa7565b50600034905060006122fb6122f483601054613428565b6064613458565b90506000612309838361330b565b9050612314816135f5565b9050600061232d685441475f414c4f4e4760b81b612c5b565b6001600160a01b0316638210b4b4836040518263ffffffff1660e01b815260040180828152602001915050602060405180830381600087803b15801561237257600080fd5b505af1158015612386573d6000803e3d6000fd5b505050506040513d602081101561239c57600080fd5b505190506123aa8183613626565b91506123b860145483613626565b6014556123c482612cd9565b506123cd612e7e565b9550505050505090565b6000805460408051808201909152601b8152600080516020613bac8339815191526020820152906001600160a01b031633146124545760405162461bcd60e51b8152602060048201818152835160248401528351909283926044909101919085019080838360008315610abf578181015183820152602001610aa7565b5050601155600190565b6000612468612e7e565b905090565b6004805460408051637b10399960e01b8152905160009384936001600160a01b031692637b1039999281830192602092829003018186803b1580156124b157600080fd5b505afa1580156124c5573d6000803e3d6000fd5b505050506040513d60208110156124db57600080fd5b505160408051632ecd14d360e21b815260048101869052905191925082916001600160a01b0383169163bb34534c916024808301926020929190829003018186803b15801561252957600080fd5b505afa15801561253d573d6000803e3d6000fd5b505050506040513d602081101561255357600080fd5b5051949350505050565b60115481565b60015460408051808201909152601b8152600080516020613bac83398151915260208201526000916001600160a01b031633146125e15760405162461bcd60e51b8152602060048201818152835160248401528351909283926044909101919085019080838360008315610abf578181015183820152602001610aa7565b5060408051808201909152601081526f4552525f5a45524f5f4144445245535360801b602082015282906001600160a01b0382166126605760405162461bcd60e51b8152602060048201818152835160248401528351909283926044909101919085019080838360008315610abf578181015183820152602001610aa7565b50600880546001600160a01b0385166001600160a01b03199091161790556001915050919050565b6004546001600160a01b031681565b60006126a584843085612fe7565b60408051600081526001600160a01b038516602082015280820184905290517f988be5a4a02a3fab0f0927cf7b83b33931fce7bc30a2380dad1114c673c880519181900360600190a15060019392505050565b60015460408051808201909152601b8152600080516020613bac83398151915260208201526000916001600160a01b031633146127765760405162461bcd60e51b8152602060048201818152835160248401528351909283926044909101919085019080838360008315610abf578181015183820152602001610aa7565b5060408051808201909152601081526f4552525f5a45524f5f4144445245535360801b602082015282906001600160a01b0382166127f55760405162461bcd60e51b8152602060048201818152835160248401528351909283926044909101919085019080838360008315610abf578181015183820152602001610aa7565b506002546001600160a01b0384811691161480159061282257506001546001600160a01b03848116911614155b801561283c57506000546001600160a01b03848116911614155b6040518060400160405280601081526020016f4552525f53414d455f4144445245535360801b815250906128b15760405162461bcd60e51b8152602060048201818152835160248401528351909283926044909101919085019080838360008315610abf578181015183820152602001610aa7565b50600054604080516020808252600d908201526c282924a6a0a92cafa7aba722a960991b8183015290516001600160a01b038087169316917f6840904f5b31827f74e1497360da245f56e530c8c3de3163a2d31f11493273c6919081900360600190a3600080546001600160a01b0385166001600160a01b03199091161790556001915050919050565b6005546001600160a01b031681565b600b81815481106110f057fe5b600d81815481106110f057fe5b6002546001600160a01b031681565b600981815481106110f057fe5b6008546001600160a01b031681565b60025460408051808201909152601b8152600080516020613bac83398151915260208201526000916001600160a01b03163314612a0d5760405162461bcd60e51b8152602060048201818152835160248401528351909283926044909101919085019080838360008315610abf578181015183820152602001610aa7565b5050600480546001600160a01b0383166001600160a01b03199091161790556001919050565b336000818152600e60209081526040808320548151808301909252601b8252600080516020613bac833981519152928201929092529192919060ff16612aba5760405162461bcd60e51b8152602060048201818152835160248401528351909283926044909101919085019080838360008315610abf578181015183820152602001610aa7565b50612ac785853086612fe7565b612acf612e7e565b95945050505050565b604080516000808252336020830152348284015291517f988be5a4a02a3fab0f0927cf7b83b33931fce7bc30a2380dad1114c673c880519181900360600190a150600190565b6007546001600160a01b031681565b60025460408051808201909152601b8152600080516020613bac83398151915260208201526000916001600160a01b03163314612bab5760405162461bcd60e51b8152602060048201818152835160248401528351909283926044909101919085019080838360008315610abf578181015183820152602001610aa7565b5060408051808201909152601081526f4552525f5a45524f5f4144445245535360801b602082015283906001600160a01b038216612c2a5760405162461bcd60e51b8152602060048201818152835160248401528351909283926044909101919085019080838360008315610abf578181015183820152602001610aa7565b5050506001600160a01b03919091166000908152600e60205260409020805460ff1916911515919091179055600190565b60085460408051637d4367ab60e11b81526004810184905290516000926001600160a01b03169163fa86cf56916024808301926020929190829003018186803b158015612ca757600080fd5b505afa158015612cbb573d6000803e3d6000fd5b505050506040513d6020811015612cd157600080fd5b505192915050565b600080600460009054906101000a90046001600160a01b03166001600160a01b031663e4dd22f68460098660016000806040518763ffffffff1660e01b81526004018080602001868152602001858152602001846001600160a01b03166001600160a01b031681526020018381526020018281038252878181548152602001915080548015612d9157602002820191906000526020600020905b81546001600160a01b03168152600190910190602001808311612d73575b505096505050505050506020604051808303818588803b158015612db457600080fd5b505af1158015612dc8573d6000803e3d6000fd5b50505050506040513d6020811015612ddf57600080fd5b505160098054919250612e2e91612df790600161330b565b81548110612e0157fe5b6000918252602090912001546001600160a01b031630612e2864159055531560da1b612c5b565b84612fe7565b60408051600081526020810185905280820183905290517f5f7675b09617d2c9fa4fd13058ee5877a9538f626b0308816736e83748a450409181900360600190a1612e77613635565b5092915050565b6000806000612e8b613320565b91509150600080612e9a6139c3565b915091506000612eb46743555252454e435960c01b612c5b565b60055460408051637058346f60e01b81526001600160a01b03928316600482015290519290911691637058346f91602480820192602092909190829003018186803b158015612f0257600080fd5b505afa158015612f16573d6000803e3d6000fd5b505050506040513d6020811015612f2c57600080fd5b505190506000612f4d6e41554354494f4e5f464f524d554c4160881b612c5b565b6001600160a01b03166342d8537987868887876040518663ffffffff1660e01b8152600401808681526020018581526020018481526020018381526020018281526020019550505050505060206040518083038186803b158015612fb057600080fd5b505afa158015612fc4573d6000803e3d6000fd5b505050506040513d6020811015612fda57600080fd5b5051965050505050505090565b6000846001600160a01b03166370a08231846040518263ffffffff1660e01b815260040180826001600160a01b03166001600160a01b0316815260200191505060206040518083038186803b15801561303f57600080fd5b505afa158015613053573d6000803e3d6000fd5b505050506040513d602081101561306957600080fd5b505190506001600160a01b03841630141561311057846001600160a01b031663a9059cbb84846040518363ffffffff1660e01b815260040180836001600160a01b03166001600160a01b0316815260200182815260200192505050602060405180830381600087803b1580156130de57600080fd5b505af11580156130f2573d6000803e3d6000fd5b505050506040513d602081101561310857600080fd5b506131989050565b604080516323b872dd60e01b81526001600160a01b0386811660048301528581166024830152604482018590529151918716916323b872dd916064808201926020929091908290030181600087803b15801561316b57600080fd5b505af115801561317f573d6000803e3d6000fd5b505050506040513d602081101561319557600080fd5b50505b6000856001600160a01b03166370a08231856040518263ffffffff1660e01b815260040180826001600160a01b03166001600160a01b0316815260200191505060206040518083038186803b1580156131f057600080fd5b505afa158015613204573d6000803e3d6000fd5b505050506040513d602081101561321a57600080fd5b50519050818111613272576040805162461bcd60e51b815260206004820152601960248201527f4552525f544f4b454e5f4e4f545f5452414e5346455252454400000000000000604482015290519081900360640190fd5b505050505050565b826001600160a01b031663095ea7b383836040518363ffffffff1660e01b815260040180836001600160a01b03166001600160a01b0316815260200182815260200192505050602060405180830381600087803b1580156132da57600080fd5b505af11580156132ee573d6000803e3d6000fd5b505050506040513d602081101561330457600080fd5b5050505050565b60008282111561331757fe5b50900390565b50565b60048054600554604080516305489ad560e21b81526001600160a01b039283169481019490945251600093849392909216916315226b54916024808301926020929190829003018186803b15801561337757600080fd5b505afa15801561338b573d6000803e3d6000fd5b505050506040513d60208110156133a157600080fd5b505160048054600654604080516305489ad560e21b81526001600160a01b03928316948101949094525193955016916315226b5491602480820192602092909190829003018186803b1580156133f657600080fd5b505afa15801561340a573d6000803e3d6000fd5b505050506040513d602081101561342057600080fd5b505190509091565b600082613437575060006117d2565b8282028284828161344457fe5b041461344c57fe5b9392505050565b900a90565b60008082848161346457fe5b04949350505050565b60065460045460009161348d916001600160a01b0391821691168461327a565b6000600460009054906101000a90046001600160a01b03166001600160a01b031663e4dd22f66000600b8660016000806040518763ffffffff1660e01b81526004018080602001868152602001858152602001846001600160a01b03166001600160a01b03168152602001838152602001828103825287818154815260200191508054801561354557602002820191906000526020600020905b81546001600160a01b03168152600190910190602001808311613527575b505096505050505050506020604051808303818588803b15801561356857600080fd5b505af115801561357c573d6000803e3d6000fd5b50505050506040513d602081101561359357600080fd5b5051600b80549192506135ab91612df790600161330b565b60408051600081526020810185905280820183905290517feebddeddf4ae1ee54a48517af27958e7666d69c7ba2e3e7c2b0ff87ef5f4491e9181900360600190a150600192915050565b6013546000901561122d5761362061361883613613600a600c613453565b613428565b601354613458565b91505090565b60008282018381101561344c57fe5b60008061364b6620aaa1aa24a7a760c91b612c5b565b6001600160a01b031663945722866040518163ffffffff1660e01b8152600401602060405180830381600087803b15801561368557600080fd5b505af1158015613699573d6000803e3d6000fd5b505050506040513d60208110156136af57600080fd5b505190506000806136be613320565b915091506000806136cd6139c3565b9150915060006136e76743555252454e435960c01b612c5b565b60055460408051637058346f60e01b81526001600160a01b03928316600482015290519290911691637058346f91602480820192602092909190829003018186803b15801561373557600080fd5b505afa158015613749573d6000803e3d6000fd5b505050506040513d602081101561375f57600080fd5b5051905060006137806e41554354494f4e5f464f524d554c4160881b612c5b565b6001600160a01b03166342d8537987868887876040518663ffffffff1660e01b8152600401808681526020018581526020018481526020018381526020018281526020019550505050505060206040518083038186803b1580156137e357600080fd5b505afa1580156137f7573d6000803e3d6000fd5b505050506040513d602081101561380d57600080fd5b505190506000613827613821836064613428565b89613458565b90506011548111156139b8576001985060006138486122f46011548b613428565b905060006138676e41554354494f4e5f464f524d554c4160881b612c5b565b6001600160a01b0316635d4491628a89858a8a6040518663ffffffff1660e01b8152600401808681526020018581526020018481526020018381526020018281526020019550505050505060206040518083038186803b1580156138ca57600080fd5b505afa1580156138de573d6000803e3d6000fd5b505050506040513d60208110156138f457600080fd5b50519050878111156139b557600061390c828a61330b565b905061391f64159055531560da1b61246d565b6006546040805163f83d179160e01b81526001600160a01b039283166004820152306024820152604481018590529051929091169163f83d1791916064808201926020929091908290030181600087803b15801561397c57600080fd5b505af1158015613990573d6000803e3d6000fd5b505050506040513d60208110156139a657600080fd5b506139b290508161346d565b50505b50505b505050505050505090565b600480546005546040805163359af54960e21b81526001600160a01b03928316948101949094525160009384938493849384938493929092169163d66bd5249160248083019260a0929190829003018186803b158015613a2257600080fd5b505afa158015613a36573d6000803e3d6000fd5b505050506040513d60a0811015613a4c57600080fd5b5080516020820151604080840151606085015160809095015160048054600654855163359af54960e21b81526001600160a01b0391821693810193909352945163ffffffff9096169d50959a509198509496509394509091169163d66bd5249160248083019260a0929190829003018186803b158015613acb57600080fd5b505afa158015613adf573d6000803e3d6000fd5b505050506040513d60a0811015613af557600080fd5b506020015163ffffffff169450505050509091565b828054828255906000526020600020908101928215613b5f579160200282015b82811115613b5f57825182546001600160a01b0319166001600160a01b03909116178255602090920191600190910190613b2a565b5061122d926110e09250905b8082111561122d5780546001600160a01b0319168155600101613b6b56fe4552525f524154494f5f43414e545f42455f475245415445525f5448414e5f3130304552525f415554484f52495a45445f414444524553535f4f4e4c590000000000a265627a7a72305820d36412bb28ade0c4c4baed70175067f82073a65b68aac2a80bc29cf7507797df64736f6c63430005090032",
  "source": "pragma solidity ^0.5.9;\n\nimport \"../common/SafeMath.sol\";\nimport \"../common/Ownable.sol\";\nimport \"../InterFaces/IAuctionRegistery.sol\";\nimport \"../InterFaces/IAuctionTagAlong.sol\";\nimport \"../InterFaces/ICurrencyPrices.sol\";\nimport \"../InterFaces/IERC20Token.sol\";\nimport \"../InterFaces/IAuctionFormula.sol\";\nimport \"../InterFaces/IAuction.sol\";\nimport \"../InterFaces/ITokenVault.sol\";\nimport \"../InterFaces/IWhiteList.sol\";\n\n\ncontract IBancorNetwork {\n    function etherTokens(address _address) public view returns (bool);\n\n    function getReturnByPath(IERC20Token[] memory _path, uint256 _amount)\n        public\n        view\n        returns (uint256, uint256);\n}\n\n\ncontract IContractRegistry {\n    function addressOf(bytes32 _contractName) public view returns (address);\n\n    // deprecated, backward compatibility\n    function getAddress(bytes32 _contractName) public view returns (address);\n}\n\n\ncontract IBancorConverter {\n    function registry() public view returns (address);\n\n    function reserves(address _address)\n        public\n        view\n        returns (uint256, uint32, bool, bool, bool);\n\n    function getReturn(\n        IERC20Token _fromToken,\n        IERC20Token _toToken,\n        uint256 _amount\n    ) public view returns (uint256, uint256);\n\n    function quickConvert2(\n        IERC20Token[] memory _path,\n        uint256 _amount,\n        uint256 _minReturn,\n        address _affiliateAccount,\n        uint256 _affiliateFee\n    ) public payable returns (uint256);\n\n    function fund(uint256 _amount) public;\n\n    function liquidate(uint256 _amount) public;\n\n    function getReserveBalance(IERC20Token _reserveToken)\n        public\n        view\n        returns (uint256);\n}\n\n\ncontract BancorConverter is Ownable, SafeMath {\n    bytes32 internal constant BANCOR_FORMULA = \"BancorFormula\";\n\n    bytes32 internal constant BANCOR_NETWORK = \"BancorNetwork\";\n\n    address public converter;\n\n    // here is base token is bnt\n    IERC20Token public baseToken;\n\n    IERC20Token public mainToken;\n\n    IERC20Token public relayToken;\n\n    constructor(\n        address _converter,\n        address _baseToken,\n        address _mainToken,\n        address _relayToken\n    ) public {\n        converter = _converter;\n        baseToken = IERC20Token(_baseToken);\n        mainToken = IERC20Token(_mainToken);\n        relayToken = IERC20Token(_relayToken);\n    }\n\n    function updateConverter(address _converter)\n        public\n        onlySystem()\n        returns (bool)\n    {\n        converter = _converter;\n        return true;\n    }\n\n    function addressOf(bytes32 _contractName) public view returns (address) {\n        address _registry = IBancorConverter(converter).registry();\n        IContractRegistry registry = IContractRegistry(_registry);\n        return registry.addressOf(_contractName);\n    }\n\n    function getTokensReserveBalance()\n        internal\n        view\n        returns (uint256 _baseTokenBalance, uint256 _mainTokenBalance)\n    {\n        _baseTokenBalance = IBancorConverter(converter).getReserveBalance(\n            baseToken\n        );\n        _mainTokenBalance = IBancorConverter(converter).getReserveBalance(\n            mainToken\n        );\n        return (_baseTokenBalance, _mainTokenBalance);\n    }\n\n    function getTokensReserveRatio()\n        internal\n        view\n        returns (uint256 _baseTokenRatio, uint256 _mainTokenRatio)\n    {\n        uint256 a;\n        bool c;\n        bool d;\n        bool e;\n        (a, _baseTokenRatio, c, d, e) = IBancorConverter(converter).reserves(\n            address(baseToken)\n        );\n        (a, _mainTokenRatio, c, d, e) = IBancorConverter(converter).reserves(\n            address(mainToken)\n        );\n        return (_baseTokenRatio, _mainTokenRatio);\n    }\n\n    function getReturn(address _fromToken, address _toToken, uint256 _amount)\n        public\n        view\n        returns (uint256, uint256)\n    {\n        return\n            IBancorConverter(converter).getReturn(\n                IERC20Token(_fromToken),\n                IERC20Token(_toToken),\n                _amount\n            );\n    }\n\n    function etherTokens(address _address) public view returns (bool) {\n        IBancorNetwork network = IBancorNetwork(addressOf(BANCOR_NETWORK));\n        return network.etherTokens(_address);\n    }\n}\n\n\ncontract AuctionRegistery is Ownable, AuctionRegisteryContracts {\n    IAuctionRegistery public contractsRegistry;\n\n    function updateRegistery(address _address)\n        external\n        onlyAuthorized()\n        notZeroAddress(_address)\n        returns (bool)\n    {\n        contractsRegistry = IAuctionRegistery(_address);\n        return true;\n    }\n\n    function getAddressOf(bytes32 _contractName)\n        internal\n        view\n        returns (address)\n    {\n        return contractsRegistry.getAddressOf(_contractName);\n    }\n}\n\n\ncontract LiquadityUtils is BancorConverter, AuctionRegistery {\n    // _path = 0\n    IERC20Token[] public ethToMainToken;\n\n    // _path = 1\n    IERC20Token[] public baseTokenToMainToken;\n\n    // _path = 2\n    IERC20Token[] public mainTokenTobaseToken;\n\n    // _path = 3\n    IERC20Token[] public ethToBaseToken;\n    \n    // _path = 4\n    IERC20Token[] public baseTokenToEth;\n\n    mapping(address => bool) public allowedAddress;\n\n    mapping(address => uint256) lastReedeeDay;\n\n    uint256 public sideReseverRatio = 90;\n\n    uint256 public appreciationLimit = 120;\n\n    uint256 public reductionStartDay = 14;\n\n    uint256 public virtualReserverDivisor = 0;\n    \n    uint256 public previousMainReserveContribution;\n\n    modifier allowedAddressOnly(address _which) {\n        require(allowedAddress[_which], ERR_AUTHORIZED_ADDRESS_ONLY);\n        _;\n    }\n\n    function setAllowedAddress(address _address, bool _check)\n        public\n        onlySystem()\n        notZeroAddress(_address)\n        returns (bool)\n    {\n        allowedAddress[_address] = _check;\n        return true;\n    }\n\n    function setTokenPath(uint256 _pathNo, IERC20Token[] memory _path)\n        public\n        onlySystem()\n        returns (bool)\n    {\n        if (_pathNo == 0) ethToMainToken = _path;\n        else if (_pathNo == 1) baseTokenToMainToken = _path;\n        else if (_pathNo == 2) mainTokenTobaseToken = _path;\n        else if (_pathNo == 3) ethToBaseToken = _path;\n        else if (_pathNo == 4) baseTokenToEth = _path;\n\n        return true;\n    }\n\n    function setSideReseverRatio(uint256 _ratio)\n        public\n        onlyOwner()\n        returns (bool)\n    {\n        require(_ratio < 100, \"ERR_RATIO_CANT_BE_GREATER_THAN_100\");\n        sideReseverRatio = _ratio;\n        return true;\n    }\n\n    function setAppreciationLimit(uint256 _limit)\n        public\n        onlyOwner()\n        returns (bool)\n    {\n        appreciationLimit = _limit;\n        return true;\n    }\n}\n\n\ncontract Liquadity is LiquadityUtils {\n    constructor(\n        address _converter,\n        address _baseToken,\n        address _mainToken,\n        address _relayToken,\n        address _systemAddress,\n        address _multisigAddress,\n        address _registeryAddress,\n        IERC20Token[] memory _ethToMainToken,\n        IERC20Token[] memory _baseTokenToMainToken,\n        IERC20Token[] memory _mainTokenTobaseToken,\n        IERC20Token[] memory _ethToBaseToken\n    )\n        public\n        notZeroAddress(_systemAddress)\n        BancorConverter(_converter, _baseToken, _mainToken, _relayToken)\n        Ownable(_systemAddress, _multisigAddress)\n    {\n        contractsRegistry = IAuctionRegistery(_registeryAddress);\n        ethToMainToken = _ethToMainToken;\n        baseTokenToMainToken = _baseTokenToMainToken;\n        mainTokenTobaseToken = _mainTokenTobaseToken;\n        ethToBaseToken = _ethToBaseToken;\n    }\n\n    event Contribution(address _token, uint256 _amount, uint256 returnAmount);\n\n    event RecoverPrice(uint256 _oldPrice, uint256 _newPrice);\n\n    event Redemption(address _token, uint256 _amount, uint256 returnAmount);\n\n    event FundDeposited(address _token, address _from, uint256 _amount);\n\n    function ensureTransferFrom(\n        IERC20Token _token,\n        address _from,\n        address _to,\n        uint256 _amount\n    ) private {\n        uint256 prevBalance = _token.balanceOf(_to);\n\n        if (_from == address(this)) _token.transfer(_to, _amount);\n        else _token.transferFrom(_from, _to, _amount);\n        uint256 postBalance = _token.balanceOf(_to);\n        require(postBalance > prevBalance, \"ERR_TOKEN_NOT_TRANSFERRED\");\n    }\n\n    function approveTransferFrom(\n        IERC20Token _token,\n        address _spender,\n        uint256 _amount\n    ) private {\n        _token.approve(_spender, _amount);\n    }\n\n    function _contributeWithEther(uint256 value) internal returns (uint256) {\n        uint256 returnAmount = IBancorConverter(converter).quickConvert2.value(\n            value\n        )(ethToMainToken, value, 1, address(0), 0);\n\n        ensureTransferFrom(\n            ethToMainToken[safeSub(ethToMainToken.length, 1)],\n            address(this),\n            getAddressOf(VAULT),\n            returnAmount\n        );\n\n        emit Contribution(address(0), value, returnAmount);\n\n        checkAppeciationLimit();\n\n        return returnAmount;\n    }\n\n    //This method return token base on wich is last address\n    //If last address is ethtoken it will return ether\n    function _redempation(uint256 value) internal returns (bool) {\n        approveTransferFrom(IERC20Token(mainToken), converter, value);\n\n        uint256 returnAmount = IBancorConverter(converter).quickConvert2.value(\n            0\n        )(mainTokenTobaseToken, value, 1, address(0), 0);\n\n        ensureTransferFrom(\n            mainTokenTobaseToken[safeSub(mainTokenTobaseToken.length, 1)],\n            address(this),\n            getAddressOf(VAULT),\n            returnAmount\n        );\n\n        emit Redemption(address(0), value, returnAmount);\n\n        return true;\n    }\n\n    function _getCurrentMarketPrice() internal view returns (uint256) {\n        (\n            uint256 _baseTokenBalance,\n            uint256 _mainTokenBalance\n        ) = getTokensReserveBalance();\n\n        (\n            uint256 _baseTokenRatio,\n            uint256 _mainTokenRatio\n        ) = getTokensReserveRatio();\n\n        uint256 _baseTokenPrice = ICurrencyPrices(getAddressOf(CURRENCY))\n            .getCurrencyPrice(address(baseToken));\n\n        uint256 tokenCurrentPrice = IAuctionFormula(\n            getAddressOf(AUCTION_FORMULA)\n        )\n            .calculateTokenPrice(\n            _baseTokenBalance,\n            _baseTokenRatio,\n            _mainTokenBalance,\n            _mainTokenRatio,\n            _baseTokenPrice\n        );\n\n        return tokenCurrentPrice;\n    }\n\n    function checkAppeciationLimit()\n        internal\n        returns (bool _isRedemptionReqiured)\n    {\n        _isRedemptionReqiured = false;\n\n        uint256 tokenAuctionEndPrice = IAuction(getAddressOf(AUCTION))\n            .tokenAuctionEndPrice();\n\n        (\n            uint256 _baseTokenBalance,\n            uint256 _mainTokenBalance\n        ) = getTokensReserveBalance();\n\n        (\n            uint256 _baseTokenRatio,\n            uint256 _mainTokenRatio\n        ) = getTokensReserveRatio();\n\n        uint256 _baseTokenPrice = ICurrencyPrices(getAddressOf(CURRENCY))\n            .getCurrencyPrice(address(baseToken));\n\n        uint256 tokenCurrentPrice = IAuctionFormula(\n            getAddressOf(AUCTION_FORMULA)\n        )\n            .calculateTokenPrice(\n            _baseTokenBalance,\n            _baseTokenRatio,\n            _mainTokenBalance,\n            _mainTokenRatio,\n            _baseTokenPrice\n        );\n\n        uint256 _appreciationReached = safeDiv(\n            safeMul(tokenCurrentPrice, 100),\n            tokenAuctionEndPrice\n        );\n\n        if (_appreciationReached > appreciationLimit) {\n            _isRedemptionReqiured = true;\n\n            uint256 fallBackPrice = safeDiv(\n                safeMul(appreciationLimit, tokenAuctionEndPrice),\n                100\n            );\n\n            uint256 newReserverBalance = IAuctionFormula(\n                getAddressOf(AUCTION_FORMULA)\n            )\n                .calculateApprectiation(\n                _baseTokenBalance,\n                _baseTokenRatio,\n                fallBackPrice,\n                _mainTokenRatio,\n                _baseTokenPrice\n            );\n\n            if (newReserverBalance > _mainTokenBalance) {\n                uint256 _reverseBalance = safeSub(\n                    newReserverBalance,\n                    _mainTokenBalance\n                );\n\n                ITokenVault(addressOf(VAULT)).directTransfer(\n                    address(mainToken),\n                    address(this),\n                    _reverseBalance\n                );\n                _redempation(_reverseBalance);\n            }\n        }\n\n        return _isRedemptionReqiured;\n    }\n\n    // when we have zero contibution towards auction\n    // this method called from auction contarct\n    function contributeTowardMainReserve()\n        external\n        allowedAddressOnly(msg.sender)\n        returns (uint256)\n    {\n        \n        IAuctionTagAlong(getAddressOf(TAG_ALONG))\n            .contributeTowardLiquadity(previousMainReserveContribution);\n\n        _contributeWithEther(previousMainReserveContribution);\n\n        return previousMainReserveContribution;\n    }\n\n    function _getMainReserveAmount(uint256 mainReserverAmount)\n        internal\n        view\n        returns (uint256)\n    {   \n        \n        if(virtualReserverDivisor > 0 )\n            mainReserverAmount = safeDiv(safeMul(mainReserverAmount,safeExponent(10,12)),virtualReserverDivisor);\n    \n        return mainReserverAmount;\n    }\n\n    function contributeWithEther()\n        public\n        payable\n        allowedAddressOnly(msg.sender)\n        returns (uint256)\n    {\n        uint256 _amount = msg.value;\n\n        uint256 sideReseverAmount = safeDiv(\n            safeMul(_amount, sideReseverRatio),\n            100\n        );\n\n        uint256 mainReserverAmount = safeSub(_amount, sideReseverAmount);\n\n        mainReserverAmount = _getMainReserveAmount(mainReserverAmount);\n\n        uint256 tagAlongContribution = IAuctionTagAlong(getAddressOf(TAG_ALONG))\n            .contributeTowardLiquadity(mainReserverAmount);\n\n        mainReserverAmount = safeAdd(tagAlongContribution, mainReserverAmount);\n        \n        previousMainReserveContribution = safeAdd(previousMainReserveContribution,mainReserverAmount);\n        \n        _contributeWithEther(mainReserverAmount);\n        \n        return _getCurrentMarketPrice();\n    }\n\n    // contribution with Token is not avilable for bancor\n    //bacnor dont have stable coin base conversion\n    function contributeWithToken(\n        IERC20Token _token,\n        address _from,\n        uint256 _amount\n    ) public allowedAddressOnly(msg.sender) returns (uint256) {\n        ensureTransferFrom(_token, _from, address(this), _amount);\n        return _getCurrentMarketPrice();\n    }\n\n    /// this neeed to developed on chain\n    // if side reserve dont have money tagalong come here\n    function contributionSystem(uint256 _amount)\n        external\n        onlySystem()\n        returns (bool)\n    {\n        if (address(this).balance < _amount) {\n            IAuctionTagAlong(getAddressOf(TAG_ALONG)).contributeTowardLiquadity(\n                _amount\n            );\n        }\n        _contributeWithEther(_amount);\n        return true;\n    }\n\n    function redemptionSystem(uint256 _amount)\n        external\n        onlySystem()\n        returns (bool)\n    {\n        _redempation(_amount);\n        return true;\n    }\n\n    // // under development\n     function _recoverPrice(uint256 recoverPrice) internal {\n    //     IBancorNetwork bancorNetwork = IBancorNetwork(\n    //         addressOf(BANCOR_NETWORK)\n    //     );\n     }\n\n    function redemption(IERC20Token[] memory _path, uint256 _amount)\n        public\n        returns (bool)\n    {\n        require(\n            address(_path[0]) == address(mainToken),\n            \"Redemption Only With MainToken\"\n        );\n\n        address primaryWallet = IWhiteList(getAddressOf(WHITE_LIST))\n            .address_belongs(msg.sender);\n        require(primaryWallet != address(0), \"ERR_WHITELIST\");\n\n        uint256 auctionDay = IAuction(getAddressOf(AUCTION)).auctionDay();\n\n        require(\n            auctionDay > lastReedeeDay[primaryWallet],\n            \"ERR_WALLET_ALREADY_REDEEM\"\n        );\n\n        uint256 marketPrice = _getCurrentMarketPrice();\n\n        ensureTransferFrom(_path[0], msg.sender, address(this), _amount);\n\n        approveTransferFrom(_path[0], converter, _amount);\n\n        uint256 returnAmount = IBancorConverter(converter).quickConvert2.value(\n            0\n        )(_path, _amount, 1, address(0), 0);\n\n        if (\n            IBancorNetwork(addressOf(BANCOR_NETWORK)).etherTokens(\n                address(_path[safeSub(_path.length, 1)])\n            )\n        ) msg.sender.transfer(returnAmount);\n        else\n            ensureTransferFrom(\n                _path[safeSub(_path.length, 1)],\n                address(this),\n                msg.sender,\n                returnAmount\n            );\n\n        lastReedeeDay[msg.sender] = auctionDay;\n\n        emit Redemption(\n            address(_path[safeSub(_path.length, 1)]),\n            _amount,\n            returnAmount\n        );\n\n        _recoverPrice(marketPrice);\n        emit RecoverPrice(marketPrice, _getCurrentMarketPrice());\n        return true;\n    }\n\n    function auctionEnded() external returns (bool) {\n        require(msg.sender == getAddressOf(AUCTION),ERR_AUTHORIZED_ADDRESS_ONLY);\n        (\n            uint256 _baseTokenBalance,\n            uint256 _mainTokenBalance\n        ) = getTokensReserveBalance();\n        \n        delete _mainTokenBalance;\n        \n        uint256 _baseTokenPrice = ICurrencyPrices(getAddressOf(CURRENCY))\n            .getCurrencyPrice(address(baseToken));\n\n        uint256 yesterdayMainReserv = safeDiv(\n            safeMul(_baseTokenBalance, _baseTokenPrice),\n            safeExponent(10, baseToken.decimals())\n        );\n        \n        IAuction auction = IAuction(getAddressOf(AUCTION));\n\n        uint256 auctionDay = auction.auctionDay();\n\n        if (auctionDay > reductionStartDay) {\n            uint256 _yesterdayPrice = auction.dayWiseMarketPrice(\n                safeSub(auctionDay, 1)\n            );\n\n            uint256 _dayBeforePrice = auction.dayWiseMarketPrice(\n                safeSub(auctionDay, 2)\n            );\n\n            uint256 _yesterdayContribution = auction.dayWiseContribution(\n                safeSub(auctionDay, 1)\n            );\n\n            virtualReserverDivisor = IAuctionFormula(getAddressOf(AUCTION_FORMULA))\n                .calculateLiquadityMainReserve(\n                _yesterdayPrice,\n                _dayBeforePrice,\n                _yesterdayContribution,\n                yesterdayMainReserv\n            );\n        }\n        previousMainReserveContribution = 0;\n\n        return true;\n    }\n    \n    function _liquadate(address payable _sender,uint256 _amount,bool _convertToEth) internal {\n        \n        uint256 _mainTokenBalance = mainToken.balanceOf(address(this));\n        \n        //extract ether from BNTETH converter\n        uint256 _baseTokenBalance = baseToken.balanceOf(address(this));\n        \n        //take out both side of token from the reserve\n        IBancorConverter(converter).liquidate(_amount);\n        \n        ensureTransferFrom(\n                mainToken,\n                address(this),\n                _sender,\n                safeSub(\n                    mainToken.balanceOf(address(this)),\n                    _mainTokenBalance\n                )\n            );\n        _baseTokenBalance = safeSub(\n                    baseToken.balanceOf(address(this)),\n                    _baseTokenBalance\n                ) ;\n        if(_convertToEth){\n            \n            uint256 beforeEthBalance = address(this).balance;\n            approveTransferFrom(baseToken,converter,_baseTokenBalance);\n            IBancorConverter(converter).quickConvert2.value(0)(baseTokenToEth, _baseTokenBalance, 1, address(0), 0);\n            if(_sender != address(this))\n            _sender.transfer(safeSub(address(this).balance,beforeEthBalance));\n            delete beforeEthBalance;\n        }else{\n           ensureTransferFrom(\n                baseToken,\n                address(this),\n                _sender,\n                _baseTokenBalance\n            ); \n        }\n        delete _baseTokenBalance;\n        delete _mainTokenBalance;\n    }\n    \n    // function liquidate(uint256 _amount,bool _convertToEth)\n    //     external\n    //     returns (bool)\n    // {\n        \n    //     ensureTransferFrom(relayToken, msg.sender, address(this), _amount);\n       \n        \n    // }\n\n    function getCurrencyPrice() public view returns (uint256) {\n        return _getCurrentMarketPrice();\n    }\n\n    function depositeEther() external payable returns (bool) {\n        emit FundDeposited(address(0), msg.sender, msg.value);\n        return true;\n    }\n\n    function depositeToken(IERC20Token _token, address _from, uint256 _amount)\n        external\n        returns (bool)\n    {\n        ensureTransferFrom(_token, _from, address(this), _amount);\n        emit FundDeposited(address(0), _from, _amount);\n        return true;\n    }\n\n    function returnTokens(IERC20Token _tokens, address _to, uint256 _value)\n        external\n        onlyOwner()\n        returns (bool)\n    {\n        ensureTransferFrom(_tokens, address(this), _to, _value);\n        return true;\n    }\n\n    function withDraw(uint256 _value) external onlyOwner() returns (bool) {\n        msg.sender.transfer(_value);\n        return true;\n    }\n}\n",
  "sourcePath": "/home/safu/minddeft/jointerInc/jointer-token/contracts/auctionContracts/AuctionLiquadity.sol",
  "compiler": {
    "name": "solc",
    "version": "0.5.9+commit.e560f70d.Emscripten.clang"
  },
  "schemaVersion": "3.1.0",
  "updatedAt": "2020-05-22T13:05:31.413Z",
  "devdoc": {
    "methods": {
      "changeAuthorityAddress(address)": {
        "details": "change system address",
        "params": {
          "_which": "The address to which is new Authority address"
        }
      },
      "changePrimaryOwner(address)": {
        "details": "change primary ownership",
        "params": {
          "_which": "The address to which is new owner address"
        }
      },
      "changeSystemAddress(address)": {
        "details": "change system address",
        "params": {
          "_which": "The address to which is new system address"
        }
      }
    }
  },
  "userdoc": {
    "methods": {
      "contributionSystem(uint256)": {
        "notice": "this neeed to developed on chain"
      }
    }
  }
}