{
  "contractName": "MainToken",
  "abi": [
    {
      "constant": false,
      "inputs": [
        {
          "name": "_which",
          "type": "address"
        }
      ],
      "name": "changeSystemAddress",
      "outputs": [
        {
          "name": "",
          "type": "bool"
        }
      ],
      "payable": false,
      "stateMutability": "nonpayable",
      "type": "function"
    },
    {
      "constant": true,
      "inputs": [],
      "name": "name",
      "outputs": [
        {
          "name": "",
          "type": "string"
        }
      ],
      "payable": false,
      "stateMutability": "view",
      "type": "function"
    },
    {
      "constant": false,
      "inputs": [
        {
          "name": "_spender",
          "type": "address"
        },
        {
          "name": "_value",
          "type": "uint256"
        }
      ],
      "name": "approve",
      "outputs": [
        {
          "name": "ok",
          "type": "bool"
        }
      ],
      "payable": false,
      "stateMutability": "nonpayable",
      "type": "function"
    },
    {
      "constant": true,
      "inputs": [],
      "name": "newAuthorityAddress",
      "outputs": [
        {
          "name": "",
          "type": "address"
        }
      ],
      "payable": false,
      "stateMutability": "view",
      "type": "function"
    },
    {
      "constant": true,
      "inputs": [],
      "name": "isTokenMature",
      "outputs": [
        {
          "name": "",
          "type": "bool"
        }
      ],
      "payable": false,
      "stateMutability": "view",
      "type": "function"
    },
    {
      "constant": true,
      "inputs": [],
      "name": "totalSupply",
      "outputs": [
        {
          "name": "",
          "type": "uint256"
        }
      ],
      "payable": false,
      "stateMutability": "view",
      "type": "function"
    },
    {
      "constant": false,
      "inputs": [],
      "name": "acceptAuthorityAddress",
      "outputs": [
        {
          "name": "",
          "type": "bool"
        }
      ],
      "payable": false,
      "stateMutability": "nonpayable",
      "type": "function"
    },
    {
      "constant": true,
      "inputs": [],
      "name": "decimals",
      "outputs": [
        {
          "name": "",
          "type": "uint256"
        }
      ],
      "payable": false,
      "stateMutability": "view",
      "type": "function"
    },
    {
      "constant": false,
      "inputs": [
        {
          "name": "_spender",
          "type": "address"
        },
        {
          "name": "_value",
          "type": "uint256"
        }
      ],
      "name": "increaseAllowance",
      "outputs": [
        {
          "name": "",
          "type": "bool"
        }
      ],
      "payable": false,
      "stateMutability": "nonpayable",
      "type": "function"
    },
    {
      "constant": true,
      "inputs": [],
      "name": "authorityAddress",
      "outputs": [
        {
          "name": "",
          "type": "address"
        }
      ],
      "payable": false,
      "stateMutability": "view",
      "type": "function"
    },
    {
      "constant": false,
      "inputs": [
        {
          "name": "_value",
          "type": "uint256"
        }
      ],
      "name": "burn",
      "outputs": [
        {
          "name": "",
          "type": "bool"
        }
      ],
      "payable": false,
      "stateMutability": "nonpayable",
      "type": "function"
    },
    {
      "constant": true,
      "inputs": [],
      "name": "tokenMaturityDays",
      "outputs": [
        {
          "name": "",
          "type": "uint256"
        }
      ],
      "payable": false,
      "stateMutability": "view",
      "type": "function"
    },
    {
      "constant": true,
      "inputs": [
        {
          "name": "_who",
          "type": "address"
        }
      ],
      "name": "balanceOf",
      "outputs": [
        {
          "name": "balance",
          "type": "uint256"
        }
      ],
      "payable": false,
      "stateMutability": "view",
      "type": "function"
    },
    {
      "constant": true,
      "inputs": [],
      "name": "tokenSaleStartDate",
      "outputs": [
        {
          "name": "",
          "type": "uint256"
        }
      ],
      "payable": false,
      "stateMutability": "view",
      "type": "function"
    },
    {
      "constant": true,
      "inputs": [],
      "name": "primaryOwner",
      "outputs": [
        {
          "name": "",
          "type": "address"
        }
      ],
      "payable": false,
      "stateMutability": "view",
      "type": "function"
    },
    {
      "constant": false,
      "inputs": [
        {
          "name": "_which",
          "type": "address"
        }
      ],
      "name": "changeAuthorityAddress",
      "outputs": [
        {
          "name": "",
          "type": "bool"
        }
      ],
      "payable": false,
      "stateMutability": "nonpayable",
      "type": "function"
    },
    {
      "constant": true,
      "inputs": [],
      "name": "symbol",
      "outputs": [
        {
          "name": "",
          "type": "string"
        }
      ],
      "payable": false,
      "stateMutability": "view",
      "type": "function"
    },
    {
      "constant": true,
      "inputs": [],
      "name": "tokenHoldBackDays",
      "outputs": [
        {
          "name": "",
          "type": "uint256"
        }
      ],
      "payable": false,
      "stateMutability": "view",
      "type": "function"
    },
    {
      "constant": false,
      "inputs": [
        {
          "name": "_amount",
          "type": "uint256"
        }
      ],
      "name": "mintTokens",
      "outputs": [
        {
          "name": "",
          "type": "bool"
        }
      ],
      "payable": false,
      "stateMutability": "nonpayable",
      "type": "function"
    },
    {
      "constant": false,
      "inputs": [
        {
          "name": "_spender",
          "type": "address"
        },
        {
          "name": "_value",
          "type": "uint256"
        }
      ],
      "name": "decreaseAllowance",
      "outputs": [
        {
          "name": "",
          "type": "bool"
        }
      ],
      "payable": false,
      "stateMutability": "nonpayable",
      "type": "function"
    },
    {
      "constant": false,
      "inputs": [
        {
          "name": "_address",
          "type": "address"
        }
      ],
      "name": "updateRegistery",
      "outputs": [
        {
          "name": "",
          "type": "bool"
        }
      ],
      "payable": false,
      "stateMutability": "nonpayable",
      "type": "function"
    },
    {
      "constant": true,
      "inputs": [],
      "name": "isHoldbackDaysOver",
      "outputs": [
        {
          "name": "",
          "type": "bool"
        }
      ],
      "payable": false,
      "stateMutability": "view",
      "type": "function"
    },
    {
      "constant": false,
      "inputs": [
        {
          "name": "_which",
          "type": "address"
        }
      ],
      "name": "changePrimaryOwner",
      "outputs": [
        {
          "name": "",
          "type": "bool"
        }
      ],
      "payable": false,
      "stateMutability": "nonpayable",
      "type": "function"
    },
    {
      "constant": true,
      "inputs": [],
      "name": "systemAddress",
      "outputs": [
        {
          "name": "",
          "type": "address"
        }
      ],
      "payable": false,
      "stateMutability": "view",
      "type": "function"
    },
    {
      "constant": true,
      "inputs": [],
      "name": "contractsRegistry",
      "outputs": [
        {
          "name": "",
          "type": "address"
        }
      ],
      "payable": false,
      "stateMutability": "view",
      "type": "function"
    },
    {
      "constant": true,
      "inputs": [
        {
          "name": "_owner",
          "type": "address"
        },
        {
          "name": "_spender",
          "type": "address"
        }
      ],
      "name": "allowance",
      "outputs": [
        {
          "name": "",
          "type": "uint256"
        }
      ],
      "payable": false,
      "stateMutability": "view",
      "type": "function"
    },
    {
      "inputs": [
        {
          "name": "_name",
          "type": "string"
        },
        {
          "name": "_symbol",
          "type": "string"
        },
        {
          "name": "_systemAddress",
          "type": "address"
        },
        {
          "name": "_authorityAddress",
          "type": "address"
        },
        {
          "name": "_registeryAddress",
          "type": "address"
        },
        {
          "name": "_tokenMaturityDays",
          "type": "uint256"
        },
        {
          "name": "_tokenHoldBackDays",
          "type": "uint256"
        },
        {
          "name": "_which",
          "type": "address[]"
        },
        {
          "name": "_amount",
          "type": "uint256[]"
        }
      ],
      "payable": false,
      "stateMutability": "nonpayable",
      "type": "constructor"
    },
    {
      "payable": true,
      "stateMutability": "payable",
      "type": "fallback"
    },
    {
      "anonymous": false,
      "inputs": [
        {
          "indexed": true,
          "name": "_to",
          "type": "address"
        },
        {
          "indexed": false,
          "name": "value",
          "type": "uint256"
        }
      ],
      "name": "Mint",
      "type": "event"
    },
    {
      "anonymous": false,
      "inputs": [
        {
          "indexed": true,
          "name": "from",
          "type": "address"
        },
        {
          "indexed": false,
          "name": "value",
          "type": "uint256"
        }
      ],
      "name": "Burn",
      "type": "event"
    },
    {
      "anonymous": false,
      "inputs": [
        {
          "indexed": true,
          "name": "spender",
          "type": "address"
        },
        {
          "indexed": true,
          "name": "_from",
          "type": "address"
        },
        {
          "indexed": true,
          "name": "_to",
          "type": "address"
        }
      ],
      "name": "TransferFrom",
      "type": "event"
    },
    {
      "anonymous": false,
      "inputs": [
        {
          "indexed": false,
          "name": "ownerType",
          "type": "string"
        },
        {
          "indexed": true,
          "name": "previousOwner",
          "type": "address"
        },
        {
          "indexed": true,
          "name": "newOwner",
          "type": "address"
        }
      ],
      "name": "OwnershipTransferred",
      "type": "event"
    },
    {
      "anonymous": false,
      "inputs": [
        {
          "indexed": true,
          "name": "previousOwner",
          "type": "address"
        },
        {
          "indexed": true,
          "name": "newOwner",
          "type": "address"
        }
      ],
      "name": "AuthorityAddressChnageCall",
      "type": "event"
    },
    {
      "anonymous": false,
      "inputs": [
        {
          "indexed": true,
          "name": "from",
          "type": "address"
        },
        {
          "indexed": true,
          "name": "to",
          "type": "address"
        },
        {
          "indexed": false,
          "name": "value",
          "type": "uint256"
        }
      ],
      "name": "Transfer",
      "type": "event"
    },
    {
      "anonymous": false,
      "inputs": [
        {
          "indexed": true,
          "name": "owner",
          "type": "address"
        },
        {
          "indexed": true,
          "name": "spender",
          "type": "address"
        },
        {
          "indexed": false,
          "name": "value",
          "type": "uint256"
        }
      ],
      "name": "Approval",
      "type": "event"
    },
    {
      "constant": false,
      "inputs": [
        {
          "name": "_to",
          "type": "address"
        },
        {
          "name": "_value",
          "type": "uint256"
        }
      ],
      "name": "transfer",
      "outputs": [
        {
          "name": "ok",
          "type": "bool"
        }
      ],
      "payable": false,
      "stateMutability": "nonpayable",
      "type": "function"
    },
    {
      "constant": false,
      "inputs": [
        {
          "name": "_from",
          "type": "address"
        },
        {
          "name": "_to",
          "type": "address"
        },
        {
          "name": "_value",
          "type": "uint256"
        }
      ],
      "name": "transferFrom",
      "outputs": [
        {
          "name": "",
          "type": "bool"
        }
      ],
      "payable": false,
      "stateMutability": "nonpayable",
      "type": "function"
    },
    {
      "constant": false,
      "inputs": [
        {
          "name": "_which",
          "type": "address"
        },
        {
          "name": "_amount",
          "type": "uint256"
        },
        {
          "name": "_locktime",
          "type": "uint256"
        }
      ],
      "name": "lockToken",
      "outputs": [
        {
          "name": "",
          "type": "bool"
        }
      ],
      "payable": false,
      "stateMutability": "nonpayable",
      "type": "function"
    },
    {
      "constant": false,
      "inputs": [],
      "name": "unlockToken",
      "outputs": [
        {
          "name": "",
          "type": "bool"
        }
      ],
      "payable": false,
      "stateMutability": "nonpayable",
      "type": "function"
    }
  ],
  "bytecode": "0x6080604052600180546001600160a01b0319908116909155600280548216905560038054821690556004805490911690553480156200003d57600080fd5b50604051620029b0380380620029b083398181016040526101208110156200006457600080fd5b8101908080516401000000008111156200007d57600080fd5b820160208101848111156200009157600080fd5b8151640100000000811182820187101715620000ac57600080fd5b50509291906020018051640100000000811115620000c957600080fd5b82016020810184811115620000dd57600080fd5b8151640100000000811182820187101715620000f857600080fd5b5050602082015160408301516060840151608085015160a086015160c09096018051959894979396929591949293916401000000008111156200013a57600080fd5b820160208101848111156200014e57600080fd5b81518560208202830111640100000000821117156200016c57600080fd5b505092919060200180516401000000008111156200018957600080fd5b820160208101848111156200019d57600080fd5b8151856020820283011164010000000082111715620001bb57600080fd5b50509291905050508888888887878a808787878781818160006001600160a01b0316816001600160a01b031614156040518060400160405280601081526020017f4552525f5a45524f5f414444524553530000000000000000000000000000000081525090620002c6576040517f08c379a00000000000000000000000000000000000000000000000000000000081526004018080602001828103825283818151815260200191508051906020019080838360005b838110156200028a57818101518382015260200162000270565b50505050905090810190601f168015620002b85780820380516001836020036101000a031916815260200191505b509250505060405180910390fd5b5060408051808201909152601081527f4552525f53414d455f41444452455353000000000000000000000000000000006020820152336001600160a01b038516141562000370576040517f08c379a00000000000000000000000000000000000000000000000000000000081526020600482018181528351602484015283519092839260449091019190850190808383600083156200028a57818101518382015260200162000270565b50816001600160a01b0316836001600160a01b031614156040518060400160405280601081526020017f4552525f53414d455f41444452455353000000000000000000000000000000008152509062000426576040517f08c379a00000000000000000000000000000000000000000000000000000000081526020600482018181528351602484015283519092839260449091019190850190808383600083156200028a57818101518382015260200162000270565b5060408051808201909152601081527f4552525f53414d455f41444452455353000000000000000000000000000000006020820152336001600160a01b0384161415620004d0576040517f08c379a00000000000000000000000000000000000000000000000000000000081526020600482018181528351602484015283519092839260449091019190850190808383600083156200028a57818101518382015260200162000270565b5050600180546001600160a01b03199081163317909155600380546001600160a01b03948516908316179055600280549290931691161790558351158015906200051b575060008351115b6200052557600080fd5b83516200053a906005906020870190620009e1565b50825162000550906006906020860190620009e1565b505060408051808201909152601081527f4552525f5a45524f5f414444524553530000000000000000000000000000000060208201528493509150506001600160a01b038216620005fe576040517f08c379a00000000000000000000000000000000000000000000000000000000081526020600482018181528351602484015283519092839260449091019190850190808383600083156200028a57818101518382015260200162000270565b5050600980546001600160a01b0319166001600160a01b03929092169190911790555042600a55600b91909155600c55505082518451149150620006a5905057604080517f08c379a000000000000000000000000000000000000000000000000000000000815260206004820152601360248201527f4552525f4e4f545f53414d455f4c454e47544800000000000000000000000000604482015290519081900360640190fd5b6000620006db7f57484954455f4c495354000000000000000000000000000000000000000000006001600160e01b036200084416565b905060005b83518110156200083357816001600160a01b0316636f9170f68583815181106200070657fe5b60200260200101516040518263ffffffff1660e01b815260040180826001600160a01b03166001600160a01b0316815260200191505060206040518083038186803b1580156200075557600080fd5b505afa1580156200076a573d6000803e3d6000fd5b505050506040513d60208110156200078157600080fd5b5051620007ef57604080517f08c379a000000000000000000000000000000000000000000000000000000000815260206004820152601c60248201527f4552525f5452414e534645525f434845434b5f57484954454c49535400000000604482015290519081900360640190fd5b620008298482815181106200080057fe5b60200260200101518483815181106200081557fe5b6020026020010151620008de60201b60201c565b50600101620006e0565b505050505050505050505062000a86565b600954604080517ffa86cf560000000000000000000000000000000000000000000000000000000081526004810184905290516000926001600160a01b03169163fa86cf56916024808301926020929190829003018186803b158015620008aa57600080fd5b505afa158015620008bf573d6000803e3d6000fd5b505050506040513d6020811015620008d657600080fd5b505192915050565b6001600160a01b0382166000908152600760205260408120546200090c90836001600160e01b03620009ca16565b6001600160a01b038416600090815260076020526040812091909155546200093e90836001600160e01b03620009ca16565b6000556040805183815290516001600160a01b038516917f0f6798a560793a54c3bcfe86a93cde1e73087d944c0ea20544137d4121396885919081900360200190a26040805183815290516001600160a01b038516916000917fddf252ad1be2c89b69c2b068fc378daa952ba7f163c4a11628f55a4df523b3ef9181900360200190a350600192915050565b600082820183811015620009da57fe5b9392505050565b828054600181600116156101000203166002900490600052602060002090601f016020900481019282601f1062000a2457805160ff191683800117855562000a54565b8280016001018555821562000a54579182015b8281111562000a5457825182559160200191906001019062000a37565b5062000a6292915062000a66565b5090565b62000a8391905b8082111562000a62576000815560010162000a6d565b90565b611f1a8062000a966000396000f3fe6080604052600436106101cd5760003560e01c8063839972f9116100f7578063a457c2d711610095578063c4d3426811610064578063c4d3426814610635578063d3e848f114610668578063d98d0c7e1461067d578063dd62ed3e14610692576101cd565b8063a457c2d71461057b578063a9059cbb146105b4578063bc1366fe146105ed578063c4b01ebf14610620576101cd565b80638f51368b116100d15780638f51368b146104f457806395d89b41146105275780639668d13e1461053c57806397304ced14610551576101cd565b8063839972f91461048b5780638dcab187146104ca5780638e10be33146104df576101cd565b806320c462fe1161016f5780633c695d4e1161013e5780633c695d4e1461040457806342966c681461041957806353ecc7721461044357806370a0823114610458576101cd565b806320c462fe1461035e57806323b872dd14610373578063313ce567146103b657806339509351146103cb576101cd565b80630abaad7a116101ab5780630abaad7a146102dc57806317ebc35f1461030d57806318160ddd1461032257806318a24b5b14610349576101cd565b806304d63089146101d257806306fdde0314610219578063095ea7b3146102a3575b600080fd5b3480156101de57600080fd5b50610205600480360360208110156101f557600080fd5b50356001600160a01b03166106cd565b604080519115158252519081900360200190f35b34801561022557600080fd5b5061022e6109da565b6040805160208082528351818301528351919283929083019185019080838360005b83811015610268578181015183820152602001610250565b50505050905090810190601f1680156102955780820380516001836020036101000a031916815260200191505b509250505060405180910390f35b3480156102af57600080fd5b50610205600480360360408110156102c657600080fd5b506001600160a01b038135169060200135610a68565b3480156102e857600080fd5b506102f1610aff565b604080516001600160a01b039092168252519081900360200190f35b34801561031957600080fd5b50610205610b0e565b34801561032e57600080fd5b50610337610b62565b60408051918252519081900360200190f35b34801561035557600080fd5b50610205610b68565b34801561036a57600080fd5b50610205610bef565b34801561037f57600080fd5b506102056004803603606081101561039657600080fd5b506001600160a01b03813581169160208101359091169060400135610d04565b3480156103c257600080fd5b50610337610da1565b3480156103d757600080fd5b50610205600480360360408110156103ee57600080fd5b506001600160a01b038135169060200135610da6565b34801561041057600080fd5b506102f1610de6565b34801561042557600080fd5b506102056004803603602081101561043c57600080fd5b5035610df5565b34801561044f57600080fd5b50610337610e01565b34801561046457600080fd5b506103376004803603602081101561047b57600080fd5b50356001600160a01b0316610e07565b34801561049757600080fd5b50610205600480360360608110156104ae57600080fd5b506001600160a01b038135169060208101359060400135610e22565b3480156104d657600080fd5b50610337610f09565b3480156104eb57600080fd5b506102f1610f0f565b34801561050057600080fd5b506102056004803603602081101561051757600080fd5b50356001600160a01b0316610f1e565b34801561053357600080fd5b5061022e6110ff565b34801561054857600080fd5b5061033761115a565b34801561055d57600080fd5b506102056004803603602081101561057457600080fd5b5035611160565b34801561058757600080fd5b506102056004803603604081101561059e57600080fd5b506001600160a01b038135169060200135611204565b3480156105c057600080fd5b50610205600480360360408110156105d757600080fd5b506001600160a01b03813516906020013561127c565b3480156105f957600080fd5b506102056004803603602081101561061057600080fd5b50356001600160a01b0316611318565b34801561062c57600080fd5b5061020561143d565b34801561064157600080fd5b506102056004803603602081101561065857600080fd5b50356001600160a01b031661144f565b34801561067457600080fd5b506102f1611690565b34801561068957600080fd5b506102f161169f565b34801561069e57600080fd5b50610337600480360360408110156106b557600080fd5b506001600160a01b03813581169160200135166116ae565b60025460408051808201909152601b8152600080516020611ec683398151915260208201526000916001600160a01b031633146107885760405162461bcd60e51b81526004018080602001828103825283818151815260200191508051906020019080838360005b8381101561074d578181015183820152602001610735565b50505050905090810190601f16801561077a5780820380516001836020036101000a031916815260200191505b509250505060405180910390fd5b506040805180820190915260198152784552525f434f4e54524143545f53454c465f4144445245535360381b602082015282906001600160a01b0382163014156108135760405162461bcd60e51b815260206004820181815283516024840152835190928392604490910191908501908083836000831561074d578181015183820152602001610735565b5060408051808201909152601081526f4552525f5a45524f5f4144445245535360801b602082015283906001600160a01b0382166108925760405162461bcd60e51b815260206004820181815283516024840152835190928392604490910191908501908083836000831561074d578181015183820152602001610735565b506003546001600160a01b038581169116148015906108bf57506002546001600160a01b03858116911614155b80156108d957506001546001600160a01b03858116911614155b6040518060400160405280601081526020016f4552525f53414d455f4144445245535360801b8152509061094e5760405162461bcd60e51b815260206004820181815283516024840152835190928392604490910191908501908083836000831561074d578181015183820152602001610735565b50600354604080516020808252600e908201526d53595354454d5f4144445245535360901b8183015290516001600160a01b038088169316917f6840904f5b31827f74e1497360da245f56e530c8c3de3163a2d31f11493273c6919081900360600190a3600380546001600160a01b0386166001600160a01b0319909116179055600192505050919050565b6005805460408051602060026001851615610100026000190190941693909304601f81018490048402820184019092528181529291830182828015610a605780601f10610a3557610100808354040283529160200191610a60565b820191906000526020600020905b815481529060010190602001808311610a4357829003601f168201915b505050505081565b60408051808201909152601081526f4552525f5a45524f5f4144445245535360801b602082015260009083906001600160a01b038216610ae95760405162461bcd60e51b815260206004820181815283516024840152835190928392604490910191908501908083836000831561074d578181015183820152602001610735565b50610af53385856116d9565b5060019392505050565b6004546001600160a01b031681565b6000600b5460001415610b2357506000610b5f565b6000610b3462015180600b546117bb565b90506000610b4482600a546117df565b9050804210610b5857600192505050610b5f565b6000925050505b90565b60005481565b336000908152600e60205260408120544290610b8790620151806117df565b11610bd9576040805162461bcd60e51b815260206004820152601a60248201527f4552525f544f4b454e5f554e4c434f4b5f41465445525f444159000000000000604482015290519081900360640190fd5b50336000908152600d6020526040812055600190565b60045460408051808201909152601b8152600080516020611ec683398151915260208201526000916001600160a01b03163314610c6d5760405162461bcd60e51b815260206004820181815283516024840152835190928392604490910191908501908083836000831561074d578181015183820152602001610735565b5060045460025460408051602080825260119082015270415554484f524954595f4144445245535360781b8183015290516001600160a01b039384169392909216917f6840904f5b31827f74e1497360da245f56e530c8c3de3163a2d31f11493273c69181900360600190a35060048054600280546001600160a01b03199081166001600160a01b03841617909155169055600190565b33600090815260076020908152604080832054600d9092528220548291610d2a916117ee565b905082811015610d7a576040805162461bcd60e51b81526020600482015260166024820152754552525f4e4f545f454e4f5547485f42414c414e434560501b604482015290519081900360640190fd5b610d848585611800565b610d8d57600080fd5b610d98858585611902565b95945050505050565b601281565b3360008181526008602090815260408083206001600160a01b03871684529091528120549091610af59085610ddb84876117df565b6116d9565b92915050565b6002546001600160a01b031681565b6000610de03383611b23565b600b5481565b6001600160a01b031660009081526007602052604090205490565b6000610e376620aaa1aa24a7a760c91b611c4a565b6001600160a01b0316336001600160a01b0316146040518060400160405280601b8152602001600080516020611ec683398151915281525090610ebb5760405162461bcd60e51b815260206004820181815283516024840152835190928392604490910191908501908083836000831561074d578181015183820152602001610735565b506001600160a01b0384166000908152600e6020526040902054821115610af557506001600160a01b03929092166000908152600d6020908152604080832093909355600e90522055600190565b600a5481565b6001546001600160a01b031681565b60025460408051808201909152601b8152600080516020611ec683398151915260208201526000916001600160a01b03163314610f9c5760405162461bcd60e51b815260206004820181815283516024840152835190928392604490910191908501908083836000831561074d578181015183820152602001610735565b5060408051808201909152601081526f4552525f5a45524f5f4144445245535360801b602082015282906001600160a01b03821661101b5760405162461bcd60e51b815260206004820181815283516024840152835190928392604490910191908501908083836000831561074d578181015183820152602001610735565b506003546001600160a01b0384811691161480159061104857506002546001600160a01b03848116911614155b801561106257506001546001600160a01b03848116911614155b6040518060400160405280601081526020016f4552525f53414d455f4144445245535360801b815250906110d75760405162461bcd60e51b815260206004820181815283516024840152835190928392604490910191908501908083836000831561074d578181015183820152602001610735565b50600480546001600160a01b0385166001600160a01b03199091161790556001915050919050565b6006805460408051602060026001851615610100026000190190941693909304601f81018490048402820184019092528181529291830182828015610a605780601f10610a3557610100808354040283529160200191610a60565b600c5481565b6000806111766620aaa1aa24a7a760c91b611c4a565b60408051808201909152601b8152600080516020611ec68339815191526020820152909150336001600160a01b038316146111f25760405162461bcd60e51b815260206004820181815283516024840152835190928392604490910191908501908083836000831561074d578181015183820152602001610735565b506111fd3384611cc8565b9392505050565b3360009081526008602090815260408083206001600160a01b03861684529091528120548281101561126d576040805162461bcd60e51b815260206004820152600d60248201526c4552525f414c4c4f57454e434560981b604482015290519081900360640190fd5b610af53385610ddb84876117ee565b33600090815260076020908152604080832054600d90925282205482916112a2916117ee565b9050828110156112f2576040805162461bcd60e51b81526020600482015260166024820152754552525f4e4f545f454e4f5547485f42414c414e434560501b604482015290519081900360640190fd5b6112fc3385611800565b61130557600080fd5b611310338585611d9e565b949350505050565b60025460408051808201909152601b8152600080516020611ec683398151915260208201526000916001600160a01b031633146113965760405162461bcd60e51b815260206004820181815283516024840152835190928392604490910191908501908083836000831561074d578181015183820152602001610735565b5060408051808201909152601081526f4552525f5a45524f5f4144445245535360801b602082015282906001600160a01b0382166114155760405162461bcd60e51b815260206004820181815283516024840152835190928392604490910191908501908083836000831561074d578181015183820152602001610735565b50600980546001600160a01b0385166001600160a01b03199091161790556001915050919050565b600080610b3462015180600c546117bb565b60025460408051808201909152601b8152600080516020611ec683398151915260208201526000916001600160a01b031633146114cd5760405162461bcd60e51b815260206004820181815283516024840152835190928392604490910191908501908083836000831561074d578181015183820152602001610735565b5060408051808201909152601081526f4552525f5a45524f5f4144445245535360801b602082015282906001600160a01b03821661154c5760405162461bcd60e51b815260206004820181815283516024840152835190928392604490910191908501908083836000831561074d578181015183820152602001610735565b506003546001600160a01b0384811691161480159061157957506002546001600160a01b03848116911614155b801561159357506001546001600160a01b03848116911614155b6040518060400160405280601081526020016f4552525f53414d455f4144445245535360801b815250906116085760405162461bcd60e51b815260206004820181815283516024840152835190928392604490910191908501908083836000831561074d578181015183820152602001610735565b50600154604080516020808252600d908201526c282924a6a0a92cafa7aba722a960991b8183015290516001600160a01b038087169316917f6840904f5b31827f74e1497360da245f56e530c8c3de3163a2d31f11493273c6919081900360600190a3600180546001600160a01b0385166001600160a01b0319909116178155915050919050565b6003546001600160a01b031681565b6009546001600160a01b031681565b6001600160a01b03918216600090815260086020908152604080832093909416825291909152205490565b60408051808201909152601081526f4552525f5a45524f5f4144445245535360801b602082015282906001600160a01b0382166117575760405162461bcd60e51b815260206004820181815283516024840152835190928392604490910191908501908083836000831561074d578181015183820152602001610735565b506001600160a01b03808516600081815260086020908152604080832094881680845294825291829020869055815186815291517f8c5be1e5ebec7d5bd14f71427d1e84f3dd0314c0f7b2291e5b200ac8c7c3b9259281900390910190a350505050565b6000826117ca57506000610de0565b828202828482816117d757fe5b04146111fd57fe5b6000828201838110156111fd57fe5b6000828211156117fa57fe5b50900390565b6000806118196915d212551157d31254d560b21b611c4a565b9050611831690534d4152545f535741560b41b611c4a565b6001600160a01b0316836001600160a01b031614610af5576040805163317f3d4f60e21b81526001600160a01b038681166004830152858116602483015291519183169163c5fcf53c91604480820192602092909190829003018186803b15801561189b57600080fd5b505afa1580156118af573d6000803e3d6000fd5b505050506040513d60208110156118c557600080fd5b5051610af55760405162461bcd60e51b8152600401808060200182810382526023815260200180611ea36023913960400191505060405180910390fd5b6040805180820190915260198152784552525f434f4e54524143545f53454c465f4144445245535360381b602082015260009083906001600160a01b03821630141561198f5760405162461bcd60e51b815260206004820181815283516024840152835190928392604490910191908501908083836000831561074d578181015183820152602001610735565b5060408051808201909152601081526f4552525f5a45524f5f4144445245535360801b602082015284906001600160a01b038216611a0e5760405162461bcd60e51b815260206004820181815283516024840152835190928392604490910191908501908083836000831561074d578181015183820152602001610735565b506001600160a01b0386166000908152600860209081526040808320338452909152902054841115611a80576040805162461bcd60e51b81526020600482015260166024820152754552525f4e4f545f454e4f5547485f42414c414e434560501b604482015290519081900360640190fd5b611a8b868686611d9e565b611a9457600080fd5b6001600160a01b0386166000908152600860209081526040808320338452909152902054611ac290856117ee565b6001600160a01b0380881660008181526008602090815260408083203380855292528083209590955593519289169391927f7d5ad68155582ceeebcef916386e9f0eb9f7a2dce10a880ced4d0d5d782317949190a450600195945050505050565b6001600160a01b03821660009081526007602052604081205482811015611b8a576040805162461bcd60e51b81526020600482015260166024820152754552525f4e4f545f454e4f5547485f42414c414e434560501b604482015290519081900360640190fd5b611b9481846117ee565b6001600160a01b038516600090815260076020526040812082905554909150611bbd90846117ee565b6000556040805184815290516001600160a01b038616917fcc16f5dbb4873280815c1ee09dbd06736cffcc184412cf7a71a0fdb75d397ca5919081900360200190a26040805184815290516000916001600160a01b038716917fddf252ad1be2c89b69c2b068fc378daa952ba7f163c4a11628f55a4df523b3ef9181900360200190a35060019392505050565b60095460408051637d4367ab60e11b81526004810184905290516000926001600160a01b03169163fa86cf56916024808301926020929190829003018186803b158015611c9657600080fd5b505afa158015611caa573d6000803e3d6000fd5b505050506040513d6020811015611cc057600080fd5b505192915050565b6001600160a01b038216600090815260076020526040812054611ceb90836117df565b6001600160a01b03841660009081526007602052604081209190915554611d1290836117df565b6000556040805183815290516001600160a01b038516917f0f6798a560793a54c3bcfe86a93cde1e73087d944c0ea20544137d4121396885919081900360200190a26040805183815290516001600160a01b038516916000917fddf252ad1be2c89b69c2b068fc378daa952ba7f163c4a11628f55a4df523b3ef9181900360200190a350600192915050565b6001600160a01b03831660009081526007602052604081205482811015611e05576040805162461bcd60e51b81526020600482015260166024820152754552525f4e4f545f454e4f5547485f42414c414e434560501b604482015290519081900360640190fd5b611e0f81846117ee565b6001600160a01b0380871660009081526007602052604080822084905591871681522054909150611e4090846117df565b6001600160a01b0380861660008181526007602090815260409182902094909455805187815290519193928916927fddf252ad1be2c89b69c2b068fc378daa952ba7f163c4a11628f55a4df523b3ef92918290030190a350600194935050505056fe4552525f4e4f545f484156455f5045524d495353494f4e5f544f5f5452414e534645524552525f415554484f52495a45445f414444524553535f4f4e4c590000000000a265627a7a72305820e7accd1f18a3c06168a3fa738fb5ac515416de03db6335b409115bb0c193d9f264736f6c63430005090032",
  "source": "pragma solidity ^0.5.9;\n\nimport \"../InterFaces/IWhiteList.sol\";\nimport \"./TokenUtils.sol\";\n\n\ncontract TokenMinter is TokenUtils {\n    modifier onlyAuthorizedAddress() {\n        address auctionAddress = getAddressOf(AUCTION);\n        require(msg.sender == auctionAddress, ERR_AUTHORIZED_ADDRESS_ONLY);\n        _;\n    }\n\n    function mintTokens(uint256 _amount)\n        external\n        onlyAuthorizedAddress()\n        returns (bool)\n    {\n        return _mint(msg.sender, _amount);\n    }\n}\n\n\ncontract MainToken is TokenMinter {\n    mapping(address => uint256) lockedToken;\n    mapping(address => uint256) lastLock;\n\n    constructor(\n        string memory _name,\n        string memory _symbol,\n        address _systemAddress,\n        address _authorityAddress,\n        address _registeryAddress,\n        uint256 _tokenMaturityDays,\n        uint256 _tokenHoldBackDays,\n        address[] memory _which,\n        uint256[] memory _amount\n    )\n        public\n        TokenUtils(\n            _name,\n            _symbol,\n            _systemAddress,\n            _authorityAddress,\n            _tokenMaturityDays,\n            _tokenHoldBackDays,\n            _registeryAddress\n        )\n    {\n        require(_which.length == _amount.length, \"ERR_NOT_SAME_LENGTH\");\n\n        address whiteListAddress = getAddressOf(WHITE_LIST);\n\n        for (uint256 tempX = 0; tempX < _which.length; tempX++) {\n            require(\n                IWhiteList(whiteListAddress).isWhiteListed(_which[tempX]),\n                \"ERR_TRANSFER_CHECK_WHITELIST\"\n            );\n            _mint(_which[tempX], _amount[tempX]);\n        }\n    }\n\n    function checkBeforeTransfer(address _from, address _to)\n        internal\n        view\n        returns (bool)\n    {\n        address whiteListAddress = getAddressOf(WHITE_LIST);\n\n        if (_to != getAddressOf(SMART_SWAP)) {\n            require(\n                IWhiteList(whiteListAddress).main_isTransferAllowed(_from, _to),\n                \"ERR_NOT_HAVE_PERMISSION_TO_TRANSFER\"\n            );\n        }\n        return true;\n    }\n\n    function transfer(address _to, uint256 _value) external returns (bool ok) {\n        uint256 senderBalance = safeSub(\n            balances[msg.sender],\n            lockedToken[msg.sender]\n        );\n        require(senderBalance >= _value, \"ERR_NOT_ENOUGH_BALANCE\");\n        require(checkBeforeTransfer(msg.sender, _to));\n        return _transfer(msg.sender, _to, _value);\n    }\n\n    function transferFrom(\n        address _from,\n        address _to,\n        uint256 _value\n    ) external returns (bool) {\n        uint256 senderBalance = safeSub(\n            balances[msg.sender],\n            lockedToken[msg.sender]\n        );\n        require(senderBalance >= _value, \"ERR_NOT_ENOUGH_BALANCE\");\n        require(checkBeforeTransfer(_from, _to));\n        return _transferFrom(_from, _to, _value);\n    }\n\n    // we need lock time\n    // becuse we can check if user invest after new auction start\n    // if user invest before token distrubution we dont change anything\n    // ex ->user invest  at 11:35 and token distrubution happened at 11:40\n    // if in between user invest we dont unlock user token we keep as it as\n    // to unlock token set _amount = 0\n    function lockToken(\n        address _which,\n        uint256 _amount,\n        uint256 _locktime\n    ) external returns (bool) {\n        require(\n            msg.sender == getAddressOf(AUCTION),\n            ERR_AUTHORIZED_ADDRESS_ONLY\n        );\n        if (_locktime > lastLock[_which]) {\n            lockedToken[_which] = _amount;\n            lastLock[_which] = _locktime;\n        }\n        return true;\n    }\n\n    // user can unlock their token after 1 day of locking\n    // user dont need to call this function as conatcrt set 0 after token distrubution\n    // It is failsafe function for user that their token not locked all the time if AUCTION distrubution dont happened\n    function unlockToken() external returns (bool) {\n        require(\n            safeAdd(lastLock[msg.sender], 86400) > now,\n            \"ERR_TOKEN_UNLCOK_AFTER_DAY\"\n        );\n        lockedToken[msg.sender] = 0;\n        return true;\n    }\n\n    function() external payable {\n        revert();\n    }\n}\n",
  "sourcePath": "/home/safu/minddeft/jointerInc/jointer-token/contracts/Tokens/MainToken.sol",
  "compiler": {
    "name": "solc",
    "version": "0.5.9+commit.e560f70d.Emscripten.clang"
  },
  "schemaVersion": "3.1.0",
  "updatedAt": "2020-05-22T13:05:28.612Z",
  "devdoc": {
    "methods": {
      "allowance(address,address)": {
        "details": "to check allowed token for transferFrom",
        "params": {
          "_owner": "The address of the account owning tokens",
          "_spender": "The address of the account able to transfer the tokens"
        },
        "return": "Amount of remaining tokens allowed to spent"
      },
      "approve(address,uint256)": {
        "details": "`msg.sender` approves `spender` to spend `value` tokens",
        "params": {
          "_spender": "The address of the account able to transfer the tokens",
          "_value": "The amount of wei to be approved for transfer"
        },
        "return": "Whether the approval was successful or not"
      },
      "balanceOf(address)": {
        "details": "Gets the balance of the specified address.",
        "params": {
          "_who": "The address to query the the balance of."
        },
        "return": "An uint256 representing the amount owned by the passed address."
      },
      "burn(uint256)": {
        "details": "burn token from this address",
        "params": {
          "_value": "uint256 the amount of tokens to be burned"
        }
      },
      "changeAuthorityAddress(address)": {
        "details": "change system address",
        "params": {
          "_which": "The address to which is new Authority address"
        }
      },
      "changePrimaryOwner(address)": {
        "details": "change primary ownership",
        "params": {
          "_which": "The address to which is new owner address"
        }
      },
      "changeSystemAddress(address)": {
        "details": "change system address",
        "params": {
          "_which": "The address to which is new system address"
        }
      },
      "decreaseAllowance(address,uint256)": {
        "details": "`msg.sender` approves `spender` to decrease spend `value` tokens",
        "params": {
          "_spender": "The address of the account able to transfer the tokens",
          "_value": "The amount of wei to be approved for transfer"
        },
        "return": "Whether the approval was successful or not"
      },
      "increaseAllowance(address,uint256)": {
        "details": "`msg.sender` approves `spender` to increase spend `value` tokens",
        "params": {
          "_spender": "The address of the account able to transfer the tokens",
          "_value": "The amount of wei to be approved for transfer"
        },
        "return": "Whether the approval was successful or not"
      }
    }
  },
  "userdoc": {
    "methods": {}
  }
}