{
  "contractName": "MainToken",
  "abi": [
    {
      "constant": false,
      "inputs": [
        {
          "name": "_which",
          "type": "address"
        }
      ],
      "name": "changeSystemAddress",
      "outputs": [
        {
          "name": "",
          "type": "bool"
        }
      ],
      "payable": false,
      "stateMutability": "nonpayable",
      "type": "function"
    },
    {
      "constant": true,
      "inputs": [],
      "name": "name",
      "outputs": [
        {
          "name": "",
          "type": "string"
        }
      ],
      "payable": false,
      "stateMutability": "view",
      "type": "function"
    },
    {
      "constant": false,
      "inputs": [
        {
          "name": "_spender",
          "type": "address"
        },
        {
          "name": "_value",
          "type": "uint256"
        }
      ],
      "name": "approve",
      "outputs": [
        {
          "name": "ok",
          "type": "bool"
        }
      ],
      "payable": false,
      "stateMutability": "nonpayable",
      "type": "function"
    },
    {
      "constant": true,
      "inputs": [],
      "name": "newAuthorityAddress",
      "outputs": [
        {
          "name": "",
          "type": "address"
        }
      ],
      "payable": false,
      "stateMutability": "view",
      "type": "function"
    },
    {
      "constant": true,
      "inputs": [],
      "name": "isTokenMature",
      "outputs": [
        {
          "name": "",
          "type": "bool"
        }
      ],
      "payable": false,
      "stateMutability": "view",
      "type": "function"
    },
    {
      "constant": true,
      "inputs": [],
      "name": "totalSupply",
      "outputs": [
        {
          "name": "",
          "type": "uint256"
        }
      ],
      "payable": false,
      "stateMutability": "view",
      "type": "function"
    },
    {
      "constant": false,
      "inputs": [],
      "name": "acceptAuthorityAddress",
      "outputs": [
        {
          "name": "",
          "type": "bool"
        }
      ],
      "payable": false,
      "stateMutability": "nonpayable",
      "type": "function"
    },
    {
      "constant": false,
      "inputs": [
        {
          "name": "_from",
          "type": "address"
        },
        {
          "name": "_to",
          "type": "address"
        },
        {
          "name": "_value",
          "type": "uint256"
        }
      ],
      "name": "transferFrom",
      "outputs": [
        {
          "name": "",
          "type": "bool"
        }
      ],
      "payable": false,
      "stateMutability": "nonpayable",
      "type": "function"
    },
    {
      "constant": true,
      "inputs": [],
      "name": "decimals",
      "outputs": [
        {
          "name": "",
          "type": "uint256"
        }
      ],
      "payable": false,
      "stateMutability": "view",
      "type": "function"
    },
    {
      "constant": false,
      "inputs": [
        {
          "name": "_spender",
          "type": "address"
        },
        {
          "name": "_value",
          "type": "uint256"
        }
      ],
      "name": "increaseAllowance",
      "outputs": [
        {
          "name": "",
          "type": "bool"
        }
      ],
      "payable": false,
      "stateMutability": "nonpayable",
      "type": "function"
    },
    {
      "constant": true,
      "inputs": [],
      "name": "authorityAddress",
      "outputs": [
        {
          "name": "",
          "type": "address"
        }
      ],
      "payable": false,
      "stateMutability": "view",
      "type": "function"
    },
    {
      "constant": false,
      "inputs": [
        {
          "name": "_value",
          "type": "uint256"
        }
      ],
      "name": "burn",
      "outputs": [
        {
          "name": "",
          "type": "bool"
        }
      ],
      "payable": false,
      "stateMutability": "nonpayable",
      "type": "function"
    },
    {
      "constant": true,
      "inputs": [],
      "name": "tokenMaturityDays",
      "outputs": [
        {
          "name": "",
          "type": "uint256"
        }
      ],
      "payable": false,
      "stateMutability": "view",
      "type": "function"
    },
    {
      "constant": true,
      "inputs": [
        {
          "name": "_who",
          "type": "address"
        }
      ],
      "name": "balanceOf",
      "outputs": [
        {
          "name": "balance",
          "type": "uint256"
        }
      ],
      "payable": false,
      "stateMutability": "view",
      "type": "function"
    },
    {
      "constant": true,
      "inputs": [],
      "name": "tokenPrice",
      "outputs": [
        {
          "name": "",
          "type": "uint256"
        }
      ],
      "payable": false,
      "stateMutability": "view",
      "type": "function"
    },
    {
      "constant": true,
      "inputs": [],
      "name": "tokenSaleStartDate",
      "outputs": [
        {
          "name": "",
          "type": "uint256"
        }
      ],
      "payable": false,
      "stateMutability": "view",
      "type": "function"
    },
    {
      "constant": true,
      "inputs": [],
      "name": "primaryOwner",
      "outputs": [
        {
          "name": "",
          "type": "address"
        }
      ],
      "payable": false,
      "stateMutability": "view",
      "type": "function"
    },
    {
      "constant": false,
      "inputs": [
        {
          "name": "_which",
          "type": "address"
        }
      ],
      "name": "changeAuthorityAddress",
      "outputs": [
        {
          "name": "",
          "type": "bool"
        }
      ],
      "payable": false,
      "stateMutability": "nonpayable",
      "type": "function"
    },
    {
      "constant": true,
      "inputs": [],
      "name": "symbol",
      "outputs": [
        {
          "name": "",
          "type": "string"
        }
      ],
      "payable": false,
      "stateMutability": "view",
      "type": "function"
    },
    {
      "constant": true,
      "inputs": [],
      "name": "tokenHoldBackDays",
      "outputs": [
        {
          "name": "",
          "type": "uint256"
        }
      ],
      "payable": false,
      "stateMutability": "view",
      "type": "function"
    },
    {
      "constant": false,
      "inputs": [
        {
          "name": "_amount",
          "type": "uint256"
        }
      ],
      "name": "mintTokens",
      "outputs": [
        {
          "name": "",
          "type": "bool"
        }
      ],
      "payable": false,
      "stateMutability": "nonpayable",
      "type": "function"
    },
    {
      "constant": false,
      "inputs": [
        {
          "name": "_spender",
          "type": "address"
        },
        {
          "name": "_value",
          "type": "uint256"
        }
      ],
      "name": "decreaseAllowance",
      "outputs": [
        {
          "name": "",
          "type": "bool"
        }
      ],
      "payable": false,
      "stateMutability": "nonpayable",
      "type": "function"
    },
    {
      "constant": false,
      "inputs": [
        {
          "name": "_to",
          "type": "address"
        },
        {
          "name": "_value",
          "type": "uint256"
        }
      ],
      "name": "transfer",
      "outputs": [
        {
          "name": "ok",
          "type": "bool"
        }
      ],
      "payable": false,
      "stateMutability": "nonpayable",
      "type": "function"
    },
    {
      "constant": false,
      "inputs": [
        {
          "name": "_address",
          "type": "address"
        }
      ],
      "name": "updateRegistery",
      "outputs": [
        {
          "name": "",
          "type": "bool"
        }
      ],
      "payable": false,
      "stateMutability": "nonpayable",
      "type": "function"
    },
    {
      "constant": true,
      "inputs": [],
      "name": "isHoldbackDaysOver",
      "outputs": [
        {
          "name": "",
          "type": "bool"
        }
      ],
      "payable": false,
      "stateMutability": "view",
      "type": "function"
    },
    {
      "constant": false,
      "inputs": [
        {
          "name": "_which",
          "type": "address"
        }
      ],
      "name": "changePrimaryOwner",
      "outputs": [
        {
          "name": "",
          "type": "bool"
        }
      ],
      "payable": false,
      "stateMutability": "nonpayable",
      "type": "function"
    },
    {
      "constant": true,
      "inputs": [],
      "name": "systemAddress",
      "outputs": [
        {
          "name": "",
          "type": "address"
        }
      ],
      "payable": false,
      "stateMutability": "view",
      "type": "function"
    },
    {
      "constant": true,
      "inputs": [],
      "name": "contractsRegistry",
      "outputs": [
        {
          "name": "",
          "type": "address"
        }
      ],
      "payable": false,
      "stateMutability": "view",
      "type": "function"
    },
    {
      "constant": true,
      "inputs": [
        {
          "name": "_owner",
          "type": "address"
        },
        {
          "name": "_spender",
          "type": "address"
        }
      ],
      "name": "allowance",
      "outputs": [
        {
          "name": "",
          "type": "uint256"
        }
      ],
      "payable": false,
      "stateMutability": "view",
      "type": "function"
    },
    {
      "inputs": [
        {
          "name": "_name",
          "type": "string"
        },
        {
          "name": "_symbol",
          "type": "string"
        },
        {
          "name": "_systemAddress",
          "type": "address"
        },
        {
          "name": "_authorityAddress",
          "type": "address"
        },
        {
          "name": "_registeryAddress",
          "type": "address"
        },
        {
          "name": "_tokenPrice",
          "type": "uint256"
        },
        {
          "name": "_tokenMaturityDays",
          "type": "uint256"
        },
        {
          "name": "_tokenHoldBackDays",
          "type": "uint256"
        },
        {
          "name": "_which",
          "type": "address[]"
        },
        {
          "name": "_amount",
          "type": "uint256[]"
        }
      ],
      "payable": false,
      "stateMutability": "nonpayable",
      "type": "constructor"
    },
    {
      "payable": true,
      "stateMutability": "payable",
      "type": "fallback"
    },
    {
      "anonymous": false,
      "inputs": [
        {
          "indexed": true,
          "name": "_to",
          "type": "address"
        },
        {
          "indexed": false,
          "name": "value",
          "type": "uint256"
        }
      ],
      "name": "Mint",
      "type": "event"
    },
    {
      "anonymous": false,
      "inputs": [
        {
          "indexed": true,
          "name": "from",
          "type": "address"
        },
        {
          "indexed": false,
          "name": "value",
          "type": "uint256"
        }
      ],
      "name": "Burn",
      "type": "event"
    },
    {
      "anonymous": false,
      "inputs": [
        {
          "indexed": true,
          "name": "spender",
          "type": "address"
        },
        {
          "indexed": true,
          "name": "_from",
          "type": "address"
        },
        {
          "indexed": true,
          "name": "_to",
          "type": "address"
        }
      ],
      "name": "TransferFrom",
      "type": "event"
    },
    {
      "anonymous": false,
      "inputs": [
        {
          "indexed": false,
          "name": "ownerType",
          "type": "string"
        },
        {
          "indexed": true,
          "name": "previousOwner",
          "type": "address"
        },
        {
          "indexed": true,
          "name": "newOwner",
          "type": "address"
        }
      ],
      "name": "OwnershipTransferred",
      "type": "event"
    },
    {
      "anonymous": false,
      "inputs": [
        {
          "indexed": true,
          "name": "previousOwner",
          "type": "address"
        },
        {
          "indexed": true,
          "name": "newOwner",
          "type": "address"
        }
      ],
      "name": "AuthorityAddressChnageCall",
      "type": "event"
    },
    {
      "anonymous": false,
      "inputs": [
        {
          "indexed": true,
          "name": "from",
          "type": "address"
        },
        {
          "indexed": true,
          "name": "to",
          "type": "address"
        },
        {
          "indexed": false,
          "name": "value",
          "type": "uint256"
        }
      ],
      "name": "Transfer",
      "type": "event"
    },
    {
      "anonymous": false,
      "inputs": [
        {
          "indexed": true,
          "name": "owner",
          "type": "address"
        },
        {
          "indexed": true,
          "name": "spender",
          "type": "address"
        },
        {
          "indexed": false,
          "name": "value",
          "type": "uint256"
        }
      ],
      "name": "Approval",
      "type": "event"
    }
  ],
  "bytecode": "0x6080604052600180546001600160a01b0319908116909155600280548216905560038054821690556004805490911690553480156200003d57600080fd5b50604051620028583803806200285883398181016040526101408110156200006457600080fd5b8101908080516401000000008111156200007d57600080fd5b820160208101848111156200009157600080fd5b8151640100000000811182820187101715620000ac57600080fd5b50509291906020018051640100000000811115620000c957600080fd5b82016020810184811115620000dd57600080fd5b8151640100000000811182820187101715620000f857600080fd5b5050602082015160408301516060840151608085015160a086015160c087015160e0909701805196999598949793969295919491926401000000008111156200014057600080fd5b820160208101848111156200015457600080fd5b81518560208202830111640100000000821117156200017257600080fd5b505092919060200180516401000000008111156200018f57600080fd5b82016020810184811115620001a357600080fd5b8151856020820283011164010000000082111715620001c157600080fd5b5050929190505050898989898888888c808888888881818160006001600160a01b0316816001600160a01b031614156040518060400160405280601081526020017f4552525f5a45524f5f414444524553530000000000000000000000000000000081525090620002cd576040517f08c379a00000000000000000000000000000000000000000000000000000000081526004018080602001828103825283818151815260200191508051906020019080838360005b838110156200029157818101518382015260200162000277565b50505050905090810190601f168015620002bf5780820380516001836020036101000a031916815260200191505b509250505060405180910390fd5b5060408051808201909152601081527f4552525f53414d455f41444452455353000000000000000000000000000000006020820152336001600160a01b038516141562000377576040517f08c379a00000000000000000000000000000000000000000000000000000000081526020600482018181528351602484015283519092839260449091019190850190808383600083156200029157818101518382015260200162000277565b50816001600160a01b0316836001600160a01b031614156040518060400160405280601081526020017f4552525f53414d455f4144445245535300000000000000000000000000000000815250906200042d576040517f08c379a00000000000000000000000000000000000000000000000000000000081526020600482018181528351602484015283519092839260449091019190850190808383600083156200029157818101518382015260200162000277565b5060408051808201909152601081527f4552525f53414d455f41444452455353000000000000000000000000000000006020820152336001600160a01b0384161415620004d7576040517f08c379a00000000000000000000000000000000000000000000000000000000081526020600482018181528351602484015283519092839260449091019190850190808383600083156200029157818101518382015260200162000277565b5050600180546001600160a01b03199081163317909155600380546001600160a01b039485169083161790556002805492909316911617905583511580159062000522575060008351115b6200052c57600080fd5b83516200054190600590602087019062000a8d565b5082516200055790600690602086019062000a8d565b505060408051808201909152601081527f4552525f5a45524f5f414444524553530000000000000000000000000000000060208201528493509150506001600160a01b03821662000605576040517f08c379a00000000000000000000000000000000000000000000000000000000081526020600482018181528351602484015283519092839260449091019190850190808383600083156200029157818101518382015260200162000277565b5050600980546001600160a01b0319166001600160a01b039290921691909117905560408051808201909152601181527f4552525f56414c55455f49535f5a45524f0000000000000000000000000000006020820152849081620006c6576040517f08c379a00000000000000000000000000000000000000000000000000000000081526020600482018181528351602484015283519092839260449091019190850190808383600083156200029157818101518382015260200162000277565b505042600b5550600a92909255600c55600d5550508251845114915062000750905057604080517f08c379a000000000000000000000000000000000000000000000000000000000815260206004820152601360248201527f4552525f4e4f545f53414d455f4c454e47544800000000000000000000000000604482015290519081900360640190fd5b6000620007867f57484954455f4c495354000000000000000000000000000000000000000000006001600160e01b03620008f016565b905060005b8351811015620008de57816001600160a01b0316636f9170f6858381518110620007b157fe5b60200260200101516040518263ffffffff1660e01b815260040180826001600160a01b03166001600160a01b0316815260200191505060206040518083038186803b1580156200080057600080fd5b505afa15801562000815573d6000803e3d6000fd5b505050506040513d60208110156200082c57600080fd5b50516200089a57604080517f08c379a000000000000000000000000000000000000000000000000000000000815260206004820152601c60248201527f4552525f5452414e534645525f434845434b5f57484954454c49535400000000604482015290519081900360640190fd5b620008d4848281518110620008ab57fe5b6020026020010151848381518110620008c057fe5b60200260200101516200098a60201b60201c565b506001016200078b565b50505050505050505050505062000b32565b600954604080517ffa86cf560000000000000000000000000000000000000000000000000000000081526004810184905290516000926001600160a01b03169163fa86cf56916024808301926020929190829003018186803b1580156200095657600080fd5b505afa1580156200096b573d6000803e3d6000fd5b505050506040513d60208110156200098257600080fd5b505192915050565b6001600160a01b038216600090815260076020526040812054620009b890836001600160e01b0362000a7616565b6001600160a01b03841660009081526007602052604081209190915554620009ea90836001600160e01b0362000a7616565b6000556040805183815290516001600160a01b038516917f0f6798a560793a54c3bcfe86a93cde1e73087d944c0ea20544137d4121396885919081900360200190a26040805183815290516001600160a01b038516916000917fddf252ad1be2c89b69c2b068fc378daa952ba7f163c4a11628f55a4df523b3ef9181900360200190a350600192915050565b60008282018381101562000a8657fe5b9392505050565b828054600181600116156101000203166002900490600052602060002090601f016020900481019282601f1062000ad057805160ff191683800117855562000b00565b8280016001018555821562000b00579182015b8281111562000b0057825182559160200191906001019062000ae3565b5062000b0e92915062000b12565b5090565b62000b2f91905b8082111562000b0e576000815560010162000b19565b90565b611d168062000b426000396000f3fe6080604052600436106101c25760003560e01c80637ff9b596116100f7578063a457c2d711610095578063c4d3426811610064578063c4d34268146105eb578063d3e848f11461061e578063d98d0c7e14610633578063dd62ed3e14610648576101c2565b8063a457c2d714610531578063a9059cbb1461056a578063bc1366fe146105a3578063c4b01ebf146105d6576101c2565b80638f51368b116100d15780638f51368b146104aa57806395d89b41146104dd5780639668d13e146104f257806397304ced14610507576101c2565b80637ff9b5961461046b5780638dcab187146104805780638e10be3314610495576101c2565b806323b872dd116101645780633c695d4e1161013e5780633c695d4e146103e457806342966c68146103f957806353ecc7721461042357806370a0823114610438576101c2565b806323b872dd14610353578063313ce5671461039657806339509351146103ab576101c2565b80630abaad7a116101a05780630abaad7a146102d157806317ebc35f1461030257806318160ddd1461031757806320c462fe1461033e576101c2565b806304d63089146101c757806306fdde031461020e578063095ea7b314610298575b600080fd5b3480156101d357600080fd5b506101fa600480360360208110156101ea57600080fd5b50356001600160a01b0316610683565b604080519115158252519081900360200190f35b34801561021a57600080fd5b50610223610990565b6040805160208082528351818301528351919283929083019185019080838360005b8381101561025d578181015183820152602001610245565b50505050905090810190601f16801561028a5780820380516001836020036101000a031916815260200191505b509250505060405180910390f35b3480156102a457600080fd5b506101fa600480360360408110156102bb57600080fd5b506001600160a01b038135169060200135610a1e565b3480156102dd57600080fd5b506102e6610ab5565b604080516001600160a01b039092168252519081900360200190f35b34801561030e57600080fd5b506101fa610ac4565b34801561032357600080fd5b5061032c610b18565b60408051918252519081900360200190f35b34801561034a57600080fd5b506101fa610b1e565b34801561035f57600080fd5b506101fa6004803603606081101561037657600080fd5b506001600160a01b03813581169160208101359091169060400135610c33565b3480156103a257600080fd5b5061032c610c5b565b3480156103b757600080fd5b506101fa600480360360408110156103ce57600080fd5b506001600160a01b038135169060200135610c60565b3480156103f057600080fd5b506102e6610ca0565b34801561040557600080fd5b506101fa6004803603602081101561041c57600080fd5b5035610caf565b34801561042f57600080fd5b5061032c610cbb565b34801561044457600080fd5b5061032c6004803603602081101561045b57600080fd5b50356001600160a01b0316610cc1565b34801561047757600080fd5b5061032c610cdc565b34801561048c57600080fd5b5061032c610ce2565b3480156104a157600080fd5b506102e6610ce8565b3480156104b657600080fd5b506101fa600480360360208110156104cd57600080fd5b50356001600160a01b0316610cf7565b3480156104e957600080fd5b50610223610ed8565b3480156104fe57600080fd5b5061032c610f33565b34801561051357600080fd5b506101fa6004803603602081101561052a57600080fd5b5035610f39565b34801561053d57600080fd5b506101fa6004803603604081101561055457600080fd5b506001600160a01b038135169060200135610fdd565b34801561057657600080fd5b506101fa6004803603604081101561058d57600080fd5b506001600160a01b038135169060200135611055565b3480156105af57600080fd5b506101fa600480360360208110156105c657600080fd5b50356001600160a01b0316611075565b3480156105e257600080fd5b506101fa61119a565b3480156105f757600080fd5b506101fa6004803603602081101561060e57600080fd5b50356001600160a01b03166111ac565b34801561062a57600080fd5b506102e66113ed565b34801561063f57600080fd5b506102e66113fc565b34801561065457600080fd5b5061032c6004803603604081101561066b57600080fd5b506001600160a01b038135811691602001351661140b565b60025460408051808201909152601b8152600080516020611cc283398151915260208201526000916001600160a01b0316331461073e5760405162461bcd60e51b81526004018080602001828103825283818151815260200191508051906020019080838360005b838110156107035781810151838201526020016106eb565b50505050905090810190601f1680156107305780820380516001836020036101000a031916815260200191505b509250505060405180910390fd5b506040805180820190915260198152784552525f434f4e54524143545f53454c465f4144445245535360381b602082015282906001600160a01b0382163014156107c95760405162461bcd60e51b81526020600482018181528351602484015283519092839260449091019190850190808383600083156107035781810151838201526020016106eb565b5060408051808201909152601081526f4552525f5a45524f5f4144445245535360801b602082015283906001600160a01b0382166108485760405162461bcd60e51b81526020600482018181528351602484015283519092839260449091019190850190808383600083156107035781810151838201526020016106eb565b506003546001600160a01b0385811691161480159061087557506002546001600160a01b03858116911614155b801561088f57506001546001600160a01b03858116911614155b6040518060400160405280601081526020016f4552525f53414d455f4144445245535360801b815250906109045760405162461bcd60e51b81526020600482018181528351602484015283519092839260449091019190850190808383600083156107035781810151838201526020016106eb565b50600354604080516020808252600e908201526d53595354454d5f4144445245535360901b8183015290516001600160a01b038088169316917f6840904f5b31827f74e1497360da245f56e530c8c3de3163a2d31f11493273c6919081900360600190a3600380546001600160a01b0386166001600160a01b0319909116179055600192505050919050565b6005805460408051602060026001851615610100026000190190941693909304601f81018490048402820184019092528181529291830182828015610a165780601f106109eb57610100808354040283529160200191610a16565b820191906000526020600020905b8154815290600101906020018083116109f957829003601f168201915b505050505081565b60408051808201909152601081526f4552525f5a45524f5f4144445245535360801b602082015260009083906001600160a01b038216610a9f5760405162461bcd60e51b81526020600482018181528351602484015283519092839260449091019190850190808383600083156107035781810151838201526020016106eb565b50610aab338585611436565b5060019392505050565b6004546001600160a01b031681565b6000600c5460001415610ad957506000610b15565b6000610aea62015180600c54611518565b90506000610afa82600b5461153c565b9050804210610b0e57600192505050610b15565b6000925050505b90565b60005481565b60045460408051808201909152601b8152600080516020611cc283398151915260208201526000916001600160a01b03163314610b9c5760405162461bcd60e51b81526020600482018181528351602484015283519092839260449091019190850190808383600083156107035781810151838201526020016106eb565b5060045460025460408051602080825260119082015270415554484f524954595f4144445245535360781b8183015290516001600160a01b039384169392909216917f6840904f5b31827f74e1497360da245f56e530c8c3de3163a2d31f11493273c69181900360600190a35060048054600280546001600160a01b03199081166001600160a01b03841617909155169055600190565b6000610c3f848461154b565b610c4857600080fd5b610c5384848461170f565b949350505050565b601281565b3360008181526008602090815260408083206001600160a01b03871684529091528120549091610aab9085610c95848761153c565b611436565b92915050565b6002546001600160a01b031681565b6000610c9a3383611930565b600c5481565b6001600160a01b031660009081526007602052604090205490565b600a5481565b600b5481565b6001546001600160a01b031681565b60025460408051808201909152601b8152600080516020611cc283398151915260208201526000916001600160a01b03163314610d755760405162461bcd60e51b81526020600482018181528351602484015283519092839260449091019190850190808383600083156107035781810151838201526020016106eb565b5060408051808201909152601081526f4552525f5a45524f5f4144445245535360801b602082015282906001600160a01b038216610df45760405162461bcd60e51b81526020600482018181528351602484015283519092839260449091019190850190808383600083156107035781810151838201526020016106eb565b506003546001600160a01b03848116911614801590610e2157506002546001600160a01b03848116911614155b8015610e3b57506001546001600160a01b03848116911614155b6040518060400160405280601081526020016f4552525f53414d455f4144445245535360801b81525090610eb05760405162461bcd60e51b81526020600482018181528351602484015283519092839260449091019190850190808383600083156107035781810151838201526020016106eb565b50600480546001600160a01b0385166001600160a01b03199091161790556001915050919050565b6006805460408051602060026001851615610100026000190190941693909304601f81018490048402820184019092528181529291830182828015610a165780601f106109eb57610100808354040283529160200191610a16565b600d5481565b600080610f4f6620aaa1aa24a7a760c91b611a57565b60408051808201909152601b8152600080516020611cc28339815191526020820152909150336001600160a01b03831614610fcb5760405162461bcd60e51b81526020600482018181528351602484015283519092839260449091019190850190808383600083156107035781810151838201526020016106eb565b50610fd63384611ad5565b9392505050565b3360009081526008602090815260408083206001600160a01b038616845290915281205482811015611046576040805162461bcd60e51b815260206004820152600d60248201526c4552525f414c4c4f57454e434560981b604482015290519081900360640190fd5b610aab3385610c958487611bab565b6000611061338461154b565b61106a57600080fd5b610fd6338484611bbd565b60025460408051808201909152601b8152600080516020611cc283398151915260208201526000916001600160a01b031633146110f35760405162461bcd60e51b81526020600482018181528351602484015283519092839260449091019190850190808383600083156107035781810151838201526020016106eb565b5060408051808201909152601081526f4552525f5a45524f5f4144445245535360801b602082015282906001600160a01b0382166111725760405162461bcd60e51b81526020600482018181528351602484015283519092839260449091019190850190808383600083156107035781810151838201526020016106eb565b50600980546001600160a01b0385166001600160a01b03199091161790556001915050919050565b600080610aea62015180600d54611518565b60025460408051808201909152601b8152600080516020611cc283398151915260208201526000916001600160a01b0316331461122a5760405162461bcd60e51b81526020600482018181528351602484015283519092839260449091019190850190808383600083156107035781810151838201526020016106eb565b5060408051808201909152601081526f4552525f5a45524f5f4144445245535360801b602082015282906001600160a01b0382166112a95760405162461bcd60e51b81526020600482018181528351602484015283519092839260449091019190850190808383600083156107035781810151838201526020016106eb565b506003546001600160a01b038481169116148015906112d657506002546001600160a01b03848116911614155b80156112f057506001546001600160a01b03848116911614155b6040518060400160405280601081526020016f4552525f53414d455f4144445245535360801b815250906113655760405162461bcd60e51b81526020600482018181528351602484015283519092839260449091019190850190808383600083156107035781810151838201526020016106eb565b50600154604080516020808252600d908201526c282924a6a0a92cafa7aba722a960991b8183015290516001600160a01b038087169316917f6840904f5b31827f74e1497360da245f56e530c8c3de3163a2d31f11493273c6919081900360600190a3600180546001600160a01b0385166001600160a01b0319909116178155915050919050565b6003546001600160a01b031681565b6009546001600160a01b031681565b6001600160a01b03918216600090815260086020908152604080832093909416825291909152205490565b60408051808201909152601081526f4552525f5a45524f5f4144445245535360801b602082015282906001600160a01b0382166114b45760405162461bcd60e51b81526020600482018181528351602484015283519092839260449091019190850190808383600083156107035781810151838201526020016106eb565b506001600160a01b03808516600081815260086020908152604080832094881680845294825291829020869055815186815291517f8c5be1e5ebec7d5bd14f71427d1e84f3dd0314c0f7b2291e5b200ac8c7c3b9259281900390910190a350505050565b60008261152757506000610c9a565b8282028284828161153457fe5b0414610fd657fe5b600082820183811015610fd657fe5b6000806115646915d212551157d31254d560b21b611a57565b60408051636c7d308160e01b815233600482015290519192506001600160a01b03831691636c7d308191602480820192602092909190829003018186803b1580156115ae57600080fd5b505afa1580156115c2573d6000803e3d6000fd5b505050506040513d60208110156115d857600080fd5b5051610aab5760408051639e4d7ae560e01b81526001600160a01b0386811660048301528581166024830152915191831691639e4d7ae591604480820192602092909190829003018186803b15801561163057600080fd5b505afa158015611644573d6000803e3d6000fd5b505050506040513d602081101561165a57600080fd5b50516116ad576040805162461bcd60e51b815260206004820152601c60248201527f4552525f5452414e534645525f434845434b5f57484954454c49535400000000604482015290519081900360640190fd5b6116b5610ac4565b1580156116c557506116c561119a565b610aab576040805162461bcd60e51b815260206004820152601660248201527511549497d050d51253d397d393d517d0531313d5d15160521b604482015290519081900360640190fd5b6040805180820190915260198152784552525f434f4e54524143545f53454c465f4144445245535360381b602082015260009083906001600160a01b03821630141561179c5760405162461bcd60e51b81526020600482018181528351602484015283519092839260449091019190850190808383600083156107035781810151838201526020016106eb565b5060408051808201909152601081526f4552525f5a45524f5f4144445245535360801b602082015284906001600160a01b03821661181b5760405162461bcd60e51b81526020600482018181528351602484015283519092839260449091019190850190808383600083156107035781810151838201526020016106eb565b506001600160a01b038616600090815260086020908152604080832033845290915290205484111561188d576040805162461bcd60e51b81526020600482015260166024820152754552525f4e4f545f454e4f5547485f42414c414e434560501b604482015290519081900360640190fd5b611898868686611bbd565b6118a157600080fd5b6001600160a01b03861660009081526008602090815260408083203384529091529020546118cf9085611bab565b6001600160a01b0380881660008181526008602090815260408083203380855292528083209590955593519289169391927f7d5ad68155582ceeebcef916386e9f0eb9f7a2dce10a880ced4d0d5d782317949190a450600195945050505050565b6001600160a01b03821660009081526007602052604081205482811015611997576040805162461bcd60e51b81526020600482015260166024820152754552525f4e4f545f454e4f5547485f42414c414e434560501b604482015290519081900360640190fd5b6119a18184611bab565b6001600160a01b0385166000908152600760205260408120829055549091506119ca9084611bab565b6000556040805184815290516001600160a01b038616917fcc16f5dbb4873280815c1ee09dbd06736cffcc184412cf7a71a0fdb75d397ca5919081900360200190a26040805184815290516000916001600160a01b038716917fddf252ad1be2c89b69c2b068fc378daa952ba7f163c4a11628f55a4df523b3ef9181900360200190a35060019392505050565b60095460408051637d4367ab60e11b81526004810184905290516000926001600160a01b03169163fa86cf56916024808301926020929190829003018186803b158015611aa357600080fd5b505afa158015611ab7573d6000803e3d6000fd5b505050506040513d6020811015611acd57600080fd5b505192915050565b6001600160a01b038216600090815260076020526040812054611af8908361153c565b6001600160a01b03841660009081526007602052604081209190915554611b1f908361153c565b6000556040805183815290516001600160a01b038516917f0f6798a560793a54c3bcfe86a93cde1e73087d944c0ea20544137d4121396885919081900360200190a26040805183815290516001600160a01b038516916000917fddf252ad1be2c89b69c2b068fc378daa952ba7f163c4a11628f55a4df523b3ef9181900360200190a350600192915050565b600082821115611bb757fe5b50900390565b6001600160a01b03831660009081526007602052604081205482811015611c24576040805162461bcd60e51b81526020600482015260166024820152754552525f4e4f545f454e4f5547485f42414c414e434560501b604482015290519081900360640190fd5b611c2e8184611bab565b6001600160a01b0380871660009081526007602052604080822084905591871681522054909150611c5f908461153c565b6001600160a01b0380861660008181526007602090815260409182902094909455805187815290519193928916927fddf252ad1be2c89b69c2b068fc378daa952ba7f163c4a11628f55a4df523b3ef92918290030190a350600194935050505056fe4552525f415554484f52495a45445f414444524553535f4f4e4c590000000000a265627a7a7230582040592a849424a298cc082998a0a8f4268d71b2fe37beb943b48b8ca77bc7c4ae64736f6c63430005090032",
  "source": "pragma solidity ^0.5.9;\n\n\nimport \"./RestrictedToken.sol\";\nimport \"../InterFaces/IWhiteList.sol\";\n\n\n\ncontract TokenMinter is RestrictedToken{\n    \n    modifier onlyAuthorizedAddress() {\n        address auctionAddress = getAddressOf(AUCTION);\n        require(msg.sender == auctionAddress,ERR_AUTHORIZED_ADDRESS_ONLY);\n        _;\n    }\n    \n    function mintTokens(uint256 _amount) external onlyAuthorizedAddress() returns(bool){\n        return _mint(msg.sender, _amount);\n    }\n    \n}\n\n\ncontract MainToken is TokenMinter {\n    \n    \n    constructor(\n        string memory _name,\n        string memory _symbol,\n        address _systemAddress,\n        address _authorityAddress,\n        address _registeryAddress,\n        uint256 _tokenPrice,\n        uint256 _tokenMaturityDays,\n        uint256 _tokenHoldBackDays,\n        address[] memory _which,\n        uint256[] memory _amount\n        ) public \n        \n        TokenUtils(_name,_symbol,_systemAddress,_authorityAddress,_tokenPrice,_tokenMaturityDays,_tokenHoldBackDays,_registeryAddress)\n        {\n            require(_which.length == _amount.length,\"ERR_NOT_SAME_LENGTH\");\n            address whiteListAddress = getAddressOf(WHITE_LIST);\n            for(uint256 tempX=0 ; tempX < _which.length ; tempX++){\n                require(IWhiteList(whiteListAddress).isWhiteListed(_which[tempX]),\"ERR_TRANSFER_CHECK_WHITELIST\");\n                _mint(_which[tempX],_amount[tempX]);\n            }\n        }\n    \n    \n    function() external payable {\n        revert();\n    }\n    \n}",
  "sourcePath": "/home/mind/Work/Projects/Jointer/Jointer_auction/NewContracts/contracts/Tokens/MainToken.sol",
  "compiler": {
    "name": "solc",
    "version": "0.5.9+commit.e560f70d.Emscripten.clang"
  },
  "schemaVersion": "3.0.16",
  "updatedAt": "2020-05-04T15:22:10.631Z",
  "devdoc": {
    "methods": {
      "allowance(address,address)": {
        "details": "to check allowed token for transferFrom",
        "params": {
          "_owner": "The address of the account owning tokens",
          "_spender": "The address of the account able to transfer the tokens"
        },
        "return": "Amount of remaining tokens allowed to spent"
      },
      "approve(address,uint256)": {
        "details": "`msg.sender` approves `spender` to spend `value` tokens",
        "params": {
          "_spender": "The address of the account able to transfer the tokens",
          "_value": "The amount of wei to be approved for transfer"
        },
        "return": "Whether the approval was successful or not"
      },
      "balanceOf(address)": {
        "details": "Gets the balance of the specified address.",
        "params": {
          "_who": "The address to query the the balance of."
        },
        "return": "An uint256 representing the amount owned by the passed address."
      },
      "burn(uint256)": {
        "details": "burn token from this address",
        "params": {
          "_value": "uint256 the amount of tokens to be burned"
        }
      },
      "changeAuthorityAddress(address)": {
        "details": "change system address",
        "params": {
          "_which": "The address to which is new Authority address"
        }
      },
      "changePrimaryOwner(address)": {
        "details": "change primary ownership",
        "params": {
          "_which": "The address to which is new owner address"
        }
      },
      "changeSystemAddress(address)": {
        "details": "change system address",
        "params": {
          "_which": "The address to which is new system address"
        }
      },
      "decreaseAllowance(address,uint256)": {
        "details": "`msg.sender` approves `spender` to decrease spend `value` tokens",
        "params": {
          "_spender": "The address of the account able to transfer the tokens",
          "_value": "The amount of wei to be approved for transfer"
        },
        "return": "Whether the approval was successful or not"
      },
      "increaseAllowance(address,uint256)": {
        "details": "`msg.sender` approves `spender` to increase spend `value` tokens",
        "params": {
          "_spender": "The address of the account able to transfer the tokens",
          "_value": "The amount of wei to be approved for transfer"
        },
        "return": "Whether the approval was successful or not"
      }
    }
  },
  "userdoc": {
    "methods": {}
  }
}