{
  "contractName": "MainToken",
  "abi": [
    {
      "constant": false,
      "inputs": [
        {
          "name": "_which",
          "type": "address"
        }
      ],
      "name": "changeSystemAddress",
      "outputs": [
        {
          "name": "",
          "type": "bool"
        }
      ],
      "payable": false,
      "stateMutability": "nonpayable",
      "type": "function"
    },
    {
      "constant": true,
      "inputs": [],
      "name": "name",
      "outputs": [
        {
          "name": "",
          "type": "string"
        }
      ],
      "payable": false,
      "stateMutability": "view",
      "type": "function"
    },
    {
      "constant": false,
      "inputs": [
        {
          "name": "_spender",
          "type": "address"
        },
        {
          "name": "_value",
          "type": "uint256"
        }
      ],
      "name": "approve",
      "outputs": [
        {
          "name": "ok",
          "type": "bool"
        }
      ],
      "payable": false,
      "stateMutability": "nonpayable",
      "type": "function"
    },
    {
      "constant": true,
      "inputs": [],
      "name": "newAuthorityAddress",
      "outputs": [
        {
          "name": "",
          "type": "address"
        }
      ],
      "payable": false,
      "stateMutability": "view",
      "type": "function"
    },
    {
      "constant": true,
      "inputs": [],
      "name": "isTokenMature",
      "outputs": [
        {
          "name": "",
          "type": "bool"
        }
      ],
      "payable": false,
      "stateMutability": "view",
      "type": "function"
    },
    {
      "constant": true,
      "inputs": [],
      "name": "totalSupply",
      "outputs": [
        {
          "name": "",
          "type": "uint256"
        }
      ],
      "payable": false,
      "stateMutability": "view",
      "type": "function"
    },
    {
      "constant": false,
      "inputs": [],
      "name": "acceptAuthorityAddress",
      "outputs": [
        {
          "name": "",
          "type": "bool"
        }
      ],
      "payable": false,
      "stateMutability": "nonpayable",
      "type": "function"
    },
    {
      "constant": false,
      "inputs": [
        {
          "name": "_from",
          "type": "address"
        },
        {
          "name": "_to",
          "type": "address"
        },
        {
          "name": "_value",
          "type": "uint256"
        }
      ],
      "name": "transferFrom",
      "outputs": [
        {
          "name": "",
          "type": "bool"
        }
      ],
      "payable": false,
      "stateMutability": "nonpayable",
      "type": "function"
    },
    {
      "constant": true,
      "inputs": [],
      "name": "decimals",
      "outputs": [
        {
          "name": "",
          "type": "uint256"
        }
      ],
      "payable": false,
      "stateMutability": "view",
      "type": "function"
    },
    {
      "constant": false,
      "inputs": [
        {
          "name": "_spender",
          "type": "address"
        },
        {
          "name": "_value",
          "type": "uint256"
        }
      ],
      "name": "increaseAllowance",
      "outputs": [
        {
          "name": "",
          "type": "bool"
        }
      ],
      "payable": false,
      "stateMutability": "nonpayable",
      "type": "function"
    },
    {
      "constant": true,
      "inputs": [],
      "name": "authorityAddress",
      "outputs": [
        {
          "name": "",
          "type": "address"
        }
      ],
      "payable": false,
      "stateMutability": "view",
      "type": "function"
    },
    {
      "constant": false,
      "inputs": [
        {
          "name": "_value",
          "type": "uint256"
        }
      ],
      "name": "burn",
      "outputs": [
        {
          "name": "",
          "type": "bool"
        }
      ],
      "payable": false,
      "stateMutability": "nonpayable",
      "type": "function"
    },
    {
      "constant": true,
      "inputs": [],
      "name": "tokenMaturityDays",
      "outputs": [
        {
          "name": "",
          "type": "uint256"
        }
      ],
      "payable": false,
      "stateMutability": "view",
      "type": "function"
    },
    {
      "constant": true,
      "inputs": [
        {
          "name": "_who",
          "type": "address"
        }
      ],
      "name": "balanceOf",
      "outputs": [
        {
          "name": "balance",
          "type": "uint256"
        }
      ],
      "payable": false,
      "stateMutability": "view",
      "type": "function"
    },
    {
      "constant": true,
      "inputs": [],
      "name": "tokenSaleStartDate",
      "outputs": [
        {
          "name": "",
          "type": "uint256"
        }
      ],
      "payable": false,
      "stateMutability": "view",
      "type": "function"
    },
    {
      "constant": true,
      "inputs": [],
      "name": "primaryOwner",
      "outputs": [
        {
          "name": "",
          "type": "address"
        }
      ],
      "payable": false,
      "stateMutability": "view",
      "type": "function"
    },
    {
      "constant": false,
      "inputs": [
        {
          "name": "_which",
          "type": "address"
        }
      ],
      "name": "changeAuthorityAddress",
      "outputs": [
        {
          "name": "",
          "type": "bool"
        }
      ],
      "payable": false,
      "stateMutability": "nonpayable",
      "type": "function"
    },
    {
      "constant": true,
      "inputs": [],
      "name": "symbol",
      "outputs": [
        {
          "name": "",
          "type": "string"
        }
      ],
      "payable": false,
      "stateMutability": "view",
      "type": "function"
    },
    {
      "constant": true,
      "inputs": [],
      "name": "tokenHoldBackDays",
      "outputs": [
        {
          "name": "",
          "type": "uint256"
        }
      ],
      "payable": false,
      "stateMutability": "view",
      "type": "function"
    },
    {
      "constant": false,
      "inputs": [
        {
          "name": "_amount",
          "type": "uint256"
        }
      ],
      "name": "mintTokens",
      "outputs": [
        {
          "name": "",
          "type": "bool"
        }
      ],
      "payable": false,
      "stateMutability": "nonpayable",
      "type": "function"
    },
    {
      "constant": false,
      "inputs": [
        {
          "name": "_spender",
          "type": "address"
        },
        {
          "name": "_value",
          "type": "uint256"
        }
      ],
      "name": "decreaseAllowance",
      "outputs": [
        {
          "name": "",
          "type": "bool"
        }
      ],
      "payable": false,
      "stateMutability": "nonpayable",
      "type": "function"
    },
    {
      "constant": false,
      "inputs": [
        {
          "name": "_to",
          "type": "address"
        },
        {
          "name": "_value",
          "type": "uint256"
        }
      ],
      "name": "transfer",
      "outputs": [
        {
          "name": "ok",
          "type": "bool"
        }
      ],
      "payable": false,
      "stateMutability": "nonpayable",
      "type": "function"
    },
    {
      "constant": false,
      "inputs": [
        {
          "name": "_address",
          "type": "address"
        }
      ],
      "name": "updateRegistery",
      "outputs": [
        {
          "name": "",
          "type": "bool"
        }
      ],
      "payable": false,
      "stateMutability": "nonpayable",
      "type": "function"
    },
    {
      "constant": true,
      "inputs": [],
      "name": "isHoldbackDaysOver",
      "outputs": [
        {
          "name": "",
          "type": "bool"
        }
      ],
      "payable": false,
      "stateMutability": "view",
      "type": "function"
    },
    {
      "constant": false,
      "inputs": [
        {
          "name": "_which",
          "type": "address"
        }
      ],
      "name": "changePrimaryOwner",
      "outputs": [
        {
          "name": "",
          "type": "bool"
        }
      ],
      "payable": false,
      "stateMutability": "nonpayable",
      "type": "function"
    },
    {
      "constant": true,
      "inputs": [],
      "name": "systemAddress",
      "outputs": [
        {
          "name": "",
          "type": "address"
        }
      ],
      "payable": false,
      "stateMutability": "view",
      "type": "function"
    },
    {
      "constant": true,
      "inputs": [],
      "name": "contractsRegistry",
      "outputs": [
        {
          "name": "",
          "type": "address"
        }
      ],
      "payable": false,
      "stateMutability": "view",
      "type": "function"
    },
    {
      "constant": true,
      "inputs": [
        {
          "name": "_owner",
          "type": "address"
        },
        {
          "name": "_spender",
          "type": "address"
        }
      ],
      "name": "allowance",
      "outputs": [
        {
          "name": "",
          "type": "uint256"
        }
      ],
      "payable": false,
      "stateMutability": "view",
      "type": "function"
    },
    {
      "inputs": [
        {
          "name": "_name",
          "type": "string"
        },
        {
          "name": "_symbol",
          "type": "string"
        },
        {
          "name": "_systemAddress",
          "type": "address"
        },
        {
          "name": "_authorityAddress",
          "type": "address"
        },
        {
          "name": "_registeryAddress",
          "type": "address"
        },
        {
          "name": "_tokenMaturityDays",
          "type": "uint256"
        },
        {
          "name": "_tokenHoldBackDays",
          "type": "uint256"
        },
        {
          "name": "_which",
          "type": "address[]"
        },
        {
          "name": "_amount",
          "type": "uint256[]"
        }
      ],
      "payable": false,
      "stateMutability": "nonpayable",
      "type": "constructor"
    },
    {
      "payable": true,
      "stateMutability": "payable",
      "type": "fallback"
    },
    {
      "anonymous": false,
      "inputs": [
        {
          "indexed": true,
          "name": "_to",
          "type": "address"
        },
        {
          "indexed": false,
          "name": "value",
          "type": "uint256"
        }
      ],
      "name": "Mint",
      "type": "event"
    },
    {
      "anonymous": false,
      "inputs": [
        {
          "indexed": true,
          "name": "from",
          "type": "address"
        },
        {
          "indexed": false,
          "name": "value",
          "type": "uint256"
        }
      ],
      "name": "Burn",
      "type": "event"
    },
    {
      "anonymous": false,
      "inputs": [
        {
          "indexed": true,
          "name": "spender",
          "type": "address"
        },
        {
          "indexed": true,
          "name": "_from",
          "type": "address"
        },
        {
          "indexed": true,
          "name": "_to",
          "type": "address"
        }
      ],
      "name": "TransferFrom",
      "type": "event"
    },
    {
      "anonymous": false,
      "inputs": [
        {
          "indexed": false,
          "name": "ownerType",
          "type": "string"
        },
        {
          "indexed": true,
          "name": "previousOwner",
          "type": "address"
        },
        {
          "indexed": true,
          "name": "newOwner",
          "type": "address"
        }
      ],
      "name": "OwnershipTransferred",
      "type": "event"
    },
    {
      "anonymous": false,
      "inputs": [
        {
          "indexed": true,
          "name": "previousOwner",
          "type": "address"
        },
        {
          "indexed": true,
          "name": "newOwner",
          "type": "address"
        }
      ],
      "name": "AuthorityAddressChnageCall",
      "type": "event"
    },
    {
      "anonymous": false,
      "inputs": [
        {
          "indexed": true,
          "name": "from",
          "type": "address"
        },
        {
          "indexed": true,
          "name": "to",
          "type": "address"
        },
        {
          "indexed": false,
          "name": "value",
          "type": "uint256"
        }
      ],
      "name": "Transfer",
      "type": "event"
    },
    {
      "anonymous": false,
      "inputs": [
        {
          "indexed": true,
          "name": "owner",
          "type": "address"
        },
        {
          "indexed": true,
          "name": "spender",
          "type": "address"
        },
        {
          "indexed": false,
          "name": "value",
          "type": "uint256"
        }
      ],
      "name": "Approval",
      "type": "event"
    }
  ],
  "bytecode": "0x6080604052600180546001600160a01b0319908116909155600280548216905560038054821690556004805490911690553480156200003d57600080fd5b50604051620027863803806200278683398181016040526101208110156200006457600080fd5b8101908080516401000000008111156200007d57600080fd5b820160208101848111156200009157600080fd5b8151640100000000811182820187101715620000ac57600080fd5b50509291906020018051640100000000811115620000c957600080fd5b82016020810184811115620000dd57600080fd5b8151640100000000811182820187101715620000f857600080fd5b5050602082015160408301516060840151608085015160a086015160c09096018051959894979396929591949293916401000000008111156200013a57600080fd5b820160208101848111156200014e57600080fd5b81518560208202830111640100000000821117156200016c57600080fd5b505092919060200180516401000000008111156200018957600080fd5b820160208101848111156200019d57600080fd5b8151856020820283011164010000000082111715620001bb57600080fd5b50509291905050508888888887878a808787878781818160006001600160a01b0316816001600160a01b031614156040518060400160405280601081526020017f4552525f5a45524f5f414444524553530000000000000000000000000000000081525090620002c6576040517f08c379a00000000000000000000000000000000000000000000000000000000081526004018080602001828103825283818151815260200191508051906020019080838360005b838110156200028a57818101518382015260200162000270565b50505050905090810190601f168015620002b85780820380516001836020036101000a031916815260200191505b509250505060405180910390fd5b5060408051808201909152601081527f4552525f53414d455f41444452455353000000000000000000000000000000006020820152336001600160a01b038516141562000370576040517f08c379a00000000000000000000000000000000000000000000000000000000081526020600482018181528351602484015283519092839260449091019190850190808383600083156200028a57818101518382015260200162000270565b50816001600160a01b0316836001600160a01b031614156040518060400160405280601081526020017f4552525f53414d455f41444452455353000000000000000000000000000000008152509062000426576040517f08c379a00000000000000000000000000000000000000000000000000000000081526020600482018181528351602484015283519092839260449091019190850190808383600083156200028a57818101518382015260200162000270565b5060408051808201909152601081527f4552525f53414d455f41444452455353000000000000000000000000000000006020820152336001600160a01b0384161415620004d0576040517f08c379a00000000000000000000000000000000000000000000000000000000081526020600482018181528351602484015283519092839260449091019190850190808383600083156200028a57818101518382015260200162000270565b5050600180546001600160a01b03199081163317909155600380546001600160a01b03948516908316179055600280549290931691161790558351158015906200051b575060008351115b6200052557600080fd5b83516200053a906005906020870190620009e1565b50825162000550906006906020860190620009e1565b505060408051808201909152601081527f4552525f5a45524f5f414444524553530000000000000000000000000000000060208201528493509150506001600160a01b038216620005fe576040517f08c379a00000000000000000000000000000000000000000000000000000000081526020600482018181528351602484015283519092839260449091019190850190808383600083156200028a57818101518382015260200162000270565b5050600980546001600160a01b0319166001600160a01b03929092169190911790555042600a55600b91909155600c55505082518451149150620006a5905057604080517f08c379a000000000000000000000000000000000000000000000000000000000815260206004820152601360248201527f4552525f4e4f545f53414d455f4c454e47544800000000000000000000000000604482015290519081900360640190fd5b6000620006db7f57484954455f4c495354000000000000000000000000000000000000000000006001600160e01b036200084416565b905060005b83518110156200083357816001600160a01b0316636f9170f68583815181106200070657fe5b60200260200101516040518263ffffffff1660e01b815260040180826001600160a01b03166001600160a01b0316815260200191505060206040518083038186803b1580156200075557600080fd5b505afa1580156200076a573d6000803e3d6000fd5b505050506040513d60208110156200078157600080fd5b5051620007ef57604080517f08c379a000000000000000000000000000000000000000000000000000000000815260206004820152601c60248201527f4552525f5452414e534645525f434845434b5f57484954454c49535400000000604482015290519081900360640190fd5b620008298482815181106200080057fe5b60200260200101518483815181106200081557fe5b6020026020010151620008de60201b60201c565b50600101620006e0565b505050505050505050505062000a86565b600954604080517ffa86cf560000000000000000000000000000000000000000000000000000000081526004810184905290516000926001600160a01b03169163fa86cf56916024808301926020929190829003018186803b158015620008aa57600080fd5b505afa158015620008bf573d6000803e3d6000fd5b505050506040513d6020811015620008d657600080fd5b505192915050565b6001600160a01b0382166000908152600760205260408120546200090c90836001600160e01b03620009ca16565b6001600160a01b038416600090815260076020526040812091909155546200093e90836001600160e01b03620009ca16565b6000556040805183815290516001600160a01b038516917f0f6798a560793a54c3bcfe86a93cde1e73087d944c0ea20544137d4121396885919081900360200190a26040805183815290516001600160a01b038516916000917fddf252ad1be2c89b69c2b068fc378daa952ba7f163c4a11628f55a4df523b3ef9181900360200190a350600192915050565b600082820183811015620009da57fe5b9392505050565b828054600181600116156101000203166002900490600052602060002090601f016020900481019282601f1062000a2457805160ff191683800117855562000a54565b8280016001018555821562000a54579182015b8281111562000a5457825182559160200191906001019062000a37565b5062000a6292915062000a66565b5090565b62000a8391905b8082111562000a62576000815560010162000a6d565b90565b611cf08062000a966000396000f3fe6080604052600436106101b75760003560e01c80638dcab187116100ec578063a9059cbb1161008a578063c4d3426811610064578063c4d34268146105cb578063d3e848f1146105fe578063d98d0c7e14610613578063dd62ed3e14610628576101b7565b8063a9059cbb1461054a578063bc1366fe14610583578063c4b01ebf146105b6576101b7565b806395d89b41116100c657806395d89b41146104bd5780639668d13e146104d257806397304ced146104e7578063a457c2d714610511576101b7565b80638dcab187146104605780638e10be33146104755780638f51368b1461048a576101b7565b806323b872dd116101595780633c695d4e116101335780633c695d4e146103d957806342966c68146103ee57806353ecc7721461041857806370a082311461042d576101b7565b806323b872dd14610348578063313ce5671461038b57806339509351146103a0576101b7565b80630abaad7a116101955780630abaad7a146102c657806317ebc35f146102f757806318160ddd1461030c57806320c462fe14610333576101b7565b806304d63089146101bc57806306fdde0314610203578063095ea7b31461028d575b600080fd5b3480156101c857600080fd5b506101ef600480360360208110156101df57600080fd5b50356001600160a01b0316610663565b604080519115158252519081900360200190f35b34801561020f57600080fd5b50610218610970565b6040805160208082528351818301528351919283929083019185019080838360005b8381101561025257818101518382015260200161023a565b50505050905090810190601f16801561027f5780820380516001836020036101000a031916815260200191505b509250505060405180910390f35b34801561029957600080fd5b506101ef600480360360408110156102b057600080fd5b506001600160a01b0381351690602001356109fe565b3480156102d257600080fd5b506102db610a95565b604080516001600160a01b039092168252519081900360200190f35b34801561030357600080fd5b506101ef610aa4565b34801561031857600080fd5b50610321610af8565b60408051918252519081900360200190f35b34801561033f57600080fd5b506101ef610afe565b34801561035457600080fd5b506101ef6004803603606081101561036b57600080fd5b506001600160a01b03813581169160208101359091169060400135610c13565b34801561039757600080fd5b50610321610c3b565b3480156103ac57600080fd5b506101ef600480360360408110156103c357600080fd5b506001600160a01b038135169060200135610c40565b3480156103e557600080fd5b506102db610c80565b3480156103fa57600080fd5b506101ef6004803603602081101561041157600080fd5b5035610c8f565b34801561042457600080fd5b50610321610c9b565b34801561043957600080fd5b506103216004803603602081101561045057600080fd5b50356001600160a01b0316610ca1565b34801561046c57600080fd5b50610321610cbc565b34801561048157600080fd5b506102db610cc2565b34801561049657600080fd5b506101ef600480360360208110156104ad57600080fd5b50356001600160a01b0316610cd1565b3480156104c957600080fd5b50610218610eb2565b3480156104de57600080fd5b50610321610f0d565b3480156104f357600080fd5b506101ef6004803603602081101561050a57600080fd5b5035610f13565b34801561051d57600080fd5b506101ef6004803603604081101561053457600080fd5b506001600160a01b038135169060200135610fb7565b34801561055657600080fd5b506101ef6004803603604081101561056d57600080fd5b506001600160a01b03813516906020013561102f565b34801561058f57600080fd5b506101ef600480360360208110156105a657600080fd5b50356001600160a01b031661104f565b3480156105c257600080fd5b506101ef611174565b3480156105d757600080fd5b506101ef600480360360208110156105ee57600080fd5b50356001600160a01b0316611186565b34801561060a57600080fd5b506102db6113c7565b34801561061f57600080fd5b506102db6113d6565b34801561063457600080fd5b506103216004803603604081101561064b57600080fd5b506001600160a01b03813581169160200135166113e5565b60025460408051808201909152601b8152600080516020611c9c83398151915260208201526000916001600160a01b0316331461071e5760405162461bcd60e51b81526004018080602001828103825283818151815260200191508051906020019080838360005b838110156106e35781810151838201526020016106cb565b50505050905090810190601f1680156107105780820380516001836020036101000a031916815260200191505b509250505060405180910390fd5b506040805180820190915260198152784552525f434f4e54524143545f53454c465f4144445245535360381b602082015282906001600160a01b0382163014156107a95760405162461bcd60e51b81526020600482018181528351602484015283519092839260449091019190850190808383600083156106e35781810151838201526020016106cb565b5060408051808201909152601081526f4552525f5a45524f5f4144445245535360801b602082015283906001600160a01b0382166108285760405162461bcd60e51b81526020600482018181528351602484015283519092839260449091019190850190808383600083156106e35781810151838201526020016106cb565b506003546001600160a01b0385811691161480159061085557506002546001600160a01b03858116911614155b801561086f57506001546001600160a01b03858116911614155b6040518060400160405280601081526020016f4552525f53414d455f4144445245535360801b815250906108e45760405162461bcd60e51b81526020600482018181528351602484015283519092839260449091019190850190808383600083156106e35781810151838201526020016106cb565b50600354604080516020808252600e908201526d53595354454d5f4144445245535360901b8183015290516001600160a01b038088169316917f6840904f5b31827f74e1497360da245f56e530c8c3de3163a2d31f11493273c6919081900360600190a3600380546001600160a01b0386166001600160a01b0319909116179055600192505050919050565b6005805460408051602060026001851615610100026000190190941693909304601f810184900484028201840190925281815292918301828280156109f65780601f106109cb576101008083540402835291602001916109f6565b820191906000526020600020905b8154815290600101906020018083116109d957829003601f168201915b505050505081565b60408051808201909152601081526f4552525f5a45524f5f4144445245535360801b602082015260009083906001600160a01b038216610a7f5760405162461bcd60e51b81526020600482018181528351602484015283519092839260449091019190850190808383600083156106e35781810151838201526020016106cb565b50610a8b338585611410565b5060019392505050565b6004546001600160a01b031681565b6000600b5460001415610ab957506000610af5565b6000610aca62015180600b546114f2565b90506000610ada82600a54611516565b9050804210610aee57600192505050610af5565b6000925050505b90565b60005481565b60045460408051808201909152601b8152600080516020611c9c83398151915260208201526000916001600160a01b03163314610b7c5760405162461bcd60e51b81526020600482018181528351602484015283519092839260449091019190850190808383600083156106e35781810151838201526020016106cb565b5060045460025460408051602080825260119082015270415554484f524954595f4144445245535360781b8183015290516001600160a01b039384169392909216917f6840904f5b31827f74e1497360da245f56e530c8c3de3163a2d31f11493273c69181900360600190a35060048054600280546001600160a01b03199081166001600160a01b03841617909155169055600190565b6000610c1f8484611525565b610c2857600080fd5b610c338484846116e9565b949350505050565b601281565b3360008181526008602090815260408083206001600160a01b03871684529091528120549091610a8b9085610c758487611516565b611410565b92915050565b6002546001600160a01b031681565b6000610c7a338361190a565b600b5481565b6001600160a01b031660009081526007602052604090205490565b600a5481565b6001546001600160a01b031681565b60025460408051808201909152601b8152600080516020611c9c83398151915260208201526000916001600160a01b03163314610d4f5760405162461bcd60e51b81526020600482018181528351602484015283519092839260449091019190850190808383600083156106e35781810151838201526020016106cb565b5060408051808201909152601081526f4552525f5a45524f5f4144445245535360801b602082015282906001600160a01b038216610dce5760405162461bcd60e51b81526020600482018181528351602484015283519092839260449091019190850190808383600083156106e35781810151838201526020016106cb565b506003546001600160a01b03848116911614801590610dfb57506002546001600160a01b03848116911614155b8015610e1557506001546001600160a01b03848116911614155b6040518060400160405280601081526020016f4552525f53414d455f4144445245535360801b81525090610e8a5760405162461bcd60e51b81526020600482018181528351602484015283519092839260449091019190850190808383600083156106e35781810151838201526020016106cb565b50600480546001600160a01b0385166001600160a01b03199091161790556001915050919050565b6006805460408051602060026001851615610100026000190190941693909304601f810184900484028201840190925281815292918301828280156109f65780601f106109cb576101008083540402835291602001916109f6565b600c5481565b600080610f296620aaa1aa24a7a760c91b611a31565b60408051808201909152601b8152600080516020611c9c8339815191526020820152909150336001600160a01b03831614610fa55760405162461bcd60e51b81526020600482018181528351602484015283519092839260449091019190850190808383600083156106e35781810151838201526020016106cb565b50610fb03384611aaf565b9392505050565b3360009081526008602090815260408083206001600160a01b038616845290915281205482811015611020576040805162461bcd60e51b815260206004820152600d60248201526c4552525f414c4c4f57454e434560981b604482015290519081900360640190fd5b610a8b3385610c758487611b85565b600061103b3384611525565b61104457600080fd5b610fb0338484611b97565b60025460408051808201909152601b8152600080516020611c9c83398151915260208201526000916001600160a01b031633146110cd5760405162461bcd60e51b81526020600482018181528351602484015283519092839260449091019190850190808383600083156106e35781810151838201526020016106cb565b5060408051808201909152601081526f4552525f5a45524f5f4144445245535360801b602082015282906001600160a01b03821661114c5760405162461bcd60e51b81526020600482018181528351602484015283519092839260449091019190850190808383600083156106e35781810151838201526020016106cb565b50600980546001600160a01b0385166001600160a01b03199091161790556001915050919050565b600080610aca62015180600c546114f2565b60025460408051808201909152601b8152600080516020611c9c83398151915260208201526000916001600160a01b031633146112045760405162461bcd60e51b81526020600482018181528351602484015283519092839260449091019190850190808383600083156106e35781810151838201526020016106cb565b5060408051808201909152601081526f4552525f5a45524f5f4144445245535360801b602082015282906001600160a01b0382166112835760405162461bcd60e51b81526020600482018181528351602484015283519092839260449091019190850190808383600083156106e35781810151838201526020016106cb565b506003546001600160a01b038481169116148015906112b057506002546001600160a01b03848116911614155b80156112ca57506001546001600160a01b03848116911614155b6040518060400160405280601081526020016f4552525f53414d455f4144445245535360801b8152509061133f5760405162461bcd60e51b81526020600482018181528351602484015283519092839260449091019190850190808383600083156106e35781810151838201526020016106cb565b50600154604080516020808252600d908201526c282924a6a0a92cafa7aba722a960991b8183015290516001600160a01b038087169316917f6840904f5b31827f74e1497360da245f56e530c8c3de3163a2d31f11493273c6919081900360600190a3600180546001600160a01b0385166001600160a01b0319909116178155915050919050565b6003546001600160a01b031681565b6009546001600160a01b031681565b6001600160a01b03918216600090815260086020908152604080832093909416825291909152205490565b60408051808201909152601081526f4552525f5a45524f5f4144445245535360801b602082015282906001600160a01b03821661148e5760405162461bcd60e51b81526020600482018181528351602484015283519092839260449091019190850190808383600083156106e35781810151838201526020016106cb565b506001600160a01b03808516600081815260086020908152604080832094881680845294825291829020869055815186815291517f8c5be1e5ebec7d5bd14f71427d1e84f3dd0314c0f7b2291e5b200ac8c7c3b9259281900390910190a350505050565b60008261150157506000610c7a565b8282028284828161150e57fe5b0414610fb057fe5b600082820183811015610fb057fe5b60008061153e6915d212551157d31254d560b21b611a31565b60408051636c7d308160e01b815233600482015290519192506001600160a01b03831691636c7d308191602480820192602092909190829003018186803b15801561158857600080fd5b505afa15801561159c573d6000803e3d6000fd5b505050506040513d60208110156115b257600080fd5b5051610a8b5760408051639e4d7ae560e01b81526001600160a01b0386811660048301528581166024830152915191831691639e4d7ae591604480820192602092909190829003018186803b15801561160a57600080fd5b505afa15801561161e573d6000803e3d6000fd5b505050506040513d602081101561163457600080fd5b5051611687576040805162461bcd60e51b815260206004820152601c60248201527f4552525f5452414e534645525f434845434b5f57484954454c49535400000000604482015290519081900360640190fd5b61168f610aa4565b15801561169f575061169f611174565b610a8b576040805162461bcd60e51b815260206004820152601660248201527511549497d050d51253d397d393d517d0531313d5d15160521b604482015290519081900360640190fd5b6040805180820190915260198152784552525f434f4e54524143545f53454c465f4144445245535360381b602082015260009083906001600160a01b0382163014156117765760405162461bcd60e51b81526020600482018181528351602484015283519092839260449091019190850190808383600083156106e35781810151838201526020016106cb565b5060408051808201909152601081526f4552525f5a45524f5f4144445245535360801b602082015284906001600160a01b0382166117f55760405162461bcd60e51b81526020600482018181528351602484015283519092839260449091019190850190808383600083156106e35781810151838201526020016106cb565b506001600160a01b0386166000908152600860209081526040808320338452909152902054841115611867576040805162461bcd60e51b81526020600482015260166024820152754552525f4e4f545f454e4f5547485f42414c414e434560501b604482015290519081900360640190fd5b611872868686611b97565b61187b57600080fd5b6001600160a01b03861660009081526008602090815260408083203384529091529020546118a99085611b85565b6001600160a01b0380881660008181526008602090815260408083203380855292528083209590955593519289169391927f7d5ad68155582ceeebcef916386e9f0eb9f7a2dce10a880ced4d0d5d782317949190a450600195945050505050565b6001600160a01b03821660009081526007602052604081205482811015611971576040805162461bcd60e51b81526020600482015260166024820152754552525f4e4f545f454e4f5547485f42414c414e434560501b604482015290519081900360640190fd5b61197b8184611b85565b6001600160a01b0385166000908152600760205260408120829055549091506119a49084611b85565b6000556040805184815290516001600160a01b038616917fcc16f5dbb4873280815c1ee09dbd06736cffcc184412cf7a71a0fdb75d397ca5919081900360200190a26040805184815290516000916001600160a01b038716917fddf252ad1be2c89b69c2b068fc378daa952ba7f163c4a11628f55a4df523b3ef9181900360200190a35060019392505050565b60095460408051637d4367ab60e11b81526004810184905290516000926001600160a01b03169163fa86cf56916024808301926020929190829003018186803b158015611a7d57600080fd5b505afa158015611a91573d6000803e3d6000fd5b505050506040513d6020811015611aa757600080fd5b505192915050565b6001600160a01b038216600090815260076020526040812054611ad29083611516565b6001600160a01b03841660009081526007602052604081209190915554611af99083611516565b6000556040805183815290516001600160a01b038516917f0f6798a560793a54c3bcfe86a93cde1e73087d944c0ea20544137d4121396885919081900360200190a26040805183815290516001600160a01b038516916000917fddf252ad1be2c89b69c2b068fc378daa952ba7f163c4a11628f55a4df523b3ef9181900360200190a350600192915050565b600082821115611b9157fe5b50900390565b6001600160a01b03831660009081526007602052604081205482811015611bfe576040805162461bcd60e51b81526020600482015260166024820152754552525f4e4f545f454e4f5547485f42414c414e434560501b604482015290519081900360640190fd5b611c088184611b85565b6001600160a01b0380871660009081526007602052604080822084905591871681522054909150611c399084611516565b6001600160a01b0380861660008181526007602090815260409182902094909455805187815290519193928916927fddf252ad1be2c89b69c2b068fc378daa952ba7f163c4a11628f55a4df523b3ef92918290030190a350600194935050505056fe4552525f415554484f52495a45445f414444524553535f4f4e4c590000000000a265627a7a72305820137572e2e8053c83c8d717a4471c2d99880925f41d4fb4c3825ec50bc801593364736f6c63430005090032",
  "source": "pragma solidity ^0.5.9;\n\nimport \"./RestrictedToken.sol\";\nimport \"../InterFaces/IWhiteList.sol\";\n\n\ncontract TokenMinter is RestrictedToken {\n    modifier onlyAuthorizedAddress() {\n        address auctionAddress = getAddressOf(AUCTION);\n        require(msg.sender == auctionAddress, ERR_AUTHORIZED_ADDRESS_ONLY);\n        _;\n    }\n\n    function mintTokens(uint256 _amount)\n        external\n        onlyAuthorizedAddress()\n        returns (bool)\n    {\n        return _mint(msg.sender, _amount);\n    }\n}\n\n\ncontract MainToken is TokenMinter {\n    constructor(\n        string memory _name,\n        string memory _symbol,\n        address _systemAddress,\n        address _authorityAddress,\n        address _registeryAddress,\n        uint256 _tokenMaturityDays,\n        uint256 _tokenHoldBackDays,\n        address[] memory _which,\n        uint256[] memory _amount\n    )\n        public\n        TokenUtils(\n            _name,\n            _symbol,\n            _systemAddress,\n            _authorityAddress,\n            _tokenMaturityDays,\n            _tokenHoldBackDays,\n            _registeryAddress\n        )\n    {\n        require(_which.length == _amount.length, \"ERR_NOT_SAME_LENGTH\");\n\n        address whiteListAddress = getAddressOf(WHITE_LIST);\n\n        for (uint256 tempX = 0; tempX < _which.length; tempX++) {\n            require(\n                IWhiteList(whiteListAddress).isWhiteListed(_which[tempX]),\n                \"ERR_TRANSFER_CHECK_WHITELIST\"\n            );\n            _mint(_which[tempX], _amount[tempX]);\n        }\n    }\n\n    function() external payable {\n        revert();\n    }\n}\n",
  "sourcePath": "/home/mind/Work/Projects/Jointer/Jointer_auction/NewContracts/contracts/Tokens/MainToken.sol",
  "compiler": {
    "name": "solc",
    "version": "0.5.9+commit.e560f70d.Emscripten.clang"
  },
  "schemaVersion": "3.0.16",
  "updatedAt": "2020-05-13T15:06:47.437Z",
  "devdoc": {
    "methods": {
      "allowance(address,address)": {
        "details": "to check allowed token for transferFrom",
        "params": {
          "_owner": "The address of the account owning tokens",
          "_spender": "The address of the account able to transfer the tokens"
        },
        "return": "Amount of remaining tokens allowed to spent"
      },
      "approve(address,uint256)": {
        "details": "`msg.sender` approves `spender` to spend `value` tokens",
        "params": {
          "_spender": "The address of the account able to transfer the tokens",
          "_value": "The amount of wei to be approved for transfer"
        },
        "return": "Whether the approval was successful or not"
      },
      "balanceOf(address)": {
        "details": "Gets the balance of the specified address.",
        "params": {
          "_who": "The address to query the the balance of."
        },
        "return": "An uint256 representing the amount owned by the passed address."
      },
      "burn(uint256)": {
        "details": "burn token from this address",
        "params": {
          "_value": "uint256 the amount of tokens to be burned"
        }
      },
      "changeAuthorityAddress(address)": {
        "details": "change system address",
        "params": {
          "_which": "The address to which is new Authority address"
        }
      },
      "changePrimaryOwner(address)": {
        "details": "change primary ownership",
        "params": {
          "_which": "The address to which is new owner address"
        }
      },
      "changeSystemAddress(address)": {
        "details": "change system address",
        "params": {
          "_which": "The address to which is new system address"
        }
      },
      "decreaseAllowance(address,uint256)": {
        "details": "`msg.sender` approves `spender` to decrease spend `value` tokens",
        "params": {
          "_spender": "The address of the account able to transfer the tokens",
          "_value": "The amount of wei to be approved for transfer"
        },
        "return": "Whether the approval was successful or not"
      },
      "increaseAllowance(address,uint256)": {
        "details": "`msg.sender` approves `spender` to increase spend `value` tokens",
        "params": {
          "_spender": "The address of the account able to transfer the tokens",
          "_value": "The amount of wei to be approved for transfer"
        },
        "return": "Whether the approval was successful or not"
      }
    }
  },
  "userdoc": {
    "methods": {}
  }
}