{
  "contractName": "MultiSigGovernance",
  "abi": [
    {
      "constant": false,
      "inputs": [
        {
          "name": "_owner",
          "type": "address"
        }
      ],
      "name": "addNewOwner",
      "outputs": [
        {
          "name": "",
          "type": "bool"
        }
      ],
      "payable": false,
      "stateMutability": "nonpayable",
      "type": "function"
    },
    {
      "constant": false,
      "inputs": [
        {
          "name": "_owner",
          "type": "address"
        }
      ],
      "name": "removeOwner",
      "outputs": [
        {
          "name": "",
          "type": "bool"
        }
      ],
      "payable": false,
      "stateMutability": "nonpayable",
      "type": "function"
    },
    {
      "constant": true,
      "inputs": [
        {
          "name": "",
          "type": "uint256"
        }
      ],
      "name": "confirmationsCount",
      "outputs": [
        {
          "name": "",
          "type": "uint256"
        }
      ],
      "payable": false,
      "stateMutability": "view",
      "type": "function"
    },
    {
      "constant": false,
      "inputs": [
        {
          "name": "_minConfirmationsRequired",
          "type": "uint256"
        }
      ],
      "name": "changeMinConfirmationsRequired",
      "outputs": [
        {
          "name": "",
          "type": "bool"
        }
      ],
      "payable": false,
      "stateMutability": "nonpayable",
      "type": "function"
    },
    {
      "constant": true,
      "inputs": [
        {
          "name": "",
          "type": "address"
        }
      ],
      "name": "isOwner",
      "outputs": [
        {
          "name": "",
          "type": "bool"
        }
      ],
      "payable": false,
      "stateMutability": "view",
      "type": "function"
    },
    {
      "constant": true,
      "inputs": [
        {
          "name": "",
          "type": "uint256"
        },
        {
          "name": "",
          "type": "address"
        }
      ],
      "name": "confirmations",
      "outputs": [
        {
          "name": "",
          "type": "bool"
        }
      ],
      "payable": false,
      "stateMutability": "view",
      "type": "function"
    },
    {
      "constant": true,
      "inputs": [],
      "name": "minConfirmationsRequired",
      "outputs": [
        {
          "name": "",
          "type": "uint256"
        }
      ],
      "payable": false,
      "stateMutability": "view",
      "type": "function"
    },
    {
      "constant": true,
      "inputs": [
        {
          "name": "",
          "type": "uint256"
        }
      ],
      "name": "multiSigOwners",
      "outputs": [
        {
          "name": "",
          "type": "address"
        }
      ],
      "payable": false,
      "stateMutability": "view",
      "type": "function"
    },
    {
      "constant": true,
      "inputs": [
        {
          "name": "",
          "type": "uint256"
        }
      ],
      "name": "transactions",
      "outputs": [
        {
          "name": "destination",
          "type": "address"
        },
        {
          "name": "value",
          "type": "uint256"
        },
        {
          "name": "data",
          "type": "bytes"
        },
        {
          "name": "executed",
          "type": "bool"
        },
        {
          "name": "confirmationsRequired",
          "type": "uint256"
        }
      ],
      "payable": false,
      "stateMutability": "view",
      "type": "function"
    },
    {
      "constant": true,
      "inputs": [
        {
          "name": "",
          "type": "address"
        }
      ],
      "name": "ownerIndex",
      "outputs": [
        {
          "name": "",
          "type": "uint256"
        }
      ],
      "payable": false,
      "stateMutability": "view",
      "type": "function"
    },
    {
      "constant": true,
      "inputs": [],
      "name": "transactionCount",
      "outputs": [
        {
          "name": "",
          "type": "uint256"
        }
      ],
      "payable": false,
      "stateMutability": "view",
      "type": "function"
    },
    {
      "constant": true,
      "inputs": [],
      "name": "MAX_OWNERS_ALLOWED",
      "outputs": [
        {
          "name": "",
          "type": "uint256"
        }
      ],
      "payable": false,
      "stateMutability": "view",
      "type": "function"
    },
    {
      "constant": true,
      "inputs": [],
      "name": "_gas",
      "outputs": [
        {
          "name": "",
          "type": "uint256"
        }
      ],
      "payable": false,
      "stateMutability": "view",
      "type": "function"
    },
    {
      "inputs": [
        {
          "name": "_multiSigOwners",
          "type": "address[]"
        },
        {
          "name": "_minConfirmationsRequired",
          "type": "uint256"
        }
      ],
      "payable": false,
      "stateMutability": "nonpayable",
      "type": "constructor"
    },
    {
      "payable": true,
      "stateMutability": "payable",
      "type": "fallback"
    },
    {
      "anonymous": false,
      "inputs": [
        {
          "indexed": true,
          "name": "transactionId",
          "type": "uint256"
        },
        {
          "indexed": false,
          "name": "owner",
          "type": "address"
        }
      ],
      "name": "NewTransactionAdded",
      "type": "event"
    },
    {
      "anonymous": false,
      "inputs": [
        {
          "indexed": true,
          "name": "transactionId",
          "type": "uint256"
        },
        {
          "indexed": false,
          "name": "owner",
          "type": "address"
        }
      ],
      "name": "TransactionConfirmed",
      "type": "event"
    },
    {
      "anonymous": false,
      "inputs": [
        {
          "indexed": true,
          "name": "transactionId",
          "type": "uint256"
        },
        {
          "indexed": false,
          "name": "owner",
          "type": "address"
        }
      ],
      "name": "TransactionConfirmationRevoked",
      "type": "event"
    },
    {
      "anonymous": false,
      "inputs": [
        {
          "indexed": true,
          "name": "transactionId",
          "type": "uint256"
        },
        {
          "indexed": false,
          "name": "isSuccess",
          "type": "bool"
        }
      ],
      "name": "TransactionExecuted",
      "type": "event"
    },
    {
      "anonymous": false,
      "inputs": [
        {
          "indexed": true,
          "name": "owner",
          "type": "address"
        }
      ],
      "name": "OwnerAdded",
      "type": "event"
    },
    {
      "anonymous": false,
      "inputs": [
        {
          "indexed": true,
          "name": "owner",
          "type": "address"
        }
      ],
      "name": "OwnerRemoved",
      "type": "event"
    },
    {
      "constant": false,
      "inputs": [
        {
          "name": "_newGas",
          "type": "uint256"
        }
      ],
      "name": "updateGas",
      "outputs": [
        {
          "name": "",
          "type": "bool"
        }
      ],
      "payable": false,
      "stateMutability": "nonpayable",
      "type": "function"
    },
    {
      "constant": false,
      "inputs": [
        {
          "name": "destination",
          "type": "address"
        },
        {
          "name": "value",
          "type": "uint256"
        },
        {
          "name": "data",
          "type": "bytes"
        },
        {
          "name": "_confirmationsRequired",
          "type": "uint256"
        }
      ],
      "name": "addTransaction",
      "outputs": [
        {
          "name": "transactionId",
          "type": "uint256"
        }
      ],
      "payable": false,
      "stateMutability": "nonpayable",
      "type": "function"
    },
    {
      "constant": false,
      "inputs": [
        {
          "name": "transactionId",
          "type": "uint256"
        }
      ],
      "name": "confirmTransaction",
      "outputs": [
        {
          "name": "",
          "type": "bool"
        }
      ],
      "payable": false,
      "stateMutability": "nonpayable",
      "type": "function"
    },
    {
      "constant": false,
      "inputs": [
        {
          "name": "transactionId",
          "type": "uint256"
        }
      ],
      "name": "revokeConfirmation",
      "outputs": [
        {
          "name": "",
          "type": "bool"
        }
      ],
      "payable": false,
      "stateMutability": "nonpayable",
      "type": "function"
    },
    {
      "constant": false,
      "inputs": [
        {
          "name": "transactionId",
          "type": "uint256"
        }
      ],
      "name": "executeTransaction",
      "outputs": [
        {
          "name": "",
          "type": "bool"
        }
      ],
      "payable": false,
      "stateMutability": "nonpayable",
      "type": "function"
    },
    {
      "constant": false,
      "inputs": [
        {
          "name": "balance",
          "type": "uint256"
        },
        {
          "name": "_address",
          "type": "address"
        }
      ],
      "name": "withDrawEth",
      "outputs": [
        {
          "name": "",
          "type": "bool"
        }
      ],
      "payable": false,
      "stateMutability": "nonpayable",
      "type": "function"
    }
  ],
  "bytecode": "0x60806040526187966004553480156200001757600080fd5b50604051620021bb380380620021bb833981810160405260408110156200003d57600080fd5b8101908080516401000000008111156200005657600080fd5b820160208101848111156200006a57600080fd5b81518560208202830111640100000000821117156200008857600080fd5b5050602091820151815160408051808201909152601681527f4552525f434f4e4649524d4154494f4e5f4c494d49540000000000000000000094810194909452919450925082111562000176576040517f08c379a00000000000000000000000000000000000000000000000000000000081526004018080602001828103825283818151815260200191508051906020019080838360005b838110156200013a57818101518382015260200162000120565b50505050905090810190601f168015620001685780820380516001836020036101000a031916815260200191505b509250505060405180910390fd5b5060005b825181101562000320576000808483815181106200019457fe5b6020908102919091018101516001600160a01b031682528101919091526040016000205460ff16158015620001f0575060006001600160a01b0316838281518110620001dc57fe5b60200260200101516001600160a01b031614155b6040518060400160405280601081526020017f4552525f53414d455f4144445245535300000000000000000000000000000000815250906200028f576040517f08c379a00000000000000000000000000000000000000000000000000000000081526020600482018181528351602484015283519092839260449091019190850190808383600083156200013a57818101518382015260200162000120565b506001600080858481518110620002a257fe5b60200260200101516001600160a01b03166001600160a01b0316815260200190815260200160002060006101000a81548160ff0219169083151502179055508060016000858481518110620002f357fe5b6020908102919091018101516001600160a01b03168252810191909152604001600020556001016200017a565b5081516200033690600290602085019062000341565b5060035550620003d5565b82805482825590600052602060002090810192821562000399579160200282015b828111156200039957825182546001600160a01b0319166001600160a01b0390911617825560209092019160019091019062000362565b50620003a7929150620003ab565b5090565b620003d291905b80821115620003a75780546001600160a01b0319168155600101620003b2565b90565b611dd680620003e56000396000f3fe6080604052600436106101145760003560e01c80636603a7b2116100a0578063c020df4811610064578063c020df48146104bf578063d9859eca146104e9578063dea0a7fd14610522578063ee22610b14610537578063ff1eb65e1461056157610114565b80636603a7b2146103335780639ace38c2146103795780639f8a64e21461044d578063b77bf60014610480578063c01a8c841461049557610114565b8063203fb521116100e7578063203fb521146101f657806320ea8d86146102885780632f54bf6e146102b25780633411c81c146102e557806353fbb95d1461031e57610114565b8063114d8be114610116578063173825d91461015d578063174949bb146101905780631fa91625146101cc575b005b34801561012257600080fd5b506101496004803603602081101561013957600080fd5b50356001600160a01b0316610576565b604080519115158252519081900360200190f35b34801561016957600080fd5b506101496004803603602081101561018057600080fd5b50356001600160a01b031661086d565b34801561019c57600080fd5b506101ba600480360360208110156101b357600080fd5b5035610b98565b60408051918252519081900360200190f35b3480156101d857600080fd5b50610149600480360360208110156101ef57600080fd5b5035610baa565b34801561020257600080fd5b506101ba6004803603608081101561021957600080fd5b6001600160a01b038235169160208101359181019060608101604082013564010000000081111561024957600080fd5b82018360208201111561025b57600080fd5b8035906020019184600183028401116401000000008311171561027d57600080fd5b919350915035610ca7565b34801561029457600080fd5b50610149600480360360208110156102ab57600080fd5b5035610fe3565b3480156102be57600080fd5b50610149600480360360208110156102d557600080fd5b50356001600160a01b03166112b2565b3480156102f157600080fd5b506101496004803603604081101561030857600080fd5b50803590602001356001600160a01b03166112c7565b34801561032a57600080fd5b506101ba6112e7565b34801561033f57600080fd5b5061035d6004803603602081101561035657600080fd5b50356112ed565b604080516001600160a01b039092168252519081900360200190f35b34801561038557600080fd5b506103a36004803603602081101561039c57600080fd5b5035611314565b60405180866001600160a01b03166001600160a01b031681526020018581526020018060200184151515158152602001838152602001828103825285818151815260200191508051906020019080838360005b8381101561040e5781810151838201526020016103f6565b50505050905090810190601f16801561043b5780820380516001836020036101000a031916815260200191505b50965050505050505060405180910390f35b34801561045957600080fd5b506101ba6004803603602081101561047057600080fd5b50356001600160a01b03166113da565b34801561048c57600080fd5b506101ba6113ec565b3480156104a157600080fd5b50610149600480360360208110156104b857600080fd5b50356113f2565b3480156104cb57600080fd5b50610149600480360360208110156104e257600080fd5b50356116db565b3480156104f557600080fd5b506101496004803603604081101561050c57600080fd5b50803590602001356001600160a01b03166117ca565b34801561052e57600080fd5b506101ba611978565b34801561054357600080fd5b506101496004803603602081101561055a57600080fd5b503561197d565b34801561056d57600080fd5b506101ba611c69565b60408051808201909152601b8152600080516020611d8283398151915260208201526000903330146106265760405162461bcd60e51b81526004018080602001828103825283818151815260200191508051906020019080838360005b838110156105eb5781810151838201526020016105d3565b50505050905090810190601f1680156106185780820380516001836020036101000a031916815260200191505b509250505060405180910390fd5b5060408051808201909152601081526f4552525f5a45524f5f4144445245535360801b602082015282906001600160a01b0382166106a55760405162461bcd60e51b81526020600482018181528351602484015283519092839260449091019190850190808383600083156105eb5781810151838201526020016105d3565b506001600160a01b03831660009081526020818152604091829020548251808401909352601083526f4552525f53414d455f4144445245535360801b9183019190915284919060ff161561073a5760405162461bcd60e51b81526020600482018181528351602484015283519092839260449091019190850190808383600083156105eb5781810151838201526020016105d3565b50600254601e9061074c906001611c6f565b11156040518060400160405280601781526020017611549497d3d5d3915497d350561253555357d312535255604a1b815250906107ca5760405162461bcd60e51b81526020600482018181528351602484015283519092839260449091019190850190808383600083156105eb5781810151838201526020016105d3565b50600280546001600160a01b038616600081815260016020818152604080842095909555829052838220805460ff191682179055845490810185559381527f405787fa12a823e0f2b7631cc41b3ba8828b3321ca811111fa75cd3aa3bb5ace90930180546001600160a01b03191682179055905190917f994a936646fe87ffe4f1e469d3d6aa417d6b855598397f323de5b449f765f0c391a25060019392505050565b60408051808201909152601b8152600080516020611d8283398151915260208201526000903330146108e05760405162461bcd60e51b81526020600482018181528351602484015283519092839260449091019190850190808383600083156105eb5781810151838201526020016105d3565b5060408051808201909152601081526f4552525f5a45524f5f4144445245535360801b602082015282906001600160a01b03821661095f5760405162461bcd60e51b81526020600482018181528351602484015283519092839260449091019190850190808383600083156105eb5781810151838201526020016105d3565b506001600160a01b03831660009081526020818152604091829020548251808401909352601b8352600080516020611d828339815191529183019190915284919060ff166109ee5760405162461bcd60e51b81526020600482018181528351602484015283519092839260449091019190850190808383600083156105eb5781810151838201526020016105d3565b506002546001906109ff9082611c85565b10156040518060400160405280601781526020017f4552525f4f574e45525f4d494e494d554d5f4c494d495400000000000000000081525090610a835760405162461bcd60e51b81526020600482018181528351602484015283519092839260449091019190850190808383600083156105eb5781810151838201526020016105d3565b506001600160a01b038416600090815260208181526040808320805460ff19169055600191829052822054600280549193929091610ac091611c85565b81548110610aca57fe5b600091825260209091200154600280546001600160a01b039092169250829184908110610af357fe5b600091825260208083209190910180546001600160a01b0319166001600160a01b03948516179055918316815260019182905260409020839055600254610b3991611c85565b610b44600282611cbd565b506002546003541115610b58576002546003555b6040516001600160a01b038716907f58619076adf5bb0943d100ef88d52d7c3fd691b19d3a9071b555b651fbf418da90600090a250600195945050505050565b60066020526000908152604090205481565b60408051808201909152601b8152600080516020611d828339815191526020820152600090333014610c1d5760405162461bcd60e51b81526020600482018181528351602484015283519092839260449091019190850190808383600083156105eb5781810151838201526020016105d3565b5060025460408051808201909152601681527511549497d0d3d39192549350551253d397d31253525560521b602082015290831115610c9d5760405162461bcd60e51b81526020600482018181528351602484015283519092839260449091019190850190808383600083156105eb5781810151838201526020016105d3565b5050600355600190565b33600081815260208181526040808320548151808301909252601b8252600080516020611d82833981519152928201929092529192919060ff16610d2c5760405162461bcd60e51b81526020600482018181528351602484015283519092839260449091019190850190808383600083156105eb5781810151838201526020016105d3565b5060408051808201909152601081526f4552525f5a45524f5f4144445245535360801b602082015287906001600160a01b038216610dab5760405162461bcd60e51b81526020600482018181528351602484015283519092839260449091019190850190808383600083156105eb5781810151838201526020016105d3565b506003548410156040518060400160405280601681526020017511549497d0d3d39192549350551253d397d31253525560521b81525090610e2d5760405162461bcd60e51b81526020600482018181528351602484015283519092839260449091019190850190808383600083156105eb5781810151838201526020016105d3565b5060025460408051808201909152601781527611549497d3d5d3915497d350561253555357d312535255604a1b602082015290851115610eae5760405162461bcd60e51b81526020600482018181528351602484015283519092839260449091019190850190808383600083156105eb5781810151838201526020016105d3565b5060085492506040518060a00160405280896001600160a01b0316815260200188815260200187878080601f0160208091040260200160405190810160405280939291908181526020018383808284376000920182905250938552505050602080830182905260409283018890528682526005815290829020835181546001600160a01b0319166001600160a01b03909116178155838201516001820155918301518051610f629260028501920190611ce6565b50606082015160038201805460ff19169115159190911790556080909101516004909101556008546040805133815290517f412375af5bd50dcf9f724ae90ab27b8092c75ff7c4b120b017fbcb7384049cf1916020908290030190a2610fcb6008546001611c6f565b600855610fd7836113f2565b50505095945050505050565b33600081815260208181526040808320548151808301909252601b8252600080516020611d82833981519152928201929092529192919060ff166110685760405162461bcd60e51b81526020600482018181528351602484015283519092839260449091019190850190808383600083156105eb5781810151838201526020016105d3565b5060008381526005602090815260409182902054825180840190935260158352744552525f5452414e5f4e4f545f4156494c41424c4560581b918301919091528491906001600160a01b03166110ff5760405162461bcd60e51b81526020600482018181528351602484015283519092839260449091019190850190808383600083156105eb5781810151838201526020016105d3565b50600081815260056020908152604091829020600301548251808401909352601983527811549497d514905397d053149150511657d1561550d0551151603a1b9183019190915260ff16156111955760405162461bcd60e51b81526020600482018181528351602484015283519092839260449091019190850190808383600083156105eb5781810151838201526020016105d3565b506000848152600760209081526040808320338452825291829020548251808401909352601383527211549497d514905397d393d517d4d251d39151606a1b9183019190915260ff166112295760405162461bcd60e51b81526020600482018181528351602484015283519092839260449091019190850190808383600083156105eb5781810151838201526020016105d3565b5060008481526007602090815260408083203384528252808320805460ff191690558683526006909152902054611261906001611c85565b600085815260066020908152604091829020929092558051338152905186927fc604bfed3acf21d53a27ee0735b712b9d3e6691f4df5888f91a0bb5f128f5d13928290030190a25060019392505050565b60006020819052908152604090205460ff1681565b600760209081526000928352604080842090915290825290205460ff1681565b60035481565b600281815481106112fa57fe5b6000918252602090912001546001600160a01b0316905081565b60056020908152600091825260409182902080546001808301546002808501805488516101009582161595909502600019011691909104601f81018790048702840187019097528683526001600160a01b039093169590949192918301828280156113c05780601f10611395576101008083540402835291602001916113c0565b820191906000526020600020905b8154815290600101906020018083116113a357829003601f168201915b505050506003830154600490930154919260ff1691905085565b60016020526000908152604090205481565b60085481565b33600081815260208181526040808320548151808301909252601b8252600080516020611d82833981519152928201929092529192919060ff166114775760405162461bcd60e51b81526020600482018181528351602484015283519092839260449091019190850190808383600083156105eb5781810151838201526020016105d3565b5060008381526005602090815260409182902054825180840190935260158352744552525f5452414e5f4e4f545f4156494c41424c4560581b918301919091528491906001600160a01b031661150e5760405162461bcd60e51b81526020600482018181528351602484015283519092839260449091019190850190808383600083156105eb5781810151838201526020016105d3565b50600081815260056020908152604091829020600301548251808401909352601983527811549497d514905397d053149150511657d1561550d0551151603a1b9183019190915260ff16156115a45760405162461bcd60e51b81526020600482018181528351602484015283519092839260449091019190850190808383600083156105eb5781810151838201526020016105d3565b506000848152600760209081526040808320338452825291829020548251808401909352601783527f4552525f5452414e5f414c52454144595f5349474e45440000000000000000009183019190915260ff16156116435760405162461bcd60e51b81526020600482018181528351602484015283519092839260449091019190850190808383600083156105eb5781810151838201526020016105d3565b5060008481526007602090815260408083203384528252808320805460ff1916600190811790915587845260069092529091205461168091611c6f565b600085815260066020908152604091829020929092558051338152905186927f15c2f311c9e0f53b50388279894aeff029a3457884a6601e924fca879e12adcc928290030190a26116d08461197d565b506001949350505050565b60408051808201909152601b8152600080516020611d82833981519152602082015260009033301461174e5760405162461bcd60e51b81526020600482018181528351602484015283519092839260449091019190850190808383600083156105eb5781810151838201526020016105d3565b5060408051808201909152600e81526d4552525f5a45524f5f56414c554560901b6020820152826117c05760405162461bcd60e51b81526020600482018181528351602484015283519092839260449091019190850190808383600083156105eb5781810151838201526020016105d3565b5050600455600190565b60408051808201909152601b8152600080516020611d82833981519152602082015260009033301461183d5760405162461bcd60e51b81526020600482018181528351602484015283519092839260449091019190850190808383600083156105eb5781810151838201526020016105d3565b5060408051808201909152601081526f4552525f5a45524f5f4144445245535360801b602082015282906001600160a01b0382166118bc5760405162461bcd60e51b81526020600482018181528351602484015283519092839260449091019190850190808383600083156105eb5781810151838201526020016105d3565b506040805180820190915260158152744552525f5452414e5f4e4f545f4156494c41424c4560581b602082015230318511156119395760405162461bcd60e51b81526020600482018181528351602484015283519092839260449091019190850190808383600083156105eb5781810151838201526020016105d3565b506040516001600160a01b0384169085156108fc029086906000818181858888f19350505050158015611970573d6000803e3d6000fd5b505092915050565b601e81565b33600081815260208181526040808320548151808301909252601b8252600080516020611d82833981519152928201929092529192919060ff16611a025760405162461bcd60e51b81526020600482018181528351602484015283519092839260449091019190850190808383600083156105eb5781810151838201526020016105d3565b5060008381526005602090815260409182902054825180840190935260158352744552525f5452414e5f4e4f545f4156494c41424c4560581b918301919091528491906001600160a01b0316611a995760405162461bcd60e51b81526020600482018181528351602484015283519092839260449091019190850190808383600083156105eb5781810151838201526020016105d3565b50600081815260056020908152604091829020600301548251808401909352601983527811549497d514905397d053149150511657d1561550d0551151603a1b9183019190915260ff1615611b2f5760405162461bcd60e51b81526020600482018181528351602484015283519092839260449091019190850190808383600083156105eb5781810151838201526020016105d3565b5060008481526005602090815260408083206004015460069092529091205410611c5f57600084815260056020908152604080832080546001808301546002808501805487516101009582161595909502600019011691909104601f8101889004880284018801909652858352939695611c11956001600160a01b039094169491939291908390830182828015611c075780601f10611bdc57610100808354040283529160200191611c07565b820191906000526020600020905b815481529060010190602001808311611bea57829003601f168201915b5050505050611c97565b60038301805482151560ff199091168117909155604080519182525191925087917faa0c40ff472fe25c104aa5abc146463d2406b1776171d7da7c274285b98c9fee9181900360200190a250505b5060019392505050565b60045481565b600082820183811015611c7e57fe5b9392505050565b600082821115611c9157fe5b50900390565b600454604051600091829160208501838288838b8d885a03f19998505050505050505050565b815481835581811115611ce157600083815260209020611ce1918101908301611d64565b505050565b828054600181600116156101000203166002900490600052602060002090601f016020900481019282601f10611d2757805160ff1916838001178555611d54565b82800160010185558215611d54579182015b82811115611d54578251825591602001919060010190611d39565b50611d60929150611d64565b5090565b611d7e91905b80821115611d605760008155600101611d6a565b9056fe4552525f415554484f52495a45445f414444524553535f4f4e4c590000000000a265627a7a72305820e78b57f074369f106fe7b9fe2ad0c71ac6e2a02abcf7a25e09f9e866ab25bf4264736f6c63430005090032",
  "source": "pragma solidity ^0.5.9;\n\nimport \"./SafeMath.sol\";\n\n\ncontract Constant {\n    \n    string constant ERR_SAME_ADDRESS = \"ERR_SAME_ADDRESS\";\n\n    string constant ERR_CONTRACT_SELF_ADDRESS = \"ERR_CONTRACT_SELF_ADDRESS\";\n\n    string constant ERR_ZERO_ADDRESS = \"ERR_ZERO_ADDRESS\";\n\n    string constant ERR_ZERO_VALUE = \"ERR_ZERO_VALUE\";\n\n    string constant ERR_AUTHORIZED_ADDRESS_ONLY = \"ERR_AUTHORIZED_ADDRESS_ONLY\";\n\n    string constant ERR_OWNER_MAXIMUM_LIMIT = \"ERR_OWNER_MAXIMUM_LIMIT\";\n\n    string constant ERR_OWNER_MINIMUM_LIMIT = \"ERR_OWNER_MINIMUM_LIMIT\";\n\n    string constant ERR_CONFIRMATION_LIMIT = \"ERR_CONFIRMATION_LIMIT\";\n\n    string constant ERR_TRAN_NOT_AVILABLE = \"ERR_TRAN_NOT_AVILABLE\";\n\n    string constant ERR_TRAN_ALREADY_EXUCATED = \"ERR_TRAN_ALREADY_EXUCATED\";\n\n    string constant ERR_TRAN_ALREADY_SIGNED = \"ERR_TRAN_ALREADY_SIGNED\";\n\n    string constant ERR_TRAN_NOT_SIGNED = \"ERR_TRAN_NOT_SIGNED\";\n\n    // validates an address is not zero\n    modifier notZeroAddress(address _which) {\n        require(_which != address(0), ERR_ZERO_ADDRESS);\n        _;\n    }\n\n}\n\n\ncontract Ownable is Constant, SafeMath {\n    \n    uint256 public constant MAX_OWNERS_ALLOWED = 30;\n\n    mapping(address => bool) public isOwner;\n\n    mapping(address => uint256) public ownerIndex;\n\n    address[] public multiSigOwners;\n\n    uint256 public minConfirmationsRequired;\n\n    modifier onlyAuthorized() {\n        require(msg.sender == address(this), ERR_AUTHORIZED_ADDRESS_ONLY);\n        _;\n    }\n\n    modifier notOwner(address _which) {\n        require(!isOwner[_which], ERR_SAME_ADDRESS);\n        _;\n    }\n\n    modifier shoudBeOwner(address _which) {\n        require(isOwner[_which], ERR_AUTHORIZED_ADDRESS_ONLY);\n        _;\n    }\n\n    event OwnerAdded(address indexed owner);\n    event OwnerRemoved(address indexed owner);\n\n    function addNewOwner(address _owner)\n        external\n        onlyAuthorized()\n        notZeroAddress(_owner)\n        notOwner(_owner)\n        returns (bool)\n    {\n        require(\n            safeAdd(multiSigOwners.length, 1) <= MAX_OWNERS_ALLOWED,\n            ERR_OWNER_MAXIMUM_LIMIT\n        );\n\n        ownerIndex[_owner] = multiSigOwners.length;\n        isOwner[_owner] = true;\n        multiSigOwners.push(_owner);\n        emit OwnerAdded(_owner);\n        return true;\n    }\n\n    function removeOwner(address _owner)\n        external\n        onlyAuthorized()\n        notZeroAddress(_owner)\n        shoudBeOwner(_owner)\n        returns (bool)\n    {\n        require(\n            safeSub(multiSigOwners.length, 1) >= 1,\n            ERR_OWNER_MINIMUM_LIMIT\n        );\n\n        isOwner[_owner] = false;\n\n        uint256 _ownerIndex = ownerIndex[_owner];\n\n        address _lastAdress = multiSigOwners[safeSub(multiSigOwners.length, 1)];\n\n        multiSigOwners[_ownerIndex] = _lastAdress;\n\n        ownerIndex[_lastAdress] = _ownerIndex;\n\n        multiSigOwners.length = safeSub(multiSigOwners.length, 1);\n\n        if (minConfirmationsRequired > multiSigOwners.length)\n            minConfirmationsRequired = multiSigOwners.length;\n\n        emit OwnerRemoved(_owner);\n        return true;\n    }\n\n    function changeMinConfirmationsRequired(uint256 _minConfirmationsRequired)\n        external\n        onlyAuthorized()\n        returns (bool)\n    {\n        require(\n            multiSigOwners.length >= _minConfirmationsRequired,\n            ERR_CONFIRMATION_LIMIT\n        );\n        minConfirmationsRequired = _minConfirmationsRequired;\n        return true;\n    }\n}\n\n\ncontract MultiSigGovernance is Ownable {\n    struct Transaction {\n        address destination;\n        uint256 value;\n        bytes data;\n        bool executed;\n        uint256 confirmationsRequired;\n    }\n\n    uint256 public _gas = 34710;\n\n    mapping(uint256 => Transaction) public transactions;\n\n    mapping(uint256 => uint256) public confirmationsCount;\n\n    mapping(uint256 => mapping(address => bool)) public confirmations;\n\n    uint256 public transactionCount;\n\n    event NewTransactionAdded(uint256 indexed transactionId, address owner);\n    event TransactionConfirmed(uint256 indexed transactionId, address owner);\n    event TransactionConfirmationRevoked(\n        uint256 indexed transactionId,\n        address owner\n    );\n    event TransactionExecuted(uint256 indexed transactionId, bool isSuccess);\n\n    modifier notExecuted(uint256 transactionId) {\n        require(\n            transactions[transactionId].destination != address(0),\n            ERR_TRAN_NOT_AVILABLE\n        );\n        require(\n            transactions[transactionId].executed == false,\n            ERR_TRAN_ALREADY_EXUCATED\n        );\n        _;\n    }\n\n    constructor(\n        address[] memory _multiSigOwners,\n        uint256 _minConfirmationsRequired\n    ) public {\n        require(\n            _multiSigOwners.length >= _minConfirmationsRequired,\n            ERR_CONFIRMATION_LIMIT\n        );\n\n        for (uint256 i = 0; i < _multiSigOwners.length; i++) {\n            require(\n                isOwner[_multiSigOwners[i]] == false &&\n                    _multiSigOwners[i] != address(0),\n                ERR_SAME_ADDRESS\n            );\n            isOwner[_multiSigOwners[i]] = true;\n            ownerIndex[_multiSigOwners[i]] = i;\n        }\n        multiSigOwners = _multiSigOwners;\n        minConfirmationsRequired = _minConfirmationsRequired;\n    }\n\n    function updateGas(uint256 _newGas)\n        external\n        onlyAuthorized()\n        returns (bool)\n    {\n        require(_newGas > 0, ERR_ZERO_VALUE);\n        _gas = _newGas;\n        return true;\n    }\n\n    function external_call(\n        address destination,\n        uint256 value,\n        uint256 dataLength,\n        bytes memory data\n    ) private returns (bool) {\n        bool result;\n        uint256 newGas = _gas;\n        assembly {\n            let x := mload(0x40)\n            let d := add(data, 32)\n            result := call(\n                sub(gas, newGas),\n                destination,\n                value,\n                d,\n                dataLength,\n                x,\n                0\n            )\n        }\n        return result;\n    }\n\n    function addTransaction(\n        address destination,\n        uint256 value,\n        bytes calldata data,\n        uint256 _confirmationsRequired\n    )\n        external\n        shoudBeOwner(msg.sender)\n        notZeroAddress(destination)\n        returns (uint256 transactionId)\n    {\n        require(\n            _confirmationsRequired >= minConfirmationsRequired,\n            ERR_CONFIRMATION_LIMIT\n        );\n\n        require(\n            multiSigOwners.length  >= _confirmationsRequired,\n            ERR_OWNER_MAXIMUM_LIMIT\n        );\n\n        transactionId = transactionCount;\n\n        transactions[transactionId] = Transaction({\n            destination: destination,\n            value: value,\n            data: data,\n            executed: false,\n            confirmationsRequired: _confirmationsRequired\n        });\n        emit NewTransactionAdded(transactionCount, msg.sender);\n        transactionCount = safeAdd(transactionCount, 1);\n        confirmTransaction(transactionId);\n        return transactionId;\n    }\n\n    function confirmTransaction(uint256 transactionId)\n        public\n        shoudBeOwner(msg.sender)\n        notExecuted(transactionId)\n        returns (bool)\n    {\n        require(\n            !confirmations[transactionId][msg.sender],\n            ERR_TRAN_ALREADY_SIGNED\n        );\n        confirmations[transactionId][msg.sender] = true;\n        \n        confirmationsCount[transactionId] = safeAdd(\n            confirmationsCount[transactionId],\n            1\n        );\n        \n        emit TransactionConfirmed(transactionId, msg.sender);\n        \n        executeTransaction(transactionId);\n        \n        return true;\n    }\n\n    function revokeConfirmation(uint256 transactionId)\n        public\n        shoudBeOwner(msg.sender)\n        notExecuted(transactionId)\n        returns (bool)\n    {\n        require(confirmations[transactionId][msg.sender], ERR_TRAN_NOT_SIGNED);\n        confirmations[transactionId][msg.sender] = false;\n        confirmationsCount[transactionId] = safeSub(\n            confirmationsCount[transactionId],\n            1\n        );\n        emit TransactionConfirmationRevoked(transactionId, msg.sender);\n        return true;\n    }\n\n    function executeTransaction(uint256 transactionId)\n        public\n        shoudBeOwner(msg.sender)\n        notExecuted(transactionId)\n        returns (bool)\n    {\n        if(confirmationsCount[transactionId]  >= transactions[transactionId].confirmationsRequired) {\n            Transaction storage txn = transactions[transactionId];\n            bool result = external_call(\n                txn.destination,\n                txn.value,\n                txn.data.length,\n                txn.data\n            );\n            txn.executed = result;\n            emit TransactionExecuted(transactionId, result);\n        }\n        return true;\n    }\n    \n    function withDrawEth(uint256 balance,address payable _address) external onlyAuthorized() notZeroAddress(_address) returns(bool){\n        require(address(this).balance >= balance,ERR_TRAN_NOT_AVILABLE);\n        _address.transfer(balance);\n    }\n    \n    function() external payable{\n    \n    }\n}\n\n",
  "sourcePath": "/home/mind/Work/Projects/Jointer/Jointer_auction/NewContracts/contracts/common/MultiSigGovernance.sol",
  "compiler": {
    "name": "solc",
    "version": "0.5.9+commit.e560f70d.Emscripten.clang"
  },
  "schemaVersion": "3.0.16",
  "updatedAt": "2020-05-07T07:18:51.326Z",
  "devdoc": {
    "methods": {}
  },
  "userdoc": {
    "methods": {}
  }
}