{
  "contractName": "Ownable",
  "abi": [
    {
      "constant": true,
      "inputs": [],
      "name": "newAuthorityAddress",
      "outputs": [
        {
          "name": "",
          "type": "address"
        }
      ],
      "payable": false,
      "stateMutability": "view",
      "type": "function"
    },
    {
      "constant": true,
      "inputs": [],
      "name": "authorityAddress",
      "outputs": [
        {
          "name": "",
          "type": "address"
        }
      ],
      "payable": false,
      "stateMutability": "view",
      "type": "function"
    },
    {
      "constant": true,
      "inputs": [],
      "name": "primaryOwner",
      "outputs": [
        {
          "name": "",
          "type": "address"
        }
      ],
      "payable": false,
      "stateMutability": "view",
      "type": "function"
    },
    {
      "constant": true,
      "inputs": [],
      "name": "systemAddress",
      "outputs": [
        {
          "name": "",
          "type": "address"
        }
      ],
      "payable": false,
      "stateMutability": "view",
      "type": "function"
    },
    {
      "inputs": [
        {
          "name": "_systemAddress",
          "type": "address"
        },
        {
          "name": "_authorityAddress",
          "type": "address"
        }
      ],
      "payable": false,
      "stateMutability": "nonpayable",
      "type": "constructor"
    },
    {
      "anonymous": false,
      "inputs": [
        {
          "indexed": false,
          "name": "ownerType",
          "type": "string"
        },
        {
          "indexed": true,
          "name": "previousOwner",
          "type": "address"
        },
        {
          "indexed": true,
          "name": "newOwner",
          "type": "address"
        }
      ],
      "name": "OwnershipTransferred",
      "type": "event"
    },
    {
      "anonymous": false,
      "inputs": [
        {
          "indexed": true,
          "name": "previousOwner",
          "type": "address"
        },
        {
          "indexed": true,
          "name": "newOwner",
          "type": "address"
        }
      ],
      "name": "AuthorityAddressChnageCall",
      "type": "event"
    },
    {
      "constant": false,
      "inputs": [
        {
          "name": "_which",
          "type": "address"
        }
      ],
      "name": "changePrimaryOwner",
      "outputs": [
        {
          "name": "",
          "type": "bool"
        }
      ],
      "payable": false,
      "stateMutability": "nonpayable",
      "type": "function"
    },
    {
      "constant": false,
      "inputs": [
        {
          "name": "_which",
          "type": "address"
        }
      ],
      "name": "changeSystemAddress",
      "outputs": [
        {
          "name": "",
          "type": "bool"
        }
      ],
      "payable": false,
      "stateMutability": "nonpayable",
      "type": "function"
    },
    {
      "constant": false,
      "inputs": [
        {
          "name": "_which",
          "type": "address"
        }
      ],
      "name": "changeAuthorityAddress",
      "outputs": [
        {
          "name": "",
          "type": "bool"
        }
      ],
      "payable": false,
      "stateMutability": "nonpayable",
      "type": "function"
    },
    {
      "constant": false,
      "inputs": [],
      "name": "acceptAuthorityAddress",
      "outputs": [
        {
          "name": "",
          "type": "bool"
        }
      ],
      "payable": false,
      "stateMutability": "nonpayable",
      "type": "function"
    }
  ],
  "bytecode": "0x6080604052600080546001600160a01b03199081169091556001805482169055600280548216905560038054909116905534801561003c57600080fd5b50604051610dc9380380610dc98339818101604052604081101561005f57600080fd5b50805160209182015160408051808201909152601081527f4552525f5a45524f5f414444524553530000000000000000000000000000000093810193909352909182906001600160a01b03821661014e576040517f08c379a00000000000000000000000000000000000000000000000000000000081526004018080602001828103825283818151815260200191508051906020019080838360005b838110156101135781810151838201526020016100fb565b50505050905090810190601f1680156101405780820380516001836020036101000a031916815260200191505b509250505060405180910390fd5b5060408051808201909152601081527f4552525f53414d455f41444452455353000000000000000000000000000000006020820152336001600160a01b03851614156101f5576040517f08c379a00000000000000000000000000000000000000000000000000000000081526020600482018181528351602484015283519092839260449091019190850190808383600083156101135781810151838201526020016100fb565b50816001600160a01b0316836001600160a01b031614156040518060400160405280601081526020017f4552525f53414d455f4144445245535300000000000000000000000000000000815250906102a8576040517f08c379a00000000000000000000000000000000000000000000000000000000081526020600482018181528351602484015283519092839260449091019190850190808383600083156101135781810151838201526020016100fb565b5060408051808201909152601081527f4552525f53414d455f41444452455353000000000000000000000000000000006020820152336001600160a01b038416141561034f576040517f08c379a00000000000000000000000000000000000000000000000000000000081526020600482018181528351602484015283519092839260449091019190850190808383600083156101135781810151838201526020016100fb565b5050600080546001600160a01b03199081163317909155600280546001600160a01b0394851690831617905560018054929093169116179055610a32806103976000396000f3fe608060405234801561001057600080fd5b50600436106100885760003560e01c80638e10be331161005b5780638e10be33146100fb5780638f51368b14610103578063c4d3426814610129578063d3e848f11461014f57610088565b806304d630891461008d5780630abaad7a146100c757806320c462fe146100eb5780633c695d4e146100f3575b600080fd5b6100b3600480360360208110156100a357600080fd5b50356001600160a01b0316610157565b604080519115158252519081900360200190f35b6100cf610468565b604080516001600160a01b039092168252519081900360200190f35b6100b3610477565b6100cf61058c565b6100cf61059b565b6100b36004803603602081101561011957600080fd5b50356001600160a01b03166105aa565b6100b36004803603602081101561013f57600080fd5b50356001600160a01b031661078b565b6100cf6109ce565b60015460408051808201909152601b81526000805160206109de83398151915260208201526000916001600160a01b031633146102125760405162461bcd60e51b81526004018080602001828103825283818151815260200191508051906020019080838360005b838110156101d75781810151838201526020016101bf565b50505050905090810190601f1680156102045780820380516001836020036101000a031916815260200191505b509250505060405180910390fd5b5060408051808201909152601981527f4552525f434f4e54524143545f53454c465f4144445245535300000000000000602082015282906001600160a01b0382163014156102a15760405162461bcd60e51b81526020600482018181528351602484015283519092839260449091019190850190808383600083156101d75781810151838201526020016101bf565b5060408051808201909152601081526f4552525f5a45524f5f4144445245535360801b602082015283906001600160a01b0382166103205760405162461bcd60e51b81526020600482018181528351602484015283519092839260449091019190850190808383600083156101d75781810151838201526020016101bf565b506002546001600160a01b0385811691161480159061034d57506001546001600160a01b03858116911614155b801561036757506000546001600160a01b03858116911614155b6040518060400160405280601081526020016f4552525f53414d455f4144445245535360801b815250906103dc5760405162461bcd60e51b81526020600482018181528351602484015283519092839260449091019190850190808383600083156101d75781810151838201526020016101bf565b50600254604080516020808252600e908201526d53595354454d5f4144445245535360901b8183015290516001600160a01b038088169316917f6840904f5b31827f74e1497360da245f56e530c8c3de3163a2d31f11493273c6919081900360600190a3600280546001600160a01b0386166001600160a01b0319909116179055600192505050919050565b6003546001600160a01b031681565b60035460408051808201909152601b81526000805160206109de83398151915260208201526000916001600160a01b031633146104f55760405162461bcd60e51b81526020600482018181528351602484015283519092839260449091019190850190808383600083156101d75781810151838201526020016101bf565b5060035460015460408051602080825260119082015270415554484f524954595f4144445245535360781b8183015290516001600160a01b039384169392909216917f6840904f5b31827f74e1497360da245f56e530c8c3de3163a2d31f11493273c69181900360600190a35060038054600180546001600160a01b03199081166001600160a01b03841617825590911690915590565b6001546001600160a01b031681565b6000546001600160a01b031681565b60015460408051808201909152601b81526000805160206109de83398151915260208201526000916001600160a01b031633146106285760405162461bcd60e51b81526020600482018181528351602484015283519092839260449091019190850190808383600083156101d75781810151838201526020016101bf565b5060408051808201909152601081526f4552525f5a45524f5f4144445245535360801b602082015282906001600160a01b0382166106a75760405162461bcd60e51b81526020600482018181528351602484015283519092839260449091019190850190808383600083156101d75781810151838201526020016101bf565b506002546001600160a01b038481169116148015906106d457506001546001600160a01b03848116911614155b80156106ee57506000546001600160a01b03848116911614155b6040518060400160405280601081526020016f4552525f53414d455f4144445245535360801b815250906107635760405162461bcd60e51b81526020600482018181528351602484015283519092839260449091019190850190808383600083156101d75781810151838201526020016101bf565b50600380546001600160a01b0385166001600160a01b03199091161790556001915050919050565b60015460408051808201909152601b81526000805160206109de83398151915260208201526000916001600160a01b031633146108095760405162461bcd60e51b81526020600482018181528351602484015283519092839260449091019190850190808383600083156101d75781810151838201526020016101bf565b5060408051808201909152601081526f4552525f5a45524f5f4144445245535360801b602082015282906001600160a01b0382166108885760405162461bcd60e51b81526020600482018181528351602484015283519092839260449091019190850190808383600083156101d75781810151838201526020016101bf565b506002546001600160a01b038481169116148015906108b557506001546001600160a01b03848116911614155b80156108cf57506000546001600160a01b03848116911614155b6040518060400160405280601081526020016f4552525f53414d455f4144445245535360801b815250906109445760405162461bcd60e51b81526020600482018181528351602484015283519092839260449091019190850190808383600083156101d75781810151838201526020016101bf565b50600054604080516020808252600d908201526c282924a6a0a92cafa7aba722a960991b8183015290516001600160a01b038087169316917f6840904f5b31827f74e1497360da245f56e530c8c3de3163a2d31f11493273c6919081900360600190a3600080546001600160a01b0385166001600160a01b03199091161790556001915050919050565b6002546001600160a01b03168156fe4552525f415554484f52495a45445f414444524553535f4f4e4c590000000000a265627a7a72305820183f940e862dfb7dfd89856a4da5647cbefdd38892c0d002c3149e4dc278203964736f6c63430005090032",
  "source": "pragma solidity ^0.5.9;\nimport './Constant.sol';\n\ncontract Ownable is Constant{\n    \n\n    address public primaryOwner = address(0);\n    \n    address public authorityAddress = address(0);\n    \n    address public systemAddress = address(0);\n    \n    address public newAuthorityAddress = address(0);\n    \n    \n    \n    event OwnershipTransferred(string ownerType,address indexed previousOwner, address indexed newOwner);\n    event AuthorityAddressChnageCall(address indexed previousOwner, address indexed newOwner);\n    \n    \n    /**\n    * @dev The Ownable constructor sets the `primaryOwner` and `systemAddress` and '_multisigAddress'\n    * account.\n    */\n    constructor(address _systemAddress,address _authorityAddress) public  notZeroAddress(_systemAddress){\n        \n        require(msg.sender != _systemAddress,ERR_SAME_ADDRESS);\n        \n        require(_systemAddress != _authorityAddress,ERR_SAME_ADDRESS);\n        \n        require(msg.sender != _authorityAddress,ERR_SAME_ADDRESS);\n        \n        primaryOwner = msg.sender;\n        \n        systemAddress = _systemAddress;\n        \n        authorityAddress = _authorityAddress;\n    }\n    \n    modifier onlyOwner() {\n        require(msg.sender == primaryOwner,ERR_AUTHORIZED_ADDRESS_ONLY);\n        _;\n    }\n    \n    modifier onlySystem() {\n        require(msg.sender == systemAddress,ERR_AUTHORIZED_ADDRESS_ONLY);\n        _;\n    }\n    \n    modifier onlyOneOfOnwer(){\n        require(msg.sender == primaryOwner || msg.sender == systemAddress,ERR_AUTHORIZED_ADDRESS_ONLY);\n        _;\n    }\n    \n    modifier onlyAuthorized() {\n        require(msg.sender == authorityAddress,ERR_AUTHORIZED_ADDRESS_ONLY);\n        _;\n    }\n    \n    \n    \n    /**\n    * @dev change primary ownership\n    * @param _which The address to which is new owner address\n    */\n    function changePrimaryOwner(address _which) public onlyAuthorized() notZeroAddress(_which) returns(bool){\n        \n        require(_which != systemAddress && _which != authorityAddress && _which != primaryOwner,ERR_SAME_ADDRESS);\n        \n        emit OwnershipTransferred(\"PRIMARY_OWNER\",primaryOwner,_which);\n        \n        primaryOwner = _which;\n        \n        return true;\n    }\n    \n    \n   /**\n    * @dev change system address\n    * @param _which The address to which is new system address\n    */\n    function changeSystemAddress(address _which) public onlyAuthorized() notThisAddress(_which) notZeroAddress(_which) returns(bool){\n        require(_which != systemAddress && _which != authorityAddress && _which != primaryOwner,ERR_SAME_ADDRESS);\n        emit OwnershipTransferred(\"SYSTEM_ADDRESS\",systemAddress,_which);\n        systemAddress = _which;\n        return true;\n    }\n    \n    \n    \n\n    \n    /**\n    * @dev change system address\n    * @param _which The address to which is new Authority address\n    */\n    function changeAuthorityAddress(address _which) public onlyAuthorized() notZeroAddress(_which) returns(bool){\n        require(_which != systemAddress && _which != authorityAddress && _which != primaryOwner,ERR_SAME_ADDRESS);\n        newAuthorityAddress = _which;\n        return true;\n    }\n    \n    function acceptAuthorityAddress() public returns(bool){\n        require(msg.sender == newAuthorityAddress,ERR_AUTHORIZED_ADDRESS_ONLY);\n        emit OwnershipTransferred(\"AUTHORITY_ADDRESS\",authorityAddress,newAuthorityAddress);\n        authorityAddress = newAuthorityAddress;\n        newAuthorityAddress = address(0);\n        return true;\n    }\n    \n    \n    \n    \n    \n}",
  "sourcePath": "/home/mind/Work/Projects/Jointer/Jointer_auction/NewContracts/contracts/common/Ownable.sol",
  "compiler": {
    "name": "solc",
    "version": "0.5.9+commit.e560f70d.Emscripten.clang"
  },
  "schemaVersion": "3.0.16",
  "updatedAt": "2020-04-27T13:53:30.557Z",
  "devdoc": {
    "methods": {
      "changeAuthorityAddress(address)": {
        "details": "change system address",
        "params": {
          "_which": "The address to which is new Authority address"
        }
      },
      "changePrimaryOwner(address)": {
        "details": "change primary ownership",
        "params": {
          "_which": "The address to which is new owner address"
        }
      },
      "changeSystemAddress(address)": {
        "details": "change system address",
        "params": {
          "_which": "The address to which is new system address"
        }
      },
      "constructor": {
        "details": "The Ownable constructor sets the `primaryOwner` and `systemAddress` and '_multisigAddress' account."
      }
    }
  },
  "userdoc": {
    "methods": {}
  }
}