{
  "contractName": "ProtectionStorage",
  "abi": [
    {
      "constant": true,
      "inputs": [
        {
          "name": "",
          "type": "address"
        }
      ],
      "name": "lockedOn",
      "outputs": [
        {
          "name": "",
          "type": "uint256"
        }
      ],
      "payable": false,
      "stateMutability": "view",
      "type": "function"
    },
    {
      "constant": true,
      "inputs": [
        {
          "name": "",
          "type": "address"
        },
        {
          "name": "",
          "type": "address"
        }
      ],
      "name": "lockedFunds",
      "outputs": [
        {
          "name": "",
          "type": "uint256"
        }
      ],
      "payable": false,
      "stateMutability": "view",
      "type": "function"
    },
    {
      "constant": true,
      "inputs": [
        {
          "name": "",
          "type": "address"
        },
        {
          "name": "",
          "type": "address"
        }
      ],
      "name": "currentLockedFunds",
      "outputs": [
        {
          "name": "",
          "type": "uint256"
        }
      ],
      "payable": false,
      "stateMutability": "view",
      "type": "function"
    },
    {
      "constant": true,
      "inputs": [
        {
          "name": "",
          "type": "address"
        }
      ],
      "name": "lockedTokens",
      "outputs": [
        {
          "name": "",
          "type": "uint256"
        }
      ],
      "payable": false,
      "stateMutability": "view",
      "type": "function"
    }
  ],
  "bytecode": "0x608060405234801561001057600080fd5b5061019e806100206000396000f3fe608060405234801561001057600080fd5b506004361061004c5760003560e01c80630e470179146100515780634bdde1cf14610089578063507e3853146100b75780635eb7413a146100e5575b600080fd5b6100776004803603602081101561006757600080fd5b50356001600160a01b031661010b565b60408051918252519081900360200190f35b6100776004803603604081101561009f57600080fd5b506001600160a01b038135811691602001351661011d565b610077600480360360408110156100cd57600080fd5b506001600160a01b038135811691602001351661013a565b610077600480360360208110156100fb57600080fd5b50356001600160a01b0316610157565b60006020819052908152604090205481565b600160209081526000928352604080842090915290825290205481565b600260209081526000928352604080842090915290825290205481565b6003602052600090815260409020548156fea265627a7a7230582096c5c06f4bae87c2ef85595c9dc7634165c28761625bdb19f607b6bbb0015a0064736f6c63430005090032",
  "source": "pragma solidity ^0.5.9;\n\nimport \"../common/ProxyOwnable.sol\";\nimport \"../common/SafeMath.sol\";\nimport \"../Proxy/Upgradeable.sol\";\nimport \"../InterFaces/IAuctionRegistery.sol\";\nimport \"../InterFaces/IAuctionTagAlong.sol\";\nimport \"../InterFaces/ITokenVault.sol\";\nimport \"../InterFaces/IERC20Token.sol\";\n\n\ninterface InitializeInterface {\n    function initialize(\n        address _primaryOwner,\n        address _systemAddress,\n        address _authorityAddress,\n        address _registeryAddress\n    ) external;\n}\n\n\ncontract AuctionRegistery is ProxyOwnable, AuctionRegisteryContracts {\n    \n    IAuctionRegistery public contractsRegistry;\n    \n    function updateRegistery(address _address)\n        external\n        onlyAuthorized()\n        notZeroAddress(_address)\n        returns (bool)\n    {\n        \n        contractsRegistry = IAuctionRegistery(_address);\n        return true;\n    }\n\n    function getAddressOf(bytes32 _contractName)\n        internal\n        view\n        returns (address payable)\n    {\n        return contractsRegistry.getAddressOf(_contractName);\n    }\n    \n}\n\n\ncontract UtilsStorage {\n    \n    mapping(address => bool) public allowedAddress;\n\n    uint256 public tokenLockDuration;\n\n    address[] public allowedTokens;\n\n    mapping(address => bool) public tokenAllowed;\n\n\n    mapping(address => bool) public unLockBlock;\n    \n    uint256 public vaultRatio = 90;\n    \n    \n    \n}\n\n\ncontract Utils is SafeMath, UtilsStorage, AuctionRegistery {\n    \n    modifier allowedTokenOnly(address _which) {\n        require(tokenAllowed[_which],\"ERR_ONLY_ALLOWED_TOKEN\");\n        _;\n    }\n\n    modifier allowedAddressOnly(address _which) {\n        require(allowedAddress[_which],ERR_AUTHORIZED_ADDRESS_ONLY);\n        _;\n    }\n\n    function allowToken(address _which)\n        external\n        onlySystem()\n        notZeroAddress(_which)\n        returns (bool)\n    {\n        require(!tokenAllowed[_which], \"ERR_TOKEN_ALREADY_ALLOWED\");\n        allowedTokens.push(_which);\n        tokenAllowed[_which] = true;\n        return true;\n    }\n\n    function setAllowedAddress(address _address, bool _check)\n        external\n        onlyOneOfOnwer()\n        notZeroAddress(_address)\n        returns (bool)\n    {\n        allowedAddress[_address] = _check;\n        return true;\n    }\n\n    function setVaultRatio(uint256 _vaultRatio)\n        external\n        onlyAuthorized()\n        returns (bool)\n    {\n        require( _vaultRatio < 100);\n        vaultRatio = _vaultRatio;\n        return true;\n    }\n    \n     function setTokenLockDuration(uint256 _tokenLockDuration)\n        external\n        onlyAuthorized()\n        returns (bool)\n    {\n        tokenLockDuration = _tokenLockDuration;\n        return true;\n    }\n\n    function isTokenLockEndDay(uint256 _firstLockDay)\n        public\n        view\n        returns (bool)\n    {\n        uint256 tempDay = safeMul(86400, tokenLockDuration);\n\n        uint256 tokenLockEndDay = safeAdd(tempDay, _firstLockDay);\n\n        if (now >= tokenLockEndDay) {\n            return true;\n        }\n        \n        return false;\n    }\n}\n\n\ncontract ProtectionStorage {\n    // timestamp for address where first lock happen\n    mapping(address => uint256) public lockedOn;\n\n    mapping(address => mapping(address => uint256)) public lockedFunds;\n\n    mapping(address => mapping(address => uint256)) public currentLockedFunds;\n\n    mapping(address => uint256) public lockedTokens;\n}\n\n\ncontract AuctionProtection is\n    Upgradeable,\n    Utils,\n    ProtectionStorage,\n    InitializeInterface\n{\n    function initialize(\n        address _primaryOwner,\n        address _systemAddress,\n        address _authorityAddress,\n        address _registeryAddress\n    ) public {\n        super.initialize();\n        contractsRegistry = IAuctionRegistery(_registeryAddress);\n        tokenLockDuration = 365;\n        ProxyOwnable.initializeOwner(\n            _primaryOwner,\n            _systemAddress,\n            _authorityAddress\n        );\n    }\n\n    event TokenUnLocked(address indexed _from);\n    event InvestMentCancelled(address indexed _from);\n    event FundLocked(address _token, address _which, uint256 _amount);\n    event FundTransfer(address indexed _to, address _token, uint256 _amount);\n\n    function ensureTransferFrom(\n        IERC20Token _token,\n        address _from,\n        address _to,\n        uint256 _amount\n    ) internal {\n        uint256 prevBalance = _token.balanceOf(_to);\n        if (_from == address(this)) _token.transfer(_to, _amount);\n        else _token.transferFrom(_from, _to, _amount);\n        uint256 postBalance = _token.balanceOf(_to);\n        require(postBalance > prevBalance,\"ERR_TRANSFER\");\n    }\n\n    function approveTransferFrom(\n        IERC20Token _token,\n        address _spender,\n        uint256 _amount\n    ) internal {\n        _token.approve(_spender, _amount);\n    }\n\n    function lockBalance(address _token, address _which, uint256 _amount)\n        internal\n        returns (bool)\n    {\n        if (lockedOn[_which] == 0) lockedOn[_which] = now;\n        uint256 currentBalance = currentLockedFunds[_which][_token];\n        currentLockedFunds[_which][_token] = safeAdd(currentBalance, _amount);\n        emit FundLocked(_token, _which, _amount);\n        return true;\n    }\n\n    function lockEther(address _which)\n        public\n        payable\n        allowedAddressOnly(msg.sender)\n        returns (bool)\n    {\n        return lockBalance(address(0), _which, msg.value);\n    }\n\n    function lockTokens(\n        IERC20Token _token,\n        address _from,\n        address _which,\n        uint256 _amount\n    )\n        public\n        allowedAddressOnly(msg.sender)\n        allowedTokenOnly(address(_token))\n        returns (bool)\n    {\n        ensureTransferFrom(_token, _from, address(this), _amount);\n        return lockBalance(address(_token), _which, _amount);\n    }\n\n    function cancelInvestment() external returns (bool) {\n        \n        require(\n           !isTokenLockEndDay(lockedOn[msg.sender]),\n            \"ERR_INVESTMENT_CANCEL_PERIOD_OVER\"\n        );\n\n        uint256 _tokenBalance;\n        IERC20Token _token;\n        for (uint256 tempX = 0; tempX < allowedTokens.length; tempX++) {\n            _token = IERC20Token(allowedTokens[tempX]);\n            _tokenBalance = lockedFunds[msg.sender][address(_token)];\n            if (_tokenBalance > 0) {\n                ensureTransferFrom(\n                    _token,\n                    address(this),\n                    msg.sender,\n                    _tokenBalance\n                );\n                lockedFunds[msg.sender][address(_token)] = 0;\n                emit FundTransfer(msg.sender, address(_token), _tokenBalance);\n            }\n        }\n\n        _tokenBalance = lockedFunds[msg.sender][address(0)];\n        if (_tokenBalance > 0) {\n            msg.sender.transfer(_tokenBalance);\n            emit FundTransfer(msg.sender, address(0), _tokenBalance);\n            lockedFunds[msg.sender][address(0)] = 0;\n        }\n\n        _tokenBalance = lockedTokens[msg.sender];\n        if (_tokenBalance > 0) {\n            _token = IERC20Token(getAddressOf(MAIN_TOKEN));\n            \n            address vaultAddress = getAddressOf(VAULT);\n            \n            approveTransferFrom(_token, vaultAddress, _tokenBalance);\n            \n            ITokenVault(vaultAddress).depositeToken(\n                _token,\n                address(this),\n                _tokenBalance\n            );\n            \n            emit FundTransfer(vaultAddress, address(_token), _tokenBalance);\n            lockedTokens[msg.sender] = 0;\n        }\n        emit InvestMentCancelled(msg.sender);\n        return true;\n    }\n    \n    \n    function _unLockTokens(address _which) internal returns(bool){\n        address tagAlongAdress = getAddressOf(TAG_ALONG);\n        address payable fundWallet = getAddressOf(COMPANY_FUND_WALLET);\n        \n        uint256 _tokenBalance;\n        IERC20Token _token;\n        uint256 walletAmount;\n        uint256 tagAlongAmount;\n        \n        for (uint256 tempX = 0; tempX < allowedTokens.length; tempX++) {\n            _token = IERC20Token(allowedTokens[tempX]);\n            _tokenBalance = lockedFunds[_which][address(_token)];\n            if (_tokenBalance > 0) {\n                \n                walletAmount = safeDiv(safeMul(_tokenBalance,vaultRatio),100);\n                tagAlongAmount = safeSub(_tokenBalance,walletAmount);\n                \n                approveTransferFrom(_token, tagAlongAdress, tagAlongAmount);\n                \n                IAuctionTagAlong(tagAlongAdress).depositeToken(\n                    _token,\n                    address(this),\n                    tagAlongAmount\n                );\n                \n                ensureTransferFrom(_token,address(this),fundWallet,walletAmount);\n                \n                emit FundTransfer(\n                    tagAlongAdress,\n                    address(_token),\n                    tagAlongAmount\n                );\n                emit FundTransfer(\n                    fundWallet,\n                    address(_token),\n                    walletAmount\n                );\n                lockedFunds[_which][address(_token)] = 0;\n            }\n        }\n        _tokenBalance = lockedFunds[_which][address(0)];\n        \n        if (_tokenBalance > 0) {\n            walletAmount = safeDiv(safeMul(_tokenBalance,vaultRatio),100);\n            tagAlongAmount = safeSub(_tokenBalance,walletAmount);\n                \n            IAuctionTagAlong(tagAlongAdress).depositeEther.value(\n                tagAlongAmount\n            )();\n            \n            fundWallet.transfer(walletAmount);\n            \n            emit FundTransfer(tagAlongAdress, address(0), tagAlongAmount);\n            emit FundTransfer(fundWallet, address(0), walletAmount);\n            lockedFunds[_which][address(0)] = 0;\n        }\n        \n        _tokenBalance = lockedTokens[_which];\n         \n        if (_tokenBalance > 0) {\n            _token = IERC20Token(getAddressOf(MAIN_TOKEN));\n            ensureTransferFrom(\n                _token,\n                address(this),\n                _which,\n                _tokenBalance\n            );\n            emit FundTransfer(_which, address(_token), _tokenBalance);\n            lockedTokens[_which] = 0;\n        }\n\n        emit TokenUnLocked(_which);\n    }\n    \n    // user unlock tokens and funds goes to compnay wallet\n    function unLockTokens() external returns (bool) {\n        return _unLockTokens(msg.sender);\n    }\n\n    function unLockFundByAdmin(address _which)\n        external\n        onlyOneOfOnwer()\n        returns (bool)\n    {\n        require(isTokenLockEndDay(lockedOn[_which]),\"ERR_ADMIN_CANT_UNLOCK_FUND\");\n        return _unLockTokens(_which);\n    }\n\n\n    function depositToken(address _from, address _which, uint256 _amount)\n        external\n        allowedAddressOnly(msg.sender)\n        returns (bool)\n    {\n        IERC20Token token = IERC20Token(getAddressOf(MAIN_TOKEN));\n        ensureTransferFrom(token, _from, address(this), _amount);\n        lockedTokens[_which] = safeAdd(lockedTokens[_which], _amount);\n\n        uint256 _currentTokenBalance;\n        IERC20Token _token;\n        for (uint256 tempX = 0; tempX < allowedTokens.length; tempX++) {\n            _token = IERC20Token(allowedTokens[tempX]);\n            _currentTokenBalance = currentLockedFunds[_which][address(_token)];\n            if (_currentTokenBalance > 0) {\n                lockedFunds[msg.sender][address(_token)] = safeAdd(\n                    lockedFunds[msg.sender][address(_token)],\n                    _currentTokenBalance\n                );\n                currentLockedFunds[_which][address(_token)] = 0;\n            }\n        }\n\n        if (currentLockedFunds[_which][address(0)] > 0) {\n            _currentTokenBalance = currentLockedFunds[_which][address(0)];\n            lockedFunds[_which][address(0)] = safeAdd(\n                lockedFunds[_which][address(0)],\n                _currentTokenBalance\n            );\n            currentLockedFunds[_which][address(0)] = 0;\n        }\n\n        emit FundLocked(address(token), _which, _amount);\n        return true;\n    }\n    \n}\n",
  "sourcePath": "/home/safu/minddeft/jointerInc/jointer-token/contracts/Protection/AuctionProtection.sol",
  "compiler": {
    "name": "solc",
    "version": "0.5.9+commit.e560f70d.Emscripten.clang"
  },
  "schemaVersion": "3.1.0",
  "updatedAt": "2020-05-22T12:31:57.506Z",
  "devdoc": {
    "methods": {}
  },
  "userdoc": {
    "methods": {}
  }
}