{
  "contractName": "ProxyOwnable",
  "abi": [
    {
      "constant": true,
      "inputs": [],
      "name": "newAuthorityAddress",
      "outputs": [
        {
          "name": "",
          "type": "address"
        }
      ],
      "payable": false,
      "stateMutability": "view",
      "type": "function"
    },
    {
      "constant": true,
      "inputs": [],
      "name": "authorityAddress",
      "outputs": [
        {
          "name": "",
          "type": "address"
        }
      ],
      "payable": false,
      "stateMutability": "view",
      "type": "function"
    },
    {
      "constant": true,
      "inputs": [],
      "name": "isOwnerInitialize",
      "outputs": [
        {
          "name": "",
          "type": "bool"
        }
      ],
      "payable": false,
      "stateMutability": "view",
      "type": "function"
    },
    {
      "constant": true,
      "inputs": [],
      "name": "primaryOwner",
      "outputs": [
        {
          "name": "",
          "type": "address"
        }
      ],
      "payable": false,
      "stateMutability": "view",
      "type": "function"
    },
    {
      "constant": true,
      "inputs": [],
      "name": "systemAddress",
      "outputs": [
        {
          "name": "",
          "type": "address"
        }
      ],
      "payable": false,
      "stateMutability": "view",
      "type": "function"
    },
    {
      "anonymous": false,
      "inputs": [
        {
          "indexed": false,
          "name": "ownerType",
          "type": "string"
        },
        {
          "indexed": true,
          "name": "previousOwner",
          "type": "address"
        },
        {
          "indexed": true,
          "name": "newOwner",
          "type": "address"
        }
      ],
      "name": "OwnershipTransferred",
      "type": "event"
    },
    {
      "anonymous": false,
      "inputs": [
        {
          "indexed": true,
          "name": "previousOwner",
          "type": "address"
        },
        {
          "indexed": true,
          "name": "newOwner",
          "type": "address"
        }
      ],
      "name": "AuthorityAddressChnageCall",
      "type": "event"
    },
    {
      "constant": false,
      "inputs": [
        {
          "name": "_primaryOwner",
          "type": "address"
        },
        {
          "name": "_systemAddress",
          "type": "address"
        },
        {
          "name": "_authorityAddress",
          "type": "address"
        }
      ],
      "name": "initializeOwner",
      "outputs": [],
      "payable": false,
      "stateMutability": "nonpayable",
      "type": "function"
    },
    {
      "constant": false,
      "inputs": [
        {
          "name": "_which",
          "type": "address"
        }
      ],
      "name": "changePrimaryOwner",
      "outputs": [
        {
          "name": "",
          "type": "bool"
        }
      ],
      "payable": false,
      "stateMutability": "nonpayable",
      "type": "function"
    },
    {
      "constant": false,
      "inputs": [
        {
          "name": "_which",
          "type": "address"
        }
      ],
      "name": "changeSystemAddress",
      "outputs": [
        {
          "name": "",
          "type": "bool"
        }
      ],
      "payable": false,
      "stateMutability": "nonpayable",
      "type": "function"
    },
    {
      "constant": false,
      "inputs": [
        {
          "name": "_which",
          "type": "address"
        }
      ],
      "name": "changeAuthorityAddress",
      "outputs": [
        {
          "name": "",
          "type": "bool"
        }
      ],
      "payable": false,
      "stateMutability": "nonpayable",
      "type": "function"
    },
    {
      "constant": false,
      "inputs": [],
      "name": "acceptAuthorityAddress",
      "outputs": [
        {
          "name": "",
          "type": "bool"
        }
      ],
      "payable": false,
      "stateMutability": "nonpayable",
      "type": "function"
    }
  ],
  "bytecode": "0x6080604052600080546001600160a01b03199081169091556001805482169055600280549091169055600380546001600160a81b031916905534801561004457600080fd5b50610e70806100546000396000f3fe608060405234801561001057600080fd5b506004361061009e5760003560e01c8063760e595a11610066578063760e595a146101195780638e10be33146101535780638f51368b1461015b578063c4d3426814610181578063d3e848f1146101a75761009e565b806304d63089146100a35780630abaad7a146100dd57806320c462fe146101015780633c695d4e146101095780633ff59a5214610111575b600080fd5b6100c9600480360360208110156100b957600080fd5b50356001600160a01b03166101af565b604080519115158252519081900360200190f35b6100e56104c0565b604080516001600160a01b039092168252519081900360200190f35b6100c96104cf565b6100e56105e4565b6100c96105f3565b6101516004803603606081101561012f57600080fd5b506001600160a01b038135811691602081013582169160409091013516610603565b005b6100e56109d9565b6100c96004803603602081101561017157600080fd5b50356001600160a01b03166109e8565b6100c96004803603602081101561019757600080fd5b50356001600160a01b0316610bc9565b6100e5610e0c565b60015460408051808201909152601b8152600080516020610e1c83398151915260208201526000916001600160a01b0316331461026a5760405162461bcd60e51b81526004018080602001828103825283818151815260200191508051906020019080838360005b8381101561022f578181015183820152602001610217565b50505050905090810190601f16801561025c5780820380516001836020036101000a031916815260200191505b509250505060405180910390fd5b5060408051808201909152601981527f4552525f434f4e54524143545f53454c465f4144445245535300000000000000602082015282906001600160a01b0382163014156102f95760405162461bcd60e51b815260206004820181815283516024840152835190928392604490910191908501908083836000831561022f578181015183820152602001610217565b5060408051808201909152601081526f4552525f5a45524f5f4144445245535360801b602082015283906001600160a01b0382166103785760405162461bcd60e51b815260206004820181815283516024840152835190928392604490910191908501908083836000831561022f578181015183820152602001610217565b506003546001600160a01b038581169116148015906103a557506001546001600160a01b03858116911614155b80156103bf57506000546001600160a01b03858116911614155b6040518060400160405280601081526020016f4552525f53414d455f4144445245535360801b815250906104345760405162461bcd60e51b815260206004820181815283516024840152835190928392604490910191908501908083836000831561022f578181015183820152602001610217565b50600354604080516020808252600e908201526d53595354454d5f4144445245535360901b8183015290516001600160a01b038088169316917f6840904f5b31827f74e1497360da245f56e530c8c3de3163a2d31f11493273c6919081900360600190a3600380546001600160a01b0386166001600160a01b0319909116179055600192505050919050565b6002546001600160a01b031681565b60025460408051808201909152601b8152600080516020610e1c83398151915260208201526000916001600160a01b0316331461054d5760405162461bcd60e51b815260206004820181815283516024840152835190928392604490910191908501908083836000831561022f578181015183820152602001610217565b5060025460015460408051602080825260119082015270415554484f524954595f4144445245535360781b8183015290516001600160a01b039384169392909216917f6840904f5b31827f74e1497360da245f56e530c8c3de3163a2d31f11493273c69181900360600190a35060028054600180546001600160a01b03199081166001600160a01b03841617825590911690915590565b6001546001600160a01b031681565b600354600160a01b900460ff1681565b60408051808201909152601081526f4552525f5a45524f5f4144445245535360801b602082015283906001600160a01b0382166106815760405162461bcd60e51b815260206004820181815283516024840152835190928392604490910191908501908083836000831561022f578181015183820152602001610217565b5060408051808201909152601081526f4552525f5a45524f5f4144445245535360801b602082015283906001600160a01b0382166107005760405162461bcd60e51b815260206004820181815283516024840152835190928392604490910191908501908083836000831561022f578181015183820152602001610217565b5060408051808201909152601081526f4552525f5a45524f5f4144445245535360801b602082015283906001600160a01b03821661077f5760405162461bcd60e51b815260206004820181815283516024840152835190928392604490910191908501908083836000831561022f578181015183820152602001610217565b50600354600160a01b900460ff16156107df576040805162461bcd60e51b815260206004820152601c60248201527f4552525f4f574e45525f494e5449414c495a45445f414c524541445900000000604482015290519081900360640190fd5b846001600160a01b0316866001600160a01b031614156040518060400160405280601081526020016f4552525f53414d455f4144445245535360801b8152509061086a5760405162461bcd60e51b815260206004820181815283516024840152835190928392604490910191908501908083836000831561022f578181015183820152602001610217565b50836001600160a01b0316856001600160a01b031614156040518060400160405280601081526020016f4552525f53414d455f4144445245535360801b815250906108f65760405162461bcd60e51b815260206004820181815283516024840152835190928392604490910191908501908083836000831561022f578181015183820152602001610217565b50836001600160a01b0316866001600160a01b031614156040518060400160405280601081526020016f4552525f53414d455f4144445245535360801b815250906109825760405162461bcd60e51b815260206004820181815283516024840152835190928392604490910191908501908083836000831561022f578181015183820152602001610217565b5050600080546001600160a01b039687166001600160a01b03199182161790915560038054600180549689169684169690961790955560ff60a01b199590961693169290921792909216600160a01b179092555050565b6000546001600160a01b031681565b60015460408051808201909152601b8152600080516020610e1c83398151915260208201526000916001600160a01b03163314610a665760405162461bcd60e51b815260206004820181815283516024840152835190928392604490910191908501908083836000831561022f578181015183820152602001610217565b5060408051808201909152601081526f4552525f5a45524f5f4144445245535360801b602082015282906001600160a01b038216610ae55760405162461bcd60e51b815260206004820181815283516024840152835190928392604490910191908501908083836000831561022f578181015183820152602001610217565b506003546001600160a01b03848116911614801590610b1257506001546001600160a01b03848116911614155b8015610b2c57506000546001600160a01b03848116911614155b6040518060400160405280601081526020016f4552525f53414d455f4144445245535360801b81525090610ba15760405162461bcd60e51b815260206004820181815283516024840152835190928392604490910191908501908083836000831561022f578181015183820152602001610217565b50600280546001600160a01b0385166001600160a01b03199091161790556001915050919050565b60015460408051808201909152601b8152600080516020610e1c83398151915260208201526000916001600160a01b03163314610c475760405162461bcd60e51b815260206004820181815283516024840152835190928392604490910191908501908083836000831561022f578181015183820152602001610217565b5060408051808201909152601081526f4552525f5a45524f5f4144445245535360801b602082015282906001600160a01b038216610cc65760405162461bcd60e51b815260206004820181815283516024840152835190928392604490910191908501908083836000831561022f578181015183820152602001610217565b506003546001600160a01b03848116911614801590610cf357506001546001600160a01b03848116911614155b8015610d0d57506000546001600160a01b03848116911614155b6040518060400160405280601081526020016f4552525f53414d455f4144445245535360801b81525090610d825760405162461bcd60e51b815260206004820181815283516024840152835190928392604490910191908501908083836000831561022f578181015183820152602001610217565b50600054604080516020808252600d908201526c282924a6a0a92cafa7aba722a960991b8183015290516001600160a01b038087169316917f6840904f5b31827f74e1497360da245f56e530c8c3de3163a2d31f11493273c6919081900360600190a3600080546001600160a01b0385166001600160a01b03199091161790556001915050919050565b6003546001600160a01b03168156fe4552525f415554484f52495a45445f414444524553535f4f4e4c590000000000a265627a7a7230582067de358ae5a4c7b03ff696d338f073314ecb09fb6027276b1933ca1a2e6fef3664736f6c63430005090032",
  "source": "pragma solidity ^0.5.9;\n\nimport \"./Constant.sol\";\n\n\ncontract ProxyOwnable is Constant {\n    \n    address public primaryOwner = address(0);\n\n    address public authorityAddress = address(0);\n\n    address public newAuthorityAddress = address(0);\n\n    address public systemAddress = address(0);\n    \n    bool public isOwnerInitialize = false;\n\n    event OwnershipTransferred(\n        string ownerType,\n        address indexed previousOwner,\n        address indexed newOwner\n    );\n    \n    event AuthorityAddressChnageCall(\n        address indexed previousOwner,\n        address indexed newOwner\n    );\n\n    /**\n     * @dev The Ownable constructor sets the `primaryOwner` and `systemAddress` and '_multisigAddress'\n     * account.\n     */\n\n    function initializeOwner(\n        address _primaryOwner,\n        address _systemAddress,\n        address _authorityAddress\n    ) public notZeroAddress(_primaryOwner) notZeroAddress(_systemAddress) notZeroAddress(_authorityAddress) {\n        \n        require(!isOwnerInitialize,\"ERR_OWNER_INTIALIZED_ALREADY\");\n        require(_primaryOwner != _systemAddress, ERR_SAME_ADDRESS);\n        require(_systemAddress != _authorityAddress, ERR_SAME_ADDRESS);\n        require(_primaryOwner != _authorityAddress, ERR_SAME_ADDRESS);\n        primaryOwner = _primaryOwner;\n        systemAddress = _systemAddress;\n        authorityAddress = _authorityAddress;\n        isOwnerInitialize = true;\n    }\n\n    modifier onlyOwner() {\n        require(msg.sender == primaryOwner, ERR_AUTHORIZED_ADDRESS_ONLY);\n        _;\n    }\n\n    modifier onlySystem() {\n        require(msg.sender == systemAddress, ERR_AUTHORIZED_ADDRESS_ONLY);\n        _;\n    }\n\n    modifier onlyOneOfOnwer() {\n        require(\n            msg.sender == primaryOwner || msg.sender == systemAddress,\n            ERR_AUTHORIZED_ADDRESS_ONLY\n        );\n        _;\n    }\n\n    modifier onlyAuthorized() {\n        require(msg.sender == authorityAddress, ERR_AUTHORIZED_ADDRESS_ONLY);\n        _;\n    }\n\n    /**\n     * @dev change primary ownership\n     * @param _which The address to which is new owner address\n     */\n    function changePrimaryOwner(address _which)\n        public\n        onlyAuthorized()\n        notZeroAddress(_which)\n        returns (bool)\n    {\n        require(\n            _which != systemAddress &&\n                _which != authorityAddress &&\n                _which != primaryOwner,\n            ERR_SAME_ADDRESS\n        );\n\n        emit OwnershipTransferred(\"PRIMARY_OWNER\", primaryOwner, _which);\n\n        primaryOwner = _which;\n\n        return true;\n    }\n\n    /**\n     * @dev change system address\n     * @param _which The address to which is new system address\n     */\n    function changeSystemAddress(address _which)\n        public\n        onlyAuthorized()\n        notThisAddress(_which)\n        notZeroAddress(_which)\n        returns (bool)\n    {\n        require(\n            _which != systemAddress &&\n                _which != authorityAddress &&\n                _which != primaryOwner,\n            ERR_SAME_ADDRESS\n        );\n        emit OwnershipTransferred(\"SYSTEM_ADDRESS\", systemAddress, _which);\n        systemAddress = _which;\n        return true;\n    }\n\n    /**\n     * @dev change system address\n     * @param _which The address to which is new Authority address\n     */\n    function changeAuthorityAddress(address _which)\n        public\n        onlyAuthorized()\n        notZeroAddress(_which)\n        returns (bool)\n    {\n        require(\n            _which != systemAddress &&\n                _which != authorityAddress &&\n                _which != primaryOwner,\n            ERR_SAME_ADDRESS\n        );\n        newAuthorityAddress = _which;\n        return true;\n    }\n\n    function acceptAuthorityAddress() public returns (bool) {\n        require(msg.sender == newAuthorityAddress, ERR_AUTHORIZED_ADDRESS_ONLY);\n        emit OwnershipTransferred(\n            \"AUTHORITY_ADDRESS\",\n            authorityAddress,\n            newAuthorityAddress\n        );\n        authorityAddress = newAuthorityAddress;\n        newAuthorityAddress = address(0);\n        return true;\n    }\n}\n",
  "sourcePath": "/home/mind/Work/Projects/Jointer/Jointer_auction/NewContracts/contracts/common/ProxyOwnable.sol",
  "compiler": {
    "name": "solc",
    "version": "0.5.9+commit.e560f70d.Emscripten.clang"
  },
  "schemaVersion": "3.0.16",
  "updatedAt": "2020-05-13T15:06:48.189Z",
  "devdoc": {
    "methods": {
      "changeAuthorityAddress(address)": {
        "details": "change system address",
        "params": {
          "_which": "The address to which is new Authority address"
        }
      },
      "changePrimaryOwner(address)": {
        "details": "change primary ownership",
        "params": {
          "_which": "The address to which is new owner address"
        }
      },
      "changeSystemAddress(address)": {
        "details": "change system address",
        "params": {
          "_which": "The address to which is new system address"
        }
      },
      "initializeOwner(address,address,address)": {
        "details": "The Ownable constructor sets the `primaryOwner` and `systemAddress` and '_multisigAddress' account."
      }
    }
  },
  "userdoc": {
    "methods": {}
  }
}