{
  "contractName": "StandardToken",
  "abi": [
    {
      "constant": false,
      "inputs": [
        {
          "name": "_which",
          "type": "address"
        }
      ],
      "name": "changeSystemAddress",
      "outputs": [
        {
          "name": "",
          "type": "bool"
        }
      ],
      "payable": false,
      "stateMutability": "nonpayable",
      "type": "function"
    },
    {
      "constant": true,
      "inputs": [],
      "name": "name",
      "outputs": [
        {
          "name": "",
          "type": "string"
        }
      ],
      "payable": false,
      "stateMutability": "view",
      "type": "function"
    },
    {
      "constant": true,
      "inputs": [],
      "name": "newAuthorityAddress",
      "outputs": [
        {
          "name": "",
          "type": "address"
        }
      ],
      "payable": false,
      "stateMutability": "view",
      "type": "function"
    },
    {
      "constant": true,
      "inputs": [],
      "name": "totalSupply",
      "outputs": [
        {
          "name": "",
          "type": "uint256"
        }
      ],
      "payable": false,
      "stateMutability": "view",
      "type": "function"
    },
    {
      "constant": false,
      "inputs": [],
      "name": "acceptAuthorityAddress",
      "outputs": [
        {
          "name": "",
          "type": "bool"
        }
      ],
      "payable": false,
      "stateMutability": "nonpayable",
      "type": "function"
    },
    {
      "constant": true,
      "inputs": [],
      "name": "decimals",
      "outputs": [
        {
          "name": "",
          "type": "uint256"
        }
      ],
      "payable": false,
      "stateMutability": "view",
      "type": "function"
    },
    {
      "constant": true,
      "inputs": [],
      "name": "authorityAddress",
      "outputs": [
        {
          "name": "",
          "type": "address"
        }
      ],
      "payable": false,
      "stateMutability": "view",
      "type": "function"
    },
    {
      "constant": true,
      "inputs": [],
      "name": "primaryOwner",
      "outputs": [
        {
          "name": "",
          "type": "address"
        }
      ],
      "payable": false,
      "stateMutability": "view",
      "type": "function"
    },
    {
      "constant": false,
      "inputs": [
        {
          "name": "_which",
          "type": "address"
        }
      ],
      "name": "changeAuthorityAddress",
      "outputs": [
        {
          "name": "",
          "type": "bool"
        }
      ],
      "payable": false,
      "stateMutability": "nonpayable",
      "type": "function"
    },
    {
      "constant": true,
      "inputs": [],
      "name": "symbol",
      "outputs": [
        {
          "name": "",
          "type": "string"
        }
      ],
      "payable": false,
      "stateMutability": "view",
      "type": "function"
    },
    {
      "constant": false,
      "inputs": [
        {
          "name": "_which",
          "type": "address"
        }
      ],
      "name": "changePrimaryOwner",
      "outputs": [
        {
          "name": "",
          "type": "bool"
        }
      ],
      "payable": false,
      "stateMutability": "nonpayable",
      "type": "function"
    },
    {
      "constant": true,
      "inputs": [],
      "name": "systemAddress",
      "outputs": [
        {
          "name": "",
          "type": "address"
        }
      ],
      "payable": false,
      "stateMutability": "view",
      "type": "function"
    },
    {
      "inputs": [
        {
          "name": "_name",
          "type": "string"
        },
        {
          "name": "_symbol",
          "type": "string"
        },
        {
          "name": "_systemAddress",
          "type": "address"
        },
        {
          "name": "_authorityAddress",
          "type": "address"
        }
      ],
      "payable": false,
      "stateMutability": "nonpayable",
      "type": "constructor"
    },
    {
      "anonymous": false,
      "inputs": [
        {
          "indexed": true,
          "name": "_to",
          "type": "address"
        },
        {
          "indexed": false,
          "name": "value",
          "type": "uint256"
        }
      ],
      "name": "Mint",
      "type": "event"
    },
    {
      "anonymous": false,
      "inputs": [
        {
          "indexed": true,
          "name": "from",
          "type": "address"
        },
        {
          "indexed": false,
          "name": "value",
          "type": "uint256"
        }
      ],
      "name": "Burn",
      "type": "event"
    },
    {
      "anonymous": false,
      "inputs": [
        {
          "indexed": true,
          "name": "spender",
          "type": "address"
        },
        {
          "indexed": true,
          "name": "_from",
          "type": "address"
        },
        {
          "indexed": true,
          "name": "_to",
          "type": "address"
        }
      ],
      "name": "TransferFrom",
      "type": "event"
    },
    {
      "anonymous": false,
      "inputs": [
        {
          "indexed": false,
          "name": "ownerType",
          "type": "string"
        },
        {
          "indexed": true,
          "name": "previousOwner",
          "type": "address"
        },
        {
          "indexed": true,
          "name": "newOwner",
          "type": "address"
        }
      ],
      "name": "OwnershipTransferred",
      "type": "event"
    },
    {
      "anonymous": false,
      "inputs": [
        {
          "indexed": true,
          "name": "previousOwner",
          "type": "address"
        },
        {
          "indexed": true,
          "name": "newOwner",
          "type": "address"
        }
      ],
      "name": "AuthorityAddressChnageCall",
      "type": "event"
    },
    {
      "anonymous": false,
      "inputs": [
        {
          "indexed": true,
          "name": "from",
          "type": "address"
        },
        {
          "indexed": true,
          "name": "to",
          "type": "address"
        },
        {
          "indexed": false,
          "name": "value",
          "type": "uint256"
        }
      ],
      "name": "Transfer",
      "type": "event"
    },
    {
      "anonymous": false,
      "inputs": [
        {
          "indexed": true,
          "name": "owner",
          "type": "address"
        },
        {
          "indexed": true,
          "name": "spender",
          "type": "address"
        },
        {
          "indexed": false,
          "name": "value",
          "type": "uint256"
        }
      ],
      "name": "Approval",
      "type": "event"
    },
    {
      "constant": true,
      "inputs": [
        {
          "name": "_who",
          "type": "address"
        }
      ],
      "name": "balanceOf",
      "outputs": [
        {
          "name": "balance",
          "type": "uint256"
        }
      ],
      "payable": false,
      "stateMutability": "view",
      "type": "function"
    },
    {
      "constant": false,
      "inputs": [
        {
          "name": "_to",
          "type": "address"
        },
        {
          "name": "_value",
          "type": "uint256"
        }
      ],
      "name": "transfer",
      "outputs": [
        {
          "name": "ok",
          "type": "bool"
        }
      ],
      "payable": false,
      "stateMutability": "nonpayable",
      "type": "function"
    },
    {
      "constant": false,
      "inputs": [
        {
          "name": "_spender",
          "type": "address"
        },
        {
          "name": "_value",
          "type": "uint256"
        }
      ],
      "name": "approve",
      "outputs": [
        {
          "name": "ok",
          "type": "bool"
        }
      ],
      "payable": false,
      "stateMutability": "nonpayable",
      "type": "function"
    },
    {
      "constant": false,
      "inputs": [
        {
          "name": "_spender",
          "type": "address"
        },
        {
          "name": "_currentValue",
          "type": "uint256"
        },
        {
          "name": "_value",
          "type": "uint256"
        }
      ],
      "name": "approve",
      "outputs": [
        {
          "name": "ok",
          "type": "bool"
        }
      ],
      "payable": false,
      "stateMutability": "nonpayable",
      "type": "function"
    },
    {
      "constant": true,
      "inputs": [
        {
          "name": "_owner",
          "type": "address"
        },
        {
          "name": "_spender",
          "type": "address"
        }
      ],
      "name": "allowance",
      "outputs": [
        {
          "name": "",
          "type": "uint256"
        }
      ],
      "payable": false,
      "stateMutability": "view",
      "type": "function"
    },
    {
      "constant": false,
      "inputs": [
        {
          "name": "_from",
          "type": "address"
        },
        {
          "name": "_to",
          "type": "address"
        },
        {
          "name": "_value",
          "type": "uint256"
        }
      ],
      "name": "transferFrom",
      "outputs": [
        {
          "name": "",
          "type": "bool"
        }
      ],
      "payable": false,
      "stateMutability": "nonpayable",
      "type": "function"
    },
    {
      "constant": false,
      "inputs": [
        {
          "name": "_value",
          "type": "uint256"
        }
      ],
      "name": "burn",
      "outputs": [
        {
          "name": "",
          "type": "bool"
        }
      ],
      "payable": false,
      "stateMutability": "nonpayable",
      "type": "function"
    }
  ],
  "bytecode": "0x6080604052600180546001600160a01b0319908116909155600280548216905560038054821690556004805490911690553480156200003d57600080fd5b5060405162001b0338038062001b03833981810160405260808110156200006357600080fd5b8101908080516401000000008111156200007c57600080fd5b820160208101848111156200009057600080fd5b8151640100000000811182820187101715620000ab57600080fd5b50509291906020018051640100000000811115620000c857600080fd5b82016020810184811115620000dc57600080fd5b8151640100000000811182820187101715620000f757600080fd5b50506020808301516040938401518451808601909552601085527f4552525f5a45524f5f414444524553530000000000000000000000000000000092850192909252919450909250908290829082906001600160a01b038216620001f6576040517f08c379a00000000000000000000000000000000000000000000000000000000081526004018080602001828103825283818151815260200191508051906020019080838360005b83811015620001ba578181015183820152602001620001a0565b50505050905090810190601f168015620001e85780820380516001836020036101000a031916815260200191505b509250505060405180910390fd5b5060408051808201909152601081527f4552525f53414d455f41444452455353000000000000000000000000000000006020820152336001600160a01b0385161415620002a0576040517f08c379a0000000000000000000000000000000000000000000000000000000008152602060048201818152835160248401528351909283926044909101919085019080838360008315620001ba578181015183820152602001620001a0565b50816001600160a01b0316836001600160a01b031614156040518060400160405280601081526020017f4552525f53414d455f41444452455353000000000000000000000000000000008152509062000356576040517f08c379a0000000000000000000000000000000000000000000000000000000008152602060048201818152835160248401528351909283926044909101919085019080838360008315620001ba578181015183820152602001620001a0565b5060408051808201909152601081527f4552525f53414d455f41444452455353000000000000000000000000000000006020820152336001600160a01b038416141562000400576040517f08c379a0000000000000000000000000000000000000000000000000000000008152602060048201818152835160248401528351909283926044909101919085019080838360008315620001ba578181015183820152602001620001a0565b5050600180546001600160a01b03199081163317909155600380546001600160a01b03948516908316179055600280549290931691161790558351158015906200044b575060008351115b6200045557600080fd5b83516200046a9060059060208701906200048b565b508251620004809060069060208601906200048b565b505050505062000530565b828054600181600116156101000203166002900490600052602060002090601f016020900481019282601f10620004ce57805160ff1916838001178555620004fe565b82800160010185558215620004fe579182015b82811115620004fe578251825591602001919060010190620004e1565b506200050c92915062000510565b5090565b6200052d91905b808211156200050c576000815560010162000517565b90565b6115c380620005406000396000f3fe608060405234801561001057600080fd5b50600436106101215760003560e01c8063426a8493116100ad57806395d89b411161007157806395d89b4114610338578063a9059cbb14610340578063c4d342681461036c578063d3e848f114610392578063dd62ed3e1461039a57610121565b8063426a84931461029557806342966c68146102c757806370a08231146102e45780638e10be331461030a5780638f51368b1461031257610121565b806318160ddd116100f457806318160ddd1461022d57806320c462fe1461024757806323b872dd1461024f578063313ce567146102855780633c695d4e1461028d57610121565b806304d630891461012657806306fdde0314610160578063095ea7b3146101dd5780630abaad7a14610209575b600080fd5b61014c6004803603602081101561013c57600080fd5b50356001600160a01b03166103c8565b604080519115158252519081900360200190f35b6101686106d5565b6040805160208082528351818301528351919283929083019185019080838360005b838110156101a257818101518382015260200161018a565b50505050905090810190601f1680156101cf5780820380516001836020036101000a031916815260200191505b509250505060405180910390f35b61014c600480360360408110156101f357600080fd5b506001600160a01b038135169060200135610763565b61021161084d565b604080516001600160a01b039092168252519081900360200190f35b61023561085c565b60408051918252519081900360200190f35b61014c610862565b61014c6004803603606081101561026557600080fd5b506001600160a01b03813581169160208101359091169060400135610977565b610235610b98565b610211610b9d565b61014c600480360360608110156102ab57600080fd5b506001600160a01b038135169060208101359060400135610bac565b61014c600480360360208110156102dd57600080fd5b5035610d07565b610235600480360360208110156102fa57600080fd5b50356001600160a01b0316610d19565b610211610d34565b61014c6004803603602081101561032857600080fd5b50356001600160a01b0316610d43565b610168610f24565b61014c6004803603604081101561035657600080fd5b506001600160a01b038135169060200135610f7f565b61014c6004803603602081101561038257600080fd5b50356001600160a01b03166110a0565b6102116112e1565b610235600480360360408110156103b057600080fd5b506001600160a01b03813581169160200135166112f0565b60025460408051808201909152601b815260008051602061156f83398151915260208201526000916001600160a01b031633146104835760405162461bcd60e51b81526004018080602001828103825283818151815260200191508051906020019080838360005b83811015610448578181015183820152602001610430565b50505050905090810190601f1680156104755780820380516001836020036101000a031916815260200191505b509250505060405180910390fd5b506040805180820190915260198152784552525f434f4e54524143545f53454c465f4144445245535360381b602082015282906001600160a01b03821630141561050e5760405162461bcd60e51b8152602060048201818152835160248401528351909283926044909101919085019080838360008315610448578181015183820152602001610430565b5060408051808201909152601081526f4552525f5a45524f5f4144445245535360801b602082015283906001600160a01b03821661058d5760405162461bcd60e51b8152602060048201818152835160248401528351909283926044909101919085019080838360008315610448578181015183820152602001610430565b506003546001600160a01b038581169116148015906105ba57506002546001600160a01b03858116911614155b80156105d457506001546001600160a01b03858116911614155b6040518060400160405280601081526020016f4552525f53414d455f4144445245535360801b815250906106495760405162461bcd60e51b8152602060048201818152835160248401528351909283926044909101919085019080838360008315610448578181015183820152602001610430565b50600354604080516020808252600e908201526d53595354454d5f4144445245535360901b8183015290516001600160a01b038088169316917f6840904f5b31827f74e1497360da245f56e530c8c3de3163a2d31f11493273c6919081900360600190a3600380546001600160a01b0386166001600160a01b0319909116179055600192505050919050565b6005805460408051602060026001851615610100026000190190941693909304601f8101849004840282018401909252818152929183018282801561075b5780601f106107305761010080835404028352916020019161075b565b820191906000526020600020905b81548152906001019060200180831161073e57829003601f168201915b505050505081565b60408051808201909152601081526f4552525f5a45524f5f4144445245535360801b602082015260009083906001600160a01b0382166107e45760405162461bcd60e51b8152602060048201818152835160248401528351909283926044909101919085019080838360008315610448578181015183820152602001610430565b503360008181526008602090815260408083206001600160a01b03891680855290835292819020879055805187815290519293927f8c5be1e5ebec7d5bd14f71427d1e84f3dd0314c0f7b2291e5b200ac8c7c3b925929181900390910190a35060019392505050565b6004546001600160a01b031681565b60005481565b60045460408051808201909152601b815260008051602061156f83398151915260208201526000916001600160a01b031633146108e05760405162461bcd60e51b8152602060048201818152835160248401528351909283926044909101919085019080838360008315610448578181015183820152602001610430565b5060045460025460408051602080825260119082015270415554484f524954595f4144445245535360781b8183015290516001600160a01b039384169392909216917f6840904f5b31827f74e1497360da245f56e530c8c3de3163a2d31f11493273c69181900360600190a35060048054600280546001600160a01b03199081166001600160a01b03841617909155169055600190565b6040805180820190915260198152784552525f434f4e54524143545f53454c465f4144445245535360381b602082015260009083906001600160a01b038216301415610a045760405162461bcd60e51b8152602060048201818152835160248401528351909283926044909101919085019080838360008315610448578181015183820152602001610430565b5060408051808201909152601081526f4552525f5a45524f5f4144445245535360801b602082015284906001600160a01b038216610a835760405162461bcd60e51b8152602060048201818152835160248401528351909283926044909101919085019080838360008315610448578181015183820152602001610430565b506001600160a01b0386166000908152600860209081526040808320338452909152902054841115610af5576040805162461bcd60e51b81526020600482015260166024820152754552525f4e4f545f454e4f5547485f42414c414e434560501b604482015290519081900360640190fd5b610b0086868661131b565b610b0957600080fd5b6001600160a01b0386166000908152600860209081526040808320338452909152902054610b37908561141f565b6001600160a01b0380881660008181526008602090815260408083203380855292528083209590955593519289169391927f7d5ad68155582ceeebcef916386e9f0eb9f7a2dce10a880ced4d0d5d782317949190a450600195945050505050565b601281565b6002546001600160a01b031681565b60408051808201909152601081526f4552525f5a45524f5f4144445245535360801b602082015260009084906001600160a01b038216610c2d5760405162461bcd60e51b8152602060048201818152835160248401528351909283926044909101919085019080838360008315610448578181015183820152602001610430565b503360009081526008602090815260408083206001600160a01b03891684529091529020548414610c9e576040805162461bcd60e51b815260206004820152601660248201527511549497d050d51253d397d393d517d0531313d5d15160521b604482015290519081900360640190fd5b3360008181526008602090815260408083206001600160a01b038a1680855290835292819020879055805187815290519293927f8c5be1e5ebec7d5bd14f71427d1e84f3dd0314c0f7b2291e5b200ac8c7c3b925929181900390910190a3506001949350505050565b6000610d133383611431565b92915050565b6001600160a01b031660009081526007602052604090205490565b6001546001600160a01b031681565b60025460408051808201909152601b815260008051602061156f83398151915260208201526000916001600160a01b03163314610dc15760405162461bcd60e51b8152602060048201818152835160248401528351909283926044909101919085019080838360008315610448578181015183820152602001610430565b5060408051808201909152601081526f4552525f5a45524f5f4144445245535360801b602082015282906001600160a01b038216610e405760405162461bcd60e51b8152602060048201818152835160248401528351909283926044909101919085019080838360008315610448578181015183820152602001610430565b506003546001600160a01b03848116911614801590610e6d57506002546001600160a01b03848116911614155b8015610e8757506001546001600160a01b03848116911614155b6040518060400160405280601081526020016f4552525f53414d455f4144445245535360801b81525090610efc5760405162461bcd60e51b8152602060048201818152835160248401528351909283926044909101919085019080838360008315610448578181015183820152602001610430565b50600480546001600160a01b0385166001600160a01b03199091161790556001915050919050565b6006805460408051602060026001851615610100026000190190941693909304601f8101849004840282018401909252818152929183018282801561075b5780601f106107305761010080835404028352916020019161075b565b6040805180820190915260198152784552525f434f4e54524143545f53454c465f4144445245535360381b602082015260009083906001600160a01b03821630141561100c5760405162461bcd60e51b8152602060048201818152835160248401528351909283926044909101919085019080838360008315610448578181015183820152602001610430565b5060408051808201909152601081526f4552525f5a45524f5f4144445245535360801b602082015284906001600160a01b03821661108b5760405162461bcd60e51b8152602060048201818152835160248401528351909283926044909101919085019080838360008315610448578181015183820152602001610430565b5061109733868661131b565b95945050505050565b60025460408051808201909152601b815260008051602061156f83398151915260208201526000916001600160a01b0316331461111e5760405162461bcd60e51b8152602060048201818152835160248401528351909283926044909101919085019080838360008315610448578181015183820152602001610430565b5060408051808201909152601081526f4552525f5a45524f5f4144445245535360801b602082015282906001600160a01b03821661119d5760405162461bcd60e51b8152602060048201818152835160248401528351909283926044909101919085019080838360008315610448578181015183820152602001610430565b506003546001600160a01b038481169116148015906111ca57506002546001600160a01b03848116911614155b80156111e457506001546001600160a01b03848116911614155b6040518060400160405280601081526020016f4552525f53414d455f4144445245535360801b815250906112595760405162461bcd60e51b8152602060048201818152835160248401528351909283926044909101919085019080838360008315610448578181015183820152602001610430565b50600154604080516020808252600d908201526c282924a6a0a92cafa7aba722a960991b8183015290516001600160a01b038087169316917f6840904f5b31827f74e1497360da245f56e530c8c3de3163a2d31f11493273c6919081900360600190a3600180546001600160a01b0385166001600160a01b0319909116178155915050919050565b6003546001600160a01b031681565b6001600160a01b03918216600090815260086020908152604080832093909416825291909152205490565b6001600160a01b03831660009081526007602052604081205482811015611382576040805162461bcd60e51b81526020600482015260166024820152754552525f4e4f545f454e4f5547485f42414c414e434560501b604482015290519081900360640190fd5b61138c818461141f565b6001600160a01b03808716600090815260076020526040808220849055918716815220549091506113bd9084611558565b6001600160a01b0380861660008181526007602090815260409182902094909455805187815290519193928916927fddf252ad1be2c89b69c2b068fc378daa952ba7f163c4a11628f55a4df523b3ef92918290030190a3506001949350505050565b60008282111561142b57fe5b50900390565b6001600160a01b03821660009081526007602052604081205482811015611498576040805162461bcd60e51b81526020600482015260166024820152754552525f4e4f545f454e4f5547485f42414c414e434560501b604482015290519081900360640190fd5b6114a2818461141f565b6001600160a01b0385166000908152600760205260408120829055549091506114cb908461141f565b6000556040805184815290516001600160a01b038616917fcc16f5dbb4873280815c1ee09dbd06736cffcc184412cf7a71a0fdb75d397ca5919081900360200190a26040805184815290516000916001600160a01b038716917fddf252ad1be2c89b69c2b068fc378daa952ba7f163c4a11628f55a4df523b3ef9181900360200190a35060019392505050565b60008282018381101561156757fe5b939250505056fe4552525f415554484f52495a45445f414444524553535f4f4e4c590000000000a265627a7a72305820c45f532dbae9e82a559a15e67e434ca3bdc4d8fa8e38ab10ef96391c1df339c764736f6c63430005090032",
  "source": "pragma solidity ^0.5.9;\n\nimport \"./ERC20.sol\";\nimport \"../common/SafeMath.sol\";\nimport \"../common/Ownable.sol\";\n\n\ncontract StandardToken is ERC20, SafeMath, Ownable {\n    string public name;\n\n    string public symbol;\n\n    uint256 public constant decimals = 18;\n\n    mapping(address => uint256) balances;\n\n    mapping(address => mapping(address => uint256)) allowed;\n\n    constructor(\n        string memory _name,\n        string memory _symbol,\n        address _systemAddress,\n        address _authorityAddress\n    ) public Ownable(_systemAddress, _authorityAddress) {\n        require(bytes(_name).length > 0 && bytes(_symbol).length > 0);\n        name = _name;\n        symbol = _symbol;\n    }\n\n    event Mint(address indexed _to, uint256 value);\n    event Burn(address indexed from, uint256 value);\n    event TransferFrom(\n        address indexed spender,\n        address indexed _from,\n        address indexed _to\n    );\n\n    function _transfer(address _from, address _to, uint256 _value)\n        internal\n        returns (bool)\n    {\n        uint256 senderBalance = balances[_from];\n        require(senderBalance >= _value, \"ERR_NOT_ENOUGH_BALANCE\");\n        senderBalance = safeSub(senderBalance, _value);\n        balances[_from] = senderBalance;\n        balances[_to] = safeAdd(balances[_to], _value);\n        emit Transfer(_from, _to, _value);\n        return true;\n    }\n\n    function _burn(address _from, uint256 _value) internal returns (bool) {\n        uint256 senderBalance = balances[_from];\n        require(senderBalance >= _value, \"ERR_NOT_ENOUGH_BALANCE\");\n        senderBalance = safeSub(senderBalance, _value);\n        balances[_from] = senderBalance;\n        totalSupply = safeSub(totalSupply, _value);\n        emit Burn(_from, _value);\n        emit Transfer(_from, address(0), _value);\n        return true;\n    }\n\n    function _mint(address _to, uint256 _value) internal returns (bool) {\n        balances[_to] = safeAdd(balances[_to], _value);\n        totalSupply = safeAdd(totalSupply, _value);\n        emit Mint(_to, _value);\n        emit Transfer(address(0), _to, _value);\n        return true;\n    }\n\n    /**\n     * @dev Gets the balance of the specified address.\n     * @param _who The address to query the the balance of.\n     * @return An uint256 representing the amount owned by the passed address.\n     */\n    function balanceOf(address _who) public view returns (uint256 balance) {\n        return balances[_who];\n    }\n\n    /**\n     * @dev transfer token for a specified address\n     * @param _to The address to transfer to.\n     * @param _value The amount to be transferred.\n     */\n    function transfer(address _to, uint256 _value)\n        public\n        notThisAddress(_to)\n        notZeroAddress(_to)\n        returns (bool ok)\n    {\n        return _transfer(msg.sender, _to, _value);\n    }\n\n    /**\n     * @dev `msg.sender` approves `spender` to spend `value` tokens\n     * @param _spender The address of the account able to transfer the tokens\n     * @param _value The amount of wei to be approved for transfer\n     * @return Whether the approval was successful or not\n     */\n    function approve(address _spender, uint256 _value)\n        public\n        notZeroAddress(_spender)\n        returns (bool ok)\n    {\n        allowed[msg.sender][_spender] = _value;\n        emit Approval(msg.sender, _spender, _value);\n        return true;\n    }\n\n    /**\n     * @dev `msg.sender` approves `spender` to spend `value` tokens\n     * @dev although all Dpp work with two argument approve method but we provide this method to ensure user from double spend\n     * @param _spender The address of the account able to transfer the tokens\n     * @param _value The amount of wei to be approved for transfer\n     * @param _currentValue the amount user already apporved\n     * @return Whether the approval was successful or not\n     */\n    function approve(address _spender, uint256 _currentValue, uint256 _value)\n        public\n        notZeroAddress(_spender)\n        returns (bool ok)\n    {\n        require(\n            allowed[msg.sender][_spender] == _currentValue,\n            \"ERR_ACTION_NOT_ALLOWED\"\n        );\n        allowed[msg.sender][_spender] = _value;\n        emit Approval(msg.sender, _spender, _value);\n        return true;\n    }\n\n    /**\n     * @dev to check allowed token for transferFrom\n     * @param _owner The address of the account owning tokens\n     * @param _spender The address of the account able to transfer the tokens\n     * @return Amount of remaining tokens allowed to spent\n     */\n    function allowance(address _owner, address _spender)\n        public\n        view\n        returns (uint256)\n    {\n        return allowed[_owner][_spender];\n    }\n\n    /**\n     * @dev Transfer tokens from one address to another\n     * @param _from address The address which you want to send tokens from\n     * @param _to address The address which you want to transfer tokens\n     * @param _value uint256 the amount of tokens to be transferred\n     */\n    function transferFrom(address _from, address _to, uint256 _value)\n        public\n        notThisAddress(_to)\n        notZeroAddress(_to)\n        returns (bool)\n    {\n        require(allowed[_from][msg.sender] >= _value, \"ERR_NOT_ENOUGH_BALANCE\");\n        require(_transfer(_from, _to, _value));\n        allowed[_from][msg.sender] = safeSub(\n            allowed[_from][msg.sender],\n            _value\n        );\n        emit TransferFrom(msg.sender, _from, _to);\n        return true;\n    }\n\n    /**\n     * @dev burn token from this address\n     * @param _value uint256 the amount of tokens to be burned\n     */\n    function burn(uint256 _value) public returns (bool) {\n        return _burn(msg.sender, _value);\n    }\n}\n",
  "sourcePath": "/home/mind/Work/Projects/Jointer/Jointer_auction/NewContracts/contracts/Tokens/StandardToken.sol",
  "compiler": {
    "name": "solc",
    "version": "0.5.9+commit.e560f70d.Emscripten.clang"
  },
  "schemaVersion": "3.0.16",
  "updatedAt": "2020-04-27T13:53:30.459Z",
  "devdoc": {
    "methods": {
      "allowance(address,address)": {
        "details": "to check allowed token for transferFrom",
        "params": {
          "_owner": "The address of the account owning tokens",
          "_spender": "The address of the account able to transfer the tokens"
        },
        "return": "Amount of remaining tokens allowed to spent"
      },
      "approve(address,uint256)": {
        "details": "`msg.sender` approves `spender` to spend `value` tokens",
        "params": {
          "_spender": "The address of the account able to transfer the tokens",
          "_value": "The amount of wei to be approved for transfer"
        },
        "return": "Whether the approval was successful or not"
      },
      "approve(address,uint256,uint256)": {
        "details": "`msg.sender` approves `spender` to spend `value` tokensalthough all Dpp work with two argument approve method but we provide this method to ensure user from double spend",
        "params": {
          "_currentValue": "the amount user already apporved",
          "_spender": "The address of the account able to transfer the tokens",
          "_value": "The amount of wei to be approved for transfer"
        },
        "return": "Whether the approval was successful or not"
      },
      "balanceOf(address)": {
        "details": "Gets the balance of the specified address.",
        "params": {
          "_who": "The address to query the the balance of."
        },
        "return": "An uint256 representing the amount owned by the passed address."
      },
      "burn(uint256)": {
        "details": "burn token from this address",
        "params": {
          "_value": "uint256 the amount of tokens to be burned"
        }
      },
      "changeAuthorityAddress(address)": {
        "details": "change system address",
        "params": {
          "_which": "The address to which is new Authority address"
        }
      },
      "changePrimaryOwner(address)": {
        "details": "change primary ownership",
        "params": {
          "_which": "The address to which is new owner address"
        }
      },
      "changeSystemAddress(address)": {
        "details": "change system address",
        "params": {
          "_which": "The address to which is new system address"
        }
      },
      "transfer(address,uint256)": {
        "details": "transfer token for a specified address",
        "params": {
          "_to": "The address to transfer to.",
          "_value": "The amount to be transferred."
        }
      },
      "transferFrom(address,address,uint256)": {
        "details": "Transfer tokens from one address to another",
        "params": {
          "_from": "address The address which you want to send tokens from",
          "_to": "address The address which you want to transfer tokens",
          "_value": "uint256 the amount of tokens to be transferred"
        }
      }
    }
  },
  "userdoc": {
    "methods": {}
  }
}