{
  "contractName": "StandardToken",
  "abi": [
    {
      "constant": false,
      "inputs": [
        {
          "name": "_which",
          "type": "address"
        }
      ],
      "name": "changeSystemAddress",
      "outputs": [
        {
          "name": "",
          "type": "bool"
        }
      ],
      "payable": false,
      "stateMutability": "nonpayable",
      "type": "function"
    },
    {
      "constant": true,
      "inputs": [],
      "name": "name",
      "outputs": [
        {
          "name": "",
          "type": "string"
        }
      ],
      "payable": false,
      "stateMutability": "view",
      "type": "function"
    },
    {
      "constant": true,
      "inputs": [],
      "name": "newAuthorityAddress",
      "outputs": [
        {
          "name": "",
          "type": "address"
        }
      ],
      "payable": false,
      "stateMutability": "view",
      "type": "function"
    },
    {
      "constant": true,
      "inputs": [],
      "name": "totalSupply",
      "outputs": [
        {
          "name": "",
          "type": "uint256"
        }
      ],
      "payable": false,
      "stateMutability": "view",
      "type": "function"
    },
    {
      "constant": false,
      "inputs": [],
      "name": "acceptAuthorityAddress",
      "outputs": [
        {
          "name": "",
          "type": "bool"
        }
      ],
      "payable": false,
      "stateMutability": "nonpayable",
      "type": "function"
    },
    {
      "constant": true,
      "inputs": [],
      "name": "decimals",
      "outputs": [
        {
          "name": "",
          "type": "uint256"
        }
      ],
      "payable": false,
      "stateMutability": "view",
      "type": "function"
    },
    {
      "constant": true,
      "inputs": [],
      "name": "authorityAddress",
      "outputs": [
        {
          "name": "",
          "type": "address"
        }
      ],
      "payable": false,
      "stateMutability": "view",
      "type": "function"
    },
    {
      "constant": true,
      "inputs": [],
      "name": "isOwnerInitialize",
      "outputs": [
        {
          "name": "",
          "type": "bool"
        }
      ],
      "payable": false,
      "stateMutability": "view",
      "type": "function"
    },
    {
      "constant": false,
      "inputs": [
        {
          "name": "_primaryOwner",
          "type": "address"
        },
        {
          "name": "_systemAddress",
          "type": "address"
        },
        {
          "name": "_authorityAddress",
          "type": "address"
        }
      ],
      "name": "initializeOwner",
      "outputs": [],
      "payable": false,
      "stateMutability": "nonpayable",
      "type": "function"
    },
    {
      "constant": true,
      "inputs": [],
      "name": "primaryOwner",
      "outputs": [
        {
          "name": "",
          "type": "address"
        }
      ],
      "payable": false,
      "stateMutability": "view",
      "type": "function"
    },
    {
      "constant": false,
      "inputs": [
        {
          "name": "_which",
          "type": "address"
        }
      ],
      "name": "changeAuthorityAddress",
      "outputs": [
        {
          "name": "",
          "type": "bool"
        }
      ],
      "payable": false,
      "stateMutability": "nonpayable",
      "type": "function"
    },
    {
      "constant": true,
      "inputs": [],
      "name": "symbol",
      "outputs": [
        {
          "name": "",
          "type": "string"
        }
      ],
      "payable": false,
      "stateMutability": "view",
      "type": "function"
    },
    {
      "constant": false,
      "inputs": [
        {
          "name": "_which",
          "type": "address"
        }
      ],
      "name": "changePrimaryOwner",
      "outputs": [
        {
          "name": "",
          "type": "bool"
        }
      ],
      "payable": false,
      "stateMutability": "nonpayable",
      "type": "function"
    },
    {
      "constant": true,
      "inputs": [],
      "name": "systemAddress",
      "outputs": [
        {
          "name": "",
          "type": "address"
        }
      ],
      "payable": false,
      "stateMutability": "view",
      "type": "function"
    },
    {
      "anonymous": false,
      "inputs": [
        {
          "indexed": true,
          "name": "_to",
          "type": "address"
        },
        {
          "indexed": false,
          "name": "value",
          "type": "uint256"
        }
      ],
      "name": "Mint",
      "type": "event"
    },
    {
      "anonymous": false,
      "inputs": [
        {
          "indexed": true,
          "name": "from",
          "type": "address"
        },
        {
          "indexed": false,
          "name": "value",
          "type": "uint256"
        }
      ],
      "name": "Burn",
      "type": "event"
    },
    {
      "anonymous": false,
      "inputs": [
        {
          "indexed": true,
          "name": "spender",
          "type": "address"
        },
        {
          "indexed": true,
          "name": "_from",
          "type": "address"
        },
        {
          "indexed": true,
          "name": "_to",
          "type": "address"
        }
      ],
      "name": "TransferFrom",
      "type": "event"
    },
    {
      "anonymous": false,
      "inputs": [
        {
          "indexed": false,
          "name": "ownerType",
          "type": "string"
        },
        {
          "indexed": true,
          "name": "previousOwner",
          "type": "address"
        },
        {
          "indexed": true,
          "name": "newOwner",
          "type": "address"
        }
      ],
      "name": "OwnershipTransferred",
      "type": "event"
    },
    {
      "anonymous": false,
      "inputs": [
        {
          "indexed": true,
          "name": "previousOwner",
          "type": "address"
        },
        {
          "indexed": true,
          "name": "newOwner",
          "type": "address"
        }
      ],
      "name": "AuthorityAddressChnageCall",
      "type": "event"
    },
    {
      "anonymous": false,
      "inputs": [
        {
          "indexed": true,
          "name": "from",
          "type": "address"
        },
        {
          "indexed": true,
          "name": "to",
          "type": "address"
        },
        {
          "indexed": false,
          "name": "value",
          "type": "uint256"
        }
      ],
      "name": "Transfer",
      "type": "event"
    },
    {
      "anonymous": false,
      "inputs": [
        {
          "indexed": true,
          "name": "owner",
          "type": "address"
        },
        {
          "indexed": true,
          "name": "spender",
          "type": "address"
        },
        {
          "indexed": false,
          "name": "value",
          "type": "uint256"
        }
      ],
      "name": "Approval",
      "type": "event"
    },
    {
      "constant": true,
      "inputs": [
        {
          "name": "_who",
          "type": "address"
        }
      ],
      "name": "balanceOf",
      "outputs": [
        {
          "name": "balance",
          "type": "uint256"
        }
      ],
      "payable": false,
      "stateMutability": "view",
      "type": "function"
    },
    {
      "constant": false,
      "inputs": [
        {
          "name": "_to",
          "type": "address"
        },
        {
          "name": "_value",
          "type": "uint256"
        }
      ],
      "name": "transfer",
      "outputs": [
        {
          "name": "ok",
          "type": "bool"
        }
      ],
      "payable": false,
      "stateMutability": "nonpayable",
      "type": "function"
    },
    {
      "constant": false,
      "inputs": [
        {
          "name": "_spender",
          "type": "address"
        },
        {
          "name": "_value",
          "type": "uint256"
        }
      ],
      "name": "approve",
      "outputs": [
        {
          "name": "ok",
          "type": "bool"
        }
      ],
      "payable": false,
      "stateMutability": "nonpayable",
      "type": "function"
    },
    {
      "constant": false,
      "inputs": [
        {
          "name": "_spender",
          "type": "address"
        },
        {
          "name": "_currentValue",
          "type": "uint256"
        },
        {
          "name": "_value",
          "type": "uint256"
        }
      ],
      "name": "approve",
      "outputs": [
        {
          "name": "ok",
          "type": "bool"
        }
      ],
      "payable": false,
      "stateMutability": "nonpayable",
      "type": "function"
    },
    {
      "constant": true,
      "inputs": [
        {
          "name": "_owner",
          "type": "address"
        },
        {
          "name": "_spender",
          "type": "address"
        }
      ],
      "name": "allowance",
      "outputs": [
        {
          "name": "",
          "type": "uint256"
        }
      ],
      "payable": false,
      "stateMutability": "view",
      "type": "function"
    },
    {
      "constant": false,
      "inputs": [
        {
          "name": "_from",
          "type": "address"
        },
        {
          "name": "_to",
          "type": "address"
        },
        {
          "name": "_value",
          "type": "uint256"
        }
      ],
      "name": "transferFrom",
      "outputs": [
        {
          "name": "",
          "type": "bool"
        }
      ],
      "payable": false,
      "stateMutability": "nonpayable",
      "type": "function"
    },
    {
      "constant": false,
      "inputs": [
        {
          "name": "_value",
          "type": "uint256"
        }
      ],
      "name": "burn",
      "outputs": [
        {
          "name": "",
          "type": "bool"
        }
      ],
      "payable": false,
      "stateMutability": "nonpayable",
      "type": "function"
    }
  ],
  "bytecode": "0x6080604052600180546001600160a01b03199081169091556002805482169055600380549091169055600480546001600160a81b031916905534801561004457600080fd5b50611a01806100546000396000f3fe608060405234801561001057600080fd5b50600436106101375760003560e01c8063426a8493116100b85780638f51368b1161007c5780638f51368b1461036a57806395d89b4114610390578063a9059cbb14610398578063c4d34268146103c4578063d3e848f1146103ea578063dd62ed3e146103f257610137565b8063426a8493146102b357806342966c68146102e557806370a0823114610302578063760e595a146103285780638e10be331461036257610137565b806320c462fe116100ff57806320c462fe1461025d57806323b872dd14610265578063313ce5671461029b5780633c695d4e146102a35780633ff59a52146102ab57610137565b806304d630891461013c57806306fdde0314610176578063095ea7b3146101f35780630abaad7a1461021f57806318160ddd14610243575b600080fd5b6101626004803603602081101561015257600080fd5b50356001600160a01b0316610420565b604080519115158252519081900360200190f35b61017e61072d565b6040805160208082528351818301528351919283929083019185019080838360005b838110156101b85781810151838201526020016101a0565b50505050905090810190601f1680156101e55780820380516001836020036101000a031916815260200191505b509250505060405180910390f35b6101626004803603604081101561020957600080fd5b506001600160a01b0381351690602001356107bb565b6102276108a5565b604080516001600160a01b039092168252519081900360200190f35b61024b6108b4565b60408051918252519081900360200190f35b6101626108ba565b6101626004803603606081101561027b57600080fd5b506001600160a01b038135811691602081013590911690604001356109cf565b61024b610bf0565b610227610bf5565b610162610c04565b610162600480360360608110156102c957600080fd5b506001600160a01b038135169060208101359060400135610c14565b610162600480360360208110156102fb57600080fd5b5035610d6f565b61024b6004803603602081101561031857600080fd5b50356001600160a01b0316610d81565b6103606004803603606081101561033e57600080fd5b506001600160a01b038135811691602081013582169160409091013516610d9c565b005b610227611172565b6101626004803603602081101561038057600080fd5b50356001600160a01b0316611181565b61017e611362565b610162600480360360408110156103ae57600080fd5b506001600160a01b0381351690602001356113bd565b610162600480360360208110156103da57600080fd5b50356001600160a01b03166114de565b61022761171f565b61024b6004803603604081101561040857600080fd5b506001600160a01b038135811691602001351661172e565b60025460408051808201909152601b81526000805160206119ad83398151915260208201526000916001600160a01b031633146104db5760405162461bcd60e51b81526004018080602001828103825283818151815260200191508051906020019080838360005b838110156104a0578181015183820152602001610488565b50505050905090810190601f1680156104cd5780820380516001836020036101000a031916815260200191505b509250505060405180910390fd5b506040805180820190915260198152784552525f434f4e54524143545f53454c465f4144445245535360381b602082015282906001600160a01b0382163014156105665760405162461bcd60e51b81526020600482018181528351602484015283519092839260449091019190850190808383600083156104a0578181015183820152602001610488565b5060408051808201909152601081526f4552525f5a45524f5f4144445245535360801b602082015283906001600160a01b0382166105e55760405162461bcd60e51b81526020600482018181528351602484015283519092839260449091019190850190808383600083156104a0578181015183820152602001610488565b506004546001600160a01b0385811691161480159061061257506002546001600160a01b03858116911614155b801561062c57506001546001600160a01b03858116911614155b6040518060400160405280601081526020016f4552525f53414d455f4144445245535360801b815250906106a15760405162461bcd60e51b81526020600482018181528351602484015283519092839260449091019190850190808383600083156104a0578181015183820152602001610488565b50600454604080516020808252600e908201526d53595354454d5f4144445245535360901b8183015290516001600160a01b038088169316917f6840904f5b31827f74e1497360da245f56e530c8c3de3163a2d31f11493273c6919081900360600190a3600480546001600160a01b0386166001600160a01b0319909116179055600192505050919050565b6005805460408051602060026001851615610100026000190190941693909304601f810184900484028201840190925281815292918301828280156107b35780601f10610788576101008083540402835291602001916107b3565b820191906000526020600020905b81548152906001019060200180831161079657829003601f168201915b505050505081565b60408051808201909152601081526f4552525f5a45524f5f4144445245535360801b602082015260009083906001600160a01b03821661083c5760405162461bcd60e51b81526020600482018181528351602484015283519092839260449091019190850190808383600083156104a0578181015183820152602001610488565b503360008181526008602090815260408083206001600160a01b03891680855290835292819020879055805187815290519293927f8c5be1e5ebec7d5bd14f71427d1e84f3dd0314c0f7b2291e5b200ac8c7c3b925929181900390910190a35060019392505050565b6003546001600160a01b031681565b60005481565b60035460408051808201909152601b81526000805160206119ad83398151915260208201526000916001600160a01b031633146109385760405162461bcd60e51b81526020600482018181528351602484015283519092839260449091019190850190808383600083156104a0578181015183820152602001610488565b5060035460025460408051602080825260119082015270415554484f524954595f4144445245535360781b8183015290516001600160a01b039384169392909216917f6840904f5b31827f74e1497360da245f56e530c8c3de3163a2d31f11493273c69181900360600190a35060038054600280546001600160a01b03199081166001600160a01b03841617909155169055600190565b6040805180820190915260198152784552525f434f4e54524143545f53454c465f4144445245535360381b602082015260009083906001600160a01b038216301415610a5c5760405162461bcd60e51b81526020600482018181528351602484015283519092839260449091019190850190808383600083156104a0578181015183820152602001610488565b5060408051808201909152601081526f4552525f5a45524f5f4144445245535360801b602082015284906001600160a01b038216610adb5760405162461bcd60e51b81526020600482018181528351602484015283519092839260449091019190850190808383600083156104a0578181015183820152602001610488565b506001600160a01b0386166000908152600860209081526040808320338452909152902054841115610b4d576040805162461bcd60e51b81526020600482015260166024820152754552525f4e4f545f454e4f5547485f42414c414e434560501b604482015290519081900360640190fd5b610b58868686611759565b610b6157600080fd5b6001600160a01b0386166000908152600860209081526040808320338452909152902054610b8f908561185d565b6001600160a01b0380881660008181526008602090815260408083203380855292528083209590955593519289169391927f7d5ad68155582ceeebcef916386e9f0eb9f7a2dce10a880ced4d0d5d782317949190a450600195945050505050565b601281565b6002546001600160a01b031681565b600454600160a01b900460ff1681565b60408051808201909152601081526f4552525f5a45524f5f4144445245535360801b602082015260009084906001600160a01b038216610c955760405162461bcd60e51b81526020600482018181528351602484015283519092839260449091019190850190808383600083156104a0578181015183820152602001610488565b503360009081526008602090815260408083206001600160a01b03891684529091529020548414610d06576040805162461bcd60e51b815260206004820152601660248201527511549497d050d51253d397d393d517d0531313d5d15160521b604482015290519081900360640190fd5b3360008181526008602090815260408083206001600160a01b038a1680855290835292819020879055805187815290519293927f8c5be1e5ebec7d5bd14f71427d1e84f3dd0314c0f7b2291e5b200ac8c7c3b925929181900390910190a3506001949350505050565b6000610d7b338361186f565b92915050565b6001600160a01b031660009081526007602052604090205490565b60408051808201909152601081526f4552525f5a45524f5f4144445245535360801b602082015283906001600160a01b038216610e1a5760405162461bcd60e51b81526020600482018181528351602484015283519092839260449091019190850190808383600083156104a0578181015183820152602001610488565b5060408051808201909152601081526f4552525f5a45524f5f4144445245535360801b602082015283906001600160a01b038216610e995760405162461bcd60e51b81526020600482018181528351602484015283519092839260449091019190850190808383600083156104a0578181015183820152602001610488565b5060408051808201909152601081526f4552525f5a45524f5f4144445245535360801b602082015283906001600160a01b038216610f185760405162461bcd60e51b81526020600482018181528351602484015283519092839260449091019190850190808383600083156104a0578181015183820152602001610488565b50600454600160a01b900460ff1615610f78576040805162461bcd60e51b815260206004820152601c60248201527f4552525f4f574e45525f494e5449414c495a45445f414c524541445900000000604482015290519081900360640190fd5b846001600160a01b0316866001600160a01b031614156040518060400160405280601081526020016f4552525f53414d455f4144445245535360801b815250906110035760405162461bcd60e51b81526020600482018181528351602484015283519092839260449091019190850190808383600083156104a0578181015183820152602001610488565b50836001600160a01b0316856001600160a01b031614156040518060400160405280601081526020016f4552525f53414d455f4144445245535360801b8152509061108f5760405162461bcd60e51b81526020600482018181528351602484015283519092839260449091019190850190808383600083156104a0578181015183820152602001610488565b50836001600160a01b0316866001600160a01b031614156040518060400160405280601081526020016f4552525f53414d455f4144445245535360801b8152509061111b5760405162461bcd60e51b81526020600482018181528351602484015283519092839260449091019190850190808383600083156104a0578181015183820152602001610488565b5050600180546001600160a01b039687166001600160a01b03199182161790915560048054600280549689169684169690961790955560ff60a01b199590961693169290921792909216600160a01b179092555050565b6001546001600160a01b031681565b60025460408051808201909152601b81526000805160206119ad83398151915260208201526000916001600160a01b031633146111ff5760405162461bcd60e51b81526020600482018181528351602484015283519092839260449091019190850190808383600083156104a0578181015183820152602001610488565b5060408051808201909152601081526f4552525f5a45524f5f4144445245535360801b602082015282906001600160a01b03821661127e5760405162461bcd60e51b81526020600482018181528351602484015283519092839260449091019190850190808383600083156104a0578181015183820152602001610488565b506004546001600160a01b038481169116148015906112ab57506002546001600160a01b03848116911614155b80156112c557506001546001600160a01b03848116911614155b6040518060400160405280601081526020016f4552525f53414d455f4144445245535360801b8152509061133a5760405162461bcd60e51b81526020600482018181528351602484015283519092839260449091019190850190808383600083156104a0578181015183820152602001610488565b50600380546001600160a01b0385166001600160a01b03199091161790556001915050919050565b6006805460408051602060026001851615610100026000190190941693909304601f810184900484028201840190925281815292918301828280156107b35780601f10610788576101008083540402835291602001916107b3565b6040805180820190915260198152784552525f434f4e54524143545f53454c465f4144445245535360381b602082015260009083906001600160a01b03821630141561144a5760405162461bcd60e51b81526020600482018181528351602484015283519092839260449091019190850190808383600083156104a0578181015183820152602001610488565b5060408051808201909152601081526f4552525f5a45524f5f4144445245535360801b602082015284906001600160a01b0382166114c95760405162461bcd60e51b81526020600482018181528351602484015283519092839260449091019190850190808383600083156104a0578181015183820152602001610488565b506114d5338686611759565b95945050505050565b60025460408051808201909152601b81526000805160206119ad83398151915260208201526000916001600160a01b0316331461155c5760405162461bcd60e51b81526020600482018181528351602484015283519092839260449091019190850190808383600083156104a0578181015183820152602001610488565b5060408051808201909152601081526f4552525f5a45524f5f4144445245535360801b602082015282906001600160a01b0382166115db5760405162461bcd60e51b81526020600482018181528351602484015283519092839260449091019190850190808383600083156104a0578181015183820152602001610488565b506004546001600160a01b0384811691161480159061160857506002546001600160a01b03848116911614155b801561162257506001546001600160a01b03848116911614155b6040518060400160405280601081526020016f4552525f53414d455f4144445245535360801b815250906116975760405162461bcd60e51b81526020600482018181528351602484015283519092839260449091019190850190808383600083156104a0578181015183820152602001610488565b50600154604080516020808252600d908201526c282924a6a0a92cafa7aba722a960991b8183015290516001600160a01b038087169316917f6840904f5b31827f74e1497360da245f56e530c8c3de3163a2d31f11493273c6919081900360600190a3600180546001600160a01b0385166001600160a01b0319909116178155915050919050565b6004546001600160a01b031681565b6001600160a01b03918216600090815260086020908152604080832093909416825291909152205490565b6001600160a01b038316600090815260076020526040812054828110156117c0576040805162461bcd60e51b81526020600482015260166024820152754552525f4e4f545f454e4f5547485f42414c414e434560501b604482015290519081900360640190fd5b6117ca818461185d565b6001600160a01b03808716600090815260076020526040808220849055918716815220549091506117fb9084611996565b6001600160a01b0380861660008181526007602090815260409182902094909455805187815290519193928916927fddf252ad1be2c89b69c2b068fc378daa952ba7f163c4a11628f55a4df523b3ef92918290030190a3506001949350505050565b60008282111561186957fe5b50900390565b6001600160a01b038216600090815260076020526040812054828110156118d6576040805162461bcd60e51b81526020600482015260166024820152754552525f4e4f545f454e4f5547485f42414c414e434560501b604482015290519081900360640190fd5b6118e0818461185d565b6001600160a01b038516600090815260076020526040812082905554909150611909908461185d565b6000556040805184815290516001600160a01b038616917fcc16f5dbb4873280815c1ee09dbd06736cffcc184412cf7a71a0fdb75d397ca5919081900360200190a26040805184815290516000916001600160a01b038716917fddf252ad1be2c89b69c2b068fc378daa952ba7f163c4a11628f55a4df523b3ef9181900360200190a35060019392505050565b6000828201838110156119a557fe5b939250505056fe4552525f415554484f52495a45445f414444524553535f4f4e4c590000000000a265627a7a72305820069d34c4406a4cb917ee00e40dd286d14f1901090b4c6394c177a374491a737064736f6c63430005090032",
  "source": "pragma solidity 0.5.9;\nimport \"../common/SafeMath.sol\";\nimport \"./ERC20.sol\";\nimport \"../common/ProxyOwnable.sol\";\n\n\ncontract StandardToken is ERC20, SafeMath, ProxyOwnable {\n    \n    string public name;\n\n    string public symbol;\n \n    uint256 public constant decimals = 18;\n\n    mapping(address => uint256) balances;\n\n    mapping(address => mapping(address => uint256)) allowed;\n\n    event Mint(address indexed _to, uint256 value);\n    event Burn(address indexed from, uint256 value);\n    event TransferFrom(\n        address indexed spender,\n        address indexed _from,\n        address indexed _to\n    );\n    \n    function _transfer(address _from, address _to, uint256 _value)\n        internal\n        returns (bool)\n    {\n        uint256 senderBalance = balances[_from];\n        require(senderBalance >= _value, \"ERR_NOT_ENOUGH_BALANCE\");\n        senderBalance = safeSub(senderBalance, _value);\n        balances[_from] = senderBalance;\n        balances[_to] = safeAdd(balances[_to], _value);\n        emit Transfer(_from, _to, _value);\n        return true;\n    }\n    \n    function _burn(address _from, uint256 _value) internal returns (bool) {\n        uint256 senderBalance = balances[_from];\n        require(senderBalance >= _value, \"ERR_NOT_ENOUGH_BALANCE\");\n        senderBalance = safeSub(senderBalance, _value);\n        balances[_from] = senderBalance;\n        totalSupply = safeSub(totalSupply, _value);\n        emit Burn(_from, _value);\n        emit Transfer(_from, address(0), _value);\n        return true;\n    }\n    \n    function _mint(address _to, uint256 _value) internal returns (bool) {\n        balances[_to] = safeAdd(balances[_to], _value);\n        totalSupply = safeAdd(totalSupply, _value);\n        emit Mint(_to, _value);\n        emit Transfer(address(0), _to, _value);\n        return true;\n    }\n    /**\n     * @dev Gets the balance of the specified address.\n     * @param _who The address to query the the balance of.\n     * @return An uint256 representing the amount owned by the passed address.\n     */\n    function balanceOf(address _who) public view returns (uint256 balance) {\n        return balances[_who];\n    }\n    \n    /**\n     * @dev transfer token for a specified address\n     * @param _to The address to transfer to.\n     * @param _value The amount to be transferred.\n     */\n    function transfer(address _to, uint256 _value)\n        public\n        notThisAddress(_to)\n        notZeroAddress(_to)\n        returns (bool ok)\n    {\n        return _transfer(msg.sender, _to, _value);\n    }\n        \n    /**\n     * @dev `msg.sender` approves `spender` to spend `value` tokens\n     * @param _spender The address of the account able to transfer the tokens\n     * @param _value The amount of wei to be approved for transfer\n     * @return Whether the approval was successful or not\n     */\n    function approve(address _spender, uint256 _value)\n        public\n        notZeroAddress(_spender)\n        returns (bool ok)\n    {\n        allowed[msg.sender][_spender] = _value;\n        emit Approval(msg.sender, _spender, _value);\n        return true;\n    }\n\n    /**\n     * @dev `msg.sender` approves `spender` to spend `value` tokens\n     * @dev although all Dpp work with two argument approve method but we provide this method to ensure user from double spend\n     * @param _spender The address of the account able to transfer the tokens\n     * @param _value The amount of wei to be approved for transfer\n     * @param _currentValue the amount user already apporved\n     * @return Whether the approval was successful or not\n     */\n    function approve(address _spender, uint256 _currentValue, uint256 _value)\n        public\n        notZeroAddress(_spender)\n        returns (bool ok)\n    {\n        require(\n            allowed[msg.sender][_spender] == _currentValue,\n            \"ERR_ACTION_NOT_ALLOWED\"\n        );\n        allowed[msg.sender][_spender] = _value;\n        emit Approval(msg.sender, _spender, _value);\n        return true;\n    }\n    \n    /**\n     * @dev to check allowed token for transferFrom\n     * @param _owner The address of the account owning tokens\n     * @param _spender The address of the account able to transfer the tokens\n     * @return Amount of remaining tokens allowed to spent\n     */\n    function allowance(address _owner, address _spender)\n        public\n        view\n        returns (uint256)\n    {\n        return allowed[_owner][_spender];\n    }\n\n    /**\n     * @dev Transfer tokens from one address to another\n     * @param _from address The address which you want to send tokens from\n     * @param _to address The address which you want to transfer tokens\n     * @param _value uint256 the amount of tokens to be transferred\n     */\n    function transferFrom(address _from, address _to, uint256 _value)\n        public\n        notThisAddress(_to)\n        notZeroAddress(_to)\n        returns (bool)\n    {\n        require(allowed[_from][msg.sender] >= _value, \"ERR_NOT_ENOUGH_BALANCE\");\n        require(_transfer(_from, _to, _value));\n        allowed[_from][msg.sender] = safeSub(\n            allowed[_from][msg.sender],\n            _value\n        );\n        emit TransferFrom(msg.sender, _from, _to);\n        return true;\n    }\n\n    /**\n     * @dev burn token from this address\n     * @param _value uint256 the amount of tokens to be burned\n     */\n    function burn(uint256 _value) public returns (bool) {\n        return _burn(msg.sender, _value);\n    }\n}",
  "sourcePath": "/home/mind/Work/Projects/Jointer/Jointer_auction/NewContracts/contracts/Tokens/StandardToken.sol",
  "compiler": {
    "name": "solc",
    "version": "0.5.9+commit.e560f70d.Emscripten.clang"
  },
  "schemaVersion": "3.0.16",
  "updatedAt": "2020-04-22T14:52:56.463Z",
  "devdoc": {
    "methods": {
      "allowance(address,address)": {
        "details": "to check allowed token for transferFrom",
        "params": {
          "_owner": "The address of the account owning tokens",
          "_spender": "The address of the account able to transfer the tokens"
        },
        "return": "Amount of remaining tokens allowed to spent"
      },
      "approve(address,uint256)": {
        "details": "`msg.sender` approves `spender` to spend `value` tokens",
        "params": {
          "_spender": "The address of the account able to transfer the tokens",
          "_value": "The amount of wei to be approved for transfer"
        },
        "return": "Whether the approval was successful or not"
      },
      "approve(address,uint256,uint256)": {
        "details": "`msg.sender` approves `spender` to spend `value` tokensalthough all Dpp work with two argument approve method but we provide this method to ensure user from double spend",
        "params": {
          "_currentValue": "the amount user already apporved",
          "_spender": "The address of the account able to transfer the tokens",
          "_value": "The amount of wei to be approved for transfer"
        },
        "return": "Whether the approval was successful or not"
      },
      "balanceOf(address)": {
        "details": "Gets the balance of the specified address.",
        "params": {
          "_who": "The address to query the the balance of."
        },
        "return": "An uint256 representing the amount owned by the passed address."
      },
      "burn(uint256)": {
        "details": "burn token from this address",
        "params": {
          "_value": "uint256 the amount of tokens to be burned"
        }
      },
      "changeAuthorityAddress(address)": {
        "details": "change system address",
        "params": {
          "_which": "The address to which is new Authority address"
        }
      },
      "changePrimaryOwner(address)": {
        "details": "change primary ownership",
        "params": {
          "_which": "The address to which is new owner address"
        }
      },
      "changeSystemAddress(address)": {
        "details": "change system address",
        "params": {
          "_which": "The address to which is new system address"
        }
      },
      "initializeOwner(address,address,address)": {
        "details": "The Ownable constructor sets the `primaryOwner` and `systemAddress` and '_multisigAddress' account."
      },
      "transfer(address,uint256)": {
        "details": "transfer token for a specified address",
        "params": {
          "_to": "The address to transfer to.",
          "_value": "The amount to be transferred."
        }
      },
      "transferFrom(address,address,uint256)": {
        "details": "Transfer tokens from one address to another",
        "params": {
          "_from": "address The address which you want to send tokens from",
          "_to": "address The address which you want to transfer tokens",
          "_value": "uint256 the amount of tokens to be transferred"
        }
      }
    }
  },
  "userdoc": {
    "methods": {}
  }
}