{
  "contractName": "StockToken",
  "abi": [
    {
      "constant": false,
      "inputs": [
        {
          "name": "_which",
          "type": "address"
        }
      ],
      "name": "changeSystemAddress",
      "outputs": [
        {
          "name": "",
          "type": "bool"
        }
      ],
      "payable": false,
      "stateMutability": "nonpayable",
      "type": "function"
    },
    {
      "constant": true,
      "inputs": [],
      "name": "name",
      "outputs": [
        {
          "name": "",
          "type": "string"
        }
      ],
      "payable": false,
      "stateMutability": "view",
      "type": "function"
    },
    {
      "constant": false,
      "inputs": [
        {
          "name": "_fromToken",
          "type": "address"
        },
        {
          "name": "_amount",
          "type": "uint256"
        }
      ],
      "name": "buyTokens",
      "outputs": [
        {
          "name": "",
          "type": "uint256"
        }
      ],
      "payable": false,
      "stateMutability": "nonpayable",
      "type": "function"
    },
    {
      "constant": false,
      "inputs": [
        {
          "name": "_spender",
          "type": "address"
        },
        {
          "name": "_value",
          "type": "uint256"
        }
      ],
      "name": "approve",
      "outputs": [
        {
          "name": "ok",
          "type": "bool"
        }
      ],
      "payable": false,
      "stateMutability": "nonpayable",
      "type": "function"
    },
    {
      "constant": true,
      "inputs": [],
      "name": "newAuthorityAddress",
      "outputs": [
        {
          "name": "",
          "type": "address"
        }
      ],
      "payable": false,
      "stateMutability": "view",
      "type": "function"
    },
    {
      "constant": true,
      "inputs": [],
      "name": "isTokenMature",
      "outputs": [
        {
          "name": "",
          "type": "bool"
        }
      ],
      "payable": false,
      "stateMutability": "view",
      "type": "function"
    },
    {
      "constant": true,
      "inputs": [],
      "name": "totalSupply",
      "outputs": [
        {
          "name": "",
          "type": "uint256"
        }
      ],
      "payable": false,
      "stateMutability": "view",
      "type": "function"
    },
    {
      "constant": false,
      "inputs": [],
      "name": "acceptAuthorityAddress",
      "outputs": [
        {
          "name": "",
          "type": "bool"
        }
      ],
      "payable": false,
      "stateMutability": "nonpayable",
      "type": "function"
    },
    {
      "constant": false,
      "inputs": [
        {
          "name": "_from",
          "type": "address"
        },
        {
          "name": "_to",
          "type": "address"
        },
        {
          "name": "_value",
          "type": "uint256"
        }
      ],
      "name": "transferFrom",
      "outputs": [
        {
          "name": "",
          "type": "bool"
        }
      ],
      "payable": false,
      "stateMutability": "nonpayable",
      "type": "function"
    },
    {
      "constant": true,
      "inputs": [],
      "name": "returnToken",
      "outputs": [
        {
          "name": "",
          "type": "address"
        }
      ],
      "payable": false,
      "stateMutability": "view",
      "type": "function"
    },
    {
      "constant": true,
      "inputs": [],
      "name": "decimals",
      "outputs": [
        {
          "name": "",
          "type": "uint256"
        }
      ],
      "payable": false,
      "stateMutability": "view",
      "type": "function"
    },
    {
      "constant": false,
      "inputs": [
        {
          "name": "_spender",
          "type": "address"
        },
        {
          "name": "_value",
          "type": "uint256"
        }
      ],
      "name": "increaseAllowance",
      "outputs": [
        {
          "name": "",
          "type": "bool"
        }
      ],
      "payable": false,
      "stateMutability": "nonpayable",
      "type": "function"
    },
    {
      "constant": true,
      "inputs": [],
      "name": "authorityAddress",
      "outputs": [
        {
          "name": "",
          "type": "address"
        }
      ],
      "payable": false,
      "stateMutability": "view",
      "type": "function"
    },
    {
      "constant": false,
      "inputs": [
        {
          "name": "_value",
          "type": "uint256"
        }
      ],
      "name": "burn",
      "outputs": [
        {
          "name": "",
          "type": "bool"
        }
      ],
      "payable": false,
      "stateMutability": "nonpayable",
      "type": "function"
    },
    {
      "constant": true,
      "inputs": [],
      "name": "tokenMaturityDays",
      "outputs": [
        {
          "name": "",
          "type": "uint256"
        }
      ],
      "payable": false,
      "stateMutability": "view",
      "type": "function"
    },
    {
      "constant": true,
      "inputs": [
        {
          "name": "_who",
          "type": "address"
        }
      ],
      "name": "balanceOf",
      "outputs": [
        {
          "name": "balance",
          "type": "uint256"
        }
      ],
      "payable": false,
      "stateMutability": "view",
      "type": "function"
    },
    {
      "constant": true,
      "inputs": [],
      "name": "tokenSaleStartDate",
      "outputs": [
        {
          "name": "",
          "type": "uint256"
        }
      ],
      "payable": false,
      "stateMutability": "view",
      "type": "function"
    },
    {
      "constant": true,
      "inputs": [],
      "name": "primaryOwner",
      "outputs": [
        {
          "name": "",
          "type": "address"
        }
      ],
      "payable": false,
      "stateMutability": "view",
      "type": "function"
    },
    {
      "constant": false,
      "inputs": [
        {
          "name": "_which",
          "type": "address"
        }
      ],
      "name": "changeAuthorityAddress",
      "outputs": [
        {
          "name": "",
          "type": "bool"
        }
      ],
      "payable": false,
      "stateMutability": "nonpayable",
      "type": "function"
    },
    {
      "constant": true,
      "inputs": [],
      "name": "symbol",
      "outputs": [
        {
          "name": "",
          "type": "string"
        }
      ],
      "payable": false,
      "stateMutability": "view",
      "type": "function"
    },
    {
      "constant": true,
      "inputs": [],
      "name": "tokenHoldBackDays",
      "outputs": [
        {
          "name": "",
          "type": "uint256"
        }
      ],
      "payable": false,
      "stateMutability": "view",
      "type": "function"
    },
    {
      "constant": false,
      "inputs": [
        {
          "name": "_spender",
          "type": "address"
        },
        {
          "name": "_value",
          "type": "uint256"
        }
      ],
      "name": "decreaseAllowance",
      "outputs": [
        {
          "name": "",
          "type": "bool"
        }
      ],
      "payable": false,
      "stateMutability": "nonpayable",
      "type": "function"
    },
    {
      "constant": false,
      "inputs": [
        {
          "name": "_to",
          "type": "address"
        },
        {
          "name": "_value",
          "type": "uint256"
        }
      ],
      "name": "transfer",
      "outputs": [
        {
          "name": "ok",
          "type": "bool"
        }
      ],
      "payable": false,
      "stateMutability": "nonpayable",
      "type": "function"
    },
    {
      "constant": false,
      "inputs": [
        {
          "name": "_address",
          "type": "address"
        }
      ],
      "name": "updateRegistery",
      "outputs": [
        {
          "name": "",
          "type": "bool"
        }
      ],
      "payable": false,
      "stateMutability": "nonpayable",
      "type": "function"
    },
    {
      "constant": true,
      "inputs": [],
      "name": "isHoldbackDaysOver",
      "outputs": [
        {
          "name": "",
          "type": "bool"
        }
      ],
      "payable": false,
      "stateMutability": "view",
      "type": "function"
    },
    {
      "constant": false,
      "inputs": [
        {
          "name": "_which",
          "type": "address"
        }
      ],
      "name": "changePrimaryOwner",
      "outputs": [
        {
          "name": "",
          "type": "bool"
        }
      ],
      "payable": false,
      "stateMutability": "nonpayable",
      "type": "function"
    },
    {
      "constant": true,
      "inputs": [],
      "name": "systemAddress",
      "outputs": [
        {
          "name": "",
          "type": "address"
        }
      ],
      "payable": false,
      "stateMutability": "view",
      "type": "function"
    },
    {
      "constant": false,
      "inputs": [
        {
          "name": "_which",
          "type": "address"
        },
        {
          "name": "_amount",
          "type": "uint256"
        }
      ],
      "name": "forceSwap",
      "outputs": [
        {
          "name": "",
          "type": "bool"
        }
      ],
      "payable": false,
      "stateMutability": "nonpayable",
      "type": "function"
    },
    {
      "constant": true,
      "inputs": [],
      "name": "contractsRegistry",
      "outputs": [
        {
          "name": "",
          "type": "address"
        }
      ],
      "payable": false,
      "stateMutability": "view",
      "type": "function"
    },
    {
      "constant": true,
      "inputs": [],
      "name": "exchangeableToken",
      "outputs": [
        {
          "name": "",
          "type": "address"
        }
      ],
      "payable": false,
      "stateMutability": "view",
      "type": "function"
    },
    {
      "constant": true,
      "inputs": [
        {
          "name": "_owner",
          "type": "address"
        },
        {
          "name": "_spender",
          "type": "address"
        }
      ],
      "name": "allowance",
      "outputs": [
        {
          "name": "",
          "type": "uint256"
        }
      ],
      "payable": false,
      "stateMutability": "view",
      "type": "function"
    },
    {
      "constant": false,
      "inputs": [
        {
          "name": "_which",
          "type": "address"
        }
      ],
      "name": "setExchangeableToken",
      "outputs": [
        {
          "name": "",
          "type": "bool"
        }
      ],
      "payable": false,
      "stateMutability": "nonpayable",
      "type": "function"
    },
    {
      "constant": false,
      "inputs": [
        {
          "name": "_amount",
          "type": "uint256"
        }
      ],
      "name": "swapTokens",
      "outputs": [
        {
          "name": "",
          "type": "bool"
        }
      ],
      "payable": false,
      "stateMutability": "nonpayable",
      "type": "function"
    },
    {
      "inputs": [
        {
          "name": "_name",
          "type": "string"
        },
        {
          "name": "_symbol",
          "type": "string"
        },
        {
          "name": "_systemAddress",
          "type": "address"
        },
        {
          "name": "_authorityAddress",
          "type": "address"
        },
        {
          "name": "_registeryAddress",
          "type": "address"
        },
        {
          "name": "_tokenMaturityDays",
          "type": "uint256"
        },
        {
          "name": "_tokenHoldBackDays",
          "type": "uint256"
        },
        {
          "name": "_returnToken",
          "type": "address"
        },
        {
          "name": "_which",
          "type": "address[]"
        },
        {
          "name": "_amount",
          "type": "uint256[]"
        }
      ],
      "payable": false,
      "stateMutability": "nonpayable",
      "type": "constructor"
    },
    {
      "payable": true,
      "stateMutability": "payable",
      "type": "fallback"
    },
    {
      "anonymous": false,
      "inputs": [
        {
          "indexed": true,
          "name": "_to",
          "type": "address"
        },
        {
          "indexed": false,
          "name": "value",
          "type": "uint256"
        }
      ],
      "name": "Mint",
      "type": "event"
    },
    {
      "anonymous": false,
      "inputs": [
        {
          "indexed": true,
          "name": "from",
          "type": "address"
        },
        {
          "indexed": false,
          "name": "value",
          "type": "uint256"
        }
      ],
      "name": "Burn",
      "type": "event"
    },
    {
      "anonymous": false,
      "inputs": [
        {
          "indexed": true,
          "name": "spender",
          "type": "address"
        },
        {
          "indexed": true,
          "name": "_from",
          "type": "address"
        },
        {
          "indexed": true,
          "name": "_to",
          "type": "address"
        }
      ],
      "name": "TransferFrom",
      "type": "event"
    },
    {
      "anonymous": false,
      "inputs": [
        {
          "indexed": false,
          "name": "ownerType",
          "type": "string"
        },
        {
          "indexed": true,
          "name": "previousOwner",
          "type": "address"
        },
        {
          "indexed": true,
          "name": "newOwner",
          "type": "address"
        }
      ],
      "name": "OwnershipTransferred",
      "type": "event"
    },
    {
      "anonymous": false,
      "inputs": [
        {
          "indexed": true,
          "name": "previousOwner",
          "type": "address"
        },
        {
          "indexed": true,
          "name": "newOwner",
          "type": "address"
        }
      ],
      "name": "AuthorityAddressChnageCall",
      "type": "event"
    },
    {
      "anonymous": false,
      "inputs": [
        {
          "indexed": true,
          "name": "from",
          "type": "address"
        },
        {
          "indexed": true,
          "name": "to",
          "type": "address"
        },
        {
          "indexed": false,
          "name": "value",
          "type": "uint256"
        }
      ],
      "name": "Transfer",
      "type": "event"
    },
    {
      "anonymous": false,
      "inputs": [
        {
          "indexed": true,
          "name": "owner",
          "type": "address"
        },
        {
          "indexed": true,
          "name": "spender",
          "type": "address"
        },
        {
          "indexed": false,
          "name": "value",
          "type": "uint256"
        }
      ],
      "name": "Approval",
      "type": "event"
    }
  ],
  "bytecode": "0x6080604052600180546001600160a01b0319908116909155600280548216905560038054821690556004805490911690553480156200003d57600080fd5b50604051620031203803806200312083398181016040526101408110156200006457600080fd5b8101908080516401000000008111156200007d57600080fd5b820160208101848111156200009157600080fd5b8151640100000000811182820187101715620000ac57600080fd5b50509291906020018051640100000000811115620000c957600080fd5b82016020810184811115620000dd57600080fd5b8151640100000000811182820187101715620000f857600080fd5b5050602082015160408301516060840151608085015160a086015160c087015160e0909701805196999598949793969295919491926401000000008111156200014057600080fd5b820160208101848111156200015457600080fd5b81518560208202830111640100000000821117156200017257600080fd5b505092919060200180516401000000008111156200018f57600080fd5b82016020810184811115620001a357600080fd5b8151856020820283011164010000000082111715620001c157600080fd5b5050929190505050828a8a8a8a89898c808787878781818160006001600160a01b0316816001600160a01b031614156040518060400160405280601081526020017f4552525f5a45524f5f414444524553530000000000000000000000000000000081525090620002cd576040517f08c379a00000000000000000000000000000000000000000000000000000000081526004018080602001828103825283818151815260200191508051906020019080838360005b838110156200029157818101518382015260200162000277565b50505050905090810190601f168015620002bf5780820380516001836020036101000a031916815260200191505b509250505060405180910390fd5b5060408051808201909152601081527f4552525f53414d455f41444452455353000000000000000000000000000000006020820152336001600160a01b038516141562000377576040517f08c379a00000000000000000000000000000000000000000000000000000000081526020600482018181528351602484015283519092839260449091019190850190808383600083156200029157818101518382015260200162000277565b50816001600160a01b0316836001600160a01b031614156040518060400160405280601081526020017f4552525f53414d455f4144445245535300000000000000000000000000000000815250906200042d576040517f08c379a00000000000000000000000000000000000000000000000000000000081526020600482018181528351602484015283519092839260449091019190850190808383600083156200029157818101518382015260200162000277565b5060408051808201909152601081527f4552525f53414d455f41444452455353000000000000000000000000000000006020820152336001600160a01b0384161415620004d7576040517f08c379a00000000000000000000000000000000000000000000000000000000081526020600482018181528351602484015283519092839260449091019190850190808383600083156200029157818101518382015260200162000277565b5050600180546001600160a01b03199081163317909155600380546001600160a01b039485169083161790556002805492909316911617905583511580159062000522575060008351115b6200052c57600080fd5b83516200054190600590602087019062000aaa565b5082516200055790600690602086019062000aaa565b505060408051808201909152601081527f4552525f5a45524f5f414444524553530000000000000000000000000000000060208201528493509150506001600160a01b03821662000605576040517f08c379a00000000000000000000000000000000000000000000000000000000081526020600482018181528351602484015283519092839260449091019190850190808383600083156200029157818101518382015260200162000277565b5050600980546001600160a01b0319166001600160a01b0392831617905542600a55600b9390935550600c5560408051808201909152601081527f4552525f5a45524f5f414444524553530000000000000000000000000000000060208201528695509350841615159150620006da9050576040517f08c379a00000000000000000000000000000000000000000000000000000000081526020600482018181528351602484015283519092839260449091019190850190808383600083156200029157818101518382015260200162000277565b5050600d80546001600160a01b0319166001600160a01b039290921691909117905580518251146200076d57604080517f08c379a000000000000000000000000000000000000000000000000000000000815260206004820152601360248201527f4552525f4e4f545f53414d455f4c454e47544800000000000000000000000000604482015290519081900360640190fd5b6000620007a37f57484954455f4c495354000000000000000000000000000000000000000000006001600160e01b036200090d16565b905060005b8351811015620008fb57816001600160a01b0316636f9170f6858381518110620007ce57fe5b60200260200101516040518263ffffffff1660e01b815260040180826001600160a01b03166001600160a01b0316815260200191505060206040518083038186803b1580156200081d57600080fd5b505afa15801562000832573d6000803e3d6000fd5b505050506040513d60208110156200084957600080fd5b5051620008b757604080517f08c379a000000000000000000000000000000000000000000000000000000000815260206004820152601c60248201527f4552525f5452414e534645525f434845434b5f57484954454c49535400000000604482015290519081900360640190fd5b620008f1848281518110620008c857fe5b6020026020010151848381518110620008dd57fe5b6020026020010151620009a760201b60201c565b50600101620007a8565b50505050505050505050505062000b4f565b600954604080517ffa86cf560000000000000000000000000000000000000000000000000000000081526004810184905290516000926001600160a01b03169163fa86cf56916024808301926020929190829003018186803b1580156200097357600080fd5b505afa15801562000988573d6000803e3d6000fd5b505050506040513d60208110156200099f57600080fd5b505192915050565b6001600160a01b038216600090815260076020526040812054620009d590836001600160e01b0362000a9316565b6001600160a01b0384166000908152600760205260408120919091555462000a0790836001600160e01b0362000a9316565b6000556040805183815290516001600160a01b038516917f0f6798a560793a54c3bcfe86a93cde1e73087d944c0ea20544137d4121396885919081900360200190a26040805183815290516001600160a01b038516916000917fddf252ad1be2c89b69c2b068fc378daa952ba7f163c4a11628f55a4df523b3ef9181900360200190a350600192915050565b60008282018381101562000aa357fe5b9392505050565b828054600181600116156101000203166002900490600052602060002090601f016020900481019282601f1062000aed57805160ff191683800117855562000b1d565b8280016001018555821562000b1d579182015b8281111562000b1d57825182559160200191906001019062000b00565b5062000b2b92915062000b2f565b5090565b62000b4c91905b8082111562000b2b576000815560010162000b36565b90565b6125c18062000b5f6000396000f3fe6080604052600436106101ee5760003560e01c80638dcab1871161010d578063c4b01ebf116100a0578063d98d0c7e1161006f578063d98d0c7e146106a7578063dccaef74146106bc578063dd62ed3e146106d1578063f86119641461070c578063fe784eaa1461073f576101ee565b8063c4b01ebf14610611578063c4d3426814610626578063d3e848f114610659578063d532d6861461066e576101ee565b80639668d13e116100dc5780639668d13e14610557578063a457c2d71461056c578063a9059cbb146105a5578063bc1366fe146105de576101ee565b80638dcab187146104e55780638e10be33146104fa5780638f51368b1461050f57806395d89b4114610542576101ee565b806323b872dd116101855780633c695d4e116101545780633c695d4e1461045e57806342966c681461047357806353ecc7721461049d57806370a08231146104b2576101ee565b806323b872dd146103b85780632e4a3657146103fb578063313ce567146104105780633950935114610425576101ee565b80630abaad7a116101c15780630abaad7a1461034857806317ebc35f1461037957806318160ddd1461038e57806320c462fe146103a3576101ee565b806304d63089146101f357806306fdde031461023a5780630752881a146102c4578063095ea7b31461030f575b600080fd5b3480156101ff57600080fd5b506102266004803603602081101561021657600080fd5b50356001600160a01b0316610769565b604080519115158252519081900360200190f35b34801561024657600080fd5b5061024f610a76565b6040805160208082528351818301528351919283929083019185019080838360005b83811015610289578181015183820152602001610271565b50505050905090810190601f1680156102b65780820380516001836020036101000a031916815260200191505b509250505060405180910390f35b3480156102d057600080fd5b506102fd600480360360408110156102e757600080fd5b506001600160a01b038135169060200135610b04565b60408051918252519081900360200190f35b34801561031b57600080fd5b506102266004803603604081101561033257600080fd5b506001600160a01b038135169060200135610f76565b34801561035457600080fd5b5061035d61100d565b604080516001600160a01b039092168252519081900360200190f35b34801561038557600080fd5b5061022661101c565b34801561039a57600080fd5b506102fd611070565b3480156103af57600080fd5b50610226611076565b3480156103c457600080fd5b50610226600480360360608110156103db57600080fd5b506001600160a01b0381358116916020810135909116906040013561118b565b34801561040757600080fd5b5061035d6111b3565b34801561041c57600080fd5b506102fd6111c2565b34801561043157600080fd5b506102266004803603604081101561044857600080fd5b506001600160a01b0381351690602001356111c7565b34801561046a57600080fd5b5061035d611207565b34801561047f57600080fd5b506102266004803603602081101561049657600080fd5b5035611216565b3480156104a957600080fd5b506102fd611222565b3480156104be57600080fd5b506102fd600480360360208110156104d557600080fd5b50356001600160a01b0316611228565b3480156104f157600080fd5b506102fd611243565b34801561050657600080fd5b5061035d611249565b34801561051b57600080fd5b506102266004803603602081101561053257600080fd5b50356001600160a01b0316611258565b34801561054e57600080fd5b5061024f611439565b34801561056357600080fd5b506102fd611494565b34801561057857600080fd5b506102266004803603604081101561058f57600080fd5b506001600160a01b03813516906020013561149a565b3480156105b157600080fd5b50610226600480360360408110156105c857600080fd5b506001600160a01b038135169060200135611512565b3480156105ea57600080fd5b506102266004803603602081101561060157600080fd5b50356001600160a01b0316611539565b34801561061d57600080fd5b5061022661165e565b34801561063257600080fd5b506102266004803603602081101561064957600080fd5b50356001600160a01b0316611670565b34801561066557600080fd5b5061035d6118b1565b34801561067a57600080fd5b506102266004803603604081101561069157600080fd5b506001600160a01b0381351690602001356118c0565b3480156106b357600080fd5b5061035d611949565b3480156106c857600080fd5b5061035d611958565b3480156106dd57600080fd5b506102fd600480360360408110156106f457600080fd5b506001600160a01b0381358116916020013516611967565b34801561071857600080fd5b506102266004803603602081101561072f57600080fd5b50356001600160a01b0316611992565b34801561074b57600080fd5b506102266004803603602081101561076257600080fd5b5035611a8c565b60025460408051808201909152601b815260008051602061256d83398151915260208201526000916001600160a01b031633146108245760405162461bcd60e51b81526004018080602001828103825283818151815260200191508051906020019080838360005b838110156107e95781810151838201526020016107d1565b50505050905090810190601f1680156108165780820380516001836020036101000a031916815260200191505b509250505060405180910390fd5b506040805180820190915260198152784552525f434f4e54524143545f53454c465f4144445245535360381b602082015282906001600160a01b0382163014156108af5760405162461bcd60e51b81526020600482018181528351602484015283519092839260449091019190850190808383600083156107e95781810151838201526020016107d1565b5060408051808201909152601081526f4552525f5a45524f5f4144445245535360801b602082015283906001600160a01b03821661092e5760405162461bcd60e51b81526020600482018181528351602484015283519092839260449091019190850190808383600083156107e95781810151838201526020016107d1565b506003546001600160a01b0385811691161480159061095b57506002546001600160a01b03858116911614155b801561097557506001546001600160a01b03858116911614155b6040518060400160405280601081526020016f4552525f53414d455f4144445245535360801b815250906109ea5760405162461bcd60e51b81526020600482018181528351602484015283519092839260449091019190850190808383600083156107e95781810151838201526020016107d1565b50600354604080516020808252600e908201526d53595354454d5f4144445245535360901b8183015290516001600160a01b038088169316917f6840904f5b31827f74e1497360da245f56e530c8c3de3163a2d31f11493273c6919081900360600190a3600380546001600160a01b0386166001600160a01b0319909116179055600192505050919050565b6005805460408051602060026001851615610100026000190190941693909304601f81018490048402820184019092528181529291830182828015610afc5780601f10610ad157610100808354040283529160200191610afc565b820191906000526020600020905b815481529060010190602001808311610adf57829003601f168201915b505050505081565b600e5460009083906001600160a01b0380831691161480610b325750600d546001600160a01b038281169116145b610b83576040805162461bcd60e51b815260206004820152601860248201527f4552525f544f4b454e5f49535f4e4f545f494e5f4c4953540000000000000000604482015290519081900360640190fd5b6000610b9b6915d212551157d31254d560b21b611a98565b60408051633ba01ee160e11b815230600482015233602482015290519192506001600160a01b038316916377403dc291604480820192602092909190829003018186803b158015610beb57600080fd5b505afa158015610bff573d6000803e3d6000fd5b505050506040513d6020811015610c1557600080fd5b5051610c68576040805162461bcd60e51b815260206004820152601e60248201527f4552525f4e4f545f484156455f5045524d495353494f4e5f544f5f4255590000604482015290519081900360640190fd5b6000610c7e6743555252454e435960c01b611a98565b90506000816001600160a01b0316637058346f886040518263ffffffff1660e01b815260040180826001600160a01b03166001600160a01b0316815260200191505060206040518083038186803b158015610cd857600080fd5b505afa158015610cec573d6000803e3d6000fd5b505050506040513d6020811015610d0257600080fd5b505160408051637058346f60e01b815230600482015290519192506000916001600160a01b03851691637058346f916024808301926020929190829003018186803b158015610d5057600080fd5b505afa158015610d64573d6000803e3d6000fd5b505050506040513d6020811015610d7a57600080fd5b505190506000610d93610d8d8985611b16565b83611b3a565b600d549091506001600160a01b038a811691161415610e6857886001600160a01b03166323b872dd33610dcd64159055531560da1b611a98565b8b6040518463ffffffff1660e01b815260040180846001600160a01b03166001600160a01b03168152602001836001600160a01b03166001600160a01b031681526020018281526020019350505050602060405180830381600087803b158015610e3657600080fd5b505af1158015610e4a573d6000803e3d6000fd5b505050506040513d6020811015610e6057600080fd5b50610f5f9050565b604080516323b872dd60e01b8152336004820152306024820152604481018a905290516001600160a01b038b16916323b872dd9160648083019260209291908290030181600087803b158015610ebd57600080fd5b505af1158015610ed1573d6000803e3d6000fd5b505050506040513d6020811015610ee757600080fd5b505060408051630852cd8d60e31b8152600481018a905290516001600160a01b038b16916342966c689160248083019260209291908290030181600087803b158015610f3257600080fd5b505af1158015610f46573d6000803e3d6000fd5b505050506040513d6020811015610f5c57600080fd5b50505b610f693382611b4f565b5098975050505050505050565b60408051808201909152601081526f4552525f5a45524f5f4144445245535360801b602082015260009083906001600160a01b038216610ff75760405162461bcd60e51b81526020600482018181528351602484015283519092839260449091019190850190808383600083156107e95781810151838201526020016107d1565b50611003338585611c25565b5060019392505050565b6004546001600160a01b031681565b6000600b54600014156110315750600061106d565b600061104262015180600b54611b16565b9050600061105282600a54611d07565b90508042106110665760019250505061106d565b6000925050505b90565b60005481565b60045460408051808201909152601b815260008051602061256d83398151915260208201526000916001600160a01b031633146110f45760405162461bcd60e51b81526020600482018181528351602484015283519092839260449091019190850190808383600083156107e95781810151838201526020016107d1565b5060045460025460408051602080825260119082015270415554484f524954595f4144445245535360781b8183015290516001600160a01b039384169392909216917f6840904f5b31827f74e1497360da245f56e530c8c3de3163a2d31f11493273c69181900360600190a35060048054600280546001600160a01b03199081166001600160a01b03841617909155169055600190565b60006111978484611d16565b6111a057600080fd5b6111ab848484611eda565b949350505050565b600d546001600160a01b031681565b601281565b3360008181526008602090815260408083206001600160a01b0387168452909152812054909161100390856111fc8487611d07565b611c25565b92915050565b6002546001600160a01b031681565b600061120133836120fb565b600b5481565b6001600160a01b031660009081526007602052604090205490565b600a5481565b6001546001600160a01b031681565b60025460408051808201909152601b815260008051602061256d83398151915260208201526000916001600160a01b031633146112d65760405162461bcd60e51b81526020600482018181528351602484015283519092839260449091019190850190808383600083156107e95781810151838201526020016107d1565b5060408051808201909152601081526f4552525f5a45524f5f4144445245535360801b602082015282906001600160a01b0382166113555760405162461bcd60e51b81526020600482018181528351602484015283519092839260449091019190850190808383600083156107e95781810151838201526020016107d1565b506003546001600160a01b0384811691161480159061138257506002546001600160a01b03848116911614155b801561139c57506001546001600160a01b03848116911614155b6040518060400160405280601081526020016f4552525f53414d455f4144445245535360801b815250906114115760405162461bcd60e51b81526020600482018181528351602484015283519092839260449091019190850190808383600083156107e95781810151838201526020016107d1565b50600480546001600160a01b0385166001600160a01b03199091161790556001915050919050565b6006805460408051602060026001851615610100026000190190941693909304601f81018490048402820184019092528181529291830182828015610afc5780601f10610ad157610100808354040283529160200191610afc565b600c5481565b3360009081526008602090815260408083206001600160a01b038616845290915281205482811015611503576040805162461bcd60e51b815260206004820152600d60248201526c4552525f414c4c4f57454e434560981b604482015290519081900360640190fd5b61100333856111fc8487612222565b600061151e3384611d16565b61152757600080fd5b611532338484612234565b9392505050565b60025460408051808201909152601b815260008051602061256d83398151915260208201526000916001600160a01b031633146115b75760405162461bcd60e51b81526020600482018181528351602484015283519092839260449091019190850190808383600083156107e95781810151838201526020016107d1565b5060408051808201909152601081526f4552525f5a45524f5f4144445245535360801b602082015282906001600160a01b0382166116365760405162461bcd60e51b81526020600482018181528351602484015283519092839260449091019190850190808383600083156107e95781810151838201526020016107d1565b50600980546001600160a01b0385166001600160a01b03199091161790556001915050919050565b60008061104262015180600c54611b16565b60025460408051808201909152601b815260008051602061256d83398151915260208201526000916001600160a01b031633146116ee5760405162461bcd60e51b81526020600482018181528351602484015283519092839260449091019190850190808383600083156107e95781810151838201526020016107d1565b5060408051808201909152601081526f4552525f5a45524f5f4144445245535360801b602082015282906001600160a01b03821661176d5760405162461bcd60e51b81526020600482018181528351602484015283519092839260449091019190850190808383600083156107e95781810151838201526020016107d1565b506003546001600160a01b0384811691161480159061179a57506002546001600160a01b03848116911614155b80156117b457506001546001600160a01b03848116911614155b6040518060400160405280601081526020016f4552525f53414d455f4144445245535360801b815250906118295760405162461bcd60e51b81526020600482018181528351602484015283519092839260449091019190850190808383600083156107e95781810151838201526020016107d1565b50600154604080516020808252600d908201526c282924a6a0a92cafa7aba722a960991b8183015290516001600160a01b038087169316917f6840904f5b31827f74e1497360da245f56e530c8c3de3163a2d31f11493273c6919081900360600190a3600180546001600160a01b0385166001600160a01b0319909116178155915050919050565b6003546001600160a01b031681565b60035460408051808201909152601b815260008051602061256d83398151915260208201526000916001600160a01b0316331461193e5760405162461bcd60e51b81526020600482018181528351602484015283519092839260449091019190850190808383600083156107e95781810151838201526020016107d1565b506115328383612338565b6009546001600160a01b031681565b600e546001600160a01b031681565b6001600160a01b03918216600090815260086020908152604080832093909416825291909152205490565b60035460408051808201909152601b815260008051602061256d83398151915260208201526000916001600160a01b03163314611a105760405162461bcd60e51b81526020600482018181528351602484015283519092839260449091019190850190808383600083156107e95781810151838201526020016107d1565b50600e546001600160a01b031615611a68576040805162461bcd60e51b815260206004820152601660248201527511549497d050d51253d397d393d517d0531313d5d15160521b604482015290519081900360640190fd5b600e80546001600160a01b0319166001600160a01b03939093169290921790915590565b60006112013383612338565b60095460408051637d4367ab60e11b81526004810184905290516000926001600160a01b03169163fa86cf56916024808301926020929190829003018186803b158015611ae457600080fd5b505afa158015611af8573d6000803e3d6000fd5b505050506040513d6020811015611b0e57600080fd5b505192915050565b600082611b2557506000611201565b82820282848281611b3257fe5b041461153257fe5b600080828481611b4657fe5b04949350505050565b6001600160a01b038216600090815260076020526040812054611b729083611d07565b6001600160a01b03841660009081526007602052604081209190915554611b999083611d07565b6000556040805183815290516001600160a01b038516917f0f6798a560793a54c3bcfe86a93cde1e73087d944c0ea20544137d4121396885919081900360200190a26040805183815290516001600160a01b038516916000917fddf252ad1be2c89b69c2b068fc378daa952ba7f163c4a11628f55a4df523b3ef9181900360200190a350600192915050565b60408051808201909152601081526f4552525f5a45524f5f4144445245535360801b602082015282906001600160a01b038216611ca35760405162461bcd60e51b81526020600482018181528351602484015283519092839260449091019190850190808383600083156107e95781810151838201526020016107d1565b506001600160a01b03808516600081815260086020908152604080832094881680845294825291829020869055815186815291517f8c5be1e5ebec7d5bd14f71427d1e84f3dd0314c0f7b2291e5b200ac8c7c3b9259281900390910190a350505050565b60008282018381101561153257fe5b600080611d2f6915d212551157d31254d560b21b611a98565b60408051636c7d308160e01b815233600482015290519192506001600160a01b03831691636c7d308191602480820192602092909190829003018186803b158015611d7957600080fd5b505afa158015611d8d573d6000803e3d6000fd5b505050506040513d6020811015611da357600080fd5b50516110035760408051639e4d7ae560e01b81526001600160a01b0386811660048301528581166024830152915191831691639e4d7ae591604480820192602092909190829003018186803b158015611dfb57600080fd5b505afa158015611e0f573d6000803e3d6000fd5b505050506040513d6020811015611e2557600080fd5b5051611e78576040805162461bcd60e51b815260206004820152601c60248201527f4552525f5452414e534645525f434845434b5f57484954454c49535400000000604482015290519081900360640190fd5b611e8061101c565b158015611e905750611e9061165e565b611003576040805162461bcd60e51b815260206004820152601660248201527511549497d050d51253d397d393d517d0531313d5d15160521b604482015290519081900360640190fd5b6040805180820190915260198152784552525f434f4e54524143545f53454c465f4144445245535360381b602082015260009083906001600160a01b038216301415611f675760405162461bcd60e51b81526020600482018181528351602484015283519092839260449091019190850190808383600083156107e95781810151838201526020016107d1565b5060408051808201909152601081526f4552525f5a45524f5f4144445245535360801b602082015284906001600160a01b038216611fe65760405162461bcd60e51b81526020600482018181528351602484015283519092839260449091019190850190808383600083156107e95781810151838201526020016107d1565b506001600160a01b0386166000908152600860209081526040808320338452909152902054841115612058576040805162461bcd60e51b81526020600482015260166024820152754552525f4e4f545f454e4f5547485f42414c414e434560501b604482015290519081900360640190fd5b612063868686612234565b61206c57600080fd5b6001600160a01b038616600090815260086020908152604080832033845290915290205461209a9085612222565b6001600160a01b0380881660008181526008602090815260408083203380855292528083209590955593519289169391927f7d5ad68155582ceeebcef916386e9f0eb9f7a2dce10a880ced4d0d5d782317949190a450600195945050505050565b6001600160a01b03821660009081526007602052604081205482811015612162576040805162461bcd60e51b81526020600482015260166024820152754552525f4e4f545f454e4f5547485f42414c414e434560501b604482015290519081900360640190fd5b61216c8184612222565b6001600160a01b0385166000908152600760205260408120829055549091506121959084612222565b6000556040805184815290516001600160a01b038616917fcc16f5dbb4873280815c1ee09dbd06736cffcc184412cf7a71a0fdb75d397ca5919081900360200190a26040805184815290516000916001600160a01b038716917fddf252ad1be2c89b69c2b068fc378daa952ba7f163c4a11628f55a4df523b3ef9181900360200190a35060019392505050565b60008282111561222e57fe5b50900390565b6001600160a01b0383166000908152600760205260408120548281101561229b576040805162461bcd60e51b81526020600482015260166024820152754552525f4e4f545f454e4f5547485f42414c414e434560501b604482015290519081900360640190fd5b6122a58184612222565b6001600160a01b03808716600090815260076020526040808220849055918716815220549091506122d69084611d07565b6001600160a01b0380861660008181526007602090815260409182902094909455805187815290519193928916927fddf252ad1be2c89b69c2b068fc378daa952ba7f163c4a11628f55a4df523b3ef92918290030190a3506001949350505050565b600d546000906001600160a01b0316612391576040805162461bcd60e51b815260206004820152601660248201527511549497d050d51253d397d393d517d0531313d5d15160521b604482015290519081900360640190fd5b61239b83836120fb565b5060006123b26743555252454e435960c01b611a98565b905060006123c764159055531560da1b611a98565b600d5460408051637058346f60e01b81526001600160a01b039283166004820152905192935060009291851691637058346f91602480820192602092909190829003018186803b15801561241a57600080fd5b505afa15801561242e573d6000803e3d6000fd5b505050506040513d602081101561244457600080fd5b505160408051637058346f60e01b815230600482015290519192506000916001600160a01b03861691637058346f916024808301926020929190829003018186803b15801561249257600080fd5b505afa1580156124a6573d6000803e3d6000fd5b505050506040513d60208110156124bc57600080fd5b5051905060006124d56124cf8884611b16565b84611b3a565b600d546040805163f83d179160e01b81526001600160a01b0392831660048201523360248201526044810184905290519293509086169163f83d1791916064808201926020929091908290030181600087803b15801561253457600080fd5b505af1158015612548573d6000803e3d6000fd5b505050506040513d602081101561255e57600080fd5b50519897505050505050505056fe4552525f415554484f52495a45445f414444524553535f4f4e4c590000000000a265627a7a723058209985a3802eaaf8725e20c47f3ca7de33af327b5d6c7067cf9e6d81a6979ec7a564736f6c63430005090032",
  "source": "pragma solidity ^0.5.9;\nimport \"./Exchangeable.sol\";\nimport \"../InterFaces/IWhiteList.sol\";\n\n\n\n\n\ncontract StockToken is Exchangeable {\n    \n    constructor(\n        string memory _name,\n        string memory _symbol,\n        address _systemAddress,\n        address _authorityAddress,\n        address _registeryAddress,\n        uint256 _tokenMaturityDays,\n        uint256 _tokenHoldBackDays,\n        address _returnToken,\n        address[] memory _which,\n        uint256[] memory _amount) public \n        TokenUtils(_name,_symbol,_systemAddress,_authorityAddress,_tokenMaturityDays,_tokenHoldBackDays,_registeryAddress)\n        ForceSwap(_returnToken){\n            require(_which.length == _amount.length,\"ERR_NOT_SAME_LENGTH\");\n            address whiteListAddress = getAddressOf(WHITE_LIST);\n            for(uint256 tempX=0 ; tempX < _which.length ; tempX++){\n                require(IWhiteList(whiteListAddress).isWhiteListed(_which[tempX]),\"ERR_TRANSFER_CHECK_WHITELIST\");\n                _mint(_which[tempX],_amount[tempX]);\n            }\n        }\n    \n    \n   \n    function() external payable {\n        revert();\n    }\n    \n}",
  "sourcePath": "/home/mind/Work/Projects/Jointer/Jointer_auction/NewContracts/contracts/Tokens/StockToken.sol",
  "compiler": {
    "name": "solc",
    "version": "0.5.9+commit.e560f70d.Emscripten.clang"
  },
  "schemaVersion": "3.0.16",
  "updatedAt": "2020-05-13T15:06:47.471Z",
  "devdoc": {
    "methods": {
      "allowance(address,address)": {
        "details": "to check allowed token for transferFrom",
        "params": {
          "_owner": "The address of the account owning tokens",
          "_spender": "The address of the account able to transfer the tokens"
        },
        "return": "Amount of remaining tokens allowed to spent"
      },
      "approve(address,uint256)": {
        "details": "`msg.sender` approves `spender` to spend `value` tokens",
        "params": {
          "_spender": "The address of the account able to transfer the tokens",
          "_value": "The amount of wei to be approved for transfer"
        },
        "return": "Whether the approval was successful or not"
      },
      "balanceOf(address)": {
        "details": "Gets the balance of the specified address.",
        "params": {
          "_who": "The address to query the the balance of."
        },
        "return": "An uint256 representing the amount owned by the passed address."
      },
      "burn(uint256)": {
        "details": "burn token from this address",
        "params": {
          "_value": "uint256 the amount of tokens to be burned"
        }
      },
      "changeAuthorityAddress(address)": {
        "details": "change system address",
        "params": {
          "_which": "The address to which is new Authority address"
        }
      },
      "changePrimaryOwner(address)": {
        "details": "change primary ownership",
        "params": {
          "_which": "The address to which is new owner address"
        }
      },
      "changeSystemAddress(address)": {
        "details": "change system address",
        "params": {
          "_which": "The address to which is new system address"
        }
      },
      "decreaseAllowance(address,uint256)": {
        "details": "`msg.sender` approves `spender` to decrease spend `value` tokens",
        "params": {
          "_spender": "The address of the account able to transfer the tokens",
          "_value": "The amount of wei to be approved for transfer"
        },
        "return": "Whether the approval was successful or not"
      },
      "increaseAllowance(address,uint256)": {
        "details": "`msg.sender` approves `spender` to increase spend `value` tokens",
        "params": {
          "_spender": "The address of the account able to transfer the tokens",
          "_value": "The amount of wei to be approved for transfer"
        },
        "return": "Whether the approval was successful or not"
      }
    }
  },
  "userdoc": {
    "methods": {}
  }
}