{
  "contractName": "StockToken",
  "abi": [
    {
      "constant": false,
      "inputs": [
        {
          "name": "_which",
          "type": "address"
        }
      ],
      "name": "changeSystemAddress",
      "outputs": [
        {
          "name": "",
          "type": "bool"
        }
      ],
      "payable": false,
      "stateMutability": "nonpayable",
      "type": "function"
    },
    {
      "constant": true,
      "inputs": [],
      "name": "name",
      "outputs": [
        {
          "name": "",
          "type": "string"
        }
      ],
      "payable": false,
      "stateMutability": "view",
      "type": "function"
    },
    {
      "constant": false,
      "inputs": [
        {
          "name": "_fromToken",
          "type": "address"
        },
        {
          "name": "_amount",
          "type": "uint256"
        }
      ],
      "name": "buyTokens",
      "outputs": [
        {
          "name": "",
          "type": "uint256"
        }
      ],
      "payable": false,
      "stateMutability": "nonpayable",
      "type": "function"
    },
    {
      "constant": false,
      "inputs": [
        {
          "name": "_spender",
          "type": "address"
        },
        {
          "name": "_value",
          "type": "uint256"
        }
      ],
      "name": "approve",
      "outputs": [
        {
          "name": "ok",
          "type": "bool"
        }
      ],
      "payable": false,
      "stateMutability": "nonpayable",
      "type": "function"
    },
    {
      "constant": true,
      "inputs": [],
      "name": "newAuthorityAddress",
      "outputs": [
        {
          "name": "",
          "type": "address"
        }
      ],
      "payable": false,
      "stateMutability": "view",
      "type": "function"
    },
    {
      "constant": true,
      "inputs": [],
      "name": "isTokenMature",
      "outputs": [
        {
          "name": "",
          "type": "bool"
        }
      ],
      "payable": false,
      "stateMutability": "view",
      "type": "function"
    },
    {
      "constant": true,
      "inputs": [],
      "name": "totalSupply",
      "outputs": [
        {
          "name": "",
          "type": "uint256"
        }
      ],
      "payable": false,
      "stateMutability": "view",
      "type": "function"
    },
    {
      "constant": false,
      "inputs": [],
      "name": "acceptAuthorityAddress",
      "outputs": [
        {
          "name": "",
          "type": "bool"
        }
      ],
      "payable": false,
      "stateMutability": "nonpayable",
      "type": "function"
    },
    {
      "constant": false,
      "inputs": [
        {
          "name": "_from",
          "type": "address"
        },
        {
          "name": "_to",
          "type": "address"
        },
        {
          "name": "_value",
          "type": "uint256"
        }
      ],
      "name": "transferFrom",
      "outputs": [
        {
          "name": "",
          "type": "bool"
        }
      ],
      "payable": false,
      "stateMutability": "nonpayable",
      "type": "function"
    },
    {
      "constant": true,
      "inputs": [],
      "name": "returnToken",
      "outputs": [
        {
          "name": "",
          "type": "address"
        }
      ],
      "payable": false,
      "stateMutability": "view",
      "type": "function"
    },
    {
      "constant": true,
      "inputs": [],
      "name": "decimals",
      "outputs": [
        {
          "name": "",
          "type": "uint256"
        }
      ],
      "payable": false,
      "stateMutability": "view",
      "type": "function"
    },
    {
      "constant": false,
      "inputs": [
        {
          "name": "_spender",
          "type": "address"
        },
        {
          "name": "_value",
          "type": "uint256"
        }
      ],
      "name": "increaseAllowance",
      "outputs": [
        {
          "name": "",
          "type": "bool"
        }
      ],
      "payable": false,
      "stateMutability": "nonpayable",
      "type": "function"
    },
    {
      "constant": true,
      "inputs": [],
      "name": "authorityAddress",
      "outputs": [
        {
          "name": "",
          "type": "address"
        }
      ],
      "payable": false,
      "stateMutability": "view",
      "type": "function"
    },
    {
      "constant": false,
      "inputs": [
        {
          "name": "_value",
          "type": "uint256"
        }
      ],
      "name": "burn",
      "outputs": [
        {
          "name": "",
          "type": "bool"
        }
      ],
      "payable": false,
      "stateMutability": "nonpayable",
      "type": "function"
    },
    {
      "constant": true,
      "inputs": [],
      "name": "tokenMaturityDays",
      "outputs": [
        {
          "name": "",
          "type": "uint256"
        }
      ],
      "payable": false,
      "stateMutability": "view",
      "type": "function"
    },
    {
      "constant": true,
      "inputs": [
        {
          "name": "_who",
          "type": "address"
        }
      ],
      "name": "balanceOf",
      "outputs": [
        {
          "name": "balance",
          "type": "uint256"
        }
      ],
      "payable": false,
      "stateMutability": "view",
      "type": "function"
    },
    {
      "constant": true,
      "inputs": [],
      "name": "tokenPrice",
      "outputs": [
        {
          "name": "",
          "type": "uint256"
        }
      ],
      "payable": false,
      "stateMutability": "view",
      "type": "function"
    },
    {
      "constant": true,
      "inputs": [],
      "name": "tokenSaleStartDate",
      "outputs": [
        {
          "name": "",
          "type": "uint256"
        }
      ],
      "payable": false,
      "stateMutability": "view",
      "type": "function"
    },
    {
      "constant": true,
      "inputs": [],
      "name": "primaryOwner",
      "outputs": [
        {
          "name": "",
          "type": "address"
        }
      ],
      "payable": false,
      "stateMutability": "view",
      "type": "function"
    },
    {
      "constant": false,
      "inputs": [
        {
          "name": "_which",
          "type": "address"
        }
      ],
      "name": "changeAuthorityAddress",
      "outputs": [
        {
          "name": "",
          "type": "bool"
        }
      ],
      "payable": false,
      "stateMutability": "nonpayable",
      "type": "function"
    },
    {
      "constant": true,
      "inputs": [],
      "name": "symbol",
      "outputs": [
        {
          "name": "",
          "type": "string"
        }
      ],
      "payable": false,
      "stateMutability": "view",
      "type": "function"
    },
    {
      "constant": true,
      "inputs": [],
      "name": "tokenHoldBackDays",
      "outputs": [
        {
          "name": "",
          "type": "uint256"
        }
      ],
      "payable": false,
      "stateMutability": "view",
      "type": "function"
    },
    {
      "constant": false,
      "inputs": [
        {
          "name": "_toToken",
          "type": "address"
        },
        {
          "name": "_amount",
          "type": "uint256"
        }
      ],
      "name": "swapTokens",
      "outputs": [
        {
          "name": "",
          "type": "bool"
        }
      ],
      "payable": false,
      "stateMutability": "nonpayable",
      "type": "function"
    },
    {
      "constant": false,
      "inputs": [
        {
          "name": "_spender",
          "type": "address"
        },
        {
          "name": "_value",
          "type": "uint256"
        }
      ],
      "name": "decreaseAllowance",
      "outputs": [
        {
          "name": "",
          "type": "bool"
        }
      ],
      "payable": false,
      "stateMutability": "nonpayable",
      "type": "function"
    },
    {
      "constant": false,
      "inputs": [
        {
          "name": "_to",
          "type": "address"
        },
        {
          "name": "_value",
          "type": "uint256"
        }
      ],
      "name": "transfer",
      "outputs": [
        {
          "name": "ok",
          "type": "bool"
        }
      ],
      "payable": false,
      "stateMutability": "nonpayable",
      "type": "function"
    },
    {
      "constant": false,
      "inputs": [
        {
          "name": "_address",
          "type": "address"
        }
      ],
      "name": "updateRegistery",
      "outputs": [
        {
          "name": "",
          "type": "bool"
        }
      ],
      "payable": false,
      "stateMutability": "nonpayable",
      "type": "function"
    },
    {
      "constant": true,
      "inputs": [],
      "name": "isHoldbackDaysOver",
      "outputs": [
        {
          "name": "",
          "type": "bool"
        }
      ],
      "payable": false,
      "stateMutability": "view",
      "type": "function"
    },
    {
      "constant": false,
      "inputs": [
        {
          "name": "_which",
          "type": "address"
        }
      ],
      "name": "changePrimaryOwner",
      "outputs": [
        {
          "name": "",
          "type": "bool"
        }
      ],
      "payable": false,
      "stateMutability": "nonpayable",
      "type": "function"
    },
    {
      "constant": true,
      "inputs": [],
      "name": "systemAddress",
      "outputs": [
        {
          "name": "",
          "type": "address"
        }
      ],
      "payable": false,
      "stateMutability": "view",
      "type": "function"
    },
    {
      "constant": false,
      "inputs": [
        {
          "name": "_which",
          "type": "address"
        },
        {
          "name": "_amount",
          "type": "uint256"
        }
      ],
      "name": "forceSwap",
      "outputs": [
        {
          "name": "",
          "type": "bool"
        }
      ],
      "payable": false,
      "stateMutability": "nonpayable",
      "type": "function"
    },
    {
      "constant": true,
      "inputs": [],
      "name": "contractsRegistry",
      "outputs": [
        {
          "name": "",
          "type": "address"
        }
      ],
      "payable": false,
      "stateMutability": "view",
      "type": "function"
    },
    {
      "constant": true,
      "inputs": [],
      "name": "exchangeableToken",
      "outputs": [
        {
          "name": "",
          "type": "address"
        }
      ],
      "payable": false,
      "stateMutability": "view",
      "type": "function"
    },
    {
      "constant": true,
      "inputs": [
        {
          "name": "_owner",
          "type": "address"
        },
        {
          "name": "_spender",
          "type": "address"
        }
      ],
      "name": "allowance",
      "outputs": [
        {
          "name": "",
          "type": "uint256"
        }
      ],
      "payable": false,
      "stateMutability": "view",
      "type": "function"
    },
    {
      "constant": false,
      "inputs": [
        {
          "name": "_which",
          "type": "address"
        }
      ],
      "name": "setExchangeableToken",
      "outputs": [
        {
          "name": "",
          "type": "bool"
        }
      ],
      "payable": false,
      "stateMutability": "nonpayable",
      "type": "function"
    },
    {
      "inputs": [
        {
          "name": "_name",
          "type": "string"
        },
        {
          "name": "_symbol",
          "type": "string"
        },
        {
          "name": "_systemAddress",
          "type": "address"
        },
        {
          "name": "_authorityAddress",
          "type": "address"
        },
        {
          "name": "_registeryAddress",
          "type": "address"
        },
        {
          "name": "_tokenPrice",
          "type": "uint256"
        },
        {
          "name": "_tokenMaturityDays",
          "type": "uint256"
        },
        {
          "name": "_tokenHoldBackDays",
          "type": "uint256"
        },
        {
          "name": "_returnToken",
          "type": "address"
        },
        {
          "name": "_which",
          "type": "address[]"
        },
        {
          "name": "_amount",
          "type": "uint256[]"
        }
      ],
      "payable": false,
      "stateMutability": "nonpayable",
      "type": "constructor"
    },
    {
      "payable": true,
      "stateMutability": "payable",
      "type": "fallback"
    },
    {
      "anonymous": false,
      "inputs": [
        {
          "indexed": true,
          "name": "_to",
          "type": "address"
        },
        {
          "indexed": false,
          "name": "value",
          "type": "uint256"
        }
      ],
      "name": "Mint",
      "type": "event"
    },
    {
      "anonymous": false,
      "inputs": [
        {
          "indexed": true,
          "name": "from",
          "type": "address"
        },
        {
          "indexed": false,
          "name": "value",
          "type": "uint256"
        }
      ],
      "name": "Burn",
      "type": "event"
    },
    {
      "anonymous": false,
      "inputs": [
        {
          "indexed": true,
          "name": "spender",
          "type": "address"
        },
        {
          "indexed": true,
          "name": "_from",
          "type": "address"
        },
        {
          "indexed": true,
          "name": "_to",
          "type": "address"
        }
      ],
      "name": "TransferFrom",
      "type": "event"
    },
    {
      "anonymous": false,
      "inputs": [
        {
          "indexed": false,
          "name": "ownerType",
          "type": "string"
        },
        {
          "indexed": true,
          "name": "previousOwner",
          "type": "address"
        },
        {
          "indexed": true,
          "name": "newOwner",
          "type": "address"
        }
      ],
      "name": "OwnershipTransferred",
      "type": "event"
    },
    {
      "anonymous": false,
      "inputs": [
        {
          "indexed": true,
          "name": "previousOwner",
          "type": "address"
        },
        {
          "indexed": true,
          "name": "newOwner",
          "type": "address"
        }
      ],
      "name": "AuthorityAddressChnageCall",
      "type": "event"
    },
    {
      "anonymous": false,
      "inputs": [
        {
          "indexed": true,
          "name": "from",
          "type": "address"
        },
        {
          "indexed": true,
          "name": "to",
          "type": "address"
        },
        {
          "indexed": false,
          "name": "value",
          "type": "uint256"
        }
      ],
      "name": "Transfer",
      "type": "event"
    },
    {
      "anonymous": false,
      "inputs": [
        {
          "indexed": true,
          "name": "owner",
          "type": "address"
        },
        {
          "indexed": true,
          "name": "spender",
          "type": "address"
        },
        {
          "indexed": false,
          "name": "value",
          "type": "uint256"
        }
      ],
      "name": "Approval",
      "type": "event"
    }
  ],
  "bytecode": "0x6080604052600180546001600160a01b0319908116909155600280548216905560038054821690556004805490911690553480156200003d57600080fd5b506040516200324a3803806200324a83398181016040526101608110156200006457600080fd5b8101908080516401000000008111156200007d57600080fd5b820160208101848111156200009157600080fd5b8151640100000000811182820187101715620000ac57600080fd5b50509291906020018051640100000000811115620000c957600080fd5b82016020810184811115620000dd57600080fd5b8151640100000000811182820187101715620000f857600080fd5b5050602082015160408301516060840151608085015160a086015160c087015160e08801516101009098018051979a969995989497939692959194936401000000008111156200014757600080fd5b820160208101848111156200015b57600080fd5b81518560208202830111640100000000821117156200017957600080fd5b505092919060200180516401000000008111156200019657600080fd5b82016020810184811115620001aa57600080fd5b8151856020820283011164010000000082111715620001c857600080fd5b5050929190505050828b8b8b8b8a8a8a8e808888888881818160006001600160a01b0316816001600160a01b031614156040518060400160405280601081526020017f4552525f5a45524f5f414444524553530000000000000000000000000000000081525090620002d5576040517f08c379a00000000000000000000000000000000000000000000000000000000081526004018080602001828103825283818151815260200191508051906020019080838360005b83811015620002995781810151838201526020016200027f565b50505050905090810190601f168015620002c75780820380516001836020036101000a031916815260200191505b509250505060405180910390fd5b5060408051808201909152601081527f4552525f53414d455f41444452455353000000000000000000000000000000006020820152336001600160a01b03851614156200037f576040517f08c379a0000000000000000000000000000000000000000000000000000000008152602060048201818152835160248401528351909283926044909101919085019080838360008315620002995781810151838201526020016200027f565b50816001600160a01b0316836001600160a01b031614156040518060400160405280601081526020017f4552525f53414d455f41444452455353000000000000000000000000000000008152509062000435576040517f08c379a0000000000000000000000000000000000000000000000000000000008152602060048201818152835160248401528351909283926044909101919085019080838360008315620002995781810151838201526020016200027f565b5060408051808201909152601081527f4552525f53414d455f41444452455353000000000000000000000000000000006020820152336001600160a01b0384161415620004df576040517f08c379a0000000000000000000000000000000000000000000000000000000008152602060048201818152835160248401528351909283926044909101919085019080838360008315620002995781810151838201526020016200027f565b5050600180546001600160a01b03199081163317909155600380546001600160a01b03948516908316179055600280549290931691161790558351158015906200052a575060008351115b6200053457600080fd5b83516200054990600590602087019062000b5f565b5082516200055f90600690602086019062000b5f565b505060408051808201909152601081527f4552525f5a45524f5f414444524553530000000000000000000000000000000060208201528493509150506001600160a01b0382166200060d576040517f08c379a0000000000000000000000000000000000000000000000000000000008152602060048201818152835160248401528351909283926044909101919085019080838360008315620002995781810151838201526020016200027f565b5050600980546001600160a01b0319166001600160a01b039290921691909117905560408051808201909152601181527f4552525f56414c55455f49535f5a45524f0000000000000000000000000000006020820152849081620006ce576040517f08c379a0000000000000000000000000000000000000000000000000000000008152602060048201818152835160248401528351909283926044909101919085019080838360008315620002995781810151838201526020016200027f565b505042600b5550600a92909255600c55600d55505060408051808201909152601081527f4552525f5a45524f5f4144445245535300000000000000000000000000000000602082015283925090506001600160a01b0382166200078e576040517f08c379a0000000000000000000000000000000000000000000000000000000008152602060048201818152835160248401528351909283926044909101919085019080838360008315620002995781810151838201526020016200027f565b5050600e80546001600160a01b0319166001600160a01b039290921691909117905580518251146200082157604080517f08c379a000000000000000000000000000000000000000000000000000000000815260206004820152601360248201527f4552525f4e4f545f53414d455f4c454e47544800000000000000000000000000604482015290519081900360640190fd5b6000620008577f57484954455f4c495354000000000000000000000000000000000000000000006001600160e01b03620009c216565b905060005b8351811015620009af57816001600160a01b0316636f9170f68583815181106200088257fe5b60200260200101516040518263ffffffff1660e01b815260040180826001600160a01b03166001600160a01b0316815260200191505060206040518083038186803b158015620008d157600080fd5b505afa158015620008e6573d6000803e3d6000fd5b505050506040513d6020811015620008fd57600080fd5b50516200096b57604080517f08c379a000000000000000000000000000000000000000000000000000000000815260206004820152601c60248201527f4552525f5452414e534645525f434845434b5f57484954454c49535400000000604482015290519081900360640190fd5b620009a58482815181106200097c57fe5b60200260200101518483815181106200099157fe5b602002602001015162000a5c60201b60201c565b506001016200085c565b5050505050505050505050505062000c04565b600954604080517ffa86cf560000000000000000000000000000000000000000000000000000000081526004810184905290516000926001600160a01b03169163fa86cf56916024808301926020929190829003018186803b15801562000a2857600080fd5b505afa15801562000a3d573d6000803e3d6000fd5b505050506040513d602081101562000a5457600080fd5b505192915050565b6001600160a01b03821660009081526007602052604081205462000a8a90836001600160e01b0362000b4816565b6001600160a01b0384166000908152600760205260408120919091555462000abc90836001600160e01b0362000b4816565b6000556040805183815290516001600160a01b038516917f0f6798a560793a54c3bcfe86a93cde1e73087d944c0ea20544137d4121396885919081900360200190a26040805183815290516001600160a01b038516916000917fddf252ad1be2c89b69c2b068fc378daa952ba7f163c4a11628f55a4df523b3ef9181900360200190a350600192915050565b60008282018381101562000b5857fe5b9392505050565b828054600181600116156101000203166002900490600052602060002090601f016020900481019282601f1062000ba257805160ff191683800117855562000bd2565b8280016001018555821562000bd2579182015b8281111562000bd257825182559160200191906001019062000bb5565b5062000be092915062000be4565b5090565b62000c0191905b8082111562000be0576000815560010162000beb565b90565b6126368062000c146000396000f3fe6080604052600436106101f95760003560e01c80638dcab1871161010d578063bc1366fe116100a0578063d532d6861161006f578063d532d686146106c7578063d98d0c7e14610700578063dccaef7414610715578063dd62ed3e1461072a578063f861196414610765576101f9565b8063bc1366fe14610637578063c4b01ebf1461066a578063c4d342681461067f578063d3e848f1146106b2576101f9565b80639668d13e116100dc5780639668d13e14610577578063a114398d1461058c578063a457c2d7146105c5578063a9059cbb146105fe576101f9565b80638dcab187146105055780638e10be331461051a5780638f51368b1461052f57806395d89b4114610562576101f9565b806323b872dd116101905780633c695d4e1161015f5780633c695d4e1461046957806342966c681461047e57806353ecc772146104a857806370a08231146104bd5780637ff9b596146104f0576101f9565b806323b872dd146103c35780632e4a365714610406578063313ce5671461041b5780633950935114610430576101f9565b80630abaad7a116101cc5780630abaad7a1461035357806317ebc35f1461038457806318160ddd1461039957806320c462fe146103ae576101f9565b806304d63089146101fe57806306fdde03146102455780630752881a146102cf578063095ea7b31461031a575b600080fd5b34801561020a57600080fd5b506102316004803603602081101561022157600080fd5b50356001600160a01b0316610798565b604080519115158252519081900360200190f35b34801561025157600080fd5b5061025a610aa5565b6040805160208082528351818301528351919283929083019185019080838360005b8381101561029457818101518382015260200161027c565b50505050905090810190601f1680156102c15780820380516001836020036101000a031916815260200191505b509250505060405180910390f35b3480156102db57600080fd5b50610308600480360360408110156102f257600080fd5b506001600160a01b038135169060200135610b33565b60408051918252519081900360200190f35b34801561032657600080fd5b506102316004803603604081101561033d57600080fd5b506001600160a01b038135169060200135610da7565b34801561035f57600080fd5b50610368610e3e565b604080516001600160a01b039092168252519081900360200190f35b34801561039057600080fd5b50610231610e4d565b3480156103a557600080fd5b50610308610ea1565b3480156103ba57600080fd5b50610231610ea7565b3480156103cf57600080fd5b50610231600480360360608110156103e657600080fd5b506001600160a01b03813581169160208101359091169060400135610fbc565b34801561041257600080fd5b50610368610fe4565b34801561042757600080fd5b50610308610ff3565b34801561043c57600080fd5b506102316004803603604081101561045357600080fd5b506001600160a01b038135169060200135610ff8565b34801561047557600080fd5b50610368611038565b34801561048a57600080fd5b50610231600480360360208110156104a157600080fd5b5035611047565b3480156104b457600080fd5b50610308611053565b3480156104c957600080fd5b50610308600480360360208110156104e057600080fd5b50356001600160a01b0316611059565b3480156104fc57600080fd5b50610308611074565b34801561051157600080fd5b5061030861107a565b34801561052657600080fd5b50610368611080565b34801561053b57600080fd5b506102316004803603602081101561055257600080fd5b50356001600160a01b031661108f565b34801561056e57600080fd5b5061025a611270565b34801561058357600080fd5b506103086112cb565b34801561059857600080fd5b50610231600480360360408110156105af57600080fd5b506001600160a01b0381351690602001356112d1565b3480156105d157600080fd5b50610231600480360360408110156105e857600080fd5b506001600160a01b03813516906020013561152e565b34801561060a57600080fd5b506102316004803603604081101561062157600080fd5b506001600160a01b0381351690602001356115a6565b34801561064357600080fd5b506102316004803603602081101561065a57600080fd5b50356001600160a01b03166115cd565b34801561067657600080fd5b506102316116f2565b34801561068b57600080fd5b50610231600480360360208110156106a257600080fd5b50356001600160a01b0316611704565b3480156106be57600080fd5b50610368611945565b3480156106d357600080fd5b50610231600480360360408110156106ea57600080fd5b506001600160a01b038135169060200135611954565b34801561070c57600080fd5b50610368611bfe565b34801561072157600080fd5b50610368611c0d565b34801561073657600080fd5b506103086004803603604081101561074d57600080fd5b506001600160a01b0381358116916020013516611c1c565b34801561077157600080fd5b506102316004803603602081101561078857600080fd5b50356001600160a01b0316611c47565b60025460408051808201909152601b81526000805160206125e283398151915260208201526000916001600160a01b031633146108535760405162461bcd60e51b81526004018080602001828103825283818151815260200191508051906020019080838360005b83811015610818578181015183820152602001610800565b50505050905090810190601f1680156108455780820380516001836020036101000a031916815260200191505b509250505060405180910390fd5b506040805180820190915260198152784552525f434f4e54524143545f53454c465f4144445245535360381b602082015282906001600160a01b0382163014156108de5760405162461bcd60e51b8152602060048201818152835160248401528351909283926044909101919085019080838360008315610818578181015183820152602001610800565b5060408051808201909152601081526f4552525f5a45524f5f4144445245535360801b602082015283906001600160a01b03821661095d5760405162461bcd60e51b8152602060048201818152835160248401528351909283926044909101919085019080838360008315610818578181015183820152602001610800565b506003546001600160a01b0385811691161480159061098a57506002546001600160a01b03858116911614155b80156109a457506001546001600160a01b03858116911614155b6040518060400160405280601081526020016f4552525f53414d455f4144445245535360801b81525090610a195760405162461bcd60e51b8152602060048201818152835160248401528351909283926044909101919085019080838360008315610818578181015183820152602001610800565b50600354604080516020808252600e908201526d53595354454d5f4144445245535360901b8183015290516001600160a01b038088169316917f6840904f5b31827f74e1497360da245f56e530c8c3de3163a2d31f11493273c6919081900360600190a3600380546001600160a01b0386166001600160a01b0319909116179055600192505050919050565b6005805460408051602060026001851615610100026000190190941693909304601f81018490048402820184019092528181529291830182828015610b2b5780601f10610b0057610100808354040283529160200191610b2b565b820191906000526020600020905b815481529060010190602001808311610b0e57829003601f168201915b505050505081565b600f5460009083906001600160a01b0380831691161480610b615750600e546001600160a01b038281169116145b610bad576040805162461bcd60e51b815260206004820152601860248201527711549497d513d2d15397d254d7d393d517d25397d31254d560421b604482015290519081900360640190fd5b6000610bc36743555252454e435960c01b611d41565b90506000816001600160a01b0316637058346f876040518263ffffffff1660e01b815260040180826001600160a01b03166001600160a01b0316815260200191505060206040518083038186803b158015610c1d57600080fd5b505afa158015610c31573d6000803e3d6000fd5b505050506040513d6020811015610c4757600080fd5b505160408051637058346f60e01b815230600482015290519192506000916001600160a01b03851691637058346f916024808301926020929190829003018186803b158015610c9557600080fd5b505afa158015610ca9573d6000803e3d6000fd5b505050506040513d6020811015610cbf57600080fd5b505190506000610cd8610cd28885611dbf565b83611de3565b9050876001600160a01b03166323b872dd33610cfb64159055531560da1b611d41565b8a6040518463ffffffff1660e01b815260040180846001600160a01b03166001600160a01b03168152602001836001600160a01b03166001600160a01b031681526020018281526020019350505050602060405180830381600087803b158015610d6457600080fd5b505af1158015610d78573d6000803e3d6000fd5b505050506040513d6020811015610d8e57600080fd5b50610d9b90503382611df8565b50979650505050505050565b60408051808201909152601081526f4552525f5a45524f5f4144445245535360801b602082015260009083906001600160a01b038216610e285760405162461bcd60e51b8152602060048201818152835160248401528351909283926044909101919085019080838360008315610818578181015183820152602001610800565b50610e34338585611ece565b5060019392505050565b6004546001600160a01b031681565b6000600c5460001415610e6257506000610e9e565b6000610e7362015180600c54611dbf565b90506000610e8382600b54611fb0565b9050804210610e9757600192505050610e9e565b6000925050505b90565b60005481565b60045460408051808201909152601b81526000805160206125e283398151915260208201526000916001600160a01b03163314610f255760405162461bcd60e51b8152602060048201818152835160248401528351909283926044909101919085019080838360008315610818578181015183820152602001610800565b5060045460025460408051602080825260119082015270415554484f524954595f4144445245535360781b8183015290516001600160a01b039384169392909216917f6840904f5b31827f74e1497360da245f56e530c8c3de3163a2d31f11493273c69181900360600190a35060048054600280546001600160a01b03199081166001600160a01b03841617909155169055600190565b6000610fc88484611fbf565b610fd157600080fd5b610fdc848484612183565b949350505050565b600e546001600160a01b031681565b601281565b3360008181526008602090815260408083206001600160a01b03871684529091528120549091610e34908561102d8487611fb0565b611ece565b92915050565b6002546001600160a01b031681565b600061103233836123a4565b600c5481565b6001600160a01b031660009081526007602052604090205490565b600a5481565b600b5481565b6001546001600160a01b031681565b60025460408051808201909152601b81526000805160206125e283398151915260208201526000916001600160a01b0316331461110d5760405162461bcd60e51b8152602060048201818152835160248401528351909283926044909101919085019080838360008315610818578181015183820152602001610800565b5060408051808201909152601081526f4552525f5a45524f5f4144445245535360801b602082015282906001600160a01b03821661118c5760405162461bcd60e51b8152602060048201818152835160248401528351909283926044909101919085019080838360008315610818578181015183820152602001610800565b506003546001600160a01b038481169116148015906111b957506002546001600160a01b03848116911614155b80156111d357506001546001600160a01b03848116911614155b6040518060400160405280601081526020016f4552525f53414d455f4144445245535360801b815250906112485760405162461bcd60e51b8152602060048201818152835160248401528351909283926044909101919085019080838360008315610818578181015183820152602001610800565b50600480546001600160a01b0385166001600160a01b03199091161790556001915050919050565b6006805460408051602060026001851615610100026000190190941693909304601f81018490048402820184019092528181529291830182828015610b2b5780601f10610b0057610100808354040283529160200191610b2b565b600d5481565b600f5460009083906001600160a01b03808316911614806112ff5750600e546001600160a01b038281169116145b61134b576040805162461bcd60e51b815260206004820152601860248201527711549497d513d2d15397d254d7d393d517d25397d31254d560421b604482015290519081900360640190fd5b60006113616743555252454e435960c01b611d41565b9050600061137664159055531560da1b611d41565b90506000826001600160a01b0316637058346f886040518263ffffffff1660e01b815260040180826001600160a01b03166001600160a01b0316815260200191505060206040518083038186803b1580156113d057600080fd5b505afa1580156113e4573d6000803e3d6000fd5b505050506040513d60208110156113fa57600080fd5b505160408051637058346f60e01b815230600482015290519192506000916001600160a01b03861691637058346f916024808301926020929190829003018186803b15801561144857600080fd5b505afa15801561145c573d6000803e3d6000fd5b505050506040513d602081101561147257600080fd5b50519050600061148b6114858984611dbf565b84611de3565b6040805163f83d179160e01b81526001600160a01b038c811660048301523360248301526044820184905291519293509086169163f83d1791916064808201926020929091908290030181600087803b1580156114e757600080fd5b505af11580156114fb573d6000803e3d6000fd5b505050506040513d602081101561151157600080fd5b5061151e905033896123a4565b5060019998505050505050505050565b3360009081526008602090815260408083206001600160a01b038616845290915281205482811015611597576040805162461bcd60e51b815260206004820152600d60248201526c4552525f414c4c4f57454e434560981b604482015290519081900360640190fd5b610e34338561102d84876124cb565b60006115b23384611fbf565b6115bb57600080fd5b6115c63384846124dd565b9392505050565b60025460408051808201909152601b81526000805160206125e283398151915260208201526000916001600160a01b0316331461164b5760405162461bcd60e51b8152602060048201818152835160248401528351909283926044909101919085019080838360008315610818578181015183820152602001610800565b5060408051808201909152601081526f4552525f5a45524f5f4144445245535360801b602082015282906001600160a01b0382166116ca5760405162461bcd60e51b8152602060048201818152835160248401528351909283926044909101919085019080838360008315610818578181015183820152602001610800565b50600980546001600160a01b0385166001600160a01b03199091161790556001915050919050565b600080610e7362015180600d54611dbf565b60025460408051808201909152601b81526000805160206125e283398151915260208201526000916001600160a01b031633146117825760405162461bcd60e51b8152602060048201818152835160248401528351909283926044909101919085019080838360008315610818578181015183820152602001610800565b5060408051808201909152601081526f4552525f5a45524f5f4144445245535360801b602082015282906001600160a01b0382166118015760405162461bcd60e51b8152602060048201818152835160248401528351909283926044909101919085019080838360008315610818578181015183820152602001610800565b506003546001600160a01b0384811691161480159061182e57506002546001600160a01b03848116911614155b801561184857506001546001600160a01b03848116911614155b6040518060400160405280601081526020016f4552525f53414d455f4144445245535360801b815250906118bd5760405162461bcd60e51b8152602060048201818152835160248401528351909283926044909101919085019080838360008315610818578181015183820152602001610800565b50600154604080516020808252600d908201526c282924a6a0a92cafa7aba722a960991b8183015290516001600160a01b038087169316917f6840904f5b31827f74e1497360da245f56e530c8c3de3163a2d31f11493273c6919081900360600190a3600180546001600160a01b0385166001600160a01b0319909116178155915050919050565b6003546001600160a01b031681565b60035460408051808201909152601b81526000805160206125e283398151915260208201526000916001600160a01b031633146119d25760405162461bcd60e51b8152602060048201818152835160248401528351909283926044909101919085019080838360008315610818578181015183820152602001610800565b50600e546001600160a01b0316611a29576040805162461bcd60e51b815260206004820152601660248201527511549497d050d51253d397d393d517d0531313d5d15160521b604482015290519081900360640190fd5b611a3383836123a4565b506000611a4a6743555252454e435960c01b611d41565b90506000611a5f64159055531560da1b611d41565b600e5460408051637058346f60e01b81526001600160a01b039283166004820152905192935060009291851691637058346f91602480820192602092909190829003018186803b158015611ab257600080fd5b505afa158015611ac6573d6000803e3d6000fd5b505050506040513d6020811015611adc57600080fd5b505160408051637058346f60e01b815230600482015290519192506000916001600160a01b03861691637058346f916024808301926020929190829003018186803b158015611b2a57600080fd5b505afa158015611b3e573d6000803e3d6000fd5b505050506040513d6020811015611b5457600080fd5b505190506000611b676114858884611dbf565b600e546040805163f83d179160e01b81526001600160a01b0392831660048201523360248201526044810184905290519293509086169163f83d1791916064808201926020929091908290030181600087803b158015611bc657600080fd5b505af1158015611bda573d6000803e3d6000fd5b505050506040513d6020811015611bf057600080fd5b505198975050505050505050565b6009546001600160a01b031681565b600f546001600160a01b031681565b6001600160a01b03918216600090815260086020908152604080832093909416825291909152205490565b60035460408051808201909152601b81526000805160206125e283398151915260208201526000916001600160a01b03163314611cc55760405162461bcd60e51b8152602060048201818152835160248401528351909283926044909101919085019080838360008315610818578181015183820152602001610800565b50600f546001600160a01b031615611d1d576040805162461bcd60e51b815260206004820152601660248201527511549497d050d51253d397d393d517d0531313d5d15160521b604482015290519081900360640190fd5b600f80546001600160a01b0319166001600160a01b03939093169290921790915590565b60095460408051637d4367ab60e11b81526004810184905290516000926001600160a01b03169163fa86cf56916024808301926020929190829003018186803b158015611d8d57600080fd5b505afa158015611da1573d6000803e3d6000fd5b505050506040513d6020811015611db757600080fd5b505192915050565b600082611dce57506000611032565b82820282848281611ddb57fe5b04146115c657fe5b600080828481611def57fe5b04949350505050565b6001600160a01b038216600090815260076020526040812054611e1b9083611fb0565b6001600160a01b03841660009081526007602052604081209190915554611e429083611fb0565b6000556040805183815290516001600160a01b038516917f0f6798a560793a54c3bcfe86a93cde1e73087d944c0ea20544137d4121396885919081900360200190a26040805183815290516001600160a01b038516916000917fddf252ad1be2c89b69c2b068fc378daa952ba7f163c4a11628f55a4df523b3ef9181900360200190a350600192915050565b60408051808201909152601081526f4552525f5a45524f5f4144445245535360801b602082015282906001600160a01b038216611f4c5760405162461bcd60e51b8152602060048201818152835160248401528351909283926044909101919085019080838360008315610818578181015183820152602001610800565b506001600160a01b03808516600081815260086020908152604080832094881680845294825291829020869055815186815291517f8c5be1e5ebec7d5bd14f71427d1e84f3dd0314c0f7b2291e5b200ac8c7c3b9259281900390910190a350505050565b6000828201838110156115c657fe5b600080611fd86915d212551157d31254d560b21b611d41565b60408051636c7d308160e01b815233600482015290519192506001600160a01b03831691636c7d308191602480820192602092909190829003018186803b15801561202257600080fd5b505afa158015612036573d6000803e3d6000fd5b505050506040513d602081101561204c57600080fd5b5051610e345760408051639e4d7ae560e01b81526001600160a01b0386811660048301528581166024830152915191831691639e4d7ae591604480820192602092909190829003018186803b1580156120a457600080fd5b505afa1580156120b8573d6000803e3d6000fd5b505050506040513d60208110156120ce57600080fd5b5051612121576040805162461bcd60e51b815260206004820152601c60248201527f4552525f5452414e534645525f434845434b5f57484954454c49535400000000604482015290519081900360640190fd5b612129610e4d565b15801561213957506121396116f2565b610e34576040805162461bcd60e51b815260206004820152601660248201527511549497d050d51253d397d393d517d0531313d5d15160521b604482015290519081900360640190fd5b6040805180820190915260198152784552525f434f4e54524143545f53454c465f4144445245535360381b602082015260009083906001600160a01b0382163014156122105760405162461bcd60e51b8152602060048201818152835160248401528351909283926044909101919085019080838360008315610818578181015183820152602001610800565b5060408051808201909152601081526f4552525f5a45524f5f4144445245535360801b602082015284906001600160a01b03821661228f5760405162461bcd60e51b8152602060048201818152835160248401528351909283926044909101919085019080838360008315610818578181015183820152602001610800565b506001600160a01b0386166000908152600860209081526040808320338452909152902054841115612301576040805162461bcd60e51b81526020600482015260166024820152754552525f4e4f545f454e4f5547485f42414c414e434560501b604482015290519081900360640190fd5b61230c8686866124dd565b61231557600080fd5b6001600160a01b038616600090815260086020908152604080832033845290915290205461234390856124cb565b6001600160a01b0380881660008181526008602090815260408083203380855292528083209590955593519289169391927f7d5ad68155582ceeebcef916386e9f0eb9f7a2dce10a880ced4d0d5d782317949190a450600195945050505050565b6001600160a01b0382166000908152600760205260408120548281101561240b576040805162461bcd60e51b81526020600482015260166024820152754552525f4e4f545f454e4f5547485f42414c414e434560501b604482015290519081900360640190fd5b61241581846124cb565b6001600160a01b03851660009081526007602052604081208290555490915061243e90846124cb565b6000556040805184815290516001600160a01b038616917fcc16f5dbb4873280815c1ee09dbd06736cffcc184412cf7a71a0fdb75d397ca5919081900360200190a26040805184815290516000916001600160a01b038716917fddf252ad1be2c89b69c2b068fc378daa952ba7f163c4a11628f55a4df523b3ef9181900360200190a35060019392505050565b6000828211156124d757fe5b50900390565b6001600160a01b03831660009081526007602052604081205482811015612544576040805162461bcd60e51b81526020600482015260166024820152754552525f4e4f545f454e4f5547485f42414c414e434560501b604482015290519081900360640190fd5b61254e81846124cb565b6001600160a01b038087166000908152600760205260408082208490559187168152205490915061257f9084611fb0565b6001600160a01b0380861660008181526007602090815260409182902094909455805187815290519193928916927fddf252ad1be2c89b69c2b068fc378daa952ba7f163c4a11628f55a4df523b3ef92918290030190a350600194935050505056fe4552525f415554484f52495a45445f414444524553535f4f4e4c590000000000a265627a7a723058204c9a5c8e6e74cbfcc26e103ae3baafd3074a444dde7215b8aeda4e91de11b26b64736f6c63430005090032",
  "source": "pragma solidity ^0.5.9;\nimport \"./Exchangeable.sol\";\nimport \"../InterFaces/IWhiteList.sol\";\n\n\ncontract StockToken is Exchangeable {\n    constructor(\n        string memory _name,\n        string memory _symbol,\n        address _systemAddress,\n        address _authorityAddress,\n        address _registeryAddress,\n        uint256 _tokenPrice,\n        uint256 _tokenMaturityDays,\n        uint256 _tokenHoldBackDays,\n        address _returnToken,\n        address[] memory _which,\n        uint256[] memory _amount\n    )\n        public\n        TokenUtils(\n            _name,\n            _symbol,\n            _systemAddress,\n            _authorityAddress,\n            _tokenPrice,\n            _tokenMaturityDays,\n            _tokenHoldBackDays,\n            _registeryAddress\n        )\n        ForceSwap(_returnToken)\n    {\n        require(_which.length == _amount.length, \"ERR_NOT_SAME_LENGTH\");\n        address whiteListAddress = getAddressOf(WHITE_LIST);\n        for (uint256 tempX = 0; tempX < _which.length; tempX++) {\n            require(\n                IWhiteList(whiteListAddress).isWhiteListed(_which[tempX]),\n                \"ERR_TRANSFER_CHECK_WHITELIST\"\n            );\n            _mint(_which[tempX], _amount[tempX]);\n        }\n    }\n\n    function() external payable {\n        revert();\n    }\n}\n",
  "sourcePath": "/home/mind/Work/Projects/Jointer/Jointer_auction/NewContracts/contracts/Tokens/StockToken.sol",
  "compiler": {
    "name": "solc",
    "version": "0.5.9+commit.e560f70d.Emscripten.clang"
  },
  "schemaVersion": "3.0.16",
  "updatedAt": "2020-05-04T15:22:10.672Z",
  "devdoc": {
    "methods": {
      "allowance(address,address)": {
        "details": "to check allowed token for transferFrom",
        "params": {
          "_owner": "The address of the account owning tokens",
          "_spender": "The address of the account able to transfer the tokens"
        },
        "return": "Amount of remaining tokens allowed to spent"
      },
      "approve(address,uint256)": {
        "details": "`msg.sender` approves `spender` to spend `value` tokens",
        "params": {
          "_spender": "The address of the account able to transfer the tokens",
          "_value": "The amount of wei to be approved for transfer"
        },
        "return": "Whether the approval was successful or not"
      },
      "balanceOf(address)": {
        "details": "Gets the balance of the specified address.",
        "params": {
          "_who": "The address to query the the balance of."
        },
        "return": "An uint256 representing the amount owned by the passed address."
      },
      "burn(uint256)": {
        "details": "burn token from this address",
        "params": {
          "_value": "uint256 the amount of tokens to be burned"
        }
      },
      "changeAuthorityAddress(address)": {
        "details": "change system address",
        "params": {
          "_which": "The address to which is new Authority address"
        }
      },
      "changePrimaryOwner(address)": {
        "details": "change primary ownership",
        "params": {
          "_which": "The address to which is new owner address"
        }
      },
      "changeSystemAddress(address)": {
        "details": "change system address",
        "params": {
          "_which": "The address to which is new system address"
        }
      },
      "decreaseAllowance(address,uint256)": {
        "details": "`msg.sender` approves `spender` to decrease spend `value` tokens",
        "params": {
          "_spender": "The address of the account able to transfer the tokens",
          "_value": "The amount of wei to be approved for transfer"
        },
        "return": "Whether the approval was successful or not"
      },
      "increaseAllowance(address,uint256)": {
        "details": "`msg.sender` approves `spender` to increase spend `value` tokens",
        "params": {
          "_spender": "The address of the account able to transfer the tokens",
          "_value": "The amount of wei to be approved for transfer"
        },
        "return": "Whether the approval was successful or not"
      }
    }
  },
  "userdoc": {
    "methods": {}
  }
}