{
  "contractName": "SuperTokenRegistry",
  "abi": [
    {
      "constant": false,
      "inputs": [
        {
          "name": "_which",
          "type": "address"
        }
      ],
      "name": "changeSystemAddress",
      "outputs": [
        {
          "name": "",
          "type": "bool"
        }
      ],
      "payable": false,
      "stateMutability": "nonpayable",
      "type": "function"
    },
    {
      "constant": true,
      "inputs": [],
      "name": "newAuthorityAddress",
      "outputs": [
        {
          "name": "",
          "type": "address"
        }
      ],
      "payable": false,
      "stateMutability": "view",
      "type": "function"
    },
    {
      "constant": false,
      "inputs": [],
      "name": "acceptAuthorityAddress",
      "outputs": [
        {
          "name": "",
          "type": "bool"
        }
      ],
      "payable": false,
      "stateMutability": "nonpayable",
      "type": "function"
    },
    {
      "constant": true,
      "inputs": [],
      "name": "proxyAddress",
      "outputs": [
        {
          "name": "",
          "type": "address"
        }
      ],
      "payable": false,
      "stateMutability": "view",
      "type": "function"
    },
    {
      "constant": true,
      "inputs": [],
      "name": "authorityAddress",
      "outputs": [
        {
          "name": "",
          "type": "address"
        }
      ],
      "payable": false,
      "stateMutability": "view",
      "type": "function"
    },
    {
      "constant": true,
      "inputs": [],
      "name": "primaryOwner",
      "outputs": [
        {
          "name": "",
          "type": "address"
        }
      ],
      "payable": false,
      "stateMutability": "view",
      "type": "function"
    },
    {
      "constant": false,
      "inputs": [
        {
          "name": "_which",
          "type": "address"
        }
      ],
      "name": "changeAuthorityAddress",
      "outputs": [
        {
          "name": "",
          "type": "bool"
        }
      ],
      "payable": false,
      "stateMutability": "nonpayable",
      "type": "function"
    },
    {
      "constant": true,
      "inputs": [],
      "name": "currentVersion",
      "outputs": [
        {
          "name": "",
          "type": "uint256"
        }
      ],
      "payable": false,
      "stateMutability": "view",
      "type": "function"
    },
    {
      "constant": false,
      "inputs": [
        {
          "name": "_which",
          "type": "address"
        }
      ],
      "name": "changePrimaryOwner",
      "outputs": [
        {
          "name": "",
          "type": "bool"
        }
      ],
      "payable": false,
      "stateMutability": "nonpayable",
      "type": "function"
    },
    {
      "constant": true,
      "inputs": [],
      "name": "systemAddress",
      "outputs": [
        {
          "name": "",
          "type": "address"
        }
      ],
      "payable": false,
      "stateMutability": "view",
      "type": "function"
    },
    {
      "inputs": [
        {
          "name": "_systemAddress",
          "type": "address"
        },
        {
          "name": "_multisigAddress",
          "type": "address"
        }
      ],
      "payable": false,
      "stateMutability": "nonpayable",
      "type": "constructor"
    },
    {
      "anonymous": false,
      "inputs": [
        {
          "indexed": false,
          "name": "proxy",
          "type": "address"
        }
      ],
      "name": "ProxyCreated",
      "type": "event"
    },
    {
      "anonymous": false,
      "inputs": [
        {
          "indexed": false,
          "name": "version",
          "type": "uint256"
        },
        {
          "indexed": false,
          "name": "implementation",
          "type": "address"
        }
      ],
      "name": "VersionAdded",
      "type": "event"
    },
    {
      "anonymous": false,
      "inputs": [
        {
          "indexed": false,
          "name": "ownerType",
          "type": "string"
        },
        {
          "indexed": true,
          "name": "previousOwner",
          "type": "address"
        },
        {
          "indexed": true,
          "name": "newOwner",
          "type": "address"
        }
      ],
      "name": "OwnershipTransferred",
      "type": "event"
    },
    {
      "anonymous": false,
      "inputs": [
        {
          "indexed": true,
          "name": "previousOwner",
          "type": "address"
        },
        {
          "indexed": true,
          "name": "newOwner",
          "type": "address"
        }
      ],
      "name": "AuthorityAddressChnageCall",
      "type": "event"
    },
    {
      "constant": false,
      "inputs": [
        {
          "name": "version",
          "type": "uint256"
        },
        {
          "name": "implementation",
          "type": "address"
        }
      ],
      "name": "addVersion",
      "outputs": [],
      "payable": false,
      "stateMutability": "nonpayable",
      "type": "function"
    },
    {
      "constant": true,
      "inputs": [
        {
          "name": "version",
          "type": "uint256"
        }
      ],
      "name": "getVersion",
      "outputs": [
        {
          "name": "",
          "type": "address"
        }
      ],
      "payable": false,
      "stateMutability": "view",
      "type": "function"
    },
    {
      "constant": false,
      "inputs": [
        {
          "name": "_name",
          "type": "string"
        },
        {
          "name": "_symbol",
          "type": "string"
        },
        {
          "name": "_primaryOwner",
          "type": "address"
        },
        {
          "name": "_systemAddress",
          "type": "address"
        },
        {
          "name": "_authorityAddress",
          "type": "address"
        },
        {
          "name": "_registeryAddress",
          "type": "address"
        },
        {
          "name": "_tokenPrice",
          "type": "uint256"
        },
        {
          "name": "_tokenMaturityDays",
          "type": "uint256"
        },
        {
          "name": "_tokenHoldBackDays",
          "type": "uint256"
        },
        {
          "name": "_which",
          "type": "address[]"
        },
        {
          "name": "_amount",
          "type": "uint256[]"
        },
        {
          "name": "version",
          "type": "uint256"
        }
      ],
      "name": "createProxy",
      "outputs": [
        {
          "name": "",
          "type": "address"
        }
      ],
      "payable": false,
      "stateMutability": "nonpayable",
      "type": "function"
    },
    {
      "constant": false,
      "inputs": [
        {
          "name": "version",
          "type": "uint256"
        }
      ],
      "name": "upgradeTo",
      "outputs": [
        {
          "name": "",
          "type": "bool"
        }
      ],
      "payable": false,
      "stateMutability": "nonpayable",
      "type": "function"
    }
  ],
  "bytecode": "0x6080604052600080546001600160a01b0319908116909155600180548216905560028054821690556003805490911690553480156200003d57600080fd5b5060405162001c9038038062001c90833981810160405260408110156200006357600080fd5b50805160209182015160408051808201909152601081527f4552525f5a45524f5f41444452455353000000000000000000000000000000009381019390935290918290829082906001600160a01b0382166200015a576040517f08c379a00000000000000000000000000000000000000000000000000000000081526004018080602001828103825283818151815260200191508051906020019080838360005b838110156200011e57818101518382015260200162000104565b50505050905090810190601f1680156200014c5780820380516001836020036101000a031916815260200191505b509250505060405180910390fd5b5060408051808201909152601081527f4552525f53414d455f41444452455353000000000000000000000000000000006020820152336001600160a01b038516141562000204576040517f08c379a00000000000000000000000000000000000000000000000000000000081526020600482018181528351602484015283519092839260449091019190850190808383600083156200011e57818101518382015260200162000104565b50816001600160a01b0316836001600160a01b031614156040518060400160405280601081526020017f4552525f53414d455f414444524553530000000000000000000000000000000081525090620002ba576040517f08c379a00000000000000000000000000000000000000000000000000000000081526020600482018181528351602484015283519092839260449091019190850190808383600083156200011e57818101518382015260200162000104565b5060408051808201909152601081527f4552525f53414d455f41444452455353000000000000000000000000000000006020820152336001600160a01b038416141562000364576040517f08c379a00000000000000000000000000000000000000000000000000000000081526020600482018181528351602484015283519092839260449091019190850190808383600083156200011e57818101518382015260200162000104565b5050600080546001600160a01b03199081163317909155600280546001600160a01b039485169083161790556001805492909316911617905550506118e180620003af6000396000f3fe608060405234801561001057600080fd5b50600436106100ea5760003560e01c80638e10be331161008c578063b88da75911610066578063b88da75914610447578063c4d3426814610464578063d3e848f11461048a578063fd016b3414610492576100ea565b80638e10be33146103ff5780638f51368b146104075780639d888e861461042d576100ea565b806323f5c02d116100c857806323f5c02d14610155578063272860fd1461015d5780632e6b13cc1461018b5780633c695d4e146103f7576100ea565b806304d63089146100ef5780630abaad7a1461012957806320c462fe1461014d575b600080fd5b6101156004803603602081101561010557600080fd5b50356001600160a01b03166104af565b604080519115158252519081900360200190f35b6101316107c1565b604080516001600160a01b039092168252519081900360200190f35b6101156107d0565b6101316108e6565b6101896004803603604081101561017357600080fd5b50803590602001356001600160a01b03166108f5565b005b61013160048036036101808110156101a257600080fd5b810190602081018135600160201b8111156101bc57600080fd5b8201836020820111156101ce57600080fd5b803590602001918460018302840111600160201b831117156101ef57600080fd5b91908080601f0160208091040260200160405190810160405280939291908181526020018383808284376000920191909152509295949360208101935035915050600160201b81111561024157600080fd5b82018360208201111561025357600080fd5b803590602001918460018302840111600160201b8311171561027457600080fd5b91908080601f01602080910402602001604051908101604052809392919081815260200183838082843760009201919091525092956001600160a01b0385358116966020870135821696604081013583169650606081013590921694506080820135935060a08201359260c08301359290919061010081019060e00135600160201b81111561030257600080fd5b82018360208201111561031457600080fd5b803590602001918460208302840111600160201b8311171561033557600080fd5b9190808060200260200160405190810160405280939291908181526020018383602002808284376000920191909152509295949360208101935035915050600160201b81111561038457600080fd5b82018360208201111561039657600080fd5b803590602001918460208302840111600160201b831117156103b757600080fd5b9190808060200260200160405190810160405280939291908181526020018383602002808284376000920191909152509295505091359250610ac7915050565b610131610edf565b610131610eee565b6101156004803603602081101561041d57600080fd5b50356001600160a01b0316610efd565b6104356110df565b60408051918252519081900360200190f35b6101316004803603602081101561045d57600080fd5b50356110e5565b6101156004803603602081101561047a57600080fd5b50356001600160a01b0316611100565b610131611344565b610115600480360360208110156104a857600080fd5b5035611353565b60015460408051808201909152601b81526000805160206200188d83398151915260208201526000916001600160a01b0316331461056b5760405162461bcd60e51b81526004018080602001828103825283818151815260200191508051906020019080838360005b83811015610530578181015183820152602001610518565b50505050905090810190601f16801561055d5780820380516001836020036101000a031916815260200191505b509250505060405180910390fd5b5060408051808201909152601981527f4552525f434f4e54524143545f53454c465f4144445245535300000000000000602082015282906001600160a01b0382163014156105fa5760405162461bcd60e51b8152602060048201818152835160248401528351909283926044909101919085019080838360008315610530578181015183820152602001610518565b5060408051808201909152601081526f4552525f5a45524f5f4144445245535360801b602082015283906001600160a01b0382166106795760405162461bcd60e51b8152602060048201818152835160248401528351909283926044909101919085019080838360008315610530578181015183820152602001610518565b506002546001600160a01b038581169116148015906106a657506001546001600160a01b03858116911614155b80156106c057506000546001600160a01b03858116911614155b6040518060400160405280601081526020016f4552525f53414d455f4144445245535360801b815250906107355760405162461bcd60e51b8152602060048201818152835160248401528351909283926044909101919085019080838360008315610530578181015183820152602001610518565b50600254604080516020808252600e908201526d53595354454d5f4144445245535360901b8183015290516001600160a01b038088169316917f6840904f5b31827f74e1497360da245f56e530c8c3de3163a2d31f11493273c6919081900360600190a3600280546001600160a01b0386166001600160a01b0319909116179055600192505050919050565b6003546001600160a01b031681565b60035460408051808201909152601b81526000805160206200188d83398151915260208201526000916001600160a01b0316331461084f5760405162461bcd60e51b8152602060048201818152835160248401528351909283926044909101919085019080838360008315610530578181015183820152602001610518565b5060035460015460408051602080825260119082015270415554484f524954595f4144445245535360781b8183015290516001600160a01b039384169392909216917f6840904f5b31827f74e1497360da245f56e530c8c3de3163a2d31f11493273c69181900360600190a35060038054600180546001600160a01b03199081166001600160a01b03841617825590911690915590565b6006546001600160a01b031681565b6000546001600160a01b031633148061091857506002546001600160a01b031633145b6040518060400160405280601b81526020016000805160206200188d833981519152815250906109895760405162461bcd60e51b8152602060048201818152835160248401528351909283926044909101919085019080838360008315610530578181015183820152602001610518565b5060408051808201909152601081526f4552525f5a45524f5f4144445245535360801b602082015281906001600160a01b038216610a085760405162461bcd60e51b8152602060048201818152835160248401528351909283926044909101919085019080838360008315610530578181015183820152602001610518565b506000838152600460205260409020546001600160a01b031615610a5e5760405162461bcd60e51b8152600401808060200182810382526028815260200180620018656028913960400191505060405180910390fd5b60008381526004602090815260409182902080546001600160a01b0319166001600160a01b03861690811790915582518681529182015281517f8acfa0f943685107a3a6f2951a8e8d9bd985bef6caa1e2677d3fb5e9fb21ef75929181900390910190a1505050565b600080546001600160a01b0316331480610aeb57506002546001600160a01b031633145b6040518060400160405280601b81526020016000805160206200188d83398151915281525090610b5c5760405162461bcd60e51b8152602060048201818152835160248401528351909283926044909101919085019080838360008315610530578181015183820152602001610518565b506006546001600160a01b031615610bbb576040805162461bcd60e51b815260206004820152601960248201527f4552525f50524f58595f414c52454144595f4352454154454400000000000000604482015290519081900360640190fd5b600082604051610bca90611445565b90815260405190819003602001906000f080158015610bed573d6000803e3d6000fd5b509050806001600160a01b03166345d7bf328f8f8f8f8f8f8f8f8f6040518a63ffffffff1660e01b81526004018080602001806020018a6001600160a01b03166001600160a01b03168152602001896001600160a01b03166001600160a01b03168152602001886001600160a01b03166001600160a01b03168152602001876001600160a01b03166001600160a01b0316815260200186815260200185815260200184815260200183810383528c818151815260200191508051906020019080838360005b83811015610cca578181015183820152602001610cb2565b50505050905090810190601f168015610cf75780820380516001836020036101000a031916815260200191505b5083810382528b5181528b516020918201918d019080838360005b83811015610d2a578181015183820152602001610d12565b50505050905090810190601f168015610d575780820380516001836020036101000a031916815260200191505b509b505050505050505050505050600060405180830381600087803b158015610d7f57600080fd5b505af1158015610d93573d6000803e3d6000fd5b50505050806001600160a01b0316632e27e3a786866040518363ffffffff1660e01b8152600401808060200180602001838103835285818151815260200191508051906020019060200280838360005b83811015610dfb578181015183820152602001610de3565b50505050905001838103825284818151815260200191508051906020019060200280838360005b83811015610e3a578181015183820152602001610e22565b50505050905001945050505050600060405180830381600087803b158015610e6157600080fd5b505af1158015610e75573d6000803e3d6000fd5b505050600584905550600680546001600160a01b0383166001600160a01b0319909116811790915560408051918252517efffc2da0b561cae30d9826d37709e9421c4725faebc226cbbb7ef5fc5e73499181900360200190a19d9c50505050505050505050505050565b6001546001600160a01b031681565b6000546001600160a01b031681565b60015460408051808201909152601b81526000805160206200188d83398151915260208201526000916001600160a01b03163314610f7c5760405162461bcd60e51b8152602060048201818152835160248401528351909283926044909101919085019080838360008315610530578181015183820152602001610518565b5060408051808201909152601081526f4552525f5a45524f5f4144445245535360801b602082015282906001600160a01b038216610ffb5760405162461bcd60e51b8152602060048201818152835160248401528351909283926044909101919085019080838360008315610530578181015183820152602001610518565b506002546001600160a01b0384811691161480159061102857506001546001600160a01b03848116911614155b801561104257506000546001600160a01b03848116911614155b6040518060400160405280601081526020016f4552525f53414d455f4144445245535360801b815250906110b75760405162461bcd60e51b8152602060048201818152835160248401528351909283926044909101919085019080838360008315610530578181015183820152602001610518565b50600380546001600160a01b0385166001600160a01b03199091161790556001915050919050565b60055481565b6000908152600460205260409020546001600160a01b031690565b60015460408051808201909152601b81526000805160206200188d83398151915260208201526000916001600160a01b0316331461117f5760405162461bcd60e51b8152602060048201818152835160248401528351909283926044909101919085019080838360008315610530578181015183820152602001610518565b5060408051808201909152601081526f4552525f5a45524f5f4144445245535360801b602082015282906001600160a01b0382166111fe5760405162461bcd60e51b8152602060048201818152835160248401528351909283926044909101919085019080838360008315610530578181015183820152602001610518565b506002546001600160a01b0384811691161480159061122b57506001546001600160a01b03848116911614155b801561124557506000546001600160a01b03848116911614155b6040518060400160405280601081526020016f4552525f53414d455f4144445245535360801b815250906112ba5760405162461bcd60e51b8152602060048201818152835160248401528351909283926044909101919085019080838360008315610530578181015183820152602001610518565b50600054604080516020808252600d908201526c282924a6a0a92cafa7aba722a960991b8183015290516001600160a01b038087169316917f6840904f5b31827f74e1497360da245f56e530c8c3de3163a2d31f11493273c6919081900360600190a3600080546001600160a01b0385166001600160a01b03199091161790556001915050919050565b6002546001600160a01b031681565b60015460408051808201909152601b81526000805160206200188d83398151915260208201526000916001600160a01b031633146113d25760405162461bcd60e51b8152602060048201818152835160248401528351909283926044909101919085019080838360008315610530578181015183820152602001610518565b50600582905560065460408051633f405acd60e21b81526004810185905290516001600160a01b039092169163fd016b349160248082019260009290919082900301818387803b15801561142557600080fd5b505af1158015611439573d6000803e3d6000fd5b50600195945050505050565b61041180620014548339019056fe608060405234801561001057600080fd5b506040516104113803806104118339818101604052602081101561003357600080fd5b5051600080546001600160a01b03191633179055610059816001600160e01b0361005f16565b5061018b565b6000546001600160a01b031633146100d857604080517f08c379a000000000000000000000000000000000000000000000000000000000815260206004820152601c60248201527f4552525f4f4e4c595f524547495354524552595f43414e5f43414c4c00000000604482015290519081900360640190fd5b600054604080517fb88da7590000000000000000000000000000000000000000000000000000000081526004810184905290516001600160a01b039092169163b88da75991602480820192602092909190829003018186803b15801561013d57600080fd5b505afa158015610151573d6000803e3d6000fd5b505050506040513d602081101561016757600080fd5b5051600180546001600160a01b0319166001600160a01b0390921691909117905550565b6102778061019a6000396000f3fe6080604052600436106100345760003560e01c80635c60da1b146100b95780637b103999146100ea578063fd016b34146100ff575b600061003e61012b565b90506001600160a01b038116610094576040805162461bcd60e51b81526020600482015260166024820152754552525f494d504c454d454e5445494f4e5f5a45524f60501b604482015290519081900360640190fd5b60405136600082376000803683855af43d806000843e8180156100b5578184f35b8184fd5b3480156100c557600080fd5b506100ce61012b565b604080516001600160a01b039092168252519081900360200190f35b3480156100f657600080fd5b506100ce61013a565b34801561010b57600080fd5b506101296004803603602081101561012257600080fd5b5035610149565b005b6001546001600160a01b031690565b6000546001600160a01b031681565b6000546001600160a01b031633146101a8576040805162461bcd60e51b815260206004820152601c60248201527f4552525f4f4e4c595f524547495354524552595f43414e5f43414c4c00000000604482015290519081900360640190fd5b6000546040805163b88da75960e01b81526004810184905290516001600160a01b039092169163b88da75991602480820192602092909190829003018186803b1580156101f457600080fd5b505afa158015610208573d6000803e3d6000fd5b505050506040513d602081101561021e57600080fd5b5051600180546001600160a01b0319166001600160a01b039092169190911790555056fea265627a7a723058207a0834d862c78695fca60072d61082099ee6745c86ea22ec11f5506523a6681764736f6c63430005090032546869732076657273696f6e2068617320696d706c656d656e746174696f6e2061747461636865644552525f415554484f52495a45445f414444524553535f4f4e4c590000000000a265627a7a723058200e641d73302a9e1419c611ff4d1db0d6206a75a79fe423a0afa267286815561464736f6c63430005090032",
  "source": "pragma solidity ^0.5.9;\nimport \"../common/RegisteryOwnable.sol\";\nimport \"../Proxy/IRegistry.sol\";\nimport \"../Proxy/UpgradeabilityProxy.sol\";\n\ninterface InitializeInterface {\n    function initialize(\n        string calldata _name,\n        string calldata _symbol,\n        address _primaryOwner,\n        address _systemAddress,\n        address _authorityAddress,\n        address _registeryAddress,\n        uint256 _tokenPrice,\n        uint256 _tokenMaturityDays,\n        uint256 _tokenHoldBackDays\n    ) external;\n    \n    function premint(address[] calldata _which,uint256[] calldata _amount) external;\n}\n\n\n\n\n/**\n * @title Registry\n * @dev This contract works as a registry of versions, it holds the implementations for the registered versions.\n */\ncontract SuperTokenRegistry is RegisteryOwnable, IRegistry {\n    // Mapping of versions to implementations of different functions\n    mapping(uint256 => address) internal versions;   \n     \n    uint256 public currentVersion;\n    \n    address payable public proxyAddress;\n\n    //@dev constructor\n    //@param _systemAddress address of the system Owner\n    constructor(address _systemAddress, address _multisigAddress)\n        public\n        RegisteryOwnable(_systemAddress, _multisigAddress)\n    {}\n\n    /**\n     * @dev Registers a new version with its implementation address\n     * @param version representing the version name of the new implementation to be registered\n     * @param implementation representing the address of the new implementation to be registered\n     */\n    function addVersion(uint256 version, address implementation)\n        public\n        onlyOneOfOnwer()\n        notZeroAddress(implementation)\n    {\n        require(\n            versions[version] == address(0),\n            \"This version has implementation attached\"\n        );\n        versions[version] = implementation;\n        emit VersionAdded(version, implementation);\n    }\n\n    /**\n     * @dev Tells the address of the implementation for a given version\n     * @param version to query the implementation of\n     * @return address of the implementation registered for the given version\n     */\n    function getVersion(uint256 version) public view returns (address) {\n        return versions[version];\n    }\n    \n    //function setTokenDetails()\n    \n    /**\n     * @dev Creates an upgradeable proxy\n     * @param version representing the first version to be set for the proxy\n     * @return address of the new proxy created\n     */\n    function createProxy(\n        string memory _name,\n        string memory _symbol,\n        address _primaryOwner,\n        address _systemAddress,\n        address _authorityAddress,\n        address _registeryAddress,\n        uint256 _tokenPrice,\n        uint256 _tokenMaturityDays,\n        uint256 _tokenHoldBackDays,\n        address[] memory _which,\n        uint256[] memory _amount,\n        uint256 version\n    ) public onlyOneOfOnwer() \n    \n\n    returns (address) {\n        \n        require(proxyAddress == address(0),\"ERR_PROXY_ALREADY_CREATED\");\n        \n        UpgradeabilityProxy proxy = new UpgradeabilityProxy(version);\n        \n        InitializeInterface(address(proxy)).initialize(\n            _name,\n            _symbol,\n            _primaryOwner,\n            _systemAddress,\n            _authorityAddress,\n            _registeryAddress,\n            _tokenPrice,\n            _tokenMaturityDays,\n            _tokenHoldBackDays\n        );\n        InitializeInterface(address(proxy)).premint(\n            _which,_amount\n        );\n        \n        currentVersion = version;\n        proxyAddress = address(proxy);\n        emit ProxyCreated(address(proxy));\n        return address(proxy);\n    }\n    \n\n    /**\n     * @dev Upgrades the implementation to the requested version\n     * @param version representing the version name of the new implementation to be set\n     */\n    \n    function upgradeTo(uint256 version) public onlyAuthorized() returns(bool) {\n        currentVersion = version;\n        UpgradeabilityProxy(proxyAddress).upgradeTo(version);\n        return true;\n    }\n    \n}\n",
  "sourcePath": "/home/mind/Work/Projects/Jointer/Jointer_auction/NewContracts/contracts/Tokens/TokenProxy.sol",
  "compiler": {
    "name": "solc",
    "version": "0.5.9+commit.e560f70d.Emscripten.clang"
  },
  "schemaVersion": "3.0.16",
  "updatedAt": "2020-04-22T14:52:56.498Z",
  "devdoc": {
    "details": "This contract works as a registry of versions, it holds the implementations for the registered versions.",
    "methods": {
      "addVersion(uint256,address)": {
        "details": "Registers a new version with its implementation address",
        "params": {
          "implementation": "representing the address of the new implementation to be registered",
          "version": "representing the version name of the new implementation to be registered"
        }
      },
      "changeAuthorityAddress(address)": {
        "details": "change system address",
        "params": {
          "_which": "The address to which is new Authority address"
        }
      },
      "changePrimaryOwner(address)": {
        "details": "change primary ownership",
        "params": {
          "_which": "The address to which is new owner address"
        }
      },
      "changeSystemAddress(address)": {
        "details": "change system address",
        "params": {
          "_which": "The address to which is new system address"
        }
      },
      "createProxy(string,string,address,address,address,address,uint256,uint256,uint256,address[],uint256[],uint256)": {
        "details": "Creates an upgradeable proxy",
        "params": {
          "version": "representing the first version to be set for the proxy"
        },
        "return": "address of the new proxy created"
      },
      "getVersion(uint256)": {
        "details": "Tells the address of the implementation for a given version",
        "params": {
          "version": "to query the implementation of"
        },
        "return": "address of the implementation registered for the given version"
      },
      "upgradeTo(uint256)": {
        "details": "Upgrades the implementation to the requested version",
        "params": {
          "version": "representing the version name of the new implementation to be set"
        }
      }
    },
    "title": "Registry"
  },
  "userdoc": {
    "methods": {}
  }
}