{
  "contractName": "SuperToken",
  "abi": [
    {
      "constant": false,
      "inputs": [
        {
          "name": "_which",
          "type": "address"
        }
      ],
      "name": "changeSystemAddress",
      "outputs": [
        {
          "name": "",
          "type": "bool"
        }
      ],
      "payable": false,
      "stateMutability": "nonpayable",
      "type": "function"
    },
    {
      "constant": true,
      "inputs": [],
      "name": "name",
      "outputs": [
        {
          "name": "",
          "type": "string"
        }
      ],
      "payable": false,
      "stateMutability": "view",
      "type": "function"
    },
    {
      "constant": false,
      "inputs": [
        {
          "name": "_spender",
          "type": "address"
        },
        {
          "name": "_value",
          "type": "uint256"
        }
      ],
      "name": "approve",
      "outputs": [
        {
          "name": "ok",
          "type": "bool"
        }
      ],
      "payable": false,
      "stateMutability": "nonpayable",
      "type": "function"
    },
    {
      "constant": true,
      "inputs": [],
      "name": "newAuthorityAddress",
      "outputs": [
        {
          "name": "",
          "type": "address"
        }
      ],
      "payable": false,
      "stateMutability": "view",
      "type": "function"
    },
    {
      "constant": true,
      "inputs": [],
      "name": "isTokenMature",
      "outputs": [
        {
          "name": "",
          "type": "bool"
        }
      ],
      "payable": false,
      "stateMutability": "view",
      "type": "function"
    },
    {
      "constant": true,
      "inputs": [],
      "name": "totalSupply",
      "outputs": [
        {
          "name": "",
          "type": "uint256"
        }
      ],
      "payable": false,
      "stateMutability": "view",
      "type": "function"
    },
    {
      "constant": false,
      "inputs": [],
      "name": "acceptAuthorityAddress",
      "outputs": [
        {
          "name": "",
          "type": "bool"
        }
      ],
      "payable": false,
      "stateMutability": "nonpayable",
      "type": "function"
    },
    {
      "constant": false,
      "inputs": [
        {
          "name": "_which",
          "type": "address"
        }
      ],
      "name": "removeMinter",
      "outputs": [
        {
          "name": "",
          "type": "bool"
        }
      ],
      "payable": false,
      "stateMutability": "nonpayable",
      "type": "function"
    },
    {
      "constant": true,
      "inputs": [],
      "name": "decimals",
      "outputs": [
        {
          "name": "",
          "type": "uint256"
        }
      ],
      "payable": false,
      "stateMutability": "view",
      "type": "function"
    },
    {
      "constant": true,
      "inputs": [],
      "name": "preminted",
      "outputs": [
        {
          "name": "",
          "type": "bool"
        }
      ],
      "payable": false,
      "stateMutability": "view",
      "type": "function"
    },
    {
      "constant": true,
      "inputs": [],
      "name": "authorityAddress",
      "outputs": [
        {
          "name": "",
          "type": "address"
        }
      ],
      "payable": false,
      "stateMutability": "view",
      "type": "function"
    },
    {
      "constant": true,
      "inputs": [],
      "name": "isOwnerInitialize",
      "outputs": [
        {
          "name": "",
          "type": "bool"
        }
      ],
      "payable": false,
      "stateMutability": "view",
      "type": "function"
    },
    {
      "constant": false,
      "inputs": [
        {
          "name": "_spender",
          "type": "address"
        },
        {
          "name": "_currentValue",
          "type": "uint256"
        },
        {
          "name": "_value",
          "type": "uint256"
        }
      ],
      "name": "approve",
      "outputs": [
        {
          "name": "ok",
          "type": "bool"
        }
      ],
      "payable": false,
      "stateMutability": "nonpayable",
      "type": "function"
    },
    {
      "constant": false,
      "inputs": [
        {
          "name": "_value",
          "type": "uint256"
        }
      ],
      "name": "burn",
      "outputs": [
        {
          "name": "",
          "type": "bool"
        }
      ],
      "payable": false,
      "stateMutability": "nonpayable",
      "type": "function"
    },
    {
      "constant": true,
      "inputs": [],
      "name": "tokenMaturityDays",
      "outputs": [
        {
          "name": "",
          "type": "uint256"
        }
      ],
      "payable": false,
      "stateMutability": "view",
      "type": "function"
    },
    {
      "constant": true,
      "inputs": [],
      "name": "implementation",
      "outputs": [
        {
          "name": "",
          "type": "address"
        }
      ],
      "payable": false,
      "stateMutability": "view",
      "type": "function"
    },
    {
      "constant": true,
      "inputs": [],
      "name": "prevRegistry",
      "outputs": [
        {
          "name": "",
          "type": "address"
        }
      ],
      "payable": false,
      "stateMutability": "view",
      "type": "function"
    },
    {
      "constant": true,
      "inputs": [
        {
          "name": "_who",
          "type": "address"
        }
      ],
      "name": "balanceOf",
      "outputs": [
        {
          "name": "balance",
          "type": "uint256"
        }
      ],
      "payable": false,
      "stateMutability": "view",
      "type": "function"
    },
    {
      "constant": false,
      "inputs": [
        {
          "name": "_primaryOwner",
          "type": "address"
        },
        {
          "name": "_systemAddress",
          "type": "address"
        },
        {
          "name": "_authorityAddress",
          "type": "address"
        }
      ],
      "name": "initializeOwner",
      "outputs": [],
      "payable": false,
      "stateMutability": "nonpayable",
      "type": "function"
    },
    {
      "constant": true,
      "inputs": [],
      "name": "registry",
      "outputs": [
        {
          "name": "",
          "type": "address"
        }
      ],
      "payable": false,
      "stateMutability": "view",
      "type": "function"
    },
    {
      "constant": true,
      "inputs": [],
      "name": "tokenPrice",
      "outputs": [
        {
          "name": "",
          "type": "uint256"
        }
      ],
      "payable": false,
      "stateMutability": "view",
      "type": "function"
    },
    {
      "constant": true,
      "inputs": [
        {
          "name": "",
          "type": "uint256"
        }
      ],
      "name": "minters",
      "outputs": [
        {
          "name": "",
          "type": "address"
        }
      ],
      "payable": false,
      "stateMutability": "view",
      "type": "function"
    },
    {
      "constant": true,
      "inputs": [],
      "name": "tokenSaleStartDate",
      "outputs": [
        {
          "name": "",
          "type": "uint256"
        }
      ],
      "payable": false,
      "stateMutability": "view",
      "type": "function"
    },
    {
      "constant": true,
      "inputs": [],
      "name": "primaryOwner",
      "outputs": [
        {
          "name": "",
          "type": "address"
        }
      ],
      "payable": false,
      "stateMutability": "view",
      "type": "function"
    },
    {
      "constant": false,
      "inputs": [
        {
          "name": "_which",
          "type": "address"
        }
      ],
      "name": "changeAuthorityAddress",
      "outputs": [
        {
          "name": "",
          "type": "bool"
        }
      ],
      "payable": false,
      "stateMutability": "nonpayable",
      "type": "function"
    },
    {
      "constant": true,
      "inputs": [],
      "name": "symbol",
      "outputs": [
        {
          "name": "",
          "type": "string"
        }
      ],
      "payable": false,
      "stateMutability": "view",
      "type": "function"
    },
    {
      "constant": true,
      "inputs": [],
      "name": "tokenHoldBackDays",
      "outputs": [
        {
          "name": "",
          "type": "uint256"
        }
      ],
      "payable": false,
      "stateMutability": "view",
      "type": "function"
    },
    {
      "constant": false,
      "inputs": [
        {
          "name": "_amount",
          "type": "uint256"
        }
      ],
      "name": "mintTokens",
      "outputs": [
        {
          "name": "",
          "type": "bool"
        }
      ],
      "payable": false,
      "stateMutability": "nonpayable",
      "type": "function"
    },
    {
      "constant": false,
      "inputs": [
        {
          "name": "_which",
          "type": "address"
        }
      ],
      "name": "addMinter",
      "outputs": [
        {
          "name": "",
          "type": "bool"
        }
      ],
      "payable": false,
      "stateMutability": "nonpayable",
      "type": "function"
    },
    {
      "constant": true,
      "inputs": [
        {
          "name": "",
          "type": "address"
        }
      ],
      "name": "minterIndex",
      "outputs": [
        {
          "name": "",
          "type": "uint256"
        }
      ],
      "payable": false,
      "stateMutability": "view",
      "type": "function"
    },
    {
      "constant": false,
      "inputs": [
        {
          "name": "_address",
          "type": "address"
        }
      ],
      "name": "updateRegistery",
      "outputs": [
        {
          "name": "",
          "type": "bool"
        }
      ],
      "payable": false,
      "stateMutability": "nonpayable",
      "type": "function"
    },
    {
      "constant": true,
      "inputs": [],
      "name": "isHoldbackDaysOver",
      "outputs": [
        {
          "name": "",
          "type": "bool"
        }
      ],
      "payable": false,
      "stateMutability": "view",
      "type": "function"
    },
    {
      "constant": false,
      "inputs": [
        {
          "name": "_which",
          "type": "address"
        }
      ],
      "name": "changePrimaryOwner",
      "outputs": [
        {
          "name": "",
          "type": "bool"
        }
      ],
      "payable": false,
      "stateMutability": "nonpayable",
      "type": "function"
    },
    {
      "constant": true,
      "inputs": [],
      "name": "systemAddress",
      "outputs": [
        {
          "name": "",
          "type": "address"
        }
      ],
      "payable": false,
      "stateMutability": "view",
      "type": "function"
    },
    {
      "constant": true,
      "inputs": [
        {
          "name": "_owner",
          "type": "address"
        },
        {
          "name": "_spender",
          "type": "address"
        }
      ],
      "name": "allowance",
      "outputs": [
        {
          "name": "",
          "type": "uint256"
        }
      ],
      "payable": false,
      "stateMutability": "view",
      "type": "function"
    },
    {
      "payable": true,
      "stateMutability": "payable",
      "type": "fallback"
    },
    {
      "anonymous": false,
      "inputs": [
        {
          "indexed": true,
          "name": "_to",
          "type": "address"
        },
        {
          "indexed": false,
          "name": "value",
          "type": "uint256"
        }
      ],
      "name": "Mint",
      "type": "event"
    },
    {
      "anonymous": false,
      "inputs": [
        {
          "indexed": true,
          "name": "from",
          "type": "address"
        },
        {
          "indexed": false,
          "name": "value",
          "type": "uint256"
        }
      ],
      "name": "Burn",
      "type": "event"
    },
    {
      "anonymous": false,
      "inputs": [
        {
          "indexed": true,
          "name": "spender",
          "type": "address"
        },
        {
          "indexed": true,
          "name": "_from",
          "type": "address"
        },
        {
          "indexed": true,
          "name": "_to",
          "type": "address"
        }
      ],
      "name": "TransferFrom",
      "type": "event"
    },
    {
      "anonymous": false,
      "inputs": [
        {
          "indexed": false,
          "name": "ownerType",
          "type": "string"
        },
        {
          "indexed": true,
          "name": "previousOwner",
          "type": "address"
        },
        {
          "indexed": true,
          "name": "newOwner",
          "type": "address"
        }
      ],
      "name": "OwnershipTransferred",
      "type": "event"
    },
    {
      "anonymous": false,
      "inputs": [
        {
          "indexed": true,
          "name": "previousOwner",
          "type": "address"
        },
        {
          "indexed": true,
          "name": "newOwner",
          "type": "address"
        }
      ],
      "name": "AuthorityAddressChnageCall",
      "type": "event"
    },
    {
      "anonymous": false,
      "inputs": [
        {
          "indexed": true,
          "name": "from",
          "type": "address"
        },
        {
          "indexed": true,
          "name": "to",
          "type": "address"
        },
        {
          "indexed": false,
          "name": "value",
          "type": "uint256"
        }
      ],
      "name": "Transfer",
      "type": "event"
    },
    {
      "anonymous": false,
      "inputs": [
        {
          "indexed": true,
          "name": "owner",
          "type": "address"
        },
        {
          "indexed": true,
          "name": "spender",
          "type": "address"
        },
        {
          "indexed": false,
          "name": "value",
          "type": "uint256"
        }
      ],
      "name": "Approval",
      "type": "event"
    },
    {
      "constant": false,
      "inputs": [
        {
          "name": "_name",
          "type": "string"
        },
        {
          "name": "_symbol",
          "type": "string"
        },
        {
          "name": "_primaryOwner",
          "type": "address"
        },
        {
          "name": "_systemAddress",
          "type": "address"
        },
        {
          "name": "_authorityAddress",
          "type": "address"
        },
        {
          "name": "_registeryAddress",
          "type": "address"
        },
        {
          "name": "_tokenPrice",
          "type": "uint256"
        },
        {
          "name": "_tokenMaturityDays",
          "type": "uint256"
        },
        {
          "name": "_tokenHoldBackDays",
          "type": "uint256"
        }
      ],
      "name": "initialize",
      "outputs": [],
      "payable": false,
      "stateMutability": "nonpayable",
      "type": "function"
    },
    {
      "constant": true,
      "inputs": [],
      "name": "initialize",
      "outputs": [],
      "payable": false,
      "stateMutability": "view",
      "type": "function"
    },
    {
      "constant": false,
      "inputs": [
        {
          "name": "_which",
          "type": "address[]"
        },
        {
          "name": "_amount",
          "type": "uint256[]"
        }
      ],
      "name": "premint",
      "outputs": [],
      "payable": false,
      "stateMutability": "nonpayable",
      "type": "function"
    },
    {
      "constant": false,
      "inputs": [
        {
          "name": "_to",
          "type": "address"
        },
        {
          "name": "_value",
          "type": "uint256"
        }
      ],
      "name": "transfer",
      "outputs": [
        {
          "name": "ok",
          "type": "bool"
        }
      ],
      "payable": false,
      "stateMutability": "nonpayable",
      "type": "function"
    },
    {
      "constant": false,
      "inputs": [
        {
          "name": "_from",
          "type": "address"
        },
        {
          "name": "_to",
          "type": "address"
        },
        {
          "name": "_value",
          "type": "uint256"
        }
      ],
      "name": "transferFrom",
      "outputs": [
        {
          "name": "",
          "type": "bool"
        }
      ],
      "payable": false,
      "stateMutability": "nonpayable",
      "type": "function"
    }
  ],
  "bytecode": "0x6080604052600380546001600160a01b03199081169091556004805482169055600580549091169055600680546001600160a81b031916905534801561004457600080fd5b50612d9b806100546000396000f3fe60806040526004361061023b5760003560e01c806370a082311161012e5780639668d13e116100ab578063bc1366fe1161006f578063bc1366fe146109a7578063c4b01ebf146109da578063c4d34268146109ef578063d3e848f114610a22578063dd62ed3e14610a375761023b565b80639668d13e146108c957806397304ced146108de578063983b2d5614610908578063a190b1921461093b578063a9059cbb1461096e5761023b565b80638623ec7b116100f25780638623ec7b1461082d5780638dcab187146108575780638e10be331461086c5780638f51368b1461088157806395d89b41146108b45761023b565b806370a0823114610776578063760e595a146107a95780637b103999146107ee5780637ff9b596146108035780638129fc1c146108185761023b565b8063313ce567116101bc57806342966c681161018057806342966c68146105a257806345d7bf32146105cc57806353ecc772146107375780635c60da1b1461074c57806361cd756e146107615761023b565b8063313ce5671461050f578063357b794e146105245780633c695d4e146105395780633ff59a521461054e578063426a8493146105635761023b565b806318160ddd1161020357806318160ddd1461039057806320c462fe146103b757806323b872dd146103cc5780632e27e3a71461040f5780633092afd5146104dc5761023b565b806304d630891461024057806306fdde0314610287578063095ea7b3146103115780630abaad7a1461034a57806317ebc35f1461037b575b600080fd5b34801561024c57600080fd5b506102736004803603602081101561026357600080fd5b50356001600160a01b0316610a72565b604080519115158252519081900360200190f35b34801561029357600080fd5b5061029c610d7f565b6040805160208082528351818301528351919283929083019185019080838360005b838110156102d65781810151838201526020016102be565b50505050905090810190601f1680156103035780820380516001836020036101000a031916815260200191505b509250505060405180910390f35b34801561031d57600080fd5b506102736004803603604081101561033457600080fd5b506001600160a01b038135169060200135610e0d565b34801561035657600080fd5b5061035f610ef7565b604080516001600160a01b039092168252519081900360200190f35b34801561038757600080fd5b50610273610f06565b34801561039c57600080fd5b506103a5610f5a565b60408051918252519081900360200190f35b3480156103c357600080fd5b50610273610f60565b3480156103d857600080fd5b50610273600480360360608110156103ef57600080fd5b506001600160a01b03813581169160208101359091169060400135611075565b34801561041b57600080fd5b506104da6004803603604081101561043257600080fd5b810190602081018135600160201b81111561044c57600080fd5b82018360208201111561045e57600080fd5b803590602001918460208302840111600160201b8311171561047f57600080fd5b919390929091602081019035600160201b81111561049c57600080fd5b8201836020820111156104ae57600080fd5b803590602001918460208302840111600160201b831117156104cf57600080fd5b50909250905061109d565b005b3480156104e857600080fd5b50610273600480360360208110156104ff57600080fd5b50356001600160a01b0316611196565b34801561051b57600080fd5b506103a5611388565b34801561053057600080fd5b5061027361138d565b34801561054557600080fd5b5061035f611396565b34801561055a57600080fd5b506102736113a5565b34801561056f57600080fd5b506102736004803603606081101561058657600080fd5b506001600160a01b0381351690602081013590604001356113b5565b3480156105ae57600080fd5b50610273600480360360208110156105c557600080fd5b5035611510565b3480156105d857600080fd5b506104da60048036036101208110156105f057600080fd5b810190602081018135600160201b81111561060a57600080fd5b82018360208201111561061c57600080fd5b803590602001918460018302840111600160201b8311171561063d57600080fd5b91908080601f0160208091040260200160405190810160405280939291908181526020018383808284376000920191909152509295949360208101935035915050600160201b81111561068f57600080fd5b8201836020820111156106a157600080fd5b803590602001918460018302840111600160201b831117156106c257600080fd5b91908080601f016020809104026020016040519081016040528093929190818152602001838380828437600092019190915250929550506001600160a01b0383358116945060208401358116936040810135821693506060810135909116915060808101359060a08101359060c00135611522565b34801561074357600080fd5b506103a561175a565b34801561075857600080fd5b5061035f611760565b34801561076d57600080fd5b5061035f61176f565b34801561078257600080fd5b506103a56004803603602081101561079957600080fd5b50356001600160a01b031661177e565b3480156107b557600080fd5b506104da600480360360608110156107cc57600080fd5b506001600160a01b038135811691602081013582169160409091013516611799565b3480156107fa57600080fd5b5061035f611b6f565b34801561080f57600080fd5b506103a5611b7e565b34801561082457600080fd5b506104da611b84565b34801561083957600080fd5b5061035f6004803603602081101561085057600080fd5b5035611be5565b34801561086357600080fd5b506103a5611c0c565b34801561087857600080fd5b5061035f611c12565b34801561088d57600080fd5b50610273600480360360208110156108a457600080fd5b50356001600160a01b0316611c21565b3480156108c057600080fd5b5061029c611e02565b3480156108d557600080fd5b506103a5611e5d565b3480156108ea57600080fd5b506102736004803603602081101561090157600080fd5b5035611e63565b34801561091457600080fd5b506102736004803603602081101561092b57600080fd5b50356001600160a01b0316611ef2565b34801561094757600080fd5b506103a56004803603602081101561095e57600080fd5b50356001600160a01b0316612076565b34801561097a57600080fd5b506102736004803603604081101561099157600080fd5b506001600160a01b038135169060200135612088565b3480156109b357600080fd5b50610273600480360360208110156109ca57600080fd5b50356001600160a01b03166120ae565b3480156109e657600080fd5b506102736121e2565b3480156109fb57600080fd5b5061027360048036036020811015610a1257600080fd5b50356001600160a01b03166121f4565b348015610a2e57600080fd5b5061035f612437565b348015610a4357600080fd5b506103a560048036036040811015610a5a57600080fd5b506001600160a01b0381358116916020013516612446565b60045460408051808201909152601b8152600080516020612d4783398151915260208201526000916001600160a01b03163314610b2d5760405162461bcd60e51b81526004018080602001828103825283818151815260200191508051906020019080838360005b83811015610af2578181015183820152602001610ada565b50505050905090810190601f168015610b1f5780820380516001836020036101000a031916815260200191505b509250505060405180910390fd5b506040805180820190915260198152784552525f434f4e54524143545f53454c465f4144445245535360381b602082015282906001600160a01b038216301415610bb85760405162461bcd60e51b8152602060048201818152835160248401528351909283926044909101919085019080838360008315610af2578181015183820152602001610ada565b5060408051808201909152601081526f4552525f5a45524f5f4144445245535360801b602082015283906001600160a01b038216610c375760405162461bcd60e51b8152602060048201818152835160248401528351909283926044909101919085019080838360008315610af2578181015183820152602001610ada565b506006546001600160a01b03858116911614801590610c6457506004546001600160a01b03858116911614155b8015610c7e57506003546001600160a01b03858116911614155b6040518060400160405280601081526020016f4552525f53414d455f4144445245535360801b81525090610cf35760405162461bcd60e51b8152602060048201818152835160248401528351909283926044909101919085019080838360008315610af2578181015183820152602001610ada565b50600654604080516020808252600e908201526d53595354454d5f4144445245535360901b8183015290516001600160a01b038088169316917f6840904f5b31827f74e1497360da245f56e530c8c3de3163a2d31f11493273c6919081900360600190a3600680546001600160a01b0386166001600160a01b0319909116179055600192505050919050565b6009805460408051602060026001851615610100026000190190941693909304601f81018490048402820184019092528181529291830182828015610e055780601f10610dda57610100808354040283529160200191610e05565b820191906000526020600020905b815481529060010190602001808311610de857829003601f168201915b505050505081565b60408051808201909152601081526f4552525f5a45524f5f4144445245535360801b602082015260009083906001600160a01b038216610e8e5760405162461bcd60e51b8152602060048201818152835160248401528351909283926044909101919085019080838360008315610af2578181015183820152602001610ada565b50336000818152600c602090815260408083206001600160a01b03891680855290835292819020879055805187815290519293927f8c5be1e5ebec7d5bd14f71427d1e84f3dd0314c0f7b2291e5b200ac8c7c3b925929181900390910190a35060019392505050565b6005546001600160a01b031681565b600060125460001415610f1b57506000610f57565b6000610f2c62015180601254612471565b90506000610f3c82601154612495565b9050804210610f5057600192505050610f57565b6000925050505b90565b60025481565b60055460408051808201909152601b8152600080516020612d4783398151915260208201526000916001600160a01b03163314610fde5760405162461bcd60e51b8152602060048201818152835160248401528351909283926044909101919085019080838360008315610af2578181015183820152602001610ada565b5060055460045460408051602080825260119082015270415554484f524954595f4144445245535360781b8183015290516001600160a01b039384169392909216917f6840904f5b31827f74e1497360da245f56e530c8c3de3163a2d31f11493273c69181900360600190a35060058054600480546001600160a01b03199081166001600160a01b03841617909155169055600190565b600061108184846124a4565b61108a57600080fd5b611095848484612672565b949350505050565b8281146110e7576040805162461bcd60e51b815260206004820152601360248201527211549497d393d517d4d0535157d3115391d215606a1b604482015290519081900360640190fd5b60145460ff1615611137576040805162461bcd60e51b815260206004820152601560248201527411549497d053149150511657d41491535253951151605a1b604482015290519081900360640190fd5b60005b838110156111825761117985858381811061115157fe5b905060200201356001600160a01b031684848481811061116d57fe5b90506020020135612893565b5060010161113a565b50506014805460ff19166001179055505050565b60045460408051808201909152601b8152600080516020612d4783398151915260208201526000916001600160a01b031633146112145760405162461bcd60e51b8152602060048201818152835160248401528351909283926044909101919085019080838360008315610af2578181015183820152602001610ada565b506001600160a01b0382166000908152600d6020908152604091829020548251808401909352601b8352600080516020612d478339815191529183019190915260ff166112a25760405162461bcd60e51b8152602060048201818152835160248401528351909283926044909101919085019080838360008315610af2578181015183820152602001610ada565b506001600160a01b0382166000908152600e6020526040812054600f80549192916112ce906001612968565b815481106112d857fe5b600091825260209091200154600f80546001600160a01b03909216925082918490811061130157fe5b600091825260208083209190910180546001600160a01b0319166001600160a01b039485161790558383168252600e815260408083208690559287168252600d905220805460ff19169055600f805461135b906001612968565b8154811061136557fe5b600091825260209091200180546001600160a01b03191690555060019392505050565b601281565b60145460ff1681565b6004546001600160a01b031681565b600654600160a01b900460ff1681565b60408051808201909152601081526f4552525f5a45524f5f4144445245535360801b602082015260009084906001600160a01b0382166114365760405162461bcd60e51b8152602060048201818152835160248401528351909283926044909101919085019080838360008315610af2578181015183820152602001610ada565b50336000908152600c602090815260408083206001600160a01b038916845290915290205484146114a7576040805162461bcd60e51b815260206004820152601660248201527511549497d050d51253d397d393d517d0531313d5d15160521b604482015290519081900360640190fd5b336000818152600c602090815260408083206001600160a01b038a1680855290835292819020879055805187815290519293927f8c5be1e5ebec7d5bd14f71427d1e84f3dd0314c0f7b2291e5b200ac8c7c3b925929181900390910190a3506001949350505050565b600061151c338361297a565b92915050565b88516040805180820190915260118152704552525f56414c55455f49535f5a45524f60781b6020820152816115985760405162461bcd60e51b8152602060048201818152835160248401528351909283926044909101919085019080838360008315610af2578181015183820152602001610ada565b5088516040805180820190915260118152704552525f56414c55455f49535f5a45524f60781b60208201528161160f5760405162461bcd60e51b8152602060048201818152835160248401528351909283926044909101919085019080838360008315610af2578181015183820152602001610ada565b508460008111604051806040016040528060118152602001704552525f56414c55455f49535f5a45524f60781b8152509061168b5760405162461bcd60e51b8152602060048201818152835160248401528351909283926044909101919085019080838360008315610af2578181015183820152602001610ada565b5060408051808201909152601081526f4552525f5a45524f5f4144445245535360801b602082015287906001600160a01b03821661170a5760405162461bcd60e51b8152602060048201818152835160248401528351909283926044909101919085019080838360008315610af2578181015183820152602001610ada565b50611713611b84565b61171e8b8b8b611799565b5050600780546001600160a01b0319166001600160a01b0397909716969096179095555060109290925542601155601255601355505050505050565b60125481565b6001546001600160a01b031690565b6008546001600160a01b031681565b6001600160a01b03166000908152600b602052604090205490565b60408051808201909152601081526f4552525f5a45524f5f4144445245535360801b602082015283906001600160a01b0382166118175760405162461bcd60e51b8152602060048201818152835160248401528351909283926044909101919085019080838360008315610af2578181015183820152602001610ada565b5060408051808201909152601081526f4552525f5a45524f5f4144445245535360801b602082015283906001600160a01b0382166118965760405162461bcd60e51b8152602060048201818152835160248401528351909283926044909101919085019080838360008315610af2578181015183820152602001610ada565b5060408051808201909152601081526f4552525f5a45524f5f4144445245535360801b602082015283906001600160a01b0382166119155760405162461bcd60e51b8152602060048201818152835160248401528351909283926044909101919085019080838360008315610af2578181015183820152602001610ada565b50600654600160a01b900460ff1615611975576040805162461bcd60e51b815260206004820152601c60248201527f4552525f4f574e45525f494e5449414c495a45445f414c524541445900000000604482015290519081900360640190fd5b846001600160a01b0316866001600160a01b031614156040518060400160405280601081526020016f4552525f53414d455f4144445245535360801b81525090611a005760405162461bcd60e51b8152602060048201818152835160248401528351909283926044909101919085019080838360008315610af2578181015183820152602001610ada565b50836001600160a01b0316856001600160a01b031614156040518060400160405280601081526020016f4552525f53414d455f4144445245535360801b81525090611a8c5760405162461bcd60e51b8152602060048201818152835160248401528351909283926044909101919085019080838360008315610af2578181015183820152602001610ada565b50836001600160a01b0316866001600160a01b031614156040518060400160405280601081526020016f4552525f53414d455f4144445245535360801b81525090611b185760405162461bcd60e51b8152602060048201818152835160248401528351909283926044909101919085019080838360008315610af2578181015183820152602001610ada565b5050600380546001600160a01b039687166001600160a01b03199182161790915560068054600480549689169684169690961790955560ff60a01b199590961693169290921792909216600160a01b179092555050565b6007546001600160a01b031681565b60105481565b6000546001600160a01b03163314611be3576040805162461bcd60e51b815260206004820152601c60248201527f4552525f4f4e4c595f524547495354524552595f43414e5f43414c4c00000000604482015290519081900360640190fd5b565b600f8181548110611bf257fe5b6000918252602090912001546001600160a01b0316905081565b60115481565b6003546001600160a01b031681565b60045460408051808201909152601b8152600080516020612d4783398151915260208201526000916001600160a01b03163314611c9f5760405162461bcd60e51b8152602060048201818152835160248401528351909283926044909101919085019080838360008315610af2578181015183820152602001610ada565b5060408051808201909152601081526f4552525f5a45524f5f4144445245535360801b602082015282906001600160a01b038216611d1e5760405162461bcd60e51b8152602060048201818152835160248401528351909283926044909101919085019080838360008315610af2578181015183820152602001610ada565b506006546001600160a01b03848116911614801590611d4b57506004546001600160a01b03848116911614155b8015611d6557506003546001600160a01b03848116911614155b6040518060400160405280601081526020016f4552525f53414d455f4144445245535360801b81525090611dda5760405162461bcd60e51b8152602060048201818152835160248401528351909283926044909101919085019080838360008315610af2578181015183820152602001610ada565b50600580546001600160a01b0385166001600160a01b03199091161790556001915050919050565b600a805460408051602060026001851615610100026000190190941693909304601f81018490048402820184019092528181529291830182828015610e055780601f10610dda57610100808354040283529160200191610e05565b60135481565b336000908152600d60209081526040808320548151808301909252601b8252600080516020612d47833981519152928201929092529060ff16611ee75760405162461bcd60e51b8152602060048201818152835160248401528351909283926044909101919085019080838360008315610af2578181015183820152602001610ada565b5061151c3383612893565b60045460408051808201909152601b8152600080516020612d4783398151915260208201526000916001600160a01b03163314611f705760405162461bcd60e51b8152602060048201818152835160248401528351909283926044909101919085019080838360008315610af2578181015183820152602001610ada565b506001600160a01b0382166000908152600d6020908152604091829020548251808401909352601b8352600080516020612d478339815191529183019190915260ff1615611fff5760405162461bcd60e51b8152602060048201818152835160248401528351909283926044909101919085019080838360008315610af2578181015183820152602001610ada565b50506001600160a01b03166000818152600d60209081526040808320805460ff19166001908117909155600f8054600e909452918420839055828101825592527f8d1108e10bcb7c27dddfc02ed9d693a074039d026cf4ea4240b40f7d581ac8020180546001600160a01b03191690921790915590565b600e6020526000908152604090205481565b600061209433846124a4565b61209d57600080fd5b6120a78383612aa3565b9392505050565b60045460408051808201909152601b8152600080516020612d4783398151915260208201526000916001600160a01b0316331461212c5760405162461bcd60e51b8152602060048201818152835160248401528351909283926044909101919085019080838360008315610af2578181015183820152602001610ada565b5060408051808201909152601081526f4552525f5a45524f5f4144445245535360801b602082015282906001600160a01b0382166121ab5760405162461bcd60e51b8152602060048201818152835160248401528351909283926044909101919085019080838360008315610af2578181015183820152602001610ada565b505060078054600880546001600160a01b038084166001600160a01b03199283161790925590911693169290921790915550600190565b600080610f2c62015180601354612471565b60045460408051808201909152601b8152600080516020612d4783398151915260208201526000916001600160a01b031633146122725760405162461bcd60e51b8152602060048201818152835160248401528351909283926044909101919085019080838360008315610af2578181015183820152602001610ada565b5060408051808201909152601081526f4552525f5a45524f5f4144445245535360801b602082015282906001600160a01b0382166122f15760405162461bcd60e51b8152602060048201818152835160248401528351909283926044909101919085019080838360008315610af2578181015183820152602001610ada565b506006546001600160a01b0384811691161480159061231e57506004546001600160a01b03848116911614155b801561233857506003546001600160a01b03848116911614155b6040518060400160405280601081526020016f4552525f53414d455f4144445245535360801b815250906123ad5760405162461bcd60e51b8152602060048201818152835160248401528351909283926044909101919085019080838360008315610af2578181015183820152602001610ada565b50600354604080516020808252600d908201526c282924a6a0a92cafa7aba722a960991b8183015290516001600160a01b038087169316917f6840904f5b31827f74e1497360da245f56e530c8c3de3163a2d31f11493273c6919081900360600190a3600380546001600160a01b0385166001600160a01b03199091161790556001915050919050565b6006546001600160a01b031681565b6001600160a01b039182166000908152600c6020908152604080832093909416825291909152205490565b6000826124805750600061151c565b8282028284828161248d57fe5b04146120a757fe5b6000828201838110156120a757fe5b6000806124bd6915d212551157d31254d560b21b612bc4565b60408051636c7d308160e01b815233600482015290519192506001600160a01b03831691636c7d308191602480820192602092909190829003018186803b15801561250757600080fd5b505afa15801561251b573d6000803e3d6000fd5b505050506040513d602081101561253157600080fd5b50516126685760408051639e4d7ae560e01b81526001600160a01b0386811660048301528581166024830152915191831691639e4d7ae591604480820192602092909190829003018186803b15801561258957600080fd5b505afa15801561259d573d6000803e3d6000fd5b505050506040513d60208110156125b357600080fd5b5051612606576040805162461bcd60e51b815260206004820152601c60248201527f4552525f5452414e534645525f434845434b5f57484954454c49535400000000604482015290519081900360640190fd5b61260e610f06565b15801561261e575061261e6121e2565b612668576040805162461bcd60e51b815260206004820152601660248201527511549497d050d51253d397d393d517d0531313d5d15160521b604482015290519081900360640190fd5b5060019392505050565b6040805180820190915260198152784552525f434f4e54524143545f53454c465f4144445245535360381b602082015260009083906001600160a01b0382163014156126ff5760405162461bcd60e51b8152602060048201818152835160248401528351909283926044909101919085019080838360008315610af2578181015183820152602001610ada565b5060408051808201909152601081526f4552525f5a45524f5f4144445245535360801b602082015284906001600160a01b03821661277e5760405162461bcd60e51b8152602060048201818152835160248401528351909283926044909101919085019080838360008315610af2578181015183820152602001610ada565b506001600160a01b0386166000908152600c602090815260408083203384529091529020548411156127f0576040805162461bcd60e51b81526020600482015260166024820152754552525f4e4f545f454e4f5547485f42414c414e434560501b604482015290519081900360640190fd5b6127fb868686612c42565b61280457600080fd5b6001600160a01b0386166000908152600c602090815260408083203384529091529020546128329085612968565b6001600160a01b038088166000818152600c602090815260408083203380855292528083209590955593519289169391927f7d5ad68155582ceeebcef916386e9f0eb9f7a2dce10a880ced4d0d5d782317949190a450600195945050505050565b6001600160a01b0382166000908152600b60205260408120546128b69083612495565b6001600160a01b0384166000908152600b60205260409020556002546128dc9083612495565b6002556040805183815290516001600160a01b038516917f0f6798a560793a54c3bcfe86a93cde1e73087d944c0ea20544137d4121396885919081900360200190a26040805183815290516001600160a01b038516916000917fddf252ad1be2c89b69c2b068fc378daa952ba7f163c4a11628f55a4df523b3ef9181900360200190a350600192915050565b60008282111561297457fe5b50900390565b6001600160a01b0382166000908152600b6020526040812054828110156129e1576040805162461bcd60e51b81526020600482015260166024820152754552525f4e4f545f454e4f5547485f42414c414e434560501b604482015290519081900360640190fd5b6129eb8184612968565b6001600160a01b0385166000908152600b60205260409020819055600254909150612a169084612968565b6002556040805184815290516001600160a01b038616917fcc16f5dbb4873280815c1ee09dbd06736cffcc184412cf7a71a0fdb75d397ca5919081900360200190a26040805184815290516000916001600160a01b038716917fddf252ad1be2c89b69c2b068fc378daa952ba7f163c4a11628f55a4df523b3ef9181900360200190a35060019392505050565b6040805180820190915260198152784552525f434f4e54524143545f53454c465f4144445245535360381b602082015260009083906001600160a01b038216301415612b305760405162461bcd60e51b8152602060048201818152835160248401528351909283926044909101919085019080838360008315610af2578181015183820152602001610ada565b5060408051808201909152601081526f4552525f5a45524f5f4144445245535360801b602082015284906001600160a01b038216612baf5760405162461bcd60e51b8152602060048201818152835160248401528351909283926044909101919085019080838360008315610af2578181015183820152602001610ada565b50612bbb338686612c42565b95945050505050565b60075460408051637d4367ab60e11b81526004810184905290516000926001600160a01b03169163fa86cf56916024808301926020929190829003018186803b158015612c1057600080fd5b505afa158015612c24573d6000803e3d6000fd5b505050506040513d6020811015612c3a57600080fd5b505192915050565b6001600160a01b0383166000908152600b602052604081205482811015612ca9576040805162461bcd60e51b81526020600482015260166024820152754552525f4e4f545f454e4f5547485f42414c414e434560501b604482015290519081900360640190fd5b612cb38184612968565b6001600160a01b038087166000908152600b602052604080822084905591871681522054909150612ce49084612495565b6001600160a01b038086166000818152600b602090815260409182902094909455805187815290519193928916927fddf252ad1be2c89b69c2b068fc378daa952ba7f163c4a11628f55a4df523b3ef92918290030190a350600194935050505056fe4552525f415554484f52495a45445f414444524553535f4f4e4c590000000000a265627a7a72305820a27123060b9d42f051d9c9bce14081cd22ef1ea000b1995cf661217b63bb81ad64736f6c63430005090032",
  "source": "pragma solidity ^0.5.9;\n\nimport \"../Proxy/Upgradeable.sol\";\nimport \"../InterFaces/IWhiteList.sol\";\nimport \"./SuperTokenUtils.sol\";\n\ninterface InitializeInterface {\n    function initialize(\n        string calldata _name,\n        string calldata _symbol,\n        address _primaryOwner,\n        address _systemAddress,\n        address _authorityAddress,\n        address _registeryAddress,\n        uint256 _tokenPrice,\n        uint256 _tokenMaturityDays,\n        uint256 _tokenHoldBackDays\n    ) external;\n    \n    function premint(address[] calldata _which,uint256[] calldata _amount) external;\n}\n\n\n\ncontract SuperToken is Upgradeable, SuperTokenUtils, InitializeInterface {\n    \n    bool public preminted;\n    \n     function initialize(\n        string memory _name,\n        string memory _symbol,\n        address _primaryOwner,\n        address _systemAddress,\n        address _authorityAddress,\n        address _registeryAddress,\n        uint256 _tokenPrice,\n        uint256 _tokenMaturityDays,\n        uint256 _tokenHoldBackDays\n        ) public \n        notZeroValue(bytes(_name).length) \n        notZeroValue(bytes(_symbol).length)\n        notZeroValue(_tokenPrice)\n        notZeroAddress(_registeryAddress)\n        {\n        \n            super.initialize();\n            ProxyOwnable.initializeOwner(_primaryOwner,_systemAddress,_authorityAddress);\n            registry = IAuctionRegistery(_registeryAddress);\n            tokenPrice = _tokenPrice;\n            tokenSaleStartDate = now;\n            tokenMaturityDays = _tokenMaturityDays;\n            tokenHoldBackDays = _tokenHoldBackDays;\n        \n        }\n    \n    function premint(address[] calldata _which,uint256[] calldata _amount) external{\n        require(_which.length == _amount.length,\"ERR_NOT_SAME_LENGHT\");\n        require(preminted == false,\"ERR_ALREADY_PREMINTED\");\n        for(uint256 tempX=0 ; tempX < _which.length ; tempX++){\n            _mint(_which[tempX],_amount[tempX]);\n        }\n        preminted = true;\n    }\n    \n    \n    function checkBeforeTransfer(address _from, address _to)\n        internal\n        view\n        returns (bool)\n    {\n        \n        address whiteListAddress = getAddressOf(WHITE_LIST);\n        if (IWhiteList(whiteListAddress).isAddressByPassed(msg.sender) == false) {\n            require(IWhiteList(whiteListAddress).checkBeforeTransfer(_from, _to),\"ERR_TRANSFER_CHECK_WHITELIST\");\n            require(!isTokenMature() && isHoldbackDaysOver(),\"ERR_ACTION_NOT_ALLOWED\");\n        }\n        return true;\n    \n    }\n    \n    function transfer(address _to, uint256 _value) public returns (bool ok) {\n        require(checkBeforeTransfer(msg.sender, _to));\n        return super.transfer(_to, _value);\n    }\n\n    function transferFrom(address _from, address _to, uint256 _value)\n        public\n        returns (bool)\n    {\n        require(checkBeforeTransfer(_from, _to));\n        return super.transferFrom(_from, _to, _value);\n    }\n    \n    function() external payable {\n        revert();\n    }\n    \n}",
  "sourcePath": "/home/mind/Work/Projects/Jointer/Jointer_auction/NewContracts/contracts/Tokens/SuperTokens.sol",
  "compiler": {
    "name": "solc",
    "version": "0.5.9+commit.e560f70d.Emscripten.clang"
  },
  "schemaVersion": "3.0.16",
  "updatedAt": "2020-04-22T14:52:56.494Z",
  "devdoc": {
    "methods": {
      "allowance(address,address)": {
        "details": "to check allowed token for transferFrom",
        "params": {
          "_owner": "The address of the account owning tokens",
          "_spender": "The address of the account able to transfer the tokens"
        },
        "return": "Amount of remaining tokens allowed to spent"
      },
      "approve(address,uint256)": {
        "details": "`msg.sender` approves `spender` to spend `value` tokens",
        "params": {
          "_spender": "The address of the account able to transfer the tokens",
          "_value": "The amount of wei to be approved for transfer"
        },
        "return": "Whether the approval was successful or not"
      },
      "approve(address,uint256,uint256)": {
        "details": "`msg.sender` approves `spender` to spend `value` tokensalthough all Dpp work with two argument approve method but we provide this method to ensure user from double spend",
        "params": {
          "_currentValue": "the amount user already apporved",
          "_spender": "The address of the account able to transfer the tokens",
          "_value": "The amount of wei to be approved for transfer"
        },
        "return": "Whether the approval was successful or not"
      },
      "balanceOf(address)": {
        "details": "Gets the balance of the specified address.",
        "params": {
          "_who": "The address to query the the balance of."
        },
        "return": "An uint256 representing the amount owned by the passed address."
      },
      "burn(uint256)": {
        "details": "burn token from this address",
        "params": {
          "_value": "uint256 the amount of tokens to be burned"
        }
      },
      "changeAuthorityAddress(address)": {
        "details": "change system address",
        "params": {
          "_which": "The address to which is new Authority address"
        }
      },
      "changePrimaryOwner(address)": {
        "details": "change primary ownership",
        "params": {
          "_which": "The address to which is new owner address"
        }
      },
      "changeSystemAddress(address)": {
        "details": "change system address",
        "params": {
          "_which": "The address to which is new system address"
        }
      },
      "implementation()": {
        "details": "Tells the address of the current implementation",
        "return": "address of the current implementation"
      },
      "initialize()": {
        "details": "Validates the caller is the versions registry. THIS FUNCTION SHOULD BE OVERRIDDEN CALLING SUPER"
      },
      "initializeOwner(address,address,address)": {
        "details": "The Ownable constructor sets the `primaryOwner` and `systemAddress` and '_multisigAddress' account."
      }
    }
  },
  "userdoc": {
    "methods": {}
  }
}