{
  "contractName": "Token",
  "abi": [
    {
      "constant": false,
      "inputs": [
        {
          "name": "_which",
          "type": "address"
        }
      ],
      "name": "changeSystemAddress",
      "outputs": [
        {
          "name": "",
          "type": "bool"
        }
      ],
      "payable": false,
      "stateMutability": "nonpayable",
      "type": "function"
    },
    {
      "constant": true,
      "inputs": [],
      "name": "name",
      "outputs": [
        {
          "name": "",
          "type": "string"
        }
      ],
      "payable": false,
      "stateMutability": "view",
      "type": "function"
    },
    {
      "constant": false,
      "inputs": [
        {
          "name": "_fromToken",
          "type": "address"
        },
        {
          "name": "_amount",
          "type": "uint256"
        }
      ],
      "name": "buyTokens",
      "outputs": [
        {
          "name": "",
          "type": "bool"
        }
      ],
      "payable": false,
      "stateMutability": "nonpayable",
      "type": "function"
    },
    {
      "constant": false,
      "inputs": [
        {
          "name": "_spender",
          "type": "address"
        },
        {
          "name": "_value",
          "type": "uint256"
        }
      ],
      "name": "approve",
      "outputs": [
        {
          "name": "ok",
          "type": "bool"
        }
      ],
      "payable": false,
      "stateMutability": "nonpayable",
      "type": "function"
    },
    {
      "constant": true,
      "inputs": [],
      "name": "newAuthorityAddress",
      "outputs": [
        {
          "name": "",
          "type": "address"
        }
      ],
      "payable": false,
      "stateMutability": "view",
      "type": "function"
    },
    {
      "constant": false,
      "inputs": [
        {
          "name": "_which",
          "type": "address"
        }
      ],
      "name": "setReturnToken",
      "outputs": [
        {
          "name": "",
          "type": "bool"
        }
      ],
      "payable": false,
      "stateMutability": "nonpayable",
      "type": "function"
    },
    {
      "constant": true,
      "inputs": [],
      "name": "isTokenMature",
      "outputs": [
        {
          "name": "",
          "type": "bool"
        }
      ],
      "payable": false,
      "stateMutability": "view",
      "type": "function"
    },
    {
      "constant": true,
      "inputs": [],
      "name": "totalSupply",
      "outputs": [
        {
          "name": "",
          "type": "uint256"
        }
      ],
      "payable": false,
      "stateMutability": "view",
      "type": "function"
    },
    {
      "constant": false,
      "inputs": [],
      "name": "acceptAuthorityAddress",
      "outputs": [
        {
          "name": "",
          "type": "bool"
        }
      ],
      "payable": false,
      "stateMutability": "nonpayable",
      "type": "function"
    },
    {
      "constant": true,
      "inputs": [],
      "name": "returnToken",
      "outputs": [
        {
          "name": "",
          "type": "address"
        }
      ],
      "payable": false,
      "stateMutability": "view",
      "type": "function"
    },
    {
      "constant": true,
      "inputs": [],
      "name": "decimals",
      "outputs": [
        {
          "name": "",
          "type": "uint256"
        }
      ],
      "payable": false,
      "stateMutability": "view",
      "type": "function"
    },
    {
      "constant": true,
      "inputs": [],
      "name": "authorityAddress",
      "outputs": [
        {
          "name": "",
          "type": "address"
        }
      ],
      "payable": false,
      "stateMutability": "view",
      "type": "function"
    },
    {
      "constant": false,
      "inputs": [
        {
          "name": "_which",
          "type": "address"
        }
      ],
      "name": "addAllowedToken",
      "outputs": [
        {
          "name": "",
          "type": "bool"
        }
      ],
      "payable": false,
      "stateMutability": "nonpayable",
      "type": "function"
    },
    {
      "constant": false,
      "inputs": [
        {
          "name": "_spender",
          "type": "address"
        },
        {
          "name": "_currentValue",
          "type": "uint256"
        },
        {
          "name": "_value",
          "type": "uint256"
        }
      ],
      "name": "approve",
      "outputs": [
        {
          "name": "ok",
          "type": "bool"
        }
      ],
      "payable": false,
      "stateMutability": "nonpayable",
      "type": "function"
    },
    {
      "constant": false,
      "inputs": [
        {
          "name": "_value",
          "type": "uint256"
        }
      ],
      "name": "burn",
      "outputs": [
        {
          "name": "",
          "type": "bool"
        }
      ],
      "payable": false,
      "stateMutability": "nonpayable",
      "type": "function"
    },
    {
      "constant": true,
      "inputs": [],
      "name": "tokenMaturityDays",
      "outputs": [
        {
          "name": "",
          "type": "uint256"
        }
      ],
      "payable": false,
      "stateMutability": "view",
      "type": "function"
    },
    {
      "constant": true,
      "inputs": [
        {
          "name": "",
          "type": "uint256"
        }
      ],
      "name": "allowedTokens",
      "outputs": [
        {
          "name": "",
          "type": "address"
        }
      ],
      "payable": false,
      "stateMutability": "view",
      "type": "function"
    },
    {
      "constant": true,
      "inputs": [
        {
          "name": "_who",
          "type": "address"
        }
      ],
      "name": "balanceOf",
      "outputs": [
        {
          "name": "balance",
          "type": "uint256"
        }
      ],
      "payable": false,
      "stateMutability": "view",
      "type": "function"
    },
    {
      "constant": true,
      "inputs": [],
      "name": "tokenPrice",
      "outputs": [
        {
          "name": "",
          "type": "uint256"
        }
      ],
      "payable": false,
      "stateMutability": "view",
      "type": "function"
    },
    {
      "constant": true,
      "inputs": [
        {
          "name": "",
          "type": "address"
        }
      ],
      "name": "allowedTokensIndex",
      "outputs": [
        {
          "name": "",
          "type": "uint256"
        }
      ],
      "payable": false,
      "stateMutability": "view",
      "type": "function"
    },
    {
      "constant": true,
      "inputs": [],
      "name": "tokenSaleStartDate",
      "outputs": [
        {
          "name": "",
          "type": "uint256"
        }
      ],
      "payable": false,
      "stateMutability": "view",
      "type": "function"
    },
    {
      "constant": true,
      "inputs": [],
      "name": "primaryOwner",
      "outputs": [
        {
          "name": "",
          "type": "address"
        }
      ],
      "payable": false,
      "stateMutability": "view",
      "type": "function"
    },
    {
      "constant": false,
      "inputs": [
        {
          "name": "_which",
          "type": "address"
        }
      ],
      "name": "changeAuthorityAddress",
      "outputs": [
        {
          "name": "",
          "type": "bool"
        }
      ],
      "payable": false,
      "stateMutability": "nonpayable",
      "type": "function"
    },
    {
      "constant": true,
      "inputs": [],
      "name": "symbol",
      "outputs": [
        {
          "name": "",
          "type": "string"
        }
      ],
      "payable": false,
      "stateMutability": "view",
      "type": "function"
    },
    {
      "constant": true,
      "inputs": [],
      "name": "tokenHoldBackDays",
      "outputs": [
        {
          "name": "",
          "type": "uint256"
        }
      ],
      "payable": false,
      "stateMutability": "view",
      "type": "function"
    },
    {
      "constant": false,
      "inputs": [
        {
          "name": "_toToken",
          "type": "address"
        },
        {
          "name": "_amount",
          "type": "uint256"
        }
      ],
      "name": "swapTokens",
      "outputs": [
        {
          "name": "",
          "type": "bool"
        }
      ],
      "payable": false,
      "stateMutability": "nonpayable",
      "type": "function"
    },
    {
      "constant": false,
      "inputs": [
        {
          "name": "_address",
          "type": "address"
        }
      ],
      "name": "updateRegistery",
      "outputs": [
        {
          "name": "",
          "type": "bool"
        }
      ],
      "payable": false,
      "stateMutability": "nonpayable",
      "type": "function"
    },
    {
      "constant": true,
      "inputs": [],
      "name": "isHoldbackDaysOver",
      "outputs": [
        {
          "name": "",
          "type": "bool"
        }
      ],
      "payable": false,
      "stateMutability": "view",
      "type": "function"
    },
    {
      "constant": false,
      "inputs": [
        {
          "name": "_which",
          "type": "address"
        }
      ],
      "name": "changePrimaryOwner",
      "outputs": [
        {
          "name": "",
          "type": "bool"
        }
      ],
      "payable": false,
      "stateMutability": "nonpayable",
      "type": "function"
    },
    {
      "constant": true,
      "inputs": [],
      "name": "systemAddress",
      "outputs": [
        {
          "name": "",
          "type": "address"
        }
      ],
      "payable": false,
      "stateMutability": "view",
      "type": "function"
    },
    {
      "constant": false,
      "inputs": [
        {
          "name": "_which",
          "type": "address"
        },
        {
          "name": "_amount",
          "type": "uint256"
        }
      ],
      "name": "forceSwap",
      "outputs": [
        {
          "name": "",
          "type": "bool"
        }
      ],
      "payable": false,
      "stateMutability": "nonpayable",
      "type": "function"
    },
    {
      "constant": true,
      "inputs": [],
      "name": "contractsRegistry",
      "outputs": [
        {
          "name": "",
          "type": "address"
        }
      ],
      "payable": false,
      "stateMutability": "view",
      "type": "function"
    },
    {
      "constant": true,
      "inputs": [
        {
          "name": "_owner",
          "type": "address"
        },
        {
          "name": "_spender",
          "type": "address"
        }
      ],
      "name": "allowance",
      "outputs": [
        {
          "name": "",
          "type": "uint256"
        }
      ],
      "payable": false,
      "stateMutability": "view",
      "type": "function"
    },
    {
      "inputs": [
        {
          "name": "_name",
          "type": "string"
        },
        {
          "name": "_symbol",
          "type": "string"
        },
        {
          "name": "_systemAddress",
          "type": "address"
        },
        {
          "name": "_authorityAddress",
          "type": "address"
        },
        {
          "name": "_registeryAddress",
          "type": "address"
        },
        {
          "name": "_tokenPrice",
          "type": "uint256"
        },
        {
          "name": "_tokenMaturityDays",
          "type": "uint256"
        },
        {
          "name": "_tokenHoldBackDays",
          "type": "uint256"
        },
        {
          "name": "_returnToken",
          "type": "address"
        }
      ],
      "payable": false,
      "stateMutability": "nonpayable",
      "type": "constructor"
    },
    {
      "payable": true,
      "stateMutability": "payable",
      "type": "fallback"
    },
    {
      "anonymous": false,
      "inputs": [
        {
          "indexed": true,
          "name": "_to",
          "type": "address"
        },
        {
          "indexed": false,
          "name": "value",
          "type": "uint256"
        }
      ],
      "name": "Mint",
      "type": "event"
    },
    {
      "anonymous": false,
      "inputs": [
        {
          "indexed": true,
          "name": "from",
          "type": "address"
        },
        {
          "indexed": false,
          "name": "value",
          "type": "uint256"
        }
      ],
      "name": "Burn",
      "type": "event"
    },
    {
      "anonymous": false,
      "inputs": [
        {
          "indexed": true,
          "name": "spender",
          "type": "address"
        },
        {
          "indexed": true,
          "name": "_from",
          "type": "address"
        },
        {
          "indexed": true,
          "name": "_to",
          "type": "address"
        }
      ],
      "name": "TransferFrom",
      "type": "event"
    },
    {
      "anonymous": false,
      "inputs": [
        {
          "indexed": false,
          "name": "ownerType",
          "type": "string"
        },
        {
          "indexed": true,
          "name": "previousOwner",
          "type": "address"
        },
        {
          "indexed": true,
          "name": "newOwner",
          "type": "address"
        }
      ],
      "name": "OwnershipTransferred",
      "type": "event"
    },
    {
      "anonymous": false,
      "inputs": [
        {
          "indexed": true,
          "name": "previousOwner",
          "type": "address"
        },
        {
          "indexed": true,
          "name": "newOwner",
          "type": "address"
        }
      ],
      "name": "AuthorityAddressChnageCall",
      "type": "event"
    },
    {
      "anonymous": false,
      "inputs": [
        {
          "indexed": true,
          "name": "from",
          "type": "address"
        },
        {
          "indexed": true,
          "name": "to",
          "type": "address"
        },
        {
          "indexed": false,
          "name": "value",
          "type": "uint256"
        }
      ],
      "name": "Transfer",
      "type": "event"
    },
    {
      "anonymous": false,
      "inputs": [
        {
          "indexed": true,
          "name": "owner",
          "type": "address"
        },
        {
          "indexed": true,
          "name": "spender",
          "type": "address"
        },
        {
          "indexed": false,
          "name": "value",
          "type": "uint256"
        }
      ],
      "name": "Approval",
      "type": "event"
    },
    {
      "constant": false,
      "inputs": [
        {
          "name": "_to",
          "type": "address"
        },
        {
          "name": "_value",
          "type": "uint256"
        }
      ],
      "name": "transfer",
      "outputs": [
        {
          "name": "ok",
          "type": "bool"
        }
      ],
      "payable": false,
      "stateMutability": "nonpayable",
      "type": "function"
    },
    {
      "constant": false,
      "inputs": [
        {
          "name": "_from",
          "type": "address"
        },
        {
          "name": "_to",
          "type": "address"
        },
        {
          "name": "_value",
          "type": "uint256"
        }
      ],
      "name": "transferFrom",
      "outputs": [
        {
          "name": "",
          "type": "bool"
        }
      ],
      "payable": false,
      "stateMutability": "nonpayable",
      "type": "function"
    }
  ],
  "bytecode": "0x6080604052600180546001600160a01b0319908116909155600280548216905560038054821690556004805490911690553480156200003d57600080fd5b50604051620033113803806200331183398181016040526101208110156200006457600080fd5b8101908080516401000000008111156200007d57600080fd5b820160208101848111156200009157600080fd5b8151640100000000811182820187101715620000ac57600080fd5b50509291906020018051640100000000811115620000c957600080fd5b82016020810184811115620000dd57600080fd5b8151640100000000811182820187101715620000f857600080fd5b50506020808301516040808501516060860151608087015160a088015160c089015160e0909901518551808701909652601086527f4552525f5a45524f5f41444452455353000000000000000000000000000000009786019790975296995093975090959094929390918190819087908790879087908f908f908f908f908290829082906001600160a01b0382166200022c576040517f08c379a00000000000000000000000000000000000000000000000000000000081526004018080602001828103825283818151815260200191508051906020019080838360005b83811015620001f0578181015183820152602001620001d6565b50505050905090810190601f1680156200021e5780820380516001836020036101000a031916815260200191505b509250505060405180910390fd5b5060408051808201909152601081527f4552525f53414d455f41444452455353000000000000000000000000000000006020820152336001600160a01b0385161415620002d6576040517f08c379a0000000000000000000000000000000000000000000000000000000008152602060048201818152835160248401528351909283926044909101919085019080838360008315620001f0578181015183820152602001620001d6565b50816001600160a01b0316836001600160a01b031614156040518060400160405280601081526020017f4552525f53414d455f4144445245535300000000000000000000000000000000815250906200038c576040517f08c379a0000000000000000000000000000000000000000000000000000000008152602060048201818152835160248401528351909283926044909101919085019080838360008315620001f0578181015183820152602001620001d6565b5060408051808201909152601081527f4552525f53414d455f41444452455353000000000000000000000000000000006020820152336001600160a01b038416141562000436576040517f08c379a0000000000000000000000000000000000000000000000000000000008152602060048201818152835160248401528351909283926044909101919085019080838360008315620001f0578181015183820152602001620001d6565b5050600180546001600160a01b03199081163317909155600380546001600160a01b039485169083161790556002805492909316911617905583511580159062000481575060008351115b6200048b57600080fd5b8351620004a0906005906020870190620008f0565b508251620004b6906006906020860190620008f0565b505050505082600081116040518060400160405280601181526020017f4552525f56414c55455f49535f5a45524f000000000000000000000000000000815250906200055f576040517f08c379a0000000000000000000000000000000000000000000000000000000008152602060048201818152835160248401528351909283926044909101919085019080838360008315620001f0578181015183820152602001620001d6565b505042600a55600992909255600b55600c5560408051808201909152601081527f4552525f5a45524f5f4144445245535300000000000000000000000000000000602082015281906001600160a01b03821662000619576040517f08c379a0000000000000000000000000000000000000000000000000000000008152602060048201818152835160248401528351909283926044909101919085019080838360008315620001f0578181015183820152602001620001d6565b5050600d80546001600160a01b0319166001600160a01b0392831617905560408051808201909152601081527f4552525f5a45524f5f4144445245535300000000000000000000000000000000602082015282918216620006d7576040517f08c379a0000000000000000000000000000000000000000000000000000000008152602060048201818152835160248401528351909283926044909101919085019080838360008315620001f0578181015183820152602001620001d6565b5050600e80546001600160a01b0319166001600160a01b0392831617905560408051808201909152601081527f4552525f5a45524f5f414444524553530000000000000000000000000000000060208201528291821662000795576040517f08c379a0000000000000000000000000000000000000000000000000000000008152602060048201818152835160248401528351909283926044909101919085019080838360008315620001f0578181015183820152602001620001d6565b50620007aa826001600160e01b03620007bc16565b50505050505050505050505062000995565b6001600160a01b0381166000908152600f60209081526040808320548151808301909252601b82527f4552525f415554484f52495a45445f414444524553535f4f4e4c590000000000928201929092529060ff161562000879576040517f08c379a0000000000000000000000000000000000000000000000000000000008152602060048201818152835160248401528351909283926044909101919085019080838360008315620001f0578181015183820152602001620001d6565b50506001600160a01b03166000818152600f60209081526040808320805460ff19166001908117909155601180546010909452918420839055828101825592527f31ecc21a745e3968a04e9570e4425bc18fa8019c68028196b546d1669c200c680180546001600160a01b03191690921790915590565b828054600181600116156101000203166002900490600052602060002090601f016020900481019282601f106200093357805160ff191683800117855562000963565b8280016001018555821562000963579182015b828111156200096357825182559160200191906001019062000946565b506200097192915062000975565b5090565b6200099291905b808211156200097157600081556001016200097c565b90565b61296c80620009a56000396000f3fe6080604052600436106102045760003560e01c80635e5f2e2611610118578063a114398d116100a0578063c4d342681161006f578063c4d342681461071a578063d3e848f11461074d578063d532d68614610762578063d98d0c7e1461079b578063dd62ed3e146107b057610204565b8063a114398d14610660578063a9059cbb14610699578063bc1366fe146106d2578063c4b01ebf1461070557610204565b80638dcab187116100e75780638dcab187146105d95780638e10be33146105ee5780638f51368b1461060357806395d89b41146106365780639668d13e1461064b57610204565b80635e5f2e261461053457806370a082311461055e5780637ff9b596146105915780638b7e511c146105a657610204565b806320c462fe1161019b5780633c695d4e1161016a5780633c695d4e1461046e5780634178617f14610483578063426a8493146104b657806342966c68146104f557806353ecc7721461051f57610204565b806320c462fe146103ec57806323b872dd146104015780632e4a365714610444578063313ce5671461045957610204565b80630abaad7a116101d75780630abaad7a1461034c5780630dcd3d131461037d57806317ebc35f146103b057806318160ddd146103c557610204565b806304d630891461020957806306fdde03146102505780630752881a146102da578063095ea7b314610313575b600080fd5b34801561021557600080fd5b5061023c6004803603602081101561022c57600080fd5b50356001600160a01b03166107eb565b604080519115158252519081900360200190f35b34801561025c57600080fd5b50610265610af8565b6040805160208082528351818301528351919283929083019185019080838360005b8381101561029f578181015183820152602001610287565b50505050905090810190601f1680156102cc5780820380516001836020036101000a031916815260200191505b509250505060405180910390f35b3480156102e657600080fd5b5061023c600480360360408110156102fd57600080fd5b506001600160a01b038135169060200135610b86565b34801561031f57600080fd5b5061023c6004803603604081101561033657600080fd5b506001600160a01b038135169060200135610ded565b34801561035857600080fd5b50610361610ed7565b604080516001600160a01b039092168252519081900360200190f35b34801561038957600080fd5b5061023c600480360360208110156103a057600080fd5b50356001600160a01b0316610ee6565b3480156103bc57600080fd5b5061023c610fe0565b3480156103d157600080fd5b506103da611034565b60408051918252519081900360200190f35b3480156103f857600080fd5b5061023c61103a565b34801561040d57600080fd5b5061023c6004803603606081101561042457600080fd5b506001600160a01b0381358116916020810135909116906040013561114f565b34801561045057600080fd5b50610361611177565b34801561046557600080fd5b506103da611186565b34801561047a57600080fd5b5061036161118b565b34801561048f57600080fd5b5061023c600480360360208110156104a657600080fd5b50356001600160a01b031661119a565b3480156104c257600080fd5b5061023c600480360360608110156104d957600080fd5b506001600160a01b038135169060208101359060400135611228565b34801561050157600080fd5b5061023c6004803603602081101561051857600080fd5b5035611383565b34801561052b57600080fd5b506103da61138f565b34801561054057600080fd5b506103616004803603602081101561055757600080fd5b5035611395565b34801561056a57600080fd5b506103da6004803603602081101561058157600080fd5b50356001600160a01b03166113bc565b34801561059d57600080fd5b506103da6113d7565b3480156105b257600080fd5b506103da600480360360208110156105c957600080fd5b50356001600160a01b03166113dd565b3480156105e557600080fd5b506103da6113ef565b3480156105fa57600080fd5b506103616113f5565b34801561060f57600080fd5b5061023c6004803603602081101561062657600080fd5b50356001600160a01b0316611404565b34801561064257600080fd5b506102656115e5565b34801561065757600080fd5b506103da611640565b34801561066c57600080fd5b5061023c6004803603604081101561068357600080fd5b506001600160a01b038135169060200135611646565b3480156106a557600080fd5b5061023c600480360360408110156106bc57600080fd5b506001600160a01b038135169060200135611892565b3480156106de57600080fd5b5061023c600480360360208110156106f557600080fd5b50356001600160a01b03166118b8565b34801561071157600080fd5b5061023c6119dd565b34801561072657600080fd5b5061023c6004803603602081101561073d57600080fd5b50356001600160a01b03166119ef565b34801561075957600080fd5b50610361611c30565b34801561076e57600080fd5b5061023c6004803603604081101561078557600080fd5b506001600160a01b038135169060200135611c3f565b3480156107a757600080fd5b50610361611eef565b3480156107bc57600080fd5b506103da600480360360408110156107d357600080fd5b506001600160a01b0381358116916020013516611efe565b60025460408051808201909152601b815260008051602061291883398151915260208201526000916001600160a01b031633146108a65760405162461bcd60e51b81526004018080602001828103825283818151815260200191508051906020019080838360005b8381101561086b578181015183820152602001610853565b50505050905090810190601f1680156108985780820380516001836020036101000a031916815260200191505b509250505060405180910390fd5b506040805180820190915260198152784552525f434f4e54524143545f53454c465f4144445245535360381b602082015282906001600160a01b0382163014156109315760405162461bcd60e51b815260206004820181815283516024840152835190928392604490910191908501908083836000831561086b578181015183820152602001610853565b5060408051808201909152601081526f4552525f5a45524f5f4144445245535360801b602082015283906001600160a01b0382166109b05760405162461bcd60e51b815260206004820181815283516024840152835190928392604490910191908501908083836000831561086b578181015183820152602001610853565b506003546001600160a01b038581169116148015906109dd57506002546001600160a01b03858116911614155b80156109f757506001546001600160a01b03858116911614155b6040518060400160405280601081526020016f4552525f53414d455f4144445245535360801b81525090610a6c5760405162461bcd60e51b815260206004820181815283516024840152835190928392604490910191908501908083836000831561086b578181015183820152602001610853565b50600354604080516020808252600e908201526d53595354454d5f4144445245535360901b8183015290516001600160a01b038088169316917f6840904f5b31827f74e1497360da245f56e530c8c3de3163a2d31f11493273c6919081900360600190a3600380546001600160a01b0386166001600160a01b0319909116179055600192505050919050565b6005805460408051602060026001851615610100026000190190941693909304601f81018490048402820184019092528181529291830182828015610b7e5780601f10610b5357610100808354040283529160200191610b7e565b820191906000526020600020905b815481529060010190602001808311610b6157829003601f168201915b505050505081565b6001600160a01b0382166000908152600f6020526040812054839060ff16610bf0576040805162461bcd60e51b815260206004820152601860248201527711549497d513d2d15397d254d7d393d517d25397d31254d560421b604482015290519081900360640190fd5b6000610c066743555252454e435960c01b611f29565b90506000816001600160a01b0316637058346f876040518263ffffffff1660e01b815260040180826001600160a01b03166001600160a01b03168152602001915050602060405180830381600087803b158015610c6257600080fd5b505af1158015610c76573d6000803e3d6000fd5b505050506040513d6020811015610c8c57600080fd5b505160408051637058346f60e01b815230600482015290519192506000916001600160a01b03851691637058346f91602480830192602092919082900301818787803b158015610cdb57600080fd5b505af1158015610cef573d6000803e3d6000fd5b505050506040513d6020811015610d0557600080fd5b505190506000610d1e610d188885611fa7565b83611fcb565b9050876001600160a01b03166323b872dd33610d4164159055531560da1b611f29565b8a6040518463ffffffff1660e01b815260040180846001600160a01b03166001600160a01b03168152602001836001600160a01b03166001600160a01b031681526020018281526020019350505050602060405180830381600087803b158015610daa57600080fd5b505af1158015610dbe573d6000803e3d6000fd5b505050506040513d6020811015610dd457600080fd5b50610de190503382611fe0565b98975050505050505050565b60408051808201909152601081526f4552525f5a45524f5f4144445245535360801b602082015260009083906001600160a01b038216610e6e5760405162461bcd60e51b815260206004820181815283516024840152835190928392604490910191908501908083836000831561086b578181015183820152602001610853565b503360008181526008602090815260408083206001600160a01b03891680855290835292819020879055805187815290519293927f8c5be1e5ebec7d5bd14f71427d1e84f3dd0314c0f7b2291e5b200ac8c7c3b925929181900390910190a35060019392505050565b6004546001600160a01b031681565b60035460408051808201909152601b815260008051602061291883398151915260208201526000916001600160a01b03163314610f645760405162461bcd60e51b815260206004820181815283516024840152835190928392604490910191908501908083836000831561086b578181015183820152602001610853565b50600e546001600160a01b031615610fbc576040805162461bcd60e51b815260206004820152601660248201527511549497d050d51253d397d393d517d0531313d5d15160521b604482015290519081900360640190fd5b600e80546001600160a01b0319166001600160a01b03939093169290921790915590565b6000600b5460001415610ff557506000611031565b600061100662015180600b54611fa7565b9050600061101682600a546120b6565b905080421061102a57600192505050611031565b6000925050505b90565b60005481565b60045460408051808201909152601b815260008051602061291883398151915260208201526000916001600160a01b031633146110b85760405162461bcd60e51b815260206004820181815283516024840152835190928392604490910191908501908083836000831561086b578181015183820152602001610853565b5060045460025460408051602080825260119082015270415554484f524954595f4144445245535360781b8183015290516001600160a01b039384169392909216917f6840904f5b31827f74e1497360da245f56e530c8c3de3163a2d31f11493273c69181900360600190a35060048054600280546001600160a01b03199081166001600160a01b03841617909155169055600190565b600061115b84846120c5565b61116457600080fd5b61116f848484612293565b949350505050565b600e546001600160a01b031681565b601281565b6002546001600160a01b031681565b60035460408051808201909152601b815260008051602061291883398151915260208201526000916001600160a01b031633146112185760405162461bcd60e51b815260206004820181815283516024840152835190928392604490910191908501908083836000831561086b578181015183820152602001610853565b50611222826124b4565b92915050565b60408051808201909152601081526f4552525f5a45524f5f4144445245535360801b602082015260009084906001600160a01b0382166112a95760405162461bcd60e51b815260206004820181815283516024840152835190928392604490910191908501908083836000831561086b578181015183820152602001610853565b503360009081526008602090815260408083206001600160a01b0389168452909152902054841461131a576040805162461bcd60e51b815260206004820152601660248201527511549497d050d51253d397d393d517d0531313d5d15160521b604482015290519081900360640190fd5b3360008181526008602090815260408083206001600160a01b038a1680855290835292819020879055805187815290519293927f8c5be1e5ebec7d5bd14f71427d1e84f3dd0314c0f7b2291e5b200ac8c7c3b925929181900390910190a3506001949350505050565b600061122233836125b9565b600b5481565b601181815481106113a257fe5b6000918252602090912001546001600160a01b0316905081565b6001600160a01b031660009081526007602052604090205490565b60095481565b60106020526000908152604090205481565b600a5481565b6001546001600160a01b031681565b60025460408051808201909152601b815260008051602061291883398151915260208201526000916001600160a01b031633146114825760405162461bcd60e51b815260206004820181815283516024840152835190928392604490910191908501908083836000831561086b578181015183820152602001610853565b5060408051808201909152601081526f4552525f5a45524f5f4144445245535360801b602082015282906001600160a01b0382166115015760405162461bcd60e51b815260206004820181815283516024840152835190928392604490910191908501908083836000831561086b578181015183820152602001610853565b506003546001600160a01b0384811691161480159061152e57506002546001600160a01b03848116911614155b801561154857506001546001600160a01b03848116911614155b6040518060400160405280601081526020016f4552525f53414d455f4144445245535360801b815250906115bd5760405162461bcd60e51b815260206004820181815283516024840152835190928392604490910191908501908083836000831561086b578181015183820152602001610853565b50600480546001600160a01b0385166001600160a01b03199091161790556001915050919050565b6006805460408051602060026001851615610100026000190190941693909304601f81018490048402820184019092528181529291830182828015610b7e5780601f10610b5357610100808354040283529160200191610b7e565b600c5481565b6001600160a01b0382166000908152600f6020526040812054839060ff166116b0576040805162461bcd60e51b815260206004820152601860248201527711549497d513d2d15397d254d7d393d517d25397d31254d560421b604482015290519081900360640190fd5b60006116c66743555252454e435960c01b611f29565b905060006116db64159055531560da1b611f29565b90506000826001600160a01b0316637058346f886040518263ffffffff1660e01b815260040180826001600160a01b03166001600160a01b03168152602001915050602060405180830381600087803b15801561173757600080fd5b505af115801561174b573d6000803e3d6000fd5b505050506040513d602081101561176157600080fd5b505160408051637058346f60e01b815230600482015290519192506000916001600160a01b03861691637058346f91602480830192602092919082900301818787803b1580156117b057600080fd5b505af11580156117c4573d6000803e3d6000fd5b505050506040513d60208110156117da57600080fd5b5051905060006117f36117ed8984611fa7565b84611fcb565b90506117ff33896125b9565b506040805163f83d179160e01b81526001600160a01b038b811660048301523360248301526044820184905291519186169163f83d1791916064808201926020929091908290030181600087803b15801561185957600080fd5b505af115801561186d573d6000803e3d6000fd5b505050506040513d602081101561188357600080fd5b50519998505050505050505050565b600061189e33846120c5565b6118a757600080fd5b6118b183836126e0565b9392505050565b60025460408051808201909152601b815260008051602061291883398151915260208201526000916001600160a01b031633146119365760405162461bcd60e51b815260206004820181815283516024840152835190928392604490910191908501908083836000831561086b578181015183820152602001610853565b5060408051808201909152601081526f4552525f5a45524f5f4144445245535360801b602082015282906001600160a01b0382166119b55760405162461bcd60e51b815260206004820181815283516024840152835190928392604490910191908501908083836000831561086b578181015183820152602001610853565b50600d80546001600160a01b0385166001600160a01b03199091161790556001915050919050565b60008061100662015180600c54611fa7565b60025460408051808201909152601b815260008051602061291883398151915260208201526000916001600160a01b03163314611a6d5760405162461bcd60e51b815260206004820181815283516024840152835190928392604490910191908501908083836000831561086b578181015183820152602001610853565b5060408051808201909152601081526f4552525f5a45524f5f4144445245535360801b602082015282906001600160a01b038216611aec5760405162461bcd60e51b815260206004820181815283516024840152835190928392604490910191908501908083836000831561086b578181015183820152602001610853565b506003546001600160a01b03848116911614801590611b1957506002546001600160a01b03848116911614155b8015611b3357506001546001600160a01b03848116911614155b6040518060400160405280601081526020016f4552525f53414d455f4144445245535360801b81525090611ba85760405162461bcd60e51b815260206004820181815283516024840152835190928392604490910191908501908083836000831561086b578181015183820152602001610853565b50600154604080516020808252600d908201526c282924a6a0a92cafa7aba722a960991b8183015290516001600160a01b038087169316917f6840904f5b31827f74e1497360da245f56e530c8c3de3163a2d31f11493273c6919081900360600190a3600180546001600160a01b0385166001600160a01b0319909116178155915050919050565b6003546001600160a01b031681565b60035460408051808201909152601b815260008051602061291883398151915260208201526000916001600160a01b03163314611cbd5760405162461bcd60e51b815260206004820181815283516024840152835190928392604490910191908501908083836000831561086b578181015183820152602001610853565b50600e546001600160a01b0316611d14576040805162461bcd60e51b815260206004820152601660248201527511549497d050d51253d397d393d517d0531313d5d15160521b604482015290519081900360640190fd5b611d1e83836125b9565b506000611d356743555252454e435960c01b611f29565b90506000611d4a64159055531560da1b611f29565b600e5460408051637058346f60e01b81526001600160a01b039283166004820152905192935060009291851691637058346f9160248082019260209290919082900301818787803b158015611d9e57600080fd5b505af1158015611db2573d6000803e3d6000fd5b505050506040513d6020811015611dc857600080fd5b505160408051637058346f60e01b815230600482015290519192506000916001600160a01b03861691637058346f91602480830192602092919082900301818787803b158015611e1757600080fd5b505af1158015611e2b573d6000803e3d6000fd5b505050506040513d6020811015611e4157600080fd5b505190506000611e546117ed8884611fa7565b600e546040805163f83d179160e01b81526001600160a01b0392831660048201528b831660248201526044810184905290519293509086169163f83d1791916064808201926020929091908290030181600087803b158015611eb557600080fd5b505af1158015611ec9573d6000803e3d6000fd5b505050506040513d6020811015611edf57600080fd5b5060019998505050505050505050565b600d546001600160a01b031681565b6001600160a01b03918216600090815260086020908152604080832093909416825291909152205490565b600d5460408051637d4367ab60e11b81526004810184905290516000926001600160a01b03169163fa86cf56916024808301926020929190829003018186803b158015611f7557600080fd5b505afa158015611f89573d6000803e3d6000fd5b505050506040513d6020811015611f9f57600080fd5b505192915050565b600082611fb657506000611222565b82820282848281611fc357fe5b04146118b157fe5b600080828481611fd757fe5b04949350505050565b6001600160a01b03821660009081526007602052604081205461200390836120b6565b6001600160a01b0384166000908152600760205260408120919091555461202a90836120b6565b6000556040805183815290516001600160a01b038516917f0f6798a560793a54c3bcfe86a93cde1e73087d944c0ea20544137d4121396885919081900360200190a26040805183815290516001600160a01b038516916000917fddf252ad1be2c89b69c2b068fc378daa952ba7f163c4a11628f55a4df523b3ef9181900360200190a350600192915050565b6000828201838110156118b157fe5b6000806120de6915d212551157d31254d560b21b611f29565b60408051636c7d308160e01b815233600482015290519192506001600160a01b03831691636c7d308191602480820192602092909190829003018186803b15801561212857600080fd5b505afa15801561213c573d6000803e3d6000fd5b505050506040513d602081101561215257600080fd5b50516122895760408051639e4d7ae560e01b81526001600160a01b0386811660048301528581166024830152915191831691639e4d7ae591604480820192602092909190829003018186803b1580156121aa57600080fd5b505afa1580156121be573d6000803e3d6000fd5b505050506040513d60208110156121d457600080fd5b5051612227576040805162461bcd60e51b815260206004820152601c60248201527f4552525f5452414e534645525f434845434b5f57484954454c49535400000000604482015290519081900360640190fd5b61222f610fe0565b15801561223f575061223f6119dd565b612289576040805162461bcd60e51b815260206004820152601660248201527511549497d050d51253d397d393d517d0531313d5d15160521b604482015290519081900360640190fd5b5060019392505050565b6040805180820190915260198152784552525f434f4e54524143545f53454c465f4144445245535360381b602082015260009083906001600160a01b0382163014156123205760405162461bcd60e51b815260206004820181815283516024840152835190928392604490910191908501908083836000831561086b578181015183820152602001610853565b5060408051808201909152601081526f4552525f5a45524f5f4144445245535360801b602082015284906001600160a01b03821661239f5760405162461bcd60e51b815260206004820181815283516024840152835190928392604490910191908501908083836000831561086b578181015183820152602001610853565b506001600160a01b0386166000908152600860209081526040808320338452909152902054841115612411576040805162461bcd60e51b81526020600482015260166024820152754552525f4e4f545f454e4f5547485f42414c414e434560501b604482015290519081900360640190fd5b61241c868686612801565b61242557600080fd5b6001600160a01b03861660009081526008602090815260408083203384529091529020546124539085612905565b6001600160a01b0380881660008181526008602090815260408083203380855292528083209590955593519289169391927f7d5ad68155582ceeebcef916386e9f0eb9f7a2dce10a880ced4d0d5d782317949190a450600195945050505050565b6001600160a01b0381166000908152600f60209081526040808320548151808301909252601b8252600080516020612918833981519152928201929092529060ff16156125425760405162461bcd60e51b815260206004820181815283516024840152835190928392604490910191908501908083836000831561086b578181015183820152602001610853565b50506001600160a01b03166000818152600f60209081526040808320805460ff19166001908117909155601180546010909452918420839055828101825592527f31ecc21a745e3968a04e9570e4425bc18fa8019c68028196b546d1669c200c680180546001600160a01b03191690921790915590565b6001600160a01b03821660009081526007602052604081205482811015612620576040805162461bcd60e51b81526020600482015260166024820152754552525f4e4f545f454e4f5547485f42414c414e434560501b604482015290519081900360640190fd5b61262a8184612905565b6001600160a01b0385166000908152600760205260408120829055549091506126539084612905565b6000556040805184815290516001600160a01b038616917fcc16f5dbb4873280815c1ee09dbd06736cffcc184412cf7a71a0fdb75d397ca5919081900360200190a26040805184815290516000916001600160a01b038716917fddf252ad1be2c89b69c2b068fc378daa952ba7f163c4a11628f55a4df523b3ef9181900360200190a35060019392505050565b6040805180820190915260198152784552525f434f4e54524143545f53454c465f4144445245535360381b602082015260009083906001600160a01b03821630141561276d5760405162461bcd60e51b815260206004820181815283516024840152835190928392604490910191908501908083836000831561086b578181015183820152602001610853565b5060408051808201909152601081526f4552525f5a45524f5f4144445245535360801b602082015284906001600160a01b0382166127ec5760405162461bcd60e51b815260206004820181815283516024840152835190928392604490910191908501908083836000831561086b578181015183820152602001610853565b506127f8338686612801565b95945050505050565b6001600160a01b03831660009081526007602052604081205482811015612868576040805162461bcd60e51b81526020600482015260166024820152754552525f4e4f545f454e4f5547485f42414c414e434560501b604482015290519081900360640190fd5b6128728184612905565b6001600160a01b03808716600090815260076020526040808220849055918716815220549091506128a390846120b6565b6001600160a01b0380861660008181526007602090815260409182902094909455805187815290519193928916927fddf252ad1be2c89b69c2b068fc378daa952ba7f163c4a11628f55a4df523b3ef92918290030190a3506001949350505050565b60008282111561291157fe5b5090039056fe4552525f415554484f52495a45445f414444524553535f4f4e4c590000000000a265627a7a72305820e0901ed55ecdf67c63a7012083de71a69abd02c89ee70868c55b72ba5963eb7a64736f6c63430005090032",
  "source": "pragma solidity ^0.5.9;\n\nimport \"./StandardToken.sol\";\nimport \"./TokenUtils.sol\";\nimport \"../InterFaces/IWhiteList.sol\";\nimport \"../InterFaces/ICurrencyPrices.sol\";\nimport \"../InterFaces/ITokenVault.sol\";\n\n\ncontract ForceSwap is TokenUtils, AuctionRegistery {\n    address public returnToken;\n\n    constructor(address _returnToken) public notZeroAddress(_returnToken) {\n        returnToken = _returnToken;\n    }\n\n    function setReturnToken(address _which)\n        external\n        onlySystem()\n        returns (bool)\n    {\n        require(returnToken == address(0), \"ERR_ACTION_NOT_ALLOWED\");\n        returnToken = _which;\n    }\n\n    function forceSwap(address _which, uint256 _amount)\n        external\n        onlySystem()\n        returns (bool)\n    {\n        require(returnToken != address(0), \"ERR_ACTION_NOT_ALLOWED\");\n\n        _burn(_which, _amount);\n\n        ICurrencyPrices currencyPrice = ICurrencyPrices(getAddressOf(CURRENCY));\n\n        ITokenVault tokenVault = ITokenVault(getAddressOf(VAULT));\n\n        uint256 retunTokenPrice = currencyPrice.getCurrencyPrice(returnToken);\n\n        uint256 currentTokenPrice = currencyPrice.getCurrencyPrice(\n            address(this)\n        );\n\n        uint256 _assignToken = safeDiv(\n            safeMul(_amount, currentTokenPrice),\n            retunTokenPrice\n        );\n\n        tokenVault.directTransfer(returnToken, _which, _assignToken);\n\n        return true;\n        //here we have to develop vault it is not yet developed\n    }\n}\n\n\ncontract Exchangeable is ForceSwap {\n    mapping(address => bool) allowedToken;\n    mapping(address => uint256) public allowedTokensIndex;\n    address[] public allowedTokens;\n\n    constructor(address _returnToken) public notZeroAddress(_returnToken) {\n        addAllowedTokenInternal(_returnToken);\n    }\n\n    modifier isConversionAllowed(address _which) {\n        require(allowedToken[_which], \"ERR_TOKEN_IS_NOT_IN_LIST\");\n        _;\n    }\n\n    function buyTokens(address _fromToken, uint256 _amount)\n        external\n        isConversionAllowed(_fromToken)\n        returns (bool)\n    {\n        ICurrencyPrices currencyPrice = ICurrencyPrices(getAddressOf(CURRENCY));\n        uint256 fromTokenPrice = currencyPrice.getCurrencyPrice(_fromToken);\n        uint256 currentTokenPrice = currencyPrice.getCurrencyPrice(\n            address(this)\n        );\n        uint256 _assignToken = safeDiv(\n            safeMul(_amount, fromTokenPrice),\n            currentTokenPrice\n        );\n        ERC20(_fromToken).transferFrom(\n            msg.sender,\n            getAddressOf(VAULT),\n            _amount\n        );\n        return _mint(msg.sender, _assignToken);\n    }\n\n    function swapTokens(address _toToken, uint256 _amount)\n        external\n        isConversionAllowed(_toToken)\n        returns (bool)\n    {\n        ICurrencyPrices currencyPrice = ICurrencyPrices(getAddressOf(CURRENCY));\n        ITokenVault tokenVault = ITokenVault(getAddressOf(VAULT));\n        uint256 toTokenPrice = currencyPrice.getCurrencyPrice(_toToken);\n        uint256 currentTokenPrice = currencyPrice.getCurrencyPrice(\n            address(this)\n        );\n        uint256 _assignToken = safeDiv(\n            safeMul(_amount, currentTokenPrice),\n            toTokenPrice\n        );\n        _burn(msg.sender, _amount);\n        return tokenVault.directTransfer(_toToken, msg.sender, _assignToken);\n    }\n\n    function addAllowedTokenInternal(address _which) internal returns (bool) {\n        require(!allowedToken[_which], ERR_AUTHORIZED_ADDRESS_ONLY);\n        allowedToken[_which] = true;\n        allowedTokensIndex[_which] = allowedTokens.length;\n        allowedTokens.push(_which);\n        return true;\n    }\n\n    function addAllowedToken(address _which)\n        external\n        onlySystem()\n        returns (bool)\n    {\n        return addAllowedTokenInternal(_which);\n    }\n}\n\n\ncontract Token is Exchangeable {\n    constructor(\n        string memory _name,\n        string memory _symbol,\n        address _systemAddress,\n        address _authorityAddress,\n        address _registeryAddress,\n        uint256 _tokenPrice,\n        uint256 _tokenMaturityDays,\n        uint256 _tokenHoldBackDays,\n        address _returnToken\n    )\n        public\n        StandardToken(_name, _symbol, _systemAddress, _authorityAddress)\n        TokenUtils(_tokenPrice, _tokenMaturityDays, _tokenHoldBackDays)\n        AuctionRegistery(_registeryAddress)\n        ForceSwap(_returnToken)\n        Exchangeable(_returnToken)\n    {}\n\n    function checkBeforeTransfer(address _from, address _to)\n        internal\n        view\n        returns (bool)\n    {\n        address whiteListAddress = getAddressOf(WHITE_LIST);\n        if (\n            IWhiteList(whiteListAddress).isAddressByPassed(msg.sender) == false\n        ) {\n            require(\n                IWhiteList(whiteListAddress).checkBeforeTransfer(_from, _to),\n                \"ERR_TRANSFER_CHECK_WHITELIST\"\n            );\n            require(\n                !isTokenMature() && isHoldbackDaysOver(),\n                \"ERR_ACTION_NOT_ALLOWED\"\n            );\n        }\n        return true;\n    }\n\n    function transfer(address _to, uint256 _value) public returns (bool ok) {\n        require(checkBeforeTransfer(msg.sender, _to));\n        return super.transfer(_to, _value);\n    }\n\n    function transferFrom(address _from, address _to, uint256 _value)\n        public\n        returns (bool)\n    {\n        require(checkBeforeTransfer(_from, _to));\n        return super.transferFrom(_from, _to, _value);\n    }\n\n    function() external payable {\n        revert();\n    }\n}\n",
  "sourcePath": "/home/mind/Work/Projects/Jointer/Jointer_auction/NewContracts/contracts/Tokens/SwapbleToken.sol",
  "compiler": {
    "name": "solc",
    "version": "0.5.9+commit.e560f70d.Emscripten.clang"
  },
  "schemaVersion": "3.0.16",
  "updatedAt": "2020-04-27T13:53:30.440Z",
  "devdoc": {
    "methods": {
      "allowance(address,address)": {
        "details": "to check allowed token for transferFrom",
        "params": {
          "_owner": "The address of the account owning tokens",
          "_spender": "The address of the account able to transfer the tokens"
        },
        "return": "Amount of remaining tokens allowed to spent"
      },
      "approve(address,uint256)": {
        "details": "`msg.sender` approves `spender` to spend `value` tokens",
        "params": {
          "_spender": "The address of the account able to transfer the tokens",
          "_value": "The amount of wei to be approved for transfer"
        },
        "return": "Whether the approval was successful or not"
      },
      "approve(address,uint256,uint256)": {
        "details": "`msg.sender` approves `spender` to spend `value` tokensalthough all Dpp work with two argument approve method but we provide this method to ensure user from double spend",
        "params": {
          "_currentValue": "the amount user already apporved",
          "_spender": "The address of the account able to transfer the tokens",
          "_value": "The amount of wei to be approved for transfer"
        },
        "return": "Whether the approval was successful or not"
      },
      "balanceOf(address)": {
        "details": "Gets the balance of the specified address.",
        "params": {
          "_who": "The address to query the the balance of."
        },
        "return": "An uint256 representing the amount owned by the passed address."
      },
      "burn(uint256)": {
        "details": "burn token from this address",
        "params": {
          "_value": "uint256 the amount of tokens to be burned"
        }
      },
      "changeAuthorityAddress(address)": {
        "details": "change system address",
        "params": {
          "_which": "The address to which is new Authority address"
        }
      },
      "changePrimaryOwner(address)": {
        "details": "change primary ownership",
        "params": {
          "_which": "The address to which is new owner address"
        }
      },
      "changeSystemAddress(address)": {
        "details": "change system address",
        "params": {
          "_which": "The address to which is new system address"
        }
      }
    }
  },
  "userdoc": {
    "methods": {}
  }
}