{
  "contractName": "TokenMinter",
  "abi": [
    {
      "constant": false,
      "inputs": [
        {
          "name": "_which",
          "type": "address"
        }
      ],
      "name": "changeSystemAddress",
      "outputs": [
        {
          "name": "",
          "type": "bool"
        }
      ],
      "payable": false,
      "stateMutability": "nonpayable",
      "type": "function"
    },
    {
      "constant": true,
      "inputs": [],
      "name": "name",
      "outputs": [
        {
          "name": "",
          "type": "string"
        }
      ],
      "payable": false,
      "stateMutability": "view",
      "type": "function"
    },
    {
      "constant": false,
      "inputs": [
        {
          "name": "_spender",
          "type": "address"
        },
        {
          "name": "_value",
          "type": "uint256"
        }
      ],
      "name": "approve",
      "outputs": [
        {
          "name": "ok",
          "type": "bool"
        }
      ],
      "payable": false,
      "stateMutability": "nonpayable",
      "type": "function"
    },
    {
      "constant": true,
      "inputs": [],
      "name": "newAuthorityAddress",
      "outputs": [
        {
          "name": "",
          "type": "address"
        }
      ],
      "payable": false,
      "stateMutability": "view",
      "type": "function"
    },
    {
      "constant": true,
      "inputs": [],
      "name": "totalSupply",
      "outputs": [
        {
          "name": "",
          "type": "uint256"
        }
      ],
      "payable": false,
      "stateMutability": "view",
      "type": "function"
    },
    {
      "constant": false,
      "inputs": [],
      "name": "acceptAuthorityAddress",
      "outputs": [
        {
          "name": "",
          "type": "bool"
        }
      ],
      "payable": false,
      "stateMutability": "nonpayable",
      "type": "function"
    },
    {
      "constant": false,
      "inputs": [
        {
          "name": "_from",
          "type": "address"
        },
        {
          "name": "_to",
          "type": "address"
        },
        {
          "name": "_value",
          "type": "uint256"
        }
      ],
      "name": "transferFrom",
      "outputs": [
        {
          "name": "",
          "type": "bool"
        }
      ],
      "payable": false,
      "stateMutability": "nonpayable",
      "type": "function"
    },
    {
      "constant": true,
      "inputs": [],
      "name": "decimals",
      "outputs": [
        {
          "name": "",
          "type": "uint256"
        }
      ],
      "payable": false,
      "stateMutability": "view",
      "type": "function"
    },
    {
      "constant": true,
      "inputs": [],
      "name": "authorityAddress",
      "outputs": [
        {
          "name": "",
          "type": "address"
        }
      ],
      "payable": false,
      "stateMutability": "view",
      "type": "function"
    },
    {
      "constant": true,
      "inputs": [],
      "name": "isOwnerInitialize",
      "outputs": [
        {
          "name": "",
          "type": "bool"
        }
      ],
      "payable": false,
      "stateMutability": "view",
      "type": "function"
    },
    {
      "constant": false,
      "inputs": [
        {
          "name": "_spender",
          "type": "address"
        },
        {
          "name": "_currentValue",
          "type": "uint256"
        },
        {
          "name": "_value",
          "type": "uint256"
        }
      ],
      "name": "approve",
      "outputs": [
        {
          "name": "ok",
          "type": "bool"
        }
      ],
      "payable": false,
      "stateMutability": "nonpayable",
      "type": "function"
    },
    {
      "constant": false,
      "inputs": [
        {
          "name": "_value",
          "type": "uint256"
        }
      ],
      "name": "burn",
      "outputs": [
        {
          "name": "",
          "type": "bool"
        }
      ],
      "payable": false,
      "stateMutability": "nonpayable",
      "type": "function"
    },
    {
      "constant": true,
      "inputs": [
        {
          "name": "_who",
          "type": "address"
        }
      ],
      "name": "balanceOf",
      "outputs": [
        {
          "name": "balance",
          "type": "uint256"
        }
      ],
      "payable": false,
      "stateMutability": "view",
      "type": "function"
    },
    {
      "constant": false,
      "inputs": [
        {
          "name": "_primaryOwner",
          "type": "address"
        },
        {
          "name": "_systemAddress",
          "type": "address"
        },
        {
          "name": "_authorityAddress",
          "type": "address"
        }
      ],
      "name": "initializeOwner",
      "outputs": [],
      "payable": false,
      "stateMutability": "nonpayable",
      "type": "function"
    },
    {
      "constant": true,
      "inputs": [
        {
          "name": "",
          "type": "uint256"
        }
      ],
      "name": "minters",
      "outputs": [
        {
          "name": "",
          "type": "address"
        }
      ],
      "payable": false,
      "stateMutability": "view",
      "type": "function"
    },
    {
      "constant": true,
      "inputs": [],
      "name": "primaryOwner",
      "outputs": [
        {
          "name": "",
          "type": "address"
        }
      ],
      "payable": false,
      "stateMutability": "view",
      "type": "function"
    },
    {
      "constant": false,
      "inputs": [
        {
          "name": "_which",
          "type": "address"
        }
      ],
      "name": "changeAuthorityAddress",
      "outputs": [
        {
          "name": "",
          "type": "bool"
        }
      ],
      "payable": false,
      "stateMutability": "nonpayable",
      "type": "function"
    },
    {
      "constant": true,
      "inputs": [],
      "name": "symbol",
      "outputs": [
        {
          "name": "",
          "type": "string"
        }
      ],
      "payable": false,
      "stateMutability": "view",
      "type": "function"
    },
    {
      "constant": true,
      "inputs": [
        {
          "name": "",
          "type": "address"
        }
      ],
      "name": "minterIndex",
      "outputs": [
        {
          "name": "",
          "type": "uint256"
        }
      ],
      "payable": false,
      "stateMutability": "view",
      "type": "function"
    },
    {
      "constant": false,
      "inputs": [
        {
          "name": "_to",
          "type": "address"
        },
        {
          "name": "_value",
          "type": "uint256"
        }
      ],
      "name": "transfer",
      "outputs": [
        {
          "name": "ok",
          "type": "bool"
        }
      ],
      "payable": false,
      "stateMutability": "nonpayable",
      "type": "function"
    },
    {
      "constant": false,
      "inputs": [
        {
          "name": "_which",
          "type": "address"
        }
      ],
      "name": "changePrimaryOwner",
      "outputs": [
        {
          "name": "",
          "type": "bool"
        }
      ],
      "payable": false,
      "stateMutability": "nonpayable",
      "type": "function"
    },
    {
      "constant": true,
      "inputs": [],
      "name": "systemAddress",
      "outputs": [
        {
          "name": "",
          "type": "address"
        }
      ],
      "payable": false,
      "stateMutability": "view",
      "type": "function"
    },
    {
      "constant": true,
      "inputs": [
        {
          "name": "_owner",
          "type": "address"
        },
        {
          "name": "_spender",
          "type": "address"
        }
      ],
      "name": "allowance",
      "outputs": [
        {
          "name": "",
          "type": "uint256"
        }
      ],
      "payable": false,
      "stateMutability": "view",
      "type": "function"
    },
    {
      "anonymous": false,
      "inputs": [
        {
          "indexed": true,
          "name": "_to",
          "type": "address"
        },
        {
          "indexed": false,
          "name": "value",
          "type": "uint256"
        }
      ],
      "name": "Mint",
      "type": "event"
    },
    {
      "anonymous": false,
      "inputs": [
        {
          "indexed": true,
          "name": "from",
          "type": "address"
        },
        {
          "indexed": false,
          "name": "value",
          "type": "uint256"
        }
      ],
      "name": "Burn",
      "type": "event"
    },
    {
      "anonymous": false,
      "inputs": [
        {
          "indexed": true,
          "name": "spender",
          "type": "address"
        },
        {
          "indexed": true,
          "name": "_from",
          "type": "address"
        },
        {
          "indexed": true,
          "name": "_to",
          "type": "address"
        }
      ],
      "name": "TransferFrom",
      "type": "event"
    },
    {
      "anonymous": false,
      "inputs": [
        {
          "indexed": false,
          "name": "ownerType",
          "type": "string"
        },
        {
          "indexed": true,
          "name": "previousOwner",
          "type": "address"
        },
        {
          "indexed": true,
          "name": "newOwner",
          "type": "address"
        }
      ],
      "name": "OwnershipTransferred",
      "type": "event"
    },
    {
      "anonymous": false,
      "inputs": [
        {
          "indexed": true,
          "name": "previousOwner",
          "type": "address"
        },
        {
          "indexed": true,
          "name": "newOwner",
          "type": "address"
        }
      ],
      "name": "AuthorityAddressChnageCall",
      "type": "event"
    },
    {
      "anonymous": false,
      "inputs": [
        {
          "indexed": true,
          "name": "from",
          "type": "address"
        },
        {
          "indexed": true,
          "name": "to",
          "type": "address"
        },
        {
          "indexed": false,
          "name": "value",
          "type": "uint256"
        }
      ],
      "name": "Transfer",
      "type": "event"
    },
    {
      "anonymous": false,
      "inputs": [
        {
          "indexed": true,
          "name": "owner",
          "type": "address"
        },
        {
          "indexed": true,
          "name": "spender",
          "type": "address"
        },
        {
          "indexed": false,
          "name": "value",
          "type": "uint256"
        }
      ],
      "name": "Approval",
      "type": "event"
    },
    {
      "constant": false,
      "inputs": [
        {
          "name": "_which",
          "type": "address"
        }
      ],
      "name": "addMinter",
      "outputs": [
        {
          "name": "",
          "type": "bool"
        }
      ],
      "payable": false,
      "stateMutability": "nonpayable",
      "type": "function"
    },
    {
      "constant": false,
      "inputs": [
        {
          "name": "_which",
          "type": "address"
        }
      ],
      "name": "removeMinter",
      "outputs": [
        {
          "name": "",
          "type": "bool"
        }
      ],
      "payable": false,
      "stateMutability": "nonpayable",
      "type": "function"
    },
    {
      "constant": false,
      "inputs": [
        {
          "name": "_amount",
          "type": "uint256"
        }
      ],
      "name": "mintTokens",
      "outputs": [
        {
          "name": "",
          "type": "bool"
        }
      ],
      "payable": false,
      "stateMutability": "nonpayable",
      "type": "function"
    }
  ],
  "bytecode": "0x6080604052600180546001600160a01b03199081169091556002805482169055600380549091169055600480546001600160a81b031916905534801561004457600080fd5b50612018806100546000396000f3fe608060405234801561001057600080fd5b506004361061018e5760003560e01c806370a08231116100de57806397304ced11610097578063a9059cbb11610071578063a9059cbb1461049b578063c4d34268146104c7578063d3e848f1146104ed578063dd62ed3e146104f55761018e565b806397304ced14610432578063983b2d561461044f578063a190b192146104755761018e565b806370a082311461037f578063760e595a146103a55780638623ec7b146103df5780638e10be33146103fc5780638f51368b1461040457806395d89b411461042a5761018e565b806323b872dd1161014b5780633c695d4e116101255780633c695d4e146103205780633ff59a5214610328578063426a84931461033057806342966c68146103625761018e565b806323b872dd146102bc5780633092afd5146102f2578063313ce567146103185761018e565b806304d630891461019357806306fdde03146101cd578063095ea7b31461024a5780630abaad7a1461027657806318160ddd1461029a57806320c462fe146102b4575b600080fd5b6101b9600480360360208110156101a957600080fd5b50356001600160a01b0316610523565b604080519115158252519081900360200190f35b6101d5610830565b6040805160208082528351818301528351919283929083019185019080838360005b8381101561020f5781810151838201526020016101f7565b50505050905090810190601f16801561023c5780820380516001836020036101000a031916815260200191505b509250505060405180910390f35b6101b96004803603604081101561026057600080fd5b506001600160a01b0381351690602001356108be565b61027e6109a8565b604080516001600160a01b039092168252519081900360200190f35b6102a26109b7565b60408051918252519081900360200190f35b6101b96109bd565b6101b9600480360360608110156102d257600080fd5b506001600160a01b03813581169160208101359091169060400135610ad2565b6101b96004803603602081101561030857600080fd5b50356001600160a01b0316610cf3565b6102a2610ee5565b61027e610eea565b6101b9610ef9565b6101b96004803603606081101561034657600080fd5b506001600160a01b038135169060208101359060400135610f09565b6101b96004803603602081101561037857600080fd5b5035611064565b6102a26004803603602081101561039557600080fd5b50356001600160a01b0316611076565b6103dd600480360360608110156103bb57600080fd5b506001600160a01b038135811691602081013582169160409091013516611091565b005b61027e600480360360208110156103f557600080fd5b5035611467565b61027e61148e565b6101b96004803603602081101561041a57600080fd5b50356001600160a01b031661149d565b6101d561167e565b6101b96004803603602081101561044857600080fd5b50356116d9565b6101b96004803603602081101561046557600080fd5b50356001600160a01b0316611768565b6102a26004803603602081101561048b57600080fd5b50356001600160a01b03166118ec565b6101b9600480360360408110156104b157600080fd5b506001600160a01b0381351690602001356118fe565b6101b9600480360360208110156104dd57600080fd5b50356001600160a01b0316611a1f565b61027e611c60565b6102a26004803603604081101561050b57600080fd5b506001600160a01b0381358116916020013516611c6f565b60025460408051808201909152601b8152600080516020611fc483398151915260208201526000916001600160a01b031633146105de5760405162461bcd60e51b81526004018080602001828103825283818151815260200191508051906020019080838360005b838110156105a357818101518382015260200161058b565b50505050905090810190601f1680156105d05780820380516001836020036101000a031916815260200191505b509250505060405180910390fd5b506040805180820190915260198152784552525f434f4e54524143545f53454c465f4144445245535360381b602082015282906001600160a01b0382163014156106695760405162461bcd60e51b81526020600482018181528351602484015283519092839260449091019190850190808383600083156105a357818101518382015260200161058b565b5060408051808201909152601081526f4552525f5a45524f5f4144445245535360801b602082015283906001600160a01b0382166106e85760405162461bcd60e51b81526020600482018181528351602484015283519092839260449091019190850190808383600083156105a357818101518382015260200161058b565b506004546001600160a01b0385811691161480159061071557506002546001600160a01b03858116911614155b801561072f57506001546001600160a01b03858116911614155b6040518060400160405280601081526020016f4552525f53414d455f4144445245535360801b815250906107a45760405162461bcd60e51b81526020600482018181528351602484015283519092839260449091019190850190808383600083156105a357818101518382015260200161058b565b50600454604080516020808252600e908201526d53595354454d5f4144445245535360901b8183015290516001600160a01b038088169316917f6840904f5b31827f74e1497360da245f56e530c8c3de3163a2d31f11493273c6919081900360600190a3600480546001600160a01b0386166001600160a01b0319909116179055600192505050919050565b6005805460408051602060026001851615610100026000190190941693909304601f810184900484028201840190925281815292918301828280156108b65780601f1061088b576101008083540402835291602001916108b6565b820191906000526020600020905b81548152906001019060200180831161089957829003601f168201915b505050505081565b60408051808201909152601081526f4552525f5a45524f5f4144445245535360801b602082015260009083906001600160a01b03821661093f5760405162461bcd60e51b81526020600482018181528351602484015283519092839260449091019190850190808383600083156105a357818101518382015260200161058b565b503360008181526008602090815260408083206001600160a01b03891680855290835292819020879055805187815290519293927f8c5be1e5ebec7d5bd14f71427d1e84f3dd0314c0f7b2291e5b200ac8c7c3b925929181900390910190a35060019392505050565b6003546001600160a01b031681565b60005481565b60035460408051808201909152601b8152600080516020611fc483398151915260208201526000916001600160a01b03163314610a3b5760405162461bcd60e51b81526020600482018181528351602484015283519092839260449091019190850190808383600083156105a357818101518382015260200161058b565b5060035460025460408051602080825260119082015270415554484f524954595f4144445245535360781b8183015290516001600160a01b039384169392909216917f6840904f5b31827f74e1497360da245f56e530c8c3de3163a2d31f11493273c69181900360600190a35060038054600280546001600160a01b03199081166001600160a01b03841617909155169055600190565b6040805180820190915260198152784552525f434f4e54524143545f53454c465f4144445245535360381b602082015260009083906001600160a01b038216301415610b5f5760405162461bcd60e51b81526020600482018181528351602484015283519092839260449091019190850190808383600083156105a357818101518382015260200161058b565b5060408051808201909152601081526f4552525f5a45524f5f4144445245535360801b602082015284906001600160a01b038216610bde5760405162461bcd60e51b81526020600482018181528351602484015283519092839260449091019190850190808383600083156105a357818101518382015260200161058b565b506001600160a01b0386166000908152600860209081526040808320338452909152902054841115610c50576040805162461bcd60e51b81526020600482015260166024820152754552525f4e4f545f454e4f5547485f42414c414e434560501b604482015290519081900360640190fd5b610c5b868686611c9a565b610c6457600080fd5b6001600160a01b0386166000908152600860209081526040808320338452909152902054610c929085611d9e565b6001600160a01b0380881660008181526008602090815260408083203380855292528083209590955593519289169391927f7d5ad68155582ceeebcef916386e9f0eb9f7a2dce10a880ced4d0d5d782317949190a450600195945050505050565b60025460408051808201909152601b8152600080516020611fc483398151915260208201526000916001600160a01b03163314610d715760405162461bcd60e51b81526020600482018181528351602484015283519092839260449091019190850190808383600083156105a357818101518382015260200161058b565b506001600160a01b038216600090815260096020908152604091829020548251808401909352601b8352600080516020611fc48339815191529183019190915260ff16610dff5760405162461bcd60e51b81526020600482018181528351602484015283519092839260449091019190850190808383600083156105a357818101518382015260200161058b565b506001600160a01b0382166000908152600a6020526040812054600b8054919291610e2b906001611d9e565b81548110610e3557fe5b600091825260209091200154600b80546001600160a01b039092169250829184908110610e5e57fe5b600091825260208083209190910180546001600160a01b0319166001600160a01b039485161790558383168252600a8152604080832086905592871682526009905220805460ff19169055600b8054610eb8906001611d9e565b81548110610ec257fe5b600091825260209091200180546001600160a01b03191690555060019392505050565b601281565b6002546001600160a01b031681565b600454600160a01b900460ff1681565b60408051808201909152601081526f4552525f5a45524f5f4144445245535360801b602082015260009084906001600160a01b038216610f8a5760405162461bcd60e51b81526020600482018181528351602484015283519092839260449091019190850190808383600083156105a357818101518382015260200161058b565b503360009081526008602090815260408083206001600160a01b03891684529091529020548414610ffb576040805162461bcd60e51b815260206004820152601660248201527511549497d050d51253d397d393d517d0531313d5d15160521b604482015290519081900360640190fd5b3360008181526008602090815260408083206001600160a01b038a1680855290835292819020879055805187815290519293927f8c5be1e5ebec7d5bd14f71427d1e84f3dd0314c0f7b2291e5b200ac8c7c3b925929181900390910190a3506001949350505050565b60006110703383611db0565b92915050565b6001600160a01b031660009081526007602052604090205490565b60408051808201909152601081526f4552525f5a45524f5f4144445245535360801b602082015283906001600160a01b03821661110f5760405162461bcd60e51b81526020600482018181528351602484015283519092839260449091019190850190808383600083156105a357818101518382015260200161058b565b5060408051808201909152601081526f4552525f5a45524f5f4144445245535360801b602082015283906001600160a01b03821661118e5760405162461bcd60e51b81526020600482018181528351602484015283519092839260449091019190850190808383600083156105a357818101518382015260200161058b565b5060408051808201909152601081526f4552525f5a45524f5f4144445245535360801b602082015283906001600160a01b03821661120d5760405162461bcd60e51b81526020600482018181528351602484015283519092839260449091019190850190808383600083156105a357818101518382015260200161058b565b50600454600160a01b900460ff161561126d576040805162461bcd60e51b815260206004820152601c60248201527f4552525f4f574e45525f494e5449414c495a45445f414c524541445900000000604482015290519081900360640190fd5b846001600160a01b0316866001600160a01b031614156040518060400160405280601081526020016f4552525f53414d455f4144445245535360801b815250906112f85760405162461bcd60e51b81526020600482018181528351602484015283519092839260449091019190850190808383600083156105a357818101518382015260200161058b565b50836001600160a01b0316856001600160a01b031614156040518060400160405280601081526020016f4552525f53414d455f4144445245535360801b815250906113845760405162461bcd60e51b81526020600482018181528351602484015283519092839260449091019190850190808383600083156105a357818101518382015260200161058b565b50836001600160a01b0316866001600160a01b031614156040518060400160405280601081526020016f4552525f53414d455f4144445245535360801b815250906114105760405162461bcd60e51b81526020600482018181528351602484015283519092839260449091019190850190808383600083156105a357818101518382015260200161058b565b5050600180546001600160a01b039687166001600160a01b03199182161790915560048054600280549689169684169690961790955560ff60a01b199590961693169290921792909216600160a01b179092555050565b600b818154811061147457fe5b6000918252602090912001546001600160a01b0316905081565b6001546001600160a01b031681565b60025460408051808201909152601b8152600080516020611fc483398151915260208201526000916001600160a01b0316331461151b5760405162461bcd60e51b81526020600482018181528351602484015283519092839260449091019190850190808383600083156105a357818101518382015260200161058b565b5060408051808201909152601081526f4552525f5a45524f5f4144445245535360801b602082015282906001600160a01b03821661159a5760405162461bcd60e51b81526020600482018181528351602484015283519092839260449091019190850190808383600083156105a357818101518382015260200161058b565b506004546001600160a01b038481169116148015906115c757506002546001600160a01b03848116911614155b80156115e157506001546001600160a01b03848116911614155b6040518060400160405280601081526020016f4552525f53414d455f4144445245535360801b815250906116565760405162461bcd60e51b81526020600482018181528351602484015283519092839260449091019190850190808383600083156105a357818101518382015260200161058b565b50600380546001600160a01b0385166001600160a01b03199091161790556001915050919050565b6006805460408051602060026001851615610100026000190190941693909304601f810184900484028201840190925281815292918301828280156108b65780601f1061088b576101008083540402835291602001916108b6565b336000908152600960209081526040808320548151808301909252601b8252600080516020611fc4833981519152928201929092529060ff1661175d5760405162461bcd60e51b81526020600482018181528351602484015283519092839260449091019190850190808383600083156105a357818101518382015260200161058b565b506110703383611ed7565b60025460408051808201909152601b8152600080516020611fc483398151915260208201526000916001600160a01b031633146117e65760405162461bcd60e51b81526020600482018181528351602484015283519092839260449091019190850190808383600083156105a357818101518382015260200161058b565b506001600160a01b038216600090815260096020908152604091829020548251808401909352601b8352600080516020611fc48339815191529183019190915260ff16156118755760405162461bcd60e51b81526020600482018181528351602484015283519092839260449091019190850190808383600083156105a357818101518382015260200161058b565b50506001600160a01b03166000818152600960209081526040808320805460ff19166001908117909155600b8054600a909452918420839055828101825592527f0175b7a638427703f0dbe7bb9bbf987a2551717b34e79f33b5b1008d1fa01db90180546001600160a01b03191690921790915590565b600a6020526000908152604090205481565b6040805180820190915260198152784552525f434f4e54524143545f53454c465f4144445245535360381b602082015260009083906001600160a01b03821630141561198b5760405162461bcd60e51b81526020600482018181528351602484015283519092839260449091019190850190808383600083156105a357818101518382015260200161058b565b5060408051808201909152601081526f4552525f5a45524f5f4144445245535360801b602082015284906001600160a01b038216611a0a5760405162461bcd60e51b81526020600482018181528351602484015283519092839260449091019190850190808383600083156105a357818101518382015260200161058b565b50611a16338686611c9a565b95945050505050565b60025460408051808201909152601b8152600080516020611fc483398151915260208201526000916001600160a01b03163314611a9d5760405162461bcd60e51b81526020600482018181528351602484015283519092839260449091019190850190808383600083156105a357818101518382015260200161058b565b5060408051808201909152601081526f4552525f5a45524f5f4144445245535360801b602082015282906001600160a01b038216611b1c5760405162461bcd60e51b81526020600482018181528351602484015283519092839260449091019190850190808383600083156105a357818101518382015260200161058b565b506004546001600160a01b03848116911614801590611b4957506002546001600160a01b03848116911614155b8015611b6357506001546001600160a01b03848116911614155b6040518060400160405280601081526020016f4552525f53414d455f4144445245535360801b81525090611bd85760405162461bcd60e51b81526020600482018181528351602484015283519092839260449091019190850190808383600083156105a357818101518382015260200161058b565b50600154604080516020808252600d908201526c282924a6a0a92cafa7aba722a960991b8183015290516001600160a01b038087169316917f6840904f5b31827f74e1497360da245f56e530c8c3de3163a2d31f11493273c6919081900360600190a3600180546001600160a01b0385166001600160a01b0319909116178155915050919050565b6004546001600160a01b031681565b6001600160a01b03918216600090815260086020908152604080832093909416825291909152205490565b6001600160a01b03831660009081526007602052604081205482811015611d01576040805162461bcd60e51b81526020600482015260166024820152754552525f4e4f545f454e4f5547485f42414c414e434560501b604482015290519081900360640190fd5b611d0b8184611d9e565b6001600160a01b0380871660009081526007602052604080822084905591871681522054909150611d3c9084611fad565b6001600160a01b0380861660008181526007602090815260409182902094909455805187815290519193928916927fddf252ad1be2c89b69c2b068fc378daa952ba7f163c4a11628f55a4df523b3ef92918290030190a3506001949350505050565b600082821115611daa57fe5b50900390565b6001600160a01b03821660009081526007602052604081205482811015611e17576040805162461bcd60e51b81526020600482015260166024820152754552525f4e4f545f454e4f5547485f42414c414e434560501b604482015290519081900360640190fd5b611e218184611d9e565b6001600160a01b038516600090815260076020526040812082905554909150611e4a9084611d9e565b6000556040805184815290516001600160a01b038616917fcc16f5dbb4873280815c1ee09dbd06736cffcc184412cf7a71a0fdb75d397ca5919081900360200190a26040805184815290516000916001600160a01b038716917fddf252ad1be2c89b69c2b068fc378daa952ba7f163c4a11628f55a4df523b3ef9181900360200190a35060019392505050565b6001600160a01b038216600090815260076020526040812054611efa9083611fad565b6001600160a01b03841660009081526007602052604081209190915554611f219083611fad565b6000556040805183815290516001600160a01b038516917f0f6798a560793a54c3bcfe86a93cde1e73087d944c0ea20544137d4121396885919081900360200190a26040805183815290516001600160a01b038516916000917fddf252ad1be2c89b69c2b068fc378daa952ba7f163c4a11628f55a4df523b3ef9181900360200190a350600192915050565b600082820183811015611fbc57fe5b939250505056fe4552525f415554484f52495a45445f414444524553535f4f4e4c590000000000a265627a7a723058203496a0edfaf92b72ee20768866f6aaf64d7eaab073de3c1f570e9d1bc051782e64736f6c63430005090032",
  "source": "pragma solidity 0.5.9;\nimport \"./StandardToken.sol\";\nimport \"../InterFaces/IAuctionRegistery.sol\";\nimport \"../InterFaces/ICurrencyPrices.sol\";\n\n\ncontract AuctionRegistery is ProxyOwnable, AuctionRegisteryContracts {\n    \n    IAuctionRegistery public registry;\n    IAuctionRegistery public prevRegistry;\n\n    function updateRegistery(address _address)\n        external\n        onlyAuthorized()\n        notZeroAddress(_address)\n        returns (bool)\n    {\n        prevRegistry = registry;\n        registry = IAuctionRegistery(_address);\n        return true;\n    }\n\n    function getAddressOf(bytes32 _contractName)\n        internal\n        view\n        returns (address)\n    {\n        return registry.getAddressOf(_contractName);\n    }\n}\n\n\ncontract TokenMinter is StandardToken {\n    \n    mapping(address=>bool) tokenMinters;\n    \n    mapping(address => uint256) public minterIndex;\n    \n    address[] public minters;\n   \n    modifier onlyMinter() {\n        require(tokenMinters[msg.sender],ERR_AUTHORIZED_ADDRESS_ONLY);\n        _;\n    }\n    \n    function addMinter(address _which) external onlyAuthorized() returns(bool){\n        require(!tokenMinters[_which],ERR_AUTHORIZED_ADDRESS_ONLY);\n        tokenMinters[_which] = true;\n        minterIndex[_which] = minters.length;\n        minters.push(_which);\n        return true;\n        \n    }\n    \n    function removeMinter(address _which) external onlyAuthorized() returns(bool){\n        \n        require(tokenMinters[_which],ERR_AUTHORIZED_ADDRESS_ONLY);\n        \n        uint256 _minterIndex = minterIndex[_which];\n        address _lastAdress = minters[safeSub(minters.length, 1)];\n        minters[_minterIndex] = _lastAdress;\n        minterIndex[_lastAdress] = _minterIndex;\n        delete tokenMinters[_which];\n        delete minters[safeSub(minters.length, 1)];\n        return true;\n        \n    }\n    \n    \n    function mintTokens(uint256 _amount) external onlyMinter() returns(bool){\n        return _mint(msg.sender, _amount);\n    }\n    \n}\n\n\n\n// token paid from vault address\ncontract ForceSwap is StandardToken,AuctionRegistery {\n    \n    address public returnToken;\n    \n    function setReturnToken(address _which) external onlySystem() returns(bool){\n        require(returnToken == address(0),\"ERR_ACTION_NOT_ALLOWED\");\n        returnToken = _which;\n    }\n    \n    function forceSwap(address _which,uint256 _amount) external onlySystem() returns(bool){\n        require(returnToken != address(0),\"ERR_ACTION_NOT_ALLOWED\");\n        _burn(_which,_amount);\n        ICurrencyPrices currencyPrice = ICurrencyPrices(getAddressOf(CURRENCY));\n        uint256 retunTokenPrice = currencyPrice.getCurrencyPrice(returnToken);\n        uint256 currentTokenPrice = currencyPrice.getCurrencyPrice(address(this));\n        uint256 _assignToken = safeDiv(safeMul(_amount,currentTokenPrice),retunTokenPrice);\n        //here we have to develop vault it is not yet developed\n    }\n    \n}\n\n\ncontract SuperTokenUtils is AuctionRegistery,TokenMinter {\n    \n    uint256 public tokenPrice;\n    \n    uint256 public tokenSaleStartDate ;\n\n    uint256 public tokenMaturityDays ;\n\n    uint256 public tokenHoldBackDays ;\n    \n    function isTokenMature() public view returns (bool) {\n        if (tokenMaturityDays == 0) return false;\n        uint256 tempDay = safeMul(86400, tokenMaturityDays);\n        uint256 tempMature = safeAdd(tempDay, tokenSaleStartDate);\n        if (now >= tempMature) {\n            return true;\n        }\n        return false;\n    }\n    \n    function isHoldbackDaysOver() public view returns (bool) {\n        uint256 tempDay = safeMul(86400, tokenHoldBackDays);\n\n        uint256 holdBackDaysEndDay = safeAdd(tempDay, tokenSaleStartDate);\n\n        if (now >= holdBackDaysEndDay) {\n            return true;\n        }\n\n        return false;\n    }\n    \n    \n}",
  "sourcePath": "/home/mind/Work/Projects/Jointer/Jointer_auction/NewContracts/contracts/Tokens/SuperTokenUtils.sol",
  "compiler": {
    "name": "solc",
    "version": "0.5.9+commit.e560f70d.Emscripten.clang"
  },
  "schemaVersion": "3.0.16",
  "updatedAt": "2020-04-22T14:52:56.490Z",
  "devdoc": {
    "methods": {
      "allowance(address,address)": {
        "details": "to check allowed token for transferFrom",
        "params": {
          "_owner": "The address of the account owning tokens",
          "_spender": "The address of the account able to transfer the tokens"
        },
        "return": "Amount of remaining tokens allowed to spent"
      },
      "approve(address,uint256)": {
        "details": "`msg.sender` approves `spender` to spend `value` tokens",
        "params": {
          "_spender": "The address of the account able to transfer the tokens",
          "_value": "The amount of wei to be approved for transfer"
        },
        "return": "Whether the approval was successful or not"
      },
      "approve(address,uint256,uint256)": {
        "details": "`msg.sender` approves `spender` to spend `value` tokensalthough all Dpp work with two argument approve method but we provide this method to ensure user from double spend",
        "params": {
          "_currentValue": "the amount user already apporved",
          "_spender": "The address of the account able to transfer the tokens",
          "_value": "The amount of wei to be approved for transfer"
        },
        "return": "Whether the approval was successful or not"
      },
      "balanceOf(address)": {
        "details": "Gets the balance of the specified address.",
        "params": {
          "_who": "The address to query the the balance of."
        },
        "return": "An uint256 representing the amount owned by the passed address."
      },
      "burn(uint256)": {
        "details": "burn token from this address",
        "params": {
          "_value": "uint256 the amount of tokens to be burned"
        }
      },
      "changeAuthorityAddress(address)": {
        "details": "change system address",
        "params": {
          "_which": "The address to which is new Authority address"
        }
      },
      "changePrimaryOwner(address)": {
        "details": "change primary ownership",
        "params": {
          "_which": "The address to which is new owner address"
        }
      },
      "changeSystemAddress(address)": {
        "details": "change system address",
        "params": {
          "_which": "The address to which is new system address"
        }
      },
      "initializeOwner(address,address,address)": {
        "details": "The Ownable constructor sets the `primaryOwner` and `systemAddress` and '_multisigAddress' account."
      },
      "transfer(address,uint256)": {
        "details": "transfer token for a specified address",
        "params": {
          "_to": "The address to transfer to.",
          "_value": "The amount to be transferred."
        }
      },
      "transferFrom(address,address,uint256)": {
        "details": "Transfer tokens from one address to another",
        "params": {
          "_from": "address The address which you want to send tokens from",
          "_to": "address The address which you want to transfer tokens",
          "_value": "uint256 the amount of tokens to be transferred"
        }
      }
    }
  },
  "userdoc": {
    "methods": {}
  }
}