{
  "contractName": "TokenVault",
  "abi": [
    {
      "constant": false,
      "inputs": [
        {
          "name": "_which",
          "type": "address"
        }
      ],
      "name": "changeSystemAddress",
      "outputs": [
        {
          "name": "",
          "type": "bool"
        }
      ],
      "payable": false,
      "stateMutability": "nonpayable",
      "type": "function"
    },
    {
      "constant": true,
      "inputs": [],
      "name": "newAuthorityAddress",
      "outputs": [
        {
          "name": "",
          "type": "address"
        }
      ],
      "payable": false,
      "stateMutability": "view",
      "type": "function"
    },
    {
      "constant": false,
      "inputs": [],
      "name": "acceptAuthorityAddress",
      "outputs": [
        {
          "name": "",
          "type": "bool"
        }
      ],
      "payable": false,
      "stateMutability": "nonpayable",
      "type": "function"
    },
    {
      "constant": true,
      "inputs": [],
      "name": "authorityAddress",
      "outputs": [
        {
          "name": "",
          "type": "address"
        }
      ],
      "payable": false,
      "stateMutability": "view",
      "type": "function"
    },
    {
      "constant": true,
      "inputs": [],
      "name": "isOwnerInitialize",
      "outputs": [
        {
          "name": "",
          "type": "bool"
        }
      ],
      "payable": false,
      "stateMutability": "view",
      "type": "function"
    },
    {
      "constant": true,
      "inputs": [],
      "name": "implementation",
      "outputs": [
        {
          "name": "",
          "type": "address"
        }
      ],
      "payable": false,
      "stateMutability": "view",
      "type": "function"
    },
    {
      "constant": false,
      "inputs": [
        {
          "name": "_primaryOwner",
          "type": "address"
        },
        {
          "name": "_systemAddress",
          "type": "address"
        },
        {
          "name": "_authorityAddress",
          "type": "address"
        }
      ],
      "name": "initializeOwner",
      "outputs": [],
      "payable": false,
      "stateMutability": "nonpayable",
      "type": "function"
    },
    {
      "constant": true,
      "inputs": [],
      "name": "registry",
      "outputs": [
        {
          "name": "",
          "type": "address"
        }
      ],
      "payable": false,
      "stateMutability": "view",
      "type": "function"
    },
    {
      "constant": true,
      "inputs": [
        {
          "name": "",
          "type": "uint256"
        }
      ],
      "name": "spenders",
      "outputs": [
        {
          "name": "",
          "type": "address"
        }
      ],
      "payable": false,
      "stateMutability": "view",
      "type": "function"
    },
    {
      "constant": false,
      "inputs": [
        {
          "name": "_which",
          "type": "address"
        }
      ],
      "name": "removeSpender",
      "outputs": [
        {
          "name": "",
          "type": "bool"
        }
      ],
      "payable": false,
      "stateMutability": "nonpayable",
      "type": "function"
    },
    {
      "constant": true,
      "inputs": [],
      "name": "primaryOwner",
      "outputs": [
        {
          "name": "",
          "type": "address"
        }
      ],
      "payable": false,
      "stateMutability": "view",
      "type": "function"
    },
    {
      "constant": false,
      "inputs": [
        {
          "name": "_which",
          "type": "address"
        }
      ],
      "name": "changeAuthorityAddress",
      "outputs": [
        {
          "name": "",
          "type": "bool"
        }
      ],
      "payable": false,
      "stateMutability": "nonpayable",
      "type": "function"
    },
    {
      "constant": true,
      "inputs": [
        {
          "name": "",
          "type": "address"
        }
      ],
      "name": "spenderIndex",
      "outputs": [
        {
          "name": "",
          "type": "uint256"
        }
      ],
      "payable": false,
      "stateMutability": "view",
      "type": "function"
    },
    {
      "constant": false,
      "inputs": [
        {
          "name": "_address",
          "type": "address"
        }
      ],
      "name": "updateRegistery",
      "outputs": [
        {
          "name": "",
          "type": "bool"
        }
      ],
      "payable": false,
      "stateMutability": "nonpayable",
      "type": "function"
    },
    {
      "constant": false,
      "inputs": [
        {
          "name": "_which",
          "type": "address"
        }
      ],
      "name": "changePrimaryOwner",
      "outputs": [
        {
          "name": "",
          "type": "bool"
        }
      ],
      "payable": false,
      "stateMutability": "nonpayable",
      "type": "function"
    },
    {
      "constant": true,
      "inputs": [],
      "name": "systemAddress",
      "outputs": [
        {
          "name": "",
          "type": "address"
        }
      ],
      "payable": false,
      "stateMutability": "view",
      "type": "function"
    },
    {
      "constant": true,
      "inputs": [],
      "name": "contractsRegistry",
      "outputs": [
        {
          "name": "",
          "type": "address"
        }
      ],
      "payable": false,
      "stateMutability": "view",
      "type": "function"
    },
    {
      "constant": false,
      "inputs": [
        {
          "name": "_which",
          "type": "address"
        }
      ],
      "name": "addSpender",
      "outputs": [
        {
          "name": "",
          "type": "bool"
        }
      ],
      "payable": false,
      "stateMutability": "nonpayable",
      "type": "function"
    },
    {
      "anonymous": false,
      "inputs": [
        {
          "indexed": true,
          "name": "_by",
          "type": "address"
        },
        {
          "indexed": false,
          "name": "_to",
          "type": "address"
        },
        {
          "indexed": false,
          "name": "_token",
          "type": "address"
        },
        {
          "indexed": false,
          "name": "amount",
          "type": "uint256"
        }
      ],
      "name": "FundTransfer",
      "type": "event"
    },
    {
      "anonymous": false,
      "inputs": [
        {
          "indexed": true,
          "name": "_by",
          "type": "address"
        },
        {
          "indexed": false,
          "name": "_token",
          "type": "address"
        },
        {
          "indexed": false,
          "name": "amount",
          "type": "uint256"
        }
      ],
      "name": "FundAdded",
      "type": "event"
    },
    {
      "anonymous": false,
      "inputs": [
        {
          "indexed": true,
          "name": "_which",
          "type": "address"
        }
      ],
      "name": "TokenSpenderAdded",
      "type": "event"
    },
    {
      "anonymous": false,
      "inputs": [
        {
          "indexed": true,
          "name": "_which",
          "type": "address"
        }
      ],
      "name": "TokenSpenderRemoved",
      "type": "event"
    },
    {
      "anonymous": false,
      "inputs": [
        {
          "indexed": false,
          "name": "ownerType",
          "type": "string"
        },
        {
          "indexed": true,
          "name": "previousOwner",
          "type": "address"
        },
        {
          "indexed": true,
          "name": "newOwner",
          "type": "address"
        }
      ],
      "name": "OwnershipTransferred",
      "type": "event"
    },
    {
      "anonymous": false,
      "inputs": [
        {
          "indexed": true,
          "name": "previousOwner",
          "type": "address"
        },
        {
          "indexed": true,
          "name": "newOwner",
          "type": "address"
        }
      ],
      "name": "AuthorityAddressChnageCall",
      "type": "event"
    },
    {
      "constant": true,
      "inputs": [],
      "name": "initialize",
      "outputs": [],
      "payable": false,
      "stateMutability": "view",
      "type": "function"
    },
    {
      "constant": false,
      "inputs": [
        {
          "name": "_primaryOwner",
          "type": "address"
        },
        {
          "name": "_systemAddress",
          "type": "address"
        },
        {
          "name": "_authorityAddress",
          "type": "address"
        },
        {
          "name": "_registeryAddress",
          "type": "address"
        }
      ],
      "name": "initialize",
      "outputs": [],
      "payable": false,
      "stateMutability": "nonpayable",
      "type": "function"
    },
    {
      "constant": false,
      "inputs": [],
      "name": "depositeEther",
      "outputs": [
        {
          "name": "",
          "type": "bool"
        }
      ],
      "payable": true,
      "stateMutability": "payable",
      "type": "function"
    },
    {
      "constant": false,
      "inputs": [
        {
          "name": "_token",
          "type": "address"
        },
        {
          "name": "_from",
          "type": "address"
        },
        {
          "name": "amount",
          "type": "uint256"
        }
      ],
      "name": "depositeToken",
      "outputs": [
        {
          "name": "",
          "type": "bool"
        }
      ],
      "payable": false,
      "stateMutability": "nonpayable",
      "type": "function"
    },
    {
      "constant": false,
      "inputs": [
        {
          "name": "_token",
          "type": "address"
        },
        {
          "name": "_to",
          "type": "address"
        },
        {
          "name": "amount",
          "type": "uint256"
        }
      ],
      "name": "directTransfer",
      "outputs": [
        {
          "name": "",
          "type": "bool"
        }
      ],
      "payable": false,
      "stateMutability": "nonpayable",
      "type": "function"
    }
  ],
  "bytecode": "0x6080604052600280546001600160a01b03199081169091556003805482169055600480549091169055600580546001600160a81b031916905534801561004457600080fd5b50611b88806100546000396000f3fe6080604052600436106101405760003560e01c80638e10be33116100b6578063d3e848f11161006f578063d3e848f114610415578063d98d0c7e1461042a578063e799b3f51461043f578063e7e31e7a14610447578063f83d17911461047a578063f8c8765e146104bd57610140565b80638e10be33146102df5780638f51368b146102f4578063a1d2def014610327578063bc1366fe1461036c578063c1bc42bb1461039f578063c4d34268146103e257610140565b80635c60da1b116101085780635c60da1b146101fc578063760e595a146102115780637b103999146102585780638129fc1c1461026d57806387cab37e146102825780638ce5877c146102ac57610140565b806304d63089146101455780630abaad7a1461018c57806320c462fe146101bd5780633c695d4e146101d25780633ff59a52146101e7575b600080fd5b34801561015157600080fd5b506101786004803603602081101561016857600080fd5b50356001600160a01b0316610508565b604080519115158252519081900360200190f35b34801561019857600080fd5b506101a1610819565b604080516001600160a01b039092168252519081900360200190f35b3480156101c957600080fd5b50610178610828565b3480156101de57600080fd5b506101a161093d565b3480156101f357600080fd5b5061017861094c565b34801561020857600080fd5b506101a161095c565b34801561021d57600080fd5b506102566004803603606081101561023457600080fd5b506001600160a01b03813581169160208101358216916040909101351661096b565b005b34801561026457600080fd5b506101a1610d41565b34801561027957600080fd5b50610256610d50565b34801561028e57600080fd5b506101a1600480360360208110156102a557600080fd5b5035610db1565b3480156102b857600080fd5b50610178600480360360208110156102cf57600080fd5b50356001600160a01b0316610dd8565b3480156102eb57600080fd5b506101a1610ffa565b34801561030057600080fd5b506101786004803603602081101561031757600080fd5b50356001600160a01b0316611009565b34801561033357600080fd5b5061035a6004803603602081101561034a57600080fd5b50356001600160a01b03166111ea565b60408051918252519081900360200190f35b34801561037857600080fd5b506101786004803603602081101561038f57600080fd5b50356001600160a01b03166111fc565b3480156103ab57600080fd5b50610178600480360360608110156103c257600080fd5b506001600160a01b03813581169160208101359091169060400135611321565b3480156103ee57600080fd5b506101786004803603602081101561040557600080fd5b50356001600160a01b031661137e565b34801561042157600080fd5b506101a16115c1565b34801561043657600080fd5b506101a16115d0565b6101786115df565b34801561045357600080fd5b506101786004803603602081101561046a57600080fd5b50356001600160a01b0316611622565b34801561048657600080fd5b506101786004803603606081101561049d57600080fd5b506001600160a01b038135811691602081013590911690604001356117d0565b3480156104c957600080fd5b50610256600480360360808110156104e057600080fd5b506001600160a01b03813581169160208101358216916040820135811691606001351661186b565b60035460408051808201909152601b8152600080516020611b3483398151915260208201526000916001600160a01b031633146105c35760405162461bcd60e51b81526004018080602001828103825283818151815260200191508051906020019080838360005b83811015610588578181015183820152602001610570565b50505050905090810190601f1680156105b55780820380516001836020036101000a031916815260200191505b509250505060405180910390fd5b5060408051808201909152601981527f4552525f434f4e54524143545f53454c465f4144445245535300000000000000602082015282906001600160a01b0382163014156106525760405162461bcd60e51b8152602060048201818152835160248401528351909283926044909101919085019080838360008315610588578181015183820152602001610570565b5060408051808201909152601081526f4552525f5a45524f5f4144445245535360801b602082015283906001600160a01b0382166106d15760405162461bcd60e51b8152602060048201818152835160248401528351909283926044909101919085019080838360008315610588578181015183820152602001610570565b506005546001600160a01b038581169116148015906106fe57506003546001600160a01b03858116911614155b801561071857506002546001600160a01b03858116911614155b6040518060400160405280601081526020016f4552525f53414d455f4144445245535360801b8152509061078d5760405162461bcd60e51b8152602060048201818152835160248401528351909283926044909101919085019080838360008315610588578181015183820152602001610570565b50600554604080516020808252600e908201526d53595354454d5f4144445245535360901b8183015290516001600160a01b038088169316917f6840904f5b31827f74e1497360da245f56e530c8c3de3163a2d31f11493273c6919081900360600190a3600580546001600160a01b0386166001600160a01b0319909116179055600192505050919050565b6004546001600160a01b031681565b60045460408051808201909152601b8152600080516020611b3483398151915260208201526000916001600160a01b031633146108a65760405162461bcd60e51b8152602060048201818152835160248401528351909283926044909101919085019080838360008315610588578181015183820152602001610570565b5060045460035460408051602080825260119082015270415554484f524954595f4144445245535360781b8183015290516001600160a01b039384169392909216917f6840904f5b31827f74e1497360da245f56e530c8c3de3163a2d31f11493273c69181900360600190a35060048054600380546001600160a01b03199081166001600160a01b03841617909155169055600190565b6003546001600160a01b031681565b600554600160a01b900460ff1681565b6001546001600160a01b031690565b60408051808201909152601081526f4552525f5a45524f5f4144445245535360801b602082015283906001600160a01b0382166109e95760405162461bcd60e51b8152602060048201818152835160248401528351909283926044909101919085019080838360008315610588578181015183820152602001610570565b5060408051808201909152601081526f4552525f5a45524f5f4144445245535360801b602082015283906001600160a01b038216610a685760405162461bcd60e51b8152602060048201818152835160248401528351909283926044909101919085019080838360008315610588578181015183820152602001610570565b5060408051808201909152601081526f4552525f5a45524f5f4144445245535360801b602082015283906001600160a01b038216610ae75760405162461bcd60e51b8152602060048201818152835160248401528351909283926044909101919085019080838360008315610588578181015183820152602001610570565b50600554600160a01b900460ff1615610b47576040805162461bcd60e51b815260206004820152601c60248201527f4552525f4f574e45525f494e5449414c495a45445f414c524541445900000000604482015290519081900360640190fd5b846001600160a01b0316866001600160a01b031614156040518060400160405280601081526020016f4552525f53414d455f4144445245535360801b81525090610bd25760405162461bcd60e51b8152602060048201818152835160248401528351909283926044909101919085019080838360008315610588578181015183820152602001610570565b50836001600160a01b0316856001600160a01b031614156040518060400160405280601081526020016f4552525f53414d455f4144445245535360801b81525090610c5e5760405162461bcd60e51b8152602060048201818152835160248401528351909283926044909101919085019080838360008315610588578181015183820152602001610570565b50836001600160a01b0316866001600160a01b031614156040518060400160405280601081526020016f4552525f53414d455f4144445245535360801b81525090610cea5760405162461bcd60e51b8152602060048201818152835160248401528351909283926044909101919085019080838360008315610588578181015183820152602001610570565b5050600280546001600160a01b039687166001600160a01b03199182161790915560058054600380549689169684169690961790955560ff60a01b199590961693169290921792909216600160a01b179092555050565b6000546001600160a01b031681565b6000546001600160a01b03163314610daf576040805162461bcd60e51b815260206004820152601c60248201527f4552525f4f4e4c595f524547495354524552595f43414e5f43414c4c00000000604482015290519081900360640190fd5b565b60098181548110610dbe57fe5b6000918252602090912001546001600160a01b0316905081565b60035460408051808201909152601b8152600080516020611b3483398151915260208201526000916001600160a01b03163314610e565760405162461bcd60e51b8152602060048201818152835160248401528351909283926044909101919085019080838360008315610588578181015183820152602001610570565b506001600160a01b038216600090815260076020908152604091829020548251808401909352601b8352600080516020611b348339815191529183019190915260ff16610ee45760405162461bcd60e51b8152602060048201818152835160248401528351909283926044909101919085019080838360008315610588578181015183820152602001610570565b506001600160a01b03821660009081526008602052604081205460098054919291610f1090600161189f565b81548110610f1a57fe5b600091825260209091200154600980546001600160a01b039092169250829184908110610f4357fe5b600091825260208083209190910180546001600160a01b0319166001600160a01b03948516179055838316825260088152604080832086905592871682526007905220805460ff1916905560098054610f9d90600161189f565b81548110610fa757fe5b6000918252602082200180546001600160a01b03191690556040516001600160a01b038616917ff77c089a89f0844cd175dad1c5d0fe2d543b1f42a37bddefd9c1ebac72b26d3191a25060019392505050565b6002546001600160a01b031681565b60035460408051808201909152601b8152600080516020611b3483398151915260208201526000916001600160a01b031633146110875760405162461bcd60e51b8152602060048201818152835160248401528351909283926044909101919085019080838360008315610588578181015183820152602001610570565b5060408051808201909152601081526f4552525f5a45524f5f4144445245535360801b602082015282906001600160a01b0382166111065760405162461bcd60e51b8152602060048201818152835160248401528351909283926044909101919085019080838360008315610588578181015183820152602001610570565b506005546001600160a01b0384811691161480159061113357506003546001600160a01b03848116911614155b801561114d57506002546001600160a01b03848116911614155b6040518060400160405280601081526020016f4552525f53414d455f4144445245535360801b815250906111c25760405162461bcd60e51b8152602060048201818152835160248401528351909283926044909101919085019080838360008315610588578181015183820152602001610570565b50600480546001600160a01b0385166001600160a01b03199091161790556001915050919050565b60086020526000908152604090205481565b60035460408051808201909152601b8152600080516020611b3483398151915260208201526000916001600160a01b0316331461127a5760405162461bcd60e51b8152602060048201818152835160248401528351909283926044909101919085019080838360008315610588578181015183820152602001610570565b5060408051808201909152601081526f4552525f5a45524f5f4144445245535360801b602082015282906001600160a01b0382166112f95760405162461bcd60e51b8152602060048201818152835160248401528351909283926044909101919085019080838360008315610588578181015183820152602001610570565b50600680546001600160a01b0385166001600160a01b03199091161790556001915050919050565b604080516001600160a01b038581168252602082018490528251600093918616927fcb9b7f38bc80f58c8b9fc24bc28a2364a4386149db3cf9ca060973fad2cc377392908290030190a2611377848430856118b1565b9392505050565b60035460408051808201909152601b8152600080516020611b3483398151915260208201526000916001600160a01b031633146113fc5760405162461bcd60e51b8152602060048201818152835160248401528351909283926044909101919085019080838360008315610588578181015183820152602001610570565b5060408051808201909152601081526f4552525f5a45524f5f4144445245535360801b602082015282906001600160a01b03821661147b5760405162461bcd60e51b8152602060048201818152835160248401528351909283926044909101919085019080838360008315610588578181015183820152602001610570565b506005546001600160a01b038481169116148015906114a857506003546001600160a01b03848116911614155b80156114c257506002546001600160a01b03848116911614155b6040518060400160405280601081526020016f4552525f53414d455f4144445245535360801b815250906115375760405162461bcd60e51b8152602060048201818152835160248401528351909283926044909101919085019080838360008315610588578181015183820152602001610570565b50600254604080516020808252600d908201526c282924a6a0a92cafa7aba722a960991b8183015290516001600160a01b038087169316917f6840904f5b31827f74e1497360da245f56e530c8c3de3163a2d31f11493273c6919081900360600190a3600280546001600160a01b0385166001600160a01b03199091161790556001915050919050565b6005546001600160a01b031681565b6006546001600160a01b031681565b6040805160008082523460208301528251909233927fcb9b7f38bc80f58c8b9fc24bc28a2364a4386149db3cf9ca060973fad2cc3773929081900390910190a290565b60035460408051808201909152601b8152600080516020611b3483398151915260208201526000916001600160a01b031633146116a05760405162461bcd60e51b8152602060048201818152835160248401528351909283926044909101919085019080838360008315610588578181015183820152602001610570565b506001600160a01b038216600090815260076020908152604091829020548251808401909352601b8352600080516020611b348339815191529183019190915260ff161561172f5760405162461bcd60e51b8152602060048201818152835160248401528351909283926044909101919085019080838360008315610588578181015183820152602001610570565b506001600160a01b0382166000818152600760209081526040808320805460ff19166001908117909155600980546008909452828520849055908301815583527f6e1540171b6c0c960b71a7020d9f60077f6af931a8bbf590da0223dacf75c7af90910180546001600160a01b03191684179055517f32f37e1dd9105b24bdc051c8e41b1c710f207a26f1c94f3e0aeab464d941fabb9190a2506001919050565b336000908152600760209081526040808320548151808301909252601b8252600080516020611b34833981519152928201929092529060ff166118545760405162461bcd60e51b8152602060048201818152835160248401528351909283926044909101919085019080838360008315610588578181015183820152602001610570565b50611861843085856118b1565b5060019392505050565b611873610d50565b600680546001600160a01b0319166001600160a01b03831617905561189984848461096b565b50505050565b6000828211156118ab57fe5b50900390565b6000846001600160a01b03166370a08231846040518263ffffffff1660e01b815260040180826001600160a01b03166001600160a01b0316815260200191505060206040518083038186803b15801561190957600080fd5b505afa15801561191d573d6000803e3d6000fd5b505050506040513d602081101561193357600080fd5b505190506001600160a01b0384163014156119da57846001600160a01b031663a9059cbb84846040518363ffffffff1660e01b815260040180836001600160a01b03166001600160a01b0316815260200182815260200192505050602060405180830381600087803b1580156119a857600080fd5b505af11580156119bc573d6000803e3d6000fd5b505050506040513d60208110156119d257600080fd5b50611a629050565b604080516323b872dd60e01b81526001600160a01b0386811660048301528581166024830152604482018590529151918716916323b872dd916064808201926020929091908290030181600087803b158015611a3557600080fd5b505af1158015611a49573d6000803e3d6000fd5b505050506040513d6020811015611a5f57600080fd5b50505b6000856001600160a01b03166370a08231856040518263ffffffff1660e01b815260040180826001600160a01b03166001600160a01b0316815260200191505060206040518083038186803b158015611aba57600080fd5b505afa158015611ace573d6000803e3d6000fd5b505050506040513d6020811015611ae457600080fd5b50519050818111611b2b576040805162461bcd60e51b815260206004820152600c60248201526b22a9292faa2920a729a322a960a11b604482015290519081900360640190fd5b50505050505056fe4552525f415554484f52495a45445f414444524553535f4f4e4c590000000000a265627a7a723058209bcb78dfabf27fc909bce406925d2a6917d9e53d4cbd3e348158bf8c2e34bb2964736f6c63430005090032",
  "source": "pragma solidity ^0.5.9;\n\nimport \"../common/ProxyOwnable.sol\";\nimport \"../common/SafeMath.sol\";\nimport \"../Proxy/Upgradeable.sol\";\nimport \"../InterFaces/IAuctionRegistery.sol\";\nimport \"../InterFaces/IERC20Token.sol\";\n\n\ninterface InitializeInterface {\n    function initialize(\n        address _primaryOwner,\n        address _systemAddress,\n        address _authorityAddress,\n        address _registeryAddress\n    ) external;\n}\n\n\ncontract AuctionRegistery is ProxyOwnable, AuctionRegisteryContracts {\n    IAuctionRegistery public contractsRegistry;\n\n    function updateRegistery(address _address)\n        external\n        onlyAuthorized()\n        notZeroAddress(_address)\n        returns (bool)\n    {\n        contractsRegistry = IAuctionRegistery(_address);\n        return true;\n    }\n\n    function getAddressOf(bytes32 _contractName)\n        internal\n        view\n        returns (address)\n    {\n        return contractsRegistry.getAddressOf(_contractName);\n    }\n}\n\n\ncontract TokenSpenders is AuctionRegistery, SafeMath {\n    mapping(address => bool) isSpender;\n\n    mapping(address => uint256) public spenderIndex;\n\n    address[] public spenders;\n\n    event TokenSpenderAdded(address indexed _which);\n\n    event TokenSpenderRemoved(address indexed _which);\n\n    modifier onlySpender() {\n        require(isSpender[msg.sender], ERR_AUTHORIZED_ADDRESS_ONLY);\n        _;\n    }\n\n    function addSpender(address _which)\n        external\n        onlyAuthorized()\n        returns (bool)\n    {\n        require(!isSpender[_which], ERR_AUTHORIZED_ADDRESS_ONLY);\n        isSpender[_which] = true;\n        spenderIndex[_which] = spenders.length;\n        spenders.push(_which);\n        emit TokenSpenderAdded(_which);\n        return true;\n    }\n\n    function removeSpender(address _which)\n        external\n        onlyAuthorized()\n        returns (bool)\n    {\n        require(isSpender[_which], ERR_AUTHORIZED_ADDRESS_ONLY);\n\n        uint256 _spenderIndex = spenderIndex[_which];\n        address _lastAdress = spenders[safeSub(spenders.length, 1)];\n        spenders[_spenderIndex] = _lastAdress;\n        spenderIndex[_lastAdress] = _spenderIndex;\n        delete isSpender[_which];\n        delete spenders[safeSub(spenders.length, 1)];\n        emit TokenSpenderRemoved(_which);\n        return true;\n    }\n}\n\n\ncontract TokenVault is Upgradeable, TokenSpenders, InitializeInterface {\n    event FundTransfer(\n        address indexed _by,\n        address _to,\n        address _token,\n        uint256 amount\n    );\n\n    event FundAdded(address indexed _by, address _token, uint256 amount);\n\n    function initialize(\n        address _primaryOwner,\n        address _systemAddress,\n        address _authorityAddress,\n        address _registeryAddress\n    ) public {\n        super.initialize();\n        contractsRegistry = IAuctionRegistery(_registeryAddress);\n        ProxyOwnable.initializeOwner(\n            _primaryOwner,\n            _systemAddress,\n            _authorityAddress\n        );\n    }\n\n    function ensureTransferFrom(\n        IERC20Token _token,\n        address _from,\n        address _to,\n        uint256 _amount\n    ) internal {\n        uint256 prevBalance = _token.balanceOf(_to);\n        if (_from == address(this)) _token.transfer(_to, _amount);\n        else _token.transferFrom(_from, _to, _amount);\n        uint256 postBalance = _token.balanceOf(_to);\n        require(postBalance > prevBalance, \"ERR_TRANSFER\");\n    }\n\n    function approveTransferFrom(\n        IERC20Token _token,\n        address _spender,\n        uint256 _amount\n    ) internal {\n        _token.approve(_spender, _amount);\n    }\n\n    function depositeEther() external payable returns (bool) {\n        emit FundAdded(msg.sender, address(0), msg.value);\n    }\n\n    function depositeToken(address _token, address _from, uint256 amount)\n        external\n        returns (bool)\n    {\n        emit FundAdded(_from, _token, amount);\n        ensureTransferFrom(IERC20Token(_token), _from, address(this), amount);\n    }\n\n    function directTransfer(address _token, address _to, uint256 amount)\n        external\n        onlySpender()\n        returns (bool)\n    {\n        ensureTransferFrom(IERC20Token(_token), address(this), _to, amount);\n        return true;\n    }\n}\n",
  "sourcePath": "/home/mind/Work/Projects/Jointer/Jointer_auction/NewContracts/contracts/TokenVault/TokenVault.sol",
  "compiler": {
    "name": "solc",
    "version": "0.5.9+commit.e560f70d.Emscripten.clang"
  },
  "schemaVersion": "3.0.16",
  "updatedAt": "2020-05-04T15:22:10.561Z",
  "devdoc": {
    "methods": {
      "changeAuthorityAddress(address)": {
        "details": "change system address",
        "params": {
          "_which": "The address to which is new Authority address"
        }
      },
      "changePrimaryOwner(address)": {
        "details": "change primary ownership",
        "params": {
          "_which": "The address to which is new owner address"
        }
      },
      "changeSystemAddress(address)": {
        "details": "change system address",
        "params": {
          "_which": "The address to which is new system address"
        }
      },
      "implementation()": {
        "details": "Tells the address of the current implementation",
        "return": "address of the current implementation"
      },
      "initialize()": {
        "details": "Validates the caller is the versions registry. THIS FUNCTION SHOULD BE OVERRIDDEN CALLING SUPER"
      },
      "initializeOwner(address,address,address)": {
        "details": "The Ownable constructor sets the `primaryOwner` and `systemAddress` and '_multisigAddress' account."
      }
    }
  },
  "userdoc": {
    "methods": {}
  }
}