{
  "contractName": "TokenVault",
  "abi": [
    {
      "constant": false,
      "inputs": [
        {
          "name": "_which",
          "type": "address"
        }
      ],
      "name": "changeSystemAddress",
      "outputs": [
        {
          "name": "",
          "type": "bool"
        }
      ],
      "payable": false,
      "stateMutability": "nonpayable",
      "type": "function"
    },
    {
      "constant": true,
      "inputs": [],
      "name": "newAuthorityAddress",
      "outputs": [
        {
          "name": "",
          "type": "address"
        }
      ],
      "payable": false,
      "stateMutability": "view",
      "type": "function"
    },
    {
      "constant": false,
      "inputs": [],
      "name": "acceptAuthorityAddress",
      "outputs": [
        {
          "name": "",
          "type": "bool"
        }
      ],
      "payable": false,
      "stateMutability": "nonpayable",
      "type": "function"
    },
    {
      "constant": true,
      "inputs": [],
      "name": "authorityAddress",
      "outputs": [
        {
          "name": "",
          "type": "address"
        }
      ],
      "payable": false,
      "stateMutability": "view",
      "type": "function"
    },
    {
      "constant": true,
      "inputs": [],
      "name": "isOwnerInitialize",
      "outputs": [
        {
          "name": "",
          "type": "bool"
        }
      ],
      "payable": false,
      "stateMutability": "view",
      "type": "function"
    },
    {
      "constant": true,
      "inputs": [],
      "name": "implementation",
      "outputs": [
        {
          "name": "",
          "type": "address"
        }
      ],
      "payable": false,
      "stateMutability": "view",
      "type": "function"
    },
    {
      "constant": false,
      "inputs": [
        {
          "name": "_primaryOwner",
          "type": "address"
        },
        {
          "name": "_systemAddress",
          "type": "address"
        },
        {
          "name": "_authorityAddress",
          "type": "address"
        }
      ],
      "name": "initializeOwner",
      "outputs": [],
      "payable": false,
      "stateMutability": "nonpayable",
      "type": "function"
    },
    {
      "constant": true,
      "inputs": [],
      "name": "registry",
      "outputs": [
        {
          "name": "",
          "type": "address"
        }
      ],
      "payable": false,
      "stateMutability": "view",
      "type": "function"
    },
    {
      "constant": true,
      "inputs": [
        {
          "name": "",
          "type": "uint256"
        }
      ],
      "name": "spenders",
      "outputs": [
        {
          "name": "",
          "type": "address"
        }
      ],
      "payable": false,
      "stateMutability": "view",
      "type": "function"
    },
    {
      "constant": false,
      "inputs": [
        {
          "name": "_which",
          "type": "address"
        }
      ],
      "name": "removeSpender",
      "outputs": [
        {
          "name": "",
          "type": "bool"
        }
      ],
      "payable": false,
      "stateMutability": "nonpayable",
      "type": "function"
    },
    {
      "constant": true,
      "inputs": [],
      "name": "primaryOwner",
      "outputs": [
        {
          "name": "",
          "type": "address"
        }
      ],
      "payable": false,
      "stateMutability": "view",
      "type": "function"
    },
    {
      "constant": false,
      "inputs": [
        {
          "name": "_which",
          "type": "address"
        }
      ],
      "name": "changeAuthorityAddress",
      "outputs": [
        {
          "name": "",
          "type": "bool"
        }
      ],
      "payable": false,
      "stateMutability": "nonpayable",
      "type": "function"
    },
    {
      "constant": true,
      "inputs": [
        {
          "name": "",
          "type": "address"
        }
      ],
      "name": "spenderIndex",
      "outputs": [
        {
          "name": "",
          "type": "uint256"
        }
      ],
      "payable": false,
      "stateMutability": "view",
      "type": "function"
    },
    {
      "constant": false,
      "inputs": [
        {
          "name": "_address",
          "type": "address"
        }
      ],
      "name": "updateRegistery",
      "outputs": [
        {
          "name": "",
          "type": "bool"
        }
      ],
      "payable": false,
      "stateMutability": "nonpayable",
      "type": "function"
    },
    {
      "constant": false,
      "inputs": [
        {
          "name": "_which",
          "type": "address"
        }
      ],
      "name": "changePrimaryOwner",
      "outputs": [
        {
          "name": "",
          "type": "bool"
        }
      ],
      "payable": false,
      "stateMutability": "nonpayable",
      "type": "function"
    },
    {
      "constant": true,
      "inputs": [],
      "name": "systemAddress",
      "outputs": [
        {
          "name": "",
          "type": "address"
        }
      ],
      "payable": false,
      "stateMutability": "view",
      "type": "function"
    },
    {
      "constant": true,
      "inputs": [],
      "name": "contractsRegistry",
      "outputs": [
        {
          "name": "",
          "type": "address"
        }
      ],
      "payable": false,
      "stateMutability": "view",
      "type": "function"
    },
    {
      "constant": false,
      "inputs": [
        {
          "name": "_which",
          "type": "address"
        }
      ],
      "name": "addSpender",
      "outputs": [
        {
          "name": "",
          "type": "bool"
        }
      ],
      "payable": false,
      "stateMutability": "nonpayable",
      "type": "function"
    },
    {
      "anonymous": false,
      "inputs": [
        {
          "indexed": true,
          "name": "_by",
          "type": "address"
        },
        {
          "indexed": false,
          "name": "_to",
          "type": "address"
        },
        {
          "indexed": false,
          "name": "_token",
          "type": "address"
        },
        {
          "indexed": false,
          "name": "amount",
          "type": "uint256"
        }
      ],
      "name": "FundTransfer",
      "type": "event"
    },
    {
      "anonymous": false,
      "inputs": [
        {
          "indexed": false,
          "name": "_token",
          "type": "address"
        },
        {
          "indexed": false,
          "name": "_from",
          "type": "address"
        },
        {
          "indexed": false,
          "name": "_amount",
          "type": "uint256"
        }
      ],
      "name": "FundDeposited",
      "type": "event"
    },
    {
      "anonymous": false,
      "inputs": [
        {
          "indexed": true,
          "name": "_which",
          "type": "address"
        }
      ],
      "name": "TokenSpenderAdded",
      "type": "event"
    },
    {
      "anonymous": false,
      "inputs": [
        {
          "indexed": true,
          "name": "_which",
          "type": "address"
        }
      ],
      "name": "TokenSpenderRemoved",
      "type": "event"
    },
    {
      "anonymous": false,
      "inputs": [
        {
          "indexed": false,
          "name": "ownerType",
          "type": "string"
        },
        {
          "indexed": true,
          "name": "previousOwner",
          "type": "address"
        },
        {
          "indexed": true,
          "name": "newOwner",
          "type": "address"
        }
      ],
      "name": "OwnershipTransferred",
      "type": "event"
    },
    {
      "anonymous": false,
      "inputs": [
        {
          "indexed": true,
          "name": "previousOwner",
          "type": "address"
        },
        {
          "indexed": true,
          "name": "newOwner",
          "type": "address"
        }
      ],
      "name": "AuthorityAddressChnageCall",
      "type": "event"
    },
    {
      "constant": true,
      "inputs": [],
      "name": "initialize",
      "outputs": [],
      "payable": false,
      "stateMutability": "view",
      "type": "function"
    },
    {
      "constant": false,
      "inputs": [
        {
          "name": "_primaryOwner",
          "type": "address"
        },
        {
          "name": "_systemAddress",
          "type": "address"
        },
        {
          "name": "_authorityAddress",
          "type": "address"
        },
        {
          "name": "_registeryAddress",
          "type": "address"
        }
      ],
      "name": "initialize",
      "outputs": [],
      "payable": false,
      "stateMutability": "nonpayable",
      "type": "function"
    },
    {
      "constant": false,
      "inputs": [],
      "name": "depositeEther",
      "outputs": [
        {
          "name": "",
          "type": "bool"
        }
      ],
      "payable": true,
      "stateMutability": "payable",
      "type": "function"
    },
    {
      "constant": false,
      "inputs": [
        {
          "name": "_token",
          "type": "address"
        },
        {
          "name": "_from",
          "type": "address"
        },
        {
          "name": "_amount",
          "type": "uint256"
        }
      ],
      "name": "depositeToken",
      "outputs": [
        {
          "name": "",
          "type": "bool"
        }
      ],
      "payable": false,
      "stateMutability": "nonpayable",
      "type": "function"
    },
    {
      "constant": false,
      "inputs": [
        {
          "name": "_token",
          "type": "address"
        },
        {
          "name": "_to",
          "type": "address"
        },
        {
          "name": "amount",
          "type": "uint256"
        }
      ],
      "name": "directTransfer",
      "outputs": [
        {
          "name": "",
          "type": "bool"
        }
      ],
      "payable": false,
      "stateMutability": "nonpayable",
      "type": "function"
    },
    {
      "constant": false,
      "inputs": [
        {
          "name": "_to",
          "type": "address"
        },
        {
          "name": "amount",
          "type": "uint256"
        }
      ],
      "name": "transferEther",
      "outputs": [
        {
          "name": "",
          "type": "bool"
        }
      ],
      "payable": false,
      "stateMutability": "nonpayable",
      "type": "function"
    }
  ],
  "bytecode": "0x6080604052600280546001600160a01b03199081169091556003805482169055600480549091169055600580546001600160a81b031916905534801561004457600080fd5b50611d31806100546000396000f3fe60806040526004361061014b5760003560e01c80638e10be33116100b6578063d3e848f11161006f578063d3e848f114610459578063d98d0c7e1461046e578063e799b3f514610483578063e7e31e7a1461048b578063f83d1791146104be578063f8c8765e146105015761014b565b80638e10be33146103235780638f51368b14610338578063a1d2def01461036b578063bc1366fe146103b0578063c1bc42bb146103e3578063c4d34268146104265761014b565b80635c60da1b116101085780635c60da1b14610240578063760e595a146102555780637b1039991461029c5780638129fc1c146102b157806387cab37e146102c65780638ce5877c146102f05761014b565b806304d630891461015057806305b1137b146101975780630abaad7a146101d057806320c462fe146102015780633c695d4e146102165780633ff59a521461022b575b600080fd5b34801561015c57600080fd5b506101836004803603602081101561017357600080fd5b50356001600160a01b031661054c565b604080519115158252519081900360200190f35b3480156101a357600080fd5b50610183600480360360408110156101ba57600080fd5b506001600160a01b03813516906020013561085d565b3480156101dc57600080fd5b506101e561096e565b604080516001600160a01b039092168252519081900360200190f35b34801561020d57600080fd5b5061018361097d565b34801561022257600080fd5b506101e5610a92565b34801561023757600080fd5b50610183610aa1565b34801561024c57600080fd5b506101e5610ab1565b34801561026157600080fd5b5061029a6004803603606081101561027857600080fd5b506001600160a01b038135811691602081013582169160409091013516610ac0565b005b3480156102a857600080fd5b506101e5610e96565b3480156102bd57600080fd5b5061029a610ea5565b3480156102d257600080fd5b506101e5600480360360208110156102e957600080fd5b5035610f06565b3480156102fc57600080fd5b506101836004803603602081101561031357600080fd5b50356001600160a01b0316610f2d565b34801561032f57600080fd5b506101e561114f565b34801561034457600080fd5b506101836004803603602081101561035b57600080fd5b50356001600160a01b031661115e565b34801561037757600080fd5b5061039e6004803603602081101561038e57600080fd5b50356001600160a01b031661133f565b60408051918252519081900360200190f35b3480156103bc57600080fd5b50610183600480360360208110156103d357600080fd5b50356001600160a01b0316611351565b3480156103ef57600080fd5b506101836004803603606081101561040657600080fd5b506001600160a01b03813581169160208101359091169060400135611476565b34801561043257600080fd5b506101836004803603602081101561044957600080fd5b50356001600160a01b03166114d7565b34801561046557600080fd5b506101e561171a565b34801561047a57600080fd5b506101e5611729565b610183611738565b34801561049757600080fd5b50610183600480360360208110156104ae57600080fd5b50356001600160a01b031661177e565b3480156104ca57600080fd5b50610183600480360360608110156104e157600080fd5b506001600160a01b0381358116916020810135909116906040013561192c565b34801561050d57600080fd5b5061029a6004803603608081101561052457600080fd5b506001600160a01b038135811691602081013582169160408201358116916060013516611a14565b60035460408051808201909152601b8152600080516020611cdd83398151915260208201526000916001600160a01b031633146106075760405162461bcd60e51b81526004018080602001828103825283818151815260200191508051906020019080838360005b838110156105cc5781810151838201526020016105b4565b50505050905090810190601f1680156105f95780820380516001836020036101000a031916815260200191505b509250505060405180910390fd5b5060408051808201909152601981527f4552525f434f4e54524143545f53454c465f4144445245535300000000000000602082015282906001600160a01b0382163014156106965760405162461bcd60e51b81526020600482018181528351602484015283519092839260449091019190850190808383600083156105cc5781810151838201526020016105b4565b5060408051808201909152601081526f4552525f5a45524f5f4144445245535360801b602082015283906001600160a01b0382166107155760405162461bcd60e51b81526020600482018181528351602484015283519092839260449091019190850190808383600083156105cc5781810151838201526020016105b4565b506005546001600160a01b0385811691161480159061074257506003546001600160a01b03858116911614155b801561075c57506002546001600160a01b03858116911614155b6040518060400160405280601081526020016f4552525f53414d455f4144445245535360801b815250906107d15760405162461bcd60e51b81526020600482018181528351602484015283519092839260449091019190850190808383600083156105cc5781810151838201526020016105b4565b50600554604080516020808252600e908201526d53595354454d5f4144445245535360901b8183015290516001600160a01b038088169316917f6840904f5b31827f74e1497360da245f56e530c8c3de3163a2d31f11493273c6919081900360600190a3600580546001600160a01b0386166001600160a01b0319909116179055600192505050919050565b336000908152600760209081526040808320548151808301909252601b8252600080516020611cdd833981519152928201929092529060ff166108e15760405162461bcd60e51b81526020600482018181528351602484015283519092839260449091019190850190808383600083156105cc5781810151838201526020016105b4565b506040516001600160a01b0384169083156108fc029084906000818181858888f19350505050158015610918573d6000803e3d6000fd5b50604080516001600160a01b038516815260006020820152808201849052905133917f8dae5adcd19d0e3ad64f98accb2ca948a4350bedd1116a9732e5043bd46f5775919081900360600190a250600192915050565b6004546001600160a01b031681565b60045460408051808201909152601b8152600080516020611cdd83398151915260208201526000916001600160a01b031633146109fb5760405162461bcd60e51b81526020600482018181528351602484015283519092839260449091019190850190808383600083156105cc5781810151838201526020016105b4565b5060045460035460408051602080825260119082015270415554484f524954595f4144445245535360781b8183015290516001600160a01b039384169392909216917f6840904f5b31827f74e1497360da245f56e530c8c3de3163a2d31f11493273c69181900360600190a35060048054600380546001600160a01b03199081166001600160a01b03841617909155169055600190565b6003546001600160a01b031681565b600554600160a01b900460ff1681565b6001546001600160a01b031690565b60408051808201909152601081526f4552525f5a45524f5f4144445245535360801b602082015283906001600160a01b038216610b3e5760405162461bcd60e51b81526020600482018181528351602484015283519092839260449091019190850190808383600083156105cc5781810151838201526020016105b4565b5060408051808201909152601081526f4552525f5a45524f5f4144445245535360801b602082015283906001600160a01b038216610bbd5760405162461bcd60e51b81526020600482018181528351602484015283519092839260449091019190850190808383600083156105cc5781810151838201526020016105b4565b5060408051808201909152601081526f4552525f5a45524f5f4144445245535360801b602082015283906001600160a01b038216610c3c5760405162461bcd60e51b81526020600482018181528351602484015283519092839260449091019190850190808383600083156105cc5781810151838201526020016105b4565b50600554600160a01b900460ff1615610c9c576040805162461bcd60e51b815260206004820152601c60248201527f4552525f4f574e45525f494e5449414c495a45445f414c524541445900000000604482015290519081900360640190fd5b846001600160a01b0316866001600160a01b031614156040518060400160405280601081526020016f4552525f53414d455f4144445245535360801b81525090610d275760405162461bcd60e51b81526020600482018181528351602484015283519092839260449091019190850190808383600083156105cc5781810151838201526020016105b4565b50836001600160a01b0316856001600160a01b031614156040518060400160405280601081526020016f4552525f53414d455f4144445245535360801b81525090610db35760405162461bcd60e51b81526020600482018181528351602484015283519092839260449091019190850190808383600083156105cc5781810151838201526020016105b4565b50836001600160a01b0316866001600160a01b031614156040518060400160405280601081526020016f4552525f53414d455f4144445245535360801b81525090610e3f5760405162461bcd60e51b81526020600482018181528351602484015283519092839260449091019190850190808383600083156105cc5781810151838201526020016105b4565b5050600280546001600160a01b039687166001600160a01b03199182161790915560058054600380549689169684169690961790955560ff60a01b199590961693169290921792909216600160a01b179092555050565b6000546001600160a01b031681565b6000546001600160a01b03163314610f04576040805162461bcd60e51b815260206004820152601c60248201527f4552525f4f4e4c595f524547495354524552595f43414e5f43414c4c00000000604482015290519081900360640190fd5b565b60098181548110610f1357fe5b6000918252602090912001546001600160a01b0316905081565b60035460408051808201909152601b8152600080516020611cdd83398151915260208201526000916001600160a01b03163314610fab5760405162461bcd60e51b81526020600482018181528351602484015283519092839260449091019190850190808383600083156105cc5781810151838201526020016105b4565b506001600160a01b038216600090815260076020908152604091829020548251808401909352601b8352600080516020611cdd8339815191529183019190915260ff166110395760405162461bcd60e51b81526020600482018181528351602484015283519092839260449091019190850190808383600083156105cc5781810151838201526020016105b4565b506001600160a01b03821660009081526008602052604081205460098054919291611065906001611a48565b8154811061106f57fe5b600091825260209091200154600980546001600160a01b03909216925082918490811061109857fe5b600091825260208083209190910180546001600160a01b0319166001600160a01b03948516179055838316825260088152604080832086905592871682526007905220805460ff19169055600980546110f2906001611a48565b815481106110fc57fe5b6000918252602082200180546001600160a01b03191690556040516001600160a01b038616917ff77c089a89f0844cd175dad1c5d0fe2d543b1f42a37bddefd9c1ebac72b26d3191a25060019392505050565b6002546001600160a01b031681565b60035460408051808201909152601b8152600080516020611cdd83398151915260208201526000916001600160a01b031633146111dc5760405162461bcd60e51b81526020600482018181528351602484015283519092839260449091019190850190808383600083156105cc5781810151838201526020016105b4565b5060408051808201909152601081526f4552525f5a45524f5f4144445245535360801b602082015282906001600160a01b03821661125b5760405162461bcd60e51b81526020600482018181528351602484015283519092839260449091019190850190808383600083156105cc5781810151838201526020016105b4565b506005546001600160a01b0384811691161480159061128857506003546001600160a01b03848116911614155b80156112a257506002546001600160a01b03848116911614155b6040518060400160405280601081526020016f4552525f53414d455f4144445245535360801b815250906113175760405162461bcd60e51b81526020600482018181528351602484015283519092839260449091019190850190808383600083156105cc5781810151838201526020016105b4565b50600480546001600160a01b0385166001600160a01b03199091161790556001915050919050565b60086020526000908152604090205481565b60035460408051808201909152601b8152600080516020611cdd83398151915260208201526000916001600160a01b031633146113cf5760405162461bcd60e51b81526020600482018181528351602484015283519092839260449091019190850190808383600083156105cc5781810151838201526020016105b4565b5060408051808201909152601081526f4552525f5a45524f5f4144445245535360801b602082015282906001600160a01b03821661144e5760405162461bcd60e51b81526020600482018181528351602484015283519092839260449091019190850190808383600083156105cc5781810151838201526020016105b4565b50600680546001600160a01b0385166001600160a01b03199091161790556001915050919050565b600061148484843085611a5a565b60408051600081526001600160a01b038516602082015280820184905290517f988be5a4a02a3fab0f0927cf7b83b33931fce7bc30a2380dad1114c673c880519181900360600190a15060019392505050565b60035460408051808201909152601b8152600080516020611cdd83398151915260208201526000916001600160a01b031633146115555760405162461bcd60e51b81526020600482018181528351602484015283519092839260449091019190850190808383600083156105cc5781810151838201526020016105b4565b5060408051808201909152601081526f4552525f5a45524f5f4144445245535360801b602082015282906001600160a01b0382166115d45760405162461bcd60e51b81526020600482018181528351602484015283519092839260449091019190850190808383600083156105cc5781810151838201526020016105b4565b506005546001600160a01b0384811691161480159061160157506003546001600160a01b03848116911614155b801561161b57506002546001600160a01b03848116911614155b6040518060400160405280601081526020016f4552525f53414d455f4144445245535360801b815250906116905760405162461bcd60e51b81526020600482018181528351602484015283519092839260449091019190850190808383600083156105cc5781810151838201526020016105b4565b50600254604080516020808252600d908201526c282924a6a0a92cafa7aba722a960991b8183015290516001600160a01b038087169316917f6840904f5b31827f74e1497360da245f56e530c8c3de3163a2d31f11493273c6919081900360600190a3600280546001600160a01b0385166001600160a01b03199091161790556001915050919050565b6005546001600160a01b031681565b6006546001600160a01b031681565b604080516000808252336020830152348284015291517f988be5a4a02a3fab0f0927cf7b83b33931fce7bc30a2380dad1114c673c880519181900360600190a150600190565b60035460408051808201909152601b8152600080516020611cdd83398151915260208201526000916001600160a01b031633146117fc5760405162461bcd60e51b81526020600482018181528351602484015283519092839260449091019190850190808383600083156105cc5781810151838201526020016105b4565b506001600160a01b038216600090815260076020908152604091829020548251808401909352601b8352600080516020611cdd8339815191529183019190915260ff161561188b5760405162461bcd60e51b81526020600482018181528351602484015283519092839260449091019190850190808383600083156105cc5781810151838201526020016105b4565b506001600160a01b0382166000818152600760209081526040808320805460ff19166001908117909155600980546008909452828520849055908301815583527f6e1540171b6c0c960b71a7020d9f60077f6af931a8bbf590da0223dacf75c7af90910180546001600160a01b03191684179055517f32f37e1dd9105b24bdc051c8e41b1c710f207a26f1c94f3e0aeab464d941fabb9190a2506001919050565b336000908152600760209081526040808320548151808301909252601b8252600080516020611cdd833981519152928201929092529060ff166119b05760405162461bcd60e51b81526020600482018181528351602484015283519092839260449091019190850190808383600083156105cc5781810151838201526020016105b4565b506119bd84308585611a5a565b604080516001600160a01b03858116825286166020820152808201849052905133917f8dae5adcd19d0e3ad64f98accb2ca948a4350bedd1116a9732e5043bd46f5775919081900360600190a25060019392505050565b611a1c610ea5565b600680546001600160a01b0319166001600160a01b038316179055611a42848484610ac0565b50505050565b600082821115611a5457fe5b50900390565b6000846001600160a01b03166370a08231846040518263ffffffff1660e01b815260040180826001600160a01b03166001600160a01b0316815260200191505060206040518083038186803b158015611ab257600080fd5b505afa158015611ac6573d6000803e3d6000fd5b505050506040513d6020811015611adc57600080fd5b505190506001600160a01b038416301415611b8357846001600160a01b031663a9059cbb84846040518363ffffffff1660e01b815260040180836001600160a01b03166001600160a01b0316815260200182815260200192505050602060405180830381600087803b158015611b5157600080fd5b505af1158015611b65573d6000803e3d6000fd5b505050506040513d6020811015611b7b57600080fd5b50611c0b9050565b604080516323b872dd60e01b81526001600160a01b0386811660048301528581166024830152604482018590529151918716916323b872dd916064808201926020929091908290030181600087803b158015611bde57600080fd5b505af1158015611bf2573d6000803e3d6000fd5b505050506040513d6020811015611c0857600080fd5b50505b6000856001600160a01b03166370a08231856040518263ffffffff1660e01b815260040180826001600160a01b03166001600160a01b0316815260200191505060206040518083038186803b158015611c6357600080fd5b505afa158015611c77573d6000803e3d6000fd5b505050506040513d6020811015611c8d57600080fd5b50519050818111611cd4576040805162461bcd60e51b815260206004820152600c60248201526b22a9292faa2920a729a322a960a11b604482015290519081900360640190fd5b50505050505056fe4552525f415554484f52495a45445f414444524553535f4f4e4c590000000000a265627a7a723058207c92c4fbe5611a79ac2eb71401597c80d17630198c7e033517283c00a5ab54f664736f6c63430005090032",
  "source": "pragma solidity ^0.5.9;\n\nimport \"../common/ProxyOwnable.sol\";\nimport \"../common/SafeMath.sol\";\nimport \"../Proxy/Upgradeable.sol\";\nimport \"../InterFaces/IAuctionRegistery.sol\";\nimport \"../InterFaces/IERC20Token.sol\";\n\n\ninterface InitializeInterface {\n    function initialize(\n        address _primaryOwner,\n        address _systemAddress,\n        address _authorityAddress,\n        address _registeryAddress\n    ) external;\n}\n\n\ncontract AuctionRegistery is ProxyOwnable, AuctionRegisteryContracts {\n    IAuctionRegistery public contractsRegistry;\n\n    function updateRegistery(address _address)\n        external\n        onlyAuthorized()\n        notZeroAddress(_address)\n        returns (bool)\n    {\n        contractsRegistry = IAuctionRegistery(_address);\n        return true;\n    }\n\n    function getAddressOf(bytes32 _contractName)\n        internal\n        view\n        returns (address)\n    {\n        return contractsRegistry.getAddressOf(_contractName);\n    }\n}\n\n\ncontract TokenSpenders is AuctionRegistery, SafeMath {\n    mapping(address => bool) isSpender;\n\n    mapping(address => uint256) public spenderIndex;\n\n    address[] public spenders;\n\n    event TokenSpenderAdded(address indexed _which);\n\n    event TokenSpenderRemoved(address indexed _which);\n\n    modifier onlySpender() {\n        require(isSpender[msg.sender], ERR_AUTHORIZED_ADDRESS_ONLY);\n        _;\n    }\n\n    function addSpender(address _which)\n        external\n        onlyAuthorized()\n        returns (bool)\n    {\n        require(!isSpender[_which], ERR_AUTHORIZED_ADDRESS_ONLY);\n        isSpender[_which] = true;\n        spenderIndex[_which] = spenders.length;\n        spenders.push(_which);\n        emit TokenSpenderAdded(_which);\n        return true;\n    }\n\n    function removeSpender(address _which)\n        external\n        onlyAuthorized()\n        returns (bool)\n    {\n        require(isSpender[_which], ERR_AUTHORIZED_ADDRESS_ONLY);\n        uint256 _spenderIndex = spenderIndex[_which];\n        address _lastAdress = spenders[safeSub(spenders.length, 1)];\n        spenders[_spenderIndex] = _lastAdress;\n        spenderIndex[_lastAdress] = _spenderIndex;\n        delete isSpender[_which];\n        delete spenders[safeSub(spenders.length, 1)];\n        emit TokenSpenderRemoved(_which);\n        return true;\n    }\n}\n\n\ncontract TokenVault is Upgradeable, TokenSpenders, InitializeInterface {\n    event FundTransfer(\n        address indexed _by,\n        address _to,\n        address _token,\n        uint256 amount\n    );\n\n    event FundDeposited(address _token, address _from, uint256 _amount);\n\n    function initialize(\n        address _primaryOwner,\n        address _systemAddress,\n        address _authorityAddress,\n        address _registeryAddress\n    ) public {\n        super.initialize();\n\n        contractsRegistry = IAuctionRegistery(_registeryAddress);\n\n        ProxyOwnable.initializeOwner(\n            _primaryOwner,\n            _systemAddress,\n            _authorityAddress\n        );\n    }\n\n    function ensureTransferFrom(\n        IERC20Token _token,\n        address _from,\n        address _to,\n        uint256 _amount\n    ) internal {\n        uint256 prevBalance = _token.balanceOf(_to);\n        if (_from == address(this)) _token.transfer(_to, _amount);\n        else _token.transferFrom(_from, _to, _amount);\n        uint256 postBalance = _token.balanceOf(_to);\n        require(postBalance > prevBalance, \"ERR_TRANSFER\");\n    }\n\n    function approveTransferFrom(\n        IERC20Token _token,\n        address _spender,\n        uint256 _amount\n    ) internal {\n        _token.approve(_spender, _amount);\n    }\n\n    function depositeEther() external payable returns (bool) {\n        emit FundDeposited(address(0), msg.sender, msg.value);\n        return true;\n    }\n\n    function depositeToken(IERC20Token _token, address _from, uint256 _amount)\n        external\n        returns (bool)\n    {\n        ensureTransferFrom(_token, _from, address(this), _amount);\n        emit FundDeposited(address(0), _from, _amount);\n        return true;\n    }\n\n    function directTransfer(address _token, address _to, uint256 amount)\n        external\n        onlySpender()\n        returns (bool)\n    {\n        ensureTransferFrom(IERC20Token(_token), address(this), _to, amount);\n        emit FundTransfer(msg.sender, _to, _token, amount);\n        return true;\n    }\n\n    function transferEther(address payable _to, uint256 amount)\n        external\n        onlySpender()\n        returns (bool)\n    {\n        _to.transfer(amount);\n        emit FundTransfer(msg.sender, _to, address(0), amount);\n        return true;\n    }\n}\n",
  "sourcePath": "/home/safu/minddeft/jointerInc/jointer-token/contracts/TokenVault/TokenVault.sol",
  "compiler": {
    "name": "solc",
    "version": "0.5.9+commit.e560f70d.Emscripten.clang"
  },
  "schemaVersion": "3.1.0",
  "updatedAt": "2020-05-22T12:31:58.074Z",
  "devdoc": {
    "methods": {
      "changeAuthorityAddress(address)": {
        "details": "change system address",
        "params": {
          "_which": "The address to which is new Authority address"
        }
      },
      "changePrimaryOwner(address)": {
        "details": "change primary ownership",
        "params": {
          "_which": "The address to which is new owner address"
        }
      },
      "changeSystemAddress(address)": {
        "details": "change system address",
        "params": {
          "_which": "The address to which is new system address"
        }
      },
      "implementation()": {
        "details": "Tells the address of the current implementation",
        "return": "address of the current implementation"
      },
      "initialize()": {
        "details": "Validates the caller is the versions registry. THIS FUNCTION SHOULD BE OVERRIDDEN CALLING SUPER"
      },
      "initializeOwner(address,address,address)": {
        "details": "The Ownable constructor sets the `primaryOwner` and `systemAddress` and '_multisigAddress' account."
      }
    }
  },
  "userdoc": {
    "methods": {}
  }
}