{
  "contractName": "TokenVaultRegistery",
  "abi": [
    {
      "constant": false,
      "inputs": [
        {
          "name": "_which",
          "type": "address"
        }
      ],
      "name": "changeSystemAddress",
      "outputs": [
        {
          "name": "",
          "type": "bool"
        }
      ],
      "payable": false,
      "stateMutability": "nonpayable",
      "type": "function"
    },
    {
      "constant": true,
      "inputs": [],
      "name": "newAuthorityAddress",
      "outputs": [
        {
          "name": "",
          "type": "address"
        }
      ],
      "payable": false,
      "stateMutability": "view",
      "type": "function"
    },
    {
      "constant": false,
      "inputs": [],
      "name": "acceptAuthorityAddress",
      "outputs": [
        {
          "name": "",
          "type": "bool"
        }
      ],
      "payable": false,
      "stateMutability": "nonpayable",
      "type": "function"
    },
    {
      "constant": true,
      "inputs": [],
      "name": "proxyAddress",
      "outputs": [
        {
          "name": "",
          "type": "address"
        }
      ],
      "payable": false,
      "stateMutability": "view",
      "type": "function"
    },
    {
      "constant": true,
      "inputs": [],
      "name": "authorityAddress",
      "outputs": [
        {
          "name": "",
          "type": "address"
        }
      ],
      "payable": false,
      "stateMutability": "view",
      "type": "function"
    },
    {
      "constant": true,
      "inputs": [],
      "name": "primaryOwner",
      "outputs": [
        {
          "name": "",
          "type": "address"
        }
      ],
      "payable": false,
      "stateMutability": "view",
      "type": "function"
    },
    {
      "constant": false,
      "inputs": [
        {
          "name": "_which",
          "type": "address"
        }
      ],
      "name": "changeAuthorityAddress",
      "outputs": [
        {
          "name": "",
          "type": "bool"
        }
      ],
      "payable": false,
      "stateMutability": "nonpayable",
      "type": "function"
    },
    {
      "constant": true,
      "inputs": [],
      "name": "currentVersion",
      "outputs": [
        {
          "name": "",
          "type": "uint256"
        }
      ],
      "payable": false,
      "stateMutability": "view",
      "type": "function"
    },
    {
      "constant": false,
      "inputs": [
        {
          "name": "_which",
          "type": "address"
        }
      ],
      "name": "changePrimaryOwner",
      "outputs": [
        {
          "name": "",
          "type": "bool"
        }
      ],
      "payable": false,
      "stateMutability": "nonpayable",
      "type": "function"
    },
    {
      "constant": true,
      "inputs": [],
      "name": "systemAddress",
      "outputs": [
        {
          "name": "",
          "type": "address"
        }
      ],
      "payable": false,
      "stateMutability": "view",
      "type": "function"
    },
    {
      "inputs": [
        {
          "name": "_systemAddress",
          "type": "address"
        },
        {
          "name": "_multisigAddress",
          "type": "address"
        }
      ],
      "payable": false,
      "stateMutability": "nonpayable",
      "type": "constructor"
    },
    {
      "anonymous": false,
      "inputs": [
        {
          "indexed": false,
          "name": "proxy",
          "type": "address"
        }
      ],
      "name": "ProxyCreated",
      "type": "event"
    },
    {
      "anonymous": false,
      "inputs": [
        {
          "indexed": false,
          "name": "version",
          "type": "uint256"
        },
        {
          "indexed": false,
          "name": "implementation",
          "type": "address"
        }
      ],
      "name": "VersionAdded",
      "type": "event"
    },
    {
      "anonymous": false,
      "inputs": [
        {
          "indexed": false,
          "name": "ownerType",
          "type": "string"
        },
        {
          "indexed": true,
          "name": "previousOwner",
          "type": "address"
        },
        {
          "indexed": true,
          "name": "newOwner",
          "type": "address"
        }
      ],
      "name": "OwnershipTransferred",
      "type": "event"
    },
    {
      "anonymous": false,
      "inputs": [
        {
          "indexed": true,
          "name": "previousOwner",
          "type": "address"
        },
        {
          "indexed": true,
          "name": "newOwner",
          "type": "address"
        }
      ],
      "name": "AuthorityAddressChnageCall",
      "type": "event"
    },
    {
      "constant": false,
      "inputs": [
        {
          "name": "version",
          "type": "uint256"
        },
        {
          "name": "implementation",
          "type": "address"
        }
      ],
      "name": "addVersion",
      "outputs": [],
      "payable": false,
      "stateMutability": "nonpayable",
      "type": "function"
    },
    {
      "constant": true,
      "inputs": [
        {
          "name": "version",
          "type": "uint256"
        }
      ],
      "name": "getVersion",
      "outputs": [
        {
          "name": "",
          "type": "address"
        }
      ],
      "payable": false,
      "stateMutability": "view",
      "type": "function"
    },
    {
      "constant": false,
      "inputs": [
        {
          "name": "version",
          "type": "uint256"
        },
        {
          "name": "_primaryOwner",
          "type": "address"
        },
        {
          "name": "_systemAddress",
          "type": "address"
        },
        {
          "name": "_authorityAddress",
          "type": "address"
        },
        {
          "name": "_registeryAddress",
          "type": "address"
        }
      ],
      "name": "createProxy",
      "outputs": [
        {
          "name": "",
          "type": "address"
        }
      ],
      "payable": false,
      "stateMutability": "nonpayable",
      "type": "function"
    },
    {
      "constant": false,
      "inputs": [
        {
          "name": "version",
          "type": "uint256"
        }
      ],
      "name": "upgradeTo",
      "outputs": [
        {
          "name": "",
          "type": "bool"
        }
      ],
      "payable": false,
      "stateMutability": "nonpayable",
      "type": "function"
    }
  ],
  "bytecode": "0x6080604052600080546001600160a01b0319908116909155600180548216905560028054821690556003805490911690553480156200003d57600080fd5b506040516200184b3803806200184b833981810160405260408110156200006357600080fd5b50805160209182015160408051808201909152601081527f4552525f5a45524f5f41444452455353000000000000000000000000000000009381019390935290918290829082906001600160a01b0382166200015a576040517f08c379a00000000000000000000000000000000000000000000000000000000081526004018080602001828103825283818151815260200191508051906020019080838360005b838110156200011e57818101518382015260200162000104565b50505050905090810190601f1680156200014c5780820380516001836020036101000a031916815260200191505b509250505060405180910390fd5b5060408051808201909152601081527f4552525f53414d455f41444452455353000000000000000000000000000000006020820152336001600160a01b038516141562000204576040517f08c379a00000000000000000000000000000000000000000000000000000000081526020600482018181528351602484015283519092839260449091019190850190808383600083156200011e57818101518382015260200162000104565b50816001600160a01b0316836001600160a01b031614156040518060400160405280601081526020017f4552525f53414d455f414444524553530000000000000000000000000000000081525090620002ba576040517f08c379a00000000000000000000000000000000000000000000000000000000081526020600482018181528351602484015283519092839260449091019190850190808383600083156200011e57818101518382015260200162000104565b5060408051808201909152601081527f4552525f53414d455f41444452455353000000000000000000000000000000006020820152336001600160a01b038416141562000364576040517f08c379a00000000000000000000000000000000000000000000000000000000081526020600482018181528351602484015283519092839260449091019190850190808383600083156200011e57818101518382015260200162000104565b5050600080546001600160a01b03199081163317909155600280546001600160a01b0394851690831617905560018054929093169116179055505061149c80620003af6000396000f3fe608060405234801561001057600080fd5b50600436106100ea5760003560e01c80638f51368b1161008c578063b88da75911610066578063b88da7591461021f578063c4d342681461023c578063d3e848f114610262578063fd016b341461026a576100ea565b80638f51368b1461019b5780639d888e86146101c1578063a640a5d9146101db576100ea565b806323f5c02d116100c857806323f5c02d14610155578063272860fd1461015d5780633c695d4e1461018b5780638e10be3314610193576100ea565b806304d63089146100ef5780630abaad7a1461012957806320c462fe1461014d575b600080fd5b6101156004803603602081101561010557600080fd5b50356001600160a01b0316610287565b604080519115158252519081900360200190f35b610131610598565b604080516001600160a01b039092168252519081900360200190f35b6101156105a7565b6101316106bc565b6101896004803603604081101561017357600080fd5b50803590602001356001600160a01b03166106cb565b005b61013161089b565b6101316108aa565b610115600480360360208110156101b157600080fd5b50356001600160a01b03166108b9565b6101c9610a9a565b60408051918252519081900360200190f35b610131600480360360a08110156101f157600080fd5b508035906001600160a01b036020820135811691604081013582169160608201358116916080013516610aa0565b6101316004803603602081101561023557600080fd5b5035610ca3565b6101156004803603602081101561025257600080fd5b50356001600160a01b0316610cbe565b610131610f01565b6101156004803603602081101561028057600080fd5b5035610f10565b60015460408051808201909152601b815260008051602061144883398151915260208201526000916001600160a01b031633146103425760405162461bcd60e51b81526004018080602001828103825283818151815260200191508051906020019080838360005b838110156103075781810151838201526020016102ef565b50505050905090810190601f1680156103345780820380516001836020036101000a031916815260200191505b509250505060405180910390fd5b5060408051808201909152601981527f4552525f434f4e54524143545f53454c465f4144445245535300000000000000602082015282906001600160a01b0382163014156103d15760405162461bcd60e51b81526020600482018181528351602484015283519092839260449091019190850190808383600083156103075781810151838201526020016102ef565b5060408051808201909152601081526f4552525f5a45524f5f4144445245535360801b602082015283906001600160a01b0382166104505760405162461bcd60e51b81526020600482018181528351602484015283519092839260449091019190850190808383600083156103075781810151838201526020016102ef565b506002546001600160a01b0385811691161480159061047d57506001546001600160a01b03858116911614155b801561049757506000546001600160a01b03858116911614155b6040518060400160405280601081526020016f4552525f53414d455f4144445245535360801b8152509061050c5760405162461bcd60e51b81526020600482018181528351602484015283519092839260449091019190850190808383600083156103075781810151838201526020016102ef565b50600254604080516020808252600e908201526d53595354454d5f4144445245535360901b8183015290516001600160a01b038088169316917f6840904f5b31827f74e1497360da245f56e530c8c3de3163a2d31f11493273c6919081900360600190a3600280546001600160a01b0386166001600160a01b0319909116179055600192505050919050565b6003546001600160a01b031681565b60035460408051808201909152601b815260008051602061144883398151915260208201526000916001600160a01b031633146106255760405162461bcd60e51b81526020600482018181528351602484015283519092839260449091019190850190808383600083156103075781810151838201526020016102ef565b5060035460015460408051602080825260119082015270415554484f524954595f4144445245535360781b8183015290516001600160a01b039384169392909216917f6840904f5b31827f74e1497360da245f56e530c8c3de3163a2d31f11493273c69181900360600190a35060038054600180546001600160a01b03199081166001600160a01b03841617825590911690915590565b6006546001600160a01b031681565b6000546001600160a01b03163314806106ee57506002546001600160a01b031633145b6040518060400160405280601b81526020016000805160206114488339815191528152509061075e5760405162461bcd60e51b81526020600482018181528351602484015283519092839260449091019190850190808383600083156103075781810151838201526020016102ef565b5060408051808201909152601081526f4552525f5a45524f5f4144445245535360801b602082015281906001600160a01b0382166107dd5760405162461bcd60e51b81526020600482018181528351602484015283519092839260449091019190850190808383600083156103075781810151838201526020016102ef565b506000838152600460205260409020546001600160a01b0316156108325760405162461bcd60e51b81526004018080602001828103825260288152602001806114206028913960400191505060405180910390fd5b60008381526004602090815260409182902080546001600160a01b0319166001600160a01b03861690811790915582518681529182015281517f8acfa0f943685107a3a6f2951a8e8d9bd985bef6caa1e2677d3fb5e9fb21ef75929181900390910190a1505050565b6001546001600160a01b031681565b6000546001600160a01b031681565b60015460408051808201909152601b815260008051602061144883398151915260208201526000916001600160a01b031633146109375760405162461bcd60e51b81526020600482018181528351602484015283519092839260449091019190850190808383600083156103075781810151838201526020016102ef565b5060408051808201909152601081526f4552525f5a45524f5f4144445245535360801b602082015282906001600160a01b0382166109b65760405162461bcd60e51b81526020600482018181528351602484015283519092839260449091019190850190808383600083156103075781810151838201526020016102ef565b506002546001600160a01b038481169116148015906109e357506001546001600160a01b03848116911614155b80156109fd57506000546001600160a01b03848116911614155b6040518060400160405280601081526020016f4552525f53414d455f4144445245535360801b81525090610a725760405162461bcd60e51b81526020600482018181528351602484015283519092839260449091019190850190808383600083156103075781810151838201526020016102ef565b50600380546001600160a01b0385166001600160a01b03199091161790556001915050919050565b60055481565b600080546001600160a01b0316331480610ac457506002546001600160a01b031633145b6040518060400160405280601b815260200160008051602061144883398151915281525090610b345760405162461bcd60e51b81526020600482018181528351602484015283519092839260449091019190850190808383600083156103075781810151838201526020016102ef565b506006546001600160a01b031615610b93576040805162461bcd60e51b815260206004820152601960248201527f4552525f50524f58595f414c52454144595f4352454154454400000000000000604482015290519081900360640190fd5b600086604051610ba290611001565b90815260405190819003602001906000f080158015610bc5573d6000803e3d6000fd5b5060408051637c643b2f60e11b81526001600160a01b03898116600483015288811660248301528781166044830152868116606483015291519293509083169163f8c8765e9160848082019260009290919082900301818387803b158015610c2c57600080fd5b505af1158015610c40573d6000803e3d6000fd5b505050600588905550600680546001600160a01b0383166001600160a01b0319909116811790915560408051918252517efffc2da0b561cae30d9826d37709e9421c4725faebc226cbbb7ef5fc5e73499181900360200190a19695505050505050565b6000908152600460205260409020546001600160a01b031690565b60015460408051808201909152601b815260008051602061144883398151915260208201526000916001600160a01b03163314610d3c5760405162461bcd60e51b81526020600482018181528351602484015283519092839260449091019190850190808383600083156103075781810151838201526020016102ef565b5060408051808201909152601081526f4552525f5a45524f5f4144445245535360801b602082015282906001600160a01b038216610dbb5760405162461bcd60e51b81526020600482018181528351602484015283519092839260449091019190850190808383600083156103075781810151838201526020016102ef565b506002546001600160a01b03848116911614801590610de857506001546001600160a01b03848116911614155b8015610e0257506000546001600160a01b03848116911614155b6040518060400160405280601081526020016f4552525f53414d455f4144445245535360801b81525090610e775760405162461bcd60e51b81526020600482018181528351602484015283519092839260449091019190850190808383600083156103075781810151838201526020016102ef565b50600054604080516020808252600d908201526c282924a6a0a92cafa7aba722a960991b8183015290516001600160a01b038087169316917f6840904f5b31827f74e1497360da245f56e530c8c3de3163a2d31f11493273c6919081900360600190a3600080546001600160a01b0385166001600160a01b03199091161790556001915050919050565b6002546001600160a01b031681565b60015460408051808201909152601b815260008051602061144883398151915260208201526000916001600160a01b03163314610f8e5760405162461bcd60e51b81526020600482018181528351602484015283519092839260449091019190850190808383600083156103075781810151838201526020016102ef565b50600582905560065460408051633f405acd60e21b81526004810185905290516001600160a01b039092169163fd016b349160248082019260009290919082900301818387803b158015610fe157600080fd5b505af1158015610ff5573d6000803e3d6000fd5b50600195945050505050565b6104118061100f8339019056fe608060405234801561001057600080fd5b506040516104113803806104118339818101604052602081101561003357600080fd5b5051600080546001600160a01b03191633179055610059816001600160e01b0361005f16565b5061018b565b6000546001600160a01b031633146100d857604080517f08c379a000000000000000000000000000000000000000000000000000000000815260206004820152601c60248201527f4552525f4f4e4c595f524547495354524552595f43414e5f43414c4c00000000604482015290519081900360640190fd5b600054604080517fb88da7590000000000000000000000000000000000000000000000000000000081526004810184905290516001600160a01b039092169163b88da75991602480820192602092909190829003018186803b15801561013d57600080fd5b505afa158015610151573d6000803e3d6000fd5b505050506040513d602081101561016757600080fd5b5051600180546001600160a01b0319166001600160a01b0390921691909117905550565b6102778061019a6000396000f3fe6080604052600436106100345760003560e01c80635c60da1b146100b95780637b103999146100ea578063fd016b34146100ff575b600061003e61012b565b90506001600160a01b038116610094576040805162461bcd60e51b81526020600482015260166024820152754552525f494d504c454d454e5445494f4e5f5a45524f60501b604482015290519081900360640190fd5b60405136600082376000803683855af43d806000843e8180156100b5578184f35b8184fd5b3480156100c557600080fd5b506100ce61012b565b604080516001600160a01b039092168252519081900360200190f35b3480156100f657600080fd5b506100ce61013a565b34801561010b57600080fd5b506101296004803603602081101561012257600080fd5b5035610149565b005b6001546001600160a01b031690565b6000546001600160a01b031681565b6000546001600160a01b031633146101a8576040805162461bcd60e51b815260206004820152601c60248201527f4552525f4f4e4c595f524547495354524552595f43414e5f43414c4c00000000604482015290519081900360640190fd5b6000546040805163b88da75960e01b81526004810184905290516001600160a01b039092169163b88da75991602480820192602092909190829003018186803b1580156101f457600080fd5b505afa158015610208573d6000803e3d6000fd5b505050506040513d602081101561021e57600080fd5b5051600180546001600160a01b0319166001600160a01b039092169190911790555056fea265627a7a723058207a0834d862c78695fca60072d61082099ee6745c86ea22ec11f5506523a6681764736f6c63430005090032546869732076657273696f6e2068617320696d706c656d656e746174696f6e2061747461636865644552525f415554484f52495a45445f414444524553535f4f4e4c590000000000a265627a7a72305820ef6790ebc3b8758e5cd75d56ac6d826185beec94cec32757cb66f626f9eb817864736f6c63430005090032",
  "source": "pragma solidity ^0.5.9;\n\nimport \"../common/RegisteryOwnable.sol\";\nimport \"../Proxy/IRegistry.sol\";\nimport \"../Proxy/UpgradeabilityProxy.sol\";\n\n\ninterface InitializeInterface {\n    function initialize(\n        address _primaryOwner,\n        address _systemAddress,\n        address _authorityAddress,\n        address _registeryAddress\n    ) external;\n}\n\n\n/**\n * @title Registry\n * @dev This contract works as a registry of versions, it holds the implementations for the registered versions.\n */\ncontract TokenVaultRegistery is RegisteryOwnable, IRegistry {\n    // Mapping of versions to implementations of different functions\n    mapping(uint256 => address) internal versions;\n\n    uint256 public currentVersion;\n\n    address payable public proxyAddress;\n\n    //@dev constructor\n    //@param _systemAddress address of the system Owner\n    constructor(address _systemAddress, address _multisigAddress)\n        public\n        RegisteryOwnable(_systemAddress, _multisigAddress)\n    {}\n\n    /**\n     * @dev Registers a new version with its implementation address\n     * @param version representing the version name of the new implementation to be registered\n     * @param implementation representing the address of the new implementation to be registered\n     */\n    function addVersion(uint256 version, address implementation)\n        public\n        onlyOneOfOnwer()\n        notZeroAddress(implementation)\n    {\n        require(\n            versions[version] == address(0),\n            \"This version has implementation attached\"\n        );\n        versions[version] = implementation;\n        emit VersionAdded(version, implementation);\n    }\n\n    /**\n     * @dev Tells the address of the implementation for a given version\n     * @param version to query the implementation of\n     * @return address of the implementation registered for the given version\n     */\n    function getVersion(uint256 version) public view returns (address) {\n        return versions[version];\n    }\n\n    /**\n     * @dev Creates an upgradeable proxy\n     * @param version representing the first version to be set for the proxy\n     * @return address of the new proxy created\n     */\n    function createProxy(\n        uint256 version,\n        address _primaryOwner,\n        address _systemAddress,\n        address _authorityAddress,\n        address _registeryAddress\n    ) public onlyOneOfOnwer() returns (address) {\n        require(proxyAddress == address(0), \"ERR_PROXY_ALREADY_CREATED\");\n\n        UpgradeabilityProxy proxy = new UpgradeabilityProxy(version);\n\n        InitializeInterface(address(proxy)).initialize(\n            _primaryOwner,\n            _systemAddress,\n            _authorityAddress,\n            _registeryAddress\n        );\n\n        currentVersion = version;\n        proxyAddress = address(proxy);\n        emit ProxyCreated(address(proxy));\n        return address(proxy);\n    }\n\n    /**\n     * @dev Upgrades the implementation to the requested version\n     * @param version representing the version name of the new implementation to be set\n     */\n\n    function upgradeTo(uint256 version) public onlyAuthorized() returns (bool) {\n        currentVersion = version;\n        UpgradeabilityProxy(proxyAddress).upgradeTo(version);\n        return true;\n    }\n}\n",
  "sourcePath": "/home/mind/Work/Projects/Jointer/Jointer_auction/NewContracts/contracts/TokenVault/TokenVaultProxy.sol",
  "compiler": {
    "name": "solc",
    "version": "0.5.9+commit.e560f70d.Emscripten.clang"
  },
  "schemaVersion": "3.0.16",
  "updatedAt": "2020-05-13T15:06:47.391Z",
  "devdoc": {
    "details": "This contract works as a registry of versions, it holds the implementations for the registered versions.",
    "methods": {
      "addVersion(uint256,address)": {
        "details": "Registers a new version with its implementation address",
        "params": {
          "implementation": "representing the address of the new implementation to be registered",
          "version": "representing the version name of the new implementation to be registered"
        }
      },
      "changeAuthorityAddress(address)": {
        "details": "change system address",
        "params": {
          "_which": "The address to which is new Authority address"
        }
      },
      "changePrimaryOwner(address)": {
        "details": "change primary ownership",
        "params": {
          "_which": "The address to which is new owner address"
        }
      },
      "changeSystemAddress(address)": {
        "details": "change system address",
        "params": {
          "_which": "The address to which is new system address"
        }
      },
      "createProxy(uint256,address,address,address,address)": {
        "details": "Creates an upgradeable proxy",
        "params": {
          "version": "representing the first version to be set for the proxy"
        },
        "return": "address of the new proxy created"
      },
      "getVersion(uint256)": {
        "details": "Tells the address of the implementation for a given version",
        "params": {
          "version": "to query the implementation of"
        },
        "return": "address of the implementation registered for the given version"
      },
      "upgradeTo(uint256)": {
        "details": "Upgrades the implementation to the requested version",
        "params": {
          "version": "representing the version name of the new implementation to be set"
        }
      }
    },
    "title": "Registry"
  },
  "userdoc": {
    "methods": {}
  }
}