{
  "contractName": "UpgradeabilityStorage",
  "abi": [
    {
      "constant": true,
      "inputs": [],
      "name": "registry",
      "outputs": [
        {
          "name": "",
          "type": "address"
        }
      ],
      "payable": false,
      "stateMutability": "view",
      "type": "function"
    },
    {
      "constant": true,
      "inputs": [],
      "name": "implementation",
      "outputs": [
        {
          "name": "",
          "type": "address"
        }
      ],
      "payable": false,
      "stateMutability": "view",
      "type": "function"
    }
  ],
  "bytecode": "0x6080604052348015600f57600080fd5b5060b28061001e6000396000f3fe6080604052348015600f57600080fd5b506004361060325760003560e01c80635c60da1b1460375780637b103999146059575b600080fd5b603d605f565b604080516001600160a01b039092168252519081900360200190f35b603d606e565b6001546001600160a01b031690565b6000546001600160a01b03168156fea265627a7a72305820fd3db736fee9dd8efcea7e1112d6b4fb502d08fad7d81c9b3113e9dff36c5ae064736f6c63430005090032",
  "source": "pragma solidity ^0.5.9;\n\nimport './IRegistry.sol';\n\n/**\n * @title UpgradeabilityStorage\n * @dev This contract holds all the necessary state variables to support the upgrade functionality\n */\ncontract UpgradeabilityStorage {\n    // Versions registry\n    IRegistry public registry;\n\n    // Address of the current implementation\n    address internal _implementation;\n\n    /**\n     * @dev Tells the address of the current implementation\n     * @return address of the current implementation\n     */\n    function implementation() public view returns (address) {\n        return _implementation;\n    }\n}\n",
  "sourcePath": "/home/mind/Work/Projects/Jointer/Jointer_auction/NewContracts/contracts/Proxy/UpgradeabilityStorage.sol",
  "compiler": {
    "name": "solc",
    "version": "0.5.9+commit.e560f70d.Emscripten.clang"
  },
  "schemaVersion": "3.0.16",
  "updatedAt": "2020-05-07T07:18:50.785Z",
  "devdoc": {
    "details": "This contract holds all the necessary state variables to support the upgrade functionality",
    "methods": {
      "implementation()": {
        "details": "Tells the address of the current implementation",
        "return": "address of the current implementation"
      }
    },
    "title": "UpgradeabilityStorage"
  },
  "userdoc": {
    "methods": {}
  }
}