{
  "contractName": "Upgradeable",
  "abi": [
    {
      "constant": true,
      "inputs": [],
      "name": "implementation",
      "outputs": [
        {
          "name": "",
          "type": "address"
        }
      ],
      "payable": false,
      "stateMutability": "view",
      "type": "function"
    },
    {
      "constant": true,
      "inputs": [],
      "name": "registry",
      "outputs": [
        {
          "name": "",
          "type": "address"
        }
      ],
      "payable": false,
      "stateMutability": "view",
      "type": "function"
    },
    {
      "constant": true,
      "inputs": [],
      "name": "initialize",
      "outputs": [],
      "payable": false,
      "stateMutability": "view",
      "type": "function"
    }
  ],
  "bytecode": "0x608060405234801561001057600080fd5b50610124806100206000396000f3fe6080604052348015600f57600080fd5b5060043610603c5760003560e01c80635c60da1b1460415780637b1039991460635780638129fc1c146069575b600080fd5b60476071565b604080516001600160a01b039092168252519081900360200190f35b60476080565b606f608f565b005b6001546001600160a01b031690565b6000546001600160a01b031681565b6000546001600160a01b0316331460ed576040805162461bcd60e51b815260206004820152601c60248201527f4552525f4f4e4c595f524547495354524552595f43414e5f43414c4c00000000604482015290519081900360640190fd5b56fea265627a7a72305820df0372993c6cee0e196349d88bc3f4d91fa312b8e9f3c28dd0a1aefc9b5596dc64736f6c63430005090032",
  "source": "\npragma solidity ^0.5.9;\n\nimport './UpgradeabilityStorage.sol';\n\n\n/**\n * @title Upgradeable\n * @dev This contract holds all the minimum required functionality for a behavior to be upgradeable.\n * This means, required state variables for owned upgradeability purpose and simple initialization validation.\n */\ncontract Upgradeable is UpgradeabilityStorage {\n    /**\n     * @dev Validates the caller is the versions registry.\n     * THIS FUNCTION SHOULD BE OVERRIDDEN CALLING SUPER\n     */\n    function initialize() public view {\n        require(msg.sender == address(registry),\"ERR_ONLY_REGISTRERY_CAN_CALL\");\n    }\n}",
  "sourcePath": "/home/mind/Work/Projects/Jointer/Jointer_auction/NewContracts/contracts/Proxy/Upgradeable.sol",
  "compiler": {
    "name": "solc",
    "version": "0.5.9+commit.e560f70d.Emscripten.clang"
  },
  "schemaVersion": "3.0.16",
  "updatedAt": "2020-04-22T14:52:56.460Z",
  "devdoc": {
    "details": "This contract holds all the minimum required functionality for a behavior to be upgradeable. This means, required state variables for owned upgradeability purpose and simple initialization validation.",
    "methods": {
      "implementation()": {
        "details": "Tells the address of the current implementation",
        "return": "address of the current implementation"
      },
      "initialize()": {
        "details": "Validates the caller is the versions registry. THIS FUNCTION SHOULD BE OVERRIDDEN CALLING SUPER"
      }
    },
    "title": "Upgradeable"
  },
  "userdoc": {
    "methods": {}
  }
}