{
  "contractName": "UpgradeabilityProxy",
  "abi": [
    {
      "constant": true,
      "inputs": [],
      "name": "implementation",
      "outputs": [
        {
          "name": "",
          "type": "address"
        }
      ],
      "payable": false,
      "stateMutability": "view",
      "type": "function"
    },
    {
      "constant": true,
      "inputs": [],
      "name": "registry",
      "outputs": [
        {
          "name": "",
          "type": "address"
        }
      ],
      "payable": false,
      "stateMutability": "view",
      "type": "function"
    },
    {
      "inputs": [
        {
          "name": "_version",
          "type": "uint256"
        }
      ],
      "payable": false,
      "stateMutability": "nonpayable",
      "type": "constructor"
    },
    {
      "payable": true,
      "stateMutability": "payable",
      "type": "fallback"
    },
    {
      "constant": false,
      "inputs": [
        {
          "name": "_version",
          "type": "uint256"
        }
      ],
      "name": "upgradeTo",
      "outputs": [],
      "payable": false,
      "stateMutability": "nonpayable",
      "type": "function"
    }
  ],
  "bytecode": "0x608060405234801561001057600080fd5b506040516104113803806104118339818101604052602081101561003357600080fd5b5051600080546001600160a01b03191633179055610059816001600160e01b0361005f16565b5061018b565b6000546001600160a01b031633146100d857604080517f08c379a000000000000000000000000000000000000000000000000000000000815260206004820152601c60248201527f4552525f4f4e4c595f524547495354524552595f43414e5f43414c4c00000000604482015290519081900360640190fd5b600054604080517fb88da7590000000000000000000000000000000000000000000000000000000081526004810184905290516001600160a01b039092169163b88da75991602480820192602092909190829003018186803b15801561013d57600080fd5b505afa158015610151573d6000803e3d6000fd5b505050506040513d602081101561016757600080fd5b5051600180546001600160a01b0319166001600160a01b0390921691909117905550565b6102778061019a6000396000f3fe6080604052600436106100345760003560e01c80635c60da1b146100b95780637b103999146100ea578063fd016b34146100ff575b600061003e61012b565b90506001600160a01b038116610094576040805162461bcd60e51b81526020600482015260166024820152754552525f494d504c454d454e5445494f4e5f5a45524f60501b604482015290519081900360640190fd5b60405136600082376000803683855af43d806000843e8180156100b5578184f35b8184fd5b3480156100c557600080fd5b506100ce61012b565b604080516001600160a01b039092168252519081900360200190f35b3480156100f657600080fd5b506100ce61013a565b34801561010b57600080fd5b506101296004803603602081101561012257600080fd5b5035610149565b005b6001546001600160a01b031690565b6000546001600160a01b031681565b6000546001600160a01b031633146101a8576040805162461bcd60e51b815260206004820152601c60248201527f4552525f4f4e4c595f524547495354524552595f43414e5f43414c4c00000000604482015290519081900360640190fd5b6000546040805163b88da75960e01b81526004810184905290516001600160a01b039092169163b88da75991602480820192602092909190829003018186803b1580156101f457600080fd5b505afa158015610208573d6000803e3d6000fd5b505050506040513d602081101561021e57600080fd5b5051600180546001600160a01b0319166001600160a01b039092169190911790555056fea265627a7a723058207a0834d862c78695fca60072d61082099ee6745c86ea22ec11f5506523a6681764736f6c63430005090032",
  "source": "pragma solidity ^0.5.9;\n\nimport './Proxy.sol';\nimport './IRegistry.sol';\nimport './UpgradeabilityStorage.sol';\n\n/**\n * @title UpgradeabilityProxy\n * @dev This contract represents a proxy where the implementation address to which it will delegate can be upgraded\n */\ncontract UpgradeabilityProxy is Proxy, UpgradeabilityStorage {\n    /**\n     * @dev Constructor function\n     */\n    constructor(uint256 _version) public {\n        registry = IRegistry(msg.sender);\n        upgradeTo(_version);\n    }\n\n    /**\n     * @dev Upgrades the implementation to the requested version\n     * @param _version representing the version name of the new implementation to be set\n     */\n    function upgradeTo(uint256 _version) public {\n        require(msg.sender == address(registry),\"ERR_ONLY_REGISTRERY_CAN_CALL\");\n        _implementation = registry.getVersion(_version);\n    }\n}\n",
  "sourcePath": "/home/mind/Work/Projects/Jointer/Jointer_auction/NewContracts/contracts/Proxy/UpgradeabilityProxy.sol",
  "compiler": {
    "name": "solc",
    "version": "0.5.9+commit.e560f70d.Emscripten.clang"
  },
  "schemaVersion": "3.0.16",
  "updatedAt": "2020-04-22T14:52:56.457Z",
  "devdoc": {
    "details": "This contract represents a proxy where the implementation address to which it will delegate can be upgraded",
    "methods": {
      "constructor": {
        "details": "Constructor function"
      },
      "implementation()": {
        "details": "Tells the address of the current implementation",
        "return": "address of the current implementation"
      },
      "upgradeTo(uint256)": {
        "details": "Upgrades the implementation to the requested version",
        "params": {
          "_version": "representing the version name of the new implementation to be set"
        }
      }
    },
    "title": "UpgradeabilityProxy"
  },
  "userdoc": {
    "methods": {}
  }
}