{
  "contractName": "Utils",
  "abi": [
    {
      "constant": false,
      "inputs": [
        {
          "name": "_which",
          "type": "address"
        }
      ],
      "name": "changeSystemAddress",
      "outputs": [
        {
          "name": "",
          "type": "bool"
        }
      ],
      "payable": false,
      "stateMutability": "nonpayable",
      "type": "function"
    },
    {
      "constant": true,
      "inputs": [],
      "name": "newAuthorityAddress",
      "outputs": [
        {
          "name": "",
          "type": "address"
        }
      ],
      "payable": false,
      "stateMutability": "view",
      "type": "function"
    },
    {
      "constant": true,
      "inputs": [
        {
          "name": "",
          "type": "address"
        }
      ],
      "name": "unLockBlock",
      "outputs": [
        {
          "name": "",
          "type": "bool"
        }
      ],
      "payable": false,
      "stateMutability": "view",
      "type": "function"
    },
    {
      "constant": false,
      "inputs": [],
      "name": "acceptAuthorityAddress",
      "outputs": [
        {
          "name": "",
          "type": "bool"
        }
      ],
      "payable": false,
      "stateMutability": "nonpayable",
      "type": "function"
    },
    {
      "constant": true,
      "inputs": [],
      "name": "authorityAddress",
      "outputs": [
        {
          "name": "",
          "type": "address"
        }
      ],
      "payable": false,
      "stateMutability": "view",
      "type": "function"
    },
    {
      "constant": true,
      "inputs": [],
      "name": "isOwnerInitialize",
      "outputs": [
        {
          "name": "",
          "type": "bool"
        }
      ],
      "payable": false,
      "stateMutability": "view",
      "type": "function"
    },
    {
      "constant": true,
      "inputs": [
        {
          "name": "",
          "type": "address"
        }
      ],
      "name": "allowedAddress",
      "outputs": [
        {
          "name": "",
          "type": "bool"
        }
      ],
      "payable": false,
      "stateMutability": "view",
      "type": "function"
    },
    {
      "constant": true,
      "inputs": [
        {
          "name": "",
          "type": "address"
        }
      ],
      "name": "tokenAllowed",
      "outputs": [
        {
          "name": "",
          "type": "bool"
        }
      ],
      "payable": false,
      "stateMutability": "view",
      "type": "function"
    },
    {
      "constant": true,
      "inputs": [
        {
          "name": "",
          "type": "uint256"
        }
      ],
      "name": "allowedTokens",
      "outputs": [
        {
          "name": "",
          "type": "address"
        }
      ],
      "payable": false,
      "stateMutability": "view",
      "type": "function"
    },
    {
      "constant": true,
      "inputs": [],
      "name": "prevRegistry",
      "outputs": [
        {
          "name": "",
          "type": "address"
        }
      ],
      "payable": false,
      "stateMutability": "view",
      "type": "function"
    },
    {
      "constant": false,
      "inputs": [
        {
          "name": "_primaryOwner",
          "type": "address"
        },
        {
          "name": "_systemAddress",
          "type": "address"
        },
        {
          "name": "_authorityAddress",
          "type": "address"
        }
      ],
      "name": "initializeOwner",
      "outputs": [],
      "payable": false,
      "stateMutability": "nonpayable",
      "type": "function"
    },
    {
      "constant": true,
      "inputs": [],
      "name": "registry",
      "outputs": [
        {
          "name": "",
          "type": "address"
        }
      ],
      "payable": false,
      "stateMutability": "view",
      "type": "function"
    },
    {
      "constant": true,
      "inputs": [],
      "name": "primaryOwner",
      "outputs": [
        {
          "name": "",
          "type": "address"
        }
      ],
      "payable": false,
      "stateMutability": "view",
      "type": "function"
    },
    {
      "constant": false,
      "inputs": [
        {
          "name": "_which",
          "type": "address"
        }
      ],
      "name": "changeAuthorityAddress",
      "outputs": [
        {
          "name": "",
          "type": "bool"
        }
      ],
      "payable": false,
      "stateMutability": "nonpayable",
      "type": "function"
    },
    {
      "constant": false,
      "inputs": [
        {
          "name": "_address",
          "type": "address"
        }
      ],
      "name": "updateRegistery",
      "outputs": [
        {
          "name": "",
          "type": "bool"
        }
      ],
      "payable": false,
      "stateMutability": "nonpayable",
      "type": "function"
    },
    {
      "constant": false,
      "inputs": [
        {
          "name": "_which",
          "type": "address"
        }
      ],
      "name": "changePrimaryOwner",
      "outputs": [
        {
          "name": "",
          "type": "bool"
        }
      ],
      "payable": false,
      "stateMutability": "nonpayable",
      "type": "function"
    },
    {
      "constant": true,
      "inputs": [],
      "name": "tokenLockDuration",
      "outputs": [
        {
          "name": "",
          "type": "uint256"
        }
      ],
      "payable": false,
      "stateMutability": "view",
      "type": "function"
    },
    {
      "constant": true,
      "inputs": [],
      "name": "systemAddress",
      "outputs": [
        {
          "name": "",
          "type": "address"
        }
      ],
      "payable": false,
      "stateMutability": "view",
      "type": "function"
    },
    {
      "anonymous": false,
      "inputs": [
        {
          "indexed": false,
          "name": "ownerType",
          "type": "string"
        },
        {
          "indexed": true,
          "name": "previousOwner",
          "type": "address"
        },
        {
          "indexed": true,
          "name": "newOwner",
          "type": "address"
        }
      ],
      "name": "OwnershipTransferred",
      "type": "event"
    },
    {
      "anonymous": false,
      "inputs": [
        {
          "indexed": true,
          "name": "previousOwner",
          "type": "address"
        },
        {
          "indexed": true,
          "name": "newOwner",
          "type": "address"
        }
      ],
      "name": "AuthorityAddressChnageCall",
      "type": "event"
    },
    {
      "constant": false,
      "inputs": [
        {
          "name": "_which",
          "type": "address"
        }
      ],
      "name": "allowToken",
      "outputs": [
        {
          "name": "",
          "type": "bool"
        }
      ],
      "payable": false,
      "stateMutability": "nonpayable",
      "type": "function"
    },
    {
      "constant": false,
      "inputs": [
        {
          "name": "_address",
          "type": "address"
        },
        {
          "name": "_check",
          "type": "bool"
        }
      ],
      "name": "setAllowedAddress",
      "outputs": [
        {
          "name": "",
          "type": "bool"
        }
      ],
      "payable": false,
      "stateMutability": "nonpayable",
      "type": "function"
    },
    {
      "constant": false,
      "inputs": [
        {
          "name": "_tokenLockDuration",
          "type": "uint256"
        }
      ],
      "name": "setTokenLockDuration",
      "outputs": [
        {
          "name": "",
          "type": "bool"
        }
      ],
      "payable": false,
      "stateMutability": "nonpayable",
      "type": "function"
    },
    {
      "constant": true,
      "inputs": [
        {
          "name": "_firstLockDay",
          "type": "uint256"
        }
      ],
      "name": "isTokenLockEndDay",
      "outputs": [
        {
          "name": "",
          "type": "bool"
        }
      ],
      "payable": false,
      "stateMutability": "view",
      "type": "function"
    }
  ],
  "bytecode": "0x6080604052600580546001600160a01b03199081169091556006805482169055600780549091169055600880546001600160a81b031916905534801561004457600080fd5b5061165f806100546000396000f3fe608060405234801561001057600080fd5b50600436106101425760003560e01c8063760e595a116100b8578063b53472ef1161007c578063b53472ef146102fe578063bc1366fe14610324578063c4d342681461034a578063d0982feb14610370578063d3e848f11461038a578063fae369861461039257610142565b8063760e595a146102715780637744d424146102ab5780637b103999146102c85780638e10be33146102d05780638f51368b146102d857610142565b80633c695d4e1161010a5780633c695d4e146101f05780633ff59a52146101f8578063409082981461020057806355219d5a146102265780635e5f2e261461024c57806361cd756e1461026957610142565b806304d63089146101475780630abaad7a146101815780631b14eef9146101a557806320c462fe146101cb578063320454c0146101d3575b600080fd5b61016d6004803603602081101561015d57600080fd5b50356001600160a01b03166103c0565b604080519115158252519081900360200190f35b6101896106d1565b604080516001600160a01b039092168252519081900360200190f35b61016d600480360360208110156101bb57600080fd5b50356001600160a01b03166106e0565b61016d6106f5565b61016d600480360360208110156101e957600080fd5b503561080a565b610189610895565b61016d6108a4565b61016d6004803603602081101561021657600080fd5b50356001600160a01b03166108b4565b61016d6004803603602081101561023c57600080fd5b50356001600160a01b03166108c9565b6101896004803603602081101561026257600080fd5b50356108de565b610189610905565b6102a96004803603606081101561028757600080fd5b506001600160a01b038135811691602081013582169160409091013516610914565b005b61016d600480360360208110156102c157600080fd5b5035610cea565b610189610d28565b610189610d37565b61016d600480360360208110156102ee57600080fd5b50356001600160a01b0316610d46565b61016d6004803603602081101561031457600080fd5b50356001600160a01b0316610f27565b61016d6004803603602081101561033a57600080fd5b50356001600160a01b03166110fc565b61016d6004803603602081101561036057600080fd5b50356001600160a01b0316611230565b610378611473565b60408051918252519081900360200190f35b610189611479565b61016d600480360360408110156103a857600080fd5b506001600160a01b0381351690602001351515611488565b60065460408051808201909152601b815260008051602061160b83398151915260208201526000916001600160a01b0316331461047b5760405162461bcd60e51b81526004018080602001828103825283818151815260200191508051906020019080838360005b83811015610440578181015183820152602001610428565b50505050905090810190601f16801561046d5780820380516001836020036101000a031916815260200191505b509250505060405180910390fd5b5060408051808201909152601981527f4552525f434f4e54524143545f53454c465f4144445245535300000000000000602082015282906001600160a01b03821630141561050a5760405162461bcd60e51b8152602060048201818152835160248401528351909283926044909101919085019080838360008315610440578181015183820152602001610428565b5060408051808201909152601081526f4552525f5a45524f5f4144445245535360801b602082015283906001600160a01b0382166105895760405162461bcd60e51b8152602060048201818152835160248401528351909283926044909101919085019080838360008315610440578181015183820152602001610428565b506008546001600160a01b038581169116148015906105b657506006546001600160a01b03858116911614155b80156105d057506005546001600160a01b03858116911614155b6040518060400160405280601081526020016f4552525f53414d455f4144445245535360801b815250906106455760405162461bcd60e51b8152602060048201818152835160248401528351909283926044909101919085019080838360008315610440578181015183820152602001610428565b50600854604080516020808252600e908201526d53595354454d5f4144445245535360901b8183015290516001600160a01b038088169316917f6840904f5b31827f74e1497360da245f56e530c8c3de3163a2d31f11493273c6919081900360600190a3600880546001600160a01b0386166001600160a01b0319909116179055600192505050919050565b6007546001600160a01b031681565b60046020526000908152604090205460ff1681565b60075460408051808201909152601b815260008051602061160b83398151915260208201526000916001600160a01b031633146107735760405162461bcd60e51b8152602060048201818152835160248401528351909283926044909101919085019080838360008315610440578181015183820152602001610428565b5060075460065460408051602080825260119082015270415554484f524954595f4144445245535360781b8183015290516001600160a01b039384169392909216917f6840904f5b31827f74e1497360da245f56e530c8c3de3163a2d31f11493273c69181900360600190a35060078054600680546001600160a01b03199081166001600160a01b03841617909155169055600190565b60065460408051808201909152601b815260008051602061160b83398151915260208201526000916001600160a01b031633146108885760405162461bcd60e51b8152602060048201818152835160248401528351909283926044909101919085019080838360008315610440578181015183820152602001610428565b505060018181555b919050565b6006546001600160a01b031681565b600854600160a01b900460ff1681565b60006020819052908152604090205460ff1681565b60036020526000908152604090205460ff1681565b600281815481106108eb57fe5b6000918252602090912001546001600160a01b0316905081565b600a546001600160a01b031681565b60408051808201909152601081526f4552525f5a45524f5f4144445245535360801b602082015283906001600160a01b0382166109925760405162461bcd60e51b8152602060048201818152835160248401528351909283926044909101919085019080838360008315610440578181015183820152602001610428565b5060408051808201909152601081526f4552525f5a45524f5f4144445245535360801b602082015283906001600160a01b038216610a115760405162461bcd60e51b8152602060048201818152835160248401528351909283926044909101919085019080838360008315610440578181015183820152602001610428565b5060408051808201909152601081526f4552525f5a45524f5f4144445245535360801b602082015283906001600160a01b038216610a905760405162461bcd60e51b8152602060048201818152835160248401528351909283926044909101919085019080838360008315610440578181015183820152602001610428565b50600854600160a01b900460ff1615610af0576040805162461bcd60e51b815260206004820152601c60248201527f4552525f4f574e45525f494e5449414c495a45445f414c524541445900000000604482015290519081900360640190fd5b846001600160a01b0316866001600160a01b031614156040518060400160405280601081526020016f4552525f53414d455f4144445245535360801b81525090610b7b5760405162461bcd60e51b8152602060048201818152835160248401528351909283926044909101919085019080838360008315610440578181015183820152602001610428565b50836001600160a01b0316856001600160a01b031614156040518060400160405280601081526020016f4552525f53414d455f4144445245535360801b81525090610c075760405162461bcd60e51b8152602060048201818152835160248401528351909283926044909101919085019080838360008315610440578181015183820152602001610428565b50836001600160a01b0316866001600160a01b031614156040518060400160405280601081526020016f4552525f53414d455f4144445245535360801b81525090610c935760405162461bcd60e51b8152602060048201818152835160248401528351909283926044909101919085019080838360008315610440578181015183820152602001610428565b5050600580546001600160a01b039687166001600160a01b03199182161790915560088054600680549689169684169690961790955560ff60a01b199590961693169290921792909216600160a01b179092555050565b600080610cfc620151806001546115ce565b90506000610d0a82856115fb565b9050804210610d1e57600192505050610890565b5060009392505050565b6009546001600160a01b031681565b6005546001600160a01b031681565b60065460408051808201909152601b815260008051602061160b83398151915260208201526000916001600160a01b03163314610dc45760405162461bcd60e51b8152602060048201818152835160248401528351909283926044909101919085019080838360008315610440578181015183820152602001610428565b5060408051808201909152601081526f4552525f5a45524f5f4144445245535360801b602082015282906001600160a01b038216610e435760405162461bcd60e51b8152602060048201818152835160248401528351909283926044909101919085019080838360008315610440578181015183820152602001610428565b506008546001600160a01b03848116911614801590610e7057506006546001600160a01b03848116911614155b8015610e8a57506005546001600160a01b03848116911614155b6040518060400160405280601081526020016f4552525f53414d455f4144445245535360801b81525090610eff5760405162461bcd60e51b8152602060048201818152835160248401528351909283926044909101919085019080838360008315610440578181015183820152602001610428565b50600780546001600160a01b0385166001600160a01b03199091161790556001915050919050565b60085460408051808201909152601b815260008051602061160b83398151915260208201526000916001600160a01b03163314610fa55760405162461bcd60e51b8152602060048201818152835160248401528351909283926044909101919085019080838360008315610440578181015183820152602001610428565b5060408051808201909152601081526f4552525f5a45524f5f4144445245535360801b602082015282906001600160a01b0382166110245760405162461bcd60e51b8152602060048201818152835160248401528351909283926044909101919085019080838360008315610440578181015183820152602001610428565b506001600160a01b03831660009081526003602052604090205460ff1615611093576040805162461bcd60e51b815260206004820152601960248201527f4552525f544f4b454e5f414c52454144595f414c4c4f57454400000000000000604482015290519081900360640190fd5b50506002805460018082019092557f405787fa12a823e0f2b7631cc41b3ba8828b3321ca811111fa75cd3aa3bb5ace0180546001600160a01b0319166001600160a01b03939093169283179055600091825260036020526040909120805460ff19168217905590565b60065460408051808201909152601b815260008051602061160b83398151915260208201526000916001600160a01b0316331461117a5760405162461bcd60e51b8152602060048201818152835160248401528351909283926044909101919085019080838360008315610440578181015183820152602001610428565b5060408051808201909152601081526f4552525f5a45524f5f4144445245535360801b602082015282906001600160a01b0382166111f95760405162461bcd60e51b8152602060048201818152835160248401528351909283926044909101919085019080838360008315610440578181015183820152602001610428565b505060098054600a80546001600160a01b038084166001600160a01b03199283161790925590911693169290921790915550600190565b60065460408051808201909152601b815260008051602061160b83398151915260208201526000916001600160a01b031633146112ae5760405162461bcd60e51b8152602060048201818152835160248401528351909283926044909101919085019080838360008315610440578181015183820152602001610428565b5060408051808201909152601081526f4552525f5a45524f5f4144445245535360801b602082015282906001600160a01b03821661132d5760405162461bcd60e51b8152602060048201818152835160248401528351909283926044909101919085019080838360008315610440578181015183820152602001610428565b506008546001600160a01b0384811691161480159061135a57506006546001600160a01b03848116911614155b801561137457506005546001600160a01b03848116911614155b6040518060400160405280601081526020016f4552525f53414d455f4144445245535360801b815250906113e95760405162461bcd60e51b8152602060048201818152835160248401528351909283926044909101919085019080838360008315610440578181015183820152602001610428565b50600554604080516020808252600d908201526c282924a6a0a92cafa7aba722a960991b8183015290516001600160a01b038087169316917f6840904f5b31827f74e1497360da245f56e530c8c3de3163a2d31f11493273c6919081900360600190a3600580546001600160a01b0385166001600160a01b03199091161790556001915050919050565b60015481565b6008546001600160a01b031681565b6005546000906001600160a01b03163314806114ae57506008546001600160a01b031633145b6040518060400160405280601b815260200160008051602061160b8339815191528152509061151e5760405162461bcd60e51b8152602060048201818152835160248401528351909283926044909101919085019080838360008315610440578181015183820152602001610428565b5060408051808201909152601081526f4552525f5a45524f5f4144445245535360801b602082015283906001600160a01b03821661159d5760405162461bcd60e51b8152602060048201818152835160248401528351909283926044909101919085019080838360008315610440578181015183820152602001610428565b5050506001600160a01b03919091166000908152602081905260409020805460ff1916911515919091179055600190565b6000826115dd575060006115f5565b828202828482816115ea57fe5b04146115f257fe5b90505b92915050565b6000828201838110156115f257fefe4552525f415554484f52495a45445f414444524553535f4f4e4c590000000000a265627a7a723058207496741fb798ba4fd29c304f11c2556b65f32649cfa09f1d15406fee08502d7064736f6c63430005090032",
  "source": "pragma solidity ^0.5.9;\n\nimport \"../common/ProxyOwnable.sol\";\nimport \"../common/SafeMath.sol\";\nimport \"../Proxy/Upgradeable.sol\";\nimport \"../InterFaces/IAuctionRegistery.sol\";\nimport \"../InterFaces/IAuctionTagAlong.sol\";\nimport \"../InterFaces/IERC20Token.sol\";\n\n\ninterface InitializeInterface {\n    function initialize(\n        address _primaryOwner,\n        address _systemAddress,\n        address _authorityAddress,\n        address _registeryAddress\n    ) external;\n}\n\n\ncontract AuctionProtectionRegistery is ProxyOwnable, AuctionRegisteryContracts {\n    \n    IAuctionRegistery public registry;\n    IAuctionRegistery public prevRegistry;\n\n    function updateRegistery(address _address)\n        external\n        onlyAuthorized()\n        notZeroAddress(_address)\n        returns (bool)\n    {\n        prevRegistry = registry;\n        registry = IAuctionRegistery(_address);\n        return true;\n    }\n\n    function getAddressOf(bytes32 _contractName)\n        internal\n        view\n        returns (address)\n    {\n        return registry.getAddressOf(_contractName);\n    }\n}\n\n\ncontract UtilsStorage {\n    \n    mapping(address => bool) public allowedAddress;\n\n    uint256 public tokenLockDuration;\n\n    address[] public allowedTokens;\n\n    mapping(address => bool) public tokenAllowed;\n\n\n    mapping(address => bool) public unLockBlock;\n    \n}\n\n\ncontract Utils is SafeMath, UtilsStorage, AuctionProtectionRegistery {\n    \n    modifier allowedTokenOnly(address _which) {\n        require(tokenAllowed[_which],\"ERR_ONLY_ALLOWED_TOKEN\");\n        _;\n    }\n\n    modifier allowedAddressOnly(address _which) {\n        require(allowedAddress[_which],ERR_AUTHORIZED_ADDRESS_ONLY);\n        _;\n    }\n\n    function allowToken(address _which)\n        external\n        onlySystem()\n        notZeroAddress(_which)\n        returns (bool)\n    {\n        require(!tokenAllowed[_which], \"ERR_TOKEN_ALREADY_ALLOWED\");\n        allowedTokens.push(_which);\n        tokenAllowed[_which] = true;\n        return true;\n    }\n\n    function setAllowedAddress(address _address, bool _check)\n        external\n        onlyOneOfOnwer()\n        notZeroAddress(_address)\n        returns (bool)\n    {\n        allowedAddress[_address] = _check;\n        return true;\n    }\n\n    function setTokenLockDuration(uint256 _tokenLockDuration)\n        external\n        onlyAuthorized()\n        returns (bool)\n    {\n        tokenLockDuration = _tokenLockDuration;\n        return true;\n    }\n\n    function isTokenLockEndDay(uint256 _firstLockDay)\n        public\n        view\n        returns (bool)\n    {\n        uint256 tempDay = safeMul(86400, tokenLockDuration);\n\n        uint256 tokenLockEndDay = safeAdd(tempDay, _firstLockDay);\n\n        if (now >= tokenLockEndDay) {\n            return true;\n        }\n        return false;\n    }\n}\n\n\ncontract ProtectionStorage {\n    // timestamp for address where first lock happen\n    mapping(address => uint256) public lockedOn;\n\n    mapping(address => mapping(address => uint256)) public lockedFunds;\n\n    mapping(address => mapping(address => uint256)) public currentLockedFunds;\n\n    mapping(address => uint256) public lockedTokens;\n}\n\n\ncontract AuctionProtection is\n    Upgradeable,\n    Utils,\n    ProtectionStorage,\n    InitializeInterface\n{\n    function initialize(\n        address _primaryOwner,\n        address _systemAddress,\n        address _authorityAddress,\n        address _registeryAddress\n    ) public {\n        super.initialize();\n        registry = IAuctionRegistery(_registeryAddress);\n        tokenLockDuration = 365;\n        ProxyOwnable.initializeOwner(\n            _primaryOwner,\n            _systemAddress,\n            _authorityAddress\n        );\n    }\n\n    event TokenUnLocked(address indexed _from);\n    event InvestMentCancelled(address indexed _from);\n    event FundLocked(address _token, address _which, uint256 _amount);\n    event FundTransfer(address indexed _to, address _token, uint256 _amount);\n\n    function ensureTransferFrom(\n        IERC20Token _token,\n        address _from,\n        address _to,\n        uint256 _amount\n    ) internal {\n        uint256 prevBalance = _token.balanceOf(_to);\n        if (_from == address(this)) _token.transfer(_to, _amount);\n        else _token.transferFrom(_from, _to, _amount);\n        uint256 postBalance = _token.balanceOf(_to);\n        require(postBalance > prevBalance,\"ERR_TRANSFER\");\n    }\n\n    function approveTransferFrom(\n        IERC20Token _token,\n        address _spender,\n        uint256 _amount\n    ) internal {\n        _token.approve(_spender, _amount);\n    }\n\n    function lockBalance(address _token, address _which, uint256 _amount)\n        internal\n        returns (bool)\n    {\n        if (lockedOn[_which] == 0) lockedOn[_which] = now;\n        uint256 currentBalance = currentLockedFunds[_which][_token];\n        currentLockedFunds[_which][_token] = safeAdd(currentBalance, _amount);\n        emit FundLocked(_token, _which, _amount);\n        return true;\n    }\n\n    function lockEther(address _which)\n        public\n        payable\n        allowedAddressOnly(msg.sender)\n        returns (bool)\n    {\n        return lockBalance(address(0), _which, msg.value);\n    }\n\n    function lockTokens(\n        IERC20Token _token,\n        address _from,\n        address _which,\n        uint256 _amount\n    )\n        public\n        allowedAddressOnly(msg.sender)\n        allowedTokenOnly(address(_token))\n        returns (bool)\n    {\n        ensureTransferFrom(_token, _from, address(this), _amount);\n        return lockBalance(address(_token), _which, _amount);\n    }\n\n    function cancelInvestment() external returns (bool) {\n        require(\n            isTokenLockEndDay(lockedOn[msg.sender]),\n            \"ERR_INVESTMENT_CANCEL_PERIOD_OVER\"\n        );\n\n        uint256 _tokenBalance;\n        IERC20Token _token;\n        for (uint256 tempX = 0; tempX < allowedTokens.length; tempX++) {\n            _token = IERC20Token(allowedTokens[tempX]);\n            _tokenBalance = lockedFunds[msg.sender][address(_token)];\n            if (_tokenBalance > 0) {\n                ensureTransferFrom(\n                    _token,\n                    address(this),\n                    msg.sender,\n                    _tokenBalance\n                );\n                lockedFunds[msg.sender][address(_token)] = 0;\n                emit FundTransfer(msg.sender, address(_token), _tokenBalance);\n            }\n        }\n\n        _tokenBalance = lockedFunds[msg.sender][address(0)];\n        if (_tokenBalance > 0) {\n            msg.sender.transfer(_tokenBalance);\n            emit FundTransfer(msg.sender, address(0), _tokenBalance);\n            lockedFunds[msg.sender][address(0)] = 0;\n        }\n\n        _tokenBalance = lockedTokens[msg.sender];\n        if (_tokenBalance > 0) {\n            _token = IERC20Token(getAddressOf(MAIN_TOKEN));\n            address tagAlongAdress = getAddressOf(TAG_ALONG);\n            approveTransferFrom(_token, tagAlongAdress, _tokenBalance);\n            IAuctionTagAlong(tagAlongAdress).depositeToken(\n                _token,\n                address(this),\n                _tokenBalance\n            );\n            emit FundTransfer(tagAlongAdress, address(_token), _tokenBalance);\n            lockedTokens[msg.sender] = 0;\n        }\n        emit InvestMentCancelled(msg.sender);\n        return true;\n    }\n\n    // user unlock tokens and funds goes to compnay wallet\n    function unLockTokens() external returns (bool) {\n        address tagAlongAdress = getAddressOf(TAG_ALONG);\n        uint256 _tokenBalance;\n        IERC20Token _token;\n        for (uint256 tempX = 0; tempX < allowedTokens.length; tempX++) {\n            _token = IERC20Token(allowedTokens[tempX]);\n            _tokenBalance = lockedFunds[msg.sender][address(_token)];\n            if (_tokenBalance > 0) {\n                approveTransferFrom(_token, tagAlongAdress, _tokenBalance);\n                IAuctionTagAlong(tagAlongAdress).depositeToken(\n                    _token,\n                    address(this),\n                    _tokenBalance\n                );\n                lockedFunds[msg.sender][address(_token)] = 0;\n                emit FundTransfer(\n                    tagAlongAdress,\n                    address(_token),\n                    _tokenBalance\n                );\n            }\n        }\n\n        _tokenBalance = lockedFunds[msg.sender][address(0)];\n\n        if (_tokenBalance > 0) {\n            IAuctionTagAlong(tagAlongAdress).depositeEther.value(\n                _tokenBalance\n            )();\n            emit FundTransfer(tagAlongAdress, address(0), _tokenBalance);\n            lockedFunds[msg.sender][address(0)] = 0;\n        }\n\n        _tokenBalance = lockedTokens[msg.sender];\n        if (_tokenBalance > 0) {\n            _token = IERC20Token(getAddressOf(MAIN_TOKEN));\n            ensureTransferFrom(\n                _token,\n                address(this),\n                msg.sender,\n                _tokenBalance\n            );\n            emit FundTransfer(msg.sender, address(_token), _tokenBalance);\n            lockedTokens[msg.sender] = 0;\n        }\n\n        emit TokenUnLocked(msg.sender);\n        return true;\n    }\n\n    function unLockFundByAdmin(address _which)\n        external\n        onlyOneOfOnwer()\n        returns (bool)\n    {\n        require(\n            isTokenLockEndDay(lockedOn[_which]),\n            \"ERR_ADMIN_CANT_UNLOCK_FUND\"\n        );\n\n        address tagAlongAdress = getAddressOf(TAG_ALONG);\n        uint256 _tokenBalance;\n        IERC20Token _token;\n\n        for (uint256 tempX = 0; tempX < allowedTokens.length; tempX++) {\n            _token = IERC20Token(allowedTokens[tempX]);\n            _tokenBalance = lockedFunds[_which][address(_token)];\n            if (_tokenBalance > 0) {\n                approveTransferFrom(_token, tagAlongAdress, _tokenBalance);\n                IAuctionTagAlong(tagAlongAdress).depositeToken(\n                    _token,\n                    address(this),\n                    _tokenBalance\n                );\n                lockedFunds[_which][address(_token)] = 0;\n                emit FundTransfer(\n                    tagAlongAdress,\n                    address(_token),\n                    _tokenBalance\n                );\n            }\n        }\n\n        _tokenBalance = lockedFunds[_which][address(0)];\n        if (_tokenBalance > 0) {\n            IAuctionTagAlong(tagAlongAdress).depositeEther.value(\n                _tokenBalance\n            )();\n            emit FundTransfer(tagAlongAdress, address(0), _tokenBalance);\n            lockedFunds[_which][address(0)] = 0;\n        }\n\n        _tokenBalance = lockedTokens[_which];\n        if (_tokenBalance > 0) {\n            _token = IERC20Token(getAddressOf(MAIN_TOKEN));\n            ensureTransferFrom(_token, address(this), _which, _tokenBalance);\n            emit FundTransfer(_which, address(_token), _tokenBalance);\n            lockedTokens[_which] = 0;\n        }\n\n        emit TokenUnLocked(_which);\n        return true;\n    }\n\n    function depositToken(address _from, address _which, uint256 _amount)\n        external\n        allowedAddressOnly(msg.sender)\n        returns (bool)\n    {\n        IERC20Token token = IERC20Token(getAddressOf(MAIN_TOKEN));\n        ensureTransferFrom(token, _from, address(this), _amount);\n        lockedTokens[_which] = safeAdd(lockedTokens[_which], _amount);\n\n        uint256 _currentTokenBalance;\n        IERC20Token _token;\n        for (uint256 tempX = 0; tempX < allowedTokens.length; tempX++) {\n            _token = IERC20Token(allowedTokens[tempX]);\n            _currentTokenBalance = currentLockedFunds[_which][address(_token)];\n            if (_currentTokenBalance > 0) {\n                lockedFunds[msg.sender][address(_token)] = safeAdd(\n                    lockedFunds[msg.sender][address(_token)],\n                    _currentTokenBalance\n                );\n                currentLockedFunds[_which][address(_token)] = 0;\n            }\n        }\n\n        if (currentLockedFunds[_which][address(0)] > 0) {\n            _currentTokenBalance = currentLockedFunds[_which][address(0)];\n            lockedFunds[_which][address(0)] = safeAdd(\n                lockedFunds[_which][address(0)],\n                _currentTokenBalance\n            );\n            currentLockedFunds[_which][address(0)] = 0;\n        }\n\n        emit FundLocked(address(token), _which, _amount);\n        return true;\n    }\n}\n",
  "sourcePath": "/home/mind/Work/Projects/Jointer/Jointer_auction/NewContracts/contracts/Protection/AuctionProtection.sol",
  "compiler": {
    "name": "solc",
    "version": "0.5.9+commit.e560f70d.Emscripten.clang"
  },
  "schemaVersion": "3.0.16",
  "updatedAt": "2020-04-22T14:52:56.383Z",
  "devdoc": {
    "methods": {
      "changeAuthorityAddress(address)": {
        "details": "change system address",
        "params": {
          "_which": "The address to which is new Authority address"
        }
      },
      "changePrimaryOwner(address)": {
        "details": "change primary ownership",
        "params": {
          "_which": "The address to which is new owner address"
        }
      },
      "changeSystemAddress(address)": {
        "details": "change system address",
        "params": {
          "_which": "The address to which is new system address"
        }
      },
      "initializeOwner(address,address,address)": {
        "details": "The Ownable constructor sets the `primaryOwner` and `systemAddress` and '_multisigAddress' account."
      }
    }
  },
  "userdoc": {
    "methods": {}
  }
}