{
  "contractName": "UtilsStorage",
  "abi": [
    {
      "constant": true,
      "inputs": [
        {
          "name": "",
          "type": "address"
        }
      ],
      "name": "unLockBlock",
      "outputs": [
        {
          "name": "",
          "type": "bool"
        }
      ],
      "payable": false,
      "stateMutability": "view",
      "type": "function"
    },
    {
      "constant": true,
      "inputs": [
        {
          "name": "",
          "type": "address"
        }
      ],
      "name": "allowedAddress",
      "outputs": [
        {
          "name": "",
          "type": "bool"
        }
      ],
      "payable": false,
      "stateMutability": "view",
      "type": "function"
    },
    {
      "constant": true,
      "inputs": [
        {
          "name": "",
          "type": "address"
        }
      ],
      "name": "tokenAllowed",
      "outputs": [
        {
          "name": "",
          "type": "bool"
        }
      ],
      "payable": false,
      "stateMutability": "view",
      "type": "function"
    },
    {
      "constant": true,
      "inputs": [
        {
          "name": "",
          "type": "uint256"
        }
      ],
      "name": "allowedTokens",
      "outputs": [
        {
          "name": "",
          "type": "address"
        }
      ],
      "payable": false,
      "stateMutability": "view",
      "type": "function"
    },
    {
      "constant": true,
      "inputs": [],
      "name": "tokenLockDuration",
      "outputs": [
        {
          "name": "",
          "type": "uint256"
        }
      ],
      "payable": false,
      "stateMutability": "view",
      "type": "function"
    }
  ],
  "bytecode": "0x608060405234801561001057600080fd5b506101d6806100206000396000f3fe608060405234801561001057600080fd5b50600436106100575760003560e01c80631b14eef91461005c578063409082981461009657806355219d5a146100bc5780635e5f2e26146100e2578063d0982feb1461011b575b600080fd5b6100826004803603602081101561007257600080fd5b50356001600160a01b0316610135565b604080519115158252519081900360200190f35b610082600480360360208110156100ac57600080fd5b50356001600160a01b031661014a565b610082600480360360208110156100d257600080fd5b50356001600160a01b031661015f565b6100ff600480360360208110156100f857600080fd5b5035610174565b604080516001600160a01b039092168252519081900360200190f35b61012361019b565b60408051918252519081900360200190f35b60046020526000908152604090205460ff1681565b60006020819052908152604090205460ff1681565b60036020526000908152604090205460ff1681565b6002818154811061018157fe5b6000918252602090912001546001600160a01b0316905081565b6001548156fea265627a7a72305820ce6f67ac137f24c1a0e7292a29edd1dc324123773cf4f5858dc09034f1e97c5164736f6c63430005090032",
  "source": "pragma solidity ^0.5.9;\n\nimport \"../common/ProxyOwnable.sol\";\nimport \"../common/SafeMath.sol\";\nimport \"../Proxy/Upgradeable.sol\";\nimport \"../InterFaces/IAuctionRegistery.sol\";\nimport \"../InterFaces/IAuctionTagAlong.sol\";\nimport \"../InterFaces/IERC20Token.sol\";\n\n\ninterface InitializeInterface {\n    function initialize(\n        address _primaryOwner,\n        address _systemAddress,\n        address _authorityAddress,\n        address _registeryAddress\n    ) external;\n}\n\n\ncontract AuctionRegistery is ProxyOwnable, AuctionRegisteryContracts {\n    \n    IAuctionRegistery public contractsRegistry;\n    \n    function updateRegistery(address _address)\n        external\n        onlyAuthorized()\n        notZeroAddress(_address)\n        returns (bool)\n    {\n        \n        contractsRegistry = IAuctionRegistery(_address);\n        return true;\n    }\n\n    function getAddressOf(bytes32 _contractName)\n        internal\n        view\n        returns (address)\n    {\n        return contractsRegistry.getAddressOf(_contractName);\n    }\n}\n\n\ncontract UtilsStorage {\n    \n    mapping(address => bool) public allowedAddress;\n\n    uint256 public tokenLockDuration;\n\n    address[] public allowedTokens;\n\n    mapping(address => bool) public tokenAllowed;\n\n\n    mapping(address => bool) public unLockBlock;\n    \n}\n\n\ncontract Utils is SafeMath, UtilsStorage, AuctionRegistery {\n    \n    modifier allowedTokenOnly(address _which) {\n        require(tokenAllowed[_which],\"ERR_ONLY_ALLOWED_TOKEN\");\n        _;\n    }\n\n    modifier allowedAddressOnly(address _which) {\n        require(allowedAddress[_which],ERR_AUTHORIZED_ADDRESS_ONLY);\n        _;\n    }\n\n    function allowToken(address _which)\n        external\n        onlySystem()\n        notZeroAddress(_which)\n        returns (bool)\n    {\n        require(!tokenAllowed[_which], \"ERR_TOKEN_ALREADY_ALLOWED\");\n        allowedTokens.push(_which);\n        tokenAllowed[_which] = true;\n        return true;\n    }\n\n    function setAllowedAddress(address _address, bool _check)\n        external\n        onlyOneOfOnwer()\n        notZeroAddress(_address)\n        returns (bool)\n    {\n        allowedAddress[_address] = _check;\n        return true;\n    }\n\n    function setTokenLockDuration(uint256 _tokenLockDuration)\n        external\n        onlyAuthorized()\n        returns (bool)\n    {\n        tokenLockDuration = _tokenLockDuration;\n        return true;\n    }\n\n    function isTokenLockEndDay(uint256 _firstLockDay)\n        public\n        view\n        returns (bool)\n    {\n        uint256 tempDay = safeMul(86400, tokenLockDuration);\n\n        uint256 tokenLockEndDay = safeAdd(tempDay, _firstLockDay);\n\n        if (now >= tokenLockEndDay) {\n            return true;\n        }\n        return false;\n    }\n}\n\n\ncontract ProtectionStorage {\n    // timestamp for address where first lock happen\n    mapping(address => uint256) public lockedOn;\n\n    mapping(address => mapping(address => uint256)) public lockedFunds;\n\n    mapping(address => mapping(address => uint256)) public currentLockedFunds;\n\n    mapping(address => uint256) public lockedTokens;\n}\n\n\ncontract AuctionProtection is\n    Upgradeable,\n    Utils,\n    ProtectionStorage,\n    InitializeInterface\n{\n    function initialize(\n        address _primaryOwner,\n        address _systemAddress,\n        address _authorityAddress,\n        address _registeryAddress\n    ) public {\n        super.initialize();\n        contractsRegistry = IAuctionRegistery(_registeryAddress);\n        tokenLockDuration = 365;\n        ProxyOwnable.initializeOwner(\n            _primaryOwner,\n            _systemAddress,\n            _authorityAddress\n        );\n    }\n\n    event TokenUnLocked(address indexed _from);\n    event InvestMentCancelled(address indexed _from);\n    event FundLocked(address _token, address _which, uint256 _amount);\n    event FundTransfer(address indexed _to, address _token, uint256 _amount);\n\n    function ensureTransferFrom(\n        IERC20Token _token,\n        address _from,\n        address _to,\n        uint256 _amount\n    ) internal {\n        uint256 prevBalance = _token.balanceOf(_to);\n        if (_from == address(this)) _token.transfer(_to, _amount);\n        else _token.transferFrom(_from, _to, _amount);\n        uint256 postBalance = _token.balanceOf(_to);\n        require(postBalance > prevBalance,\"ERR_TRANSFER\");\n    }\n\n    function approveTransferFrom(\n        IERC20Token _token,\n        address _spender,\n        uint256 _amount\n    ) internal {\n        _token.approve(_spender, _amount);\n    }\n\n    function lockBalance(address _token, address _which, uint256 _amount)\n        internal\n        returns (bool)\n    {\n        if (lockedOn[_which] == 0) lockedOn[_which] = now;\n        uint256 currentBalance = currentLockedFunds[_which][_token];\n        currentLockedFunds[_which][_token] = safeAdd(currentBalance, _amount);\n        emit FundLocked(_token, _which, _amount);\n        return true;\n    }\n\n    function lockEther(address _which)\n        public\n        payable\n        allowedAddressOnly(msg.sender)\n        returns (bool)\n    {\n        return lockBalance(address(0), _which, msg.value);\n    }\n\n    function lockTokens(\n        IERC20Token _token,\n        address _from,\n        address _which,\n        uint256 _amount\n    )\n        public\n        allowedAddressOnly(msg.sender)\n        allowedTokenOnly(address(_token))\n        returns (bool)\n    {\n        ensureTransferFrom(_token, _from, address(this), _amount);\n        return lockBalance(address(_token), _which, _amount);\n    }\n\n    function cancelInvestment() external returns (bool) {\n        require(\n            isTokenLockEndDay(lockedOn[msg.sender]),\n            \"ERR_INVESTMENT_CANCEL_PERIOD_OVER\"\n        );\n\n        uint256 _tokenBalance;\n        IERC20Token _token;\n        for (uint256 tempX = 0; tempX < allowedTokens.length; tempX++) {\n            _token = IERC20Token(allowedTokens[tempX]);\n            _tokenBalance = lockedFunds[msg.sender][address(_token)];\n            if (_tokenBalance > 0) {\n                ensureTransferFrom(\n                    _token,\n                    address(this),\n                    msg.sender,\n                    _tokenBalance\n                );\n                lockedFunds[msg.sender][address(_token)] = 0;\n                emit FundTransfer(msg.sender, address(_token), _tokenBalance);\n            }\n        }\n\n        _tokenBalance = lockedFunds[msg.sender][address(0)];\n        if (_tokenBalance > 0) {\n            msg.sender.transfer(_tokenBalance);\n            emit FundTransfer(msg.sender, address(0), _tokenBalance);\n            lockedFunds[msg.sender][address(0)] = 0;\n        }\n\n        _tokenBalance = lockedTokens[msg.sender];\n        if (_tokenBalance > 0) {\n            _token = IERC20Token(getAddressOf(MAIN_TOKEN));\n            address tagAlongAdress = getAddressOf(TAG_ALONG);\n            approveTransferFrom(_token, tagAlongAdress, _tokenBalance);\n            IAuctionTagAlong(tagAlongAdress).depositeToken(\n                _token,\n                address(this),\n                _tokenBalance\n            );\n            emit FundTransfer(tagAlongAdress, address(_token), _tokenBalance);\n            lockedTokens[msg.sender] = 0;\n        }\n        emit InvestMentCancelled(msg.sender);\n        return true;\n    }\n\n    // user unlock tokens and funds goes to compnay wallet\n    function unLockTokens() external returns (bool) {\n        address tagAlongAdress = getAddressOf(TAG_ALONG);\n        uint256 _tokenBalance;\n        IERC20Token _token;\n        for (uint256 tempX = 0; tempX < allowedTokens.length; tempX++) {\n            _token = IERC20Token(allowedTokens[tempX]);\n            _tokenBalance = lockedFunds[msg.sender][address(_token)];\n            if (_tokenBalance > 0) {\n                approveTransferFrom(_token, tagAlongAdress, _tokenBalance);\n                IAuctionTagAlong(tagAlongAdress).depositeToken(\n                    _token,\n                    address(this),\n                    _tokenBalance\n                );\n                lockedFunds[msg.sender][address(_token)] = 0;\n                emit FundTransfer(\n                    tagAlongAdress,\n                    address(_token),\n                    _tokenBalance\n                );\n            }\n        }\n\n        _tokenBalance = lockedFunds[msg.sender][address(0)];\n\n        if (_tokenBalance > 0) {\n            IAuctionTagAlong(tagAlongAdress).depositeEther.value(\n                _tokenBalance\n            )();\n            emit FundTransfer(tagAlongAdress, address(0), _tokenBalance);\n            lockedFunds[msg.sender][address(0)] = 0;\n        }\n\n        _tokenBalance = lockedTokens[msg.sender];\n        if (_tokenBalance > 0) {\n            _token = IERC20Token(getAddressOf(MAIN_TOKEN));\n            ensureTransferFrom(\n                _token,\n                address(this),\n                msg.sender,\n                _tokenBalance\n            );\n            emit FundTransfer(msg.sender, address(_token), _tokenBalance);\n            lockedTokens[msg.sender] = 0;\n        }\n\n        emit TokenUnLocked(msg.sender);\n        return true;\n    }\n\n    function unLockFundByAdmin(address _which)\n        external\n        onlyOneOfOnwer()\n        returns (bool)\n    {\n        require(\n            isTokenLockEndDay(lockedOn[_which]),\n            \"ERR_ADMIN_CANT_UNLOCK_FUND\"\n        );\n\n        address tagAlongAdress = getAddressOf(TAG_ALONG);\n        uint256 _tokenBalance;\n        IERC20Token _token;\n\n        for (uint256 tempX = 0; tempX < allowedTokens.length; tempX++) {\n            _token = IERC20Token(allowedTokens[tempX]);\n            _tokenBalance = lockedFunds[_which][address(_token)];\n            if (_tokenBalance > 0) {\n                approveTransferFrom(_token, tagAlongAdress, _tokenBalance);\n                IAuctionTagAlong(tagAlongAdress).depositeToken(\n                    _token,\n                    address(this),\n                    _tokenBalance\n                );\n                lockedFunds[_which][address(_token)] = 0;\n                emit FundTransfer(\n                    tagAlongAdress,\n                    address(_token),\n                    _tokenBalance\n                );\n            }\n        }\n\n        _tokenBalance = lockedFunds[_which][address(0)];\n        if (_tokenBalance > 0) {\n            IAuctionTagAlong(tagAlongAdress).depositeEther.value(\n                _tokenBalance\n            )();\n            emit FundTransfer(tagAlongAdress, address(0), _tokenBalance);\n            lockedFunds[_which][address(0)] = 0;\n        }\n\n        _tokenBalance = lockedTokens[_which];\n        if (_tokenBalance > 0) {\n            _token = IERC20Token(getAddressOf(MAIN_TOKEN));\n            ensureTransferFrom(_token, address(this), _which, _tokenBalance);\n            emit FundTransfer(_which, address(_token), _tokenBalance);\n            lockedTokens[_which] = 0;\n        }\n\n        emit TokenUnLocked(_which);\n        return true;\n    }\n\n    function depositToken(address _from, address _which, uint256 _amount)\n        external\n        allowedAddressOnly(msg.sender)\n        returns (bool)\n    {\n        IERC20Token token = IERC20Token(getAddressOf(MAIN_TOKEN));\n        ensureTransferFrom(token, _from, address(this), _amount);\n        lockedTokens[_which] = safeAdd(lockedTokens[_which], _amount);\n\n        uint256 _currentTokenBalance;\n        IERC20Token _token;\n        for (uint256 tempX = 0; tempX < allowedTokens.length; tempX++) {\n            _token = IERC20Token(allowedTokens[tempX]);\n            _currentTokenBalance = currentLockedFunds[_which][address(_token)];\n            if (_currentTokenBalance > 0) {\n                lockedFunds[msg.sender][address(_token)] = safeAdd(\n                    lockedFunds[msg.sender][address(_token)],\n                    _currentTokenBalance\n                );\n                currentLockedFunds[_which][address(_token)] = 0;\n            }\n        }\n\n        if (currentLockedFunds[_which][address(0)] > 0) {\n            _currentTokenBalance = currentLockedFunds[_which][address(0)];\n            lockedFunds[_which][address(0)] = safeAdd(\n                lockedFunds[_which][address(0)],\n                _currentTokenBalance\n            );\n            currentLockedFunds[_which][address(0)] = 0;\n        }\n\n        emit FundLocked(address(token), _which, _amount);\n        return true;\n    }\n}\n",
  "sourcePath": "/home/mind/Work/Projects/Jointer/Jointer_auction/NewContracts/contracts/Protection/AuctionProtection.sol",
  "compiler": {
    "name": "solc",
    "version": "0.5.9+commit.e560f70d.Emscripten.clang"
  },
  "schemaVersion": "3.0.16",
  "updatedAt": "2020-04-27T13:53:30.395Z",
  "devdoc": {
    "methods": {}
  },
  "userdoc": {
    "methods": {}
  }
}