{
  "contractName": "WhiteListStorage",
  "abi": [
    {
      "constant": true,
      "inputs": [
        {
          "name": "",
          "type": "address"
        }
      ],
      "name": "is_whiteListed",
      "outputs": [
        {
          "name": "",
          "type": "bool"
        }
      ],
      "payable": false,
      "stateMutability": "view",
      "type": "function"
    },
    {
      "constant": true,
      "inputs": [
        {
          "name": "",
          "type": "address"
        }
      ],
      "name": "address_belongs",
      "outputs": [
        {
          "name": "",
          "type": "address"
        }
      ],
      "payable": false,
      "stateMutability": "view",
      "type": "function"
    },
    {
      "constant": true,
      "inputs": [
        {
          "name": "",
          "type": "uint256"
        }
      ],
      "name": "allowed_in_primary",
      "outputs": [
        {
          "name": "",
          "type": "bool"
        }
      ],
      "payable": false,
      "stateMutability": "view",
      "type": "function"
    },
    {
      "constant": true,
      "inputs": [
        {
          "name": "",
          "type": "uint256"
        }
      ],
      "name": "allowed_in_secondary",
      "outputs": [
        {
          "name": "",
          "type": "bool"
        }
      ],
      "payable": false,
      "stateMutability": "view",
      "type": "function"
    },
    {
      "constant": true,
      "inputs": [
        {
          "name": "",
          "type": "address"
        }
      ],
      "name": "user_details",
      "outputs": [
        {
          "name": "whiteListType",
          "type": "uint256"
        },
        {
          "name": "maxWallets",
          "type": "uint256"
        },
        {
          "name": "canRecive",
          "type": "bool"
        }
      ],
      "payable": false,
      "stateMutability": "view",
      "type": "function"
    }
  ],
  "bytecode": "0x608060405234801561001057600080fd5b5061020a806100206000396000f3fe608060405234801561001057600080fd5b50600436106100575760003560e01c8063332d630a1461005c57806356be4a3e1461009657806364f9a141146100d8578063bee4a783146100f5578063e128a99114610112575b600080fd5b6100826004803603602081101561007257600080fd5b50356001600160a01b0316610158565b604080519115158252519081900360200190f35b6100bc600480360360208110156100ac57600080fd5b50356001600160a01b031661016d565b604080516001600160a01b039092168252519081900360200190f35b610082600480360360208110156100ee57600080fd5b5035610188565b6100826004803603602081101561010b57600080fd5b503561019d565b6101386004803603602081101561012857600080fd5b50356001600160a01b03166101b2565b604080519384526020840192909252151582820152519081900360600190f35b60006020819052908152604090205460ff1681565b6001602052600090815260409020546001600160a01b031681565b60036020526000908152604090205460ff1681565b60046020526000908152604090205460ff1681565b600260208190526000918252604090912080546001820154919092015460ff168356fea265627a7a723058206d20bb4cdbacbf20ea9229298c4f73520c01e9d97997f32055d2420d2d1ca50f64736f6c63430005090032",
  "source": "pragma solidity ^0.5.9;\n\nimport \"../common/ProxyOwnable.sol\";\nimport \"../common/SafeMath.sol\";\nimport \"../Proxy/Upgradeable.sol\";\n\ncontract WhiteListStorage {\n    \n    //whiteList type here show which kind of wallet is this \n    // this is dynmic type field \n    \n    struct UserDetails {\n        uint256 whiteListType;\n        uint256 maxWallets;\n        bool canRecive;\n        address[] wallets;\n        mapping(address => uint256) walletIndex;\n        mapping(bytes32 => bytes32) moreDetails;\n    }\n    \n    mapping(address => bool) public is_whiteListed;\n\n    mapping(address => address) public address_belongs;\n\n    mapping(address => UserDetails) public user_details;\n\n    mapping(uint256 => bool) public allowed_in_primary;\n\n    mapping(uint256 => bool) public allowed_in_secondary;\n\n    mapping(address => bool) by_passed_address;\n    \n}\n\ncontract WhiteList is Upgradeable, ProxyOwnable, SafeMath, WhiteListStorage {\n\n    event AccountWhiteListed(address indexed which, uint256 walletType);\n    event WalletAdded(address indexed from, address indexed which);\n    event WalletRemoved(address indexed from, address indexed which);\n\n    function initialize(address _primaryOwner,address _systemAddress,address _authorityAddress) public {\n        super.initialize();\n        ProxyOwnable.initializeOwner(_primaryOwner,_systemAddress,_authorityAddress);\n        whiteListAccount(msg.sender, 0, 10);\n        whiteListAccount(_systemAddress, 0, 10);\n        by_passed_address[msg.sender] = true;\n        by_passed_address[_systemAddress] = true;\n        allowed_in_primary[0] = true;\n        allowed_in_secondary[0] = true;\n    }\n\n    function whiteListAccount(\n        address _which,\n        uint256 _whiteListType,\n        uint256 _maxWallets\n    ) internal returns (bool) {\n        \n        is_whiteListed[_which] = true;\n        \n        UserDetails storage details = user_details[_which];\n        \n        details.whiteListType = _whiteListType;\n        \n        details.maxWallets = _maxWallets;\n        \n        details.canRecive = true;\n        \n        address_belongs[_which] = _which;\n        \n        emit AccountWhiteListed(_which, _whiteListType);\n        \n        return true;\n    }\n\n    //by passed address dont need to pass anything\n    function setByPassedAddress(address _which, bool _isPassed)\n        public\n        onlySystem()\n        notZeroAddress(_which)\n        returns (bool)\n    {\n        by_passed_address[_which] = _isPassed;\n        return true;\n    }\n\n    function isAddressByPassed(address _which) public view returns (bool) {\n        return by_passed_address[_which];\n    }\n\n    /**\n     * @dev add new whitelisted account\n     * @param _which The address which was whitelisted.\n     * @param _whiteListType account type\n     * @param _maxWallets user can whitelist limted wallets\n     * @return true if transcation success\n     */\n    function addNewWallet(\n        address _which,\n        uint256 _whiteListType,\n        uint256 _maxWallets\n    ) public onlySystem() notZeroAddress(_which) returns (bool) {\n        require(address_belongs[_which] == address(0));\n        return whiteListAccount(_which, _whiteListType, _maxWallets);\n    }\n\n    /**\n     * @dev update how many wallet one user can have\n     * @param _which The address which was whitelisted.\n     * @param _maxWallets user can whitelist limted wallets\n     * @return true if transcation success\n     */\n    function updateMaxWallet(address _which, uint256 _maxWallets)\n        public\n        onlyOwner\n        returns (bool)\n    {\n        require(is_whiteListed[_which],ERR_AUTHORIZED_ADDRESS_ONLY);\n        UserDetails storage details = user_details[_which];\n        details.maxWallets = _maxWallets;\n        return true;\n    }\n\n    /**\n     * @dev once user whiltelisted they can add more address itself\n     * @param _which The address which was whitelisted.\n     * @return true if transcation success\n     */\n    function addMoreWallets(address _which)\n        public\n        notZeroAddress(_which)\n        returns (bool)\n    {\n        require(address_belongs[_which] == address(0), ERR_AUTHORIZED_ADDRESS_ONLY);\n        \n        address sender = msg.sender;\n        \n        address primaryAddress = address_belongs[sender];\n        \n        require(\n            is_whiteListed[primaryAddress] && sender == primaryAddress,\n            ERR_AUTHORIZED_ADDRESS_ONLY\n        );\n        \n        UserDetails storage details = user_details[primaryAddress];\n        \n        require(\n            details.maxWallets > details.wallets.length,\n            \"ERR_MAXIMUM_WALLET_LIMIT\"\n        );\n        \n        address_belongs[_which] = primaryAddress;\n        \n        details.wallets.push(_which);\n        \n        emit WalletAdded(primaryAddress, _which);\n        \n        return true;\n    }\n\n    function getUserWallets(address _whom)\n        public\n        view\n        returns (address[] memory)\n    {\n        UserDetails storage details = user_details[_whom];\n        return details.wallets;\n    }\n\n    // when user kyc or Aml expire\n    function walletExpires(address _which) public onlySystem() returns (bool) {\n        require(is_whiteListed[_which], \"ERR_ACTION_NOT_ALLOWED\");\n        address primaryAddress = address_belongs[_which];\n        UserDetails storage details = user_details[primaryAddress];\n        details.canRecive = false;\n        return true;\n    }\n\n    function walletRenewed(address _which) public onlySystem() returns (bool) {\n        require(is_whiteListed[_which], \"ERR_ACTION_NOT_ALLOWED\");\n        address primaryAddress = address_belongs[_which];\n        UserDetails storage details = user_details[primaryAddress];\n        details.canRecive = true;\n        return true;\n    }\n\n    /**\n     * @dev function to check if user can recive token or not\n     * @param _which The address which was blocked or unblocked.\n     */\n    function canReciveToken(address _which) public view returns (bool) {\n        address primaryAddress = address_belongs[_which];\n        return user_details[primaryAddress].canRecive;\n    }\n\n    /**\n     * @dev function to check if address whitelisted or not\n     * @param _which The address which was whitelisted.\n     */\n    function isWhiteListed(address _which) public view returns (bool) {\n        address primaryAddress = address_belongs[_which];\n        return is_whiteListed[primaryAddress];\n    }\n\n    /**\n     * @dev function to check if transfer allowed between whitelist type\n     * @param _which The address which was whitelisted.\n     */\n    function isTransferAllowed(address _which) public view returns (bool) {\n        address primaryAddress = address_belongs[_which];\n        return allowed_in_secondary[user_details[primaryAddress].whiteListType];\n    }\n\n    /**\n     * @dev function to set primary whiteList type allowed\n     * @param _whiteListType is array for type of account .\n     * @param _isAlloweded is array for bool.\n     */\n    function changeAllowInPrimary(\n        uint256[] memory _whiteListType,\n        bool[] memory _isAlloweded\n    ) public onlySystem() returns (bool) {\n        require(_whiteListType.length == _isAlloweded.length);\n        for (uint256 temp_x = 0; temp_x < _whiteListType.length; temp_x++) {\n            allowed_in_primary[_whiteListType[temp_x]] = _isAlloweded[temp_x];\n        }\n        return true;\n    }\n\n    /**\n     * @dev function to set primary whiteList type allowed\n     * @param _whiteListType is array for type of account .\n     * @param _isAlloweded is array for bool.\n     */\n    function changeAllowInSecondary(\n        uint256[] memory _whiteListType,\n        bool[] memory _isAlloweded\n    ) public onlySystem() returns (bool) {\n        require(_whiteListType.length == _isAlloweded.length);\n        \n        for (uint256 temp_x = 0; temp_x < _whiteListType.length; temp_x++) {\n            allowed_in_secondary[_whiteListType[temp_x]] = _isAlloweded[temp_x];\n        }\n        return true;\n    }\n\n    // check before transfer\n    function checkBeforeTransfer(address _from, address _to)\n        public\n        view\n        returns (bool)\n    {\n        if (!isWhiteListed(_from)) return false;\n\n        if (!isWhiteListed(_to)) return false;\n\n        if (!canReciveToken(_to)) return false;\n\n        if (!isTransferAllowed(_to)) return false;\n\n        return true;\n    }\n}",
  "sourcePath": "/home/mind/Work/Projects/Jointer/Jointer_auction/NewContracts/contracts/WhiteList/WhiteList.sol",
  "compiler": {
    "name": "solc",
    "version": "0.5.9+commit.e560f70d.Emscripten.clang"
  },
  "schemaVersion": "3.0.16",
  "updatedAt": "2020-04-27T13:53:30.502Z",
  "devdoc": {
    "methods": {}
  },
  "userdoc": {
    "methods": {}
  }
}