{
  "contractName": "WhiteList",
  "abi": [
    {
      "constant": false,
      "inputs": [
        {
          "name": "_which",
          "type": "address"
        }
      ],
      "name": "changeSystemAddress",
      "outputs": [
        {
          "name": "",
          "type": "bool"
        }
      ],
      "payable": false,
      "stateMutability": "nonpayable",
      "type": "function"
    },
    {
      "constant": true,
      "inputs": [],
      "name": "IS_BYPASSED",
      "outputs": [
        {
          "name": "",
          "type": "uint256"
        }
      ],
      "payable": false,
      "stateMutability": "view",
      "type": "function"
    },
    {
      "constant": true,
      "inputs": [],
      "name": "QUALIFIED_INVESTOR",
      "outputs": [
        {
          "name": "",
          "type": "uint256"
        }
      ],
      "payable": false,
      "stateMutability": "view",
      "type": "function"
    },
    {
      "constant": true,
      "inputs": [],
      "name": "newAuthorityAddress",
      "outputs": [
        {
          "name": "",
          "type": "address"
        }
      ],
      "payable": false,
      "stateMutability": "view",
      "type": "function"
    },
    {
      "constant": true,
      "inputs": [],
      "name": "FROM_EU",
      "outputs": [
        {
          "name": "",
          "type": "uint256"
        }
      ],
      "payable": false,
      "stateMutability": "view",
      "type": "function"
    },
    {
      "constant": true,
      "inputs": [],
      "name": "IS_ALLOWED_STOCK",
      "outputs": [
        {
          "name": "",
          "type": "uint256"
        }
      ],
      "payable": false,
      "stateMutability": "view",
      "type": "function"
    },
    {
      "constant": false,
      "inputs": [],
      "name": "acceptAuthorityAddress",
      "outputs": [
        {
          "name": "",
          "type": "bool"
        }
      ],
      "payable": false,
      "stateMutability": "nonpayable",
      "type": "function"
    },
    {
      "constant": true,
      "inputs": [],
      "name": "IS_ALLOWED_BUYBACK",
      "outputs": [
        {
          "name": "",
          "type": "uint256"
        }
      ],
      "payable": false,
      "stateMutability": "view",
      "type": "function"
    },
    {
      "constant": true,
      "inputs": [],
      "name": "authorityAddress",
      "outputs": [
        {
          "name": "",
          "type": "address"
        }
      ],
      "payable": false,
      "stateMutability": "view",
      "type": "function"
    },
    {
      "constant": true,
      "inputs": [],
      "name": "isOwnerInitialize",
      "outputs": [
        {
          "name": "",
          "type": "bool"
        }
      ],
      "payable": false,
      "stateMutability": "view",
      "type": "function"
    },
    {
      "constant": true,
      "inputs": [
        {
          "name": "",
          "type": "address"
        }
      ],
      "name": "address_belongs",
      "outputs": [
        {
          "name": "",
          "type": "address"
        }
      ],
      "payable": false,
      "stateMutability": "view",
      "type": "function"
    },
    {
      "constant": true,
      "inputs": [],
      "name": "implementation",
      "outputs": [
        {
          "name": "",
          "type": "address"
        }
      ],
      "payable": false,
      "stateMutability": "view",
      "type": "function"
    },
    {
      "constant": true,
      "inputs": [
        {
          "name": "",
          "type": "uint8"
        }
      ],
      "name": "tokenToReceivingRule",
      "outputs": [
        {
          "name": "mask",
          "type": "uint256"
        },
        {
          "name": "condition",
          "type": "uint256"
        }
      ],
      "payable": false,
      "stateMutability": "view",
      "type": "function"
    },
    {
      "constant": true,
      "inputs": [
        {
          "name": "",
          "type": "uint8"
        },
        {
          "name": "",
          "type": "uint256"
        }
      ],
      "name": "tokenToTransferringRuleArray",
      "outputs": [
        {
          "name": "from_mask",
          "type": "uint256"
        },
        {
          "name": "from_condition",
          "type": "uint256"
        },
        {
          "name": "to_mask",
          "type": "uint256"
        },
        {
          "name": "to_condition",
          "type": "uint256"
        }
      ],
      "payable": false,
      "stateMutability": "view",
      "type": "function"
    },
    {
      "constant": true,
      "inputs": [],
      "name": "ACCREDIATED_INVESTOR",
      "outputs": [
        {
          "name": "",
          "type": "uint256"
        }
      ],
      "payable": false,
      "stateMutability": "view",
      "type": "function"
    },
    {
      "constant": false,
      "inputs": [
        {
          "name": "_primaryOwner",
          "type": "address"
        },
        {
          "name": "_systemAddress",
          "type": "address"
        },
        {
          "name": "_authorityAddress",
          "type": "address"
        }
      ],
      "name": "initializeOwner",
      "outputs": [],
      "payable": false,
      "stateMutability": "nonpayable",
      "type": "function"
    },
    {
      "constant": true,
      "inputs": [],
      "name": "registry",
      "outputs": [
        {
          "name": "",
          "type": "address"
        }
      ],
      "payable": false,
      "stateMutability": "view",
      "type": "function"
    },
    {
      "constant": true,
      "inputs": [],
      "name": "CENTRALIZE_EXCHANGE",
      "outputs": [
        {
          "name": "",
          "type": "uint256"
        }
      ],
      "payable": false,
      "stateMutability": "view",
      "type": "function"
    },
    {
      "constant": true,
      "inputs": [],
      "name": "FROM_USA",
      "outputs": [
        {
          "name": "",
          "type": "uint256"
        }
      ],
      "payable": false,
      "stateMutability": "view",
      "type": "function"
    },
    {
      "constant": true,
      "inputs": [],
      "name": "primaryOwner",
      "outputs": [
        {
          "name": "",
          "type": "address"
        }
      ],
      "payable": false,
      "stateMutability": "view",
      "type": "function"
    },
    {
      "constant": false,
      "inputs": [
        {
          "name": "_which",
          "type": "address"
        }
      ],
      "name": "changeAuthorityAddress",
      "outputs": [
        {
          "name": "",
          "type": "bool"
        }
      ],
      "payable": false,
      "stateMutability": "nonpayable",
      "type": "function"
    },
    {
      "constant": true,
      "inputs": [],
      "name": "FROM_CHINA",
      "outputs": [
        {
          "name": "",
          "type": "uint256"
        }
      ],
      "payable": false,
      "stateMutability": "view",
      "type": "function"
    },
    {
      "constant": true,
      "inputs": [],
      "name": "KYC",
      "outputs": [
        {
          "name": "",
          "type": "uint256"
        }
      ],
      "payable": false,
      "stateMutability": "view",
      "type": "function"
    },
    {
      "constant": true,
      "inputs": [],
      "name": "RETAIL_INVESTOR",
      "outputs": [
        {
          "name": "",
          "type": "uint256"
        }
      ],
      "payable": false,
      "stateMutability": "view",
      "type": "function"
    },
    {
      "constant": true,
      "inputs": [],
      "name": "IS_ALLOWED_ETN",
      "outputs": [
        {
          "name": "",
          "type": "uint256"
        }
      ],
      "payable": false,
      "stateMutability": "view",
      "type": "function"
    },
    {
      "constant": false,
      "inputs": [
        {
          "name": "_which",
          "type": "address"
        }
      ],
      "name": "changePrimaryOwner",
      "outputs": [
        {
          "name": "",
          "type": "bool"
        }
      ],
      "payable": false,
      "stateMutability": "nonpayable",
      "type": "function"
    },
    {
      "constant": true,
      "inputs": [],
      "name": "systemAddress",
      "outputs": [
        {
          "name": "",
          "type": "address"
        }
      ],
      "payable": false,
      "stateMutability": "view",
      "type": "function"
    },
    {
      "constant": true,
      "inputs": [
        {
          "name": "",
          "type": "address"
        }
      ],
      "name": "user_details",
      "outputs": [
        {
          "name": "flags",
          "type": "uint256"
        },
        {
          "name": "maxWallets",
          "type": "uint256"
        }
      ],
      "payable": false,
      "stateMutability": "view",
      "type": "function"
    },
    {
      "constant": true,
      "inputs": [],
      "name": "AML",
      "outputs": [
        {
          "name": "",
          "type": "uint256"
        }
      ],
      "payable": false,
      "stateMutability": "view",
      "type": "function"
    },
    {
      "constant": true,
      "inputs": [],
      "name": "DECENTRALIZE_EXCHANGE",
      "outputs": [
        {
          "name": "",
          "type": "uint256"
        }
      ],
      "payable": false,
      "stateMutability": "view",
      "type": "function"
    },
    {
      "inputs": [],
      "payable": false,
      "stateMutability": "nonpayable",
      "type": "constructor"
    },
    {
      "anonymous": false,
      "inputs": [
        {
          "indexed": true,
          "name": "which",
          "type": "address"
        },
        {
          "indexed": false,
          "name": "walletType",
          "type": "uint256"
        }
      ],
      "name": "AccountWhiteListed",
      "type": "event"
    },
    {
      "anonymous": false,
      "inputs": [
        {
          "indexed": true,
          "name": "from",
          "type": "address"
        },
        {
          "indexed": true,
          "name": "which",
          "type": "address"
        }
      ],
      "name": "WalletAdded",
      "type": "event"
    },
    {
      "anonymous": false,
      "inputs": [
        {
          "indexed": true,
          "name": "from",
          "type": "address"
        },
        {
          "indexed": true,
          "name": "which",
          "type": "address"
        }
      ],
      "name": "WalletRemoved",
      "type": "event"
    },
    {
      "anonymous": false,
      "inputs": [
        {
          "indexed": false,
          "name": "ownerType",
          "type": "string"
        },
        {
          "indexed": true,
          "name": "previousOwner",
          "type": "address"
        },
        {
          "indexed": true,
          "name": "newOwner",
          "type": "address"
        }
      ],
      "name": "OwnershipTransferred",
      "type": "event"
    },
    {
      "anonymous": false,
      "inputs": [
        {
          "indexed": true,
          "name": "previousOwner",
          "type": "address"
        },
        {
          "indexed": true,
          "name": "newOwner",
          "type": "address"
        }
      ],
      "name": "AuthorityAddressChnageCall",
      "type": "event"
    },
    {
      "constant": false,
      "inputs": [
        {
          "name": "_primaryOwner",
          "type": "address"
        },
        {
          "name": "_systemAddress",
          "type": "address"
        },
        {
          "name": "_authorityAddress",
          "type": "address"
        },
        {
          "name": "_mainHoldBackDays",
          "type": "uint256"
        },
        {
          "name": "_etnHoldBackDays",
          "type": "uint256"
        },
        {
          "name": "_stockHoldBackDays",
          "type": "uint256"
        },
        {
          "name": "_mainMaturityDays",
          "type": "uint256"
        },
        {
          "name": "_etnMaturityDays",
          "type": "uint256"
        },
        {
          "name": "_stockMaturityDays",
          "type": "uint256"
        }
      ],
      "name": "initialize",
      "outputs": [],
      "payable": false,
      "stateMutability": "nonpayable",
      "type": "function"
    },
    {
      "constant": true,
      "inputs": [],
      "name": "initialize",
      "outputs": [],
      "payable": false,
      "stateMutability": "view",
      "type": "function"
    },
    {
      "constant": true,
      "inputs": [
        {
          "name": "_which",
          "type": "address"
        }
      ],
      "name": "isWhiteListed",
      "outputs": [
        {
          "name": "",
          "type": "bool"
        }
      ],
      "payable": false,
      "stateMutability": "view",
      "type": "function"
    },
    {
      "constant": true,
      "inputs": [
        {
          "name": "_which",
          "type": "address"
        }
      ],
      "name": "isAddressByPassed",
      "outputs": [
        {
          "name": "",
          "type": "bool"
        }
      ],
      "payable": false,
      "stateMutability": "view",
      "type": "function"
    },
    {
      "constant": false,
      "inputs": [
        {
          "name": "_which",
          "type": "address"
        },
        {
          "name": "_flags",
          "type": "uint64"
        },
        {
          "name": "_maxWallets",
          "type": "uint256"
        }
      ],
      "name": "addNewWallet",
      "outputs": [
        {
          "name": "",
          "type": "bool"
        }
      ],
      "payable": false,
      "stateMutability": "nonpayable",
      "type": "function"
    },
    {
      "constant": false,
      "inputs": [
        {
          "name": "_which",
          "type": "address"
        },
        {
          "name": "_maxWallets",
          "type": "uint256"
        }
      ],
      "name": "updateMaxWallet",
      "outputs": [
        {
          "name": "",
          "type": "bool"
        }
      ],
      "payable": false,
      "stateMutability": "nonpayable",
      "type": "function"
    },
    {
      "constant": false,
      "inputs": [
        {
          "name": "_which",
          "type": "address"
        }
      ],
      "name": "addMoreWallets",
      "outputs": [
        {
          "name": "",
          "type": "bool"
        }
      ],
      "payable": false,
      "stateMutability": "nonpayable",
      "type": "function"
    },
    {
      "constant": false,
      "inputs": [
        {
          "name": "_which",
          "type": "address"
        },
        {
          "name": "_flags",
          "type": "uint64"
        }
      ],
      "name": "changeFlags",
      "outputs": [
        {
          "name": "",
          "type": "bool"
        }
      ],
      "payable": false,
      "stateMutability": "nonpayable",
      "type": "function"
    },
    {
      "constant": false,
      "inputs": [
        {
          "name": "mask",
          "type": "uint256"
        },
        {
          "name": "condition",
          "type": "uint256"
        }
      ],
      "name": "addMainRecivingRule",
      "outputs": [],
      "payable": false,
      "stateMutability": "nonpayable",
      "type": "function"
    },
    {
      "constant": false,
      "inputs": [
        {
          "name": "_index",
          "type": "uint256"
        }
      ],
      "name": "removeMainTransferingRules",
      "outputs": [],
      "payable": false,
      "stateMutability": "nonpayable",
      "type": "function"
    },
    {
      "constant": false,
      "inputs": [
        {
          "name": "from_mask",
          "type": "uint256"
        },
        {
          "name": "from_condition",
          "type": "uint256"
        },
        {
          "name": "to_mask",
          "type": "uint256"
        },
        {
          "name": "to_condition",
          "type": "uint256"
        }
      ],
      "name": "addMainTransferringRule",
      "outputs": [],
      "payable": false,
      "stateMutability": "nonpayable",
      "type": "function"
    },
    {
      "constant": true,
      "inputs": [
        {
          "name": "user",
          "type": "address"
        }
      ],
      "name": "main_isReceiveAllowed",
      "outputs": [
        {
          "name": "",
          "type": "bool"
        }
      ],
      "payable": false,
      "stateMutability": "view",
      "type": "function"
    },
    {
      "constant": true,
      "inputs": [
        {
          "name": "_from",
          "type": "address"
        },
        {
          "name": "_to",
          "type": "address"
        }
      ],
      "name": "main_isTransferAllowed",
      "outputs": [
        {
          "name": "",
          "type": "bool"
        }
      ],
      "payable": false,
      "stateMutability": "view",
      "type": "function"
    },
    {
      "constant": true,
      "inputs": [
        {
          "name": "_from",
          "type": "address"
        },
        {
          "name": "_to",
          "type": "address"
        }
      ],
      "name": "etn_isTransferAllowed",
      "outputs": [
        {
          "name": "",
          "type": "bool"
        }
      ],
      "payable": false,
      "stateMutability": "view",
      "type": "function"
    },
    {
      "constant": true,
      "inputs": [
        {
          "name": "user",
          "type": "address"
        }
      ],
      "name": "etn_isReceiveAllowed",
      "outputs": [
        {
          "name": "",
          "type": "bool"
        }
      ],
      "payable": false,
      "stateMutability": "view",
      "type": "function"
    },
    {
      "constant": false,
      "inputs": [
        {
          "name": "from_mask",
          "type": "uint256"
        },
        {
          "name": "from_condition",
          "type": "uint256"
        },
        {
          "name": "to_mask",
          "type": "uint256"
        },
        {
          "name": "to_condition",
          "type": "uint256"
        }
      ],
      "name": "addEtnTransferringRule",
      "outputs": [],
      "payable": false,
      "stateMutability": "nonpayable",
      "type": "function"
    },
    {
      "constant": false,
      "inputs": [
        {
          "name": "_index",
          "type": "uint256"
        }
      ],
      "name": "removeEtnTransferingRules",
      "outputs": [],
      "payable": false,
      "stateMutability": "nonpayable",
      "type": "function"
    },
    {
      "constant": false,
      "inputs": [
        {
          "name": "mask",
          "type": "uint256"
        },
        {
          "name": "condition",
          "type": "uint256"
        }
      ],
      "name": "addEtnRecivingRule",
      "outputs": [],
      "payable": false,
      "stateMutability": "nonpayable",
      "type": "function"
    },
    {
      "constant": true,
      "inputs": [
        {
          "name": "_from",
          "type": "address"
        },
        {
          "name": "_to",
          "type": "address"
        }
      ],
      "name": "stock_isTransferAllowed",
      "outputs": [
        {
          "name": "",
          "type": "bool"
        }
      ],
      "payable": false,
      "stateMutability": "view",
      "type": "function"
    },
    {
      "constant": true,
      "inputs": [
        {
          "name": "user",
          "type": "address"
        }
      ],
      "name": "stock_isReceiveAllowed",
      "outputs": [
        {
          "name": "",
          "type": "bool"
        }
      ],
      "payable": false,
      "stateMutability": "view",
      "type": "function"
    },
    {
      "constant": false,
      "inputs": [
        {
          "name": "from_mask",
          "type": "uint256"
        },
        {
          "name": "from_condition",
          "type": "uint256"
        },
        {
          "name": "to_mask",
          "type": "uint256"
        },
        {
          "name": "to_condition",
          "type": "uint256"
        }
      ],
      "name": "addStockTransferringRule",
      "outputs": [],
      "payable": false,
      "stateMutability": "nonpayable",
      "type": "function"
    },
    {
      "constant": false,
      "inputs": [
        {
          "name": "_index",
          "type": "uint256"
        }
      ],
      "name": "removeStockTransferingRules",
      "outputs": [],
      "payable": false,
      "stateMutability": "nonpayable",
      "type": "function"
    },
    {
      "constant": false,
      "inputs": [
        {
          "name": "mask",
          "type": "uint256"
        },
        {
          "name": "condition",
          "type": "uint256"
        }
      ],
      "name": "addStockRecivingRule",
      "outputs": [],
      "payable": false,
      "stateMutability": "nonpayable",
      "type": "function"
    }
  ],
  "bytecode": "0x6080604052600280546001600160a01b03199081169091556003805482169055600480549091169055600580546001600160a81b031916905534801561004457600080fd5b5060008054336001600160a01b03199182168117835560058054909216179055612bfc90819061007490396000f3fe608060405234801561001057600080fd5b50600436106103275760003560e01c8063760e595a116101b8578063a851e24511610104578063c5fcf53c116100a2578063e128a9911161007c578063e128a991146108ff578063f31e3e8414610925578063f7455aea1461092d578063feb9de8e1461093557610327565b8063c5fcf53c146108a6578063cd79027d146108d4578063d3e848f1146108f757610327565b8063bb4a2509116100de578063bb4a2509146107c7578063c4d3426814610823578063c546aa7f14610849578063c593d2fa1461087857610327565b8063a851e24514610788578063b22a0f65146107b7578063b9da8f25146107bf57610327565b80638b69d228116101715780639307e4471161014b5780639307e447146107245780639bd105871461072c578063a12a6bb014610752578063a7a5ae8e1461075a57610327565b80638b69d228146106ee5780638e10be33146106f65780638f51368b146106fe57610327565b8063760e595a1461064f5780637b103999146106875780637b94888c1461068f5780637ff5e4c9146106b25780638129fc1c146106ba57806382747d43146106c257610327565b80633c695d4e116102775780635c60da1b116102305780636c7d30811161020a5780636c7d3081146105d55780636f9170f6146105fb57806370ca8eee1461062157806374857c051461062957610327565b80635c60da1b14610548578063631aa8291461055057806364a522a51461058957610327565b80633c695d4e146104935780633ff59a521461049b57806343417595146104a357806347d2c085146104c057806356be4a3e146104e65780635c2525371461050c57610327565b80630f285dfb116102e457806326eaa444116102be57806326eaa444146104195780632cb6d1fd146104365780633a473eac1461043e5780633c0c44001461046d57610327565b80630f285dfb1461040157806314863a4e1461040957806320c462fe1461041157610327565b806304d630891461032c57806309331d39146103665780630a086d70146103805780630abaad7a146103885780630d65004c146103ac5780630d81e1ab146103cb575b600080fd5b6103526004803603602081101561034257600080fd5b50356001600160a01b0316610958565b604080519115158252519081900360200190f35b61036e610c69565b60408051918252519081900360200190f35b61036e610c6f565b610390610c74565b604080516001600160a01b039092168252519081900360200190f35b6103c9600480360360208110156103c257600080fd5b5035610c83565b005b610352600480360360408110156103e157600080fd5b5080356001600160a01b0316906020013567ffffffffffffffff16610d0e565b61036e610e9e565b61036e610ea4565b610352610eaa565b6103c96004803603602081101561042f57600080fd5b5035610fc0565b61036e611048565b6103c96004803603608081101561045457600080fd5b508035906020810135906040810135906060013561104d565b6103526004803603602081101561048357600080fd5b50356001600160a01b03166110de565b6103906110f3565b610352611102565b6103c9600480360360208110156104b957600080fd5b5035611112565b610352600480360360208110156104d657600080fd5b50356001600160a01b031661119a565b610390600480360360208110156104fc57600080fd5b50356001600160a01b03166111a7565b6103526004803603606081101561052257600080fd5b506001600160a01b038135169067ffffffffffffffff60208201351690604001356111c2565b610390611328565b6105706004803603602081101561056657600080fd5b503560ff16611337565b6040805192835260208301919091528051918290030190f35b6105af6004803603604081101561059f57600080fd5b5060ff8135169060200135611350565b604080519485526020850193909352838301919091526060830152519081900360800190f35b610352600480360360208110156105eb57600080fd5b50356001600160a01b0316611393565b6103526004803603602081101561061157600080fd5b50356001600160a01b03166113d7565b61036e611408565b6103526004803603602081101561063f57600080fd5b50356001600160a01b031661140d565b6103c96004803603606081101561066557600080fd5b506001600160a01b0381358116916020810135821691604090910135166116c9565b610390611a9f565b6103c9600480360360408110156106a557600080fd5b5080359060200135611aae565b61036e611b3b565b6103c9611b40565b610352600480360360408110156106d857600080fd5b506001600160a01b038135169060200135611ba1565b61036e611cc2565b610390611cc8565b6103526004803603602081101561071457600080fd5b50356001600160a01b0316611cd7565b61036e611eb8565b6103526004803603602081101561074257600080fd5b50356001600160a01b0316611ebe565b61036e611ecb565b6103526004803603604081101561077057600080fd5b506001600160a01b0381358116916020013516611ed0565b6103c96004803603608081101561079e57600080fd5b5080359060208101359060408101359060600135611ee5565b61036e611f70565b61036e611f75565b6103c960048036036101208110156107de57600080fd5b506001600160a01b03813581169160208101358216916040820135169060608101359060808101359060a08101359060c08101359060e0810135906101000135611f7b565b6103526004803603602081101561083957600080fd5b50356001600160a01b03166120d5565b6103c96004803603608081101561085f57600080fd5b5080359060208101359060408101359060600135612318565b6103526004803603604081101561088e57600080fd5b506001600160a01b03813581169160200135166123a3565b610352600480360360408110156108bc57600080fd5b506001600160a01b03813581169160200135166123b1565b6103c9600480360360408110156108ea57600080fd5b50803590602001356123bf565b610390612448565b6105706004803603602081101561091557600080fd5b50356001600160a01b0316612457565b61036e612470565b61036e612475565b6103c96004803603604081101561094b57600080fd5b508035906020013561247a565b60035460408051808201909152601b8152600080516020612ba883398151915260208201526000916001600160a01b03163314610a135760405162461bcd60e51b81526004018080602001828103825283818151815260200191508051906020019080838360005b838110156109d85781810151838201526020016109c0565b50505050905090810190601f168015610a055780820380516001836020036101000a031916815260200191505b509250505060405180910390fd5b5060408051808201909152601981527f4552525f434f4e54524143545f53454c465f4144445245535300000000000000602082015282906001600160a01b038216301415610aa25760405162461bcd60e51b81526020600482018181528351602484015283519092839260449091019190850190808383600083156109d85781810151838201526020016109c0565b5060408051808201909152601081526f4552525f5a45524f5f4144445245535360801b602082015283906001600160a01b038216610b215760405162461bcd60e51b81526020600482018181528351602484015283519092839260449091019190850190808383600083156109d85781810151838201526020016109c0565b506005546001600160a01b03858116911614801590610b4e57506003546001600160a01b03858116911614155b8015610b6857506002546001600160a01b03858116911614155b6040518060400160405280601081526020016f4552525f53414d455f4144445245535360801b81525090610bdd5760405162461bcd60e51b81526020600482018181528351602484015283519092839260449091019190850190808383600083156109d85781810151838201526020016109c0565b50600554604080516020808252600e908201526d53595354454d5f4144445245535360901b8183015290516001600160a01b038088169316917f6840904f5b31827f74e1497360da245f56e530c8c3de3163a2d31f11493273c6919081900360600190a3600580546001600160a01b0386166001600160a01b0319909116179055600192505050919050565b61200081565b600881565b6004546001600160a01b031681565b60055460408051808201909152601b8152600080516020612ba88339815191526020820152906001600160a01b03163314610cff5760405162461bcd60e51b81526020600482018181528351602484015283519092839260449091019190850190808383600083156109d85781810151838201526020016109c0565b50610d0b816000612503565b50565b60055460408051808201909152601b8152600080516020612ba883398151915260208201526000916001600160a01b03163314610d8c5760405162461bcd60e51b81526020600482018181528351602484015283519092839260449091019190850190808383600083156109d85781810151838201526020016109c0565b5060408051808201909152601081526f4552525f5a45524f5f4144445245535360801b602082015283906001600160a01b038216610e0b5760405162461bcd60e51b81526020600482018181528351602484015283519092839260449091019190850190808383600083156109d85781810151838201526020016109c0565b50610e15846113d7565b610e5f576040805162461bcd60e51b815260206004820152601660248201527511549497d050d51253d397d393d517d0531313d5d15160521b604482015290519081900360640190fd5b6001600160a01b038085166000908152600660209081526040808320549093168252600790522067ffffffffffffffff84169055600191505092915050565b61100081565b61020081565b60045460408051808201909152601b8152600080516020612ba883398151915260208201526000916001600160a01b03163314610f285760405162461bcd60e51b81526020600482018181528351602484015283519092839260449091019190850190808383600083156109d85781810151838201526020016109c0565b5060045460035460408051602080825260119082015270415554484f524954595f4144445245535360781b8183015290516001600160a01b039384169392909216917f6840904f5b31827f74e1497360da245f56e530c8c3de3163a2d31f11493273c69181900360600190a35060048054600380546001600160a01b03199081166001600160a01b0384161790915516905560015b90565b60055460408051808201909152601b8152600080516020612ba88339815191526020820152906001600160a01b0316331461103c5760405162461bcd60e51b81526020600482018181528351602484015283519092839260449091019190850190808383600083156109d85781810151838201526020016109c0565b50610d0b816001612503565b602081565b60055460408051808201909152601b8152600080516020612ba88339815191526020820152906001600160a01b031633146110c95760405162461bcd60e51b81526020600482018181528351602484015283519092839260449091019190850190808383600083156109d85781810151838201526020016109c0565b506110d8848484846001612623565b50505050565b60006110eb82600261268a565b90505b919050565b6003546001600160a01b031681565b600554600160a01b900460ff1681565b60055460408051808201909152601b8152600080516020612ba88339815191526020820152906001600160a01b0316331461118e5760405162461bcd60e51b81526020600482018181528351602484015283519092839260449091019190850190808383600083156109d85781810151838201526020016109c0565b50610d0b816002612503565b60006110eb82600161268a565b6006602052600090815260409020546001600160a01b031681565b60055460408051808201909152601b8152600080516020612ba883398151915260208201526000916001600160a01b031633146112405760405162461bcd60e51b81526020600482018181528351602484015283519092839260449091019190850190808383600083156109d85781810151838201526020016109c0565b5060408051808201909152601081526f4552525f5a45524f5f4144445245535360801b602082015284906001600160a01b0382166112bf5760405162461bcd60e51b81526020600482018181528351602484015283519092839260449091019190850190808383600083156109d85781810151838201526020016109c0565b506112c9856113d7565b15611314576040805162461bcd60e51b815260206004820152601660248201527511549497d050d51253d397d393d517d0531313d5d15160521b604482015290519081900360640190fd5b61131f858585612750565b95945050505050565b6001546001600160a01b031690565b6008602052600090815260409020805460019091015482565b6009602052816000526040600020818154811061136957fe5b60009182526020909120600490910201805460018201546002830154600390930154919450925084565b6001600160a01b038082166000908152600660209081526040808320549093168083526007909152918120549091906113cf81612000806127a1565b949350505050565b6001600160a01b03818116600090815260066020526040812054909116611400575060006110ee565b506001919050565b600481565b60408051808201909152601081526f4552525f5a45524f5f4144445245535360801b602082015260009082906001600160a01b03821661148e5760405162461bcd60e51b81526020600482018181528351602484015283519092839260449091019190850190808383600083156109d85781810151838201526020016109c0565b506001600160a01b03838116600090815260066020908152604091829020548251808401909352601b8352600080516020612ba8833981519152918301919091529091161561151e5760405162461bcd60e51b81526020600482018181528351602484015283519092839260449091019190850190808383600083156109d85781810151838201526020016109c0565b50336000818152600660205260409020546001600160a01b0316611541816113d7565b801561155e5750806001600160a01b0316826001600160a01b0316145b6040518060400160405280601b8152602001600080516020612ba8833981519152815250906115ce5760405162461bcd60e51b81526020600482018181528351602484015283519092839260449091019190850190808383600083156109d85781810151838201526020016109c0565b506001600160a01b03811660009081526007602052604090206002810154600182015411611643576040805162461bcd60e51b815260206004820152601860248201527f4552525f4d4158494d554d5f57414c4c45545f4c494d49540000000000000000604482015290519081900360640190fd5b6001600160a01b03808716600081815260066020908152604080832080549588166001600160a01b031996871681179091556002870180546001810182559085529284209092018054909516841790945592519192917f51e7a5ff5a23e09cd0cee9895f33eab93a6c7e4f3febde5628c4b8035f7bac149190a350600195945050505050565b60408051808201909152601081526f4552525f5a45524f5f4144445245535360801b602082015283906001600160a01b0382166117475760405162461bcd60e51b81526020600482018181528351602484015283519092839260449091019190850190808383600083156109d85781810151838201526020016109c0565b5060408051808201909152601081526f4552525f5a45524f5f4144445245535360801b602082015283906001600160a01b0382166117c65760405162461bcd60e51b81526020600482018181528351602484015283519092839260449091019190850190808383600083156109d85781810151838201526020016109c0565b5060408051808201909152601081526f4552525f5a45524f5f4144445245535360801b602082015283906001600160a01b0382166118455760405162461bcd60e51b81526020600482018181528351602484015283519092839260449091019190850190808383600083156109d85781810151838201526020016109c0565b50600554600160a01b900460ff16156118a5576040805162461bcd60e51b815260206004820152601c60248201527f4552525f4f574e45525f494e5449414c495a45445f414c524541445900000000604482015290519081900360640190fd5b846001600160a01b0316866001600160a01b031614156040518060400160405280601081526020016f4552525f53414d455f4144445245535360801b815250906119305760405162461bcd60e51b81526020600482018181528351602484015283519092839260449091019190850190808383600083156109d85781810151838201526020016109c0565b50836001600160a01b0316856001600160a01b031614156040518060400160405280601081526020016f4552525f53414d455f4144445245535360801b815250906119bc5760405162461bcd60e51b81526020600482018181528351602484015283519092839260449091019190850190808383600083156109d85781810151838201526020016109c0565b50836001600160a01b0316866001600160a01b031614156040518060400160405280601081526020016f4552525f53414d455f4144445245535360801b81525090611a485760405162461bcd60e51b81526020600482018181528351602484015283519092839260449091019190850190808383600083156109d85781810151838201526020016109c0565b5050600280546001600160a01b039687166001600160a01b03199182161790915560058054600380549689169684169690961790955560ff60a01b199590961693169290921792909216600160a01b179092555050565b6000546001600160a01b031681565b60055460408051808201909152601b8152600080516020612ba88339815191526020820152906001600160a01b03163314611b2a5760405162461bcd60e51b81526020600482018181528351602484015283519092839260449091019190850190808383600083156109d85781810151838201526020016109c0565b50611b37828260006127c6565b5050565b608081565b6000546001600160a01b03163314611b9f576040805162461bcd60e51b815260206004820152601c60248201527f4552525f4f4e4c595f524547495354524552595f43414e5f43414c4c00000000604482015290519081900360640190fd5b565b60025460408051808201909152601b8152600080516020612ba883398151915260208201526000916001600160a01b03163314611c1f5760405162461bcd60e51b81526020600482018181528351602484015283519092839260449091019190850190808383600083156109d85781810151838201526020016109c0565b50611c29836113d7565b6040518060400160405280601b8152602001600080516020612ba883398151915281525090611c995760405162461bcd60e51b81526020600482018181528351602484015283519092839260449091019190850190808383600083156109d85781810151838201526020016109c0565b50506001600160a01b038216600090815260076020526040902060019081018290555b92915050565b61040081565b6002546001600160a01b031681565b60035460408051808201909152601b8152600080516020612ba883398151915260208201526000916001600160a01b03163314611d555760405162461bcd60e51b81526020600482018181528351602484015283519092839260449091019190850190808383600083156109d85781810151838201526020016109c0565b5060408051808201909152601081526f4552525f5a45524f5f4144445245535360801b602082015282906001600160a01b038216611dd45760405162461bcd60e51b81526020600482018181528351602484015283519092839260449091019190850190808383600083156109d85781810151838201526020016109c0565b506005546001600160a01b03848116911614801590611e0157506003546001600160a01b03848116911614155b8015611e1b57506002546001600160a01b03848116911614155b6040518060400160405280601081526020016f4552525f53414d455f4144445245535360801b81525090611e905760405162461bcd60e51b81526020600482018181528351602484015283519092839260449091019190850190808383600083156109d85781810151838201526020016109c0565b50600480546001600160a01b0385166001600160a01b03199091161790556001915050919050565b61080081565b60006110eb82600061268a565b600181565b6000611ede838360026127f8565b9392505050565b60055460408051808201909152601b8152600080516020612ba88339815191526020820152906001600160a01b03163314611f615760405162461bcd60e51b81526020600482018181528351602484015283519092839260449091019190850190808383600083156109d85781810151838201526020016109c0565b506110d8848484846002612623565b601081565b61010081565b611f83611b40565b611f8e8989896116c9565b611f9783612ae3565b60008052600b6020527fdf7de25b7f1fd6d0b5205f0e18f1f35bd7b8d84cce336588d184533ce43a6f7655611fcb82612ae3565b6001600052600b6020527f72c6bfb7988af3a1efa6568f02a999bc52252641c659d85961ca3d372b57d5cf5561200081612ae3565b6002600052600b6020527fa50eece07c7db1631545c0069bd8f5f54d5935e215d59097edf258a44ba916345561203586612ae3565b60008052600a6020527f13da86008ba1c6922daee3e07db95305ef49ebced9f5467a0b8613fcc6b343e35561206985612ae3565b6001600052600a6020527fbbc70db1b6c7afd11e79c0fb0051300458f1a3acb8ee9789d9b6b26c61ad9bc75561209e84612ae3565b6002600052600a6020527fbff4442b8ed600beeb8e26b1279a0f0d14c6edfaec26d968ee13c86f7d4c2ba855505050505050505050565b60035460408051808201909152601b8152600080516020612ba883398151915260208201526000916001600160a01b031633146121535760405162461bcd60e51b81526020600482018181528351602484015283519092839260449091019190850190808383600083156109d85781810151838201526020016109c0565b5060408051808201909152601081526f4552525f5a45524f5f4144445245535360801b602082015282906001600160a01b0382166121d25760405162461bcd60e51b81526020600482018181528351602484015283519092839260449091019190850190808383600083156109d85781810151838201526020016109c0565b506005546001600160a01b038481169116148015906121ff57506003546001600160a01b03848116911614155b801561221957506002546001600160a01b03848116911614155b6040518060400160405280601081526020016f4552525f53414d455f4144445245535360801b8152509061228e5760405162461bcd60e51b81526020600482018181528351602484015283519092839260449091019190850190808383600083156109d85781810151838201526020016109c0565b50600254604080516020808252600d908201526c282924a6a0a92cafa7aba722a960991b8183015290516001600160a01b038087169316917f6840904f5b31827f74e1497360da245f56e530c8c3de3163a2d31f11493273c6919081900360600190a3600280546001600160a01b0385166001600160a01b03199091161790556001915050919050565b60055460408051808201909152601b8152600080516020612ba88339815191526020820152906001600160a01b031633146123945760405162461bcd60e51b81526020600482018181528351602484015283519092839260449091019190850190808383600083156109d85781810151838201526020016109c0565b506110d8848484846000612623565b6000611ede838360016127f8565b6000611ede838360006127f8565b60055460408051808201909152601b8152600080516020612ba88339815191526020820152906001600160a01b0316331461243b5760405162461bcd60e51b81526020600482018181528351602484015283519092839260449091019190850190808383600083156109d85781810151838201526020016109c0565b50611b37828260026127c6565b6005546001600160a01b031681565b6007602052600090815260409020805460019091015482565b600281565b604081565b60055460408051808201909152601b8152600080516020612ba88339815191526020820152906001600160a01b031633146124f65760405162461bcd60e51b81526020600482018181528351602484015283519092839260449091019190850190808383600083156109d85781810151838201526020016109c0565b50611b37828260016127c6565b60ff811660009081526009602052604090208054831061255e576040805162461bcd60e51b8152602060048201526011602482015270086908a8696be82a4a482b2be929c888ab607b1b604482015290519081900360640190fd5b8054819061256d906001612aff565b8154811061257757fe5b906000526020600020906004020181848154811061259157fe5b906000526020600020906004020160008201548160000155600182015481600101556002820154816002015560038201548160030155905050806125da82805490506001612aff565b815481106125e457fe5b600091825260208220600490910201818155600180820183905560028201839055600390910191909155815461261991612aff565b6110d88282612b44565b60ff166000908152600960209081526040808320815160808101835297885287830196875290870194855260608701938452805460018181018355918452919092209551600490910290950194855592519284019290925551600283015551600390910155565b6001600160a01b03808316600090815260066020526040812054909116806126f2576040805162461bcd60e51b815260206004820152601660248201527511549497d050d51253d397d393d517d0531313d5d15160521b604482015290519081900360640190fd5b6001600160a01b03811660009081526007602090815260408083205460ff871684526008909252822080546001909101549192916127319184916127a1565b9050806127445760009350505050611cbc565b50600195945050505050565b6001600160a01b038316600081815260076020908152604080832067ffffffffffffffff871681556001908101869055600690925290912080546001600160a01b0319169092179091559392505050565b6000838316828118908314156127bb576001915050611ede565b506000949350505050565b604080518082018252938452602080850193845260ff9092166000908152600890925290209151825551600190910155565b600080612805848461268a565b905080612816576000915050611ede565b6001600160a01b03808616600090815260066020526040808220548784168352912054908216911681612889576040805162461bcd60e51b815260206004820152601660248201527511549497d050d51253d397d393d517d0531313d5d15160521b604482015290519081900360640190fd5b6001600160a01b0380831660009081526007602090815260408083205493851683528083205460ff8a168452600b909252909120541561291d5760ff87166000908152600b6020526040902054421061291d576040805162461bcd60e51b815260206004820152601160248201527011549497d513d2d15397d3505515549151607a1b604482015290519081900360640190fd5b60ff87166000908152600a6020526040902054156129b45760008052600a6020527f13da86008ba1c6922daee3e07db95305ef49ebced9f5467a0b8613fcc6b343e3544210156129b4576040805162461bcd60e51b815260206004820152601b60248201527f4552525f544f4b454e5f484f4c444241434b5f4e4f545f4f5645520000000000604482015290519081900360640190fd5b60005b60ff8816600090815260096020526040902054811015612ad35760ff881660009081526009602052604090208054612a3b918591849081106129f557fe5b6000918252602080832060049092029091015460ff8d16835260099091526040909120805485908110612a2457fe5b9060005260206000209060040201600101546127a1565b95508515612acb5760ff881660009081526009602052604090208054612ab491849184908110612a6757fe5b906000526020600020906004020160020154600960008c60ff1660ff1681526020019081526020016000208481548110612a9d57fe5b9060005260206000209060040201600301546127a1565b95508515612acb5760009650505050505050611ede565b6001016129b7565b5060019998505050505050505050565b600080612af36201518084612b11565b9050611ede4282612b35565b600082821115612b0b57fe5b50900390565b600082612b2057506000611cbc565b82820282848281612b2d57fe5b0414611ede57fe5b600082820183811015611ede57fe5b815481835581811115612b7057600402816004028360005260206000209182019101612b709190612b75565b505050565b610fbd91905b80821115612ba357600080825560018201819055600282018190556003820155600401612b7b565b509056fe4552525f415554484f52495a45445f414444524553535f4f4e4c590000000000a265627a7a7230582003cfbca57b6ce8d4f80e0936c9a5e527b07c712dc1698ec08ba61f07162efb3564736f6c63430005090032",
  "source": "pragma solidity ^0.5.9;\n\nimport \"../common/ProxyOwnable.sol\";\nimport \"../common/SafeMath.sol\";\nimport \"../Proxy/Upgradeable.sol\";\nimport \"../InterFaces/IAuctionRegistery.sol\";\nimport \"../InterFaces/IERC20Token.sol\";\n\n\ncontract WhiteListStorage {\n    struct UserDetails {\n        uint256 flags; // bitmap, where each bit correspondent to some properties (additional flags can be added in future).\n        uint256 maxWallets;\n        address[] wallets;\n    }\n    // Whitelist rules\n    struct ReceivingRule {\n        uint256 mask; // bit-mask to select bits which will be checked by this rule\n        uint256 condition; // bit-sets which indicate the require bit status.\n        // for example, if rule require that the 1 and 4 bits should be '1' and 2 bit should be '0', then mask = 0x16 (10110 binary) and condition = 0x12 (10010 binary). I.e. '1' is set for bit which should be '1' and '0' - for bit which should be '0'\n    }\n\n    // Restriction rules\n    struct TransferringRule {\n        uint256 from_mask; // bit-mask to select bits which will be checked by this rule\n        uint256 from_condition; // bit-sets which indicate the require bit status.\n        uint256 to_mask; // bit-mask to select bits which will be checked by this rule\n        uint256 to_condition; // bit-sets which indicate the require bit status.\n        // if rule 'from' return 'true' and rule 'to' is true - the transfer disallowed.\n        // if rule 'from' return 'false' then don't check rule 'to'.\n    }\n\n    mapping(address => address) public address_belongs;\n    mapping(address => UserDetails) public user_details;\n\n    //Made this decision so that we can reuse the code\n\n    //0:main\n    //1:etn\n    //2:stock\n    mapping(uint8 => ReceivingRule) public tokenToReceivingRule;\n    mapping(uint8 => TransferringRule[]) public tokenToTransferringRuleArray;\n\n    uint256 public constant KYC = 1 << 0; //0x01\n    uint256 public constant AML = 1 << 1; //0x02\n    uint256 public constant ACCREDIATED_INVESTOR = 1 << 2;\n    uint256 public constant QUALIFIED_INVESTOR = 1 << 3;\n    uint256 public constant RETAIL_INVESTOR = 1 << 4;\n    uint256 public constant IS_ALLOWED_BUYBACK = 1 << 5;\n    uint256 public constant DECENTRALIZE_EXCHANGE = 1 << 6; // wallet of decentralize exchanges\n    uint256 public constant CENTRALIZE_EXCHANGE = 1 << 7; // wallet of centralize exchanges\n    uint256 public constant IS_ALLOWED_ETN = 1 << 8;\n    uint256 public constant IS_ALLOWED_STOCK = 1 << 9;\n    uint256 public constant FROM_USA = 1 << 10;\n    uint256 public constant FROM_CHINA = 1 << 11;\n    uint256 public constant FROM_EU = 1 << 12;\n    uint256 public constant IS_BYPASSED = 1 << 13;\n\n    mapping(uint8 => uint256) tokenToHoldBackDaysTimeStamp;\n    mapping(uint8 => uint256) tokenToMaturityDaysTimeStamp;\n}\n\n\ncontract WhiteList is Upgradeable, ProxyOwnable, SafeMath, WhiteListStorage {\n    event AccountWhiteListed(address indexed which, uint256 walletType);\n    event WalletAdded(address indexed from, address indexed which);\n    event WalletRemoved(address indexed from, address indexed which);\n\n    //for testing only\n    constructor() public {\n        registry = IRegistry(msg.sender);\n        systemAddress = msg.sender;\n    }\n\n    //@dev converts _days into unix timestamp _days from now\n    function convertDaysToTimeStamp(uint256 _days)\n        internal\n        view\n        returns (uint256)\n    {\n        uint256 duration = safeMul(86400, _days);\n        return safeAdd(now, duration);\n    }\n\n    //@dev since its a proxy contract this is what will work as a constructor\n    function initialize(\n        address _primaryOwner,\n        address _systemAddress,\n        address _authorityAddress,\n        uint256 _mainHoldBackDays,\n        uint256 _etnHoldBackDays,\n        uint256 _stockHoldBackDays,\n        uint256 _mainMaturityDays,\n        uint256 _etnMaturityDays,\n        uint256 _stockMaturityDays\n    ) public {\n        super.initialize();\n        ProxyOwnable.initializeOwner(\n            _primaryOwner,\n            _systemAddress,\n            _authorityAddress\n        );\n        tokenToMaturityDaysTimeStamp[0] = convertDaysToTimeStamp(\n            _mainMaturityDays\n        );\n        tokenToMaturityDaysTimeStamp[1] = convertDaysToTimeStamp(\n            _etnMaturityDays\n        );\n        tokenToMaturityDaysTimeStamp[2] = convertDaysToTimeStamp(\n            _stockMaturityDays\n        );\n\n        tokenToHoldBackDaysTimeStamp[0] = convertDaysToTimeStamp(\n            _mainHoldBackDays\n        );\n        tokenToHoldBackDaysTimeStamp[1] = convertDaysToTimeStamp(\n            _etnHoldBackDays\n        );\n        tokenToHoldBackDaysTimeStamp[2] = convertDaysToTimeStamp(\n            _stockHoldBackDays\n        );\n    }\n\n    //@dev whitelists an address\n    function whiteListAccount(\n        address _which,\n        uint64 _flags,\n        uint256 _maxWallets\n    ) internal returns (bool) {\n        UserDetails storage details = user_details[_which];\n        details.flags = _flags;\n        details.maxWallets = _maxWallets;\n        address_belongs[_which] = _which;\n        return true;\n    }\n\n    //@dev returns if address is whitelisted\n    function isWhiteListed(address _which) public view returns (bool) {\n        if (address_belongs[_which] == address(0)) return false;\n        return true;\n    }\n\n    //@dev checks if address is bypassed\n    function isAddressByPassed(address _which) public view returns (bool) {\n        address primaryAddress = address_belongs[_which];\n        uint256 flags = user_details[primaryAddress].flags;\n        return checkRule(flags, IS_BYPASSED, IS_BYPASSED);\n    }\n\n    //@dev whitelists an address\n    function addNewWallet(\n        address _which,\n        uint64 _flags,\n        uint256 _maxWallets\n    ) public onlySystem() notZeroAddress(_which) returns (bool) {\n        require(!isWhiteListed(_which), \"ERR_ACTION_NOT_ALLOWED\");\n        return whiteListAccount(_which, _flags, _maxWallets);\n    }\n\n    //@dev updates the maximum wallets allowed for a primary whitelisted address\n    function updateMaxWallet(address _which, uint256 _maxWallets)\n        public\n        onlyOwner\n        returns (bool)\n    {\n        require(isWhiteListed(_which), ERR_AUTHORIZED_ADDRESS_ONLY);\n        UserDetails storage details = user_details[_which];\n        details.maxWallets = _maxWallets;\n        return true;\n    }\n\n    //@dev allows primary whitelisted address to add wallet address controlled by them(reverts if maximum wallets is reached)\n    function addMoreWallets(address _which)\n        public\n        notZeroAddress(_which)\n        returns (bool)\n    {\n        require(\n            address_belongs[_which] == address(0),\n            ERR_AUTHORIZED_ADDRESS_ONLY\n        );\n\n        address sender = msg.sender;\n\n        address primaryAddress = address_belongs[sender];\n\n        require(\n            isWhiteListed(primaryAddress) && sender == primaryAddress,\n            ERR_AUTHORIZED_ADDRESS_ONLY\n        );\n\n        UserDetails storage details = user_details[primaryAddress];\n\n        require(\n            details.maxWallets > details.wallets.length,\n            \"ERR_MAXIMUM_WALLET_LIMIT\"\n        );\n\n        address_belongs[_which] = primaryAddress;\n\n        details.wallets.push(_which);\n\n        emit WalletAdded(primaryAddress, _which);\n\n        return true;\n    }\n\n    //@dev allows system to chage flags associated with an address\n    function changeFlags(address _which, uint64 _flags)\n        public\n        onlySystem()\n        notZeroAddress(_which)\n        returns (bool)\n    {\n        require(isWhiteListed(_which), \"ERR_ACTION_NOT_ALLOWED\");\n        address primaryAddress = address_belongs[_which];\n        user_details[primaryAddress].flags = _flags;\n        return true;\n    }\n\n    //@dev checks condition\n    //@param _flags on which conditions are being checked on\n    //@param _mask the bits we care about in a conditions\n    //@param _condition the pattern of bits which should be exactly same in _flags to be true\n    function checkRule(\n        uint256 _flags,\n        uint256 _mask,\n        uint256 _condition\n    ) internal pure returns (bool) {\n        uint256 flags = _flags & _mask;\n        flags = flags ^ _condition;\n        if (flags == 0) return true;\n        return false;\n    }\n\n    //@dev adds ReceivingRule of the token\n    function _addReceivingRule(\n        uint256 _mask,\n        uint256 _condition,\n        uint8 _token\n    ) internal {\n        tokenToReceivingRule[_token] = ReceivingRule(_mask, _condition);\n    }\n\n    //@dev adds transferring rule\n    //if from has from_conditions bits set(i.e. is from usa) and to has to_condition bits set(i.e. is from china) then we don't allow\n    function _addTransferringRule(\n        uint256 from_mask,\n        uint256 from_condition,\n        uint256 to_mask,\n        uint256 to_condition,\n        uint8 token\n    ) internal {\n        tokenToTransferringRuleArray[token].push(\n            TransferringRule(from_mask, from_condition, to_mask, to_condition)\n        );\n    }\n\n    function _removeTransferingRule(uint256 _index, uint8 _token) internal {\n\n            TransferringRule[] storage transferringRules\n         = tokenToTransferringRuleArray[_token];\n\n        require(_index < transferringRules.length, \"CHECK_ARRAY_INDEX\");\n\n        transferringRules[_index] = transferringRules[safeSub(\n            transferringRules.length,\n            1\n        )]; //replace with last element\n        delete (transferringRules[safeSub(transferringRules.length, 1)]); //delete the last element\n        transferringRules.length = safeSub(transferringRules.length, 1);\n    }\n\n    // @dev Check, if receiver is whitelisted (has all necessary flags). Require to pass all rules in the set.\n    function _isReceiveAllowed(address user, uint8 token)\n        internal\n        view\n        returns (bool)\n    {\n        address investor = address_belongs[user];\n        require(investor != address(0), \"ERR_ACTION_NOT_ALLOWED\");\n        uint256 flags = user_details[investor].flags;\n        bool result;\n        result = checkRule(\n            flags,\n            tokenToReceivingRule[token].mask,\n            tokenToReceivingRule[token].condition\n        );\n        if (!result) return false; // if rule don't passed - receiving token disallowed.\n        return true;\n    }\n\n    //@dev checks if transfer is allowed with according transferringRules of a token\n    function _isTransferAllowed(\n        address _from,\n        address _to,\n        uint8 token\n    ) internal view returns (bool) {\n        bool result = _isReceiveAllowed(_to, token); // Check receiver at first\n        if (!result) return false; // if receiver disallowed the transfer disallowed too.\n        address from = address_belongs[_from];\n        address to = address_belongs[_to];\n        require(from != address(0), \"ERR_ACTION_NOT_ALLOWED\");\n        uint256 from_flags = user_details[from].flags;\n        uint256 to_flags = user_details[to].flags;\n\n        //makes sure that token is not mature\n        if (tokenToMaturityDaysTimeStamp[token] != 0)\n            require(\n                now < tokenToMaturityDaysTimeStamp[token],\n                \"ERR_TOKEN_MATURED\"\n            );\n        //makes sure that holdback days are over\n        if (tokenToHoldBackDaysTimeStamp[token] != 0)\n            require(\n                now >= tokenToHoldBackDaysTimeStamp[0],\n                \"ERR_TOKEN_HOLDBACK_NOT_OVER\"\n            );\n\n        for (\n            uint256 i = 0;\n            i < tokenToTransferringRuleArray[token].length;\n            i++\n        ) {\n            // check the sender for restriction.\n            result = checkRule(\n                from_flags,\n                tokenToTransferringRuleArray[token][i].from_mask,\n                tokenToTransferringRuleArray[token][i].from_condition\n            );\n            // check receiver only in case when sender has restriction.\n            if (result) {\n                result = checkRule(\n                    to_flags,\n                    tokenToTransferringRuleArray[token][i].to_mask,\n                    tokenToTransferringRuleArray[token][i].to_condition\n                );\n                if (result) return false; // if receiver is restricted, the transfer disallowed.\n            }\n        }\n        return true;\n    }\n\n    //@dev adds ReceivingRule for main token\n    function addMainRecivingRule(uint256 mask, uint256 condition)\n        public\n        onlySystem()\n    {\n        _addReceivingRule(mask, condition, 0);\n    }\n\n    //@dev removes a specific rule from transferringRules for main token\n    function removeMainTransferingRules(uint256 _index) public onlySystem() {\n        _removeTransferingRule(_index, 0);\n    }\n\n    //@dev add transferringRule for main token\n    function addMainTransferringRule(\n        uint256 from_mask,\n        uint256 from_condition,\n        uint256 to_mask,\n        uint256 to_condition\n    ) public onlySystem() {\n        _addTransferringRule(\n            from_mask,\n            from_condition,\n            to_mask,\n            to_condition,\n            0\n        );\n    }\n\n    //@dev checks if address is allowed to recieve main token\n    function main_isReceiveAllowed(address user) public view returns (bool) {\n        return _isReceiveAllowed(user, 0);\n    }\n\n    //@dev check if transferring is allowed for main\n    function main_isTransferAllowed(address _from, address _to)\n        public\n        view\n        returns (bool)\n    {\n        return _isTransferAllowed(_from, _to, 0);\n    }\n\n    //@dev check if transferring is allowed for etn\n    function etn_isTransferAllowed(address _from, address _to)\n        public\n        view\n        returns (bool)\n    {\n        return _isTransferAllowed(_from, _to, 1);\n    }\n\n    //@dev checks if address is allowed to recieve etn token\n    function etn_isReceiveAllowed(address user) public view returns (bool) {\n        return _isReceiveAllowed(user, 1);\n    }\n\n    //@dev adds ReceivingRule for etn token\n    function addEtnTransferringRule(\n        uint256 from_mask,\n        uint256 from_condition,\n        uint256 to_mask,\n        uint256 to_condition\n    ) public onlySystem() {\n        _addTransferringRule(\n            from_mask,\n            from_condition,\n            to_mask,\n            to_condition,\n            1\n        );\n    }\n\n    //@dev removes a specific rule from transferringRules for etn token\n    function removeEtnTransferingRules(uint256 _index) public onlySystem() {\n        _removeTransferingRule(_index, 1);\n    }\n\n    //@dev adds ReceivingRule for etn token\n    function addEtnRecivingRule(uint256 mask, uint256 condition)\n        public\n        onlySystem()\n    {\n        _addReceivingRule(mask, condition, 1);\n    }\n\n    //@dev check if transferring is allowed for stock\n    function stock_isTransferAllowed(address _from, address _to)\n        public\n        view\n        returns (bool)\n    {\n        return _isTransferAllowed(_from, _to, 2);\n    }\n\n    //@dev checks if address is allowed to recieve stock token\n    function stock_isReceiveAllowed(address user) public view returns (bool) {\n        return _isReceiveAllowed(user, 2);\n    }\n\n    //@dev add transferringRule for stock token\n    function addStockTransferringRule(\n        uint256 from_mask,\n        uint256 from_condition,\n        uint256 to_mask,\n        uint256 to_condition\n    ) public onlySystem() {\n        _addTransferringRule(\n            from_mask,\n            from_condition,\n            to_mask,\n            to_condition,\n            2\n        );\n    }\n\n    //@dev removes a specific rule from transferringRules for stock token\n    function removeStockTransferingRules(uint256 _index) public onlySystem() {\n        _removeTransferingRule(_index, 2);\n    }\n\n    //@dev adds ReceivingRule for stock token\n    function addStockRecivingRule(uint256 mask, uint256 condition)\n        public\n        onlySystem()\n    {\n        _addReceivingRule(mask, condition, 2);\n    }\n}\n",
  "sourcePath": "/home/safu/minddeft/jointerInc/jointer-token/contracts/WhiteList/WhiteList.sol",
  "compiler": {
    "name": "solc",
    "version": "0.5.9+commit.e560f70d.Emscripten.clang"
  },
  "schemaVersion": "3.1.0",
  "updatedAt": "2020-05-22T13:05:29.307Z",
  "devdoc": {
    "methods": {
      "changeAuthorityAddress(address)": {
        "details": "change system address",
        "params": {
          "_which": "The address to which is new Authority address"
        }
      },
      "changePrimaryOwner(address)": {
        "details": "change primary ownership",
        "params": {
          "_which": "The address to which is new owner address"
        }
      },
      "changeSystemAddress(address)": {
        "details": "change system address",
        "params": {
          "_which": "The address to which is new system address"
        }
      },
      "implementation()": {
        "details": "Tells the address of the current implementation",
        "return": "address of the current implementation"
      },
      "initialize()": {
        "details": "Validates the caller is the versions registry. THIS FUNCTION SHOULD BE OVERRIDDEN CALLING SUPER"
      },
      "initializeOwner(address,address,address)": {
        "details": "The Ownable constructor sets the `primaryOwner` and `systemAddress` and '_multisigAddress' account."
      }
    }
  },
  "userdoc": {
    "methods": {}
  }
}