{
  "contractName": "WhiteListRegistery",
  "abi": [
    {
      "constant": false,
      "inputs": [
        {
          "name": "_which",
          "type": "address"
        }
      ],
      "name": "changeSystemAddress",
      "outputs": [
        {
          "name": "",
          "type": "bool"
        }
      ],
      "payable": false,
      "stateMutability": "nonpayable",
      "type": "function"
    },
    {
      "constant": true,
      "inputs": [],
      "name": "newAuthorityAddress",
      "outputs": [
        {
          "name": "",
          "type": "address"
        }
      ],
      "payable": false,
      "stateMutability": "view",
      "type": "function"
    },
    {
      "constant": false,
      "inputs": [],
      "name": "acceptAuthorityAddress",
      "outputs": [
        {
          "name": "",
          "type": "bool"
        }
      ],
      "payable": false,
      "stateMutability": "nonpayable",
      "type": "function"
    },
    {
      "constant": true,
      "inputs": [],
      "name": "proxyAddress",
      "outputs": [
        {
          "name": "",
          "type": "address"
        }
      ],
      "payable": false,
      "stateMutability": "view",
      "type": "function"
    },
    {
      "constant": true,
      "inputs": [],
      "name": "authorityAddress",
      "outputs": [
        {
          "name": "",
          "type": "address"
        }
      ],
      "payable": false,
      "stateMutability": "view",
      "type": "function"
    },
    {
      "constant": true,
      "inputs": [],
      "name": "primaryOwner",
      "outputs": [
        {
          "name": "",
          "type": "address"
        }
      ],
      "payable": false,
      "stateMutability": "view",
      "type": "function"
    },
    {
      "constant": false,
      "inputs": [
        {
          "name": "_which",
          "type": "address"
        }
      ],
      "name": "changeAuthorityAddress",
      "outputs": [
        {
          "name": "",
          "type": "bool"
        }
      ],
      "payable": false,
      "stateMutability": "nonpayable",
      "type": "function"
    },
    {
      "constant": true,
      "inputs": [],
      "name": "currentVersion",
      "outputs": [
        {
          "name": "",
          "type": "uint256"
        }
      ],
      "payable": false,
      "stateMutability": "view",
      "type": "function"
    },
    {
      "constant": false,
      "inputs": [
        {
          "name": "_which",
          "type": "address"
        }
      ],
      "name": "changePrimaryOwner",
      "outputs": [
        {
          "name": "",
          "type": "bool"
        }
      ],
      "payable": false,
      "stateMutability": "nonpayable",
      "type": "function"
    },
    {
      "constant": true,
      "inputs": [],
      "name": "systemAddress",
      "outputs": [
        {
          "name": "",
          "type": "address"
        }
      ],
      "payable": false,
      "stateMutability": "view",
      "type": "function"
    },
    {
      "inputs": [
        {
          "name": "_systemAddress",
          "type": "address"
        },
        {
          "name": "_multisigAddress",
          "type": "address"
        }
      ],
      "payable": false,
      "stateMutability": "nonpayable",
      "type": "constructor"
    },
    {
      "anonymous": false,
      "inputs": [
        {
          "indexed": false,
          "name": "proxy",
          "type": "address"
        }
      ],
      "name": "ProxyCreated",
      "type": "event"
    },
    {
      "anonymous": false,
      "inputs": [
        {
          "indexed": false,
          "name": "version",
          "type": "uint256"
        },
        {
          "indexed": false,
          "name": "implementation",
          "type": "address"
        }
      ],
      "name": "VersionAdded",
      "type": "event"
    },
    {
      "anonymous": false,
      "inputs": [
        {
          "indexed": false,
          "name": "ownerType",
          "type": "string"
        },
        {
          "indexed": true,
          "name": "previousOwner",
          "type": "address"
        },
        {
          "indexed": true,
          "name": "newOwner",
          "type": "address"
        }
      ],
      "name": "OwnershipTransferred",
      "type": "event"
    },
    {
      "anonymous": false,
      "inputs": [
        {
          "indexed": true,
          "name": "previousOwner",
          "type": "address"
        },
        {
          "indexed": true,
          "name": "newOwner",
          "type": "address"
        }
      ],
      "name": "AuthorityAddressChnageCall",
      "type": "event"
    },
    {
      "constant": false,
      "inputs": [
        {
          "name": "version",
          "type": "uint256"
        },
        {
          "name": "implementation",
          "type": "address"
        }
      ],
      "name": "addVersion",
      "outputs": [],
      "payable": false,
      "stateMutability": "nonpayable",
      "type": "function"
    },
    {
      "constant": true,
      "inputs": [
        {
          "name": "version",
          "type": "uint256"
        }
      ],
      "name": "getVersion",
      "outputs": [
        {
          "name": "",
          "type": "address"
        }
      ],
      "payable": false,
      "stateMutability": "view",
      "type": "function"
    },
    {
      "constant": false,
      "inputs": [
        {
          "name": "version",
          "type": "uint256"
        },
        {
          "name": "_primaryOwner",
          "type": "address"
        },
        {
          "name": "_systemAddress",
          "type": "address"
        },
        {
          "name": "_authorityAddress",
          "type": "address"
        },
        {
          "name": "_mainHoldBackDays",
          "type": "uint256"
        },
        {
          "name": "_etnHoldBackDays",
          "type": "uint256"
        },
        {
          "name": "_stockHoldBackDays",
          "type": "uint256"
        },
        {
          "name": "_mainMaturityDays",
          "type": "uint256"
        },
        {
          "name": "_etnMaturityDays",
          "type": "uint256"
        },
        {
          "name": "_stockMaturityDays",
          "type": "uint256"
        }
      ],
      "name": "createProxy",
      "outputs": [
        {
          "name": "",
          "type": "address"
        }
      ],
      "payable": false,
      "stateMutability": "nonpayable",
      "type": "function"
    },
    {
      "constant": false,
      "inputs": [
        {
          "name": "version",
          "type": "uint256"
        }
      ],
      "name": "upgradeTo",
      "outputs": [
        {
          "name": "",
          "type": "bool"
        }
      ],
      "payable": false,
      "stateMutability": "nonpayable",
      "type": "function"
    }
  ],
  "bytecode": "0x6080604052600080546001600160a01b0319908116909155600180548216905560028054821690556003805490911690553480156200003d57600080fd5b506040516200189338038062001893833981810160405260408110156200006357600080fd5b50805160209182015160408051808201909152601081527f4552525f5a45524f5f41444452455353000000000000000000000000000000009381019390935290918290829082906001600160a01b0382166200015a576040517f08c379a00000000000000000000000000000000000000000000000000000000081526004018080602001828103825283818151815260200191508051906020019080838360005b838110156200011e57818101518382015260200162000104565b50505050905090810190601f1680156200014c5780820380516001836020036101000a031916815260200191505b509250505060405180910390fd5b5060408051808201909152601081527f4552525f53414d455f41444452455353000000000000000000000000000000006020820152336001600160a01b038516141562000204576040517f08c379a00000000000000000000000000000000000000000000000000000000081526020600482018181528351602484015283519092839260449091019190850190808383600083156200011e57818101518382015260200162000104565b50816001600160a01b0316836001600160a01b031614156040518060400160405280601081526020017f4552525f53414d455f414444524553530000000000000000000000000000000081525090620002ba576040517f08c379a00000000000000000000000000000000000000000000000000000000081526020600482018181528351602484015283519092839260449091019190850190808383600083156200011e57818101518382015260200162000104565b5060408051808201909152601081527f4552525f53414d455f41444452455353000000000000000000000000000000006020820152336001600160a01b038416141562000364576040517f08c379a00000000000000000000000000000000000000000000000000000000081526020600482018181528351602484015283519092839260449091019190850190808383600083156200011e57818101518382015260200162000104565b5050600080546001600160a01b03199081163317909155600280546001600160a01b039485169083161790556001805492909316911617905550506114e480620003af6000396000f3fe608060405234801561001057600080fd5b50600436106100ea5760003560e01c80638f51368b1161008c578063c4d3426811610066578063c4d34268146101f8578063ce8249151461021e578063d3e848f114610281578063fd016b3414610289576100ea565b80638f51368b1461019b5780639d888e86146101c1578063b88da759146101db576100ea565b806323f5c02d116100c857806323f5c02d14610155578063272860fd1461015d5780633c695d4e1461018b5780638e10be3314610193576100ea565b806304d63089146100ef5780630abaad7a1461012957806320c462fe1461014d575b600080fd5b6101156004803603602081101561010557600080fd5b50356001600160a01b03166102a6565b604080519115158252519081900360200190f35b6101316105b7565b604080516001600160a01b039092168252519081900360200190f35b6101156105c6565b6101316106db565b6101896004803603604081101561017357600080fd5b50803590602001356001600160a01b03166106ea565b005b6101316108ba565b6101316108c9565b610115600480360360208110156101b157600080fd5b50356001600160a01b03166108d8565b6101c9610ab9565b60408051918252519081900360200190f35b610131600480360360208110156101f157600080fd5b5035610abf565b6101156004803603602081101561020e57600080fd5b50356001600160a01b0316610ada565b610131600480360361014081101561023557600080fd5b508035906001600160a01b03602082013581169160408101358216916060820135169060808101359060a08101359060c08101359060e081013590610100810135906101200135610d1d565b610131610f49565b6101156004803603602081101561029f57600080fd5b5035610f58565b60015460408051808201909152601b815260008051602061149083398151915260208201526000916001600160a01b031633146103615760405162461bcd60e51b81526004018080602001828103825283818151815260200191508051906020019080838360005b8381101561032657818101518382015260200161030e565b50505050905090810190601f1680156103535780820380516001836020036101000a031916815260200191505b509250505060405180910390fd5b5060408051808201909152601981527f4552525f434f4e54524143545f53454c465f4144445245535300000000000000602082015282906001600160a01b0382163014156103f05760405162461bcd60e51b815260206004820181815283516024840152835190928392604490910191908501908083836000831561032657818101518382015260200161030e565b5060408051808201909152601081526f4552525f5a45524f5f4144445245535360801b602082015283906001600160a01b03821661046f5760405162461bcd60e51b815260206004820181815283516024840152835190928392604490910191908501908083836000831561032657818101518382015260200161030e565b506002546001600160a01b0385811691161480159061049c57506001546001600160a01b03858116911614155b80156104b657506000546001600160a01b03858116911614155b6040518060400160405280601081526020016f4552525f53414d455f4144445245535360801b8152509061052b5760405162461bcd60e51b815260206004820181815283516024840152835190928392604490910191908501908083836000831561032657818101518382015260200161030e565b50600254604080516020808252600e908201526d53595354454d5f4144445245535360901b8183015290516001600160a01b038088169316917f6840904f5b31827f74e1497360da245f56e530c8c3de3163a2d31f11493273c6919081900360600190a3600280546001600160a01b0386166001600160a01b0319909116179055600192505050919050565b6003546001600160a01b031681565b60035460408051808201909152601b815260008051602061149083398151915260208201526000916001600160a01b031633146106445760405162461bcd60e51b815260206004820181815283516024840152835190928392604490910191908501908083836000831561032657818101518382015260200161030e565b5060035460015460408051602080825260119082015270415554484f524954595f4144445245535360781b8183015290516001600160a01b039384169392909216917f6840904f5b31827f74e1497360da245f56e530c8c3de3163a2d31f11493273c69181900360600190a35060038054600180546001600160a01b03199081166001600160a01b03841617825590911690915590565b6006546001600160a01b031681565b6000546001600160a01b031633148061070d57506002546001600160a01b031633145b6040518060400160405280601b81526020016000805160206114908339815191528152509061077d5760405162461bcd60e51b815260206004820181815283516024840152835190928392604490910191908501908083836000831561032657818101518382015260200161030e565b5060408051808201909152601081526f4552525f5a45524f5f4144445245535360801b602082015281906001600160a01b0382166107fc5760405162461bcd60e51b815260206004820181815283516024840152835190928392604490910191908501908083836000831561032657818101518382015260200161030e565b506000838152600460205260409020546001600160a01b0316156108515760405162461bcd60e51b81526004018080602001828103825260288152602001806114686028913960400191505060405180910390fd5b60008381526004602090815260409182902080546001600160a01b0319166001600160a01b03861690811790915582518681529182015281517f8acfa0f943685107a3a6f2951a8e8d9bd985bef6caa1e2677d3fb5e9fb21ef75929181900390910190a1505050565b6001546001600160a01b031681565b6000546001600160a01b031681565b60015460408051808201909152601b815260008051602061149083398151915260208201526000916001600160a01b031633146109565760405162461bcd60e51b815260206004820181815283516024840152835190928392604490910191908501908083836000831561032657818101518382015260200161030e565b5060408051808201909152601081526f4552525f5a45524f5f4144445245535360801b602082015282906001600160a01b0382166109d55760405162461bcd60e51b815260206004820181815283516024840152835190928392604490910191908501908083836000831561032657818101518382015260200161030e565b506002546001600160a01b03848116911614801590610a0257506001546001600160a01b03848116911614155b8015610a1c57506000546001600160a01b03848116911614155b6040518060400160405280601081526020016f4552525f53414d455f4144445245535360801b81525090610a915760405162461bcd60e51b815260206004820181815283516024840152835190928392604490910191908501908083836000831561032657818101518382015260200161030e565b50600380546001600160a01b0385166001600160a01b03199091161790556001915050919050565b60055481565b6000908152600460205260409020546001600160a01b031690565b60015460408051808201909152601b815260008051602061149083398151915260208201526000916001600160a01b03163314610b585760405162461bcd60e51b815260206004820181815283516024840152835190928392604490910191908501908083836000831561032657818101518382015260200161030e565b5060408051808201909152601081526f4552525f5a45524f5f4144445245535360801b602082015282906001600160a01b038216610bd75760405162461bcd60e51b815260206004820181815283516024840152835190928392604490910191908501908083836000831561032657818101518382015260200161030e565b506002546001600160a01b03848116911614801590610c0457506001546001600160a01b03848116911614155b8015610c1e57506000546001600160a01b03848116911614155b6040518060400160405280601081526020016f4552525f53414d455f4144445245535360801b81525090610c935760405162461bcd60e51b815260206004820181815283516024840152835190928392604490910191908501908083836000831561032657818101518382015260200161030e565b50600054604080516020808252600d908201526c282924a6a0a92cafa7aba722a960991b8183015290516001600160a01b038087169316917f6840904f5b31827f74e1497360da245f56e530c8c3de3163a2d31f11493273c6919081900360600190a3600080546001600160a01b0385166001600160a01b03199091161790556001915050919050565b600080546001600160a01b0316331480610d4157506002546001600160a01b031633145b6040518060400160405280601b815260200160008051602061149083398151915281525090610db15760405162461bcd60e51b815260206004820181815283516024840152835190928392604490910191908501908083836000831561032657818101518382015260200161030e565b506006546001600160a01b031615610e10576040805162461bcd60e51b815260206004820152601960248201527f4552525f50524f58595f414c52454144595f4352454154454400000000000000604482015290519081900360640190fd5b60008b604051610e1f90611049565b90815260405190819003602001906000f080158015610e42573d6000803e3d6000fd5b506040805163bb4a250960e01b81526001600160a01b038e811660048301528d811660248301528c81166044830152606482018c9052608482018b905260a482018a905260c4820189905260e48201889052610104820187905291519293509083169163bb4a2509916101248082019260009290919082900301818387803b158015610ecd57600080fd5b505af1158015610ee1573d6000803e3d6000fd5b50505060058d905550600680546001600160a01b0383166001600160a01b0319909116811790915560408051918252517efffc2da0b561cae30d9826d37709e9421c4725faebc226cbbb7ef5fc5e73499181900360200190a19b9a5050505050505050505050565b6002546001600160a01b031681565b60015460408051808201909152601b815260008051602061149083398151915260208201526000916001600160a01b03163314610fd65760405162461bcd60e51b815260206004820181815283516024840152835190928392604490910191908501908083836000831561032657818101518382015260200161030e565b50600582905560065460408051633f405acd60e21b81526004810185905290516001600160a01b039092169163fd016b349160248082019260009290919082900301818387803b15801561102957600080fd5b505af115801561103d573d6000803e3d6000fd5b50600195945050505050565b610411806110578339019056fe608060405234801561001057600080fd5b506040516104113803806104118339818101604052602081101561003357600080fd5b5051600080546001600160a01b03191633179055610059816001600160e01b0361005f16565b5061018b565b6000546001600160a01b031633146100d857604080517f08c379a000000000000000000000000000000000000000000000000000000000815260206004820152601c60248201527f4552525f4f4e4c595f524547495354524552595f43414e5f43414c4c00000000604482015290519081900360640190fd5b600054604080517fb88da7590000000000000000000000000000000000000000000000000000000081526004810184905290516001600160a01b039092169163b88da75991602480820192602092909190829003018186803b15801561013d57600080fd5b505afa158015610151573d6000803e3d6000fd5b505050506040513d602081101561016757600080fd5b5051600180546001600160a01b0319166001600160a01b0390921691909117905550565b6102778061019a6000396000f3fe6080604052600436106100345760003560e01c80635c60da1b146100b95780637b103999146100ea578063fd016b34146100ff575b600061003e61012b565b90506001600160a01b038116610094576040805162461bcd60e51b81526020600482015260166024820152754552525f494d504c454d454e5445494f4e5f5a45524f60501b604482015290519081900360640190fd5b60405136600082376000803683855af43d806000843e8180156100b5578184f35b8184fd5b3480156100c557600080fd5b506100ce61012b565b604080516001600160a01b039092168252519081900360200190f35b3480156100f657600080fd5b506100ce61013a565b34801561010b57600080fd5b506101296004803603602081101561012257600080fd5b5035610149565b005b6001546001600160a01b031690565b6000546001600160a01b031681565b6000546001600160a01b031633146101a8576040805162461bcd60e51b815260206004820152601c60248201527f4552525f4f4e4c595f524547495354524552595f43414e5f43414c4c00000000604482015290519081900360640190fd5b6000546040805163b88da75960e01b81526004810184905290516001600160a01b039092169163b88da75991602480820192602092909190829003018186803b1580156101f457600080fd5b505afa158015610208573d6000803e3d6000fd5b505050506040513d602081101561021e57600080fd5b5051600180546001600160a01b0319166001600160a01b039092169190911790555056fea265627a7a723058204e72a3363b3a5df78eee44371acb166b14639450accc788e57f004c53f515a3c64736f6c63430005090032546869732076657273696f6e2068617320696d706c656d656e746174696f6e2061747461636865644552525f415554484f52495a45445f414444524553535f4f4e4c590000000000a265627a7a72305820d8d7c87761c72a57fac6c6e4af8694befa23787d8849a6dfa1840f3562ad02df64736f6c63430005090032",
  "source": "pragma solidity ^0.5.9;\nimport \"../common/RegisteryOwnable.sol\";\nimport \"../Proxy/IRegistry.sol\";\nimport \"../Proxy/UpgradeabilityProxy.sol\";\n\n\ninterface InitializeInterface {\n    function initialize(\n        address _primaryOwner,\n        address _systemAddress,\n        address _authorityAddress,\n        uint256 _mainHoldBackDays,\n        uint256 _etnHoldBackDays,\n        uint256 _stockHoldBackDays,\n        uint256 _mainMaturityDays,\n        uint256 _etnMaturityDays,\n        uint256 _stockMaturityDays\n    ) external;\n}\n\n\n/**\n * @title Registry\n * @dev This contract works as a registry of versions, it holds the implementations for the registered versions.\n */\ncontract WhiteListRegistery is RegisteryOwnable, IRegistry {\n    // Mapping of versions to implementations of different functions\n    mapping(uint256 => address) internal versions;\n\n    uint256 public currentVersion;\n\n    address payable public proxyAddress;\n\n    //@dev constructor\n    //@param _systemAddress address of the system Owner\n    constructor(address _systemAddress, address _multisigAddress)\n        public\n        RegisteryOwnable(_systemAddress, _multisigAddress)\n    {}\n\n    /**\n     * @dev Registers a new version with its implementation address\n     * @param version representing the version name of the new implementation to be registered\n     * @param implementation representing the address of the new implementation to be registered\n     */\n    function addVersion(uint256 version, address implementation)\n        public\n        onlyOneOfOnwer()\n        notZeroAddress(implementation)\n    {\n        require(\n            versions[version] == address(0),\n            \"This version has implementation attached\"\n        );\n        versions[version] = implementation;\n        emit VersionAdded(version, implementation);\n    }\n\n    /**\n     * @dev Tells the address of the implementation for a given version\n     * @param version to query the implementation of\n     * @return address of the implementation registered for the given version\n     */\n    function getVersion(uint256 version) public view returns (address) {\n        return versions[version];\n    }\n\n    /**\n     * @dev Creates an upgradeable proxy\n     * @param version representing the first version to be set for the proxy\n     * @return address of the new proxy created\n     */\n    function createProxy(\n        uint256 version,\n        address _primaryOwner,\n        address _systemAddress,\n        address _authorityAddress,\n        uint256 _mainHoldBackDays,\n        uint256 _etnHoldBackDays,\n        uint256 _stockHoldBackDays,\n        uint256 _mainMaturityDays,\n        uint256 _etnMaturityDays,\n        uint256 _stockMaturityDays\n    ) public onlyOneOfOnwer() returns (address) {\n        require(proxyAddress == address(0), \"ERR_PROXY_ALREADY_CREATED\");\n\n        UpgradeabilityProxy proxy = new UpgradeabilityProxy(version);\n\n        InitializeInterface(address(proxy)).initialize(\n            _primaryOwner,\n            _systemAddress,\n            _authorityAddress,\n            _mainHoldBackDays,\n            _etnHoldBackDays,\n            _stockHoldBackDays,\n            _mainMaturityDays,\n            _etnMaturityDays,\n            _stockMaturityDays\n        );\n\n        currentVersion = version;\n        proxyAddress = address(proxy);\n        emit ProxyCreated(address(proxy));\n        return address(proxy);\n    }\n\n    /**\n     * @dev Upgrades the implementation to the requested version\n     * @param version representing the version name of the new implementation to be set\n     */\n\n    function upgradeTo(uint256 version) public onlyAuthorized() returns (bool) {\n        currentVersion = version;\n        UpgradeabilityProxy(proxyAddress).upgradeTo(version);\n        return true;\n    }\n}\n",
  "sourcePath": "/home/safu/minddeft/jointerInc/jointer-token/contracts/WhiteList/WhiteListProxy.sol",
  "compiler": {
    "name": "solc",
    "version": "0.5.9+commit.e560f70d.Emscripten.clang"
  },
  "schemaVersion": "3.1.0",
  "updatedAt": "2020-05-22T12:31:59.243Z",
  "devdoc": {
    "details": "This contract works as a registry of versions, it holds the implementations for the registered versions.",
    "methods": {
      "addVersion(uint256,address)": {
        "details": "Registers a new version with its implementation address",
        "params": {
          "implementation": "representing the address of the new implementation to be registered",
          "version": "representing the version name of the new implementation to be registered"
        }
      },
      "changeAuthorityAddress(address)": {
        "details": "change system address",
        "params": {
          "_which": "The address to which is new Authority address"
        }
      },
      "changePrimaryOwner(address)": {
        "details": "change primary ownership",
        "params": {
          "_which": "The address to which is new owner address"
        }
      },
      "changeSystemAddress(address)": {
        "details": "change system address",
        "params": {
          "_which": "The address to which is new system address"
        }
      },
      "createProxy(uint256,address,address,address,uint256,uint256,uint256,uint256,uint256,uint256)": {
        "details": "Creates an upgradeable proxy",
        "params": {
          "version": "representing the first version to be set for the proxy"
        },
        "return": "address of the new proxy created"
      },
      "getVersion(uint256)": {
        "details": "Tells the address of the implementation for a given version",
        "params": {
          "version": "to query the implementation of"
        },
        "return": "address of the implementation registered for the given version"
      },
      "upgradeTo(uint256)": {
        "details": "Upgrades the implementation to the requested version",
        "params": {
          "version": "representing the version name of the new implementation to be set"
        }
      }
    },
    "title": "Registry"
  },
  "userdoc": {
    "methods": {}
  }
}