{
  "contractName": "WhiteList",
  "abi": [
    {
      "constant": false,
      "inputs": [
        {
          "name": "_which",
          "type": "address"
        }
      ],
      "name": "changeSystemAddress",
      "outputs": [
        {
          "name": "",
          "type": "bool"
        }
      ],
      "payable": false,
      "stateMutability": "nonpayable",
      "type": "function"
    },
    {
      "constant": true,
      "inputs": [],
      "name": "newAuthorityAddress",
      "outputs": [
        {
          "name": "",
          "type": "address"
        }
      ],
      "payable": false,
      "stateMutability": "view",
      "type": "function"
    },
    {
      "constant": false,
      "inputs": [],
      "name": "acceptAuthorityAddress",
      "outputs": [
        {
          "name": "",
          "type": "bool"
        }
      ],
      "payable": false,
      "stateMutability": "nonpayable",
      "type": "function"
    },
    {
      "constant": true,
      "inputs": [
        {
          "name": "",
          "type": "address"
        }
      ],
      "name": "is_whiteListed",
      "outputs": [
        {
          "name": "",
          "type": "bool"
        }
      ],
      "payable": false,
      "stateMutability": "view",
      "type": "function"
    },
    {
      "constant": true,
      "inputs": [],
      "name": "authorityAddress",
      "outputs": [
        {
          "name": "",
          "type": "address"
        }
      ],
      "payable": false,
      "stateMutability": "view",
      "type": "function"
    },
    {
      "constant": true,
      "inputs": [],
      "name": "isOwnerInitialize",
      "outputs": [
        {
          "name": "",
          "type": "bool"
        }
      ],
      "payable": false,
      "stateMutability": "view",
      "type": "function"
    },
    {
      "constant": true,
      "inputs": [
        {
          "name": "",
          "type": "address"
        }
      ],
      "name": "address_belongs",
      "outputs": [
        {
          "name": "",
          "type": "address"
        }
      ],
      "payable": false,
      "stateMutability": "view",
      "type": "function"
    },
    {
      "constant": true,
      "inputs": [],
      "name": "implementation",
      "outputs": [
        {
          "name": "",
          "type": "address"
        }
      ],
      "payable": false,
      "stateMutability": "view",
      "type": "function"
    },
    {
      "constant": true,
      "inputs": [
        {
          "name": "",
          "type": "uint256"
        }
      ],
      "name": "allowed_in_primary",
      "outputs": [
        {
          "name": "",
          "type": "bool"
        }
      ],
      "payable": false,
      "stateMutability": "view",
      "type": "function"
    },
    {
      "constant": false,
      "inputs": [
        {
          "name": "_primaryOwner",
          "type": "address"
        },
        {
          "name": "_systemAddress",
          "type": "address"
        },
        {
          "name": "_authorityAddress",
          "type": "address"
        }
      ],
      "name": "initializeOwner",
      "outputs": [],
      "payable": false,
      "stateMutability": "nonpayable",
      "type": "function"
    },
    {
      "constant": true,
      "inputs": [],
      "name": "registry",
      "outputs": [
        {
          "name": "",
          "type": "address"
        }
      ],
      "payable": false,
      "stateMutability": "view",
      "type": "function"
    },
    {
      "constant": true,
      "inputs": [],
      "name": "primaryOwner",
      "outputs": [
        {
          "name": "",
          "type": "address"
        }
      ],
      "payable": false,
      "stateMutability": "view",
      "type": "function"
    },
    {
      "constant": false,
      "inputs": [
        {
          "name": "_which",
          "type": "address"
        }
      ],
      "name": "changeAuthorityAddress",
      "outputs": [
        {
          "name": "",
          "type": "bool"
        }
      ],
      "payable": false,
      "stateMutability": "nonpayable",
      "type": "function"
    },
    {
      "constant": true,
      "inputs": [
        {
          "name": "",
          "type": "uint256"
        }
      ],
      "name": "allowed_in_secondary",
      "outputs": [
        {
          "name": "",
          "type": "bool"
        }
      ],
      "payable": false,
      "stateMutability": "view",
      "type": "function"
    },
    {
      "constant": false,
      "inputs": [
        {
          "name": "_which",
          "type": "address"
        }
      ],
      "name": "changePrimaryOwner",
      "outputs": [
        {
          "name": "",
          "type": "bool"
        }
      ],
      "payable": false,
      "stateMutability": "nonpayable",
      "type": "function"
    },
    {
      "constant": true,
      "inputs": [],
      "name": "systemAddress",
      "outputs": [
        {
          "name": "",
          "type": "address"
        }
      ],
      "payable": false,
      "stateMutability": "view",
      "type": "function"
    },
    {
      "constant": true,
      "inputs": [
        {
          "name": "",
          "type": "address"
        }
      ],
      "name": "user_details",
      "outputs": [
        {
          "name": "whiteListType",
          "type": "uint256"
        },
        {
          "name": "maxWallets",
          "type": "uint256"
        },
        {
          "name": "canRecive",
          "type": "bool"
        }
      ],
      "payable": false,
      "stateMutability": "view",
      "type": "function"
    },
    {
      "anonymous": false,
      "inputs": [
        {
          "indexed": true,
          "name": "which",
          "type": "address"
        },
        {
          "indexed": false,
          "name": "walletType",
          "type": "uint256"
        }
      ],
      "name": "AccountWhiteListed",
      "type": "event"
    },
    {
      "anonymous": false,
      "inputs": [
        {
          "indexed": true,
          "name": "from",
          "type": "address"
        },
        {
          "indexed": true,
          "name": "which",
          "type": "address"
        }
      ],
      "name": "WalletAdded",
      "type": "event"
    },
    {
      "anonymous": false,
      "inputs": [
        {
          "indexed": true,
          "name": "from",
          "type": "address"
        },
        {
          "indexed": true,
          "name": "which",
          "type": "address"
        }
      ],
      "name": "WalletRemoved",
      "type": "event"
    },
    {
      "anonymous": false,
      "inputs": [
        {
          "indexed": false,
          "name": "ownerType",
          "type": "string"
        },
        {
          "indexed": true,
          "name": "previousOwner",
          "type": "address"
        },
        {
          "indexed": true,
          "name": "newOwner",
          "type": "address"
        }
      ],
      "name": "OwnershipTransferred",
      "type": "event"
    },
    {
      "anonymous": false,
      "inputs": [
        {
          "indexed": true,
          "name": "previousOwner",
          "type": "address"
        },
        {
          "indexed": true,
          "name": "newOwner",
          "type": "address"
        }
      ],
      "name": "AuthorityAddressChnageCall",
      "type": "event"
    },
    {
      "constant": false,
      "inputs": [
        {
          "name": "_primaryOwner",
          "type": "address"
        },
        {
          "name": "_systemAddress",
          "type": "address"
        },
        {
          "name": "_authorityAddress",
          "type": "address"
        }
      ],
      "name": "initialize",
      "outputs": [],
      "payable": false,
      "stateMutability": "nonpayable",
      "type": "function"
    },
    {
      "constant": true,
      "inputs": [],
      "name": "initialize",
      "outputs": [],
      "payable": false,
      "stateMutability": "view",
      "type": "function"
    },
    {
      "constant": false,
      "inputs": [
        {
          "name": "_which",
          "type": "address"
        },
        {
          "name": "_isPassed",
          "type": "bool"
        }
      ],
      "name": "setByPassedAddress",
      "outputs": [
        {
          "name": "",
          "type": "bool"
        }
      ],
      "payable": false,
      "stateMutability": "nonpayable",
      "type": "function"
    },
    {
      "constant": true,
      "inputs": [
        {
          "name": "_which",
          "type": "address"
        }
      ],
      "name": "isAddressByPassed",
      "outputs": [
        {
          "name": "",
          "type": "bool"
        }
      ],
      "payable": false,
      "stateMutability": "view",
      "type": "function"
    },
    {
      "constant": false,
      "inputs": [
        {
          "name": "_which",
          "type": "address"
        },
        {
          "name": "_whiteListType",
          "type": "uint256"
        },
        {
          "name": "_maxWallets",
          "type": "uint256"
        }
      ],
      "name": "addNewWallet",
      "outputs": [
        {
          "name": "",
          "type": "bool"
        }
      ],
      "payable": false,
      "stateMutability": "nonpayable",
      "type": "function"
    },
    {
      "constant": false,
      "inputs": [
        {
          "name": "_which",
          "type": "address"
        },
        {
          "name": "_maxWallets",
          "type": "uint256"
        }
      ],
      "name": "updateMaxWallet",
      "outputs": [
        {
          "name": "",
          "type": "bool"
        }
      ],
      "payable": false,
      "stateMutability": "nonpayable",
      "type": "function"
    },
    {
      "constant": false,
      "inputs": [
        {
          "name": "_which",
          "type": "address"
        }
      ],
      "name": "addMoreWallets",
      "outputs": [
        {
          "name": "",
          "type": "bool"
        }
      ],
      "payable": false,
      "stateMutability": "nonpayable",
      "type": "function"
    },
    {
      "constant": true,
      "inputs": [
        {
          "name": "_whom",
          "type": "address"
        }
      ],
      "name": "getUserWallets",
      "outputs": [
        {
          "name": "",
          "type": "address[]"
        }
      ],
      "payable": false,
      "stateMutability": "view",
      "type": "function"
    },
    {
      "constant": false,
      "inputs": [
        {
          "name": "_which",
          "type": "address"
        }
      ],
      "name": "walletExpires",
      "outputs": [
        {
          "name": "",
          "type": "bool"
        }
      ],
      "payable": false,
      "stateMutability": "nonpayable",
      "type": "function"
    },
    {
      "constant": false,
      "inputs": [
        {
          "name": "_which",
          "type": "address"
        }
      ],
      "name": "walletRenewed",
      "outputs": [
        {
          "name": "",
          "type": "bool"
        }
      ],
      "payable": false,
      "stateMutability": "nonpayable",
      "type": "function"
    },
    {
      "constant": true,
      "inputs": [
        {
          "name": "_which",
          "type": "address"
        }
      ],
      "name": "canReciveToken",
      "outputs": [
        {
          "name": "",
          "type": "bool"
        }
      ],
      "payable": false,
      "stateMutability": "view",
      "type": "function"
    },
    {
      "constant": true,
      "inputs": [
        {
          "name": "_which",
          "type": "address"
        }
      ],
      "name": "isWhiteListed",
      "outputs": [
        {
          "name": "",
          "type": "bool"
        }
      ],
      "payable": false,
      "stateMutability": "view",
      "type": "function"
    },
    {
      "constant": true,
      "inputs": [
        {
          "name": "_which",
          "type": "address"
        }
      ],
      "name": "isTransferAllowed",
      "outputs": [
        {
          "name": "",
          "type": "bool"
        }
      ],
      "payable": false,
      "stateMutability": "view",
      "type": "function"
    },
    {
      "constant": false,
      "inputs": [
        {
          "name": "_whiteListType",
          "type": "uint256[]"
        },
        {
          "name": "_isAlloweded",
          "type": "bool[]"
        }
      ],
      "name": "changeAllowInPrimary",
      "outputs": [
        {
          "name": "",
          "type": "bool"
        }
      ],
      "payable": false,
      "stateMutability": "nonpayable",
      "type": "function"
    },
    {
      "constant": false,
      "inputs": [
        {
          "name": "_whiteListType",
          "type": "uint256[]"
        },
        {
          "name": "_isAlloweded",
          "type": "bool[]"
        }
      ],
      "name": "changeAllowInSecondary",
      "outputs": [
        {
          "name": "",
          "type": "bool"
        }
      ],
      "payable": false,
      "stateMutability": "nonpayable",
      "type": "function"
    },
    {
      "constant": true,
      "inputs": [
        {
          "name": "_from",
          "type": "address"
        },
        {
          "name": "_to",
          "type": "address"
        }
      ],
      "name": "checkBeforeTransfer",
      "outputs": [
        {
          "name": "",
          "type": "bool"
        }
      ],
      "payable": false,
      "stateMutability": "view",
      "type": "function"
    }
  ],
  "bytecode": "0x6080604052600280546001600160a01b03199081169091556003805482169055600480549091169055600580546001600160a81b031916905534801561004457600080fd5b506123df806100546000396000f3fe608060405234801561001057600080fd5b50600436106101fb5760003560e01c8063760e595a1161011a5780639e4cb1e1116100ad578063c0c53b8b1161007c578063c0c53b8b146106d9578063c4d3426814610711578063d3e848f114610737578063e128a9911461073f578063f03fd3d414610785576101fb565b80639e4cb1e11461062e5780639e4d7ae51461065c578063a156fab31461068a578063bee4a783146106bc576101fb565b806384d32a39116100e957806384d32a39146105b45780638822048e146105da5780638e10be33146106005780638f51368b14610608576101fb565b8063760e595a1461053e5780637b103999146105785780638129fc1c1461058057806382747d4314610588576101fb565b806356be4a3e116101925780636c7d3081116101615780636c7d3081146104565780636cbae1571461047c5780636f9170f6146104f257806374857c0514610518576101fb565b806356be4a3e146103e55780635c60da1b1461040b57806364f9a14114610413578063691f149014610430576101fb565b8063332d630a116101ce578063332d630a1461028c5780633c695d4e146102b25780633ff59a52146102ba57806351e78dfe146102c2576101fb565b806304d63089146102005780630abaad7a1461023a5780631df7f8651461025e57806320c462fe14610284575b600080fd5b6102266004803603602081101561021657600080fd5b50356001600160a01b03166108a8565b604080519115158252519081900360200190f35b610242610bb9565b604080516001600160a01b039092168252519081900360200190f35b6102266004803603602081101561027457600080fd5b50356001600160a01b0316610bc8565b610226610ce9565b610226600480360360208110156102a257600080fd5b50356001600160a01b0316610dfe565b610242610e13565b610226610e22565b610226600480360360408110156102d857600080fd5b810190602081018135600160201b8111156102f257600080fd5b82018360208201111561030457600080fd5b803590602001918460208302840111600160201b8311171561032557600080fd5b9190808060200260200160405190810160405280939291908181526020018383602002808284376000920191909152509295949360208101935035915050600160201b81111561037457600080fd5b82018360208201111561038657600080fd5b803590602001918460208302840111600160201b831117156103a757600080fd5b919080806020026020016040519081016040528093929190818152602001838360200280828437600092019190915250929550610e32945050505050565b610242600480360360208110156103fb57600080fd5b50356001600160a01b0316610f2c565b610242610f47565b6102266004803603602081101561042957600080fd5b5035610f56565b6102266004803603602081101561044657600080fd5b50356001600160a01b0316610f6b565b6102266004803603602081101561046c57600080fd5b50356001600160a01b0316611088565b6104a26004803603602081101561049257600080fd5b50356001600160a01b03166110a6565b60408051602080825283518183015283519192839290830191858101910280838360005b838110156104de5781810151838201526020016104c6565b505050509050019250505060405180910390f35b6102266004803603602081101561050857600080fd5b50356001600160a01b0316611122565b6102266004803603602081101561052e57600080fd5b50356001600160a01b0316611150565b6105766004803603606081101561055457600080fd5b506001600160a01b038135811691602081013582169160409091013516611415565b005b6102426117eb565b6105766117fa565b6102266004803603604081101561059e57600080fd5b506001600160a01b03813516906020013561185b565b610226600480360360208110156105ca57600080fd5b50356001600160a01b031661198f565b610226600480360360208110156105f057600080fd5b50356001600160a01b03166119c0565b6102426119f8565b6102266004803603602081101561061e57600080fd5b50356001600160a01b0316611a07565b6102266004803603604081101561064457600080fd5b506001600160a01b0381351690602001351515611be8565b6102266004803603604081101561067257600080fd5b506001600160a01b0381358116916020013516611d16565b610226600480360360608110156106a057600080fd5b506001600160a01b038135169060208101359060400135611d75565b610226600480360360208110156106d257600080fd5b5035611eac565b610576600480360360608110156106ef57600080fd5b506001600160a01b038135811691602081013582169160409091013516611ec1565b6102266004803603602081101561072757600080fd5b50356001600160a01b0316611f87565b6102426121ca565b6107656004803603602081101561075557600080fd5b50356001600160a01b03166121d9565b604080519384526020840192909252151582820152519081900360600190f35b6102266004803603604081101561079b57600080fd5b810190602081018135600160201b8111156107b557600080fd5b8201836020820111156107c757600080fd5b803590602001918460208302840111600160201b831117156107e857600080fd5b9190808060200260200160405190810160405280939291908181526020018383602002808284376000920191909152509295949360208101935035915050600160201b81111561083757600080fd5b82018360208201111561084957600080fd5b803590602001918460208302840111600160201b8311171561086a57600080fd5b9190808060200260200160405190810160405280939291908181526020018383602002808284376000920191909152509295506121fd945050505050565b60035460408051808201909152601b815260008051602061238b83398151915260208201526000916001600160a01b031633146109635760405162461bcd60e51b81526004018080602001828103825283818151815260200191508051906020019080838360005b83811015610928578181015183820152602001610910565b50505050905090810190601f1680156109555780820380516001836020036101000a031916815260200191505b509250505060405180910390fd5b5060408051808201909152601981527f4552525f434f4e54524143545f53454c465f4144445245535300000000000000602082015282906001600160a01b0382163014156109f25760405162461bcd60e51b8152602060048201818152835160248401528351909283926044909101919085019080838360008315610928578181015183820152602001610910565b5060408051808201909152601081526f4552525f5a45524f5f4144445245535360801b602082015283906001600160a01b038216610a715760405162461bcd60e51b8152602060048201818152835160248401528351909283926044909101919085019080838360008315610928578181015183820152602001610910565b506005546001600160a01b03858116911614801590610a9e57506003546001600160a01b03858116911614155b8015610ab857506002546001600160a01b03858116911614155b6040518060400160405280601081526020016f4552525f53414d455f4144445245535360801b81525090610b2d5760405162461bcd60e51b8152602060048201818152835160248401528351909283926044909101919085019080838360008315610928578181015183820152602001610910565b50600554604080516020808252600e908201526d53595354454d5f4144445245535360901b8183015290516001600160a01b038088169316917f6840904f5b31827f74e1497360da245f56e530c8c3de3163a2d31f11493273c6919081900360600190a3600580546001600160a01b0386166001600160a01b0319909116179055600192505050919050565b6004546001600160a01b031681565b60055460408051808201909152601b815260008051602061238b83398151915260208201526000916001600160a01b03163314610c465760405162461bcd60e51b8152602060048201818152835160248401528351909283926044909101919085019080838360008315610928578181015183820152602001610910565b506001600160a01b03821660009081526006602052604090205460ff16610cad576040805162461bcd60e51b815260206004820152601660248201527511549497d050d51253d397d393d517d0531313d5d15160521b604482015290519081900360640190fd5b506001600160a01b0390811660009081526007602090815260408083205490931682526008905220600201805460ff1916600190811790915590565b60045460408051808201909152601b815260008051602061238b83398151915260208201526000916001600160a01b03163314610d675760405162461bcd60e51b8152602060048201818152835160248401528351909283926044909101919085019080838360008315610928578181015183820152602001610910565b5060045460035460408051602080825260119082015270415554484f524954595f4144445245535360781b8183015290516001600160a01b039384169392909216917f6840904f5b31827f74e1497360da245f56e530c8c3de3163a2d31f11493273c69181900360600190a35060048054600380546001600160a01b03199081166001600160a01b03841617909155169055600190565b60066020526000908152604090205460ff1681565b6003546001600160a01b031681565b600554600160a01b900460ff1681565b60055460408051808201909152601b815260008051602061238b83398151915260208201526000916001600160a01b03163314610eb05760405162461bcd60e51b8152602060048201818152835160248401528351909283926044909101919085019080838360008315610928578181015183820152602001610910565b508151835114610ebf57600080fd5b60005b8351811015610f2057828181518110610ed757fe5b602002602001015160096000868481518110610eef57fe5b6020908102919091018101518252810191909152604001600020805460ff1916911515919091179055600101610ec2565b50600190505b92915050565b6007602052600090815260409020546001600160a01b031681565b6001546001600160a01b031690565b60096020526000908152604090205460ff1681565b60055460408051808201909152601b815260008051602061238b83398151915260208201526000916001600160a01b03163314610fe95760405162461bcd60e51b8152602060048201818152835160248401528351909283926044909101919085019080838360008315610928578181015183820152602001610910565b506001600160a01b03821660009081526006602052604090205460ff16611050576040805162461bcd60e51b815260206004820152601660248201527511549497d050d51253d397d393d517d0531313d5d15160521b604482015290519081900360640190fd5b506001600160a01b0390811660009081526007602090815260408083205490931682526008905220600201805460ff19169055600190565b6001600160a01b03166000908152600b602052604090205460ff1690565b6001600160a01b038116600090815260086020908152604091829020600381018054845181850281018501909552808552606094929383018282801561111557602002820191906000526020600020905b81546001600160a01b031681526001909101906020018083116110f7575b5050505050915050919050565b6001600160a01b03908116600090815260076020908152604080832054909316825260069052205460ff1690565b60408051808201909152601081526f4552525f5a45524f5f4144445245535360801b602082015260009082906001600160a01b0382166111d15760405162461bcd60e51b8152602060048201818152835160248401528351909283926044909101919085019080838360008315610928578181015183820152602001610910565b506001600160a01b03838116600090815260076020908152604091829020548251808401909352601b835260008051602061238b83398151915291830191909152909116156112615760405162461bcd60e51b8152602060048201818152835160248401528351909283926044909101919085019080838360008315610928578181015183820152602001610910565b50336000818152600760209081526040808320546001600160a01b031680845260069092529091205460ff1680156112aa5750806001600160a01b0316826001600160a01b0316145b6040518060400160405280601b815260200160008051602061238b8339815191528152509061131a5760405162461bcd60e51b8152602060048201818152835160248401528351909283926044909101919085019080838360008315610928578181015183820152602001610910565b506001600160a01b0381166000908152600860205260409020600381015460018201541161138f576040805162461bcd60e51b815260206004820152601860248201527f4552525f4d4158494d554d5f57414c4c45545f4c494d49540000000000000000604482015290519081900360640190fd5b6001600160a01b03808716600081815260076020908152604080832080549588166001600160a01b031996871681179091556003870180546001810182559085529284209092018054909516841790945592519192917f51e7a5ff5a23e09cd0cee9895f33eab93a6c7e4f3febde5628c4b8035f7bac149190a350600195945050505050565b60408051808201909152601081526f4552525f5a45524f5f4144445245535360801b602082015283906001600160a01b0382166114935760405162461bcd60e51b8152602060048201818152835160248401528351909283926044909101919085019080838360008315610928578181015183820152602001610910565b5060408051808201909152601081526f4552525f5a45524f5f4144445245535360801b602082015283906001600160a01b0382166115125760405162461bcd60e51b8152602060048201818152835160248401528351909283926044909101919085019080838360008315610928578181015183820152602001610910565b5060408051808201909152601081526f4552525f5a45524f5f4144445245535360801b602082015283906001600160a01b0382166115915760405162461bcd60e51b8152602060048201818152835160248401528351909283926044909101919085019080838360008315610928578181015183820152602001610910565b50600554600160a01b900460ff16156115f1576040805162461bcd60e51b815260206004820152601c60248201527f4552525f4f574e45525f494e5449414c495a45445f414c524541445900000000604482015290519081900360640190fd5b846001600160a01b0316866001600160a01b031614156040518060400160405280601081526020016f4552525f53414d455f4144445245535360801b8152509061167c5760405162461bcd60e51b8152602060048201818152835160248401528351909283926044909101919085019080838360008315610928578181015183820152602001610910565b50836001600160a01b0316856001600160a01b031614156040518060400160405280601081526020016f4552525f53414d455f4144445245535360801b815250906117085760405162461bcd60e51b8152602060048201818152835160248401528351909283926044909101919085019080838360008315610928578181015183820152602001610910565b50836001600160a01b0316866001600160a01b031614156040518060400160405280601081526020016f4552525f53414d455f4144445245535360801b815250906117945760405162461bcd60e51b8152602060048201818152835160248401528351909283926044909101919085019080838360008315610928578181015183820152602001610910565b5050600280546001600160a01b039687166001600160a01b03199182161790915560058054600380549689169684169690961790955560ff60a01b199590961693169290921792909216600160a01b179092555050565b6000546001600160a01b031681565b6000546001600160a01b03163314611859576040805162461bcd60e51b815260206004820152601c60248201527f4552525f4f4e4c595f524547495354524552595f43414e5f43414c4c00000000604482015290519081900360640190fd5b565b60025460408051808201909152601b815260008051602061238b83398151915260208201526000916001600160a01b031633146118d95760405162461bcd60e51b8152602060048201818152835160248401528351909283926044909101919085019080838360008315610928578181015183820152602001610910565b506001600160a01b038316600090815260066020908152604091829020548251808401909352601b835260008051602061238b8339815191529183019190915260ff166119675760405162461bcd60e51b8152602060048201818152835160248401528351909283926044909101919085019080838360008315610928578181015183820152602001610910565b50506001600160a01b0382166000908152600860205260409020600190810182905592915050565b6001600160a01b03908116600090815260076020908152604080832054909316825260089052206002015460ff1690565b6001600160a01b03908116600090815260076020908152604080832054909316825260088152828220548252600a9052205460ff1690565b6002546001600160a01b031681565b60035460408051808201909152601b815260008051602061238b83398151915260208201526000916001600160a01b03163314611a855760405162461bcd60e51b8152602060048201818152835160248401528351909283926044909101919085019080838360008315610928578181015183820152602001610910565b5060408051808201909152601081526f4552525f5a45524f5f4144445245535360801b602082015282906001600160a01b038216611b045760405162461bcd60e51b8152602060048201818152835160248401528351909283926044909101919085019080838360008315610928578181015183820152602001610910565b506005546001600160a01b03848116911614801590611b3157506003546001600160a01b03848116911614155b8015611b4b57506002546001600160a01b03848116911614155b6040518060400160405280601081526020016f4552525f53414d455f4144445245535360801b81525090611bc05760405162461bcd60e51b8152602060048201818152835160248401528351909283926044909101919085019080838360008315610928578181015183820152602001610910565b50600480546001600160a01b0385166001600160a01b03199091161790556001915050919050565b60055460408051808201909152601b815260008051602061238b83398151915260208201526000916001600160a01b03163314611c665760405162461bcd60e51b8152602060048201818152835160248401528351909283926044909101919085019080838360008315610928578181015183820152602001610910565b5060408051808201909152601081526f4552525f5a45524f5f4144445245535360801b602082015283906001600160a01b038216611ce55760405162461bcd60e51b8152602060048201818152835160248401528351909283926044909101919085019080838360008315610928578181015183820152602001610910565b5050506001600160a01b03919091166000908152600b60205260409020805460ff1916911515919091179055600190565b6000611d2183611122565b611d2d57506000610f26565b611d3682611122565b611d4257506000610f26565b611d4b8261198f565b611d5757506000610f26565b611d60826119c0565b611d6c57506000610f26565b50600192915050565b60055460408051808201909152601b815260008051602061238b83398151915260208201526000916001600160a01b03163314611df35760405162461bcd60e51b8152602060048201818152835160248401528351909283926044909101919085019080838360008315610928578181015183820152602001610910565b5060408051808201909152601081526f4552525f5a45524f5f4144445245535360801b602082015284906001600160a01b038216611e725760405162461bcd60e51b8152602060048201818152835160248401528351909283926044909101919085019080838360008315610928578181015183820152602001610910565b506001600160a01b038581166000908152600760205260409020541615611e9857600080fd5b611ea38585856122eb565b95945050505050565b600a6020526000908152604090205460ff1681565b611ec96117fa565b611ed4838383611415565b611ee1336000600a6122eb565b50611eef826000600a6122eb565b5050336000908152600b602090815260408083208054600160ff1991821681179092556001600160a01b0395909516845290832080548516821790559180527fec8156718a8372b1db44bb411437d0870f3e3790d4a08526d024ce1b0b668f6b8054841683179055600a90527f13da86008ba1c6922daee3e07db95305ef49ebced9f5467a0b8613fcc6b343e3805490921617905550565b60035460408051808201909152601b815260008051602061238b83398151915260208201526000916001600160a01b031633146120055760405162461bcd60e51b8152602060048201818152835160248401528351909283926044909101919085019080838360008315610928578181015183820152602001610910565b5060408051808201909152601081526f4552525f5a45524f5f4144445245535360801b602082015282906001600160a01b0382166120845760405162461bcd60e51b8152602060048201818152835160248401528351909283926044909101919085019080838360008315610928578181015183820152602001610910565b506005546001600160a01b038481169116148015906120b157506003546001600160a01b03848116911614155b80156120cb57506002546001600160a01b03848116911614155b6040518060400160405280601081526020016f4552525f53414d455f4144445245535360801b815250906121405760405162461bcd60e51b8152602060048201818152835160248401528351909283926044909101919085019080838360008315610928578181015183820152602001610910565b50600254604080516020808252600d908201526c282924a6a0a92cafa7aba722a960991b8183015290516001600160a01b038087169316917f6840904f5b31827f74e1497360da245f56e530c8c3de3163a2d31f11493273c6919081900360600190a3600280546001600160a01b0385166001600160a01b03199091161790556001915050919050565b6005546001600160a01b031681565b60086020526000908152604090208054600182015460029092015490919060ff1683565b60055460408051808201909152601b815260008051602061238b83398151915260208201526000916001600160a01b0316331461227b5760405162461bcd60e51b8152602060048201818152835160248401528351909283926044909101919085019080838360008315610928578181015183820152602001610910565b50815183511461228a57600080fd5b60005b8351811015610f20578281815181106122a257fe5b6020026020010151600a60008684815181106122ba57fe5b6020908102919091018101518252810191909152604001600020805460ff191691151591909117905560010161228d565b6001600160a01b03831660008181526006602090815260408083208054600160ff1991821681179092556008845282852088815580830188905560028101805490921690921790556007835281842080546001600160a01b03191686179055815187815291519394909390927f48b31fff3c9b855cfca973e70217a84bf53128b1b07814a70d31fbe1591c01fc928290030190a250600194935050505056fe4552525f415554484f52495a45445f414444524553535f4f4e4c590000000000a265627a7a723058207d7c8fe2d0dab238053c02ea579e6d1fd955071b94d9f4aabda03b5e45d1b90564736f6c63430005090032",
  "source": "pragma solidity ^0.5.9;\n\nimport \"../common/ProxyOwnable.sol\";\nimport \"../common/SafeMath.sol\";\nimport \"../Proxy/Upgradeable.sol\";\n\ncontract WhiteListStorage {\n    \n    //whiteList type here show which kind of wallet is this \n    // this is dynmic type field \n    \n    struct UserDetails {\n        uint256 whiteListType;\n        uint256 maxWallets;\n        bool canRecive;\n        address[] wallets;\n        mapping(address => uint256) walletIndex;\n        mapping(bytes32 => bytes32) moreDetails;\n    }\n    \n    mapping(address => bool) public is_whiteListed;\n\n    mapping(address => address) public address_belongs;\n\n    mapping(address => UserDetails) public user_details;\n\n    mapping(uint256 => bool) public allowed_in_primary;\n\n    mapping(uint256 => bool) public allowed_in_secondary;\n\n    mapping(address => bool) by_passed_address;\n    \n}\n\ncontract WhiteList is Upgradeable, ProxyOwnable, SafeMath, WhiteListStorage {\n\n    event AccountWhiteListed(address indexed which, uint256 walletType);\n    event WalletAdded(address indexed from, address indexed which);\n    event WalletRemoved(address indexed from, address indexed which);\n\n    function initialize(address _primaryOwner,address _systemAddress,address _authorityAddress) public {\n        super.initialize();\n        ProxyOwnable.initializeOwner(_primaryOwner,_systemAddress,_authorityAddress);\n        whiteListAccount(msg.sender, 0, 10);\n        whiteListAccount(_systemAddress, 0, 10);\n        by_passed_address[msg.sender] = true;\n        by_passed_address[_systemAddress] = true;\n        allowed_in_primary[0] = true;\n        allowed_in_secondary[0] = true;\n    }\n\n    function whiteListAccount(\n        address _which,\n        uint256 _whiteListType,\n        uint256 _maxWallets\n    ) internal returns (bool) {\n        \n        is_whiteListed[_which] = true;\n        \n        UserDetails storage details = user_details[_which];\n        \n        details.whiteListType = _whiteListType;\n        \n        details.maxWallets = _maxWallets;\n        \n        details.canRecive = true;\n        \n        address_belongs[_which] = _which;\n        \n        emit AccountWhiteListed(_which, _whiteListType);\n        \n        return true;\n    }\n\n    //by passed address dont need to pass anything\n    function setByPassedAddress(address _which, bool _isPassed)\n        public\n        onlySystem()\n        notZeroAddress(_which)\n        returns (bool)\n    {\n        by_passed_address[_which] = _isPassed;\n        return true;\n    }\n\n    function isAddressByPassed(address _which) public view returns (bool) {\n        return by_passed_address[_which];\n    }\n\n    /**\n     * @dev add new whitelisted account\n     * @param _which The address which was whitelisted.\n     * @param _whiteListType account type\n     * @param _maxWallets user can whitelist limted wallets\n     * @return true if transcation success\n     */\n    function addNewWallet(\n        address _which,\n        uint256 _whiteListType,\n        uint256 _maxWallets\n    ) public onlySystem() notZeroAddress(_which) returns (bool) {\n        require(address_belongs[_which] == address(0));\n        return whiteListAccount(_which, _whiteListType, _maxWallets);\n    }\n\n    /**\n     * @dev update how many wallet one user can have\n     * @param _which The address which was whitelisted.\n     * @param _maxWallets user can whitelist limted wallets\n     * @return true if transcation success\n     */\n    function updateMaxWallet(address _which, uint256 _maxWallets)\n        public\n        onlyOwner\n        returns (bool)\n    {\n        require(is_whiteListed[_which],ERR_AUTHORIZED_ADDRESS_ONLY);\n        UserDetails storage details = user_details[_which];\n        details.maxWallets = _maxWallets;\n        return true;\n    }\n\n    /**\n     * @dev once user whiltelisted they can add more address itself\n     * @param _which The address which was whitelisted.\n     * @return true if transcation success\n     */\n    function addMoreWallets(address _which)\n        public\n        notZeroAddress(_which)\n        returns (bool)\n    {\n        require(address_belongs[_which] == address(0), ERR_AUTHORIZED_ADDRESS_ONLY);\n        \n        address sender = msg.sender;\n        \n        address primaryAddress = address_belongs[sender];\n        \n        require(\n            is_whiteListed[primaryAddress] && sender == primaryAddress,\n            ERR_AUTHORIZED_ADDRESS_ONLY\n        );\n        \n        UserDetails storage details = user_details[primaryAddress];\n        \n        require(\n            details.maxWallets > details.wallets.length,\n            \"ERR_MAXIMUM_WALLET_LIMIT\"\n        );\n        \n        address_belongs[_which] = primaryAddress;\n        \n        details.wallets.push(_which);\n        \n        emit WalletAdded(primaryAddress, _which);\n        \n        return true;\n    }\n\n    function getUserWallets(address _whom)\n        public\n        view\n        returns (address[] memory)\n    {\n        UserDetails storage details = user_details[_whom];\n        return details.wallets;\n    }\n\n    // when user kyc or Aml expire\n    function walletExpires(address _which) public onlySystem() returns (bool) {\n        require(is_whiteListed[_which], \"ERR_ACTION_NOT_ALLOWED\");\n        address primaryAddress = address_belongs[_which];\n        UserDetails storage details = user_details[primaryAddress];\n        details.canRecive = false;\n        return true;\n    }\n\n    function walletRenewed(address _which) public onlySystem() returns (bool) {\n        require(is_whiteListed[_which], \"ERR_ACTION_NOT_ALLOWED\");\n        address primaryAddress = address_belongs[_which];\n        UserDetails storage details = user_details[primaryAddress];\n        details.canRecive = true;\n        return true;\n    }\n\n    /**\n     * @dev function to check if user can recive token or not\n     * @param _which The address which was blocked or unblocked.\n     */\n    function canReciveToken(address _which) public view returns (bool) {\n        address primaryAddress = address_belongs[_which];\n        return user_details[primaryAddress].canRecive;\n    }\n\n    /**\n     * @dev function to check if address whitelisted or not\n     * @param _which The address which was whitelisted.\n     */\n    function isWhiteListed(address _which) public view returns (bool) {\n        address primaryAddress = address_belongs[_which];\n        return is_whiteListed[primaryAddress];\n    }\n\n    /**\n     * @dev function to check if transfer allowed between whitelist type\n     * @param _which The address which was whitelisted.\n     */\n    function isTransferAllowed(address _which) public view returns (bool) {\n        address primaryAddress = address_belongs[_which];\n        return allowed_in_secondary[user_details[primaryAddress].whiteListType];\n    }\n\n    /**\n     * @dev function to set primary whiteList type allowed\n     * @param _whiteListType is array for type of account .\n     * @param _isAlloweded is array for bool.\n     */\n    function changeAllowInPrimary(\n        uint256[] memory _whiteListType,\n        bool[] memory _isAlloweded\n    ) public onlySystem() returns (bool) {\n        require(_whiteListType.length == _isAlloweded.length);\n        for (uint256 temp_x = 0; temp_x < _whiteListType.length; temp_x++) {\n            allowed_in_primary[_whiteListType[temp_x]] = _isAlloweded[temp_x];\n        }\n        return true;\n    }\n\n    /**\n     * @dev function to set primary whiteList type allowed\n     * @param _whiteListType is array for type of account .\n     * @param _isAlloweded is array for bool.\n     */\n    function changeAllowInSecondary(\n        uint256[] memory _whiteListType,\n        bool[] memory _isAlloweded\n    ) public onlySystem() returns (bool) {\n        require(_whiteListType.length == _isAlloweded.length);\n        \n        for (uint256 temp_x = 0; temp_x < _whiteListType.length; temp_x++) {\n            allowed_in_secondary[_whiteListType[temp_x]] = _isAlloweded[temp_x];\n        }\n        return true;\n    }\n\n    // check before transfer\n    function checkBeforeTransfer(address _from, address _to)\n        public\n        view\n        returns (bool)\n    {\n        if (!isWhiteListed(_from)) return false;\n\n        if (!isWhiteListed(_to)) return false;\n\n        if (!canReciveToken(_to)) return false;\n\n        if (!isTransferAllowed(_to)) return false;\n\n        return true;\n    }\n}",
  "sourcePath": "/home/mind/Work/Projects/Jointer/Jointer_auction/NewContracts/contracts/WhiteList/WhiteList.sol",
  "compiler": {
    "name": "solc",
    "version": "0.5.9+commit.e560f70d.Emscripten.clang"
  },
  "schemaVersion": "3.0.16",
  "updatedAt": "2020-05-04T15:22:10.713Z",
  "devdoc": {
    "methods": {
      "addMoreWallets(address)": {
        "details": "once user whiltelisted they can add more address itself",
        "params": {
          "_which": "The address which was whitelisted."
        },
        "return": "true if transcation success"
      },
      "addNewWallet(address,uint256,uint256)": {
        "details": "add new whitelisted account",
        "params": {
          "_maxWallets": "user can whitelist limted wallets",
          "_which": "The address which was whitelisted.",
          "_whiteListType": "account type"
        },
        "return": "true if transcation success"
      },
      "canReciveToken(address)": {
        "details": "function to check if user can recive token or not",
        "params": {
          "_which": "The address which was blocked or unblocked."
        }
      },
      "changeAllowInPrimary(uint256[],bool[])": {
        "details": "function to set primary whiteList type allowed",
        "params": {
          "_isAlloweded": "is array for bool.",
          "_whiteListType": "is array for type of account ."
        }
      },
      "changeAllowInSecondary(uint256[],bool[])": {
        "details": "function to set primary whiteList type allowed",
        "params": {
          "_isAlloweded": "is array for bool.",
          "_whiteListType": "is array for type of account ."
        }
      },
      "changeAuthorityAddress(address)": {
        "details": "change system address",
        "params": {
          "_which": "The address to which is new Authority address"
        }
      },
      "changePrimaryOwner(address)": {
        "details": "change primary ownership",
        "params": {
          "_which": "The address to which is new owner address"
        }
      },
      "changeSystemAddress(address)": {
        "details": "change system address",
        "params": {
          "_which": "The address to which is new system address"
        }
      },
      "implementation()": {
        "details": "Tells the address of the current implementation",
        "return": "address of the current implementation"
      },
      "initialize()": {
        "details": "Validates the caller is the versions registry. THIS FUNCTION SHOULD BE OVERRIDDEN CALLING SUPER"
      },
      "initializeOwner(address,address,address)": {
        "details": "The Ownable constructor sets the `primaryOwner` and `systemAddress` and '_multisigAddress' account."
      },
      "isTransferAllowed(address)": {
        "details": "function to check if transfer allowed between whitelist type",
        "params": {
          "_which": "The address which was whitelisted."
        }
      },
      "isWhiteListed(address)": {
        "details": "function to check if address whitelisted or not",
        "params": {
          "_which": "The address which was whitelisted."
        }
      },
      "updateMaxWallet(address,uint256)": {
        "details": "update how many wallet one user can have",
        "params": {
          "_maxWallets": "user can whitelist limted wallets",
          "_which": "The address which was whitelisted."
        },
        "return": "true if transcation success"
      }
    }
  },
  "userdoc": {
    "methods": {}
  }
}